{
  "_format": "hh-sol-artifact-1",
  "contractName": "TestTokenHandler",
  "sourceName": "contracts/bancor/helpers/TestTokenHandler.sol",
  "abi": [
    {
      "inputs": [
        {
          "internalType": "contract IERC20Token",
          "name": "_token",
          "type": "address"
        },
        {
          "internalType": "address",
          "name": "_spender",
          "type": "address"
        },
        {
          "internalType": "uint256",
          "name": "_value",
          "type": "uint256"
        }
      ],
      "name": "testSafeApprove",
      "outputs": [],
      "stateMutability": "nonpayable",
      "type": "function"
    },
    {
      "inputs": [
        {
          "internalType": "contract IERC20Token",
          "name": "_token",
          "type": "address"
        },
        {
          "internalType": "address",
          "name": "_to",
          "type": "address"
        },
        {
          "internalType": "uint256",
          "name": "_value",
          "type": "uint256"
        }
      ],
      "name": "testSafeTransfer",
      "outputs": [],
      "stateMutability": "nonpayable",
      "type": "function"
    },
    {
      "inputs": [
        {
          "internalType": "contract IERC20Token",
          "name": "_token",
          "type": "address"
        },
        {
          "internalType": "address",
          "name": "_from",
          "type": "address"
        },
        {
          "internalType": "address",
          "name": "_to",
          "type": "address"
        },
        {
          "internalType": "uint256",
          "name": "_value",
          "type": "uint256"
        }
      ],
      "name": "testSafeTransferFrom",
      "outputs": [],
      "stateMutability": "nonpayable",
      "type": "function"
    }
  ],
  "bytecode": "0x608060405234801561001057600080fd5b506105de806100206000396000f3fe608060405234801561001057600080fd5b50600436106100415760003560e01c8063083153141461004657806375231e611461007e578063f705d961146100ba575b600080fd5b61007c6004803603606081101561005c57600080fd5b506001600160a01b038135811691602081013590911690604001356100f0565b005b61007c6004803603608081101561009457600080fd5b506001600160a01b03813581169160208101358216916040820135169060600135610100565b61007c600480360360608110156100d057600080fd5b506001600160a01b03813581169160208101359091169060400135610112565b6100fb83838361011d565b505050565b61010c848484846102a0565b50505050565b6100fb83838361042c565b604080516001600160a01b038481166024830152604480830185905283518084039091018152606490920183526020820180516001600160e01b03167f095ea7b300000000000000000000000000000000000000000000000000000000178152925182516000946060949389169392918291908083835b602083106101b35780518252601f199092019160209182019101610194565b6001836020036101000a0380198251168184511680821785525050505050509050019150506000604051808303816000865af19150503d8060008114610215576040519150601f19603f3d011682016040523d82523d6000602084013e61021a565b606091505b5091509150818015610248575080511580610248575080806020019051602081101561024557600080fd5b50515b610299576040805162461bcd60e51b815260206004820152601260248201527f4552525f415050524f56455f4641494c45440000000000000000000000000000604482015290519081900360640190fd5b5050505050565b604080516001600160a01b0385811660248301528481166044830152606480830185905283518084039091018152608490920183526020820180516001600160e01b03167f23b872dd0000000000000000000000000000000000000000000000000000000017815292518251600094606094938a169392918291908083835b6020831061033e5780518252601f19909201916020918201910161031f565b6001836020036101000a0380198251168184511680821785525050505050509050019150506000604051808303816000865af19150503d80600081146103a0576040519150601f19603f3d011682016040523d82523d6000602084013e6103a5565b606091505b50915091508180156103d35750805115806103d357508080602001905160208110156103d057600080fd5b50515b610424576040805162461bcd60e51b815260206004820152601860248201527f4552525f5452414e534645525f46524f4d5f4641494c45440000000000000000604482015290519081900360640190fd5b505050505050565b604080516001600160a01b038481166024830152604480830185905283518084039091018152606490920183526020820180516001600160e01b03167fa9059cbb00000000000000000000000000000000000000000000000000000000178152925182516000946060949389169392918291908083835b602083106104c25780518252601f1990920191602091820191016104a3565b6001836020036101000a0380198251168184511680821785525050505050509050019150506000604051808303816000865af19150503d8060008114610524576040519150601f19603f3d011682016040523d82523d6000602084013e610529565b606091505b5091509150818015610557575080511580610557575080806020019051602081101561055457600080fd5b50515b610299576040805162461bcd60e51b815260206004820152601360248201527f4552525f5452414e534645525f4641494c454400000000000000000000000000604482015290519081900360640190fdfea2646970667358221220839f2697054f610dd1c76aa1af0bc7849aaf8f7cbfcee4ada0f7205d45a7b93b64736f6c634300060c0033",
  "linkReferences": {},
  "deployedLinkReferences": {}
}