{
  "contracts/Registrar.sol": {
    "Registrar": {
      "abi": [
        {
          "inputs": [
            {
              "internalType": "uint256[]",
              "name": "limits",
              "type": "uint256[]"
            }
          ],
          "name": "setLimits",
          "outputs": [],
          "stateMutability": "nonpayable",
          "type": "function"
        }
      ],
      "evm": {
        "bytecode": {
          "linkReferences": {},
          "object": "608060405234801561001057600080fd5b506101c4806100206000396000f3fe608060405234801561001057600080fd5b506004361061002b5760003560e01c80635919ffb214610030575b600080fd5b6100a76004803603602081101561004657600080fd5b810190808035906020019064010000000081111561006357600080fd5b82018360208201111561007557600080fd5b8035906020019184602083028401116401000000008311171561009757600080fd5b90919293919293905050506100a9565b005b60006100b3610123565b90508060020160006100c59190610150565b60005b8383905081101561011d57816002018484838181106100e357fe5b90506020020135908060018154018082558091505060019003906000526020600020016000909190919091505580806001019150506100c8565b50505050565b6000807f04aa27557c07e55a75592888f58fd511379f4b35607228cf5d91ebfbbcdef34f90508091505090565b508054600082559060005260206000209081019061016e9190610171565b50565b5b8082111561018a576000816000905550600101610172565b509056fea264697066735822122080300d42925070a4286f572daafb76cb7c690ec96670084af0400cd8529749a464736f6c63430007060033",
          "opcodes": "PUSH1 0x80 PUSH1 0x40 MSTORE CALLVALUE DUP1 ISZERO PUSH2 0x10 JUMPI PUSH1 0x0 DUP1 REVERT JUMPDEST POP PUSH2 0x1C4 DUP1 PUSH2 0x20 PUSH1 0x0 CODECOPY PUSH1 0x0 RETURN INVALID PUSH1 0x80 PUSH1 0x40 MSTORE CALLVALUE DUP1 ISZERO PUSH2 0x10 JUMPI PUSH1 0x0 DUP1 REVERT JUMPDEST POP PUSH1 0x4 CALLDATASIZE LT PUSH2 0x2B JUMPI PUSH1 0x0 CALLDATALOAD PUSH1 0xE0 SHR DUP1 PUSH4 0x5919FFB2 EQ PUSH2 0x30 JUMPI JUMPDEST PUSH1 0x0 DUP1 REVERT JUMPDEST PUSH2 0xA7 PUSH1 0x4 DUP1 CALLDATASIZE SUB PUSH1 0x20 DUP2 LT ISZERO PUSH2 0x46 JUMPI PUSH1 0x0 DUP1 REVERT JUMPDEST DUP2 ADD SWAP1 DUP1 DUP1 CALLDATALOAD SWAP1 PUSH1 0x20 ADD SWAP1 PUSH5 0x100000000 DUP2 GT ISZERO PUSH2 0x63 JUMPI PUSH1 0x0 DUP1 REVERT JUMPDEST DUP3 ADD DUP4 PUSH1 0x20 DUP3 ADD GT ISZERO PUSH2 0x75 JUMPI PUSH1 0x0 DUP1 REVERT JUMPDEST DUP1 CALLDATALOAD SWAP1 PUSH1 0x20 ADD SWAP2 DUP5 PUSH1 0x20 DUP4 MUL DUP5 ADD GT PUSH5 0x100000000 DUP4 GT OR ISZERO PUSH2 0x97 JUMPI PUSH1 0x0 DUP1 REVERT JUMPDEST SWAP1 SWAP2 SWAP3 SWAP4 SWAP2 SWAP3 SWAP4 SWAP1 POP POP POP PUSH2 0xA9 JUMP JUMPDEST STOP JUMPDEST PUSH1 0x0 PUSH2 0xB3 PUSH2 0x123 JUMP JUMPDEST SWAP1 POP DUP1 PUSH1 0x2 ADD PUSH1 0x0 PUSH2 0xC5 SWAP2 SWAP1 PUSH2 0x150 JUMP JUMPDEST PUSH1 0x0 JUMPDEST DUP4 DUP4 SWAP1 POP DUP2 LT ISZERO PUSH2 0x11D JUMPI DUP2 PUSH1 0x2 ADD DUP5 DUP5 DUP4 DUP2 DUP2 LT PUSH2 0xE3 JUMPI INVALID JUMPDEST SWAP1 POP PUSH1 0x20 MUL ADD CALLDATALOAD SWAP1 DUP1 PUSH1 0x1 DUP2 SLOAD ADD DUP1 DUP3 SSTORE DUP1 SWAP2 POP POP PUSH1 0x1 SWAP1 SUB SWAP1 PUSH1 0x0 MSTORE PUSH1 0x20 PUSH1 0x0 KECCAK256 ADD PUSH1 0x0 SWAP1 SWAP2 SWAP1 SWAP2 SWAP1 SWAP2 POP SSTORE DUP1 DUP1 PUSH1 0x1 ADD SWAP2 POP POP PUSH2 0xC8 JUMP JUMPDEST POP POP POP POP JUMP JUMPDEST PUSH1 0x0 DUP1 PUSH32 0x4AA27557C07E55A75592888F58FD511379F4B35607228CF5D91EBFBBCDEF34F SWAP1 POP DUP1 SWAP2 POP POP SWAP1 JUMP JUMPDEST POP DUP1 SLOAD PUSH1 0x0 DUP3 SSTORE SWAP1 PUSH1 0x0 MSTORE PUSH1 0x20 PUSH1 0x0 KECCAK256 SWAP1 DUP2 ADD SWAP1 PUSH2 0x16E SWAP2 SWAP1 PUSH2 0x171 JUMP JUMPDEST POP JUMP JUMPDEST JUMPDEST DUP1 DUP3 GT ISZERO PUSH2 0x18A JUMPI PUSH1 0x0 DUP2 PUSH1 0x0 SWAP1 SSTORE POP PUSH1 0x1 ADD PUSH2 0x172 JUMP JUMPDEST POP SWAP1 JUMP INVALID LOG2 PUSH5 0x6970667358 0x22 SLT KECCAK256 DUP1 ADDRESS 0xD TIMESTAMP SWAP3 POP PUSH17 0xA4286F572DAAFB76CB7C690EC96670084A CREATE BLOCKHASH 0xC 0xD8 MSTORE SWAP8 0x49 LOG4 PUSH5 0x736F6C6343 STOP SMOD MOD STOP CALLER "
        },
        "methodIdentifiers": {
          "setLimits(uint256[])": "5919ffb2"
        }
      }
    }
  }
}