{
  "contracts/LimitingRegistrar.sol": {
    "LimitingRegistrar": {
      "abi": [
        {
          "inputs": [
            {
              "internalType": "uint256[]",
              "name": "limits",
              "type": "uint256[]"
            }
          ],
          "name": "setLimits",
          "outputs": [],
          "stateMutability": "nonpayable",
          "type": "function"
        }
      ],
      "evm": {
        "bytecode": {
          "linkReferences": {},
          "object": "608060405234801561001057600080fd5b506101f6806100206000396000f3fe608060405234801561001057600080fd5b506004361061002b5760003560e01c80635919ffb214610030575b600080fd5b61004a6004803603810190610045919061017b565b61004c565b005b60006100566100c6565b905080600201600061006891906100f3565b60005b838390508110156100c0578160020184848381811061008657fe5b905060200201359080600181540180825580915050600190039060005260206000200160009091909190915055808060010191505061006b565b50505050565b6000807f04aa27557c07e55a75592888f58fd511379f4b35607228cf5d91ebfbbcdef34f90508091505090565b50805460008255906000526020600020908101906101119190610114565b50565b5b8082111561012d576000816000905550600101610115565b5090565b60008083601f84011261014357600080fd5b8235905067ffffffffffffffff81111561015c57600080fd5b60208301915083602082028301111561017457600080fd5b9250929050565b6000806020838503121561018e57600080fd5b600083013567ffffffffffffffff8111156101a857600080fd5b6101b485828601610131565b9250925050925092905056fea264697066735822122037485bcbac7db82ef54e224d5fb3c710f20d6dbf7cd62c22976d3fec7f44d7c064736f6c63430007060033",
          "opcodes": "PUSH1 0x80 PUSH1 0x40 MSTORE CALLVALUE DUP1 ISZERO PUSH2 0x10 JUMPI PUSH1 0x0 DUP1 REVERT JUMPDEST POP PUSH2 0x1F6 DUP1 PUSH2 0x20 PUSH1 0x0 CODECOPY PUSH1 0x0 RETURN INVALID PUSH1 0x80 PUSH1 0x40 MSTORE CALLVALUE DUP1 ISZERO PUSH2 0x10 JUMPI PUSH1 0x0 DUP1 REVERT JUMPDEST POP PUSH1 0x4 CALLDATASIZE LT PUSH2 0x2B JUMPI PUSH1 0x0 CALLDATALOAD PUSH1 0xE0 SHR DUP1 PUSH4 0x5919FFB2 EQ PUSH2 0x30 JUMPI JUMPDEST PUSH1 0x0 DUP1 REVERT JUMPDEST PUSH2 0x4A PUSH1 0x4 DUP1 CALLDATASIZE SUB DUP2 ADD SWAP1 PUSH2 0x45 SWAP2 SWAP1 PUSH2 0x17B JUMP JUMPDEST PUSH2 0x4C JUMP JUMPDEST STOP JUMPDEST PUSH1 0x0 PUSH2 0x56 PUSH2 0xC6 JUMP JUMPDEST SWAP1 POP DUP1 PUSH1 0x2 ADD PUSH1 0x0 PUSH2 0x68 SWAP2 SWAP1 PUSH2 0xF3 JUMP JUMPDEST PUSH1 0x0 JUMPDEST DUP4 DUP4 SWAP1 POP DUP2 LT ISZERO PUSH2 0xC0 JUMPI DUP2 PUSH1 0x2 ADD DUP5 DUP5 DUP4 DUP2 DUP2 LT PUSH2 0x86 JUMPI INVALID JUMPDEST SWAP1 POP PUSH1 0x20 MUL ADD CALLDATALOAD SWAP1 DUP1 PUSH1 0x1 DUP2 SLOAD ADD DUP1 DUP3 SSTORE DUP1 SWAP2 POP POP PUSH1 0x1 SWAP1 SUB SWAP1 PUSH1 0x0 MSTORE PUSH1 0x20 PUSH1 0x0 KECCAK256 ADD PUSH1 0x0 SWAP1 SWAP2 SWAP1 SWAP2 SWAP1 SWAP2 POP SSTORE DUP1 DUP1 PUSH1 0x1 ADD SWAP2 POP POP PUSH2 0x6B JUMP JUMPDEST POP POP POP POP JUMP JUMPDEST PUSH1 0x0 DUP1 PUSH32 0x4AA27557C07E55A75592888F58FD511379F4B35607228CF5D91EBFBBCDEF34F SWAP1 POP DUP1 SWAP2 POP POP SWAP1 JUMP JUMPDEST POP DUP1 SLOAD PUSH1 0x0 DUP3 SSTORE SWAP1 PUSH1 0x0 MSTORE PUSH1 0x20 PUSH1 0x0 KECCAK256 SWAP1 DUP2 ADD SWAP1 PUSH2 0x111 SWAP2 SWAP1 PUSH2 0x114 JUMP JUMPDEST POP JUMP JUMPDEST JUMPDEST DUP1 DUP3 GT ISZERO PUSH2 0x12D JUMPI PUSH1 0x0 DUP2 PUSH1 0x0 SWAP1 SSTORE POP PUSH1 0x1 ADD PUSH2 0x115 JUMP JUMPDEST POP SWAP1 JUMP JUMPDEST PUSH1 0x0 DUP1 DUP4 PUSH1 0x1F DUP5 ADD SLT PUSH2 0x143 JUMPI PUSH1 0x0 DUP1 REVERT JUMPDEST DUP3 CALLDATALOAD SWAP1 POP PUSH8 0xFFFFFFFFFFFFFFFF DUP2 GT ISZERO PUSH2 0x15C JUMPI PUSH1 0x0 DUP1 REVERT JUMPDEST PUSH1 0x20 DUP4 ADD SWAP2 POP DUP4 PUSH1 0x20 DUP3 MUL DUP4 ADD GT ISZERO PUSH2 0x174 JUMPI PUSH1 0x0 DUP1 REVERT JUMPDEST SWAP3 POP SWAP3 SWAP1 POP JUMP JUMPDEST PUSH1 0x0 DUP1 PUSH1 0x20 DUP4 DUP6 SUB SLT ISZERO PUSH2 0x18E JUMPI PUSH1 0x0 DUP1 REVERT JUMPDEST PUSH1 0x0 DUP4 ADD CALLDATALOAD PUSH8 0xFFFFFFFFFFFFFFFF DUP2 GT ISZERO PUSH2 0x1A8 JUMPI PUSH1 0x0 DUP1 REVERT JUMPDEST PUSH2 0x1B4 DUP6 DUP3 DUP7 ADD PUSH2 0x131 JUMP JUMPDEST SWAP3 POP SWAP3 POP POP SWAP3 POP SWAP3 SWAP1 POP JUMP INVALID LOG2 PUSH5 0x6970667358 0x22 SLT KECCAK256 CALLDATACOPY 0x48 JUMPDEST 0xCB 0xAC PUSH30 0xB82EF54E224D5FB3C710F20D6DBF7CD62C22976D3FEC7F44D7C064736F6C PUSH4 0x43000706 STOP CALLER "
        },
        "methodIdentifiers": {
          "setLimits(uint256[])": "5919ffb2"
        }
      }
    }
  }
}