{
  "_format": "hh-sol-artifact-1",
  "contractName": "DynamicTokenController",
  "sourceName": "contracts/DynamicTokenController.sol",
  "abi": [
    {
      "anonymous": false,
      "inputs": [
        {
          "indexed": true,
          "internalType": "uint256",
          "name": "id",
          "type": "uint256"
        },
        {
          "indexed": true,
          "internalType": "address",
          "name": "reserve",
          "type": "address"
        },
        {
          "indexed": true,
          "internalType": "address",
          "name": "dsToken",
          "type": "address"
        },
        {
          "indexed": false,
          "internalType": "address",
          "name": "oldConverter",
          "type": "address"
        },
        {
          "indexed": false,
          "internalType": "address",
          "name": "newConverter",
          "type": "address"
        }
      ],
      "name": "DynamicConverterUpgraded",
      "type": "event"
    },
    {
      "anonymous": false,
      "inputs": [
        {
          "indexed": true,
          "internalType": "uint256",
          "name": "id",
          "type": "uint256"
        },
        {
          "indexed": true,
          "internalType": "address",
          "name": "reserve",
          "type": "address"
        },
        {
          "indexed": false,
          "internalType": "address",
          "name": "dsToken",
          "type": "address"
        },
        {
          "indexed": false,
          "internalType": "address",
          "name": "converter",
          "type": "address"
        }
      ],
      "name": "DynamicTokenCreated",
      "type": "event"
    },
    {
      "inputs": [],
      "name": "bancorRegistry",
      "outputs": [
        {
          "internalType": "address",
          "name": "",
          "type": "address"
        }
      ],
      "stateMutability": "view",
      "type": "function"
    },
    {
      "inputs": [
        {
          "internalType": "uint256",
          "name": "",
          "type": "uint256"
        }
      ],
      "name": "converters",
      "outputs": [
        {
          "internalType": "contract IDynamicLiquidTokenConverterProxyable",
          "name": "",
          "type": "address"
        }
      ],
      "stateMutability": "view",
      "type": "function"
    },
    {
      "inputs": [
        {
          "internalType": "uint256",
          "name": "id",
          "type": "uint256"
        },
        {
          "internalType": "address",
          "name": "reserve",
          "type": "address"
        },
        {
          "internalType": "uint32",
          "name": "initWeight",
          "type": "uint32"
        },
        {
          "internalType": "uint32",
          "name": "stepWeight",
          "type": "uint32"
        },
        {
          "internalType": "uint32",
          "name": "minWeight",
          "type": "uint32"
        },
        {
          "internalType": "uint256",
          "name": "mcapThreshold",
          "type": "uint256"
        },
        {
          "internalType": "uint256",
          "name": "minBid",
          "type": "uint256"
        },
        {
          "internalType": "string",
          "name": "name",
          "type": "string"
        },
        {
          "internalType": "string",
          "name": "symbol",
          "type": "string"
        }
      ],
      "name": "createDynamicTokenAndConfigureStake",
      "outputs": [],
      "stateMutability": "nonpayable",
      "type": "function"
    },
    {
      "inputs": [],
      "name": "dsTokenImplementation",
      "outputs": [
        {
          "internalType": "address",
          "name": "",
          "type": "address"
        }
      ],
      "stateMutability": "view",
      "type": "function"
    },
    {
      "inputs": [],
      "name": "dynamicConverterImplementation",
      "outputs": [
        {
          "internalType": "address",
          "name": "",
          "type": "address"
        }
      ],
      "stateMutability": "view",
      "type": "function"
    },
    {
      "inputs": [
        {
          "internalType": "address",
          "name": "_dsImpl",
          "type": "address"
        },
        {
          "internalType": "address",
          "name": "_dconvImpl",
          "type": "address"
        },
        {
          "internalType": "contract StakingController",
          "name": "_stakingController",
          "type": "address"
        },
        {
          "internalType": "contract ZNSRegistry",
          "name": "_registry",
          "type": "address"
        },
        {
          "internalType": "address",
          "name": "_bancorRegistry",
          "type": "address"
        }
      ],
      "name": "initialize",
      "outputs": [],
      "stateMutability": "nonpayable",
      "type": "function"
    },
    {
      "inputs": [
        {
          "internalType": "address",
          "name": "sender",
          "type": "address"
        },
        {
          "internalType": "address",
          "name": "oldController",
          "type": "address"
        },
        {
          "internalType": "uint256",
          "name": "id",
          "type": "uint256"
        },
        {
          "internalType": "bytes",
          "name": "data",
          "type": "bytes"
        }
      ],
      "name": "onSetZnsController",
      "outputs": [
        {
          "internalType": "bytes4",
          "name": "",
          "type": "bytes4"
        }
      ],
      "stateMutability": "nonpayable",
      "type": "function"
    },
    {
      "inputs": [
        {
          "internalType": "uint256",
          "name": "id",
          "type": "uint256"
        },
        {
          "internalType": "address",
          "name": "reserveToken",
          "type": "address"
        }
      ],
      "name": "reduceWeight",
      "outputs": [],
      "stateMutability": "nonpayable",
      "type": "function"
    },
    {
      "inputs": [
        {
          "internalType": "uint256",
          "name": "id",
          "type": "uint256"
        },
        {
          "internalType": "address",
          "name": "reserveToken",
          "type": "address"
        },
        {
          "internalType": "address payable",
          "name": "_to",
          "type": "address"
        }
      ],
      "name": "reduceWeightTo",
      "outputs": [],
      "stateMutability": "nonpayable",
      "type": "function"
    },
    {
      "inputs": [],
      "name": "registry",
      "outputs": [
        {
          "internalType": "contract ZNSRegistry",
          "name": "",
          "type": "address"
        }
      ],
      "stateMutability": "view",
      "type": "function"
    },
    {
      "inputs": [
        {
          "internalType": "address",
          "name": "_registry",
          "type": "address"
        }
      ],
      "name": "setBancorRegistry",
      "outputs": [],
      "stateMutability": "nonpayable",
      "type": "function"
    },
    {
      "inputs": [
        {
          "internalType": "address",
          "name": "_impl",
          "type": "address"
        }
      ],
      "name": "setDSTokenImplementation",
      "outputs": [],
      "stateMutability": "nonpayable",
      "type": "function"
    },
    {
      "inputs": [
        {
          "internalType": "address",
          "name": "_impl",
          "type": "address"
        }
      ],
      "name": "setDynamicConverterImplemenation",
      "outputs": [],
      "stateMutability": "nonpayable",
      "type": "function"
    },
    {
      "inputs": [],
      "name": "stakingController",
      "outputs": [
        {
          "internalType": "contract StakingController",
          "name": "",
          "type": "address"
        }
      ],
      "stateMutability": "view",
      "type": "function"
    },
    {
      "inputs": [
        {
          "internalType": "uint256",
          "name": "",
          "type": "uint256"
        }
      ],
      "name": "tokens",
      "outputs": [
        {
          "internalType": "contract IDSTokenProxyable",
          "name": "",
          "type": "address"
        }
      ],
      "stateMutability": "view",
      "type": "function"
    },
    {
      "inputs": [
        {
          "internalType": "uint256",
          "name": "id",
          "type": "uint256"
        }
      ],
      "name": "upgradeConverter",
      "outputs": [],
      "stateMutability": "nonpayable",
      "type": "function"
    }
  ],
  "bytecode": "0x608060405234801561001057600080fd5b50611e8a806100206000396000f3fe608060405234801561001057600080fd5b50600436106101005760003560e01c806381797ecf11610097578063b8595cb611610066578063b8595cb61461032e578063c6ce26641461035a578063e24ab04914610380578063f9d8d9971461039d57610100565b806381797ecf14610209578063aefa444f1461023d578063b276331714610245578063b34994b31461032657610100565b80634f64b2be116100d35780634f64b2be146101bf57806360a6e23a146101dc578063713e6a09146101f95780637b1039991461020157610100565b80630f4f818414610105578063114dc733146101295780631459457a146101515780633b7d30f514610199575b600080fd5b61010d610507565b604080516001600160a01b039092168252519081900360200190f35b61014f6004803603602081101561013f57600080fd5b50356001600160a01b0316610516565b005b61014f600480360360a081101561016757600080fd5b506001600160a01b0381358116916020810135821691604082013581169160608101358216916080909101351661062c565b61014f600480360360208110156101af57600080fd5b50356001600160a01b0316610729565b61010d600480360360208110156101d557600080fd5b503561083f565b61010d600480360360208110156101f257600080fd5b503561085a565b61010d610875565b61010d610884565b61014f6004803603606081101561021f57600080fd5b508035906001600160a01b0360208201358116916040013516610893565b61010d61099b565b6103096004803603608081101561025b57600080fd5b6001600160a01b03823581169260208101359091169160408201359190810190608081016060820135600160201b81111561029557600080fd5b8201836020820111156102a757600080fd5b803590602001918460018302840111600160201b831117156102c857600080fd5b91908080601f0160208091040260200160405190810160405280939291908181526020018383808284376000920191909152509295506109aa945050505050565b604080516001600160e01b03199092168252519081900360200190f35b61010d610b9f565b61014f6004803603604081101561034457600080fd5b50803590602001356001600160a01b0316610bae565b61014f6004803603602081101561037057600080fd5b50356001600160a01b0316610bbd565b61014f6004803603602081101561039657600080fd5b5035610cd3565b61014f60048036036101208110156103b457600080fd5b8135916001600160a01b036020820135169163ffffffff6040830135811692606081013582169260808201359092169160a08201359160c081013591810190610100810160e0820135600160201b81111561040e57600080fd5b82018360208201111561042057600080fd5b803590602001918460018302840111600160201b8311171561044157600080fd5b91908080601f0160208091040260200160405190810160405280939291908181526020018383808284376000920191909152509295949360208101935035915050600160201b81111561049357600080fd5b8201836020820111156104a557600080fd5b803590602001918460018302840111600160201b831117156104c657600080fd5b91908080601f016020809104026020016040519081016040528093929190818152602001838380828437600092019190915250929550611364945050505050565b6005546001600160a01b031681565b60075460408051631ddbef2560e31b8152905133926001600160a01b031691636352211e91839163eedf7928916004808301926020929190829003018186803b15801561056257600080fd5b505afa158015610576573d6000803e3d6000fd5b505050506040513d602081101561058c57600080fd5b5051604080516001600160e01b031960e085901b1681526004810192909252516024808301926020929190829003018186803b1580156105cb57600080fd5b505afa1580156105df573d6000803e3d6000fd5b505050506040513d60208110156105f557600080fd5b50516001600160a01b03161461060a57600080fd5b600380546001600160a01b0319166001600160a01b0392909216919091179055565b600054610100900460ff168061064557506106456114b8565b80610653575060005460ff16155b61068e5760405162461bcd60e51b815260040180806020018281038252602e815260200180611e27602e913960400191505060405180910390fd5b600054610100900460ff161580156106b9576000805460ff1961ff0019909116610100171660011790555b600380546001600160a01b03199081166001600160a01b0389811691909117909255600480548216888416179055600680548216878416179055600780548216868416179055600580549091169184169190911790558015610721576000805461ff00191690555b505050505050565b60075460408051631ddbef2560e31b8152905133926001600160a01b031691636352211e91839163eedf7928916004808301926020929190829003018186803b15801561077557600080fd5b505afa158015610789573d6000803e3d6000fd5b505050506040513d602081101561079f57600080fd5b5051604080516001600160e01b031960e085901b1681526004810192909252516024808301926020929190829003018186803b1580156107de57600080fd5b505afa1580156107f2573d6000803e3d6000fd5b505050506040513d602081101561080857600080fd5b50516001600160a01b03161461081d57600080fd5b600480546001600160a01b0319166001600160a01b0392909216919091179055565b6001602052600090815260409020546001600160a01b031681565b6002602052600090815260409020546001600160a01b031681565b6006546001600160a01b031681565b6007546001600160a01b031681565b600754604080516331a9108f60e11b815260048101869052905133926001600160a01b031691636352211e916024808301926020929190829003018186803b1580156108de57600080fd5b505afa1580156108f2573d6000803e3d6000fd5b505050506040513d602081101561090857600080fd5b50516001600160a01b03161461091d57600080fd5b600083815260026020526040808220548151632fd9db3360e11b81526001600160a01b0386811660048301528581166024830152925192909116928392635fb3b66692604480820193929182900301818387803b15801561097d57600080fd5b505af1158015610991573d6000803e3d6000fd5b5050505050505050565b6003546001600160a01b031681565b6007546000906001600160a01b031633146109c457600080fd5b600080600080600080600080898060200190516101008110156109e657600080fd5b815160208301516040808501516060860151608087015160a088015160c08901805195519799969894979396929591948301929184600160201b821115610a2c57600080fd5b908301906020820185811115610a4157600080fd5b8251600160201b811182820188101715610a5a57600080fd5b82525081516020918201929091019080838360005b83811015610a87578181015183820152602001610a6f565b50505050905090810190601f168015610ab45780820380516001836020036101000a031916815260200191505b5060405260200180516040519392919084600160201b821115610ad657600080fd5b908301906020820185811115610aeb57600080fd5b8251600160201b811182820188101715610b0457600080fd5b82525081516020918201929091019080838360005b83811015610b31578181015183820152602001610b19565b50505050905090810190601f168015610b5e5780820380516001836020036101000a031916815260200191505b5060405250505097509750975097509750975097509750610b868b89898989898989896114c9565b5063b276331760e01b9c9b505050505050505050505050565b6004546001600160a01b031681565b610bb9828233610893565b5050565b60075460408051631ddbef2560e31b8152905133926001600160a01b031691636352211e91839163eedf7928916004808301926020929190829003018186803b158015610c0957600080fd5b505afa158015610c1d573d6000803e3d6000fd5b505050506040513d6020811015610c3357600080fd5b5051604080516001600160e01b031960e085901b1681526004810192909252516024808301926020929190829003018186803b158015610c7257600080fd5b505afa158015610c86573d6000803e3d6000fd5b505050506040513d6020811015610c9c57600080fd5b50516001600160a01b031614610cb157600080fd5b600580546001600160a01b0319166001600160a01b0392909216919091179055565b600754604080516331a9108f60e11b815260048101849052905133926001600160a01b031691636352211e916024808301926020929190829003018186803b158015610d1e57600080fd5b505afa158015610d32573d6000803e3d6000fd5b505050506040513d6020811015610d4857600080fd5b50516001600160a01b031614610d5d57600080fd5b60008181526002602090815260409182902054600480548451635c60da1b60e01b815294516001600160a01b039384169591909316938593635c60da1b9383810193829003018186803b158015610db357600080fd5b505afa158015610dc7573d6000803e3d6000fd5b505050506040513d6020811015610ddd57600080fd5b50516001600160a01b03161415610df357600080fd5b6000816001600160a01b031663d3fb73b46040518163ffffffff1660e01b815260040160206040518083038186803b158015610e2e57600080fd5b505afa158015610e42573d6000803e3d6000fd5b505050506040513d6020811015610e5857600080fd5b50516040805163d031370b60e01b8152600060048201819052915192935090916001600160a01b0385169163d031370b916024808301926020929190829003018186803b158015610ea857600080fd5b505afa158015610ebc573d6000803e3d6000fd5b505050506040513d6020811015610ed257600080fd5b50516040805163c9a396e960e01b81526001600160a01b03808416600483015282519394506000939087169263c9a396e99260248082019391829003018186803b158015610f1f57600080fd5b505afa158015610f33573d6000803e3d6000fd5b505050506040513d6040811015610f4957600080fd5b5060209081015160408051633e57851b60e21b815290519193506000926110a6928692889287926001600160a01b038c169263f95e146c926004808301939192829003018186803b158015610f9d57600080fd5b505afa158015610fb1573d6000803e3d6000fd5b505050506040513d6020811015610fc757600080fd5b5051604080516340bf2fb760e01b815290516001600160a01b038c16916340bf2fb7916004808301926020929190829003018186803b15801561100957600080fd5b505afa15801561101d573d6000803e3d6000fd5b505050506040513d602081101561103357600080fd5b5051604080516370b0aec560e01b815290516001600160a01b038d16916370b0aec5916004808301926020929190829003018186803b15801561107557600080fd5b505afa158015611089573d6000803e3d6000fd5b505050506040513d602081101561109f57600080fd5b50516119a7565b90506001600160a01b03831673eeeeeeeeeeeeeeeeeeeeeeeeeeeeeeeeeeeeeeee141561113957846001600160a01b031663690d8320826040518263ffffffff1660e01b815260040180826001600160a01b03168152602001915050600060405180830381600087803b15801561111c57600080fd5b505af1158015611130573d6000803e3d6000fd5b50505050611231565b846001600160a01b0316635e35359e8483866001600160a01b03166370a082318a6040518263ffffffff1660e01b815260040180826001600160a01b0316815260200191505060206040518083038186803b15801561119757600080fd5b505afa1580156111ab573d6000803e3d6000fd5b505050506040513d60208110156111c157600080fd5b5051604080516001600160e01b031960e087901b1681526001600160a01b03948516600482015292909316602483015260448201529051606480830192600092919082900301818387803b15801561121857600080fd5b505af115801561122c573d6000803e3d6000fd5b505050505b846001600160a01b03166367b6d57c826040518263ffffffff1660e01b815260040180826001600160a01b03168152602001915050600060405180830381600087803b15801561128057600080fd5b505af1158015611294573d6000803e3d6000fd5b50505050806001600160a01b031663cdc91c696040518163ffffffff1660e01b8152600401600060405180830381600087803b1580156112d357600080fd5b505af11580156112e7573d6000803e3d6000fd5b50505060008781526002602090815260409182902080546001600160a01b0319166001600160a01b0386811691821790925583518a831681529283015282518882169450908716928a927f85e6941dcfb5b23da69fd23cd5fcf5751417353dbd8c9a6ff2a18ed092bdd568929081900390910190a4505050505050565b600754604080516331a9108f60e11b8152600481018c905290516001600160a01b0390921691636352211e91602480820192602092909190829003018186803b1580156113b057600080fd5b505afa1580156113c4573d6000803e3d6000fd5b505050506040513d60208110156113da57600080fd5b50516001600160a01b031633146113f057600080fd5b6000898152600160205260409020546001600160a01b03161561141257600080fd5b60075460408051632eec7b5560e11b8152600481018c9052905130926001600160a01b031691635dd8f6aa916024808301926020929190829003018186803b15801561145d57600080fd5b505afa158015611471573d6000803e3d6000fd5b505050506040513d602081101561148757600080fd5b50516001600160a01b03161461149c57600080fd5b6114ad8989898989898989896114c9565b505050505050505050565b60006114c330611c12565b15905090565b60075460408051632eec7b5560e11b8152600481018c9052905130926001600160a01b031691635dd8f6aa916024808301926020929190829003018186803b15801561151457600080fd5b505afa158015611528573d6000803e3d6000fd5b505050506040513d602081101561153e57600080fd5b50516001600160a01b03161461155357600080fd5b6003546040516000916001600160a01b03169061156f90611c18565b6001600160a01b03909116815260405190819003602001906000f08015801561159c573d6000803e3d6000fd5b509050806001600160a01b0316631624f6c6848460126040518463ffffffff1660e01b8152600401808060200180602001848152602001838103835286818151815260200191508051906020019080838360005b838110156116085781810151838201526020016115f0565b50505050905090810190601f1680156116355780820380516001836020036101000a031916815260200191505b50838103825285518152855160209182019187019080838360005b83811015611668578181015183820152602001611650565b50505050905090810190601f1680156116955780820380516001836020036101000a031916815260200191505b5095505050505050600060405180830381600087803b1580156116b757600080fd5b505af11580156116cb573d6000803e3d6000fd5b5050505060006116df8a838b8b8b8b6119a7565b9050816001600160a01b031663f2fde38b826040518263ffffffff1660e01b815260040180826001600160a01b03168152602001915050600060405180830381600087803b15801561173057600080fd5b505af1158015611744573d6000803e3d6000fd5b50505050806001600160a01b031663cdc91c696040518163ffffffff1660e01b8152600401600060405180830381600087803b15801561178357600080fd5b505af1158015611797573d6000803e3d6000fd5b5050505080600260008d815260200190815260200160002060006101000a8154816001600160a01b0302191690836001600160a01b0316021790555081600160008d815260200190815260200160002060006101000a8154816001600160a01b0302191690836001600160a01b03160217905550600760009054906101000a90046001600160a01b03166001600160a01b031663fa23b5b08c600660009054906101000a90046001600160a01b0316858960405160200180836001600160a01b03168152602001828152602001925050506040516020818303038152906040526040518463ffffffff1660e01b815260040180848152602001836001600160a01b0316815260200180602001828103825283818151815260200191508051906020019080838360005b838110156118d85781810151838201526020016118c0565b50505050905090810190601f1680156119055780820380516001836020036101000a031916815260200191505b50945050505050600060405180830381600087803b15801561192657600080fd5b505af115801561193a573d6000803e3d6000fd5b50505050896001600160a01b03168b7f85fc337b088bf1c402ce5db8891d82bde84c53e90509ff80318f8e61902a8bd9848460405180836001600160a01b03168152602001826001600160a01b031681526020019250505060405180910390a35050505050505050505050565b60045460405160009182916001600160a01b03909116906119c790611c18565b6001600160a01b03909116815260405190819003602001906000f0801580156119f4573d6000803e3d6000fd5b5060055460408051633767959160e11b81526001600160a01b038b811660048301529283166024820152600060448201819052915193945091841692636ecf2b2292606480820193929182900301818387803b158015611a5357600080fd5b505af1158015611a67573d6000803e3d6000fd5b50505050806001600160a01b0316636a49d2c489886040518363ffffffff1660e01b815260040180836001600160a01b031681526020018263ffffffff16815260200192505050600060405180830381600087803b158015611ac857600080fd5b505af1158015611adc573d6000803e3d6000fd5b50505050806001600160a01b031663ad161582866040518263ffffffff1660e01b8152600401808263ffffffff168152602001915050600060405180830381600087803b158015611b2c57600080fd5b505af1158015611b40573d6000803e3d6000fd5b50505050806001600160a01b031663c3e8dfa8856040518263ffffffff1660e01b8152600401808263ffffffff168152602001915050600060405180830381600087803b158015611b9057600080fd5b505af1158015611ba4573d6000803e3d6000fd5b50505050806001600160a01b031663c9be579b846040518263ffffffff1660e01b815260040180828152602001915050600060405180830381600087803b158015611bee57600080fd5b505af1158015611c02573d6000803e3d6000fd5b50929a9950505050505050505050565b3b151590565b61020180611c268339019056fe608060405234801561001057600080fd5b506040516102013803806102018339818101604052602081101561003357600080fd5b505161003e81610044565b506100bc565b610057816100b660201b61007a1760201c565b6100925760405162461bcd60e51b81526004018080602001828103825260398152602001806101c86039913960400191505060405180910390fd5b7f360894a13ba1a3210667c828492db98dca3e2076cc3735a920a3ca505d382bbc55565b3b151590565b60fe806100ca6000396000f3fe608060405260043610601f5760003560e01c80635c60da1b14603157602b565b36602b576029605f565b005b6029605f565b348015603c57600080fd5b506043606d565b604080516001600160a01b039092168252519081900360200190f35b606b60676080565b60a5565b565b600060756080565b905090565b3b151590565b7f360894a13ba1a3210667c828492db98dca3e2076cc3735a920a3ca505d382bbc5490565b3660008037600080366000845af43d6000803e80801560c3573d6000f35b3d6000fdfea2646970667358221220a12fb23073e04ca9feba81b94533c3d0f3acd329b2bb8b14692b5146b91b524d64736f6c634300070600334e6f6e7570677261646561626c6550726f78793a206e657720696d706c656d656e746174696f6e206973206e6f74206120636f6e7472616374496e697469616c697a61626c653a20636f6e747261637420697320616c726561647920696e697469616c697a6564a2646970667358221220cd3111c2b8a1095eac9b5f5dfc002d9ee0e85a31f7e9afa6cb41bdba1fd38dad64736f6c63430007060033",
  "linkReferences": {},
  "deployedLinkReferences": {}
}