{
  "_format": "hh-sol-artifact-1",
  "contractName": "DynamicTokenController",
  "sourceName": "contracts/DynamicTokenController.sol",
  "abi": [
    {
      "inputs": [
        {
          "internalType": "address",
          "name": "_dsImpl",
          "type": "address"
        },
        {
          "internalType": "address",
          "name": "_dconvImpl",
          "type": "address"
        },
        {
          "internalType": "contract StakingController",
          "name": "_stakingController",
          "type": "address"
        },
        {
          "internalType": "contract Registry",
          "name": "_registry",
          "type": "address"
        }
      ],
      "stateMutability": "nonpayable",
      "type": "constructor"
    },
    {
      "inputs": [],
      "name": "DSTokenImplementation",
      "outputs": [
        {
          "internalType": "address",
          "name": "",
          "type": "address"
        }
      ],
      "stateMutability": "view",
      "type": "function"
    },
    {
      "inputs": [],
      "name": "DynamicConverterImplementation",
      "outputs": [
        {
          "internalType": "address",
          "name": "",
          "type": "address"
        }
      ],
      "stateMutability": "view",
      "type": "function"
    },
    {
      "inputs": [],
      "name": "bancorRegistry",
      "outputs": [
        {
          "internalType": "address",
          "name": "",
          "type": "address"
        }
      ],
      "stateMutability": "view",
      "type": "function"
    },
    {
      "inputs": [
        {
          "internalType": "uint256",
          "name": "",
          "type": "uint256"
        }
      ],
      "name": "converters",
      "outputs": [
        {
          "internalType": "address",
          "name": "",
          "type": "address"
        }
      ],
      "stateMutability": "view",
      "type": "function"
    },
    {
      "inputs": [
        {
          "internalType": "address",
          "name": "sender",
          "type": "address"
        },
        {
          "internalType": "address",
          "name": "oldController",
          "type": "address"
        },
        {
          "internalType": "uint256",
          "name": "id",
          "type": "uint256"
        },
        {
          "internalType": "bytes",
          "name": "data",
          "type": "bytes"
        }
      ],
      "name": "onSetZnsController",
      "outputs": [
        {
          "internalType": "bytes4",
          "name": "",
          "type": "bytes4"
        }
      ],
      "stateMutability": "nonpayable",
      "type": "function"
    },
    {
      "inputs": [],
      "name": "registry",
      "outputs": [
        {
          "internalType": "contract Registry",
          "name": "",
          "type": "address"
        }
      ],
      "stateMutability": "view",
      "type": "function"
    },
    {
      "inputs": [],
      "name": "stakingController",
      "outputs": [
        {
          "internalType": "contract StakingController",
          "name": "",
          "type": "address"
        }
      ],
      "stateMutability": "view",
      "type": "function"
    },
    {
      "inputs": [
        {
          "internalType": "uint256",
          "name": "",
          "type": "uint256"
        }
      ],
      "name": "tokens",
      "outputs": [
        {
          "internalType": "address",
          "name": "",
          "type": "address"
        }
      ],
      "stateMutability": "view",
      "type": "function"
    }
  ],
  "bytecode": "0x608060405234801561001057600080fd5b506040516110d03803806110d08339818101604052608081101561003357600080fd5b810190808051906020019092919080519060200190929190805190602001909291908051906020019092919050505083600260006101000a81548173ffffffffffffffffffffffffffffffffffffffff021916908373ffffffffffffffffffffffffffffffffffffffff16021790555082600360006101000a81548173ffffffffffffffffffffffffffffffffffffffff021916908373ffffffffffffffffffffffffffffffffffffffff16021790555050505050610fd9806100f76000396000f3fe608060405234801561001057600080fd5b50600436106100885760003560e01c8063713e6a091161005b578063713e6a09146101a55780637b103999146101d957806386b519e21461020d578063b27633171461024157610088565b80630f4f81841461008d5780634f64b2be146100c1578063533228d11461011957806360a6e23a1461014d575b600080fd5b610095610379565b604051808273ffffffffffffffffffffffffffffffffffffffff16815260200191505060405180910390f35b6100ed600480360360208110156100d757600080fd5b810190808035906020019092919050505061039f565b604051808273ffffffffffffffffffffffffffffffffffffffff16815260200191505060405180910390f35b6101216103d2565b604051808273ffffffffffffffffffffffffffffffffffffffff16815260200191505060405180910390f35b6101796004803603602081101561016357600080fd5b81019080803590602001909291905050506103f8565b604051808273ffffffffffffffffffffffffffffffffffffffff16815260200191505060405180910390f35b6101ad61042b565b604051808273ffffffffffffffffffffffffffffffffffffffff16815260200191505060405180910390f35b6101e1610451565b604051808273ffffffffffffffffffffffffffffffffffffffff16815260200191505060405180910390f35b610215610477565b604051808273ffffffffffffffffffffffffffffffffffffffff16815260200191505060405180910390f35b6103446004803603608081101561025757600080fd5b81019080803573ffffffffffffffffffffffffffffffffffffffff169060200190929190803573ffffffffffffffffffffffffffffffffffffffff16906020019092919080359060200190929190803590602001906401000000008111156102be57600080fd5b8201836020820111156102d057600080fd5b803590602001918460018302840111640100000000831117156102f257600080fd5b91908080601f016020809104026020016040519081016040528093929190818152602001838380828437600081840152601f19601f82011690508083019250505050505050919291929050505061049d565b60405180827bffffffffffffffffffffffffffffffffffffffffffffffffffffffff1916815260200191505060405180910390f35b600460009054906101000a900473ffffffffffffffffffffffffffffffffffffffff1681565b60006020528060005260406000206000915054906101000a900473ffffffffffffffffffffffffffffffffffffffff1681565b600360009054906101000a900473ffffffffffffffffffffffffffffffffffffffff1681565b60016020528060005260406000206000915054906101000a900473ffffffffffffffffffffffffffffffffffffffff1681565b600560009054906101000a900473ffffffffffffffffffffffffffffffffffffffff1681565b600660009054906101000a900473ffffffffffffffffffffffffffffffffffffffff1681565b600260009054906101000a900473ffffffffffffffffffffffffffffffffffffffff1681565b6000806000806000806000806000898060200190516101008110156104c157600080fd5b810190808051906020019092919080519060200190929190805190602001909291908051906020019092919080519060200190929190805190602001909291908051604051939291908464010000000082111561051d57600080fd5b8382019150602082018581111561053357600080fd5b825186600182028301116401000000008211171561055057600080fd5b8083526020830192505050908051906020019080838360005b83811015610584578082015181840152602081019050610569565b50505050905090810190601f1680156105b15780820380516001836020036101000a031916815260200191505b50604052602001805160405193929190846401000000008211156105d457600080fd5b838201915060208201858111156105ea57600080fd5b825186600182028301116401000000008211171561060757600080fd5b8083526020830192505050908051906020019080838360005b8381101561063b578082015181840152602081019050610620565b50505050905090810190601f1680156106685780820380516001836020036101000a031916815260200191505b50604052505050975097509750975097509750975097506000600260009054906101000a900473ffffffffffffffffffffffffffffffffffffffff166040516106b090610d8a565b808273ffffffffffffffffffffffffffffffffffffffff168152602001915050604051809103906000f0801580156106ec573d6000803e3d6000fd5b5090508073ffffffffffffffffffffffffffffffffffffffff16631624f6c6848460126040518463ffffffff1660e01b8152600401808060200180602001848152602001838103835286818151815260200191508051906020019080838360005b8381101561076857808201518184015260208101905061074d565b50505050905090810190601f1680156107955780820380516001836020036101000a031916815260200191505b50838103825285818151815260200191508051906020019080838360005b838110156107ce5780820151818401526020810190506107b3565b50505050905090810190601f1680156107fb5780820380516001836020036101000a031916815260200191505b5095505050505050600060405180830381600087803b15801561081d57600080fd5b505af1158015610831573d6000803e3d6000fd5b505050506000600360009054906101000a900473ffffffffffffffffffffffffffffffffffffffff1660405161086690610d8a565b808273ffffffffffffffffffffffffffffffffffffffff168152602001915050604051809103906000f0801580156108a2573d6000803e3d6000fd5b5090508073ffffffffffffffffffffffffffffffffffffffff16636ecf2b2283600460009054906101000a900473ffffffffffffffffffffffffffffffffffffffff1660006040518463ffffffff1660e01b8152600401808473ffffffffffffffffffffffffffffffffffffffff1681526020018373ffffffffffffffffffffffffffffffffffffffff1681526020018281526020019350505050600060405180830381600087803b15801561095757600080fd5b505af115801561096b573d6000803e3d6000fd5b505050508073ffffffffffffffffffffffffffffffffffffffff16636a49d2c48b8b6040518363ffffffff1660e01b8152600401808373ffffffffffffffffffffffffffffffffffffffff1681526020018263ffffffff16815260200192505050600060405180830381600087803b1580156109e657600080fd5b505af11580156109fa573d6000803e3d6000fd5b505050508073ffffffffffffffffffffffffffffffffffffffff1663ad161582896040518263ffffffff1660e01b8152600401808263ffffffff168152602001915050600060405180830381600087803b158015610a5757600080fd5b505af1158015610a6b573d6000803e3d6000fd5b505050508073ffffffffffffffffffffffffffffffffffffffff1663c3e8dfa8886040518263ffffffff1660e01b8152600401808263ffffffff168152602001915050600060405180830381600087803b158015610ac857600080fd5b505af1158015610adc573d6000803e3d6000fd5b505050508073ffffffffffffffffffffffffffffffffffffffff1663c9be579b866040518263ffffffff1660e01b815260040180828152602001915050600060405180830381600087803b158015610b3357600080fd5b505af1158015610b47573d6000803e3d6000fd5b5050505080600160008f815260200190815260200160002060006101000a81548173ffffffffffffffffffffffffffffffffffffffff021916908373ffffffffffffffffffffffffffffffffffffffff160217905550816000808f815260200190815260200160002060006101000a81548173ffffffffffffffffffffffffffffffffffffffff021916908373ffffffffffffffffffffffffffffffffffffffff160217905550600660009054906101000a900473ffffffffffffffffffffffffffffffffffffffff1673ffffffffffffffffffffffffffffffffffffffff16633e5779ee8e600560009054906101000a900473ffffffffffffffffffffffffffffffffffffffff166040518363ffffffff1660e01b8152600401808381526020018273ffffffffffffffffffffffffffffffffffffffff16815260200192505050600060405180830381600087803b158015610ca357600080fd5b505af1158015610cb7573d6000803e3d6000fd5b50505050600560009054906101000a900473ffffffffffffffffffffffffffffffffffffffff1673ffffffffffffffffffffffffffffffffffffffff166395c182528e84896040518463ffffffff1660e01b8152600401808481526020018373ffffffffffffffffffffffffffffffffffffffff1681526020018281526020019350505050600060405180830381600087803b158015610d5657600080fd5b505af1158015610d6a573d6000803e3d6000fd5b5050505063b276331760e01b9a5050505050505050505050949350505050565b61020c80610d988339019056fe608060405234801561001057600080fd5b5060405161020c38038061020c8339818101604052602081101561003357600080fd5b81019080805190602001909291905050506100538161005960201b60201c565b50610103565b61006c816100f060201b6100261760201c565b6100c1576040517f08c379a00000000000000000000000000000000000000000000000000000000081526004018080602001828103825260368152602001806101d66036913960400191505060405180910390fd5b60007f360894a13ba1a3210667c828492db98dca3e2076cc3735a920a3ca505d382bbc60001b90508181555050565b600080823b905060008111915050919050565b60c5806101116000396000f3fe608060405236601057600e6018565b005b60166018565b005b602460206039565b606a565b565b600080823b905060008111915050919050565b6000807f360894a13ba1a3210667c828492db98dca3e2076cc3735a920a3ca505d382bbc60001b9050805491505090565b3660008037600080366000845af43d6000803e8060008114608a573d6000f35b3d6000fdfea2646970667358221220140228fe8cc3b7c35d960c0ce5e7f823e2cec63f794d38b40fe75912375ccd6364736f6c634300070600335570677261646561626c6550726f78793a206e657720696d706c656d656e746174696f6e206973206e6f74206120636f6e7472616374a264697066735822122028d317020a77d3a14716ce74976100e0c3362bc903e571b049046c98fa35fc5564736f6c63430007060033",
  "linkReferences": {},
  "deployedLinkReferences": {}
}