{
  "_format": "hh-sol-artifact-1",
  "contractName": "LiquidityPoolV2Converter",
  "sourceName": "contracts/bancor/converter/types/liquidity-pool-v2/LiquidityPoolV2Converter.sol",
  "abi": [
    {
      "inputs": [
        {
          "internalType": "contract IPoolTokensContainer",
          "name": "_poolTokensContainer",
          "type": "address"
        },
        {
          "internalType": "contract IContractRegistry",
          "name": "_registry",
          "type": "address"
        },
        {
          "internalType": "uint32",
          "name": "_maxConversionFee",
          "type": "uint32"
        }
      ],
      "stateMutability": "nonpayable",
      "type": "constructor"
    },
    {
      "anonymous": false,
      "inputs": [
        {
          "indexed": true,
          "internalType": "uint16",
          "name": "_type",
          "type": "uint16"
        },
        {
          "indexed": true,
          "internalType": "contract IConverterAnchor",
          "name": "_anchor",
          "type": "address"
        },
        {
          "indexed": true,
          "internalType": "bool",
          "name": "_activated",
          "type": "bool"
        }
      ],
      "name": "Activation",
      "type": "event"
    },
    {
      "anonymous": false,
      "inputs": [
        {
          "indexed": true,
          "internalType": "contract IERC20Token",
          "name": "_fromToken",
          "type": "address"
        },
        {
          "indexed": true,
          "internalType": "contract IERC20Token",
          "name": "_toToken",
          "type": "address"
        },
        {
          "indexed": true,
          "internalType": "address",
          "name": "_trader",
          "type": "address"
        },
        {
          "indexed": false,
          "internalType": "uint256",
          "name": "_amount",
          "type": "uint256"
        },
        {
          "indexed": false,
          "internalType": "uint256",
          "name": "_return",
          "type": "uint256"
        },
        {
          "indexed": false,
          "internalType": "int256",
          "name": "_conversionFee",
          "type": "int256"
        }
      ],
      "name": "Conversion",
      "type": "event"
    },
    {
      "anonymous": false,
      "inputs": [
        {
          "indexed": false,
          "internalType": "uint32",
          "name": "_prevFee",
          "type": "uint32"
        },
        {
          "indexed": false,
          "internalType": "uint32",
          "name": "_newFee",
          "type": "uint32"
        }
      ],
      "name": "ConversionFeeUpdate",
      "type": "event"
    },
    {
      "anonymous": false,
      "inputs": [
        {
          "indexed": true,
          "internalType": "address",
          "name": "_provider",
          "type": "address"
        },
        {
          "indexed": true,
          "internalType": "contract IERC20Token",
          "name": "_reserveToken",
          "type": "address"
        },
        {
          "indexed": false,
          "internalType": "uint256",
          "name": "_amount",
          "type": "uint256"
        },
        {
          "indexed": false,
          "internalType": "uint256",
          "name": "_newBalance",
          "type": "uint256"
        },
        {
          "indexed": false,
          "internalType": "uint256",
          "name": "_newSupply",
          "type": "uint256"
        }
      ],
      "name": "LiquidityAdded",
      "type": "event"
    },
    {
      "anonymous": false,
      "inputs": [
        {
          "indexed": true,
          "internalType": "address",
          "name": "_provider",
          "type": "address"
        },
        {
          "indexed": true,
          "internalType": "contract IERC20Token",
          "name": "_reserveToken",
          "type": "address"
        },
        {
          "indexed": false,
          "internalType": "uint256",
          "name": "_amount",
          "type": "uint256"
        },
        {
          "indexed": false,
          "internalType": "uint256",
          "name": "_newBalance",
          "type": "uint256"
        },
        {
          "indexed": false,
          "internalType": "uint256",
          "name": "_newSupply",
          "type": "uint256"
        }
      ],
      "name": "LiquidityRemoved",
      "type": "event"
    },
    {
      "anonymous": false,
      "inputs": [
        {
          "indexed": false,
          "internalType": "uint32",
          "name": "_prevFee",
          "type": "uint32"
        },
        {
          "indexed": false,
          "internalType": "uint32",
          "name": "_newFee",
          "type": "uint32"
        }
      ],
      "name": "OracleDeviationFeeUpdate",
      "type": "event"
    },
    {
      "anonymous": false,
      "inputs": [
        {
          "indexed": true,
          "internalType": "address",
          "name": "_prevOwner",
          "type": "address"
        },
        {
          "indexed": true,
          "internalType": "address",
          "name": "_newOwner",
          "type": "address"
        }
      ],
      "name": "OwnerUpdate",
      "type": "event"
    },
    {
      "anonymous": false,
      "inputs": [
        {
          "indexed": true,
          "internalType": "contract IERC20Token",
          "name": "_token1",
          "type": "address"
        },
        {
          "indexed": true,
          "internalType": "contract IERC20Token",
          "name": "_token2",
          "type": "address"
        },
        {
          "indexed": false,
          "internalType": "uint256",
          "name": "_rateN",
          "type": "uint256"
        },
        {
          "indexed": false,
          "internalType": "uint256",
          "name": "_rateD",
          "type": "uint256"
        }
      ],
      "name": "TokenRateUpdate",
      "type": "event"
    },
    {
      "inputs": [],
      "name": "acceptAnchorOwnership",
      "outputs": [],
      "stateMutability": "nonpayable",
      "type": "function"
    },
    {
      "inputs": [],
      "name": "acceptOwnership",
      "outputs": [],
      "stateMutability": "nonpayable",
      "type": "function"
    },
    {
      "inputs": [],
      "name": "acceptTokenOwnership",
      "outputs": [],
      "stateMutability": "nonpayable",
      "type": "function"
    },
    {
      "inputs": [
        {
          "internalType": "contract IERC20Token",
          "name": "_primaryReserveToken",
          "type": "address"
        },
        {
          "internalType": "contract IChainlinkPriceOracle",
          "name": "_primaryReserveOracle",
          "type": "address"
        },
        {
          "internalType": "contract IChainlinkPriceOracle",
          "name": "_secondaryReserveOracle",
          "type": "address"
        }
      ],
      "name": "activate",
      "outputs": [],
      "stateMutability": "nonpayable",
      "type": "function"
    },
    {
      "inputs": [
        {
          "internalType": "contract IERC20Token",
          "name": "_reserveToken",
          "type": "address"
        },
        {
          "internalType": "uint256",
          "name": "_amount",
          "type": "uint256"
        },
        {
          "internalType": "uint256",
          "name": "_minReturn",
          "type": "uint256"
        }
      ],
      "name": "addLiquidity",
      "outputs": [
        {
          "internalType": "uint256",
          "name": "",
          "type": "uint256"
        }
      ],
      "stateMutability": "payable",
      "type": "function"
    },
    {
      "inputs": [
        {
          "internalType": "contract IERC20Token",
          "name": "_token",
          "type": "address"
        },
        {
          "internalType": "uint32",
          "name": "_weight",
          "type": "uint32"
        }
      ],
      "name": "addReserve",
      "outputs": [],
      "stateMutability": "nonpayable",
      "type": "function"
    },
    {
      "inputs": [],
      "name": "anchor",
      "outputs": [
        {
          "internalType": "contract IConverterAnchor",
          "name": "",
          "type": "address"
        }
      ],
      "stateMutability": "view",
      "type": "function"
    },
    {
      "inputs": [],
      "name": "connectorTokenCount",
      "outputs": [
        {
          "internalType": "uint16",
          "name": "",
          "type": "uint16"
        }
      ],
      "stateMutability": "view",
      "type": "function"
    },
    {
      "inputs": [
        {
          "internalType": "uint256",
          "name": "_index",
          "type": "uint256"
        }
      ],
      "name": "connectorTokens",
      "outputs": [
        {
          "internalType": "contract IERC20Token",
          "name": "",
          "type": "address"
        }
      ],
      "stateMutability": "view",
      "type": "function"
    },
    {
      "inputs": [
        {
          "internalType": "contract IERC20Token",
          "name": "_address",
          "type": "address"
        }
      ],
      "name": "connectors",
      "outputs": [
        {
          "internalType": "uint256",
          "name": "",
          "type": "uint256"
        },
        {
          "internalType": "uint32",
          "name": "",
          "type": "uint32"
        },
        {
          "internalType": "bool",
          "name": "",
          "type": "bool"
        },
        {
          "internalType": "bool",
          "name": "",
          "type": "bool"
        },
        {
          "internalType": "bool",
          "name": "",
          "type": "bool"
        }
      ],
      "stateMutability": "view",
      "type": "function"
    },
    {
      "inputs": [],
      "name": "conversionFee",
      "outputs": [
        {
          "internalType": "uint32",
          "name": "",
          "type": "uint32"
        }
      ],
      "stateMutability": "view",
      "type": "function"
    },
    {
      "inputs": [],
      "name": "conversionWhitelist",
      "outputs": [
        {
          "internalType": "contract IWhitelist",
          "name": "",
          "type": "address"
        }
      ],
      "stateMutability": "view",
      "type": "function"
    },
    {
      "inputs": [],
      "name": "conversionsEnabled",
      "outputs": [
        {
          "internalType": "bool",
          "name": "",
          "type": "bool"
        }
      ],
      "stateMutability": "view",
      "type": "function"
    },
    {
      "inputs": [
        {
          "internalType": "contract IERC20Token",
          "name": "_sourceToken",
          "type": "address"
        },
        {
          "internalType": "contract IERC20Token",
          "name": "_targetToken",
          "type": "address"
        },
        {
          "internalType": "uint256",
          "name": "_amount",
          "type": "uint256"
        },
        {
          "internalType": "address",
          "name": "_trader",
          "type": "address"
        },
        {
          "internalType": "address payable",
          "name": "_beneficiary",
          "type": "address"
        }
      ],
      "name": "convert",
      "outputs": [
        {
          "internalType": "uint256",
          "name": "",
          "type": "uint256"
        }
      ],
      "stateMutability": "payable",
      "type": "function"
    },
    {
      "inputs": [],
      "name": "converterType",
      "outputs": [
        {
          "internalType": "uint16",
          "name": "",
          "type": "uint16"
        }
      ],
      "stateMutability": "pure",
      "type": "function"
    },
    {
      "inputs": [],
      "name": "disableMaxStakedBalances",
      "outputs": [],
      "stateMutability": "nonpayable",
      "type": "function"
    },
    {
      "inputs": [],
      "name": "effectiveReserveWeights",
      "outputs": [
        {
          "internalType": "uint256",
          "name": "",
          "type": "uint256"
        },
        {
          "internalType": "uint256",
          "name": "",
          "type": "uint256"
        }
      ],
      "stateMutability": "view",
      "type": "function"
    },
    {
      "inputs": [],
      "name": "effectiveTokensRate",
      "outputs": [
        {
          "internalType": "uint256",
          "name": "",
          "type": "uint256"
        },
        {
          "internalType": "uint256",
          "name": "",
          "type": "uint256"
        }
      ],
      "stateMutability": "view",
      "type": "function"
    },
    {
      "inputs": [],
      "name": "externalRate",
      "outputs": [
        {
          "internalType": "uint256",
          "name": "n",
          "type": "uint256"
        },
        {
          "internalType": "uint256",
          "name": "d",
          "type": "uint256"
        }
      ],
      "stateMutability": "view",
      "type": "function"
    },
    {
      "inputs": [],
      "name": "externalRateUpdateTime",
      "outputs": [
        {
          "internalType": "uint256",
          "name": "",
          "type": "uint256"
        }
      ],
      "stateMutability": "view",
      "type": "function"
    },
    {
      "inputs": [
        {
          "internalType": "contract IERC20Token",
          "name": "_connectorToken",
          "type": "address"
        }
      ],
      "name": "getConnectorBalance",
      "outputs": [
        {
          "internalType": "uint256",
          "name": "",
          "type": "uint256"
        }
      ],
      "stateMutability": "view",
      "type": "function"
    },
    {
      "inputs": [
        {
          "internalType": "contract IERC20Token",
          "name": "_sourceToken",
          "type": "address"
        },
        {
          "internalType": "contract IERC20Token",
          "name": "_targetToken",
          "type": "address"
        },
        {
          "internalType": "uint256",
          "name": "_amount",
          "type": "uint256"
        }
      ],
      "name": "getReturn",
      "outputs": [
        {
          "internalType": "uint256",
          "name": "",
          "type": "uint256"
        },
        {
          "internalType": "uint256",
          "name": "",
          "type": "uint256"
        }
      ],
      "stateMutability": "view",
      "type": "function"
    },
    {
      "inputs": [],
      "name": "hasETHReserve",
      "outputs": [
        {
          "internalType": "bool",
          "name": "",
          "type": "bool"
        }
      ],
      "stateMutability": "view",
      "type": "function"
    },
    {
      "inputs": [],
      "name": "isActive",
      "outputs": [
        {
          "internalType": "bool",
          "name": "",
          "type": "bool"
        }
      ],
      "stateMutability": "view",
      "type": "function"
    },
    {
      "inputs": [],
      "name": "isV28OrHigher",
      "outputs": [
        {
          "internalType": "bool",
          "name": "",
          "type": "bool"
        }
      ],
      "stateMutability": "pure",
      "type": "function"
    },
    {
      "inputs": [
        {
          "internalType": "contract IDSToken",
          "name": "_poolToken",
          "type": "address"
        }
      ],
      "name": "liquidationLimit",
      "outputs": [
        {
          "internalType": "uint256",
          "name": "",
          "type": "uint256"
        }
      ],
      "stateMutability": "view",
      "type": "function"
    },
    {
      "inputs": [],
      "name": "maxConversionFee",
      "outputs": [
        {
          "internalType": "uint32",
          "name": "",
          "type": "uint32"
        }
      ],
      "stateMutability": "view",
      "type": "function"
    },
    {
      "inputs": [],
      "name": "maxStakedBalanceEnabled",
      "outputs": [
        {
          "internalType": "bool",
          "name": "",
          "type": "bool"
        }
      ],
      "stateMutability": "view",
      "type": "function"
    },
    {
      "inputs": [
        {
          "internalType": "contract IERC20Token",
          "name": "",
          "type": "address"
        }
      ],
      "name": "maxStakedBalances",
      "outputs": [
        {
          "internalType": "uint256",
          "name": "",
          "type": "uint256"
        }
      ],
      "stateMutability": "view",
      "type": "function"
    },
    {
      "inputs": [],
      "name": "newOwner",
      "outputs": [
        {
          "internalType": "address",
          "name": "",
          "type": "address"
        }
      ],
      "stateMutability": "view",
      "type": "function"
    },
    {
      "inputs": [],
      "name": "onlyOwnerCanUpdateRegistry",
      "outputs": [
        {
          "internalType": "bool",
          "name": "",
          "type": "bool"
        }
      ],
      "stateMutability": "view",
      "type": "function"
    },
    {
      "inputs": [],
      "name": "oracleDeviationFee",
      "outputs": [
        {
          "internalType": "uint32",
          "name": "",
          "type": "uint32"
        }
      ],
      "stateMutability": "view",
      "type": "function"
    },
    {
      "inputs": [],
      "name": "owner",
      "outputs": [
        {
          "internalType": "address",
          "name": "",
          "type": "address"
        }
      ],
      "stateMutability": "view",
      "type": "function"
    },
    {
      "inputs": [
        {
          "internalType": "contract IERC20Token",
          "name": "_reserveToken",
          "type": "address"
        }
      ],
      "name": "poolToken",
      "outputs": [
        {
          "internalType": "contract IDSToken",
          "name": "",
          "type": "address"
        }
      ],
      "stateMutability": "view",
      "type": "function"
    },
    {
      "inputs": [],
      "name": "prevRegistry",
      "outputs": [
        {
          "internalType": "contract IContractRegistry",
          "name": "",
          "type": "address"
        }
      ],
      "stateMutability": "view",
      "type": "function"
    },
    {
      "inputs": [],
      "name": "priceOracle",
      "outputs": [
        {
          "internalType": "contract IPriceOracle",
          "name": "",
          "type": "address"
        }
      ],
      "stateMutability": "view",
      "type": "function"
    },
    {
      "inputs": [],
      "name": "primaryReserveToken",
      "outputs": [
        {
          "internalType": "contract IERC20Token",
          "name": "",
          "type": "address"
        }
      ],
      "stateMutability": "view",
      "type": "function"
    },
    {
      "inputs": [],
      "name": "registry",
      "outputs": [
        {
          "internalType": "contract IContractRegistry",
          "name": "",
          "type": "address"
        }
      ],
      "stateMutability": "view",
      "type": "function"
    },
    {
      "inputs": [
        {
          "internalType": "contract IDSToken",
          "name": "_poolToken",
          "type": "address"
        },
        {
          "internalType": "uint256",
          "name": "_amount",
          "type": "uint256"
        },
        {
          "internalType": "uint256",
          "name": "_minReturn",
          "type": "uint256"
        }
      ],
      "name": "removeLiquidity",
      "outputs": [
        {
          "internalType": "uint256",
          "name": "",
          "type": "uint256"
        }
      ],
      "stateMutability": "nonpayable",
      "type": "function"
    },
    {
      "inputs": [
        {
          "internalType": "contract IDSToken",
          "name": "_poolToken",
          "type": "address"
        },
        {
          "internalType": "uint256",
          "name": "_amount",
          "type": "uint256"
        }
      ],
      "name": "removeLiquidityReturnAndFee",
      "outputs": [
        {
          "internalType": "uint256",
          "name": "",
          "type": "uint256"
        },
        {
          "internalType": "uint256",
          "name": "",
          "type": "uint256"
        }
      ],
      "stateMutability": "view",
      "type": "function"
    },
    {
      "inputs": [
        {
          "internalType": "contract IERC20Token",
          "name": "_reserveToken",
          "type": "address"
        }
      ],
      "name": "reserveAmplifiedBalance",
      "outputs": [
        {
          "internalType": "uint256",
          "name": "",
          "type": "uint256"
        }
      ],
      "stateMutability": "view",
      "type": "function"
    },
    {
      "inputs": [
        {
          "internalType": "contract IERC20Token",
          "name": "_reserveToken",
          "type": "address"
        }
      ],
      "name": "reserveBalance",
      "outputs": [
        {
          "internalType": "uint256",
          "name": "",
          "type": "uint256"
        }
      ],
      "stateMutability": "view",
      "type": "function"
    },
    {
      "inputs": [],
      "name": "reserveRatio",
      "outputs": [
        {
          "internalType": "uint32",
          "name": "",
          "type": "uint32"
        }
      ],
      "stateMutability": "view",
      "type": "function"
    },
    {
      "inputs": [
        {
          "internalType": "contract IERC20Token",
          "name": "_reserveToken",
          "type": "address"
        }
      ],
      "name": "reserveStakedBalance",
      "outputs": [
        {
          "internalType": "uint256",
          "name": "",
          "type": "uint256"
        }
      ],
      "stateMutability": "view",
      "type": "function"
    },
    {
      "inputs": [],
      "name": "reserveTokenCount",
      "outputs": [
        {
          "internalType": "uint16",
          "name": "",
          "type": "uint16"
        }
      ],
      "stateMutability": "view",
      "type": "function"
    },
    {
      "inputs": [
        {
          "internalType": "uint256",
          "name": "",
          "type": "uint256"
        }
      ],
      "name": "reserveTokens",
      "outputs": [
        {
          "internalType": "contract IERC20Token",
          "name": "",
          "type": "address"
        }
      ],
      "stateMutability": "view",
      "type": "function"
    },
    {
      "inputs": [
        {
          "internalType": "contract IERC20Token",
          "name": "_reserveToken",
          "type": "address"
        }
      ],
      "name": "reserveWeight",
      "outputs": [
        {
          "internalType": "uint32",
          "name": "",
          "type": "uint32"
        }
      ],
      "stateMutability": "view",
      "type": "function"
    },
    {
      "inputs": [
        {
          "internalType": "contract IERC20Token",
          "name": "",
          "type": "address"
        }
      ],
      "name": "reserves",
      "outputs": [
        {
          "internalType": "uint256",
          "name": "balance",
          "type": "uint256"
        },
        {
          "internalType": "uint32",
          "name": "weight",
          "type": "uint32"
        },
        {
          "internalType": "bool",
          "name": "deprecated1",
          "type": "bool"
        },
        {
          "internalType": "bool",
          "name": "deprecated2",
          "type": "bool"
        },
        {
          "internalType": "bool",
          "name": "isSet",
          "type": "bool"
        }
      ],
      "stateMutability": "view",
      "type": "function"
    },
    {
      "inputs": [],
      "name": "restoreRegistry",
      "outputs": [],
      "stateMutability": "nonpayable",
      "type": "function"
    },
    {
      "inputs": [
        {
          "internalType": "bool",
          "name": "_onlyOwnerCanUpdateRegistry",
          "type": "bool"
        }
      ],
      "name": "restrictRegistryUpdate",
      "outputs": [],
      "stateMutability": "nonpayable",
      "type": "function"
    },
    {
      "inputs": [],
      "name": "secondaryReserveToken",
      "outputs": [
        {
          "internalType": "contract IERC20Token",
          "name": "",
          "type": "address"
        }
      ],
      "stateMutability": "view",
      "type": "function"
    },
    {
      "inputs": [
        {
          "internalType": "uint32",
          "name": "_conversionFee",
          "type": "uint32"
        }
      ],
      "name": "setConversionFee",
      "outputs": [],
      "stateMutability": "nonpayable",
      "type": "function"
    },
    {
      "inputs": [
        {
          "internalType": "contract IWhitelist",
          "name": "_whitelist",
          "type": "address"
        }
      ],
      "name": "setConversionWhitelist",
      "outputs": [],
      "stateMutability": "nonpayable",
      "type": "function"
    },
    {
      "inputs": [
        {
          "internalType": "uint256",
          "name": "_reserve1MaxStakedBalance",
          "type": "uint256"
        },
        {
          "internalType": "uint256",
          "name": "_reserve2MaxStakedBalance",
          "type": "uint256"
        }
      ],
      "name": "setMaxStakedBalances",
      "outputs": [],
      "stateMutability": "nonpayable",
      "type": "function"
    },
    {
      "inputs": [
        {
          "internalType": "uint32",
          "name": "_oracleDeviationFee",
          "type": "uint32"
        }
      ],
      "name": "setOracleDeviationFee",
      "outputs": [],
      "stateMutability": "nonpayable",
      "type": "function"
    },
    {
      "inputs": [
        {
          "internalType": "contract IERC20Token",
          "name": "_reserveToken",
          "type": "address"
        },
        {
          "internalType": "uint256",
          "name": "_balance",
          "type": "uint256"
        }
      ],
      "name": "setReserveStakedBalance",
      "outputs": [],
      "stateMutability": "nonpayable",
      "type": "function"
    },
    {
      "inputs": [
        {
          "internalType": "contract IERC20Token",
          "name": "_sourceToken",
          "type": "address"
        },
        {
          "internalType": "contract IERC20Token",
          "name": "_targetToken",
          "type": "address"
        },
        {
          "internalType": "uint256",
          "name": "_amount",
          "type": "uint256"
        }
      ],
      "name": "targetAmountAndFee",
      "outputs": [
        {
          "internalType": "uint256",
          "name": "",
          "type": "uint256"
        },
        {
          "internalType": "uint256",
          "name": "",
          "type": "uint256"
        }
      ],
      "stateMutability": "view",
      "type": "function"
    },
    {
      "inputs": [],
      "name": "token",
      "outputs": [
        {
          "internalType": "contract IConverterAnchor",
          "name": "",
          "type": "address"
        }
      ],
      "stateMutability": "view",
      "type": "function"
    },
    {
      "inputs": [
        {
          "internalType": "address",
          "name": "_newOwner",
          "type": "address"
        }
      ],
      "name": "transferAnchorOwnership",
      "outputs": [],
      "stateMutability": "nonpayable",
      "type": "function"
    },
    {
      "inputs": [
        {
          "internalType": "address",
          "name": "_newOwner",
          "type": "address"
        }
      ],
      "name": "transferOwnership",
      "outputs": [],
      "stateMutability": "nonpayable",
      "type": "function"
    },
    {
      "inputs": [
        {
          "internalType": "address",
          "name": "_newOwner",
          "type": "address"
        }
      ],
      "name": "transferTokenOwnership",
      "outputs": [],
      "stateMutability": "nonpayable",
      "type": "function"
    },
    {
      "inputs": [],
      "name": "updateRegistry",
      "outputs": [],
      "stateMutability": "nonpayable",
      "type": "function"
    },
    {
      "inputs": [],
      "name": "upgrade",
      "outputs": [],
      "stateMutability": "nonpayable",
      "type": "function"
    },
    {
      "inputs": [],
      "name": "version",
      "outputs": [
        {
          "internalType": "uint16",
          "name": "",
          "type": "uint16"
        }
      ],
      "stateMutability": "view",
      "type": "function"
    },
    {
      "inputs": [
        {
          "internalType": "address payable",
          "name": "_to",
          "type": "address"
        }
      ],
      "name": "withdrawETH",
      "outputs": [],
      "stateMutability": "nonpayable",
      "type": "function"
    },
    {
      "inputs": [
        {
          "internalType": "contract IERC20Token",
          "name": "_token",
          "type": "address"
        },
        {
          "internalType": "address",
          "name": "_to",
          "type": "address"
        },
        {
          "internalType": "uint256",
          "name": "_amount",
          "type": "uint256"
        }
      ],
      "name": "withdrawTokens",
      "outputs": [],
      "stateMutability": "nonpayable",
      "type": "function"
    },
    {
      "stateMutability": "payable",
      "type": "receive"
    }
  ],
  "bytecode": "0x60806040526000600360156101000a81548160ff0219169083151502179055506000600860006101000a81548163ffffffff021916908363ffffffff1602179055506000600860046101000a81548163ffffffff021916908363ffffffff16021790555060006008806101000a81548163ffffffff021916908363ffffffff1602179055506001601260006101000a81548160ff021916908315150217905550612710601260016101000a81548163ffffffff021916908363ffffffff160217905550348015620000cf57600080fd5b50604051620081373803806200813783398181016040526060811015620000f557600080fd5b8101908080519060200190929190805190602001909291908051906020019092919050505082828282828281336000806101000a81548173ffffffffffffffffffffffffffffffffffffffff021916908373ffffffffffffffffffffffffffffffffffffffff1602179055508062000173816200028e60201b60201c565b81600260006101000a81548173ffffffffffffffffffffffffffffffffffffffff021916908373ffffffffffffffffffffffffffffffffffffffff16021790555081600360006101000a81548173ffffffffffffffffffffffffffffffffffffffff021916908373ffffffffffffffffffffffffffffffffffffffff16021790555050508262000209816200028e60201b60201c565b816200021b816200033560201b60201c565b84600460006101000a81548173ffffffffffffffffffffffffffffffffffffffff021916908373ffffffffffffffffffffffffffffffffffffffff16021790555082600860046101000a81548163ffffffff021916908363ffffffff1602179055505050505050505050505050620003be565b600073ffffffffffffffffffffffffffffffffffffffff168173ffffffffffffffffffffffffffffffffffffffff16141562000332576040517f08c379a00000000000000000000000000000000000000000000000000000000081526004018080602001828103825260138152602001807f4552525f494e56414c49445f414444524553530000000000000000000000000081525060200191505060405180910390fd5b50565b620f424063ffffffff168163ffffffff161115620003bb576040517f08c379a000000000000000000000000000000000000000000000000000000000815260040180806020018281038252601a8152602001807f4552525f494e56414c49445f434f4e56455253494f4e5f46454500000000000081525060200191505060405180910390fd5b50565b617d6980620003ce6000396000f3fe6080604052600436106103dc5760003560e01c80636a49d2c4116101fd578063d260529c11610118578063dc8de379116100ab578063ec2240f51161007a578063ec2240f5146116da578063ecbca55d1461170c578063f2fde38b1461174d578063fc0c546a1461179e578063fd2d6c7c146117df576104b9565b8063dc8de379146114f9578063ddd9abbf1461155e578063e38192e31461159f578063e8dc12ff14611618576104b9565b8063d66bd524116100e7578063d66bd52414611394578063d895951214611421578063db2830a414611486578063dc75eb9a146114b8576104b9565b8063d260529c146112ce578063d3fb73b4146112fb578063d4ee1d901461133c578063d55ec6971461137d576104b9565b8063ab28b17411610190578063bf7da6ba1161015f578063bf7da6ba146111b6578063c45d3d9214611211578063cdc91c6914611252578063d031370b14611269576104b9565b8063ab28b174146110aa578063af94b8d8146110dc578063b4a176d314611172578063bf75455814611189576104b9565b80638da5cb5b116101cc5780638da5cb5b14610fa457806394c275ad14610fe557806398a71dcb146110165780639b99a8e21461107b576104b9565b80636a49d2c414610ebc57806371f52bf314610f1d57806379ba509714610f4c5780637b10399914610f63576104b9565b80632bf0c985116102f857806354fd4d501161028b5780635e35359e1161025a5780635e35359e14610ce857806361cd756e14610d6357806367b6d57c14610da457806369067d9514610df5578063690d832014610e6b576104b9565b806354fd4d5014610ba157806355776b7714610bd05780635768adcf14610c3c578063579cd3ca14610cb7576104b9565b80633e8ff43f116102c75780633e8ff43f14610ac55780634674946814610af457806349d10b6414610b395780634af80f0e14610b50576104b9565b80632bf0c985146109eb5780632fe8a6ad14610a5057806334d084b914610a7d57806338a5e01614610aae576104b9565b806316912f961161037057806321e6b53d1161033f57806321e6b53d146108c757806322f3e2d4146109185780632630c12f146109455780632bd3c10714610986576104b9565b806316912f961461074a57806319b64015146107615780631cfab290146107c65780631e1401f814610831576104b9565b80630c7d5cd8116103ac5780630c7d5cd8146105ce5780630e53aae9146105ff578063119b90cd1461068c57806312c2aca41461071d576104b9565b80625e319c146104be578063024c7ec7146105235780630337e3fb146105605780630a55fb3d146105a1576104b9565b366104b9576007600073eeeeeeeeeeeeeeeeeeeeeeeeeeeeeeeeeeeeeeee73ffffffffffffffffffffffffffffffffffffffff1673ffffffffffffffffffffffffffffffffffffffff16815260200190815260200160002060010160069054906101000a900460ff166104b7576040517f08c379a00000000000000000000000000000000000000000000000000000000081526004018080602001828103825260138152602001807f4552525f494e56414c49445f524553455256450000000000000000000000000081525060200191505060405180910390fd5b005b600080fd5b3480156104ca57600080fd5b5061050d600480360360208110156104e157600080fd5b81019080803573ffffffffffffffffffffffffffffffffffffffff16906020019092919050505061180a565b6040518082815260200191505060405180910390f35b34801561052f57600080fd5b5061055e6004803603602081101561054657600080fd5b8101908080351515906020019092919050505061185e565b005b34801561056c57600080fd5b50610575611883565b604051808273ffffffffffffffffffffffffffffffffffffffff16815260200191505060405180910390f35b3480156105ad57600080fd5b506105b66118a9565b60405180821515815260200191505060405180910390f35b3480156105da57600080fd5b506105e36118bc565b604051808263ffffffff16815260200191505060405180910390f35b34801561060b57600080fd5b5061064e6004803603602081101561062257600080fd5b81019080803573ffffffffffffffffffffffffffffffffffffffff1690602001909291905050506118d2565b604051808681526020018563ffffffff1681526020018415158152602001831515815260200182151581526020019550505050505060405180910390f35b34801561069857600080fd5b5061071b600480360360608110156106af57600080fd5b81019080803573ffffffffffffffffffffffffffffffffffffffff169060200190929190803573ffffffffffffffffffffffffffffffffffffffff169060200190929190803573ffffffffffffffffffffffffffffffffffffffff1690602001909291905050506119d5565b005b34801561072957600080fd5b506107326122aa565b60405180821515815260200191505060405180910390f35b34801561075657600080fd5b5061075f612315565b005b34801561076d57600080fd5b5061079a6004803603602081101561078457600080fd5b810190808035906020019092919050505061233a565b604051808273ffffffffffffffffffffffffffffffffffffffff16815260200191505060405180910390f35b3480156107d257600080fd5b50610815600480360360208110156107e957600080fd5b81019080803573ffffffffffffffffffffffffffffffffffffffff16906020019092919050505061237b565b604051808263ffffffff16815260200191505060405180910390f35b34801561083d57600080fd5b506108aa6004803603606081101561085457600080fd5b81019080803573ffffffffffffffffffffffffffffffffffffffff169060200190929190803573ffffffffffffffffffffffffffffffffffffffff169060200190929190803590602001909291905050506123e2565b604051808381526020018281526020019250505060405180910390f35b3480156108d357600080fd5b50610916600480360360208110156108ea57600080fd5b81019080803573ffffffffffffffffffffffffffffffffffffffff1690602001909291905050506123fc565b005b34801561092457600080fd5b5061092d612410565b60405180821515815260200191505060405180910390f35b34801561095157600080fd5b5061095a61247a565b604051808273ffffffffffffffffffffffffffffffffffffffff16815260200191505060405180910390f35b34801561099257600080fd5b506109d5600480360360208110156109a957600080fd5b81019080803573ffffffffffffffffffffffffffffffffffffffff1690602001909291905050506124a0565b6040518082815260200191505060405180910390f35b3480156109f757600080fd5b50610a3a60048036036020811015610a0e57600080fd5b81019080803573ffffffffffffffffffffffffffffffffffffffff1690602001909291905050506124bd565b6040518082815260200191505060405180910390f35b348015610a5c57600080fd5b50610a65612628565b60405180821515815260200191505060405180910390f35b348015610a8957600080fd5b50610a9261263b565b604051808263ffffffff16815260200191505060405180910390f35b348015610aba57600080fd5b50610ac3612651565b005b348015610ad157600080fd5b50610ada612663565b604051808261ffff16815260200191505060405180910390f35b348015610b0057600080fd5b50610b3760048036036040811015610b1757600080fd5b81019080803590602001909291908035906020019092919050505061266c565b005b348015610b4557600080fd5b50610b4e612770565b005b348015610b5c57600080fd5b50610b9f60048036036020811015610b7357600080fd5b81019080803573ffffffffffffffffffffffffffffffffffffffff169060200190929190505050612b68565b005b348015610bad57600080fd5b50610bb6612bbf565b604051808261ffff16815260200191505060405180910390f35b610c2660048036036060811015610be657600080fd5b81019080803573ffffffffffffffffffffffffffffffffffffffff1690602001909291908035906020019092919080359060200190929190505050612bc4565b6040518082815260200191505060405180910390f35b348015610c4857600080fd5b50610c8b60048036036020811015610c5f57600080fd5b81019080803573ffffffffffffffffffffffffffffffffffffffff16906020019092919050505061346d565b604051808273ffffffffffffffffffffffffffffffffffffffff16815260200191505060405180910390f35b348015610cc357600080fd5b50610ccc6134d6565b604051808263ffffffff16815260200191505060405180910390f35b348015610cf457600080fd5b50610d6160048036036060811015610d0b57600080fd5b81019080803573ffffffffffffffffffffffffffffffffffffffff169060200190929190803573ffffffffffffffffffffffffffffffffffffffff169060200190929190803590602001909291905050506134ea565b005b348015610d6f57600080fd5b50610d786136f6565b604051808273ffffffffffffffffffffffffffffffffffffffff16815260200191505060405180910390f35b348015610db057600080fd5b50610df360048036036020811015610dc757600080fd5b81019080803573ffffffffffffffffffffffffffffffffffffffff16906020019092919050505061371c565b005b348015610e0157600080fd5b50610e4e60048036036040811015610e1857600080fd5b81019080803573ffffffffffffffffffffffffffffffffffffffff169060200190929190803590602001909291905050506137f5565b604051808381526020018281526020019250505060405180910390f35b348015610e7757600080fd5b50610eba60048036036020811015610e8e57600080fd5b81019080803573ffffffffffffffffffffffffffffffffffffffff169060200190929190505050613a63565b005b348015610ec857600080fd5b50610f1b60048036036040811015610edf57600080fd5b81019080803573ffffffffffffffffffffffffffffffffffffffff169060200190929190803563ffffffff169060200190929190505050613c2e565b005b348015610f2957600080fd5b50610f32613cc5565b604051808261ffff16815260200191505060405180910390f35b348015610f5857600080fd5b50610f61613cd4565b005b348015610f6f57600080fd5b50610f78613ed9565b604051808273ffffffffffffffffffffffffffffffffffffffff16815260200191505060405180910390f35b348015610fb057600080fd5b50610fb9613eff565b604051808273ffffffffffffffffffffffffffffffffffffffff16815260200191505060405180910390f35b348015610ff157600080fd5b50610ffa613f23565b604051808263ffffffff16815260200191505060405180910390f35b34801561102257600080fd5b506110656004803603602081101561103957600080fd5b81019080803573ffffffffffffffffffffffffffffffffffffffff169060200190929190505050613f39565b6040518082815260200191505060405180910390f35b34801561108757600080fd5b50611090613f51565b604051808261ffff16815260200191505060405180910390f35b3480156110b657600080fd5b506110bf613f5e565b604051808381526020018281526020019250505060405180910390f35b3480156110e857600080fd5b50611155600480360360608110156110ff57600080fd5b81019080803573ffffffffffffffffffffffffffffffffffffffff169060200190929190803573ffffffffffffffffffffffffffffffffffffffff16906020019092919080359060200190929190505050613f70565b604051808381526020018281526020019250505060405180910390f35b34801561117e57600080fd5b5061118761415e565b005b34801561119557600080fd5b5061119e6141cb565b60405180821515815260200191505060405180910390f35b3480156111c257600080fd5b5061120f600480360360408110156111d957600080fd5b81019080803573ffffffffffffffffffffffffffffffffffffffff169060200190929190803590602001909291905050506141d0565b005b34801561121d57600080fd5b50611226614256565b604051808273ffffffffffffffffffffffffffffffffffffffff16815260200191505060405180910390f35b34801561125e57600080fd5b5061126761427c565b005b34801561127557600080fd5b506112a26004803603602081101561128c57600080fd5b8101908080359060200190929190505050614307565b604051808273ffffffffffffffffffffffffffffffffffffffff16815260200191505060405180910390f35b3480156112da57600080fd5b506112e3614343565b60405180821515815260200191505060405180910390f35b34801561130757600080fd5b5061131061434c565b604051808273ffffffffffffffffffffffffffffffffffffffff16815260200191505060405180910390f35b34801561134857600080fd5b50611351614372565b604051808273ffffffffffffffffffffffffffffffffffffffff16815260200191505060405180910390f35b34801561138957600080fd5b50611392614398565b005b3480156113a057600080fd5b506113e3600480360360208110156113b757600080fd5b81019080803573ffffffffffffffffffffffffffffffffffffffff1690602001909291905050506144c6565b604051808681526020018563ffffffff1681526020018415158152602001831515815260200182151581526020019550505050505060405180910390f35b34801561142d57600080fd5b506114706004803603602081101561144457600080fd5b81019080803573ffffffffffffffffffffffffffffffffffffffff169060200190929190505050614533565b6040518082815260200191505060405180910390f35b34801561149257600080fd5b5061149b614545565b604051808381526020018281526020019250505060405180910390f35b3480156114c457600080fd5b506114cd61456d565b604051808273ffffffffffffffffffffffffffffffffffffffff16815260200191505060405180910390f35b34801561150557600080fd5b506115486004803603602081101561151c57600080fd5b81019080803573ffffffffffffffffffffffffffffffffffffffff169060200190929190505050614593565b6040518082815260200191505060405180910390f35b34801561156a57600080fd5b5061159d6004803603602081101561158157600080fd5b81019080803563ffffffff1690602001909291905050506145ea565b005b3480156115ab57600080fd5b50611602600480360360608110156115c257600080fd5b81019080803573ffffffffffffffffffffffffffffffffffffffff16906020019092919080359060200190929190803590602001909291905050506146f8565b6040518082815260200191505060405180910390f35b6116c4600480360360a081101561162e57600080fd5b81019080803573ffffffffffffffffffffffffffffffffffffffff169060200190929190803573ffffffffffffffffffffffffffffffffffffffff16906020019092919080359060200190929190803573ffffffffffffffffffffffffffffffffffffffff169060200190929190803573ffffffffffffffffffffffffffffffffffffffff169060200190929190505050614ca0565b6040518082815260200191505060405180910390f35b3480156116e657600080fd5b506116ef615020565b604051808381526020018281526020019250505060405180910390f35b34801561171857600080fd5b5061174b6004803603602081101561172f57600080fd5b81019080803563ffffffff169060200190929190505050615113565b005b34801561175957600080fd5b5061179c6004803603602081101561177057600080fd5b81019080803573ffffffffffffffffffffffffffffffffffffffff16906020019092919050505061522d565b005b3480156117aa57600080fd5b506117b361533b565b604051808273ffffffffffffffffffffffffffffffffffffffff16815260200191505060405180910390f35b3480156117eb57600080fd5b506117f4615365565b6040518082815260200191505060405180910390f35b6000816118168161536b565b600b60008473ffffffffffffffffffffffffffffffffffffffff1673ffffffffffffffffffffffffffffffffffffffff16815260200190815260200160002054915050919050565b611866615430565b80600360146101000a81548160ff02191690831515021790555050565b600960009054906101000a900473ffffffffffffffffffffffffffffffffffffffff1681565b601260009054906101000a900460ff1681565b600860009054906101000a900463ffffffff1681565b60008060008060006118e2617cde565b600760008873ffffffffffffffffffffffffffffffffffffffff1673ffffffffffffffffffffffffffffffffffffffff1681526020019081526020016000206040518060a0016040529081600082015481526020016001820160009054906101000a900463ffffffff1663ffffffff1663ffffffff1681526020016001820160049054906101000a900460ff161515151581526020016001820160059054906101000a900460ff161515151581526020016001820160069054906101000a900460ff1615151515815250509050806000015181602001516000808460800151955095509550955095505091939590929450565b6119dd6154f3565b6119e5615430565b826119ef8161536b565b826119f981615570565b82611a0381615570565b84611a0d81615615565b84611a1781615615565b3073ffffffffffffffffffffffffffffffffffffffff16600460009054906101000a900473ffffffffffffffffffffffffffffffffffffffff1673ffffffffffffffffffffffffffffffffffffffff16638da5cb5b6040518163ffffffff1660e01b815260040160206040518083038186803b158015611a9657600080fd5b505afa158015611aaa573d6000803e3d6000fd5b505050506040513d6020811015611ac057600080fd5b810190808051906020019092919050505073ffffffffffffffffffffffffffffffffffffffff1614611b5a576040517f08c379a00000000000000000000000000000000000000000000000000000000081526004018080602001828103825260148152602001807f4552525f414e43484f525f4e4f545f4f574e454400000000000000000000000081525060200191505060405180910390fd5b6000611b857f436861696e6c696e6b4f7261636c6557686974656c69737400000000000000006156bb565b90508073ffffffffffffffffffffffffffffffffffffffff16633af32abf896040518263ffffffff1660e01b8152600401808273ffffffffffffffffffffffffffffffffffffffff16815260200191505060206040518083038186803b158015611bee57600080fd5b505afa158015611c02573d6000803e3d6000fd5b505050506040513d6020811015611c1857600080fd5b81019080805190602001909291905050508015611cd357508073ffffffffffffffffffffffffffffffffffffffff16633af32abf886040518263ffffffff1660e01b8152600401808273ffffffffffffffffffffffffffffffffffffffff16815260200191505060206040518083038186803b158015611c9757600080fd5b505afa158015611cab573d6000803e3d6000fd5b505050506040513d6020811015611cc157600080fd5b81019080805190602001909291905050505b611d45576040517f08c379a00000000000000000000000000000000000000000000000000000000081526004018080602001828103825260128152602001807f4552525f494e56414c49445f4f5241434c45000000000000000000000000000081525060200191505060405180910390fd5b611d4d615772565b88600960006101000a81548173ffffffffffffffffffffffffffffffffffffffff021916908373ffffffffffffffffffffffffffffffffffffffff1602179055506006600081548110611d9c57fe5b9060005260206000200160009054906101000a900473ffffffffffffffffffffffffffffffffffffffff1673ffffffffffffffffffffffffffffffffffffffff168973ffffffffffffffffffffffffffffffffffffffff161415611e78576006600181548110611e0857fe5b9060005260206000200160009054906101000a900473ffffffffffffffffffffffffffffffffffffffff16600a60006101000a81548173ffffffffffffffffffffffffffffffffffffffff021916908373ffffffffffffffffffffffffffffffffffffffff160217905550611ef2565b6006600081548110611e8657fe5b9060005260206000200160009054906101000a900473ffffffffffffffffffffffffffffffffffffffff16600a60006101000a81548173ffffffffffffffffffffffffffffffffffffffff021916908373ffffffffffffffffffffffffffffffffffffffff1602179055505b6000611f1d7f436f6e766572746572466163746f7279000000000000000000000000000000006156bb565b73ffffffffffffffffffffffffffffffffffffffff1663c977aed2611f40612663565b6040518263ffffffff1660e01b8152600401808261ffff16815260200191505060206040518083038186803b158015611f7857600080fd5b505afa158015611f8c573d6000803e3d6000fd5b505050506040513d6020811015611fa257600080fd5b810190808051906020019092919050505090508073ffffffffffffffffffffffffffffffffffffffff16631b27444e8b600a60009054906101000a900473ffffffffffffffffffffffffffffffffffffffff168c8c6040518563ffffffff1660e01b8152600401808573ffffffffffffffffffffffffffffffffffffffff1681526020018473ffffffffffffffffffffffffffffffffffffffff1681526020018373ffffffffffffffffffffffffffffffffffffffff1681526020018273ffffffffffffffffffffffffffffffffffffffff168152602001945050505050602060405180830381600087803b15801561209a57600080fd5b505af11580156120ae573d6000803e3d6000fd5b505050506040513d60208110156120c457600080fd5b81019080805190602001909291905050506008600c6101000a81548173ffffffffffffffffffffffffffffffffffffffff021916908373ffffffffffffffffffffffffffffffffffffffff16021790555061211d615afd565b600e600082015181600001556020820151816001015590505061213e615c57565b6010819055506000612171600960009054906101000a900473ffffffffffffffffffffffffffffffffffffffff1661180a565b905060006121a0600960009054906101000a900473ffffffffffffffffffffffffffffffffffffffff16614593565b905060006121cf600a60009054906101000a900473ffffffffffffffffffffffffffffffffffffffff16614593565b9050818314156121fb5760008311806121e85750600081115b156121f6576121f5615c5f565b5b612226565b60008311801561220b5750600082115b80156122175750600081115b1561222557612224615c5f565b5b5b60011515600460009054906101000a900473ffffffffffffffffffffffffffffffffffffffff1673ffffffffffffffffffffffffffffffffffffffff1661226b612663565b61ffff167f6b08c2e2c9969e55a647a764db9b554d64dc42f1a704da11a6d5b129ad163f2c60405160405180910390a450505050505050505050505050565b60006007600073eeeeeeeeeeeeeeeeeeeeeeeeeeeeeeeeeeeeeeee73ffffffffffffffffffffffffffffffffffffffff1673ffffffffffffffffffffffffffffffffffffffff16815260200190815260200160002060010160069054906101000a900460ff16905090565b61231d615430565b6000601260006101000a81548160ff021916908315150217905550565b60006006828154811061234957fe5b9060005260206000200160009054906101000a900473ffffffffffffffffffffffffffffffffffffffff169050919050565b6000816123878161536b565b600760008473ffffffffffffffffffffffffffffffffffffffff1673ffffffffffffffffffffffffffffffffffffffff16815260200190815260200160002060010160009054906101000a900463ffffffff16915050919050565b6000806123f0858585613f70565b91509150935093915050565b612404615430565b61240d8161371c565b50565b600061241a615d96565b80156124755750600073ffffffffffffffffffffffffffffffffffffffff166008600c9054906101000a900473ffffffffffffffffffffffffffffffffffffffff1673ffffffffffffffffffffffffffffffffffffffff1614155b905090565b6008600c9054906101000a900473ffffffffffffffffffffffffffffffffffffffff1681565b6000816124ac8161536b565b6124b583615e6e565b915050919050565b6000808273ffffffffffffffffffffffffffffffffffffffff166318160ddd6040518163ffffffff1660e01b815260040160206040518083038186803b15801561250657600080fd5b505afa15801561251a573d6000803e3d6000fd5b505050506040513d602081101561253057600080fd5b810190808051906020019092919050505090506000600d60008573ffffffffffffffffffffffffffffffffffffffff1673ffffffffffffffffffffffffffffffffffffffff16815260200190815260200160002060009054906101000a900473ffffffffffffffffffffffffffffffffffffffff16905060006125b282614593565b90506000600b60008473ffffffffffffffffffffffffffffffffffffffff1673ffffffffffffffffffffffffffffffffffffffff16815260200190815260200160002054905061261d8161260f8685615f2490919063ffffffff16565b615fc790919063ffffffff16565b945050505050919050565b600360149054906101000a900460ff1681565b601260019054906101000a900463ffffffff1681565b612659615430565b61266161427c565b565b60006002905090565b612674615430565b8160116000600660008154811061268757fe5b9060005260206000200160009054906101000a900473ffffffffffffffffffffffffffffffffffffffff1673ffffffffffffffffffffffffffffffffffffffff1673ffffffffffffffffffffffffffffffffffffffff168152602001908152602001600020819055508060116000600660018154811061270357fe5b9060005260206000200160009054906101000a900473ffffffffffffffffffffffffffffffffffffffff1673ffffffffffffffffffffffffffffffffffffffff1673ffffffffffffffffffffffffffffffffffffffff168152602001908152602001600020819055505050565b60008054906101000a900473ffffffffffffffffffffffffffffffffffffffff1673ffffffffffffffffffffffffffffffffffffffff163373ffffffffffffffffffffffffffffffffffffffff1614806127d75750600360149054906101000a900460ff16155b612849576040517f08c379a00000000000000000000000000000000000000000000000000000000081526004018080602001828103825260118152602001807f4552525f4143434553535f44454e49454400000000000000000000000000000081525060200191505060405180910390fd5b60006128747f436f6e74726163745265676973747279000000000000000000000000000000006156bb565b9050600260009054906101000a900473ffffffffffffffffffffffffffffffffffffffff1673ffffffffffffffffffffffffffffffffffffffff168173ffffffffffffffffffffffffffffffffffffffff16141580156129015750600073ffffffffffffffffffffffffffffffffffffffff168173ffffffffffffffffffffffffffffffffffffffff1614155b612973576040517f08c379a00000000000000000000000000000000000000000000000000000000081526004018080602001828103825260148152602001807f4552525f494e56414c49445f524547495354525900000000000000000000000081525060200191505060405180910390fd5b600073ffffffffffffffffffffffffffffffffffffffff168173ffffffffffffffffffffffffffffffffffffffff1663bb34534c7f436f6e74726163745265676973747279000000000000000000000000000000006040518263ffffffff1660e01b81526004018082815260200191505060206040518083038186803b1580156129fc57600080fd5b505afa158015612a10573d6000803e3d6000fd5b505050506040513d6020811015612a2657600080fd5b810190808051906020019092919050505073ffffffffffffffffffffffffffffffffffffffff161415612ac1576040517f08c379a00000000000000000000000000000000000000000000000000000000081526004018080602001828103825260148152602001807f4552525f494e56414c49445f524547495354525900000000000000000000000081525060200191505060405180910390fd5b600260009054906101000a900473ffffffffffffffffffffffffffffffffffffffff16600360006101000a81548173ffffffffffffffffffffffffffffffffffffffff021916908373ffffffffffffffffffffffffffffffffffffffff16021790555080600260006101000a81548173ffffffffffffffffffffffffffffffffffffffff021916908373ffffffffffffffffffffffffffffffffffffffff16021790555050565b612b70615430565b80612b7a81615570565b81600560006101000a81548173ffffffffffffffffffffffffffffffffffffffff021916908373ffffffffffffffffffffffffffffffffffffffff1602179055505050565b602881565b6000612bce616056565b6001600360156101000a81548160ff021916908315150217905550612bf16160db565b83612bfb8161536b565b83612c0581616157565b83612c0f81616157565b73eeeeeeeeeeeeeeeeeeeeeeeeeeeeeeeeeeeeeeee73ffffffffffffffffffffffffffffffffffffffff168773ffffffffffffffffffffffffffffffffffffffff1614612c5f5760003414612c63565b8534145b612cd5576040517f08c379a00000000000000000000000000000000000000000000000000000000081526004018080602001828103825260178152602001807f4552525f4554485f414d4f554e545f4d49534d4154434800000000000000000081525060200191505060405180910390fd5b612cdd6161d0565b73eeeeeeeeeeeeeeeeeeeeeeeeeeeeeeeeeeeeeeee73ffffffffffffffffffffffffffffffffffffffff168773ffffffffffffffffffffffffffffffffffffffff161415612de957612d8e346007600073eeeeeeeeeeeeeeeeeeeeeeeeeeeeeeeeeeeeeeee73ffffffffffffffffffffffffffffffffffffffff1673ffffffffffffffffffffffffffffffffffffffff1681526020019081526020016000206000015461623690919063ffffffff16565b6007600073eeeeeeeeeeeeeeeeeeeeeeeeeeeeeeeeeeeeeeee73ffffffffffffffffffffffffffffffffffffffff1673ffffffffffffffffffffffffffffffffffffffff168152602001908152602001600020600001819055505b6000600b60008973ffffffffffffffffffffffffffffffffffffffff1673ffffffffffffffffffffffffffffffffffffffff168152602001908152602001600020549050601260009054906101000a900460ff1615612f54576000601160008a73ffffffffffffffffffffffffffffffffffffffff1673ffffffffffffffffffffffffffffffffffffffff168152602001908152602001600020541480612ee15750601160008973ffffffffffffffffffffffffffffffffffffffff1673ffffffffffffffffffffffffffffffffffffffff16815260200190815260200160002054612ede88836162b990919063ffffffff16565b11155b612f53576040517f08c379a000000000000000000000000000000000000000000000000000000000815260040180806020018281038252601e8152602001807f4552525f4d41585f5354414b45445f42414c414e43455f52454143484544000081525060200191505060405180910390fd5b5b6000600c60008a73ffffffffffffffffffffffffffffffffffffffff1673ffffffffffffffffffffffffffffffffffffffff16815260200190815260200160002060009054906101000a900473ffffffffffffffffffffffffffffffffffffffff16905060008173ffffffffffffffffffffffffffffffffffffffff166318160ddd6040518163ffffffff1660e01b815260040160206040518083038186803b15801561300057600080fd5b505afa158015613014573d6000803e3d6000fd5b505050506040513d602081101561302a57600080fd5b8101908080519060200190929190505050905073eeeeeeeeeeeeeeeeeeeeeeeeeeeeeeeeeeeeeeee73ffffffffffffffffffffffffffffffffffffffff168a73ffffffffffffffffffffffffffffffffffffffff1614613091576130908a33308c616341565b5b6130e689600760008d73ffffffffffffffffffffffffffffffffffffffff1673ffffffffffffffffffffffffffffffffffffffff168152602001908152602001600020600001546162b990919063ffffffff16565b600760008c73ffffffffffffffffffffffffffffffffffffffff1673ffffffffffffffffffffffffffffffffffffffff1681526020019081526020016000206000018190555061313f89846162b990919063ffffffff16565b600b60008c73ffffffffffffffffffffffffffffffffffffffff1673ffffffffffffffffffffffffffffffffffffffff168152602001908152602001600020819055506000808414806131925750600082145b1561319f578990506131c7565b6131c4846131b6848d615f2490919063ffffffff16565b615fc790919063ffffffff16565b90505b8881101561323d576040517f08c379a00000000000000000000000000000000000000000000000000000000081526004018080602001828103825260128152602001807f4552525f52455455524e5f544f4f5f4c4f57000000000000000000000000000081525060200191505060405180910390fd5b600460009054906101000a900473ffffffffffffffffffffffffffffffffffffffff1673ffffffffffffffffffffffffffffffffffffffff1663c6c3bbe68433846040518463ffffffff1660e01b8152600401808473ffffffffffffffffffffffffffffffffffffffff1681526020018373ffffffffffffffffffffffffffffffffffffffff1681526020018281526020019350505050600060405180830381600087803b1580156132ee57600080fd5b505af1158015613302573d6000803e3d6000fd5b5050505061330e615c5f565b8a73ffffffffffffffffffffffffffffffffffffffff163373ffffffffffffffffffffffffffffffffffffffff167f4a1a2a6176e9646d9e3157f7c2ab3c499f18337c0b0828cfb28e0a61de4a11f78c6133718e896162b990919063ffffffff16565b61338486886162b990919063ffffffff16565b60405180848152602001838152602001828152602001935050505060405180910390a36133c4836133be83856162b990919063ffffffff16565b8d61657b565b61344160066000815481106133d557fe5b9060005260206000200160009054906101000a900473ffffffffffffffffffffffffffffffffffffffff16600660018154811061340e57fe5b9060005260206000200160009054906101000a900473ffffffffffffffffffffffffffffffffffffffff1660008061662c565b809750505050505050506000600360156101000a81548160ff0219169083151502179055509392505050565b6000600c60008373ffffffffffffffffffffffffffffffffffffffff1673ffffffffffffffffffffffffffffffffffffffff16815260200190815260200160002060009054906101000a900473ffffffffffffffffffffffffffffffffffffffff169050919050565b60088054906101000a900463ffffffff1681565b6134f2616056565b6001600360156101000a81548160ff021916908315150217905550613515615430565b60006135407f42616e636f72436f6e76657274657255706772616465720000000000000000006156bb565b9050600760008573ffffffffffffffffffffffffffffffffffffffff1673ffffffffffffffffffffffffffffffffffffffff16815260200190815260200160002060010160069054906101000a900460ff1615806135a357506135a1612410565b155b806135f957508073ffffffffffffffffffffffffffffffffffffffff1660008054906101000a900473ffffffffffffffffffffffffffffffffffffffff1673ffffffffffffffffffffffffffffffffffffffff16145b61366b576040517f08c379a00000000000000000000000000000000000000000000000000000000081526004018080602001828103825260118152602001807f4552525f4143434553535f44454e49454400000000000000000000000000000081525060200191505060405180910390fd5b613676848484616768565b600760008573ffffffffffffffffffffffffffffffffffffffff1673ffffffffffffffffffffffffffffffffffffffff16815260200190815260200160002060010160069054906101000a900460ff16156136d5576136d4846167a1565b5b506000600360156101000a81548160ff021916908315150217905550505050565b600360009054906101000a900473ffffffffffffffffffffffffffffffffffffffff1681565b613724615430565b7f42616e636f72436f6e766572746572557067726164657200000000000000000061374e8161692c565b600460009054906101000a900473ffffffffffffffffffffffffffffffffffffffff1673ffffffffffffffffffffffffffffffffffffffff1663f2fde38b836040518263ffffffff1660e01b8152600401808273ffffffffffffffffffffffffffffffffffffffff168152602001915050600060405180830381600087803b1580156137d957600080fd5b505af11580156137ed573d6000803e3d6000fd5b505050505050565b60008060008473ffffffffffffffffffffffffffffffffffffffff166318160ddd6040518163ffffffff1660e01b815260040160206040518083038186803b15801561384057600080fd5b505afa158015613854573d6000803e3d6000fd5b505050506040513d602081101561386a57600080fd5b810190808051906020019092919050505090506000600b6000600d60008973ffffffffffffffffffffffffffffffffffffffff1673ffffffffffffffffffffffffffffffffffffffff16815260200190815260200160002060009054906101000a900473ffffffffffffffffffffffffffffffffffffffff1673ffffffffffffffffffffffffffffffffffffffff1673ffffffffffffffffffffffffffffffffffffffff16815260200190815260200160002054905081851015613a525760006139a2601460ff16600b6000600960009054906101000a900473ffffffffffffffffffffffffffffffffffffffff1673ffffffffffffffffffffffffffffffffffffffff1673ffffffffffffffffffffffffffffffffffffffff16815260200190815260200160002054615f2490919063ffffffff16565b905060006139d1600960009054906101000a900473ffffffffffffffffffffffffffffffffffffffff16615e6e565b90506000808284106139e45782846139e7565b83835b915091506000613a1287613a04888d615f2490919063ffffffff16565b615fc790919063ffffffff16565b90506000613a3b83613a2d8685615f2490919063ffffffff16565b615fc790919063ffffffff16565b905080818303995099505050505050505050613a5c565b8060009350935050505b9250929050565b613a6b616056565b6001600360156101000a81548160ff021916908315150217905550613a8e615430565b73eeeeeeeeeeeeeeeeeeeeeeeeeeeeeeeeeeeeeeee613aac8161536b565b6000613ad77f42616e636f72436f6e76657274657255706772616465720000000000000000006156bb565b9050613ae1612410565b1580613b3857508073ffffffffffffffffffffffffffffffffffffffff1660008054906101000a900473ffffffffffffffffffffffffffffffffffffffff1673ffffffffffffffffffffffffffffffffffffffff16145b613baa576040517f08c379a00000000000000000000000000000000000000000000000000000000081526004018080602001828103825260118152602001807f4552525f4143434553535f44454e49454400000000000000000000000000000081525060200191505060405180910390fd5b8273ffffffffffffffffffffffffffffffffffffffff166108fc479081150290604051600060405180830381858888f19350505050158015613bf0573d6000803e3d6000fd5b50613c0e73eeeeeeeeeeeeeeeeeeeeeeeeeeeeeeeeeeeeeeee6167a1565b50506000600360156101000a81548160ff02191690831515021790555050565b613c36615430565b6002613c40613f51565b61ffff1610613cb7576040517f08c379a00000000000000000000000000000000000000000000000000000000081526004018080602001828103825260198152602001807f4552525f494e56414c49445f524553455256455f434f554e540000000000000081525060200191505060405180910390fd5b613cc182826169d8565b5050565b6000613ccf613f51565b905090565b600160009054906101000a900473ffffffffffffffffffffffffffffffffffffffff1673ffffffffffffffffffffffffffffffffffffffff163373ffffffffffffffffffffffffffffffffffffffff1614613d97576040517f08c379a00000000000000000000000000000000000000000000000000000000081526004018080602001828103825260118152602001807f4552525f4143434553535f44454e49454400000000000000000000000000000081525060200191505060405180910390fd5b600160009054906101000a900473ffffffffffffffffffffffffffffffffffffffff1673ffffffffffffffffffffffffffffffffffffffff1660008054906101000a900473ffffffffffffffffffffffffffffffffffffffff1673ffffffffffffffffffffffffffffffffffffffff167f343765429aea5a34b3ff6a3785a98a5abb2597aca87bfbb58632c173d585373a60405160405180910390a3600160009054906101000a900473ffffffffffffffffffffffffffffffffffffffff166000806101000a81548173ffffffffffffffffffffffffffffffffffffffff021916908373ffffffffffffffffffffffffffffffffffffffff1602179055506000600160006101000a81548173ffffffffffffffffffffffffffffffffffffffff021916908373ffffffffffffffffffffffffffffffffffffffff160217905550565b600260009054906101000a900473ffffffffffffffffffffffffffffffffffffffff1681565b60008054906101000a900473ffffffffffffffffffffffffffffffffffffffff1681565b600860049054906101000a900463ffffffff1681565b60116020528060005260406000206000915090505481565b6000600680549050905090565b600e8060000154908060010154905082565b600080613f7b6160db565b84613f858161536b565b84613f8f8161536b565b8573ffffffffffffffffffffffffffffffffffffffff168773ffffffffffffffffffffffffffffffffffffffff161415614031576040517f08c379a00000000000000000000000000000000000000000000000000000000081526004018080602001828103825260168152602001807f4552525f53414d455f534f555243455f5441524745540000000000000000000081525060200191505060405180910390fd5b60008061403c615c57565b60105414156140a757600760008a73ffffffffffffffffffffffffffffffffffffffff1673ffffffffffffffffffffffffffffffffffffffff16815260200190815260200160002060010160009054906101000a900463ffffffff16915081620f4240039050614135565b6140af617d19565b6140b7615afd565b90506000806140c583616d8e565b91509150600960009054906101000a900473ffffffffffffffffffffffffffffffffffffffff1673ffffffffffffffffffffffffffffffffffffffff168c73ffffffffffffffffffffffffffffffffffffffff16141561412a57819450809350614131565b8094508193505b5050505b6000806141458b8b86868d616f5c565b9250509150818197509750505050505050935093915050565b614166615430565b600360009054906101000a900473ffffffffffffffffffffffffffffffffffffffff16600260006101000a81548173ffffffffffffffffffffffffffffffffffffffff021916908373ffffffffffffffffffffffffffffffffffffffff160217905550565b600181565b6141d8615430565b7f42616e636f72436f6e76657274657255706772616465720000000000000000006142028161692c565b8261420c8161536b565b82600b60008673ffffffffffffffffffffffffffffffffffffffff1673ffffffffffffffffffffffffffffffffffffffff1681526020019081526020016000208190555050505050565b600560009054906101000a900473ffffffffffffffffffffffffffffffffffffffff1681565b6001614286613f51565b61ffff16116142fd576040517f08c379a00000000000000000000000000000000000000000000000000000000081526004018080602001828103825260198152602001807f4552525f494e56414c49445f524553455256455f434f554e540000000000000081525060200191505060405180910390fd5b6143056170f2565b565b6006818154811061431457fe5b906000526020600020016000915054906101000a900473ffffffffffffffffffffffffffffffffffffffff1681565b60006001905090565b600460009054906101000a900473ffffffffffffffffffffffffffffffffffffffff1681565b600160009054906101000a900473ffffffffffffffffffffffffffffffffffffffff1681565b6143a0615430565b60006143cb7f42616e636f72436f6e76657274657255706772616465720000000000000000006156bb565b905060001515600460009054906101000a900473ffffffffffffffffffffffffffffffffffffffff1673ffffffffffffffffffffffffffffffffffffffff16614412612663565b61ffff167f6b08c2e2c9969e55a647a764db9b554d64dc42f1a704da11a6d5b129ad163f2c60405160405180910390a461444b8161522d565b8073ffffffffffffffffffffffffffffffffffffffff166390f58c9660286040518263ffffffff1660e01b8152600401808261ffff168152602001915050600060405180830381600087803b1580156144a357600080fd5b505af11580156144b7573d6000803e3d6000fd5b505050506144c3613cd4565b50565b60076020528060005260406000206000915090508060000154908060010160009054906101000a900463ffffffff16908060010160049054906101000a900460ff16908060010160059054906101000a900460ff16908060010160069054906101000a900460ff16905085565b600061453e82614593565b9050919050565b600080614550617d19565b614558615afd565b90508060000151816020015192509250509091565b600a60009054906101000a900473ffffffffffffffffffffffffffffffffffffffff1681565b60008161459f8161536b565b600760008473ffffffffffffffffffffffffffffffffffffffff1673ffffffffffffffffffffffffffffffffffffffff16815260200190815260200160002060000154915050919050565b6145f2615430565b620f424063ffffffff168163ffffffff161115614677576040517f08c379a00000000000000000000000000000000000000000000000000000000081526004018080602001828103825260208152602001807f4552525f494e56414c49445f4f5241434c455f444556494154494f4e5f46454581525060200191505060405180910390fd5b7f4f6fed4838e1f48d74a10449b9152126aae795e67e8eba0fedacdeefdf19a8de601260019054906101000a900463ffffffff1682604051808363ffffffff1681526020018263ffffffff1681526020019250505060405180910390a180601260016101000a81548163ffffffff021916908363ffffffff16021790555050565b6000614702616056565b6001600360156101000a81548160ff0219169083151502179055506147256160db565b8361472f81617207565b8361473981616157565b8361474381616157565b61474b6161d0565b60008773ffffffffffffffffffffffffffffffffffffffff166318160ddd6040518163ffffffff1660e01b815260040160206040518083038186803b15801561479357600080fd5b505afa1580156147a7573d6000803e3d6000fd5b505050506040513d60208110156147bd57600080fd5b8101908080519060200190929190505050905060006147dc89896137f5565b50905086811015614855576040517f08c379a00000000000000000000000000000000000000000000000000000000081526004018080602001828103825260128152602001807f4552525f52455455524e5f544f4f5f4c4f57000000000000000000000000000081525060200191505060405180910390fd5b6000600d60008b73ffffffffffffffffffffffffffffffffffffffff1673ffffffffffffffffffffffffffffffffffffffff16815260200190815260200160002060009054906101000a900473ffffffffffffffffffffffffffffffffffffffff169050600460009054906101000a900473ffffffffffffffffffffffffffffffffffffffff1673ffffffffffffffffffffffffffffffffffffffff1663f6b911bc8b338c6040518463ffffffff1660e01b8152600401808473ffffffffffffffffffffffffffffffffffffffff1681526020018373ffffffffffffffffffffffffffffffffffffffff1681526020018281526020019350505050600060405180830381600087803b15801561496a57600080fd5b505af115801561497e573d6000803e3d6000fd5b505050506149d782600760008473ffffffffffffffffffffffffffffffffffffffff1673ffffffffffffffffffffffffffffffffffffffff1681526020019081526020016000206000015461623690919063ffffffff16565b600760008373ffffffffffffffffffffffffffffffffffffffff1673ffffffffffffffffffffffffffffffffffffffff168152602001908152602001600020600001819055506000614a7183600b60008573ffffffffffffffffffffffffffffffffffffffff1673ffffffffffffffffffffffffffffffffffffffff1681526020019081526020016000205461623690919063ffffffff16565b905080600b60008473ffffffffffffffffffffffffffffffffffffffff1673ffffffffffffffffffffffffffffffffffffffff1681526020019081526020016000208190555073eeeeeeeeeeeeeeeeeeeeeeeeeeeeeeeeeeeeeeee73ffffffffffffffffffffffffffffffffffffffff168273ffffffffffffffffffffffffffffffffffffffff161415614b4b573373ffffffffffffffffffffffffffffffffffffffff166108fc849081150290604051600060405180830381858888f19350505050158015614b45573d6000803e3d6000fd5b50614b57565b614b5682338561730c565b5b614b5f615c5f565b6000614b748b8661623690919063ffffffff16565b90508273ffffffffffffffffffffffffffffffffffffffff163373ffffffffffffffffffffffffffffffffffffffff167fbc7d19d505c7ec4db83f3b51f19fb98c4c8a99922e7839d1ee608dfbee29501b86858560405180848152602001838152602001828152602001935050505060405180910390a3614bf68c828561657b565b614c736006600081548110614c0757fe5b9060005260206000200160009054906101000a900473ffffffffffffffffffffffffffffffffffffffff166006600181548110614c4057fe5b9060005260206000200160009054906101000a900473ffffffffffffffffffffffffffffffffffffffff1660008061662c565b83985050505050505050506000600360156101000a81548160ff0219169083151502179055509392505050565b6000614caa616056565b6001600360156101000a81548160ff0219169083151502179055507f42616e636f724e6574776f726b00000000000000000000000000000000000000614cef8161692c565b8573ffffffffffffffffffffffffffffffffffffffff168773ffffffffffffffffffffffffffffffffffffffff161415614d91576040517f08c379a00000000000000000000000000000000000000000000000000000000081526004018080602001828103825260168152602001807f4552525f53414d455f534f555243455f5441524745540000000000000000000081525060200191505060405180910390fd5b600073ffffffffffffffffffffffffffffffffffffffff16600560009054906101000a900473ffffffffffffffffffffffffffffffffffffffff1673ffffffffffffffffffffffffffffffffffffffff161480614f7a5750600560009054906101000a900473ffffffffffffffffffffffffffffffffffffffff1673ffffffffffffffffffffffffffffffffffffffff16633af32abf856040518263ffffffff1660e01b8152600401808273ffffffffffffffffffffffffffffffffffffffff16815260200191505060206040518083038186803b158015614e7257600080fd5b505afa158015614e86573d6000803e3d6000fd5b505050506040513d6020811015614e9c57600080fd5b81019080805190602001909291905050508015614f795750600560009054906101000a900473ffffffffffffffffffffffffffffffffffffffff1673ffffffffffffffffffffffffffffffffffffffff16633af32abf846040518263ffffffff1660e01b8152600401808273ffffffffffffffffffffffffffffffffffffffff16815260200191505060206040518083038186803b158015614f3d57600080fd5b505afa158015614f51573d6000803e3d6000fd5b505050506040513d6020811015614f6757600080fd5b81019080805190602001909291905050505b5b614fec576040517f08c379a00000000000000000000000000000000000000000000000000000000081526004018080602001828103825260138152602001807f4552525f4e4f545f57484954454c49535445440000000000000000000000000081525060200191505060405180910390fd5b614ff98787878787617527565b9150506000600360156101000a81548160ff02191690831515021790555095945050505050565b60008061502b617d19565b615033615afd565b905060008061504183616d8e565b91509150600660008154811061505357fe5b9060005260206000200160009054906101000a900473ffffffffffffffffffffffffffffffffffffffff1673ffffffffffffffffffffffffffffffffffffffff16600960009054906101000a900473ffffffffffffffffffffffffffffffffffffffff1673ffffffffffffffffffffffffffffffffffffffff1614156150f35781818163ffffffff1691508063ffffffff1690509450945050505061510f565b80828163ffffffff1691508063ffffffff169050945094505050505b9091565b61511b615430565b600860049054906101000a900463ffffffff1663ffffffff168163ffffffff1611156151af576040517f08c379a000000000000000000000000000000000000000000000000000000000815260040180806020018281038252601a8152602001807f4552525f494e56414c49445f434f4e56455253494f4e5f46454500000000000081525060200191505060405180910390fd5b7f81cd2ffb37dd237c0e4e2a3de5265fcf9deb43d3e7801e80db9f1ccfba7ee60060088054906101000a900463ffffffff1682604051808363ffffffff1681526020018263ffffffff1681526020019250505060405180910390a1806008806101000a81548163ffffffff021916908363ffffffff16021790555050565b615235615430565b60008054906101000a900473ffffffffffffffffffffffffffffffffffffffff1673ffffffffffffffffffffffffffffffffffffffff168173ffffffffffffffffffffffffffffffffffffffff1614156152f7576040517f08c379a000000000000000000000000000000000000000000000000000000000815260040180806020018281038252600e8152602001807f4552525f53414d455f4f574e455200000000000000000000000000000000000081525060200191505060405180910390fd5b80600160006101000a81548173ffffffffffffffffffffffffffffffffffffffff021916908373ffffffffffffffffffffffffffffffffffffffff16021790555050565b6000600460009054906101000a900473ffffffffffffffffffffffffffffffffffffffff16905090565b60105481565b600760008273ffffffffffffffffffffffffffffffffffffffff1673ffffffffffffffffffffffffffffffffffffffff16815260200190815260200160002060010160069054906101000a900460ff1661542d576040517f08c379a00000000000000000000000000000000000000000000000000000000081526004018080602001828103825260138152602001807f4552525f494e56414c49445f524553455256450000000000000000000000000081525060200191505060405180910390fd5b50565b60008054906101000a900473ffffffffffffffffffffffffffffffffffffffff1673ffffffffffffffffffffffffffffffffffffffff163373ffffffffffffffffffffffffffffffffffffffff16146154f1576040517f08c379a00000000000000000000000000000000000000000000000000000000081526004018080602001828103825260118152602001807f4552525f4143434553535f44454e49454400000000000000000000000000000081525060200191505060405180910390fd5b565b6154fb612410565b1561556e576040517f08c379a000000000000000000000000000000000000000000000000000000000815260040180806020018281038252600a8152602001807f4552525f4143544956450000000000000000000000000000000000000000000081525060200191505060405180910390fd5b565b3073ffffffffffffffffffffffffffffffffffffffff168173ffffffffffffffffffffffffffffffffffffffff161415615612576040517f08c379a00000000000000000000000000000000000000000000000000000000081526004018080602001828103825260138152602001807f4552525f414444524553535f49535f53454c460000000000000000000000000081525060200191505060405180910390fd5b50565b600073ffffffffffffffffffffffffffffffffffffffff168173ffffffffffffffffffffffffffffffffffffffff1614156156b8576040517f08c379a00000000000000000000000000000000000000000000000000000000081526004018080602001828103825260138152602001807f4552525f494e56414c49445f414444524553530000000000000000000000000081525060200191505060405180910390fd5b50565b6000600260009054906101000a900473ffffffffffffffffffffffffffffffffffffffff1673ffffffffffffffffffffffffffffffffffffffff1663bb34534c836040518263ffffffff1660e01b81526004018082815260200191505060206040518083038186803b15801561573057600080fd5b505afa158015615744573d6000803e3d6000fd5b505050506040513d602081101561575a57600080fd5b81019080805190602001909291905050509050919050565b6000600460009054906101000a900473ffffffffffffffffffffffffffffffffffffffff16905060608173ffffffffffffffffffffffffffffffffffffffff16636d3e313e6040518163ffffffff1660e01b815260040160006040518083038186803b1580156157e157600080fd5b505afa1580156157f5573d6000803e3d6000fd5b505050506040513d6000823e3d601f19601f82011682018060405250602081101561581f57600080fd5b810190808051604051939291908464010000000082111561583f57600080fd5b8382019150602082018581111561585557600080fd5b825186602082028301116401000000008211171561587257600080fd5b8083526020830192505050908051906020019060200280838360005b838110156158a957808201518184015260208101905061588e565b50505050905001604052505050905060008082511490506000600680549050905060005b81811015615af65760008315615967578573ffffffffffffffffffffffffffffffffffffffff16639cbf9e366040518163ffffffff1660e01b8152600401602060405180830381600087803b15801561592557600080fd5b505af1158015615939573d6000803e3d6000fd5b505050506040513d602081101561594f57600080fd5b8101908080519060200190929190505050905061597e565b84828151811061597357fe5b602002602001015190505b80600c60006006858154811061599057fe5b9060005260206000200160009054906101000a900473ffffffffffffffffffffffffffffffffffffffff1673ffffffffffffffffffffffffffffffffffffffff1673ffffffffffffffffffffffffffffffffffffffff16815260200190815260200160002060006101000a81548173ffffffffffffffffffffffffffffffffffffffff021916908373ffffffffffffffffffffffffffffffffffffffff16021790555060068281548110615a4057fe5b9060005260206000200160009054906101000a900473ffffffffffffffffffffffffffffffffffffffff16600d60008373ffffffffffffffffffffffffffffffffffffffff1673ffffffffffffffffffffffffffffffffffffffff16815260200190815260200160002060006101000a81548173ffffffffffffffffffffffffffffffffffffffff021916908373ffffffffffffffffffffffffffffffffffffffff1602179055505080806001019150506158cd565b5050505050565b615b05617d19565b6000806008600c9054906101000a900473ffffffffffffffffffffffffffffffffffffffff1673ffffffffffffffffffffffffffffffffffffffff1663ae818004600960009054906101000a900473ffffffffffffffffffffffffffffffffffffffff16600a60009054906101000a900473ffffffffffffffffffffffffffffffffffffffff166040518363ffffffff1660e01b8152600401808373ffffffffffffffffffffffffffffffffffffffff1681526020018273ffffffffffffffffffffffffffffffffffffffff16815260200192505050604080518083038186803b158015615bf257600080fd5b505afa158015615c06573d6000803e3d6000fd5b505050506040513d6040811015615c1c57600080fd5b810190808051906020019092919080519060200190929190505050915091506040518060400160405280838152602001828152509250505090565b600042905090565b615c88600e60405180604001604052908160008201548152602001600182015481525050616d8e565b60076000600960009054906101000a900473ffffffffffffffffffffffffffffffffffffffff1673ffffffffffffffffffffffffffffffffffffffff1673ffffffffffffffffffffffffffffffffffffffff168152602001908152602001600020600101600060076000600a60009054906101000a900473ffffffffffffffffffffffffffffffffffffffff1673ffffffffffffffffffffffffffffffffffffffff1673ffffffffffffffffffffffffffffffffffffffff16815260200190815260200160002060010160008491906101000a81548163ffffffff021916908363ffffffff1602179055508391906101000a81548163ffffffff021916908363ffffffff1602179055505050565b60003073ffffffffffffffffffffffffffffffffffffffff16600460009054906101000a900473ffffffffffffffffffffffffffffffffffffffff1673ffffffffffffffffffffffffffffffffffffffff16638da5cb5b6040518163ffffffff1660e01b815260040160206040518083038186803b158015615e1757600080fd5b505afa158015615e2b573d6000803e3d6000fd5b505050506040513d6020811015615e4157600080fd5b810190808051906020019092919050505073ffffffffffffffffffffffffffffffffffffffff1614905090565b6000615f1d600760008473ffffffffffffffffffffffffffffffffffffffff1673ffffffffffffffffffffffffffffffffffffffff16815260200190815260200160002060000154615f0f600160140360ff16600b60008773ffffffffffffffffffffffffffffffffffffffff1673ffffffffffffffffffffffffffffffffffffffff16815260200190815260200160002054615f2490919063ffffffff16565b6162b990919063ffffffff16565b9050919050565b600080831415615f375760009050615fc1565b6000828402905082848281615f4857fe5b0414615fbc576040517f08c379a000000000000000000000000000000000000000000000000000000000815260040180806020018281038252600c8152602001807f4552525f4f564552464c4f57000000000000000000000000000000000000000081525060200191505060405180910390fd5b809150505b92915050565b600080821161603e576040517f08c379a00000000000000000000000000000000000000000000000000000000081526004018080602001828103825260128152602001807f4552525f4449564944455f42595f5a45524f000000000000000000000000000081525060200191505060405180910390fd5b600082848161604957fe5b0490508091505092915050565b600360159054906101000a900460ff16156160d9576040517f08c379a000000000000000000000000000000000000000000000000000000000815260040180806020018281038252600e8152602001807f4552525f5245454e5452414e435900000000000000000000000000000000000081525060200191505060405180910390fd5b565b6160e3612410565b616155576040517f08c379a000000000000000000000000000000000000000000000000000000000815260040180806020018281038252600c8152602001807f4552525f494e414354495645000000000000000000000000000000000000000081525060200191505060405180910390fd5b565b600081116161cd576040517f08c379a000000000000000000000000000000000000000000000000000000000815260040180806020018281038252600e8152602001807f4552525f5a45524f5f56414c554500000000000000000000000000000000000081525060200191505060405180910390fd5b50565b6000600680549050905060005b8181101561623257616225600682815481106161f557fe5b9060005260206000200160009054906101000a900473ffffffffffffffffffffffffffffffffffffffff166167a1565b80806001019150506161dd565b5050565b6000818310156162ae576040517f08c379a000000000000000000000000000000000000000000000000000000000815260040180806020018281038252600d8152602001807f4552525f554e444552464c4f570000000000000000000000000000000000000081525060200191505060405180910390fd5b818303905092915050565b600080828401905083811015616337576040517f08c379a000000000000000000000000000000000000000000000000000000000815260040180806020018281038252600c8152602001807f4552525f4f564552464c4f57000000000000000000000000000000000000000081525060200191505060405180910390fd5b8091505092915050565b600060608573ffffffffffffffffffffffffffffffffffffffff167f23b872dd7302113369cda2901243429419bec145408fa8b352b3dd92b66c680b868686604051602401808473ffffffffffffffffffffffffffffffffffffffff1681526020018373ffffffffffffffffffffffffffffffffffffffff1681526020018281526020019350505050604051602081830303815290604052907bffffffffffffffffffffffffffffffffffffffffffffffffffffffff19166020820180517bffffffffffffffffffffffffffffffffffffffffffffffffffffffff83818316178352505050506040518082805190602001908083835b6020831061645a5780518252602082019150602081019050602083039250616437565b6001836020036101000a0380198251168184511680821785525050505050509050019150506000604051808303816000865af19150503d80600081146164bc576040519150601f19603f3d011682016040523d82523d6000602084013e6164c1565b606091505b5091509150818015616501575060008151148061650057508080602001905160208110156164ee57600080fd5b81019080805190602001909291905050505b5b616573576040517f08c379a00000000000000000000000000000000000000000000000000000000081526004018080602001828103825260188152602001807f4552525f5452414e534645525f46524f4d5f4641494c4544000000000000000081525060200191505060405180910390fd5b505050505050565b8073ffffffffffffffffffffffffffffffffffffffff168373ffffffffffffffffffffffffffffffffffffffff167f77f29993cf2c084e726f7e802da0719d6a0ade3e204badc7a3ffd57ecb768c24600b60008573ffffffffffffffffffffffffffffffffffffffff1673ffffffffffffffffffffffffffffffffffffffff1681526020019081526020016000205485604051808381526020018281526020019250505060405180910390a3505050565b600061663785615e6e565b9050600061664485615e6e565b905060008463ffffffff1614156166ab57600760008773ffffffffffffffffffffffffffffffffffffffff1673ffffffffffffffffffffffffffffffffffffffff16815260200190815260200160002060010160009054906101000a900463ffffffff1693505b60008363ffffffff1614156166c35783620f42400392505b8473ffffffffffffffffffffffffffffffffffffffff168673ffffffffffffffffffffffffffffffffffffffff167f77f29993cf2c084e726f7e802da0719d6a0ade3e204badc7a3ffd57ecb768c2461672b8763ffffffff1685615f2490919063ffffffff16565b6167448763ffffffff1687615f2490919063ffffffff16565b604051808381526020018281526020019250505060405180910390a3505050505050565b616770615430565b8261677a81615615565b8261678481615615565b8361678e81615570565b61679986868661730c565b505050505050565b806167ab8161536b565b73eeeeeeeeeeeeeeeeeeeeeeeeeeeeeeeeeeeeeeee73ffffffffffffffffffffffffffffffffffffffff168273ffffffffffffffffffffffffffffffffffffffff16141561683f5747600760008473ffffffffffffffffffffffffffffffffffffffff1673ffffffffffffffffffffffffffffffffffffffff16815260200190815260200160002060000181905550616928565b8173ffffffffffffffffffffffffffffffffffffffff166370a08231306040518263ffffffff1660e01b8152600401808273ffffffffffffffffffffffffffffffffffffffff16815260200191505060206040518083038186803b1580156168a657600080fd5b505afa1580156168ba573d6000803e3d6000fd5b505050506040513d60208110156168d057600080fd5b8101908080519060200190929190505050600760008473ffffffffffffffffffffffffffffffffffffffff1673ffffffffffffffffffffffffffffffffffffffff168152602001908152602001600020600001819055505b5050565b616935816156bb565b73ffffffffffffffffffffffffffffffffffffffff163373ffffffffffffffffffffffffffffffffffffffff16146169d5576040517f08c379a00000000000000000000000000000000000000000000000000000000081526004018080602001828103825260118152602001807f4552525f4143434553535f44454e49454400000000000000000000000000000081525060200191505060405180910390fd5b50565b6169e0615430565b6169e86154f3565b816169f281615615565b826169fc81615570565b82616a0681617b3a565b600460009054906101000a900473ffffffffffffffffffffffffffffffffffffffff1673ffffffffffffffffffffffffffffffffffffffff168573ffffffffffffffffffffffffffffffffffffffff1614158015616ab15750600760008673ffffffffffffffffffffffffffffffffffffffff1673ffffffffffffffffffffffffffffffffffffffff16815260200190815260200160002060010160069054906101000a900460ff16155b616b23576040517f08c379a00000000000000000000000000000000000000000000000000000000081526004018080602001828103825260138152602001807f4552525f494e56414c49445f524553455256450000000000000000000000000081525060200191505060405180910390fd5b600860009054906101000a900463ffffffff16620f42400363ffffffff168463ffffffff161115616bbc576040517f08c379a000000000000000000000000000000000000000000000000000000000815260040180806020018281038252601a8152602001807f4552525f494e56414c49445f524553455256455f57454947485400000000000081525060200191505060405180910390fd5b7fffffffffffffffffffffffffffffffffffffffffffffffffffffffffffffffff61ffff16616be9613f51565b61ffff1610616c60576040517f08c379a00000000000000000000000000000000000000000000000000000000081526004018080602001828103825260198152602001807f4552525f494e56414c49445f524553455256455f434f554e540000000000000081525060200191505060405180910390fd5b6000600760008773ffffffffffffffffffffffffffffffffffffffff1673ffffffffffffffffffffffffffffffffffffffff168152602001908152602001600020905060008160000181905550848160010160006101000a81548163ffffffff021916908363ffffffff16021790555060018160010160066101000a81548160ff0219169083151502179055506006869080600181540180825580915050600190039060005260206000200160009091909190916101000a81548173ffffffffffffffffffffffffffffffffffffffff021916908373ffffffffffffffffffffffffffffffffffffffff16021790555084600860008282829054906101000a900463ffffffff160192506101000a81548163ffffffff021916908363ffffffff160217905550505050505050565b6000806000600b6000600960009054906101000a900473ffffffffffffffffffffffffffffffffffffffff1673ffffffffffffffffffffffffffffffffffffffff1673ffffffffffffffffffffffffffffffffffffffff1681526020019081526020016000205490506000616e24600960009054906101000a900473ffffffffffffffffffffffffffffffffffffffff16615e6e565b90506000616e53600a60009054906101000a900473ffffffffffffffffffffffffffffffffffffffff16615e6e565b9050616e7e7f42616e636f72466f726d756c61000000000000000000000000000000000000006156bb565b73ffffffffffffffffffffffffffffffffffffffff1663a11aa1b4616eb0601460ff1686615f2490919063ffffffff16565b84848a600001518b602001516040518663ffffffff1660e01b81526004018086815260200185815260200184815260200183815260200182815260200195505050505050604080518083038186803b158015616f0b57600080fd5b505afa158015616f1f573d6000803e3d6000fd5b505050506040513d6040811015616f3557600080fd5b81019080805190602001909291908051906020019092919050505094509450505050915091565b600080600080616f6b89615e6e565b90506000616f7889615e6e565b90506000616fa57f42616e636f72466f726d756c61000000000000000000000000000000000000006156bb565b73ffffffffffffffffffffffffffffffffffffffff166394491fab848b858c8c6040518663ffffffff1660e01b8152600401808681526020018563ffffffff1681526020018481526020018363ffffffff1681526020018281526020019550505050505060206040518083038186803b15801561702157600080fd5b505afa158015617035573d6000803e3d6000fd5b505050506040513d602081101561704b57600080fd5b81019080805190602001909291905050509050600061706982617bd4565b905060006170c5826170b7620f424063ffffffff166170a9601260019054906101000a900463ffffffff1663ffffffff1688615f2490919063ffffffff16565b615fc790919063ffffffff16565b6162b990919063ffffffff16565b90506170da818461623690919063ffffffff16565b82829750975097505050505050955095509592505050565b6170fa615430565b6000617104613f51565b61ffff161161717b576040517f08c379a00000000000000000000000000000000000000000000000000000000081526004018080602001828103825260198152602001807f4552525f494e56414c49445f524553455256455f434f554e540000000000000081525060200191505060405180910390fd5b600460009054906101000a900473ffffffffffffffffffffffffffffffffffffffff1673ffffffffffffffffffffffffffffffffffffffff166379ba50976040518163ffffffff1660e01b8152600401600060405180830381600087803b1580156171e557600080fd5b505af11580156171f9573d6000803e3d6000fd5b505050506172056161d0565b565b600073ffffffffffffffffffffffffffffffffffffffff16600d60008373ffffffffffffffffffffffffffffffffffffffff1673ffffffffffffffffffffffffffffffffffffffff16815260200190815260200160002060009054906101000a900473ffffffffffffffffffffffffffffffffffffffff1673ffffffffffffffffffffffffffffffffffffffff161415617309576040517f08c379a00000000000000000000000000000000000000000000000000000000081526004018080602001828103825260168152602001807f4552525f494e56414c49445f504f4f4c5f544f4b454e0000000000000000000081525060200191505060405180910390fd5b50565b600060608473ffffffffffffffffffffffffffffffffffffffff167fa9059cbb2ab09eb219583f4a59a5d0623ade346d962bcd4e46b11da047c9049b8585604051602401808373ffffffffffffffffffffffffffffffffffffffff16815260200182815260200192505050604051602081830303815290604052907bffffffffffffffffffffffffffffffffffffffffffffffffffffffff19166020820180517bffffffffffffffffffffffffffffffffffffffffffffffffffffffff83818316178352505050506040518082805190602001908083835b6020831061740757805182526020820191506020810190506020830392506173e4565b6001836020036101000a0380198251168184511680821785525050505050509050019150506000604051808303816000865af19150503d8060008114617469576040519150601f19603f3d011682016040523d82523d6000602084013e61746e565b606091505b50915091508180156174ae57506000815114806174ad575080806020019051602081101561749b57600080fd5b81019080805190602001909291905050505b5b617520576040517f08c379a00000000000000000000000000000000000000000000000000000000081526004018080602001828103825260138152602001807f4552525f5452414e534645525f4641494c45440000000000000000000000000081525060200191505060405180910390fd5b5050505050565b60006175316160db565b8561753b8161536b565b856175458161536b565b61754d615c57565b601054101561758e5761755e615c57565b60108190555061756c615afd565b600e600082015181600001556020820151816001015590505061758d615c5f565b5b6000600760008a73ffffffffffffffffffffffffffffffffffffffff1673ffffffffffffffffffffffffffffffffffffffff16815260200190815260200160002060010160009054906101000a900463ffffffff169050600081620f424003905060008060006176018d8d87878f616f5c565b925092509250600083141561767e576040517f08c379a00000000000000000000000000000000000000000000000000000000081526004018080602001828103825260168152602001807f4552525f5a45524f5f5441524745545f414d4f554e540000000000000000000081525060200191505060405180910390fd5b73eeeeeeeeeeeeeeeeeeeeeeeeeeeeeeeeeeeeeeee73ffffffffffffffffffffffffffffffffffffffff168d73ffffffffffffffffffffffffffffffffffffffff161415617740578a341461773b576040517f08c379a00000000000000000000000000000000000000000000000000000000081526004018080602001828103825260178152602001807f4552525f4554485f414d4f554e545f4d49534d4154434800000000000000000081525060200191505060405180910390fd5b61787e565b60003414801561780b57508a6178086177588f614593565b8f73ffffffffffffffffffffffffffffffffffffffff166370a08231306040518263ffffffff1660e01b8152600401808273ffffffffffffffffffffffffffffffffffffffff16815260200191505060206040518083038186803b1580156177bf57600080fd5b505afa1580156177d3573d6000803e3d6000fd5b505050506040513d60208110156177e957600080fd5b810190808051906020019092919050505061623690919063ffffffff16565b10155b61787d576040517f08c379a00000000000000000000000000000000000000000000000000000000081526004018080602001828103825260128152602001807f4552525f494e56414c49445f414d4f554e54000000000000000000000000000081525060200191505060405180910390fd5b5b6178878d6167a1565b6178a2836178948e614593565b61623690919063ffffffff16565b600760008e73ffffffffffffffffffffffffffffffffffffffff1673ffffffffffffffffffffffffffffffffffffffff1681526020019081526020016000206000018190555061793a82600b60008f73ffffffffffffffffffffffffffffffffffffffff1673ffffffffffffffffffffffffffffffffffffffff168152602001908152602001600020546162b990919063ffffffff16565b600b60008e73ffffffffffffffffffffffffffffffffffffffff1673ffffffffffffffffffffffffffffffffffffffff1681526020019081526020016000208190555073eeeeeeeeeeeeeeeeeeeeeeeeeeeeeeeeeeeeeeee73ffffffffffffffffffffffffffffffffffffffff168c73ffffffffffffffffffffffffffffffffffffffff161415617a11578873ffffffffffffffffffffffffffffffffffffffff166108fc849081150290604051600060405180830381858888f19350505050158015617a0b573d6000803e3d6000fd5b50617a1d565b617a1c8c8a8561730c565b5b617a2b8d8d8c8e8786617c21565b617a378d8d878761662c565b6000600c60008e73ffffffffffffffffffffffffffffffffffffffff1673ffffffffffffffffffffffffffffffffffffffff16815260200190815260200160002060009054906101000a900473ffffffffffffffffffffffffffffffffffffffff169050617b26818273ffffffffffffffffffffffffffffffffffffffff166318160ddd6040518163ffffffff1660e01b815260040160206040518083038186803b158015617ae557600080fd5b505afa158015617af9573d6000803e3d6000fd5b505050506040513d6020811015617b0f57600080fd5b81019080805190602001909291905050508f61657b565b839850505050505050505095945050505050565b60008163ffffffff16118015617b5f5750620f424063ffffffff168163ffffffff1611155b617bd1576040517f08c379a000000000000000000000000000000000000000000000000000000000815260040180806020018281038252601a8152602001807f4552525f494e56414c49445f524553455256455f57454947485400000000000081525060200191505060405180910390fd5b50565b6000617c1a620f424063ffffffff16617c0c60088054906101000a900463ffffffff1663ffffffff1685615f2490919063ffffffff16565b615fc790919063ffffffff16565b9050919050565b7f80000000000000000000000000000000000000000000000000000000000000008110617c4a57fe5b8373ffffffffffffffffffffffffffffffffffffffff168573ffffffffffffffffffffffffffffffffffffffff168773ffffffffffffffffffffffffffffffffffffffff167f276856b36cbc45526a0ba64f44611557a2a8b68662c5388e9fe6d72e86e1c8cb86868660405180848152602001838152602001828152602001935050505060405180910390a4505050505050565b6040518060a0016040528060008152602001600063ffffffff1681526020016000151581526020016000151581526020016000151581525090565b60405180604001604052806000815260200160008152509056fea2646970667358221220a6de18cfd130260e1890f73dcb6b0e31d81b985de73ec7686dc1827069308c9764736f6c634300060c0033",
  "linkReferences": {},
  "deployedLinkReferences": {}
}