{
  "_format": "hh-sol-artifact-1",
  "contractName": "LiquidityPoolV1Converter",
  "sourceName": "contracts/bancor/converter/types/liquidity-pool-v1/LiquidityPoolV1Converter.sol",
  "abi": [
    {
      "inputs": [
        {
          "internalType": "contract IDSToken",
          "name": "_token",
          "type": "address"
        },
        {
          "internalType": "contract IContractRegistry",
          "name": "_registry",
          "type": "address"
        },
        {
          "internalType": "uint32",
          "name": "_maxConversionFee",
          "type": "uint32"
        }
      ],
      "stateMutability": "nonpayable",
      "type": "constructor"
    },
    {
      "anonymous": false,
      "inputs": [
        {
          "indexed": true,
          "internalType": "uint16",
          "name": "_type",
          "type": "uint16"
        },
        {
          "indexed": true,
          "internalType": "contract IConverterAnchor",
          "name": "_anchor",
          "type": "address"
        },
        {
          "indexed": true,
          "internalType": "bool",
          "name": "_activated",
          "type": "bool"
        }
      ],
      "name": "Activation",
      "type": "event"
    },
    {
      "anonymous": false,
      "inputs": [
        {
          "indexed": true,
          "internalType": "contract IERC20Token",
          "name": "_fromToken",
          "type": "address"
        },
        {
          "indexed": true,
          "internalType": "contract IERC20Token",
          "name": "_toToken",
          "type": "address"
        },
        {
          "indexed": true,
          "internalType": "address",
          "name": "_trader",
          "type": "address"
        },
        {
          "indexed": false,
          "internalType": "uint256",
          "name": "_amount",
          "type": "uint256"
        },
        {
          "indexed": false,
          "internalType": "uint256",
          "name": "_return",
          "type": "uint256"
        },
        {
          "indexed": false,
          "internalType": "int256",
          "name": "_conversionFee",
          "type": "int256"
        }
      ],
      "name": "Conversion",
      "type": "event"
    },
    {
      "anonymous": false,
      "inputs": [
        {
          "indexed": false,
          "internalType": "uint32",
          "name": "_prevFee",
          "type": "uint32"
        },
        {
          "indexed": false,
          "internalType": "uint32",
          "name": "_newFee",
          "type": "uint32"
        }
      ],
      "name": "ConversionFeeUpdate",
      "type": "event"
    },
    {
      "anonymous": false,
      "inputs": [
        {
          "indexed": true,
          "internalType": "address",
          "name": "_provider",
          "type": "address"
        },
        {
          "indexed": true,
          "internalType": "contract IERC20Token",
          "name": "_reserveToken",
          "type": "address"
        },
        {
          "indexed": false,
          "internalType": "uint256",
          "name": "_amount",
          "type": "uint256"
        },
        {
          "indexed": false,
          "internalType": "uint256",
          "name": "_newBalance",
          "type": "uint256"
        },
        {
          "indexed": false,
          "internalType": "uint256",
          "name": "_newSupply",
          "type": "uint256"
        }
      ],
      "name": "LiquidityAdded",
      "type": "event"
    },
    {
      "anonymous": false,
      "inputs": [
        {
          "indexed": true,
          "internalType": "address",
          "name": "_provider",
          "type": "address"
        },
        {
          "indexed": true,
          "internalType": "contract IERC20Token",
          "name": "_reserveToken",
          "type": "address"
        },
        {
          "indexed": false,
          "internalType": "uint256",
          "name": "_amount",
          "type": "uint256"
        },
        {
          "indexed": false,
          "internalType": "uint256",
          "name": "_newBalance",
          "type": "uint256"
        },
        {
          "indexed": false,
          "internalType": "uint256",
          "name": "_newSupply",
          "type": "uint256"
        }
      ],
      "name": "LiquidityRemoved",
      "type": "event"
    },
    {
      "anonymous": false,
      "inputs": [
        {
          "indexed": true,
          "internalType": "address",
          "name": "_prevOwner",
          "type": "address"
        },
        {
          "indexed": true,
          "internalType": "address",
          "name": "_newOwner",
          "type": "address"
        }
      ],
      "name": "OwnerUpdate",
      "type": "event"
    },
    {
      "anonymous": false,
      "inputs": [
        {
          "indexed": true,
          "internalType": "contract IERC20Token",
          "name": "_connectorToken",
          "type": "address"
        },
        {
          "indexed": false,
          "internalType": "uint256",
          "name": "_tokenSupply",
          "type": "uint256"
        },
        {
          "indexed": false,
          "internalType": "uint256",
          "name": "_connectorBalance",
          "type": "uint256"
        },
        {
          "indexed": false,
          "internalType": "uint32",
          "name": "_connectorWeight",
          "type": "uint32"
        }
      ],
      "name": "PriceDataUpdate",
      "type": "event"
    },
    {
      "anonymous": false,
      "inputs": [
        {
          "indexed": true,
          "internalType": "contract IERC20Token",
          "name": "_token1",
          "type": "address"
        },
        {
          "indexed": true,
          "internalType": "contract IERC20Token",
          "name": "_token2",
          "type": "address"
        },
        {
          "indexed": false,
          "internalType": "uint256",
          "name": "_rateN",
          "type": "uint256"
        },
        {
          "indexed": false,
          "internalType": "uint256",
          "name": "_rateD",
          "type": "uint256"
        }
      ],
      "name": "TokenRateUpdate",
      "type": "event"
    },
    {
      "inputs": [],
      "name": "acceptAnchorOwnership",
      "outputs": [],
      "stateMutability": "nonpayable",
      "type": "function"
    },
    {
      "inputs": [],
      "name": "acceptOwnership",
      "outputs": [],
      "stateMutability": "nonpayable",
      "type": "function"
    },
    {
      "inputs": [],
      "name": "acceptTokenOwnership",
      "outputs": [],
      "stateMutability": "nonpayable",
      "type": "function"
    },
    {
      "inputs": [
        {
          "internalType": "contract IERC20Token[]",
          "name": "_reserveTokens",
          "type": "address[]"
        },
        {
          "internalType": "uint256[]",
          "name": "_reserveAmounts",
          "type": "uint256[]"
        },
        {
          "internalType": "uint256",
          "name": "_minReturn",
          "type": "uint256"
        }
      ],
      "name": "addLiquidity",
      "outputs": [
        {
          "internalType": "uint256",
          "name": "",
          "type": "uint256"
        }
      ],
      "stateMutability": "payable",
      "type": "function"
    },
    {
      "inputs": [
        {
          "internalType": "contract IERC20Token[]",
          "name": "_reserveTokens",
          "type": "address[]"
        },
        {
          "internalType": "uint256",
          "name": "_reserveTokenIndex",
          "type": "uint256"
        },
        {
          "internalType": "uint256",
          "name": "_reserveAmount",
          "type": "uint256"
        }
      ],
      "name": "addLiquidityCost",
      "outputs": [
        {
          "internalType": "uint256[]",
          "name": "",
          "type": "uint256[]"
        }
      ],
      "stateMutability": "view",
      "type": "function"
    },
    {
      "inputs": [
        {
          "internalType": "contract IERC20Token",
          "name": "_reserveToken",
          "type": "address"
        },
        {
          "internalType": "uint256",
          "name": "_reserveAmount",
          "type": "uint256"
        }
      ],
      "name": "addLiquidityReturn",
      "outputs": [
        {
          "internalType": "uint256",
          "name": "",
          "type": "uint256"
        }
      ],
      "stateMutability": "view",
      "type": "function"
    },
    {
      "inputs": [
        {
          "internalType": "contract IERC20Token",
          "name": "_token",
          "type": "address"
        },
        {
          "internalType": "uint32",
          "name": "_weight",
          "type": "uint32"
        }
      ],
      "name": "addReserve",
      "outputs": [],
      "stateMutability": "nonpayable",
      "type": "function"
    },
    {
      "inputs": [],
      "name": "anchor",
      "outputs": [
        {
          "internalType": "contract IConverterAnchor",
          "name": "",
          "type": "address"
        }
      ],
      "stateMutability": "view",
      "type": "function"
    },
    {
      "inputs": [],
      "name": "connectorTokenCount",
      "outputs": [
        {
          "internalType": "uint16",
          "name": "",
          "type": "uint16"
        }
      ],
      "stateMutability": "view",
      "type": "function"
    },
    {
      "inputs": [
        {
          "internalType": "uint256",
          "name": "_index",
          "type": "uint256"
        }
      ],
      "name": "connectorTokens",
      "outputs": [
        {
          "internalType": "contract IERC20Token",
          "name": "",
          "type": "address"
        }
      ],
      "stateMutability": "view",
      "type": "function"
    },
    {
      "inputs": [
        {
          "internalType": "contract IERC20Token",
          "name": "_address",
          "type": "address"
        }
      ],
      "name": "connectors",
      "outputs": [
        {
          "internalType": "uint256",
          "name": "",
          "type": "uint256"
        },
        {
          "internalType": "uint32",
          "name": "",
          "type": "uint32"
        },
        {
          "internalType": "bool",
          "name": "",
          "type": "bool"
        },
        {
          "internalType": "bool",
          "name": "",
          "type": "bool"
        },
        {
          "internalType": "bool",
          "name": "",
          "type": "bool"
        }
      ],
      "stateMutability": "view",
      "type": "function"
    },
    {
      "inputs": [],
      "name": "conversionFee",
      "outputs": [
        {
          "internalType": "uint32",
          "name": "",
          "type": "uint32"
        }
      ],
      "stateMutability": "view",
      "type": "function"
    },
    {
      "inputs": [],
      "name": "conversionWhitelist",
      "outputs": [
        {
          "internalType": "contract IWhitelist",
          "name": "",
          "type": "address"
        }
      ],
      "stateMutability": "view",
      "type": "function"
    },
    {
      "inputs": [],
      "name": "conversionsEnabled",
      "outputs": [
        {
          "internalType": "bool",
          "name": "",
          "type": "bool"
        }
      ],
      "stateMutability": "view",
      "type": "function"
    },
    {
      "inputs": [
        {
          "internalType": "contract IERC20Token",
          "name": "_sourceToken",
          "type": "address"
        },
        {
          "internalType": "contract IERC20Token",
          "name": "_targetToken",
          "type": "address"
        },
        {
          "internalType": "uint256",
          "name": "_amount",
          "type": "uint256"
        },
        {
          "internalType": "address",
          "name": "_trader",
          "type": "address"
        },
        {
          "internalType": "address payable",
          "name": "_beneficiary",
          "type": "address"
        }
      ],
      "name": "convert",
      "outputs": [
        {
          "internalType": "uint256",
          "name": "",
          "type": "uint256"
        }
      ],
      "stateMutability": "payable",
      "type": "function"
    },
    {
      "inputs": [],
      "name": "converterType",
      "outputs": [
        {
          "internalType": "uint16",
          "name": "",
          "type": "uint16"
        }
      ],
      "stateMutability": "pure",
      "type": "function"
    },
    {
      "inputs": [
        {
          "internalType": "uint256",
          "name": "_x",
          "type": "uint256"
        }
      ],
      "name": "decimalLength",
      "outputs": [
        {
          "internalType": "uint256",
          "name": "",
          "type": "uint256"
        }
      ],
      "stateMutability": "pure",
      "type": "function"
    },
    {
      "inputs": [
        {
          "internalType": "uint256",
          "name": "_amount",
          "type": "uint256"
        }
      ],
      "name": "fund",
      "outputs": [
        {
          "internalType": "uint256",
          "name": "",
          "type": "uint256"
        }
      ],
      "stateMutability": "payable",
      "type": "function"
    },
    {
      "inputs": [
        {
          "internalType": "uint256[]",
          "name": "_values",
          "type": "uint256[]"
        }
      ],
      "name": "geometricMean",
      "outputs": [
        {
          "internalType": "uint256",
          "name": "",
          "type": "uint256"
        }
      ],
      "stateMutability": "pure",
      "type": "function"
    },
    {
      "inputs": [
        {
          "internalType": "contract IERC20Token",
          "name": "_connectorToken",
          "type": "address"
        }
      ],
      "name": "getConnectorBalance",
      "outputs": [
        {
          "internalType": "uint256",
          "name": "",
          "type": "uint256"
        }
      ],
      "stateMutability": "view",
      "type": "function"
    },
    {
      "inputs": [
        {
          "internalType": "contract IERC20Token",
          "name": "_sourceToken",
          "type": "address"
        },
        {
          "internalType": "contract IERC20Token",
          "name": "_targetToken",
          "type": "address"
        },
        {
          "internalType": "uint256",
          "name": "_amount",
          "type": "uint256"
        }
      ],
      "name": "getReturn",
      "outputs": [
        {
          "internalType": "uint256",
          "name": "",
          "type": "uint256"
        },
        {
          "internalType": "uint256",
          "name": "",
          "type": "uint256"
        }
      ],
      "stateMutability": "view",
      "type": "function"
    },
    {
      "inputs": [],
      "name": "hasETHReserve",
      "outputs": [
        {
          "internalType": "bool",
          "name": "",
          "type": "bool"
        }
      ],
      "stateMutability": "view",
      "type": "function"
    },
    {
      "inputs": [],
      "name": "isActive",
      "outputs": [
        {
          "internalType": "bool",
          "name": "",
          "type": "bool"
        }
      ],
      "stateMutability": "view",
      "type": "function"
    },
    {
      "inputs": [],
      "name": "isStandardPool",
      "outputs": [
        {
          "internalType": "bool",
          "name": "",
          "type": "bool"
        }
      ],
      "stateMutability": "view",
      "type": "function"
    },
    {
      "inputs": [],
      "name": "isV28OrHigher",
      "outputs": [
        {
          "internalType": "bool",
          "name": "",
          "type": "bool"
        }
      ],
      "stateMutability": "pure",
      "type": "function"
    },
    {
      "inputs": [
        {
          "internalType": "uint256",
          "name": "_amount",
          "type": "uint256"
        }
      ],
      "name": "liquidate",
      "outputs": [
        {
          "internalType": "uint256[]",
          "name": "",
          "type": "uint256[]"
        }
      ],
      "stateMutability": "nonpayable",
      "type": "function"
    },
    {
      "inputs": [],
      "name": "maxConversionFee",
      "outputs": [
        {
          "internalType": "uint32",
          "name": "",
          "type": "uint32"
        }
      ],
      "stateMutability": "view",
      "type": "function"
    },
    {
      "inputs": [],
      "name": "newOwner",
      "outputs": [
        {
          "internalType": "address",
          "name": "",
          "type": "address"
        }
      ],
      "stateMutability": "view",
      "type": "function"
    },
    {
      "inputs": [],
      "name": "onlyOwnerCanUpdateRegistry",
      "outputs": [
        {
          "internalType": "bool",
          "name": "",
          "type": "bool"
        }
      ],
      "stateMutability": "view",
      "type": "function"
    },
    {
      "inputs": [],
      "name": "owner",
      "outputs": [
        {
          "internalType": "address",
          "name": "",
          "type": "address"
        }
      ],
      "stateMutability": "view",
      "type": "function"
    },
    {
      "inputs": [],
      "name": "prevAverageRate",
      "outputs": [
        {
          "internalType": "uint256",
          "name": "n",
          "type": "uint256"
        },
        {
          "internalType": "uint256",
          "name": "d",
          "type": "uint256"
        }
      ],
      "stateMutability": "view",
      "type": "function"
    },
    {
      "inputs": [],
      "name": "prevAverageRateUpdateTime",
      "outputs": [
        {
          "internalType": "uint256",
          "name": "",
          "type": "uint256"
        }
      ],
      "stateMutability": "view",
      "type": "function"
    },
    {
      "inputs": [],
      "name": "prevRegistry",
      "outputs": [
        {
          "internalType": "contract IContractRegistry",
          "name": "",
          "type": "address"
        }
      ],
      "stateMutability": "view",
      "type": "function"
    },
    {
      "inputs": [
        {
          "internalType": "contract IERC20Token",
          "name": "_token",
          "type": "address"
        }
      ],
      "name": "recentAverageRate",
      "outputs": [
        {
          "internalType": "uint256",
          "name": "",
          "type": "uint256"
        },
        {
          "internalType": "uint256",
          "name": "",
          "type": "uint256"
        }
      ],
      "stateMutability": "view",
      "type": "function"
    },
    {
      "inputs": [],
      "name": "registry",
      "outputs": [
        {
          "internalType": "contract IContractRegistry",
          "name": "",
          "type": "address"
        }
      ],
      "stateMutability": "view",
      "type": "function"
    },
    {
      "inputs": [
        {
          "internalType": "uint256",
          "name": "_amount",
          "type": "uint256"
        },
        {
          "internalType": "contract IERC20Token[]",
          "name": "_reserveTokens",
          "type": "address[]"
        },
        {
          "internalType": "uint256[]",
          "name": "_reserveMinReturnAmounts",
          "type": "uint256[]"
        }
      ],
      "name": "removeLiquidity",
      "outputs": [
        {
          "internalType": "uint256[]",
          "name": "",
          "type": "uint256[]"
        }
      ],
      "stateMutability": "nonpayable",
      "type": "function"
    },
    {
      "inputs": [
        {
          "internalType": "uint256",
          "name": "_amount",
          "type": "uint256"
        },
        {
          "internalType": "contract IERC20Token[]",
          "name": "_reserveTokens",
          "type": "address[]"
        }
      ],
      "name": "removeLiquidityReturn",
      "outputs": [
        {
          "internalType": "uint256[]",
          "name": "",
          "type": "uint256[]"
        }
      ],
      "stateMutability": "view",
      "type": "function"
    },
    {
      "inputs": [
        {
          "internalType": "contract IERC20Token",
          "name": "_reserveToken",
          "type": "address"
        }
      ],
      "name": "reserveBalance",
      "outputs": [
        {
          "internalType": "uint256",
          "name": "",
          "type": "uint256"
        }
      ],
      "stateMutability": "view",
      "type": "function"
    },
    {
      "inputs": [],
      "name": "reserveRatio",
      "outputs": [
        {
          "internalType": "uint32",
          "name": "",
          "type": "uint32"
        }
      ],
      "stateMutability": "view",
      "type": "function"
    },
    {
      "inputs": [],
      "name": "reserveTokenCount",
      "outputs": [
        {
          "internalType": "uint16",
          "name": "",
          "type": "uint16"
        }
      ],
      "stateMutability": "view",
      "type": "function"
    },
    {
      "inputs": [
        {
          "internalType": "uint256",
          "name": "",
          "type": "uint256"
        }
      ],
      "name": "reserveTokens",
      "outputs": [
        {
          "internalType": "contract IERC20Token",
          "name": "",
          "type": "address"
        }
      ],
      "stateMutability": "view",
      "type": "function"
    },
    {
      "inputs": [
        {
          "internalType": "contract IERC20Token",
          "name": "_reserveToken",
          "type": "address"
        }
      ],
      "name": "reserveWeight",
      "outputs": [
        {
          "internalType": "uint32",
          "name": "",
          "type": "uint32"
        }
      ],
      "stateMutability": "view",
      "type": "function"
    },
    {
      "inputs": [
        {
          "internalType": "contract IERC20Token",
          "name": "",
          "type": "address"
        }
      ],
      "name": "reserves",
      "outputs": [
        {
          "internalType": "uint256",
          "name": "balance",
          "type": "uint256"
        },
        {
          "internalType": "uint32",
          "name": "weight",
          "type": "uint32"
        },
        {
          "internalType": "bool",
          "name": "deprecated1",
          "type": "bool"
        },
        {
          "internalType": "bool",
          "name": "deprecated2",
          "type": "bool"
        },
        {
          "internalType": "bool",
          "name": "isSet",
          "type": "bool"
        }
      ],
      "stateMutability": "view",
      "type": "function"
    },
    {
      "inputs": [],
      "name": "restoreRegistry",
      "outputs": [],
      "stateMutability": "nonpayable",
      "type": "function"
    },
    {
      "inputs": [
        {
          "internalType": "bool",
          "name": "_onlyOwnerCanUpdateRegistry",
          "type": "bool"
        }
      ],
      "name": "restrictRegistryUpdate",
      "outputs": [],
      "stateMutability": "nonpayable",
      "type": "function"
    },
    {
      "inputs": [
        {
          "internalType": "uint256",
          "name": "_n",
          "type": "uint256"
        },
        {
          "internalType": "uint256",
          "name": "_d",
          "type": "uint256"
        }
      ],
      "name": "roundDivUnsafe",
      "outputs": [
        {
          "internalType": "uint256",
          "name": "",
          "type": "uint256"
        }
      ],
      "stateMutability": "pure",
      "type": "function"
    },
    {
      "inputs": [
        {
          "internalType": "uint32",
          "name": "_conversionFee",
          "type": "uint32"
        }
      ],
      "name": "setConversionFee",
      "outputs": [],
      "stateMutability": "nonpayable",
      "type": "function"
    },
    {
      "inputs": [
        {
          "internalType": "contract IWhitelist",
          "name": "_whitelist",
          "type": "address"
        }
      ],
      "name": "setConversionWhitelist",
      "outputs": [],
      "stateMutability": "nonpayable",
      "type": "function"
    },
    {
      "inputs": [
        {
          "internalType": "contract IERC20Token",
          "name": "_sourceToken",
          "type": "address"
        },
        {
          "internalType": "contract IERC20Token",
          "name": "_targetToken",
          "type": "address"
        },
        {
          "internalType": "uint256",
          "name": "_amount",
          "type": "uint256"
        }
      ],
      "name": "targetAmountAndFee",
      "outputs": [
        {
          "internalType": "uint256",
          "name": "",
          "type": "uint256"
        },
        {
          "internalType": "uint256",
          "name": "",
          "type": "uint256"
        }
      ],
      "stateMutability": "view",
      "type": "function"
    },
    {
      "inputs": [],
      "name": "token",
      "outputs": [
        {
          "internalType": "contract IConverterAnchor",
          "name": "",
          "type": "address"
        }
      ],
      "stateMutability": "view",
      "type": "function"
    },
    {
      "inputs": [
        {
          "internalType": "address",
          "name": "_newOwner",
          "type": "address"
        }
      ],
      "name": "transferAnchorOwnership",
      "outputs": [],
      "stateMutability": "nonpayable",
      "type": "function"
    },
    {
      "inputs": [
        {
          "internalType": "address",
          "name": "_newOwner",
          "type": "address"
        }
      ],
      "name": "transferOwnership",
      "outputs": [],
      "stateMutability": "nonpayable",
      "type": "function"
    },
    {
      "inputs": [
        {
          "internalType": "address",
          "name": "_newOwner",
          "type": "address"
        }
      ],
      "name": "transferTokenOwnership",
      "outputs": [],
      "stateMutability": "nonpayable",
      "type": "function"
    },
    {
      "inputs": [],
      "name": "updateRegistry",
      "outputs": [],
      "stateMutability": "nonpayable",
      "type": "function"
    },
    {
      "inputs": [],
      "name": "upgrade",
      "outputs": [],
      "stateMutability": "nonpayable",
      "type": "function"
    },
    {
      "inputs": [],
      "name": "version",
      "outputs": [
        {
          "internalType": "uint16",
          "name": "",
          "type": "uint16"
        }
      ],
      "stateMutability": "view",
      "type": "function"
    },
    {
      "inputs": [
        {
          "internalType": "address payable",
          "name": "_to",
          "type": "address"
        }
      ],
      "name": "withdrawETH",
      "outputs": [],
      "stateMutability": "nonpayable",
      "type": "function"
    },
    {
      "inputs": [
        {
          "internalType": "contract IERC20Token",
          "name": "_token",
          "type": "address"
        },
        {
          "internalType": "address",
          "name": "_to",
          "type": "address"
        },
        {
          "internalType": "uint256",
          "name": "_amount",
          "type": "uint256"
        }
      ],
      "name": "withdrawTokens",
      "outputs": [],
      "stateMutability": "nonpayable",
      "type": "function"
    },
    {
      "stateMutability": "payable",
      "type": "receive"
    }
  ],
  "bytecode": "0x60806040526003805460ff60a81b191690557fc0829421c1d260bd3cb3e0f06cfe2d52db2ce3150000000000000000000000006008556009805460ff191690553480156200004c57600080fd5b506040516200562638038062005626833981810160405260608110156200007257600080fd5b5080516020820151604090920151600080546001600160a01b031916331790559091908282828282828180620000a88162000142565b50600280546001600160a01b039092166001600160a01b031992831681179091556003805490921617905582620000df8162000142565b81620000eb81620001a1565b5050600480546001600160a01b039094166001600160a01b031990941693909317909255506008805463ffffffff9092166401000000000263ffffffff60201b199092169190911790555062000200945050505050565b6001600160a01b0381166200019e576040805162461bcd60e51b815260206004820152601360248201527f4552525f494e56414c49445f4144445245535300000000000000000000000000604482015290519081900360640190fd5b50565b620f424063ffffffff821611156200019e576040805162461bcd60e51b815260206004820152601a60248201527f4552525f494e56414c49445f434f4e56455253494f4e5f464545000000000000604482015290519081900360640190fd5b61541680620002106000396000f3fe6080604052600436106103855760003560e01c806379ba5097116101d1578063ca1d209d11610102578063d66bd524116100a0578063e8dc12ff1161006f578063e8dc12ff14611033578063ecbca55d14611079578063f2fde38b146110a9578063fc0c546a146110dc57610416565b8063d66bd52414610f85578063d895951214610fb8578063dc8de37914610feb578063e2c524681461101e57610416565b8063d260529c116100dc578063d260529c14610f31578063d3fb73b414610f46578063d4ee1d9014610f5b578063d55ec69714610f7057610416565b8063ca1d209d14610ed5578063cdc91c6914610ef2578063d031370b14610f0757610416565b8063a60e77241161016f578063b4a176d311610149578063b4a176d314610e66578063b7ef236714610e7b578063bf75455814610eab578063c45d3d9214610ec057610416565b8063a60e772414610c3e578063af94b8d814610cec578063b127c0a514610d2f57610416565b806380d9416d116101ab57806380d9416d14610b4c5780638da5cb5b14610bff57806394c275ad14610c145780639b99a8e214610c2957610416565b806379ba5097146109fd5780637b10399914610a125780637d8916bd14610a2757610416565b806338e9f27a116102b6578063579cd3ca11610254578063690d832011610223578063690d83201461094c5780636a49d2c41461097f5780636aa5332c146109be57806371f52bf3146109e857610416565b8063579cd3ca146108ac5780635e35359e146108c157806361cd756e1461090457806367b6d57c1461091957610416565b806349d10b641161029057806349d10b64146108165780634af80f0e1461082b5780634e40c2601461085e57806354fd4d501461089757610416565b806338e9f27a146107ab5780633e8ff43f146107c0578063415f1240146107ec57610416565b80631d4db7911161032357806321e6b53d116102fd57806321e6b53d1461073957806322f3e2d41461076c5780632fe8a6ad1461078157806338a5e0161461079657610416565b80631d4db791146106835780631e1401f8146106aa5780631f0181bc1461070657610416565b806312c2aca41161035f57806312c2aca4146104dc578063154588371461050557806319b640151461060a5780631cfab2901461065057610416565b8063024c7ec71461041b5780630c7d5cd8146104475780630e53aae91461047557610416565b36610416576000805160206153a183398151915260005260076020527fb2084a3e4595ccf007fb44245853374aaf0de960074375e8e0fb334712e94d0f54600160301b900460ff16610414576040805162461bcd60e51b81526020600482015260136024820152724552525f494e56414c49445f5245534552564560681b604482015290519081900360640190fd5b005b600080fd5b34801561042757600080fd5b506104146004803603602081101561043e57600080fd5b503515156110f1565b34801561045357600080fd5b5061045c611117565b6040805163ffffffff9092168252519081900360200190f35b34801561048157600080fd5b506104a86004803603602081101561049857600080fd5b50356001600160a01b0316611123565b6040805195865263ffffffff9094166020860152911515848401521515606084015215156080830152519081900360a00190f35b3480156104e857600080fd5b506104f16111ba565b604080519115158252519081900360200190f35b34801561051157600080fd5b506105ba6004803603604081101561052857600080fd5b81359190810190604081016020820135600160201b81111561054957600080fd5b82018360208201111561055b57600080fd5b803590602001918460208302840111600160201b8311171561057c57600080fd5b919080806020026020016040519081016040528093929190818152602001838360200280828437600092019190915250929550611201945050505050565b60408051602080825283518183015283519192839290830191858101910280838360005b838110156105f65781810151838201526020016105de565b505050509050019250505060405180910390f35b34801561061657600080fd5b506106346004803603602081101561062d57600080fd5b50356112a8565b604080516001600160a01b039092168252519081900360200190f35b34801561065c57600080fd5b5061045c6004803603602081101561067357600080fd5b50356001600160a01b03166112d2565b34801561068f57600080fd5b50610698611304565b60408051918252519081900360200190f35b3480156106b657600080fd5b506106ed600480360360608110156106cd57600080fd5b506001600160a01b0381358116916020810135909116906040013561130a565b6040805192835260208301919091528051918290030190f35b34801561071257600080fd5b506106ed6004803603602081101561072957600080fd5b50356001600160a01b0316611325565b34801561074557600080fd5b506104146004803603602081101561075c57600080fd5b50356001600160a01b03166113dc565b34801561077857600080fd5b506104f16113f0565b34801561078d57600080fd5b506104f161146f565b3480156107a257600080fd5b5061041461147f565b3480156107b757600080fd5b506104f1611491565b3480156107cc57600080fd5b506107d561149a565b6040805161ffff9092168252519081900360200190f35b3480156107f857600080fd5b506105ba6004803603602081101561080f57600080fd5b503561149f565b34801561082257600080fd5b506104146116dd565b34801561083757600080fd5b506104146004803603602081101561084e57600080fd5b50356001600160a01b03166118e5565b34801561086a57600080fd5b506106986004803603604081101561088157600080fd5b506001600160a01b03813516906020013561191a565b3480156108a357600080fd5b506107d5611a56565b3480156108b857600080fd5b5061045c611a5b565b3480156108cd57600080fd5b50610414600480360360608110156108e457600080fd5b506001600160a01b03813581169160208101359091169060400135611a6e565b34801561091057600080fd5b50610634611b9f565b34801561092557600080fd5b506104146004803603602081101561093c57600080fd5b50356001600160a01b0316611bae565b34801561095857600080fd5b506104146004803603602081101561096f57600080fd5b50356001600160a01b0316611c5a565b34801561098b57600080fd5b50610414600480360360408110156109a257600080fd5b5080356001600160a01b0316906020013563ffffffff16611d81565b3480156109ca57600080fd5b50610698600480360360208110156109e157600080fd5b5035611e4a565b3480156109f457600080fd5b506107d5611e6c565b348015610a0957600080fd5b50610414611e7b565b348015610a1e57600080fd5b50610634611f32565b61069860048036036060811015610a3d57600080fd5b810190602081018135600160201b811115610a5757600080fd5b820183602082011115610a6957600080fd5b803590602001918460208302840111600160201b83111715610a8a57600080fd5b9190808060200260200160405190810160405280939291908181526020018383602002808284376000920191909152509295949360208101935035915050600160201b811115610ad957600080fd5b820183602082011115610aeb57600080fd5b803590602001918460208302840111600160201b83111715610b0c57600080fd5b9190808060200260200160405190810160405280939291908181526020018383602002808284376000920191909152509295505091359250611f41915050565b348015610b5857600080fd5b506105ba60048036036060811015610b6f57600080fd5b810190602081018135600160201b811115610b8957600080fd5b820183602082011115610b9b57600080fd5b803590602001918460208302840111600160201b83111715610bbc57600080fd5b919080806020026020016040519081016040528093929190818152602001838360200280828437600092019190915250929550508235935050506020013561220b565b348015610c0b57600080fd5b506106346124ba565b348015610c2057600080fd5b5061045c6124c9565b348015610c3557600080fd5b506107d56124dc565b348015610c4a57600080fd5b5061069860048036036020811015610c6157600080fd5b810190602081018135600160201b811115610c7b57600080fd5b820183602082011115610c8d57600080fd5b803590602001918460208302840111600160201b83111715610cae57600080fd5b9190808060200260200160405190810160405280939291908181526020018383602002808284376000920191909152509295506124e2945050505050565b348015610cf857600080fd5b506106ed60048036036060811015610d0f57600080fd5b506001600160a01b03813581169160208101359091169060400135612534565b348015610d3b57600080fd5b506105ba60048036036060811015610d5257600080fd5b81359190810190604081016020820135600160201b811115610d7357600080fd5b820183602082011115610d8557600080fd5b803590602001918460208302840111600160201b83111715610da657600080fd5b9190808060200260200160405190810160405280939291908181526020018383602002808284376000920191909152509295949360208101935035915050600160201b811115610df557600080fd5b820183602082011115610e0757600080fd5b803590602001918460208302840111600160201b83111715610e2857600080fd5b9190808060200260200160405190810160405280939291908181526020018383602002808284376000920191909152509295506126d7945050505050565b348015610e7257600080fd5b50610414612813565b348015610e8757600080fd5b5061069860048036036040811015610e9e57600080fd5b508035906020013561283f565b348015610eb757600080fd5b506104f1612857565b348015610ecc57600080fd5b5061063461285c565b61069860048036036020811015610eeb57600080fd5b503561286b565b348015610efe57600080fd5b50610414612ce6565b348015610f1357600080fd5b5061063460048036036020811015610f2a57600080fd5b5035612d3f565b348015610f3d57600080fd5b506104f161149a565b348015610f5257600080fd5b50610634612d66565b348015610f6757600080fd5b50610634612d75565b348015610f7c57600080fd5b50610414612d84565b348015610f9157600080fd5b506104a860048036036020811015610fa857600080fd5b50356001600160a01b0316612e6c565b348015610fc457600080fd5b5061069860048036036020811015610fdb57600080fd5b50356001600160a01b0316612eae565b348015610ff757600080fd5b506106986004803603602081101561100e57600080fd5b50356001600160a01b0316612eb5565b34801561102a57600080fd5b506106ed612ede565b610698600480360360a081101561104957600080fd5b506001600160a01b0381358116916020810135821691604082013591606081013582169160809091013516612ee7565b34801561108557600080fd5b506104146004803603602081101561109c57600080fd5b503563ffffffff166130f7565b3480156110b557600080fd5b50610414600480360360208110156110cc57600080fd5b50356001600160a01b03166131de565b3480156110e857600080fd5b5061063461325c565b6110f961326b565b60038054911515600160a01b0260ff60a01b19909216919091179055565b60085463ffffffff1681565b6000806000806000611133615358565b505050506001600160a01b03929092166000908152600760209081526040808320815160a081018352815480825260019092015463ffffffff811694820185905260ff600160201b82048116151594830194909452650100000000008104841615156060830152600160301b90049092161515608090920182905295919450919250829190565b6000805160206153a183398151915260005260076020527fb2084a3e4595ccf007fb44245853374aaf0de960074375e8e0fb334712e94d0f54600160301b900460ff165b90565b60048054604080516318160ddd60e01b815290516060936000936001600160a01b0316926318160ddd9281830192602092829003018186803b15801561124657600080fd5b505afa15801561125a573d6000803e3d6000fd5b505050506040513d602081101561127057600080fd5b50519050600061128f6c42616e636f72466f726d756c6160981b6132be565b905061129d8585848461333c565b925050505b92915050565b6000600682815481106112b757fe5b6000918252602090912001546001600160a01b031692915050565b6000816112de81613481565b50506001600160a01b031660009081526007602052604090206001015463ffffffff1690565b600c5481565b600080611318858585612534565b915091505b935093915050565b600954600090819060ff16611379576040805162461bcd60e51b815260206004820152601560248201527411549497d393d397d4d510539110549117d413d3d3605a1b604482015290519081900360640190fd5b611381615386565b6113896134ee565b9050600660008154811061139957fe5b6000918252602090912001546001600160a01b03858116911614156113ca57805160209091015190925090506113d7565b6020810151905190925090505b915091565b6113e461326b565b6113ed81611bae565b50565b6004805460408051638da5cb5b60e01b8152905160009330936001600160a01b031692638da5cb5b9281830192602092829003018186803b15801561143457600080fd5b505afa158015611448573d6000803e3d6000fd5b505050506040513d602081101561145e57600080fd5b50516001600160a01b031614905090565b600354600160a01b900460ff1681565b61148761326b565b61148f612ce6565b565b60095460ff1681565b600190565b60606114a9613689565b6003805460ff60a81b1916600160a81b17905581611500576040805162461bcd60e51b815260206004820152600f60248201526e11549497d6915493d7d05353d55395608a1b604482015290519081900360640190fd5b6000600460009054906101000a90046001600160a01b03166001600160a01b03166318160ddd6040518163ffffffff1660e01b815260040160206040518083038186803b15801561155057600080fd5b505afa158015611564573d6000803e3d6000fd5b505050506040513d602081101561157a57600080fd5b5051600480546040805163a24835d160e01b8152339381019390935260248301879052519293506001600160a01b03169163a24835d19160448082019260009290919082900301818387803b1580156115d257600080fd5b505af11580156115e6573d6000803e3d6000fd5b505060065460609250905067ffffffffffffffff8111801561160757600080fd5b50604051908082528060200260200182016040528015611631578160200160208202803683370190505b50905060005b815181101561166157600182828151811061164e57fe5b6020908102919091010152600101611637565b506116c860068054806020026020016040519081016040528092919081815260200182805480156116bb57602002820191906000526020600020905b81546001600160a01b0316815260019091019060200180831161169d575b50505050508284876136d9565b6003805460ff60a81b19169055949350505050565b6000546001600160a01b03163314806117005750600354600160a01b900460ff16155b611745576040805162461bcd60e51b815260206004820152601160248201527011549497d050d0d154d4d7d11153925151607a1b604482015290519081900360640190fd5b60006117636f436f6e7472616374526567697374727960801b6132be565b6002549091506001600160a01b0380831691161480159061178c57506001600160a01b03811615155b6117d4576040805162461bcd60e51b81526020600482015260146024820152734552525f494e56414c49445f524547495354525960601b604482015290519081900360640190fd5b60006001600160a01b0316816001600160a01b031663bb34534c6f436f6e7472616374526567697374727960801b6040518263ffffffff1660e01b81526004018082815260200191505060206040518083038186803b15801561183657600080fd5b505afa15801561184a573d6000803e3d6000fd5b505050506040513d602081101561186057600080fd5b50516001600160a01b031614156118b5576040805162461bcd60e51b81526020600482015260146024820152734552525f494e56414c49445f524547495354525960601b604482015290519081900360640190fd5b60028054600380546001600160a01b038084166001600160a01b0319928316179092559091169216919091179055565b6118ed61326b565b806118f7816138e4565b50600580546001600160a01b0319166001600160a01b0392909216919091179055565b60048054604080516318160ddd60e01b8152905160009384936001600160a01b0316926318160ddd9281830192602092829003018186803b15801561195e57600080fd5b505afa158015611972573d6000803e3d6000fd5b505050506040513d602081101561198857600080fd5b5051905060006119a76c42616e636f72466f726d756c6160981b6132be565b6001600160a01b03868116600090815260076020908152604091829020546008548351632f55bdb560e01b815260048101899052602481019290925263ffffffff16604482015260648101899052915193945091841692632f55bdb592608480840193919291829003018186803b158015611a2157600080fd5b505afa158015611a35573d6000803e3d6000fd5b505050506040513d6020811015611a4b57600080fd5b505195945050505050565b602881565b600854600160401b900463ffffffff1681565b611a76613689565b6003805460ff60a81b1916600160a81b179055611a9161326b565b6000611ab6762130b731b7b921b7b73b32b93a32b92ab833b930b232b960491b6132be565b6001600160a01b038516600090815260076020526040902060010154909150600160301b900460ff161580611af05750611aee6113f0565b155b80611b0857506000546001600160a01b038281169116145b611b4d576040805162461bcd60e51b815260206004820152601160248201527011549497d050d0d154d4d7d11153925151607a1b604482015290519081900360640190fd5b611b58848484613938565b6001600160a01b038416600090815260076020526040902060010154600160301b900460ff1615611b8c57611b8c84613969565b50506003805460ff60a81b191690555050565b6003546001600160a01b031681565b611bb661326b565b762130b731b7b921b7b73b32b93a32b92ab833b930b232b960491b611bda81613a42565b600460009054906101000a90046001600160a01b03166001600160a01b031663f2fde38b836040518263ffffffff1660e01b815260040180826001600160a01b03168152602001915050600060405180830381600087803b158015611c3e57600080fd5b505af1158015611c52573d6000803e3d6000fd5b505050505050565b611c62613689565b6003805460ff60a81b1916600160a81b179055611c7d61326b565b6000805160206153a1833981519152611c9581613481565b6000611cba762130b731b7b921b7b73b32b93a32b92ab833b930b232b960491b6132be565b9050611cc46113f0565b1580611cdd57506000546001600160a01b038281169116145b611d22576040805162461bcd60e51b815260206004820152601160248201527011549497d050d0d154d4d7d11153925151607a1b604482015290519081900360640190fd5b6040516001600160a01b038416904780156108fc02916000818181858888f19350505050158015611d57573d6000803e3d6000fd5b50611d6f6000805160206153a1833981519152613969565b50506003805460ff60a81b1916905550565b611d8961326b565b611d938282613aa4565b6006546002148015611de75750600760006006600081548110611db257fe5b6000918252602080832091909101546001600160a01b0316835282019290925260400190206001015463ffffffff166207a120145b8015611e355750600760006006600181548110611e0057fe5b6000918252602080832091909101546001600160a01b0316835282019290925260400190206001015463ffffffff166207a120145b6009805460ff19169115159190911790555050565b600080825b8015611e655760019190910190600a9004611e4f565b5092915050565b6000611e766124dc565b905090565b6001546001600160a01b03163314611ece576040805162461bcd60e51b815260206004820152601160248201527011549497d050d0d154d4d7d11153925151607a1b604482015290519081900360640190fd5b600154600080546040516001600160a01b0393841693909116917f343765429aea5a34b3ff6a3785a98a5abb2597aca87bfbb58632c173d585373a91a360018054600080546001600160a01b03199081166001600160a01b03841617909155169055565b6002546001600160a01b031681565b6000611f4b613689565b6003805460ff60a81b1916600160a81b179055611f66613cc6565b611f71848484613d0e565b60005b8451811015612021576000805160206153a18339815191526001600160a01b0316858281518110611fa157fe5b60200260200101516001600160a01b031614156120195734848281518110611fc557fe5b602002602001015114612019576040805162461bcd60e51b815260206004820152601760248201527608aa4a4be8aa890be829a9eaa9ca8be9a92a69a82a8869604b1b604482015290519081900360640190fd5b600101611f74565b5034156120b1576000805160206153a183398151915260005260076020527fb2084a3e4595ccf007fb44245853374aaf0de960074375e8e0fb334712e94d0f54600160301b900460ff166120b1576040805162461bcd60e51b81526020600482015260126024820152714552525f4e4f5f4554485f5245534552564560701b604482015290519081900360640190fd5b6000600460009054906101000a90046001600160a01b03166001600160a01b03166318160ddd6040518163ffffffff1660e01b815260040160206040518083038186803b15801561210157600080fd5b505afa158015612115573d6000803e3d6000fd5b505050506040513d602081101561212b57600080fd5b50519050600061213c868684613fa3565b905083811015612188576040805162461bcd60e51b81526020600482015260126024820152714552525f52455455524e5f544f4f5f4c4f5760701b604482015290519081900360640190fd5b600480546040805163219e412d60e21b8152339381019390935260248301849052516001600160a01b039091169163867904b491604480830192600092919082900301818387803b1580156121dc57600080fd5b505af11580156121f0573d6000803e3d6000fd5b50506003805460ff60a81b1916905550909695505050505050565b606080845167ffffffffffffffff8111801561222657600080fd5b50604051908082528060200260200182016040528015612250578160200160208202803683370190505b5090506000600460009054906101000a90046001600160a01b03166001600160a01b03166318160ddd6040518163ffffffff1660e01b815260040160206040518083038186803b1580156122a357600080fd5b505afa1580156122b7573d6000803e3d6000fd5b505050506040513d60208110156122cd57600080fd5b5051905060006122ec6c42616e636f72466f726d756c6160981b6132be565b90506000816001600160a01b0316632f55bdb584600760008c8c8151811061231057fe5b6020908102919091018101516001600160a01b031682528181019290925260409081016000205460085482516001600160e01b031960e088901b1681526004810195909552602485019190915263ffffffff166044840152606483018b905251608480840193829003018186803b15801561238a57600080fd5b505afa15801561239e573d6000803e3d6000fd5b505050506040513d60208110156123b457600080fd5b5051905060005b84518110156124ab57826001600160a01b031663ebbb215885600760008d86815181106123e457fe5b6020908102919091018101516001600160a01b031682528181019290925260409081016000205460085482516001600160e01b031960e088901b1681526004810195909552602485019190915263ffffffff1660448401526064830187905251608480840193829003018186803b15801561245e57600080fd5b505afa158015612472573d6000803e3d6000fd5b505050506040513d602081101561248857600080fd5b5051855186908390811061249857fe5b60209081029190910101526001016123bb565b509293505050505b9392505050565b6000546001600160a01b031681565b600854600160201b900463ffffffff1681565b60065490565b80516000908190815b8181101561251b5761250f85828151811061250257fe5b6020026020010151611e4a565b909201916001016124eb565b506001612528838361283f565b03600a0a949350505050565b60008061253f613cc6565b8461254981613481565b8461255381613481565b856001600160a01b0316876001600160a01b031614156125b3576040805162461bcd60e51b815260206004820152601660248201527511549497d4d0535157d4d3d55490d157d5105491d15560521b604482015290519081900360640190fd5b60006125ce6c42616e636f72466f726d756c6160981b6132be565b6001600160a01b03166394491fab6125e58a612eb5565b6001600160a01b038b1660009081526007602052604090206001015463ffffffff166126108b612eb5565b6001600160a01b038c166000908152600760209081526040918290206001015482516001600160e01b031960e089901b168152600481019690965263ffffffff94851660248701526044860193909352929091166064840152608483018b90525160a480840193829003018186803b15801561268b57600080fd5b505afa15801561269f573d6000803e3d6000fd5b505050506040513d60208110156126b557600080fd5b5051905060006126c482613fce565b9182900399919850909650505050505050565b60606126e1613689565b6003805460ff60a81b1916600160a81b1790556126fc613cc6565b612707838386613d0e565b6000600460009054906101000a90046001600160a01b03166001600160a01b03166318160ddd6040518163ffffffff1660e01b815260040160206040518083038186803b15801561275757600080fd5b505afa15801561276b573d6000803e3d6000fd5b505050506040513d602081101561278157600080fd5b5051600480546040805163a24835d160e01b8152339381019390935260248301899052519293506001600160a01b03169163a24835d19160448082019260009290919082900301818387803b1580156127d957600080fd5b505af11580156127ed573d6000803e3d6000fd5b505050506127fd848483886136d9565b6003805460ff60a81b1916905595945050505050565b61281b61326b565b600354600280546001600160a01b0319166001600160a01b03909216919091179055565b6000816002810484018161284f57fe5b049392505050565b600181565b6005546001600160a01b031681565b6000612875613689565b6003805460ff60a81b1916600160a81b179055612890613fff565b6000805160206153a183398151915260005260076020526000805160206153c1833981519152546128c1903461403f565b6000805160206153a18339815191526000908152600760209081526000805160206153c18339815191529290925560048054604080516318160ddd60e01b8152905193946001600160a01b03909216936318160ddd938281019392829003018186803b15801561293057600080fd5b505afa158015612944573d6000803e3d6000fd5b505050506040513d602081101561295a57600080fd5b5051905060006129796c42616e636f72466f726d756c6160981b6132be565b60065490915060005b81811015612c635760006006828154811061299957fe5b60009182526020808320909101546001600160a01b03908116808452600783526040808520546008548251631d77642b60e31b8152600481018d90526024810183905263ffffffff9091166044820152606481018e9052915192965094939289169263ebbb215892608480840193829003018186803b158015612a1b57600080fd5b505afa158015612a2f573d6000803e3d6000fd5b505050506040513d6020811015612a4557600080fd5b505190506001600160a01b0383166000805160206153a18339815191521415612b905780341115612aa55760405133903483900380156108fc02916000818181858888f19350505050158015612a9f573d6000803e3d6000fd5b50612b8b565b80341015612b8b573415612af8576040805162461bcd60e51b81526020600482015260156024820152744552525f494e56414c49445f4554485f56414c554560581b604482015290519081900360640190fd5b600854612b1790600160601b90046001600160a01b031633308461408c565b6008600c9054906101000a90046001600160a01b03166001600160a01b0316632e1a7d4d826040518263ffffffff1660e01b815260040180828152602001915050600060405180830381600087803b158015612b7257600080fd5b505af1158015612b86573d6000803e3d6000fd5b505050505b612b9c565b612b9c8333308461408c565b6000612ba883836141f7565b6001600160a01b0385166000908152600760205260408120829055909150612bd0898c6141f7565b604080518581526020810185905280820183905290519192506001600160a01b0387169133917f4a1a2a6176e9646d9e3157f7c2ab3c499f18337c0b0828cfb28e0a61de4a11f7919081900360600190a36001600160a01b038516600090815260076020526040902060010154612c529082908790859063ffffffff16614240565b505060019093019250612982915050565b50600480546040805163219e412d60e21b8152339381019390935260248301889052516001600160a01b039091169163867904b491604480830192600092919082900301818387803b158015612cb857600080fd5b505af1158015612ccc573d6000803e3d6000fd5b50506003805460ff60a81b19169055509495945050505050565b612cee61326b565b612cf66142af565b6004546001906001600160a01b0316612d0d61149a565b61ffff167f6b08c2e2c9969e55a647a764db9b554d64dc42f1a704da11a6d5b129ad163f2c60405160405180910390a4565b60068181548110612d4c57fe5b6000918252602090912001546001600160a01b0316905081565b6004546001600160a01b031681565b6001546001600160a01b031681565b612d8c61326b565b6000612db1762130b731b7b921b7b73b32b93a32b92ab833b930b232b960491b6132be565b6004549091506000906001600160a01b0316612dcb61149a565b61ffff167f6b08c2e2c9969e55a647a764db9b554d64dc42f1a704da11a6d5b129ad163f2c60405160405180910390a4612e04816131de565b6040805163487ac64b60e11b81526028600482015290516001600160a01b038316916390f58c9691602480830192600092919082900301818387803b158015612e4c57600080fd5b505af1158015612e60573d6000803e3d6000fd5b505050506113ed611e7b565b6007602052600090815260409020805460019091015463ffffffff81169060ff600160201b8204811691650100000000008104821691600160301b9091041685565b60006112a2825b600081612ec181613481565b50506001600160a01b031660009081526007602052604090205490565b600a54600b5482565b6000612ef1613689565b6003805460ff60a81b1916600160a81b1790556c42616e636f724e6574776f726b60981b612f1e81613a42565b856001600160a01b0316876001600160a01b03161415612f7e576040805162461bcd60e51b815260206004820152601660248201527511549497d4d0535157d4d3d55490d157d5105491d15560521b604482015290519081900360640190fd5b6005546001600160a01b0316158061308b575060055460408051633af32abf60e01b81526001600160a01b03878116600483015291519190921691633af32abf916024808301926020929190829003018186803b158015612fde57600080fd5b505afa158015612ff2573d6000803e3d6000fd5b505050506040513d602081101561300857600080fd5b5051801561308b575060055460408051633af32abf60e01b81526001600160a01b03868116600483015291519190921691633af32abf916024808301926020929190829003018186803b15801561305e57600080fd5b505afa158015613072573d6000803e3d6000fd5b505050506040513d602081101561308857600080fd5b50515b6130d2576040805162461bcd60e51b815260206004820152601360248201527211549497d393d517d5d2125511531254d51151606a1b604482015290519081900360640190fd5b6130df8787878787614313565b6003805460ff60a81b19169055979650505050505050565b6130ff61326b565b60085463ffffffff600160201b90910481169082161115613167576040805162461bcd60e51b815260206004820152601a60248201527f4552525f494e56414c49445f434f4e56455253494f4e5f464545000000000000604482015290519081900360640190fd5b6008546040805163ffffffff600160401b90930483168152918316602083015280517f81cd2ffb37dd237c0e4e2a3de5265fcf9deb43d3e7801e80db9f1ccfba7ee6009281900390910190a16008805463ffffffff909216600160401b026bffffffff000000000000000019909216919091179055565b6131e661326b565b6000546001600160a01b038281169116141561323a576040805162461bcd60e51b815260206004820152600e60248201526d22a9292fa9a0a6a2afa7aba722a960911b604482015290519081900360640190fd5b600180546001600160a01b0319166001600160a01b0392909216919091179055565b6004546001600160a01b031690565b6000546001600160a01b0316331461148f576040805162461bcd60e51b815260206004820152601160248201527011549497d050d0d154d4d7d11153925151607a1b604482015290519081900360640190fd5b60025460408051632ecd14d360e21b81526004810184905290516000926001600160a01b03169163bb34534c916024808301926020929190829003018186803b15801561330a57600080fd5b505afa15801561331e573d6000803e3d6000fd5b505050506040513d602081101561333457600080fd5b505192915050565b606080845167ffffffffffffffff8111801561335757600080fd5b50604051908082528060200260200182016040528015613381578160200160208202803683370190505b50905060005b815181101561347757836001600160a01b0316638074590a86600760008a86815181106133b057fe5b6020908102919091018101516001600160a01b031682528181019290925260409081016000205460085482516001600160e01b031960e088901b1681526004810195909552602485019190915263ffffffff166044840152606483018c905251608480840193829003018186803b15801561342a57600080fd5b505afa15801561343e573d6000803e3d6000fd5b505050506040513d602081101561345457600080fd5b5051825183908390811061346457fe5b6020908102919091010152600101613387565b5095945050505050565b6001600160a01b038116600090815260076020526040902060010154600160301b900460ff166113ed576040805162461bcd60e51b81526020600482015260136024820152724552525f494e56414c49445f5245534552564560681b604482015290519081900360640190fd5b6134f6615386565b6000600c546135036145d6565b0390508061352957505060408051808201909152600a548152600b5460208201526111fe565b600060076000600660018154811061353d57fe5b60009182526020808320909101546001600160a01b0316835282019290925260400181205460068054919350600791839190829061357757fe5b60009182526020808320909101546001600160a01b03168352820192909252604001902054905061025883106135c25760408051808201909152918252602082015291506111fe9050565b6135ca615386565b5060408051808201909152600a548152600b54602082018190526000906135f190856145da565b825190915060009061360390856145da565b9050600061362961361484896145da565b613623846102588b90036145da565b906141f7565b9050600061365061025861364a8888602001516145da90919063ffffffff16565b906145da565b905061366a82826c0c9f2c9cd04674edea40000000614638565b6040805180820190915291825260208201529850505050505050505090565b600354600160a81b900460ff161561148f576040805162461bcd60e51b815260206004820152600e60248201526d4552525f5245454e5452414e435960901b604482015290519081900360640190fd5b60606136e3613fff565b60006136fe6c42616e636f72466f726d756c6160981b6132be565b9050600061370c858561403f565b9050606061371c8589888661333c565b905060005b88518110156138d857600089828151811061373857fe5b60200260200101519050600083838151811061375057fe5b6020026020010151905089838151811061376657fe5b60200260200101518110156137bb576040805162461bcd60e51b815260206004820152601660248201527511549497d6915493d7d5105491d15517d05353d5539560521b604482015290519081900360640190fd5b6001600160a01b0382166000908152600760205260408120546137de908361403f565b6001600160a01b03841660008181526007602052604090208290559091506000805160206153a1833981519152141561384457604051339083156108fc029084906000818181858888f1935050505015801561383e573d6000803e3d6000fd5b5061384f565b61384f83338461466a565b604080518381526020810183905280820188905290516001600160a01b0385169133917fbc7d19d505c7ec4db83f3b51f19fb98c4c8a99922e7839d1ee608dfbee29501b9181900360600190a36001600160a01b0383166000908152600760205260409020600101546138cd9087908590849063ffffffff16614240565b505050600101613721565b50979650505050505050565b6001600160a01b0381163014156113ed576040805162461bcd60e51b815260206004820152601360248201527222a9292fa0a2222922a9a9afa4a9afa9a2a62360691b604482015290519081900360640190fd5b61394061326b565b8261394a816147ca565b82613954816147ca565b8361395e816138e4565b611c5286868661466a565b8061397381613481565b6001600160a01b0382166000805160206153a183398151915214156139b2576001600160a01b0382166000908152600760205260409020479055613a3e565b604080516370a0823160e01b815230600482015290516001600160a01b038416916370a08231916024808301926020929190829003018186803b1580156139f857600080fd5b505afa158015613a0c573d6000803e3d6000fd5b505050506040513d6020811015613a2257600080fd5b50516001600160a01b0383166000908152600760205260409020555b5050565b613a4b816132be565b6001600160a01b0316336001600160a01b0316146113ed576040805162461bcd60e51b815260206004820152601160248201527011549497d050d0d154d4d7d11153925151607a1b604482015290519081900360640190fd5b613aac61326b565b613ab461481b565b81613abe816147ca565b82613ac8816138e4565b82613ad281614862565b6004546001600160a01b03868116911614801590613b1357506001600160a01b038516600090815260076020526040902060010154600160301b900460ff16155b613b5a576040805162461bcd60e51b81526020600482015260136024820152724552525f494e56414c49445f5245534552564560681b604482015290519081900360640190fd5b60085463ffffffff908116620f42400381169085161115613bc2576040805162461bcd60e51b815260206004820152601a60248201527f4552525f494e56414c49445f524553455256455f574549474854000000000000604482015290519081900360640190fd5b61ffff613bcd6124dc565b61ffff1610613c1f576040805162461bcd60e51b815260206004820152601960248201527811549497d253959053125117d49154d154959157d0d3d55395603a1b604482015290519081900360640190fd5b5050506001600160a01b0390911660008181526007602052604081208181556001908101805466ff0000000000001963ffffffff80881663ffffffff199384161791909116600160301b179092556006805493840181559093527ff652222313e28459528d920b65115c16c04f3efc82aaedc97be59f3f377c0d3f90910180546001600160a01b031916909317909255600880548084169094019092169216919091179055565b613cce6113f0565b61148f576040805162461bcd60e51b815260206004820152600c60248201526b4552525f494e41435449564560a01b604482015290519081900360640190fd5b600654835160009182918114613d61576040805162461bcd60e51b81526020600482015260136024820152724552525f494e56414c49445f5245534552564560681b604482015290519081900360640190fd5b84518114613dab576040805162461bcd60e51b815260206004820152601260248201527111549497d253959053125117d05353d5539560721b604482015290519081900360640190fd5b600092505b80831015613f5c5760076000878581518110613dc857fe5b60200260200101516001600160a01b03166001600160a01b0316815260200190815260200160002060010160069054906101000a900460ff16613e48576040805162461bcd60e51b81526020600482015260136024820152724552525f494e56414c49445f5245534552564560681b604482015290519081900360640190fd5b600091505b80821015613eaa57858281518110613e6157fe5b60200260200101516001600160a01b031660068481548110613e7f57fe5b6000918252602090912001546001600160a01b03161415613e9f57613eaa565b600190910190613e4d565b808210613ef4576040805162461bcd60e51b81526020600482015260136024820152724552525f494e56414c49445f5245534552564560681b604482015290519081900360640190fd5b6000858481518110613f0257fe5b602002602001015111613f51576040805162461bcd60e51b815260206004820152601260248201527111549497d253959053125117d05353d5539560721b604482015290519081900360640190fd5b600190920191613db0565b60008411611c52576040805162461bcd60e51b815260206004820152600f60248201526e11549497d6915493d7d05353d55395608a1b604482015290519081900360640190fd5b600081613fbb57613fb484846148d2565b90506124b3565b613fc68484846149f1565b949350505050565b6008546000906112a290620f424090613ff9908590600160401b900463ffffffff908116906145da16565b90614d1e565b60065460005b81811015613a3e576140376006828154811061401d57fe5b6000918252602090912001546001600160a01b0316613969565b600101614005565b600081831015614086576040805162461bcd60e51b815260206004820152600d60248201526c4552525f554e444552464c4f5760981b604482015290519081900360640190fd5b50900390565b604080516001600160a01b0385811660248301528481166044830152606480830185905283518084039091018152608490920183526020820180516001600160e01b03166323b872dd60e01b17815292518251600094606094938a169392918291908083835b602083106141115780518252601f1990920191602091820191016140f2565b6001836020036101000a0380198251168184511680821785525050505050509050019150506000604051808303816000865af19150503d8060008114614173576040519150601f19603f3d011682016040523d82523d6000602084013e614178565b606091505b50915091508180156141a65750805115806141a657508080602001905160208110156141a357600080fd5b50515b611c52576040805162461bcd60e51b815260206004820152601860248201527f4552525f5452414e534645525f46524f4d5f4641494c45440000000000000000604482015290519081900360640190fd5b6000828201838110156124b3576040805162461bcd60e51b815260206004820152600c60248201526b4552525f4f564552464c4f5760a01b604482015290519081900360640190fd5b6004546001600160a01b0380851691167f77f29993cf2c084e726f7e802da0719d6a0ade3e204badc7a3ffd57ecb768c2461427e85620f42406145da565b6142918863ffffffff808816906145da16565b6040805192835260208301919091528051918290030190a350505050565b60016142b96124dc565b61ffff161161430b576040805162461bcd60e51b815260206004820152601960248201527811549497d253959053125117d49154d154959157d0d3d55395603a1b604482015290519081900360640190fd5b61148f614d7d565b6000806000614323888888612534565b915091508160001415614376576040805162461bcd60e51b815260206004820152601660248201527511549497d6915493d7d5105491d15517d05353d5539560521b604482015290519081900360640190fd5b61437f87612eb5565b821061438757fe5b6001600160a01b0388166000805160206153a183398151915214156143f9578534146143f4576040805162461bcd60e51b815260206004820152601760248201527608aa4a4be8aa890be829a9eaa9ca8be9a92a69a82a8869604b1b604482015290519081900360640190fd5b6144d0565b3415801561448a57508561448761440f8a612eb5565b604080516370a0823160e01b815230600482015290516001600160a01b038d16916370a08231916024808301926020929190829003018186803b15801561445557600080fd5b505afa158015614469573d6000803e3d6000fd5b505050506040513d602081101561447f57600080fd5b50519061403f565b10155b6144d0576040805162461bcd60e51b815260206004820152601260248201527111549497d253959053125117d05353d5539560721b604482015290519081900360640190fd5b6144d988613969565b6001600160a01b0387166000908152600760205260409020546144fc908361403f565b6001600160a01b0388166000818152600760205260409020919091556000805160206153a18339815191521415614569576040516001600160a01b0385169083156108fc029084906000818181858888f19350505050158015614563573d6000803e3d6000fd5b50614574565b61457487858461466a565b60095460ff16801561458e57506145896145d6565b600c54105b156145b35761459b6134ee565b8051600a5560200151600b556145af6145d6565b600c555b6145c1888887898686614e44565b6145cb8888614ead565b509695505050505050565b4290565b6000826145e9575060006112a2565b828202828482816145f657fe5b04146124b3576040805162461bcd60e51b815260206004820152600c60248201526b4552525f4f564552464c4f5760a01b604482015290519081900360640190fd5b6000808285118061464857508284115b15614661576146588585856150b1565b9150915061131d565b50929391925050565b604080516001600160a01b038481166024830152604480830185905283518084039091018152606490920183526020820180516001600160e01b031663a9059cbb60e01b178152925182516000946060949389169392918291908083835b602083106146e75780518252601f1990920191602091820191016146c8565b6001836020036101000a0380198251168184511680821785525050505050509050019150506000604051808303816000865af19150503d8060008114614749576040519150601f19603f3d011682016040523d82523d6000602084013e61474e565b606091505b509150915081801561477c57508051158061477c575080806020019051602081101561477957600080fd5b50515b6147c3576040805162461bcd60e51b815260206004820152601360248201527211549497d514905394d1915497d19052531151606a1b604482015290519081900360640190fd5b5050505050565b6001600160a01b0381166113ed576040805162461bcd60e51b81526020600482015260136024820152724552525f494e56414c49445f4144445245535360681b604482015290519081900360640190fd5b6148236113f0565b1561148f576040805162461bcd60e51b815260206004820152600a6024820152694552525f41435449564560b01b604482015290519081900360640190fd5b60008163ffffffff161180156148815750620f424063ffffffff821611155b6113ed576040805162461bcd60e51b815260206004820152601a60248201527f4552525f494e56414c49445f524553455256455f574549474854000000000000604482015290519081900360640190fd5b6000806148de836124e2565b905060005b84518110156149e95760008582815181106148fa57fe5b60200260200101519050600085838151811061491257fe5b602002602001015190506000805160206153a18339815191526001600160a01b0316826001600160a01b03161461494f5761494f8233308461408c565b6001600160a01b0382166000818152600760209081526040918290208490558151848152908101849052808201879052905133917f4a1a2a6176e9646d9e3157f7c2ab3c499f18337c0b0828cfb28e0a61de4a11f7919081900360600190a36001600160a01b0382166000908152600760205260409020600101546149df9085908490849063ffffffff16614240565b50506001016148e3565b509392505050565b60006149fb613fff565b6000805160206153a183398151915260005260076020526000805160206153c183398151915254614a2c903461403f565b6000805160206153a1833981519152600090815260076020526000805160206153c183398151915291909155614a716c42616e636f72466f726d756c6160981b6132be565b90506000614a81828588886150f6565b90506000614a8f85836141f7565b905060005b8751811015614d12576000888281518110614aab57fe5b6020908102919091018101516001600160a01b038082166000908152600784526040808220546008548251631d77642b60e31b8152600481018f90526024810183905263ffffffff9091166044820152606481018b90529151949650949193928a169263ebbb215892608480840193919291829003018186803b158015614b3157600080fd5b505afa158015614b45573d6000803e3d6000fd5b505050506040513d6020811015614b5b57600080fd5b5051905080614baa576040805162461bcd60e51b815260206004820152601660248201527511549497d6915493d7d5105491d15517d05353d5539560521b604482015290519081900360640190fd5b898481518110614bb657fe5b6020026020010151811115614bc757fe5b6001600160a01b0383166000805160206153a183398151915214614bf657614bf18333308461408c565b614c61565b808a8581518110614c0357fe5b60200260200101511115614c6157336001600160a01b03166108fc828c8781518110614c2b57fe5b6020026020010151039081150290604051600060405180830381858888f19350505050158015614c5f573d6000803e3d6000fd5b505b6000614c6d83836141f7565b6001600160a01b03851660008181526007602090815260409182902084905581518681529081018490528082018a90529051929350909133917f4a1a2a6176e9646d9e3157f7c2ab3c499f18337c0b0828cfb28e0a61de4a11f7919081900360600190a36001600160a01b038416600090815260076020526040902060010154614d029087908690849063ffffffff16614240565b505060019092019150614a949050565b50909695505050505050565b6000808211614d69576040805162461bcd60e51b81526020600482015260126024820152714552525f4449564944455f42595f5a45524f60701b604482015290519081900360640190fd5b6000828481614d7457fe5b04949350505050565b614d8561326b565b6000614d8f6124dc565b61ffff1611614de1576040805162461bcd60e51b815260206004820152601960248201527811549497d253959053125117d49154d154959157d0d3d55395603a1b604482015290519081900360640190fd5b60048054604080516379ba509760e01b815290516001600160a01b03909216926379ba509792828201926000929082900301818387803b158015614e2457600080fd5b505af1158015614e38573d6000803e3d6000fd5b5050505061148f613fff565b600160ff1b8110614e5157fe5b604080518481526020810184905280820183905290516001600160a01b038087169288821692918a16917f276856b36cbc45526a0ba64f44611557a2a8b68662c5388e9fe6d72e86e1c8cb9181900360600190a4505050505050565b6000600460009054906101000a90046001600160a01b03166001600160a01b03166318160ddd6040518163ffffffff1660e01b815260040160206040518083038186803b158015614efd57600080fd5b505afa158015614f11573d6000803e3d6000fd5b505050506040513d6020811015614f2757600080fd5b505190506000614f3684612eb5565b90506000614f4384612eb5565b6001600160a01b038087166000908152600760205260408082206001908101549389168352908220015492935063ffffffff91821692821691614f8a90859085906145da16565b90506000614fa18663ffffffff808616906145da16565b604080518481526020810183905281519293506001600160a01b03808c1693908d16927f77f29993cf2c084e726f7e802da0719d6a0ade3e204badc7a3ffd57ecb768c24928290030190a3614ff8878a8887614240565b61500487898786614240565b604080518881526020810188905263ffffffff86168183015290516001600160a01b038b16917f8a6a7f53b3c8fa1dc4b83e3f1be668c1b251ff8d44cdcb83eb3acec3fec6a788919081900360600190a2604080518881526020810187905263ffffffff85168183015290516001600160a01b038a16917f8a6a7f53b3c8fa1dc4b83e3f1be668c1b251ff8d44cdcb83eb3acec3fec6a788919081900360600190a2505050505050505050565b600080838514156150c8575050600281048061131d565b838510156150db576146588585856152bc565b6000806150e98688876152bc565b9890975095505050505050565b60008060015b84518110156151c3576151666007600087848151811061511857fe5b60200260200101516001600160a01b03166001600160a01b031681526020019081526020016000206000015485848151811061515057fe5b60200260200101516145da90919063ffffffff16565b6151b16007600088868151811061517957fe5b60200260200101516001600160a01b03166001600160a01b031681526020019081526020016000206000015486848151811061515057fe5b10156151bb578091505b6001016150fc565b50856001600160a01b0316632f55bdb586600760008886815181106151e457fe5b60200260200101516001600160a01b03166001600160a01b0316815260200190815260200160002060000154600860009054906101000a900463ffffffff1687868151811061522f57fe5b60200260200101516040518563ffffffff1660e01b8152600401808581526020018481526020018363ffffffff16815260200182815260200194505050505060206040518083038186803b15801561528657600080fd5b505afa15801561529a573d6000803e3d6000fd5b505050506040513d60208110156152b057600080fd5b50519695505050505050565b600080600083600019816152cc57fe5b049050808611156153055760008160010187816152e557fe5b0460010190508087816152f457fe5b04965080868161530057fe5b049550505b600061531c87860261531789896141f7565b61532c565b9794889003965093945050505050565b600060028204820382848161533d57fe5b068161534557fe5b0482848161534f57fe5b04019392505050565b6040805160a08101825260008082526020820181905291810182905260608101829052608081019190915290565b60405180604001604052806000815260200160008152509056fe000000000000000000000000eeeeeeeeeeeeeeeeeeeeeeeeeeeeeeeeeeeeeeeeb2084a3e4595ccf007fb44245853374aaf0de960074375e8e0fb334712e94d0ea2646970667358221220a697eff5e4265113ba4b2f018561147239d9716ba38edd0eaa6ff135d94c103364736f6c634300060c0033",
  "linkReferences": {},
  "deployedLinkReferences": {}
}