{
  "_format": "hh-sol-artifact-1",
  "contractName": "TokenHolder",
  "sourceName": "contracts/bancor/utility/TokenHolder.sol",
  "abi": [
    {
      "anonymous": false,
      "inputs": [
        {
          "indexed": true,
          "internalType": "address",
          "name": "_prevOwner",
          "type": "address"
        },
        {
          "indexed": true,
          "internalType": "address",
          "name": "_newOwner",
          "type": "address"
        }
      ],
      "name": "OwnerUpdate",
      "type": "event"
    },
    {
      "inputs": [],
      "name": "acceptOwnership",
      "outputs": [],
      "stateMutability": "nonpayable",
      "type": "function"
    },
    {
      "inputs": [],
      "name": "newOwner",
      "outputs": [
        {
          "internalType": "address",
          "name": "",
          "type": "address"
        }
      ],
      "stateMutability": "view",
      "type": "function"
    },
    {
      "inputs": [],
      "name": "owner",
      "outputs": [
        {
          "internalType": "address",
          "name": "",
          "type": "address"
        }
      ],
      "stateMutability": "view",
      "type": "function"
    },
    {
      "inputs": [
        {
          "internalType": "address",
          "name": "_newOwner",
          "type": "address"
        }
      ],
      "name": "transferOwnership",
      "outputs": [],
      "stateMutability": "nonpayable",
      "type": "function"
    },
    {
      "inputs": [
        {
          "internalType": "contract IERC20Token",
          "name": "_token",
          "type": "address"
        },
        {
          "internalType": "address",
          "name": "_to",
          "type": "address"
        },
        {
          "internalType": "uint256",
          "name": "_amount",
          "type": "uint256"
        }
      ],
      "name": "withdrawTokens",
      "outputs": [],
      "stateMutability": "nonpayable",
      "type": "function"
    }
  ],
  "bytecode": "0x608060405234801561001057600080fd5b50600080546001600160a01b031916331790556105aa806100326000396000f3fe608060405234801561001057600080fd5b50600436106100675760003560e01c80638da5cb5b116100505780638da5cb5b146100ac578063d4ee1d90146100d0578063f2fde38b146100d857610067565b80635e35359e1461006c57806379ba5097146100a4575b600080fd5b6100a26004803603606081101561008257600080fd5b506001600160a01b038135811691602081013590911690604001356100fe565b005b6100a2610137565b6100b4610207565b604080516001600160a01b039092168252519081900360200190f35b6100b4610216565b6100a2600480360360208110156100ee57600080fd5b50356001600160a01b0316610225565b6101066102bf565b8261011081610320565b8261011a81610320565b836101248161037e565b61012f8686866103dc565b505050505050565b6001546001600160a01b03163314610196576040805162461bcd60e51b815260206004820152601160248201527f4552525f4143434553535f44454e494544000000000000000000000000000000604482015290519081900360640190fd5b600154600080546040516001600160a01b0393841693909116917f343765429aea5a34b3ff6a3785a98a5abb2597aca87bfbb58632c173d585373a91a3600180546000805473ffffffffffffffffffffffffffffffffffffffff199081166001600160a01b03841617909155169055565b6000546001600160a01b031681565b6001546001600160a01b031681565b61022d6102bf565b6000546001600160a01b0382811691161415610290576040805162461bcd60e51b815260206004820152600e60248201527f4552525f53414d455f4f574e4552000000000000000000000000000000000000604482015290519081900360640190fd5b6001805473ffffffffffffffffffffffffffffffffffffffff19166001600160a01b0392909216919091179055565b6000546001600160a01b0316331461031e576040805162461bcd60e51b815260206004820152601160248201527f4552525f4143434553535f44454e494544000000000000000000000000000000604482015290519081900360640190fd5b565b6001600160a01b03811661037b576040805162461bcd60e51b815260206004820152601360248201527f4552525f494e56414c49445f4144445245535300000000000000000000000000604482015290519081900360640190fd5b50565b6001600160a01b03811630141561037b576040805162461bcd60e51b815260206004820152601360248201527f4552525f414444524553535f49535f53454c4600000000000000000000000000604482015290519081900360640190fd5b604080516001600160a01b038481166024830152604480830185905283518084039091018152606490920183526020820180517bffffffffffffffffffffffffffffffffffffffffffffffffffffffff167fa9059cbb00000000000000000000000000000000000000000000000000000000178152925182516000946060949389169392918291908083835b602083106104875780518252601f199092019160209182019101610468565b6001836020036101000a0380198251168184511680821785525050505050509050019150506000604051808303816000865af19150503d80600081146104e9576040519150601f19603f3d011682016040523d82523d6000602084013e6104ee565b606091505b509150915081801561051c57508051158061051c575080806020019051602081101561051957600080fd5b50515b61056d576040805162461bcd60e51b815260206004820152601360248201527f4552525f5452414e534645525f4641494c454400000000000000000000000000604482015290519081900360640190fd5b505050505056fea2646970667358221220722315790c0c19e17e2adc9209b39dbf8ba54840154613137d94583b5b10783964736f6c634300060c0033",
  "linkReferences": {},
  "deployedLinkReferences": {}
}