{
  "_format": "hh-sol-artifact-1",
  "contractName": "ZNSRegistry",
  "sourceName": "contracts/ZNSRegistry.sol",
  "abi": [
    {
      "anonymous": false,
      "inputs": [
        {
          "indexed": true,
          "internalType": "address",
          "name": "owner",
          "type": "address"
        },
        {
          "indexed": true,
          "internalType": "address",
          "name": "approved",
          "type": "address"
        },
        {
          "indexed": true,
          "internalType": "uint256",
          "name": "tokenId",
          "type": "uint256"
        }
      ],
      "name": "Approval",
      "type": "event"
    },
    {
      "anonymous": false,
      "inputs": [
        {
          "indexed": true,
          "internalType": "address",
          "name": "owner",
          "type": "address"
        },
        {
          "indexed": true,
          "internalType": "address",
          "name": "operator",
          "type": "address"
        },
        {
          "indexed": false,
          "internalType": "bool",
          "name": "approved",
          "type": "bool"
        }
      ],
      "name": "ApprovalForAll",
      "type": "event"
    },
    {
      "anonymous": false,
      "inputs": [
        {
          "indexed": true,
          "internalType": "address",
          "name": "owner",
          "type": "address"
        },
        {
          "indexed": true,
          "internalType": "uint256",
          "name": "id",
          "type": "uint256"
        },
        {
          "indexed": false,
          "internalType": "uint256",
          "name": "childLimit",
          "type": "uint256"
        }
      ],
      "name": "ChildLimitSet",
      "type": "event"
    },
    {
      "anonymous": false,
      "inputs": [
        {
          "indexed": true,
          "internalType": "uint256",
          "name": "id",
          "type": "uint256"
        },
        {
          "indexed": true,
          "internalType": "address",
          "name": "oldController",
          "type": "address"
        },
        {
          "indexed": true,
          "internalType": "address",
          "name": "newController",
          "type": "address"
        },
        {
          "indexed": false,
          "internalType": "address",
          "name": "sender",
          "type": "address"
        }
      ],
      "name": "ControllerSet",
      "type": "event"
    },
    {
      "anonymous": false,
      "inputs": [
        {
          "indexed": true,
          "internalType": "uint256",
          "name": "parentId",
          "type": "uint256"
        },
        {
          "indexed": false,
          "internalType": "uint256",
          "name": "tokenId",
          "type": "uint256"
        },
        {
          "indexed": false,
          "internalType": "string",
          "name": "domain",
          "type": "string"
        },
        {
          "indexed": false,
          "internalType": "address",
          "name": "owner",
          "type": "address"
        }
      ],
      "name": "DomainCreated",
      "type": "event"
    },
    {
      "anonymous": false,
      "inputs": [
        {
          "indexed": true,
          "internalType": "address",
          "name": "owner",
          "type": "address"
        },
        {
          "indexed": true,
          "internalType": "uint256",
          "name": "id",
          "type": "uint256"
        },
        {
          "indexed": false,
          "internalType": "string",
          "name": "image",
          "type": "string"
        }
      ],
      "name": "ImageSet",
      "type": "event"
    },
    {
      "anonymous": false,
      "inputs": [
        {
          "indexed": true,
          "internalType": "address",
          "name": "owner",
          "type": "address"
        },
        {
          "indexed": true,
          "internalType": "uint256",
          "name": "id",
          "type": "uint256"
        },
        {
          "indexed": false,
          "internalType": "string",
          "name": "resolver",
          "type": "string"
        }
      ],
      "name": "ResolverSet",
      "type": "event"
    },
    {
      "anonymous": false,
      "inputs": [
        {
          "indexed": true,
          "internalType": "address",
          "name": "from",
          "type": "address"
        },
        {
          "indexed": true,
          "internalType": "address",
          "name": "to",
          "type": "address"
        },
        {
          "indexed": true,
          "internalType": "uint256",
          "name": "tokenId",
          "type": "uint256"
        }
      ],
      "name": "Transfer",
      "type": "event"
    },
    {
      "inputs": [],
      "name": "ROOT_ID",
      "outputs": [
        {
          "internalType": "uint256",
          "name": "",
          "type": "uint256"
        }
      ],
      "stateMutability": "view",
      "type": "function"
    },
    {
      "inputs": [
        {
          "internalType": "address",
          "name": "to",
          "type": "address"
        },
        {
          "internalType": "uint256",
          "name": "tokenId",
          "type": "uint256"
        }
      ],
      "name": "approve",
      "outputs": [],
      "stateMutability": "nonpayable",
      "type": "function"
    },
    {
      "inputs": [
        {
          "internalType": "address",
          "name": "owner",
          "type": "address"
        }
      ],
      "name": "balanceOf",
      "outputs": [
        {
          "internalType": "uint256",
          "name": "",
          "type": "uint256"
        }
      ],
      "stateMutability": "view",
      "type": "function"
    },
    {
      "inputs": [],
      "name": "baseURI",
      "outputs": [
        {
          "internalType": "string",
          "name": "",
          "type": "string"
        }
      ],
      "stateMutability": "view",
      "type": "function"
    },
    {
      "inputs": [
        {
          "internalType": "address",
          "name": "creator",
          "type": "address"
        },
        {
          "internalType": "uint256",
          "name": "id",
          "type": "uint256"
        }
      ],
      "name": "canCreate",
      "outputs": [
        {
          "internalType": "bool",
          "name": "",
          "type": "bool"
        }
      ],
      "stateMutability": "nonpayable",
      "type": "function"
    },
    {
      "inputs": [
        {
          "internalType": "uint256",
          "name": "id",
          "type": "uint256"
        }
      ],
      "name": "childCountOf",
      "outputs": [
        {
          "internalType": "uint256",
          "name": "",
          "type": "uint256"
        }
      ],
      "stateMutability": "view",
      "type": "function"
    },
    {
      "inputs": [
        {
          "internalType": "uint256",
          "name": "id",
          "type": "uint256"
        }
      ],
      "name": "controllerOf",
      "outputs": [
        {
          "internalType": "address",
          "name": "",
          "type": "address"
        }
      ],
      "stateMutability": "view",
      "type": "function"
    },
    {
      "inputs": [
        {
          "internalType": "string",
          "name": "domain",
          "type": "string"
        },
        {
          "internalType": "address",
          "name": "_owner",
          "type": "address"
        },
        {
          "internalType": "address",
          "name": "_controller",
          "type": "address"
        }
      ],
      "name": "createDomain",
      "outputs": [
        {
          "internalType": "uint256",
          "name": "id",
          "type": "uint256"
        },
        {
          "internalType": "uint256",
          "name": "parentId",
          "type": "uint256"
        }
      ],
      "stateMutability": "nonpayable",
      "type": "function"
    },
    {
      "inputs": [
        {
          "internalType": "string",
          "name": "domain",
          "type": "string"
        },
        {
          "internalType": "address",
          "name": "_owner",
          "type": "address"
        },
        {
          "internalType": "address",
          "name": "_controller",
          "type": "address"
        },
        {
          "internalType": "bytes",
          "name": "controllerData",
          "type": "bytes"
        }
      ],
      "name": "createDomainSafeController",
      "outputs": [
        {
          "internalType": "uint256",
          "name": "id",
          "type": "uint256"
        },
        {
          "internalType": "uint256",
          "name": "parentId",
          "type": "uint256"
        }
      ],
      "stateMutability": "nonpayable",
      "type": "function"
    },
    {
      "inputs": [
        {
          "internalType": "string",
          "name": "domain",
          "type": "string"
        },
        {
          "internalType": "address",
          "name": "_owner",
          "type": "address"
        },
        {
          "internalType": "address",
          "name": "_controller",
          "type": "address"
        },
        {
          "internalType": "bytes",
          "name": "mintData",
          "type": "bytes"
        }
      ],
      "name": "createDomainSafeMint",
      "outputs": [
        {
          "internalType": "uint256",
          "name": "id",
          "type": "uint256"
        },
        {
          "internalType": "uint256",
          "name": "parentId",
          "type": "uint256"
        }
      ],
      "stateMutability": "nonpayable",
      "type": "function"
    },
    {
      "inputs": [
        {
          "internalType": "uint256",
          "name": "id",
          "type": "uint256"
        }
      ],
      "name": "depthOf",
      "outputs": [
        {
          "internalType": "uint256",
          "name": "",
          "type": "uint256"
        }
      ],
      "stateMutability": "view",
      "type": "function"
    },
    {
      "inputs": [
        {
          "internalType": "uint256",
          "name": "id",
          "type": "uint256"
        }
      ],
      "name": "entryOf",
      "outputs": [
        {
          "components": [
            {
              "internalType": "address",
              "name": "owner",
              "type": "address"
            },
            {
              "internalType": "uint256",
              "name": "parent",
              "type": "uint256"
            },
            {
              "internalType": "uint256",
              "name": "depth",
              "type": "uint256"
            },
            {
              "internalType": "address",
              "name": "controller",
              "type": "address"
            },
            {
              "internalType": "string",
              "name": "resolver",
              "type": "string"
            },
            {
              "internalType": "string",
              "name": "image",
              "type": "string"
            },
            {
              "internalType": "string",
              "name": "domain",
              "type": "string"
            },
            {
              "internalType": "uint256",
              "name": "childLimit",
              "type": "uint256"
            },
            {
              "internalType": "uint256",
              "name": "childCount",
              "type": "uint256"
            }
          ],
          "internalType": "struct ZNSRegistry.EntryView",
          "name": "out",
          "type": "tuple"
        }
      ],
      "stateMutability": "view",
      "type": "function"
    },
    {
      "inputs": [
        {
          "internalType": "uint256",
          "name": "id",
          "type": "uint256"
        }
      ],
      "name": "exists",
      "outputs": [
        {
          "internalType": "bool",
          "name": "",
          "type": "bool"
        }
      ],
      "stateMutability": "view",
      "type": "function"
    },
    {
      "inputs": [
        {
          "internalType": "uint256",
          "name": "tokenId",
          "type": "uint256"
        }
      ],
      "name": "getApproved",
      "outputs": [
        {
          "internalType": "address",
          "name": "",
          "type": "address"
        }
      ],
      "stateMutability": "view",
      "type": "function"
    },
    {
      "inputs": [
        {
          "internalType": "string[]",
          "name": "path",
          "type": "string[]"
        }
      ],
      "name": "getId",
      "outputs": [
        {
          "internalType": "uint256",
          "name": "",
          "type": "uint256"
        }
      ],
      "stateMutability": "pure",
      "type": "function"
    },
    {
      "inputs": [
        {
          "internalType": "string",
          "name": "_s",
          "type": "string"
        }
      ],
      "name": "getIdAndParent",
      "outputs": [
        {
          "internalType": "uint256",
          "name": "",
          "type": "uint256"
        },
        {
          "internalType": "uint256",
          "name": "",
          "type": "uint256"
        }
      ],
      "stateMutability": "pure",
      "type": "function"
    },
    {
      "inputs": [
        {
          "internalType": "string[]",
          "name": "path",
          "type": "string[]"
        }
      ],
      "name": "getOwner",
      "outputs": [
        {
          "internalType": "address",
          "name": "",
          "type": "address"
        }
      ],
      "stateMutability": "view",
      "type": "function"
    },
    {
      "inputs": [
        {
          "internalType": "address",
          "name": "_owner",
          "type": "address"
        },
        {
          "internalType": "address",
          "name": "_controller",
          "type": "address"
        },
        {
          "internalType": "string",
          "name": "image",
          "type": "string"
        },
        {
          "internalType": "uint256",
          "name": "childLimit",
          "type": "uint256"
        }
      ],
      "name": "initialize",
      "outputs": [],
      "stateMutability": "nonpayable",
      "type": "function"
    },
    {
      "inputs": [
        {
          "internalType": "address",
          "name": "owner",
          "type": "address"
        },
        {
          "internalType": "address",
          "name": "operator",
          "type": "address"
        }
      ],
      "name": "isApprovedForAll",
      "outputs": [
        {
          "internalType": "bool",
          "name": "",
          "type": "bool"
        }
      ],
      "stateMutability": "view",
      "type": "function"
    },
    {
      "inputs": [],
      "name": "name",
      "outputs": [
        {
          "internalType": "string",
          "name": "",
          "type": "string"
        }
      ],
      "stateMutability": "view",
      "type": "function"
    },
    {
      "inputs": [
        {
          "internalType": "uint256",
          "name": "tokenId",
          "type": "uint256"
        }
      ],
      "name": "ownerOf",
      "outputs": [
        {
          "internalType": "address",
          "name": "",
          "type": "address"
        }
      ],
      "stateMutability": "view",
      "type": "function"
    },
    {
      "inputs": [
        {
          "internalType": "uint256",
          "name": "id",
          "type": "uint256"
        }
      ],
      "name": "parentOf",
      "outputs": [
        {
          "internalType": "uint256",
          "name": "",
          "type": "uint256"
        }
      ],
      "stateMutability": "view",
      "type": "function"
    },
    {
      "inputs": [
        {
          "internalType": "string",
          "name": "domain",
          "type": "string"
        },
        {
          "internalType": "address",
          "name": "_owner",
          "type": "address"
        },
        {
          "internalType": "address",
          "name": "_controller",
          "type": "address"
        },
        {
          "internalType": "bytes",
          "name": "mintData",
          "type": "bytes"
        },
        {
          "internalType": "bytes",
          "name": "controllerData",
          "type": "bytes"
        }
      ],
      "name": "safeCreateDomain",
      "outputs": [
        {
          "internalType": "uint256",
          "name": "id",
          "type": "uint256"
        },
        {
          "internalType": "uint256",
          "name": "parentId",
          "type": "uint256"
        }
      ],
      "stateMutability": "nonpayable",
      "type": "function"
    },
    {
      "inputs": [
        {
          "internalType": "uint256",
          "name": "id",
          "type": "uint256"
        },
        {
          "internalType": "address",
          "name": "controller",
          "type": "address"
        },
        {
          "internalType": "bytes",
          "name": "_data",
          "type": "bytes"
        }
      ],
      "name": "safeSetController",
      "outputs": [],
      "stateMutability": "nonpayable",
      "type": "function"
    },
    {
      "inputs": [
        {
          "internalType": "address",
          "name": "from",
          "type": "address"
        },
        {
          "internalType": "address",
          "name": "to",
          "type": "address"
        },
        {
          "internalType": "uint256",
          "name": "tokenId",
          "type": "uint256"
        }
      ],
      "name": "safeTransferFrom",
      "outputs": [],
      "stateMutability": "nonpayable",
      "type": "function"
    },
    {
      "inputs": [
        {
          "internalType": "address",
          "name": "from",
          "type": "address"
        },
        {
          "internalType": "address",
          "name": "to",
          "type": "address"
        },
        {
          "internalType": "uint256",
          "name": "tokenId",
          "type": "uint256"
        },
        {
          "internalType": "bytes",
          "name": "_data",
          "type": "bytes"
        }
      ],
      "name": "safeTransferFrom",
      "outputs": [],
      "stateMutability": "nonpayable",
      "type": "function"
    },
    {
      "inputs": [
        {
          "internalType": "address",
          "name": "operator",
          "type": "address"
        },
        {
          "internalType": "bool",
          "name": "approved",
          "type": "bool"
        }
      ],
      "name": "setApprovalForAll",
      "outputs": [],
      "stateMutability": "nonpayable",
      "type": "function"
    },
    {
      "inputs": [
        {
          "internalType": "uint256",
          "name": "id",
          "type": "uint256"
        },
        {
          "internalType": "uint256",
          "name": "childLimit",
          "type": "uint256"
        }
      ],
      "name": "setChildLimit",
      "outputs": [],
      "stateMutability": "nonpayable",
      "type": "function"
    },
    {
      "inputs": [
        {
          "internalType": "uint256",
          "name": "id",
          "type": "uint256"
        },
        {
          "internalType": "address",
          "name": "controller",
          "type": "address"
        }
      ],
      "name": "setController",
      "outputs": [],
      "stateMutability": "nonpayable",
      "type": "function"
    },
    {
      "inputs": [
        {
          "internalType": "uint256",
          "name": "id",
          "type": "uint256"
        },
        {
          "internalType": "string",
          "name": "image",
          "type": "string"
        }
      ],
      "name": "setImage",
      "outputs": [],
      "stateMutability": "nonpayable",
      "type": "function"
    },
    {
      "inputs": [
        {
          "internalType": "uint256",
          "name": "id",
          "type": "uint256"
        },
        {
          "internalType": "string",
          "name": "resolver",
          "type": "string"
        }
      ],
      "name": "setResolver",
      "outputs": [],
      "stateMutability": "nonpayable",
      "type": "function"
    },
    {
      "inputs": [
        {
          "internalType": "bytes4",
          "name": "interfaceId",
          "type": "bytes4"
        }
      ],
      "name": "supportsInterface",
      "outputs": [
        {
          "internalType": "bool",
          "name": "",
          "type": "bool"
        }
      ],
      "stateMutability": "view",
      "type": "function"
    },
    {
      "inputs": [],
      "name": "symbol",
      "outputs": [
        {
          "internalType": "string",
          "name": "",
          "type": "string"
        }
      ],
      "stateMutability": "view",
      "type": "function"
    },
    {
      "inputs": [
        {
          "internalType": "uint256",
          "name": "index",
          "type": "uint256"
        }
      ],
      "name": "tokenByIndex",
      "outputs": [
        {
          "internalType": "uint256",
          "name": "",
          "type": "uint256"
        }
      ],
      "stateMutability": "view",
      "type": "function"
    },
    {
      "inputs": [
        {
          "internalType": "address",
          "name": "owner",
          "type": "address"
        },
        {
          "internalType": "uint256",
          "name": "index",
          "type": "uint256"
        }
      ],
      "name": "tokenOfOwnerByIndex",
      "outputs": [
        {
          "internalType": "uint256",
          "name": "",
          "type": "uint256"
        }
      ],
      "stateMutability": "view",
      "type": "function"
    },
    {
      "inputs": [
        {
          "internalType": "uint256",
          "name": "token",
          "type": "uint256"
        }
      ],
      "name": "tokenURI",
      "outputs": [
        {
          "internalType": "string",
          "name": "out",
          "type": "string"
        }
      ],
      "stateMutability": "view",
      "type": "function"
    },
    {
      "inputs": [],
      "name": "totalSupply",
      "outputs": [
        {
          "internalType": "uint256",
          "name": "",
          "type": "uint256"
        }
      ],
      "stateMutability": "view",
      "type": "function"
    },
    {
      "inputs": [
        {
          "internalType": "address",
          "name": "from",
          "type": "address"
        },
        {
          "internalType": "address",
          "name": "to",
          "type": "address"
        },
        {
          "internalType": "uint256",
          "name": "tokenId",
          "type": "uint256"
        }
      ],
      "name": "transferFrom",
      "outputs": [],
      "stateMutability": "nonpayable",
      "type": "function"
    },
    {
      "inputs": [
        {
          "internalType": "string",
          "name": "_s",
          "type": "string"
        }
      ],
      "name": "validateDomain",
      "outputs": [
        {
          "internalType": "bool",
          "name": "valid",
          "type": "bool"
        },
        {
          "internalType": "uint256",
          "name": "parent",
          "type": "uint256"
        },
        {
          "internalType": "uint256",
          "name": "id",
          "type": "uint256"
        },
        {
          "internalType": "string",
          "name": "domain",
          "type": "string"
        }
      ],
      "stateMutability": "pure",
      "type": "function"
    }
  ],
  "bytecode": "0x608060405234801561001057600080fd5b50613fc8806100206000396000f3fe608060405234801561001057600080fd5b50600436106102ad5760003560e01c806370a082311161017b578063c87b56dd116100d8578063e985e9c51161008c578063eedf792811610071578063eedf79281461058c578063fa23b5b014610594578063fb78fef1146105a7576102ad565b8063e985e9c514610566578063eb69761114610579576102ad565b8063cfa3c132116100bd578063cfa3c1321461052d578063d2a200ee14610540578063d4f5913414610553576102ad565b8063c87b56dd14610507578063c980c6261461051a576102ad565b8063963d1dad1161012f578063a4a183b011610114578063a4a183b0146104ce578063b1b3c83a146104e1578063b88d4fde146104f4576102ad565b8063963d1dad146104a8578063a22cb465146104bb576102ad565b80638cfbe3bb116101605780638cfbe3bb1461047a5780638faa8d091461048d57806395d89b41146104a0576102ad565b806370a08231146104545780637b4f022e14610467576102ad565b80632bb4350c116102295780634f558e79116101dd5780635dd8f6aa116101c25780635dd8f6aa146104265780636352211e146104395780636c0360eb1461044c576102ad565b80634f558e79146104005780634f6ccce714610413576102ad565b80633e4538361161020e5780633e453836146103c75780633e5779ee146103da57806342842e0e146103ed576102ad565b80632bb4350c146103945780632f745c59146103b4576102ad565b8063095ea7b3116102805780631ffb525f116102655780631ffb525f1461034d57806323b872dd1461036e5780632729af4314610381576102ad565b8063095ea7b31461032557806318160ddd14610338576102ad565b806301ffc9a7146102b257806306fdde03146102db57806307c6b841146102f0578063081812fc14610305575b600080fd5b6102c56102c036600461343b565b6105ca565b6040516102d29190613981565b60405180910390f35b6102e36105ed565b6040516102d291906139c7565b6103036102fe3660046136e6565b610683565b005b610318610313366004613654565b61070e565b6040516102d29190613931565b610303610333366004613379565b610770565b610340610846565b6040516102d29190613c34565b61036061035b3660046134d6565b610857565b6040516102d2929190613cd2565b61030361037c36600461328b565b6108c3565b61034061038f366004613654565b61091a565b6103a76103a2366004613654565b61092f565b6040516102d29190613b81565b6103406103c2366004613379565b610ab4565b6103606103d53660046134d6565b610adf565b6103036103e836600461366c565b610b3d565b6103036103fb36600461328b565b610b5e565b6102c561040e366004613654565b610b79565b610340610421366004613654565b610b84565b610318610434366004613654565b610b9a565b610318610447366004613654565b610bb8565b6102e3610be0565b6103406104623660046131db565b610c41565b610360610475366004613621565b610ca9565b610360610488366004613567565b610d2f565b61034061049b366004613654565b610dd4565b6102e3610de9565b6103036104b6366004613775565b610e4a565b6103036104c936600461333f565b610ee7565b6103186104dc3660046133a2565b610fec565b6103606104ef366004613473565b610ffa565b6103036105023660046132c6565b61102a565b6102e3610515366004613654565b611088565b610303610528366004613730565b6110ed565b61034061053b366004613654565b611172565b61030361054e366004613227565b611184565b6103406105613660046133a2565b611410565b6102c56105743660046131f5565b61149b565b6102c5610587366004613379565b6114c9565b61034061152a565b6103036105a236600461368e565b611558565b6105ba6105b5366004613621565b6115ac565b6040516102d2949392919061398c565b6001600160e01b0319811660009081526033602052604090205460ff165b919050565b606a8054604080516020601f60026000196101006001881615020190951694909404938401819004810282018101909252828152606093909290918301828280156106795780601f1061064e57610100808354040283529160200191610679565b820191906000526020600020905b81548152906001019060200180831161065c57829003601f168201915b5050505050905090565b3361068d84610bb8565b6001600160a01b0316146106a057600080fd5b60008381526097602052604090206106bc906003018383612f98565b50826106c784610bb8565b6001600160a01b03167f446f502bb4d7664110df81da26583f4c2a757d1890d992c2df364826e4f4046784846040516107019291906139b3565b60405180910390a3505050565b600061071982611624565b6107545760405162461bcd60e51b815260040180806020018281038252602c815260200180613eec602c913960400191505060405180910390fd5b506000908152606860205260409020546001600160a01b031690565b600061077b82610bb8565b9050806001600160a01b0316836001600160a01b031614156107ce5760405162461bcd60e51b8152600401808060200182810382526021815260200180613f416021913960400191505060405180910390fd5b806001600160a01b03166107e0611631565b6001600160a01b031614806107fc57506107fc81610574611631565b6108375760405162461bcd60e51b8152600401808060200182810382526038815260200180613e116038913960400191505060405180910390fd5b6108418383611635565b505050565b600061085260666116b0565b905090565b6000806108658888886116bb565b80925081935050506108ae868386868080601f0160208091040260200160405190810160405280939291908181526020018383808284376000920191909152506118bf92505050565b6108b88286611911565b965096945050505050565b6108d46108ce611631565b82611999565b61090f5760405162461bcd60e51b8152600401808060200182810382526031815260200180613f626031913960400191505060405180910390fd5b610841838383611a35565b60009081526097602052604090206007015490565b610937613024565b600082815260976020526040902061094e83610bb8565b6001600160a01b0390811683528154602080850191909152600280840154909216606085015260048301805460408051601f6000196001851615610100020190931695909504918201849004840285018401905280845290918301828280156109f85780601f106109cd576101008083540402835291602001916109f8565b820191906000526020600020905b8154815290600101906020018083116109db57829003601f168201915b505050505060c0830152600681015460e0830152600781015461010080840191909152600582018054604080516020600260018516159096026000190190931694909404601f810183900483028501830190915280845290830182828015610aa15780601f10610a7657610100808354040283529160200191610aa1565b820191906000526020600020905b815481529060010190602001808311610a8457829003601f168201915b50505050508260a0018190525050919050565b6001600160a01b0382166000908152606560205260408120610ad69083611a40565b90505b92915050565b600080610aed8888886116bb565b9092509050610afc8683611a4c565b6108b8828686868080601f016020809104026020016040519081016040528093929190818152602001838380828437600092019190915250611b7a92505050565b610b4733836114c9565b610b5057600080fd5b610b5a8282611911565b5050565b6108418383836040518060200160405280600081525061102a565b6000610ad982611624565b600080610b92606684611c2c565b509392505050565b6000908152609760205260409020600201546001600160a01b031690565b6000610ad982604051806060016040528060298152602001613e736029913960669190611c4a565b606d8054604080516020601f60026000196101006001881615020190951694909404938401819004810282018101909252828152606093909290918301828280156106795780601f1061064e57610100808354040283529160200191610679565b60006001600160a01b038216610c885760405162461bcd60e51b815260040180806020018281038252602a815260200180613e49602a913960400191505060405180910390fd5b6001600160a01b0382166000908152606560205260409020610ad9906116b0565b6000806000806000610ce56000604051602001610cc69190613c8a565b6040516020818303038152906040528051906020012060001c87611c61565b92509250925082610cf557600080fd5b60008282604051602001610d0a929190613c71565b60408051601f1981840301815291905280516020909101209550919350505050915091565b600080610d3d8a8a8a6116bb565b8092508193505050610d86888388888080601f0160208091040260200160405190810160405280939291908181526020018383808284376000920191909152506118bf92505050565b610dc7828886868080601f016020809104026020016040519081016040528093929190818152602001838380828437600092019190915250611b7a92505050565b9850989650505050505050565b60009081526097602052604090206001015490565b606b8054604080516020601f60026000196101006001881615020190951694909404938401819004810282018101909252828152606093909290918301828280156106795780601f1061064e57610100808354040283529160200191610679565b33610e5483610bb8565b6001600160a01b031614610e6757600080fd5b600082815260976020526040902060060154811015610e8557600080fd5b600082815260976020526040902060060181905581610ea381610bb8565b6001600160a01b03167f4b347ca8c0c51791079de452638b82fce403ab3f12319ae12e4659e17e2a4a7683604051610edb9190613c34565b60405180910390a35050565b610eef611631565b6001600160a01b0316826001600160a01b03161415610f55576040805162461bcd60e51b815260206004820152601960248201527f4552433732313a20617070726f766520746f2063616c6c657200000000000000604482015290519081900360640190fd5b8060696000610f62611631565b6001600160a01b03908116825260208083019390935260409182016000908120918716808252919093529120805460ff191692151592909217909155610fa6611631565b6001600160a01b03167f17307eab39ab6107e8899845ad3d59bd9653f200f220920489ca2b5937696c318360405180821515815260200191505060405180910390a35050565b6000610ad961044783611410565b6000806110088686866116bb565b90925090506110178483611a4c565b6110218284611911565b94509492505050565b61103b611035611631565b83611999565b6110765760405162461bcd60e51b8152600401808060200182810382526031815260200180613f626031913960400191505060405180910390fd5b61108284848484611e8e565b50505050565b60606110c7609760008481526020019081526020016000206004016040516020016110b39190613829565b604051602081830303815290604052611ee0565b6040516020016110d791906138ec565b6040516020818303038152906040529050919050565b336110f783610bb8565b6001600160a01b03161461110a57600080fd5b6000828152609760209081526040909120825161112f92600590920191840190613082565b508161113a83610bb8565b6001600160a01b03167f7228383a10f0dfa73f0129ad947aa4f6689f533279ea1fa0e9fa10fbdb52120e83604051610edb91906139c7565b60009081526097602052604090205490565b600054610100900460ff168061119d575061119d612065565b806111ab575060005460ff16155b6111e65760405162461bcd60e51b815260040180806020018281038252602e815260200180613e9c602e913960400191505060405180910390fd5b600054610100900460ff16158015611211576000805460ff1961ff0019909116610100171660011790555b6112856040518060400160405280601181526020017f5a657230204e616d6520536572766963650000000000000000000000000000008152506040518060400160405280600381526020017f5a4e53000000000000000000000000000000000000000000000000000000000081525061206b565b6112b985600060405160200161129b9190613c8a565b6040516020818303038152906040528051906020012060001c611a4c565b600060976000806040516020016112d09190613c8a565b6040516020818303038152906040528051906020012060001c8152602001908152602001600020905060007f2c1a95cbf8200eb60430d91027ae7f1207996d544a887575b13bdfd1a958a667600060405160200161132e9190613c8a565b60408051601f19818403018152908290528051602090910120611352918a90613ca2565b60405180910390a261138e600060405160200161136f9190613c8a565b6040516020818303038152906040528051906020012060001c86611911565b6113c260006040516020016113a39190613c8a565b6040516020818303038152906040528051906020012060001c856110ed565b6113f660006040516020016113d79190613c8a565b6040516020818303038152906040528051906020012060001c84610e4a565b508015611409576000805461ff00191690555b5050505050565b60008060006040516020016114259190613c8a565b6040516020818303038152906040528051906020012060001c905060005b8351811015611494578184828151811061145957fe5b6020026020010151604051602001611472929190613c71565b60408051601f1981840301815291905280516020909101209150600101611443565b5092915050565b6001600160a01b03918216600090815260696020908152604080832093909416825291909152205460ff1690565b6000806114d583610b9a565b9050806001600160a01b0316846001600160a01b0316148061152257506001600160a01b0381161580156115225750836001600160a01b031661151784610bb8565b6001600160a01b0316145b949350505050565b600060405160200161153c9190613c8a565b6040516020818303038152906040528051906020012060001c81565b61156233856114c9565b61156b57600080fd5b611082848484848080601f016020809104026020016040519081016040528093929190818152602001838380828437600092019190915250611b7a92505050565b600080600060606115e760006040516020016115c89190613c8a565b6040516020818303038152906040528051906020012060001c86611c61565b60405192965090945091506116029084908390602001613c71565b6040516020818303038152906040528051906020012060001c91509193509193565b6000610ad9606683612128565b3390565b6000818152606860205260409020805473ffffffffffffffffffffffffffffffffffffffff19166001600160a01b038416908117909155819061167782610bb8565b6001600160a01b03167f8c5be1e5ebec7d5bd14f71427d1e84f3dd0314c0f7b2291e5b200ac8c7c3b92560405160405180910390a45050565b6000610ad982612134565b600080836116c857600080fd5b600080600061173060006040516020016116e29190613c8a565b60408051601f198184030181528282528051602091820120601f8c018290048202840182019092528a83529091908b908b9081908401838280828437600092019190915250611c6192505050565b9250925092506000828260405160200161174b929190613c71565b6040516020818303038152906040528051906020012060001c90508361178c5760405162461bcd60e51b815260040161178390613a48565b60405180910390fd5b61179633846114c9565b6117b25760405162461bcd60e51b8152600401611783906139da565b6117bb83611624565b6117d75760405162461bcd60e51b815260040161178390613a7f565b6117e081611624565b156117fd5760405162461bcd60e51b815260040161178390613aed565b600083815260976020526040902060068101546007820154600101106118355760405162461bcd60e51b815260040161178390613a11565b600781018054600190810190915560008381526097602052604090208183015482019181019190915584815561186f600482018c8c612f98565b50847f2c1a95cbf8200eb60430d91027ae7f1207996d544a887575b13bdfd1a958a667848d8d8d6040516118a69493929190613c3d565b60405180910390a2509099929850919650505050505050565b6118c98383611a4c565b6118d66000848484612138565b6108415760405162461bcd60e51b8152600401808060200182810382526032815260200180613d696032913960400191505060405180910390fd5b6000828152609760205260409020600201805473ffffffffffffffffffffffffffffffffffffffff19166001600160a01b03831690811790915561195483610b9a565b6001600160a01b0316837f0af36ec64da94c558c48ce7fb33930392a9a27325b8cb0584000835ffff08cdd3360405161198d9190613931565b60405180910390a45050565b60006119a482611624565b6119df5760405162461bcd60e51b815260040180806020018281038252602c815260200180613de5602c913960400191505060405180910390fd5b60006119ea83610bb8565b9050806001600160a01b0316846001600160a01b03161480611a255750836001600160a01b0316611a1a8461070e565b6001600160a01b0316145b806115225750611522818561149b565b6108418383836122ca565b6000610ad68383612416565b6001600160a01b038216611aa7576040805162461bcd60e51b815260206004820181905260248201527f4552433732313a206d696e7420746f20746865207a65726f2061646472657373604482015290519081900360640190fd5b611ab081611624565b15611b02576040805162461bcd60e51b815260206004820152601c60248201527f4552433732313a20746f6b656e20616c7265616479206d696e74656400000000604482015290519081900360640190fd5b611b0e60008383610841565b6001600160a01b0382166000908152606560205260409020611b30908261247a565b50611b3d60668284612486565b5060405181906001600160a01b038416906000907fddf252ad1be2c89b69c2b068fc378daa952ba7f163c4a11628f55a4df523b3ef908290a45050565b6000611b8584610b9a565b60008581526097602052604090819020600201805473ffffffffffffffffffffffffffffffffffffffff19166001600160a01b03878116918217909255915192935090919083169086907f0af36ec64da94c558c48ce7fb33930392a9a27325b8cb0584000835ffff08cdd90611bfc903390613931565b60405180910390a4611c108184868561249c565b6110825760405162461bcd60e51b815260040161178390613ab6565b6000808080611c3b86866125cd565b909450925050505b9250929050565b6000611c57848484612648565b90505b9392505050565b805160208281018051600093849360609385938993919283929187918791848d0190910190825b828711611e165760f882901c602e811415611d965760018989030391508167ffffffffffffffff81118015611cbc57600080fd5b506040519080825280601f01601f191660200182016040528015611ce7576020820181803683370190505b509550602086019450611cfb858a84612712565b89866040516020018083815260200180602001828103825283818151815260200191508051906020019080838360005b83811015611d43578181015183820152602001611d2b565b50505050905090810190601f168015611d705780820380516001836020036101000a031916815260200191505b509350505050604051602081830303815290604052805190602001209950879850611e06565b60618160ff161080611dab5750607a8160ff16115b8015611dc8575060308160ff16108015611dc8575060398160ff16115b8015611dd857508060ff16602d14155b15611e0657600080604051806020016040528060008152509d509d509d505050505050505050505050611e87565b5086516001909701969150611c88565b50600019878703018067ffffffffffffffff81118015611e3557600080fd5b506040519080825280601f01601f191660200182016040528015611e60576020820181803683370190505b509450602085019350611e74848983612712565b5060019b50969950919750505050505050505b9250925092565b611e99848484611a35565b611ea584848484612138565b6110825760405162461bcd60e51b8152600401808060200182810382526032815260200180613d696032913960400191505060405180910390fd5b60606000829050611c5a6040518060400160405280600481526020017f01551220000000000000000000000000000000000000000000000000000000008152506002836040518082805190602001908083835b60208310611f525780518252601f199092019160209182019101611f33565b51815160209384036101000a60001901801990921691161790526040519190930194509192505080830381855afa158015611f91573d6000803e3d6000fd5b5050506040513d6020811015611fa657600080fd5b505160405182516020918201918291908501908083835b60208310611fdc5780518252601f199092019160209182019101611fbd565b51815160209384036101000a60001901801990921691161790529201938452506040805180850381526060850182528483019283527f6162636465666768696a6b6c6d6e6f707172737475767778797a323334353637919094015291925060059190507f6200000000000000000000000000000000000000000000000000000000000000612750565b303b1590565b600054610100900460ff16806120845750612084612065565b80612092575060005460ff16155b6120cd5760405162461bcd60e51b815260040180806020018281038252602e815260200180613e9c602e913960400191505060405180910390fd5b600054610100900460ff161580156120f8576000805460ff1961ff0019909116610100171660011790555b6121006128eb565b61210861298d565b6121128383612a43565b8015610841576000805461ff0019169055505050565b6000610ad68383612b73565b5490565b600061214c846001600160a01b0316612b8b565b61215857506001611522565b6000612290630a85bd0160e11b61216d611631565b88878760405160240180856001600160a01b03168152602001846001600160a01b0316815260200183815260200180602001828103825283818151815260200191508051906020019080838360005b838110156121d45781810151838201526020016121bc565b50505050905090810190601f1680156122015780820380516001836020036101000a031916815260200191505b5095505050505050604051602081830303815290604052907bffffffffffffffffffffffffffffffffffffffffffffffffffffffff19166020820180517bffffffffffffffffffffffffffffffffffffffffffffffffffffffff8381831617835250505050604051806060016040528060328152602001613d69603291396001600160a01b0388169190612b91565b905060008180602001905160208110156122a957600080fd5b50516001600160e01b031916630a85bd0160e11b1492505050949350505050565b826001600160a01b03166122dd82610bb8565b6001600160a01b0316146123225760405162461bcd60e51b8152600401808060200182810382526029815260200180613f186029913960400191505060405180910390fd5b6001600160a01b0382166123675760405162461bcd60e51b8152600401808060200182810382526024815260200180613d9b6024913960400191505060405180910390fd5b612372838383610841565b61237d600082611635565b6001600160a01b038316600090815260656020526040902061239f9082612ba0565b506001600160a01b03821660009081526065602052604090206123c2908261247a565b506123cf60668284612486565b5080826001600160a01b0316846001600160a01b03167fddf252ad1be2c89b69c2b068fc378daa952ba7f163c4a11628f55a4df523b3ef60405160405180910390a4505050565b815460009082106124585760405162461bcd60e51b8152600401808060200182810382526022815260200180613d476022913960400191505060405180910390fd5b82600001828154811061246757fe5b9060005260206000200154905092915050565b6000610ad68383612bac565b6000611c5784846001600160a01b038516612bf6565b60006124b0846001600160a01b0316612b8b565b156125c557836001600160a01b031663b27633176124cc611631565b8786866040518563ffffffff1660e01b81526004016124ee9493929190613945565b602060405180830381600087803b15801561250857600080fd5b505af1925050508015612538575060408051601f3d908101601f1916820190925261253591810190613457565b60015b612592573d808015612566576040519150601f19603f3d011682016040523d82523d6000602084013e61256b565b606091505b50805161258a5760405162461bcd60e51b815260040161178390613b24565b805181602001fd5b6001600160e01b0319167fb276331700000000000000000000000000000000000000000000000000000000149050611522565b506001611522565b8154600090819083106126115760405162461bcd60e51b8152600401808060200182810382526022815260200180613eca6022913960400191505060405180910390fd5b600084600001848154811061262257fe5b906000526020600020906002020190508060000154816001015492509250509250929050565b600082815260018401602052604081205482816126e35760405162461bcd60e51b81526004018080602001828103825283818151815260200191508051906020019080838360005b838110156126a8578181015183820152602001612690565b50505050905090810190601f1680156126d55780820380516001836020036101000a031916815260200191505b509250505060405180910390fd5b508460000160018203815481106126f657fe5b9060005260206000209060020201600101549150509392505050565b5b60208110612732578151835260209283019290910190601f1901612713565b905182516020929092036101000a6000190180199091169116179052565b8351606090600802600085828161276357fe5b0615612770576002612773565b60015b60ff1686838161277f57fe5b0401905060008167ffffffffffffffff8111801561279c57600080fd5b506040519080825280601f01601f1916602001820160405280156127c7576020820181803683370190505b50905060006001886001901b03905060008087846000815181106127e757fe5b60200101906001600160f81b031916908160001a905350600160005b8c51811015612892578c818151811061281857fe5b01602001516008948501949390931b60f89390931c92909217915b8b84111561288a578b840393508a8484901c86168151811061285157fe5b602001015160f81c60f81b86838151811061286857fe5b60200101906001600160f81b031916908160001a905350600190910190612833565b600101612803565b5082156128db5789838c0383901b8516815181106128ac57fe5b602001015160f81c60f81b8582815181106128c357fe5b60200101906001600160f81b031916908160001a9053505b50929a9950505050505050505050565b600054610100900460ff16806129045750612904612065565b80612912575060005460ff16155b61294d5760405162461bcd60e51b815260040180806020018281038252602e815260200180613e9c602e913960400191505060405180910390fd5b600054610100900460ff16158015612978576000805460ff1961ff0019909116610100171660011790555b801561298a576000805461ff00191690555b50565b600054610100900460ff16806129a657506129a6612065565b806129b4575060005460ff16155b6129ef5760405162461bcd60e51b815260040180806020018281038252602e815260200180613e9c602e913960400191505060405180910390fd5b600054610100900460ff16158015612a1a576000805460ff1961ff0019909116610100171660011790555b6129787f01ffc9a700000000000000000000000000000000000000000000000000000000612c8d565b600054610100900460ff1680612a5c5750612a5c612065565b80612a6a575060005460ff16155b612aa55760405162461bcd60e51b815260040180806020018281038252602e815260200180613e9c602e913960400191505060405180910390fd5b600054610100900460ff16158015612ad0576000805460ff1961ff0019909116610100171660011790555b8251612ae390606a906020860190613082565b508151612af790606b906020850190613082565b50612b217f80ac58cd00000000000000000000000000000000000000000000000000000000612c8d565b612b4a7f5b5e139f00000000000000000000000000000000000000000000000000000000612c8d565b6121127f780e9d6300000000000000000000000000000000000000000000000000000000612c8d565b60009081526001919091016020526040902054151590565b3b151590565b6060611c578484600085612d11565b6000610ad68383612e6c565b6000612bb88383612b73565b612bee57508154600181810184556000848152602080822090930184905584548482528286019093526040902091909155610ad9565b506000610ad9565b600082815260018401602052604081205480612c5b575050604080518082018252838152602080820184815286546001818101895560008981528481209551600290930290950191825591519082015586548684528188019092529290912055611c5a565b82856000016001830381548110612c6e57fe5b9060005260206000209060020201600101819055506000915050611c5a565b6001600160e01b03198082161415612cec576040805162461bcd60e51b815260206004820152601c60248201527f4552433136353a20696e76616c696420696e7465726661636520696400000000604482015290519081900360640190fd5b6001600160e01b0319166000908152603360205260409020805460ff19166001179055565b606082471015612d525760405162461bcd60e51b8152600401808060200182810382526026815260200180613dbf6026913960400191505060405180910390fd5b612d5b85612b8b565b612dac576040805162461bcd60e51b815260206004820152601d60248201527f416464726573733a2063616c6c20746f206e6f6e2d636f6e7472616374000000604482015290519081900360640190fd5b600080866001600160a01b031685876040518082805190602001908083835b60208310612dea5780518252601f199092019160209182019101612dcb565b6001836020036101000a03801982511681845116808217855250505050505090500191505060006040518083038185875af1925050503d8060008114612e4c576040519150601f19603f3d011682016040523d82523d6000602084013e612e51565b606091505b5091509150612e61828286612f32565b979650505050505050565b60008181526001830160205260408120548015612f285783546000198083019190810190600090879083908110612e9f57fe5b9060005260206000200154905080876000018481548110612ebc57fe5b600091825260208083209091019290925582815260018981019092526040902090840190558654879080612eec57fe5b60019003818190600052602060002001600090559055866001016000878152602001908152602001600020600090556001945050505050610ad9565b6000915050610ad9565b60608315612f41575081611c5a565b825115612f515782518084602001fd5b60405162461bcd60e51b81526020600482018181528451602484015284518593919283926044019190850190808383600083156126a8578181015183820152602001612690565b828054600181600116156101000203166002900490600052602060002090601f016020900481019282612fce5760008555613014565b82601f10612fe75782800160ff19823516178555613014565b82800160010185558215613014579182015b82811115613014578235825591602001919060010190612ff9565b506130209291506130fe565b5090565b60405180610120016040528060006001600160a01b03168152602001600081526020016000815260200160006001600160a01b0316815260200160608152602001606081526020016060815260200160008152602001600081525090565b828054600181600116156101000203166002900490600052602060002090601f0160209004810192826130b85760008555613014565b82601f106130d157805160ff1916838001178555613014565b82800160010185558215613014579182015b828111156130145782518255916020019190600101906130e3565b5b8082111561302057600081556001016130ff565b600067ffffffffffffffff83111561312757fe5b61313a601f8401601f1916602001613ce0565b905082815283838301111561314e57600080fd5b828260208301376000602084830101529392505050565b80356001600160a01b03811681146105e857600080fd5b60008083601f84011261318d578182fd5b50813567ffffffffffffffff8111156131a4578182fd5b602083019150836020828501011115611c4357600080fd5b600082601f8301126131cc578081fd5b610ad683833560208501613113565b6000602082840312156131ec578081fd5b610ad682613165565b60008060408385031215613207578081fd5b61321083613165565b915061321e60208401613165565b90509250929050565b6000806000806080858703121561323c578182fd5b61324585613165565b935061325360208601613165565b9250604085013567ffffffffffffffff81111561326e578283fd5b61327a878288016131bc565b949793965093946060013593505050565b60008060006060848603121561329f578283fd5b6132a884613165565b92506132b660208501613165565b9150604084013590509250925092565b600080600080608085870312156132db578384fd5b6132e485613165565b93506132f260208601613165565b925060408501359150606085013567ffffffffffffffff811115613314578182fd5b8501601f81018713613324578182fd5b61333387823560208401613113565b91505092959194509250565b60008060408385031215613351578182fd5b61335a83613165565b91506020830135801515811461336e578182fd5b809150509250929050565b6000806040838503121561338b578182fd5b61339483613165565b946020939093013593505050565b600060208083850312156133b4578182fd5b823567ffffffffffffffff808211156133cb578384fd5b818501915085601f8301126133de578384fd5b8135818111156133ea57fe5b6133f78485830201613ce0565b8181528481019250838501865b8381101561342d5761341b8a8884358901016131bc565b85529386019390860190600101613404565b509098975050505050505050565b60006020828403121561344c578081fd5b8135611c5a81613d30565b600060208284031215613468578081fd5b8151611c5a81613d30565b60008060008060608587031215613488578182fd5b843567ffffffffffffffff81111561349e578283fd5b6134aa8782880161317c565b90955093506134bd905060208601613165565b91506134cb60408601613165565b905092959194509250565b600080600080600080608087890312156134ee578384fd5b863567ffffffffffffffff80821115613505578586fd5b6135118a838b0161317c565b909850965086915061352560208a01613165565b955061353360408a01613165565b94506060890135915080821115613548578384fd5b5061355589828a0161317c565b979a9699509497509295939492505050565b60008060008060008060008060a0898b031215613582578586fd5b883567ffffffffffffffff80821115613599578788fd5b6135a58c838d0161317c565b909a5098508891506135b960208c01613165565b97506135c760408c01613165565b965060608b01359150808211156135dc578384fd5b6135e88c838d0161317c565b909650945060808b0135915080821115613600578384fd5b5061360d8b828c0161317c565b999c989b5096995094979396929594505050565b600060208284031215613632578081fd5b813567ffffffffffffffff811115613648578182fd5b611522848285016131bc565b600060208284031215613665578081fd5b5035919050565b6000806040838503121561367e578182fd5b8235915061321e60208401613165565b600080600080606085870312156136a3578182fd5b843593506136b360208601613165565b9250604085013567ffffffffffffffff8111156136ce578283fd5b6136da8782880161317c565b95989497509550505050565b6000806000604084860312156136fa578081fd5b83359250602084013567ffffffffffffffff811115613717578182fd5b6137238682870161317c565b9497909650939450505050565b60008060408385031215613742578182fd5b82359150602083013567ffffffffffffffff81111561375f578182fd5b61376b858286016131bc565b9150509250929050565b60008060408385031215613787578182fd5b50508035926020909101359150565b6001600160a01b03169052565b600081518084526137bb816020860160208601613d04565b601f01601f19169290920160200192915050565b60008284528282602086013780602084860101526020601f19601f85011685010190509392505050565b600481527f524f4f5400000000000000000000000000000000000000000000000000000000602082015260400190565b60007f7b226e616d65223a2200000000000000000000000000000000000000000000008252600981845460018082166000811461386d5760018114613888576138bb565b60ff1983168786015260028304607f168701850193506138bb565b600283048887526020808820885b838110156138b15781548b82018a0152908501908201613896565b5050508701850193505b50507f227d000000000000000000000000000000000000000000000000000000000000825250600201949350505050565b60007f697066733a2f2f0000000000000000000000000000000000000000000000000082528251613924816007850160208701613d04565b9190910160070192915050565b6001600160a01b0391909116815260200190565b60006001600160a01b0380871683528086166020840152508360408301526080606083015261397760808301846137a3565b9695505050505050565b901515815260200190565b600085151582528460208301528360408301526080606083015261397760808301846137a3565b600060208252611c576020830184866137cf565b600060208252610ad660208301846137a3565b60208082526012908201527f73656e6465722063616e74206372656174650000000000000000000000000000604082015260600190565b60208082526013908201527f4368696c64206c696d6974207265616368656400000000000000000000000000604082015260600190565b60208082526019908201527f646f6d61696e206661696c656420746f2076616c696461746500000000000000604082015260600190565b60208082526014908201527f706172656e7420646f65736e2774206578697374000000000000000000000000604082015260600190565b60208082526016908201527f6e6f7420612076616c696420636f6e74726f6c6c657200000000000000000000604082015260600190565b60208082526016908201527f646f6d61696e20616c7265616479206372656174656400000000000000000000604082015260600190565b6020808252603c908201527f5a4e5352656769737472793a20636f6e74726f6c6c65722073657420746f206e60408201527f6f6e205a4e53436f6e74726f6c6c657220696d706c656d656e74657200000000606082015260800190565b600060208252613b95602083018451613796565b60208301516040830152604083015160608301526060830151613bbb6080840182613796565b5060808301516101208060a0850152613bd86101408501836137a3565b915060a0850151601f19808685030160c0870152613bf684836137a3565b935060c08701519150808685030160e087015250613c1483826137a3565b60e087015161010087810191909152909601519190940152509192915050565b90815260200190565b600085825260606020830152613c576060830185876137cf565b90506001600160a01b038316604083015295945050505050565b600083825260406020830152611c5760408301846137a3565b600082825260406020830152610ad6604083016137f9565b600083825260606020830152613cba606083016137f9565b90506001600160a01b03831660408301529392505050565b918252602082015260400190565b60405181810167ffffffffffffffff81118282101715613cfc57fe5b604052919050565b60005b83811015613d1f578181015183820152602001613d07565b838111156110825750506000910152565b6001600160e01b03198116811461298a57600080fdfe456e756d657261626c655365743a20696e646578206f7574206f6620626f756e64734552433732313a207472616e7366657220746f206e6f6e20455243373231526563656976657220696d706c656d656e7465724552433732313a207472616e7366657220746f20746865207a65726f2061646472657373416464726573733a20696e73756666696369656e742062616c616e636520666f722063616c6c4552433732313a206f70657261746f7220717565727920666f72206e6f6e6578697374656e7420746f6b656e4552433732313a20617070726f76652063616c6c6572206973206e6f74206f776e6572206e6f7220617070726f76656420666f7220616c6c4552433732313a2062616c616e636520717565727920666f7220746865207a65726f20616464726573734552433732313a206f776e657220717565727920666f72206e6f6e6578697374656e7420746f6b656e496e697469616c697a61626c653a20636f6e747261637420697320616c726561647920696e697469616c697a6564456e756d657261626c654d61703a20696e646578206f7574206f6620626f756e64734552433732313a20617070726f76656420717565727920666f72206e6f6e6578697374656e7420746f6b656e4552433732313a207472616e73666572206f6620746f6b656e2074686174206973206e6f74206f776e4552433732313a20617070726f76616c20746f2063757272656e74206f776e65724552433732313a207472616e736665722063616c6c6572206973206e6f74206f776e6572206e6f7220617070726f766564a2646970667358221220aafe3320a7b7197f4ce60e1b6b9a0e3456785c0992d4cc1b23c3a163e567059d64736f6c63430007060033",
  "linkReferences": {},
  "deployedLinkReferences": {}
}