{
  "_format": "hh-sol-artifact-1",
  "contractName": "ZNSRegistry",
  "sourceName": "contracts/ZNSRegistry.sol",
  "abi": [
    {
      "anonymous": false,
      "inputs": [
        {
          "indexed": true,
          "internalType": "address",
          "name": "owner",
          "type": "address"
        },
        {
          "indexed": true,
          "internalType": "address",
          "name": "approved",
          "type": "address"
        },
        {
          "indexed": true,
          "internalType": "uint256",
          "name": "tokenId",
          "type": "uint256"
        }
      ],
      "name": "Approval",
      "type": "event"
    },
    {
      "anonymous": false,
      "inputs": [
        {
          "indexed": true,
          "internalType": "address",
          "name": "owner",
          "type": "address"
        },
        {
          "indexed": true,
          "internalType": "address",
          "name": "operator",
          "type": "address"
        },
        {
          "indexed": false,
          "internalType": "bool",
          "name": "approved",
          "type": "bool"
        }
      ],
      "name": "ApprovalForAll",
      "type": "event"
    },
    {
      "anonymous": false,
      "inputs": [
        {
          "indexed": false,
          "internalType": "string",
          "name": "baseURI",
          "type": "string"
        }
      ],
      "name": "BaseURISet",
      "type": "event"
    },
    {
      "anonymous": false,
      "inputs": [
        {
          "indexed": true,
          "internalType": "address",
          "name": "owner",
          "type": "address"
        },
        {
          "indexed": true,
          "internalType": "uint256",
          "name": "id",
          "type": "uint256"
        },
        {
          "indexed": false,
          "internalType": "uint256",
          "name": "childCreateLimit",
          "type": "uint256"
        }
      ],
      "name": "ChildCreateLimitSet",
      "type": "event"
    },
    {
      "anonymous": false,
      "inputs": [
        {
          "indexed": true,
          "internalType": "address",
          "name": "owner",
          "type": "address"
        },
        {
          "indexed": true,
          "internalType": "uint256",
          "name": "id",
          "type": "uint256"
        },
        {
          "indexed": false,
          "internalType": "enum ZNSRegistry.ChildImageRule",
          "name": "rule",
          "type": "uint8"
        }
      ],
      "name": "ChildImageRuleSet",
      "type": "event"
    },
    {
      "anonymous": false,
      "inputs": [
        {
          "indexed": true,
          "internalType": "uint256",
          "name": "id",
          "type": "uint256"
        },
        {
          "indexed": true,
          "internalType": "address",
          "name": "oldController",
          "type": "address"
        },
        {
          "indexed": true,
          "internalType": "address",
          "name": "newController",
          "type": "address"
        },
        {
          "indexed": false,
          "internalType": "address",
          "name": "sender",
          "type": "address"
        }
      ],
      "name": "ControllerSet",
      "type": "event"
    },
    {
      "anonymous": false,
      "inputs": [
        {
          "indexed": true,
          "internalType": "uint256",
          "name": "parentId",
          "type": "uint256"
        },
        {
          "indexed": false,
          "internalType": "uint256",
          "name": "tokenId",
          "type": "uint256"
        },
        {
          "indexed": false,
          "internalType": "string",
          "name": "domain",
          "type": "string"
        },
        {
          "indexed": false,
          "internalType": "address",
          "name": "owner",
          "type": "address"
        }
      ],
      "name": "DomainCreated",
      "type": "event"
    },
    {
      "anonymous": false,
      "inputs": [
        {
          "indexed": true,
          "internalType": "address",
          "name": "owner",
          "type": "address"
        },
        {
          "indexed": true,
          "internalType": "uint256",
          "name": "id",
          "type": "uint256"
        },
        {
          "indexed": false,
          "internalType": "string",
          "name": "image",
          "type": "string"
        }
      ],
      "name": "ImageSet",
      "type": "event"
    },
    {
      "anonymous": false,
      "inputs": [
        {
          "indexed": true,
          "internalType": "address",
          "name": "owner",
          "type": "address"
        },
        {
          "indexed": true,
          "internalType": "uint256",
          "name": "id",
          "type": "uint256"
        },
        {
          "indexed": false,
          "internalType": "string",
          "name": "resolver",
          "type": "string"
        }
      ],
      "name": "ResolverSet",
      "type": "event"
    },
    {
      "anonymous": false,
      "inputs": [
        {
          "indexed": true,
          "internalType": "address",
          "name": "from",
          "type": "address"
        },
        {
          "indexed": true,
          "internalType": "address",
          "name": "to",
          "type": "address"
        },
        {
          "indexed": true,
          "internalType": "uint256",
          "name": "tokenId",
          "type": "uint256"
        }
      ],
      "name": "Transfer",
      "type": "event"
    },
    {
      "inputs": [],
      "name": "ROOT_ID",
      "outputs": [
        {
          "internalType": "uint256",
          "name": "",
          "type": "uint256"
        }
      ],
      "stateMutability": "view",
      "type": "function"
    },
    {
      "inputs": [
        {
          "internalType": "address",
          "name": "to",
          "type": "address"
        },
        {
          "internalType": "uint256",
          "name": "tokenId",
          "type": "uint256"
        }
      ],
      "name": "approve",
      "outputs": [],
      "stateMutability": "nonpayable",
      "type": "function"
    },
    {
      "inputs": [
        {
          "internalType": "address",
          "name": "owner",
          "type": "address"
        }
      ],
      "name": "balanceOf",
      "outputs": [
        {
          "internalType": "uint256",
          "name": "",
          "type": "uint256"
        }
      ],
      "stateMutability": "view",
      "type": "function"
    },
    {
      "inputs": [],
      "name": "baseURI",
      "outputs": [
        {
          "internalType": "string",
          "name": "",
          "type": "string"
        }
      ],
      "stateMutability": "view",
      "type": "function"
    },
    {
      "inputs": [
        {
          "internalType": "uint256",
          "name": "id",
          "type": "uint256"
        }
      ],
      "name": "childCountOf",
      "outputs": [
        {
          "internalType": "uint256",
          "name": "",
          "type": "uint256"
        }
      ],
      "stateMutability": "view",
      "type": "function"
    },
    {
      "inputs": [
        {
          "internalType": "uint256",
          "name": "id",
          "type": "uint256"
        }
      ],
      "name": "childCreateLimitOf",
      "outputs": [
        {
          "internalType": "uint256",
          "name": "",
          "type": "uint256"
        }
      ],
      "stateMutability": "view",
      "type": "function"
    },
    {
      "inputs": [
        {
          "internalType": "uint256",
          "name": "id",
          "type": "uint256"
        }
      ],
      "name": "childImageRuleOf",
      "outputs": [
        {
          "internalType": "enum ZNSRegistry.ChildImageRule",
          "name": "",
          "type": "uint8"
        }
      ],
      "stateMutability": "view",
      "type": "function"
    },
    {
      "inputs": [
        {
          "internalType": "address",
          "name": "creator",
          "type": "address"
        },
        {
          "internalType": "uint256",
          "name": "id",
          "type": "uint256"
        }
      ],
      "name": "controllerLikeOf",
      "outputs": [
        {
          "internalType": "bool",
          "name": "",
          "type": "bool"
        }
      ],
      "stateMutability": "view",
      "type": "function"
    },
    {
      "inputs": [
        {
          "internalType": "uint256",
          "name": "id",
          "type": "uint256"
        }
      ],
      "name": "controllerOf",
      "outputs": [
        {
          "internalType": "address",
          "name": "",
          "type": "address"
        }
      ],
      "stateMutability": "view",
      "type": "function"
    },
    {
      "inputs": [
        {
          "internalType": "string",
          "name": "domain",
          "type": "string"
        },
        {
          "internalType": "address",
          "name": "_owner",
          "type": "address"
        },
        {
          "internalType": "address",
          "name": "_controller",
          "type": "address"
        }
      ],
      "name": "createDomain",
      "outputs": [
        {
          "internalType": "uint256",
          "name": "id",
          "type": "uint256"
        },
        {
          "internalType": "uint256",
          "name": "parentId",
          "type": "uint256"
        }
      ],
      "stateMutability": "nonpayable",
      "type": "function"
    },
    {
      "inputs": [
        {
          "internalType": "string",
          "name": "domain",
          "type": "string"
        },
        {
          "internalType": "address",
          "name": "_owner",
          "type": "address"
        },
        {
          "internalType": "address",
          "name": "_controller",
          "type": "address"
        },
        {
          "internalType": "bytes",
          "name": "controllerData",
          "type": "bytes"
        }
      ],
      "name": "createDomainSafeController",
      "outputs": [
        {
          "internalType": "uint256",
          "name": "id",
          "type": "uint256"
        },
        {
          "internalType": "uint256",
          "name": "parentId",
          "type": "uint256"
        }
      ],
      "stateMutability": "nonpayable",
      "type": "function"
    },
    {
      "inputs": [
        {
          "internalType": "string",
          "name": "domain",
          "type": "string"
        },
        {
          "internalType": "address",
          "name": "_owner",
          "type": "address"
        },
        {
          "internalType": "address",
          "name": "_controller",
          "type": "address"
        },
        {
          "internalType": "bytes",
          "name": "mintData",
          "type": "bytes"
        }
      ],
      "name": "createDomainSafeMint",
      "outputs": [
        {
          "internalType": "uint256",
          "name": "id",
          "type": "uint256"
        },
        {
          "internalType": "uint256",
          "name": "parentId",
          "type": "uint256"
        }
      ],
      "stateMutability": "nonpayable",
      "type": "function"
    },
    {
      "inputs": [
        {
          "internalType": "uint256",
          "name": "id",
          "type": "uint256"
        }
      ],
      "name": "createLimitOf",
      "outputs": [
        {
          "internalType": "uint256",
          "name": "",
          "type": "uint256"
        }
      ],
      "stateMutability": "view",
      "type": "function"
    },
    {
      "inputs": [
        {
          "internalType": "uint256",
          "name": "id",
          "type": "uint256"
        }
      ],
      "name": "depthOf",
      "outputs": [
        {
          "internalType": "uint256",
          "name": "",
          "type": "uint256"
        }
      ],
      "stateMutability": "view",
      "type": "function"
    },
    {
      "inputs": [
        {
          "internalType": "uint256",
          "name": "id",
          "type": "uint256"
        }
      ],
      "name": "domainOf",
      "outputs": [
        {
          "internalType": "string",
          "name": "",
          "type": "string"
        }
      ],
      "stateMutability": "view",
      "type": "function"
    },
    {
      "inputs": [
        {
          "internalType": "uint256",
          "name": "id",
          "type": "uint256"
        }
      ],
      "name": "entryOf",
      "outputs": [
        {
          "components": [
            {
              "internalType": "address",
              "name": "owner",
              "type": "address"
            },
            {
              "internalType": "uint256",
              "name": "parent",
              "type": "uint256"
            },
            {
              "internalType": "uint256",
              "name": "depth",
              "type": "uint256"
            },
            {
              "internalType": "address",
              "name": "controller",
              "type": "address"
            },
            {
              "internalType": "string",
              "name": "domain",
              "type": "string"
            },
            {
              "internalType": "string",
              "name": "resolver",
              "type": "string"
            },
            {
              "internalType": "string",
              "name": "image",
              "type": "string"
            },
            {
              "internalType": "uint256",
              "name": "createLimit",
              "type": "uint256"
            },
            {
              "internalType": "uint256",
              "name": "childCreateLimit",
              "type": "uint256"
            },
            {
              "internalType": "uint256",
              "name": "childCount",
              "type": "uint256"
            },
            {
              "internalType": "enum ZNSRegistry.ChildImageRule",
              "name": "imageRule",
              "type": "uint8"
            },
            {
              "internalType": "enum ZNSRegistry.ChildImageRule",
              "name": "childImageRule",
              "type": "uint8"
            }
          ],
          "internalType": "struct ZNSRegistry.EntryView",
          "name": "out",
          "type": "tuple"
        }
      ],
      "stateMutability": "view",
      "type": "function"
    },
    {
      "inputs": [
        {
          "internalType": "uint256",
          "name": "id",
          "type": "uint256"
        }
      ],
      "name": "exists",
      "outputs": [
        {
          "internalType": "bool",
          "name": "",
          "type": "bool"
        }
      ],
      "stateMutability": "view",
      "type": "function"
    },
    {
      "inputs": [
        {
          "internalType": "uint256",
          "name": "tokenId",
          "type": "uint256"
        }
      ],
      "name": "getApproved",
      "outputs": [
        {
          "internalType": "address",
          "name": "",
          "type": "address"
        }
      ],
      "stateMutability": "view",
      "type": "function"
    },
    {
      "inputs": [
        {
          "internalType": "string[]",
          "name": "path",
          "type": "string[]"
        }
      ],
      "name": "getId",
      "outputs": [
        {
          "internalType": "uint256",
          "name": "",
          "type": "uint256"
        }
      ],
      "stateMutability": "pure",
      "type": "function"
    },
    {
      "inputs": [
        {
          "internalType": "string",
          "name": "_s",
          "type": "string"
        }
      ],
      "name": "getIdAndParent",
      "outputs": [
        {
          "internalType": "uint256",
          "name": "",
          "type": "uint256"
        },
        {
          "internalType": "uint256",
          "name": "",
          "type": "uint256"
        }
      ],
      "stateMutability": "pure",
      "type": "function"
    },
    {
      "inputs": [
        {
          "internalType": "uint256",
          "name": "id",
          "type": "uint256"
        }
      ],
      "name": "imageOf",
      "outputs": [
        {
          "internalType": "string",
          "name": "",
          "type": "string"
        }
      ],
      "stateMutability": "view",
      "type": "function"
    },
    {
      "inputs": [
        {
          "internalType": "uint256",
          "name": "id",
          "type": "uint256"
        }
      ],
      "name": "imageRuleOf",
      "outputs": [
        {
          "internalType": "enum ZNSRegistry.ChildImageRule",
          "name": "",
          "type": "uint8"
        }
      ],
      "stateMutability": "view",
      "type": "function"
    },
    {
      "inputs": [
        {
          "internalType": "address",
          "name": "_owner",
          "type": "address"
        },
        {
          "internalType": "address",
          "name": "_controller",
          "type": "address"
        }
      ],
      "name": "initialize",
      "outputs": [],
      "stateMutability": "nonpayable",
      "type": "function"
    },
    {
      "inputs": [
        {
          "internalType": "address",
          "name": "owner",
          "type": "address"
        },
        {
          "internalType": "address",
          "name": "operator",
          "type": "address"
        }
      ],
      "name": "isApprovedForAll",
      "outputs": [
        {
          "internalType": "bool",
          "name": "",
          "type": "bool"
        }
      ],
      "stateMutability": "view",
      "type": "function"
    },
    {
      "inputs": [],
      "name": "name",
      "outputs": [
        {
          "internalType": "string",
          "name": "",
          "type": "string"
        }
      ],
      "stateMutability": "view",
      "type": "function"
    },
    {
      "inputs": [
        {
          "internalType": "uint256",
          "name": "tokenId",
          "type": "uint256"
        }
      ],
      "name": "ownerOf",
      "outputs": [
        {
          "internalType": "address",
          "name": "",
          "type": "address"
        }
      ],
      "stateMutability": "view",
      "type": "function"
    },
    {
      "inputs": [
        {
          "internalType": "uint256",
          "name": "id",
          "type": "uint256"
        }
      ],
      "name": "parentOf",
      "outputs": [
        {
          "internalType": "uint256",
          "name": "",
          "type": "uint256"
        }
      ],
      "stateMutability": "view",
      "type": "function"
    },
    {
      "inputs": [
        {
          "internalType": "string",
          "name": "_s",
          "type": "string"
        }
      ],
      "name": "parseDomain",
      "outputs": [
        {
          "internalType": "bool",
          "name": "valid",
          "type": "bool"
        },
        {
          "internalType": "uint256",
          "name": "parent",
          "type": "uint256"
        },
        {
          "internalType": "uint256",
          "name": "id",
          "type": "uint256"
        },
        {
          "internalType": "string",
          "name": "domain",
          "type": "string"
        }
      ],
      "stateMutability": "pure",
      "type": "function"
    },
    {
      "inputs": [
        {
          "internalType": "uint256",
          "name": "id",
          "type": "uint256"
        }
      ],
      "name": "resolverOf",
      "outputs": [
        {
          "internalType": "string",
          "name": "",
          "type": "string"
        }
      ],
      "stateMutability": "view",
      "type": "function"
    },
    {
      "inputs": [
        {
          "internalType": "string",
          "name": "domain",
          "type": "string"
        },
        {
          "internalType": "address",
          "name": "_owner",
          "type": "address"
        },
        {
          "internalType": "address",
          "name": "_controller",
          "type": "address"
        },
        {
          "internalType": "bytes",
          "name": "mintData",
          "type": "bytes"
        },
        {
          "internalType": "bytes",
          "name": "controllerData",
          "type": "bytes"
        }
      ],
      "name": "safeCreateDomain",
      "outputs": [
        {
          "internalType": "uint256",
          "name": "id",
          "type": "uint256"
        },
        {
          "internalType": "uint256",
          "name": "parentId",
          "type": "uint256"
        }
      ],
      "stateMutability": "nonpayable",
      "type": "function"
    },
    {
      "inputs": [
        {
          "internalType": "uint256",
          "name": "id",
          "type": "uint256"
        },
        {
          "internalType": "address",
          "name": "controller",
          "type": "address"
        },
        {
          "internalType": "bytes",
          "name": "_data",
          "type": "bytes"
        }
      ],
      "name": "safeSetController",
      "outputs": [],
      "stateMutability": "nonpayable",
      "type": "function"
    },
    {
      "inputs": [
        {
          "internalType": "address",
          "name": "from",
          "type": "address"
        },
        {
          "internalType": "address",
          "name": "to",
          "type": "address"
        },
        {
          "internalType": "uint256",
          "name": "tokenId",
          "type": "uint256"
        }
      ],
      "name": "safeTransferFrom",
      "outputs": [],
      "stateMutability": "nonpayable",
      "type": "function"
    },
    {
      "inputs": [
        {
          "internalType": "address",
          "name": "from",
          "type": "address"
        },
        {
          "internalType": "address",
          "name": "to",
          "type": "address"
        },
        {
          "internalType": "uint256",
          "name": "tokenId",
          "type": "uint256"
        },
        {
          "internalType": "bytes",
          "name": "_data",
          "type": "bytes"
        }
      ],
      "name": "safeTransferFrom",
      "outputs": [],
      "stateMutability": "nonpayable",
      "type": "function"
    },
    {
      "inputs": [
        {
          "internalType": "address",
          "name": "operator",
          "type": "address"
        },
        {
          "internalType": "bool",
          "name": "approved",
          "type": "bool"
        }
      ],
      "name": "setApprovalForAll",
      "outputs": [],
      "stateMutability": "nonpayable",
      "type": "function"
    },
    {
      "inputs": [
        {
          "internalType": "string",
          "name": "baseURI",
          "type": "string"
        }
      ],
      "name": "setBaseURI",
      "outputs": [],
      "stateMutability": "nonpayable",
      "type": "function"
    },
    {
      "inputs": [
        {
          "internalType": "uint256",
          "name": "id",
          "type": "uint256"
        },
        {
          "internalType": "uint256",
          "name": "childCreateLimit",
          "type": "uint256"
        }
      ],
      "name": "setChildCreateLimit",
      "outputs": [],
      "stateMutability": "nonpayable",
      "type": "function"
    },
    {
      "inputs": [
        {
          "internalType": "uint256",
          "name": "id",
          "type": "uint256"
        },
        {
          "internalType": "enum ZNSRegistry.ChildImageRule",
          "name": "rule",
          "type": "uint8"
        }
      ],
      "name": "setChildImageRule",
      "outputs": [],
      "stateMutability": "nonpayable",
      "type": "function"
    },
    {
      "inputs": [
        {
          "internalType": "uint256",
          "name": "id",
          "type": "uint256"
        },
        {
          "internalType": "address",
          "name": "controller",
          "type": "address"
        }
      ],
      "name": "setController",
      "outputs": [],
      "stateMutability": "nonpayable",
      "type": "function"
    },
    {
      "inputs": [
        {
          "internalType": "uint256",
          "name": "id",
          "type": "uint256"
        },
        {
          "internalType": "string",
          "name": "image",
          "type": "string"
        }
      ],
      "name": "setImage",
      "outputs": [],
      "stateMutability": "nonpayable",
      "type": "function"
    },
    {
      "inputs": [
        {
          "internalType": "uint256",
          "name": "id",
          "type": "uint256"
        },
        {
          "internalType": "string",
          "name": "resolver",
          "type": "string"
        }
      ],
      "name": "setResolver",
      "outputs": [],
      "stateMutability": "nonpayable",
      "type": "function"
    },
    {
      "inputs": [
        {
          "internalType": "bytes4",
          "name": "interfaceId",
          "type": "bytes4"
        }
      ],
      "name": "supportsInterface",
      "outputs": [
        {
          "internalType": "bool",
          "name": "",
          "type": "bool"
        }
      ],
      "stateMutability": "view",
      "type": "function"
    },
    {
      "inputs": [],
      "name": "symbol",
      "outputs": [
        {
          "internalType": "string",
          "name": "",
          "type": "string"
        }
      ],
      "stateMutability": "view",
      "type": "function"
    },
    {
      "inputs": [
        {
          "internalType": "uint256",
          "name": "index",
          "type": "uint256"
        }
      ],
      "name": "tokenByIndex",
      "outputs": [
        {
          "internalType": "uint256",
          "name": "",
          "type": "uint256"
        }
      ],
      "stateMutability": "view",
      "type": "function"
    },
    {
      "inputs": [
        {
          "internalType": "address",
          "name": "owner",
          "type": "address"
        },
        {
          "internalType": "uint256",
          "name": "index",
          "type": "uint256"
        }
      ],
      "name": "tokenOfOwnerByIndex",
      "outputs": [
        {
          "internalType": "uint256",
          "name": "",
          "type": "uint256"
        }
      ],
      "stateMutability": "view",
      "type": "function"
    },
    {
      "inputs": [
        {
          "internalType": "uint256",
          "name": "tokenId",
          "type": "uint256"
        }
      ],
      "name": "tokenURI",
      "outputs": [
        {
          "internalType": "string",
          "name": "",
          "type": "string"
        }
      ],
      "stateMutability": "view",
      "type": "function"
    },
    {
      "inputs": [],
      "name": "totalSupply",
      "outputs": [
        {
          "internalType": "uint256",
          "name": "",
          "type": "uint256"
        }
      ],
      "stateMutability": "view",
      "type": "function"
    },
    {
      "inputs": [
        {
          "internalType": "address",
          "name": "from",
          "type": "address"
        },
        {
          "internalType": "address",
          "name": "to",
          "type": "address"
        },
        {
          "internalType": "uint256",
          "name": "tokenId",
          "type": "uint256"
        }
      ],
      "name": "transferFrom",
      "outputs": [],
      "stateMutability": "nonpayable",
      "type": "function"
    }
  ],
  "bytecode": "0x608060405234801561001057600080fd5b506143b8806100206000396000f3fe608060405234801561001057600080fd5b50600436106103155760003560e01c80636c0360eb116101a7578063b3f9e4cb116100ee578063d060756211610097578063eedf792811610071578063eedf792814610699578063f0a5bd47146106a1578063fa23b5b0146106c457610315565b8063d060756214610660578063d4f5913414610673578063e985e9c51461068657610315565b8063c87b56dd116100c8578063c87b56dd14610627578063c980c6261461063a578063cfa3c1321461064d57610315565b8063b3f9e4cb146105ee578063b88d4fde14610601578063c6c17ec01461061457610315565b80639b60969311610150578063a60e7dc91161012a578063a60e7dc9146105a8578063ae3d12b2146105c8578063b1b3c83a146105db57610315565b80639b6096931461056f578063a1755c1614610582578063a22cb4651461059557610315565b80638cfbe3bb116101815780638cfbe3bb146105415780638faa8d091461055457806395d89b411461056757610315565b80636c0360eb1461051357806370a082311461051b5780637b4f022e1461052e57610315565b8063363637e81161026b5780634f6ccce7116102145780635c98db05116101ee5780635c98db05146104da5780635dd8f6aa146104ed5780636352211e1461050057610315565b80634f6ccce7146104a157806355f804b3146104b45780635a2cfbe3146104c757610315565b806342842e0e1161024557806342842e0e14610468578063485cc9551461047b5780634f558e791461048e57610315565b8063363637e81461042f5780633e453836146104425780633e5779ee1461045557610315565b806318160ddd116102cd5780632729af43116102a75780632729af43146103e95780632bb4350c146103fc5780632f745c591461041c57610315565b806318160ddd146103a05780631ffb525f146103b557806323b872dd146103d657610315565b806307c6b841116102fe57806307c6b84114610358578063081812fc1461036d578063095ea7b31461038d57610315565b806301ffc9a71461031a57806306fdde0314610343575b600080fd5b61032d610328366004613886565b6106d7565b60405161033a9190613cff565b60405180910390f35b61034b6106fa565b60405161033a9190613d53565b61036b610366366004613b58565b610790565b005b61038061037b366004613a9f565b61081b565b60405161033a9190613caf565b61036b61039b3660046137c4565b61087d565b6103a8610953565b60405161033a9190614021565b6103c86103c3366004613921565b610964565b60405161033a9291906140bf565b61036b6103e43660046136d6565b6109d0565b6103a86103f7366004613a9f565b610a27565b61040f61040a366004613a9f565b610a3c565b60405161033a9190613f33565b6103a861042a3660046137c4565b610cc1565b61036b61043d366004613b31565b610cec565b6103c8610450366004613921565b610d37565b61036b610463366004613ab7565b610d95565b61036b6104763660046136d6565b610db2565b61036b6104893660046136a4565b610dcd565b61032d61049c366004613a9f565b61104d565b6103a86104af366004613a9f565b611058565b61036b6104c2366004613a6c565b61106e565b61036b6104d5366004613be7565b611101565b61032d6104e83660046137c4565b6111b2565b6103806104fb366004613a9f565b611247565b61038061050e366004613a9f565b611265565b61034b61128d565b6103a861052936600461368a565b6112ee565b6103c861053c366004613a6c565b611356565b6103c861054f3660046139b2565b6113dc565b6103a8610562366004613a9f565b611481565b61034b611496565b6103a861057d366004613a9f565b6114f7565b6103a8610590366004613a9f565b61150c565b61036b6105a336600461378a565b611524565b6105bb6105b6366004613a9f565b611629565b60405161033a9190613d31565b6105bb6105d6366004613a9f565b61163d565b6103c86105e93660046138be565b611655565b61034b6105fc366004613a9f565b611685565b61036b61060f366004613711565b611729565b61034b610622366004613a9f565b611787565b61034b610635366004613a9f565b6117f4565b61036b610648366004613ba2565b61190b565b6103a861065b366004613a9f565b6119d5565b61034b61066e366004613a9f565b6119e7565b6103a86106813660046137ed565b611a54565b61032d6106943660046136a4565b611adf565b6103a8611b0d565b6106b46106af366004613a6c565b611b3b565b60405161033a9493929190613d0a565b61036b6106d2366004613ad9565b611bb3565b6001600160e01b0319811660009081526033602052604090205460ff165b919050565b606a8054604080516020601f60026000196101006001881615020190951694909404938401819004810282018101909252828152606093909290918301828280156107865780601f1061075b57610100808354040283529160200191610786565b820191906000526020600020905b81548152906001019060200180831161076957829003601f168201915b5050505050905090565b3361079a84611265565b6001600160a01b0316146107ad57600080fd5b60008381526097602052604090206107c9906004018383613428565b50826107d484611265565b6001600160a01b03167f446f502bb4d7664110df81da26583f4c2a757d1890d992c2df364826e4f40467848460405161080e929190613d3f565b60405180910390a3505050565b600061082682611c07565b6108615760405162461bcd60e51b815260040180806020018281038252602c8152602001806142ad602c913960400191505060405180910390fd5b506000908152606860205260409020546001600160a01b031690565b600061088882611265565b9050806001600160a01b0316836001600160a01b031614156108db5760405162461bcd60e51b81526004018080602001828103825260218152602001806143316021913960400191505060405180910390fd5b806001600160a01b03166108ed611c14565b6001600160a01b03161480610909575061090981610694611c14565b6109445760405162461bcd60e51b81526004018080602001828103825260388152602001806141d26038913960400191505060405180910390fd5b61094e8383611c18565b505050565b600061095f6066611c93565b905090565b600080610972888888611c9e565b80925081935050506109bb868386868080601f016020809104026020016040519081016040528093929190818152602001838380828437600092019190915250611ece92505050565b6109c58286611f20565b965096945050505050565b6109e16109db611c14565b82611faf565b610a1c5760405162461bcd60e51b81526004018080602001828103825260318152602001806143526031913960400191505060405180910390fd5b61094e83838361204b565b60009081526097602052604090206007015490565b610a446134b4565b600082815260976020526040808220805483529120610a6284611265565b6001600160a01b0390811684528254602080860191909152600180850154604080880191909152600280870154909416606088015260038601805482516101009482161594909402600019011694909404601f8101849004840283018401909152808252909291830182828015610b1a5780601f10610aef57610100808354040283529160200191610b1a565b820191906000526020600020905b815481529060010190602001808311610afd57829003601f168201915b5050505050608084015260048201805460408051602060026001851615610100026000190190941693909304601f81018490048402820184019092528181529291830182828015610bac5780601f10610b8157610100808354040283529160200191610bac565b820191906000526020600020905b815481529060010190602001808311610b8f57829003601f168201915b505050505060a084015260058201805460408051602060026001851615610100026000190190941693909304601f81018490048402820184019092528181529291830182828015610c3e5780601f10610c1357610100808354040283529160200191610c3e565b820191906000526020600020905b815481529060010190602001808311610c2157829003601f168201915b505050505060c084015260068181015460e08501528201546101008401526007820154610120840152600881015461014084019060ff166002811115610c8057fe5b90816002811115610c8d57fe5b905250600882015461016084019060ff166002811115610ca957fe5b90816002811115610cb657fe5b815250505050919050565b6001600160a01b0382166000908152606560205260408120610ce39083612197565b90505b92915050565b33610cf683611265565b6001600160a01b031614610d0957600080fd5b6000610d148361163d565b6002811115610d1f57fe5b14610d2957600080fd5b610d3382826121a3565b5050565b600080610d45888888611c9e565b9092509050610d54868361221e565b6109c5828686868080601f01602080910402602001604051908101604052809392919081815260200183838082843760009201919091525061234c92505050565b610d9f33836111b2565b610da857600080fd5b610d338282611f20565b61094e83838360405180602001604052806000815250611729565b600054610100900460ff1680610de65750610de66123fe565b80610df4575060005460ff16155b610e2f5760405162461bcd60e51b815260040180806020018281038252602e81526020018061425d602e913960400191505060405180910390fd5b600054610100900460ff16158015610e5a576000805460ff1961ff0019909116610100171660011790555b610ece6040518060400160405280601181526020017f5a657230204e616d6520536572766963650000000000000000000000000000008152506040518060400160405280600381526020017f5a4e53000000000000000000000000000000000000000000000000000000000081525061240f565b60006097600080604051602001610ee59190614077565b60408051601f19818403018152918152815160209283012083528282019390935290820160002082518084019093526004808452631493d3d560e21b939092019283529250610f38916003840191613531565b506000808052609760209081527f683723e34a772b6e4f2c919bba7fa32ed8ea11a8325f54da7db716e9d9dd98cf805460ff191660021790556040517f2c1a95cbf8200eb60430d91027ae7f1207996d544a887575b13bdfd1a958a66791610fa291849101614077565b60408051601f19818403018152908290528051602090910120610fc691889061408f565b60405180910390a2611002846000604051602001610fe49190614077565b6040516020818303038152906040528051906020012060001c61221e565b61103660006040516020016110179190614077565b6040516020818303038152906040528051906020012060001c84611f20565b50801561094e576000805461ff0019169055505050565b6000610ce682611c07565b6000806110666066846124cc565b509392505050565b6110a160006040516020016110839190614077565b6040516020818303038152906040528051906020012060001c611265565b6001600160a01b0316336001600160a01b0316146110be57600080fd5b6110c7816124ea565b7ff9c7803e94e0d3c02900d8a90893a6d5e90dd04d32a4cfe825520f82bf9f32f6816040516110f69190613d53565b60405180910390a150565b600082156111175761111283611265565b61112c565b61112c60006040516020016110839190614077565b90506001600160a01b038116331461114357600080fd5b60008381526097602052604090206006015482101561116157600080fd5b600083815260976020526040908190206006018390555183906001600160a01b038316907f80f61c56727089d971552cf018c6fe81e5eec3f31e807669438b4d65d678fc299061080e908690614021565b6000806111be83611247565b9050806001600160a01b0316846001600160a01b0316148061123f57506001600160a01b038116158061121a575060006040516020016111fe9190614077565b6040516020818303038152906040528051906020012060001c83145b801561123f5750836001600160a01b031661123484611265565b6001600160a01b0316145b949350505050565b6000908152609760205260409020600201546001600160a01b031690565b6000610ce68260405180606001604052806029815260200161423460299139606691906124fd565b606d8054604080516020601f60026000196101006001881615020190951694909404938401819004810282018101909252828152606093909290918301828280156107865780601f1061075b57610100808354040283529160200191610786565b60006001600160a01b0382166113355760405162461bcd60e51b815260040180806020018281038252602a81526020018061420a602a913960400191505060405180910390fd5b6001600160a01b0382166000908152606560205260409020610ce690611c93565b600080600080600061139260006040516020016113739190614077565b6040516020818303038152906040528051906020012060001c87612514565b925092509250826113a257600080fd5b600082826040516020016113b792919061405e565b60408051601f1981840301815291905280516020909101209550919350505050915091565b6000806113ea8a8a8a611c9e565b8092508193505050611433888388888080601f016020809104026020016040519081016040528093929190818152602001838380828437600092019190915250611ece92505050565b611474828886868080601f01602080910402602001604051908101604052809392919081815260200183838082843760009201919091525061234c92505050565b9850989650505050505050565b60009081526097602052604090206001015490565b606b8054604080516020601f60026000196101006001881615020190951694909404938401819004810282018101909252828152606093909290918301828280156107865780601f1061075b57610100808354040283529160200191610786565b60009081526097602052604090206006015490565b600081815260976020526040812054610ce6906114f7565b61152c611c14565b6001600160a01b0316826001600160a01b03161415611592576040805162461bcd60e51b815260206004820152601960248201527f4552433732313a20617070726f766520746f2063616c6c657200000000000000604482015290519081900360640190fd5b806069600061159f611c14565b6001600160a01b03908116825260208083019390935260409182016000908120918716808252919093529120805460ff1916921515929092179091556115e3611c14565b6001600160a01b03167f17307eab39ab6107e8899845ad3d59bd9653f200f220920489ca2b5937696c318360405180821515815260200191505060405180910390a35050565b600081815260976020526040812054610ce6905b60009081526097602052604090206008015460ff1690565b600080611663868686611c9e565b9092509050611672848361221e565b61167c8284611f20565b94509492505050565b60008181526097602090815260409182902060040180548351601f600260001961010060018616150201909316929092049182018490048402810184019094528084526060939283018282801561171d5780601f106116f25761010080835404028352916020019161171d565b820191906000526020600020905b81548152906001019060200180831161170057829003601f168201915b50505050509050919050565b61173a611734611c14565b83611faf565b6117755760405162461bcd60e51b81526004018080602001828103825260318152602001806143526031913960400191505060405180910390fd5b6117818484848461273e565b50505050565b60008181526097602090815260409182902060030180548351601f600260001961010060018616150201909316929092049182018490048402810184019094528084526060939283018282801561171d5780601f106116f25761010080835404028352916020019161171d565b60606117ff82611c07565b61183a5760405162461bcd60e51b815260040180806020018281038252602f815260200180614302602f913960400191505060405180910390fd5b606d61184583612790565b60405160200180838054600181600116156101000203166002900480156118a35780601f106118815761010080835404028352918201916118a3565b820191906000526020600020905b81548152906001019060200180831161188f575b5050825160208401908083835b602083106118cf5780518252601f1990920191602091820191016118b0565b6001836020036101000a038019825116818451168082178552505050505050905001925050506040516020818303038152906040529050919050565b3361191583611265565b6001600160a01b03161461192857600080fd5b6000828152609760205260408082208054835291206008015460019060ff16600281111561195257fe5b1415806119745750600581015460026000196101006001841615020190911604155b61197d57600080fd5b81516119929060058301906020850190613531565b508261199d84611265565b6001600160a01b03167f7228383a10f0dfa73f0129ad947aa4f6689f533279ea1fa0e9fa10fbdb52120e8460405161080e9190613d53565b60009081526097602052604090205490565b60008181526097602090815260409182902060050180548351601f600260001961010060018616150201909316929092049182018490048402810184019094528084526060939283018282801561171d5780601f106116f25761010080835404028352916020019161171d565b6000806000604051602001611a699190614077565b6040516020818303038152906040528051906020012060001c905060005b8351811015611ad85781848281518110611a9d57fe5b6020026020010151604051602001611ab692919061405e565b60408051601f1981840301815291905280516020909101209150600101611a87565b5092915050565b6001600160a01b03918216600090815260696020908152604080832093909416825291909152205460ff1690565b6000604051602001611b1f9190614077565b6040516020818303038152906040528051906020012060001c81565b60008060006060611b766000604051602001611b579190614077565b6040516020818303038152906040528051906020012060001c86612514565b6040519296509094509150611b91908490839060200161405e565b6040516020818303038152906040528051906020012060001c91509193509193565b611bbd33856111b2565b611bc657600080fd5b611781848484848080601f01602080910402602001604051908101604052809392919081815260200183838082843760009201919091525061234c92505050565b6000610ce660668361289f565b3390565b6000818152606860205260409020805473ffffffffffffffffffffffffffffffffffffffff19166001600160a01b0384169081179091558190611c5a82611265565b6001600160a01b03167f8c5be1e5ebec7d5bd14f71427d1e84f3dd0314c0f7b2291e5b200ac8c7c3b92560405160405180910390a45050565b6000610ce6826128ab565b60008083611cab57600080fd5b6000806000611d136000604051602001611cc59190614077565b60408051601f198184030181528282528051602091820120601f8c018290048202840182019092528a83529091908b908b908190840183828082843760009201919091525061251492505050565b92509250925060008282604051602001611d2e92919061405e565b6040516020818303038152906040528051906020012060001c905083611d6f5760405162461bcd60e51b8152600401611d6690613e68565b60405180910390fd5b611d7933846111b2565b611d955760405162461bcd60e51b8152600401611d6690613d66565b611d9e83611c07565b611dba5760405162461bcd60e51b8152600401611d6690613e31565b611dc381611c07565b15611de05760405162461bcd60e51b8152600401611d6690613e9f565b60008381526097602052604090208054611df9906114f7565b816007015460010110611e1e5760405162461bcd60e51b8152600401611d6690613d9d565b6007810180546001908101909155600083815260976020526040902081830154820191810191909155848155611e58600382018c8c613428565b50847f2c1a95cbf8200eb60430d91027ae7f1207996d544a887575b13bdfd1a958a667848d8d8d604051611e8f949392919061402a565b60405180910390a26001600883015460ff166002811115611eac57fe5b1415611ebd57611ebd8360016121a3565b509099929850919650505050505050565b611ed8838361221e565b611ee560008484846128af565b61094e5760405162461bcd60e51b815260040180806020018281038252603281526020018061412a6032913960400191505060405180910390fd5b6000611f2b83611247565b60008481526097602052604090819020600201805473ffffffffffffffffffffffffffffffffffffffff19166001600160a01b03868116918217909255915192935090919083169085907f0af36ec64da94c558c48ce7fb33930392a9a27325b8cb0584000835ffff08cdd90611fa2903390613caf565b60405180910390a4505050565b6000611fba82611c07565b611ff55760405162461bcd60e51b815260040180806020018281038252602c8152602001806141a6602c913960400191505060405180910390fd5b600061200083611265565b9050806001600160a01b0316846001600160a01b0316148061203b5750836001600160a01b03166120308461081b565b6001600160a01b0316145b8061123f575061123f8185611adf565b826001600160a01b031661205e82611265565b6001600160a01b0316146120a35760405162461bcd60e51b81526004018080602001828103825260298152602001806142d96029913960400191505060405180910390fd5b6001600160a01b0382166120e85760405162461bcd60e51b815260040180806020018281038252602481526020018061415c6024913960400191505060405180910390fd5b6120f383838361094e565b6120fe600082611c18565b6001600160a01b03831660009081526065602052604090206121209082612a41565b506001600160a01b03821660009081526065602052604090206121439082612a4d565b5061215060668284612a59565b5080826001600160a01b0316846001600160a01b03167fddf252ad1be2c89b69c2b068fc378daa952ba7f163c4a11628f55a4df523b3ef60405160405180910390a4505050565b6000610ce38383612a6f565b6000828152609760205260409020600801805482919060ff191660018360028111156121cb57fe5b0217905550816121da83611265565b6001600160a01b03167fa96b21495087b5be54b8cbca4cb7f6cae4e92d2bff237b976f1ebcf255bf5108836040516122129190613d31565b60405180910390a35050565b6001600160a01b038216612279576040805162461bcd60e51b815260206004820181905260248201527f4552433732313a206d696e7420746f20746865207a65726f2061646472657373604482015290519081900360640190fd5b61228281611c07565b156122d4576040805162461bcd60e51b815260206004820152601c60248201527f4552433732313a20746f6b656e20616c7265616479206d696e74656400000000604482015290519081900360640190fd5b6122e06000838361094e565b6001600160a01b03821660009081526065602052604090206123029082612a4d565b5061230f60668284612a59565b5060405181906001600160a01b038416906000907fddf252ad1be2c89b69c2b068fc378daa952ba7f163c4a11628f55a4df523b3ef908290a45050565b600061235784611247565b60008581526097602052604090819020600201805473ffffffffffffffffffffffffffffffffffffffff19166001600160a01b03878116918217909255915192935090919083169086907f0af36ec64da94c558c48ce7fb33930392a9a27325b8cb0584000835ffff08cdd906123ce903390613caf565b60405180910390a46123e281848685612ad3565b6117815760405162461bcd60e51b8152600401611d6690613dd4565b600061240930612c04565b15905090565b600054610100900460ff168061242857506124286123fe565b80612436575060005460ff16155b6124715760405162461bcd60e51b815260040180806020018281038252602e81526020018061425d602e913960400191505060405180910390fd5b600054610100900460ff1615801561249c576000805460ff1961ff0019909116610100171660011790555b6124a4612c0a565b6124ac612cac565b6124b68383612d62565b801561094e576000805461ff0019169055505050565b60008080806124db8686612e92565b909450925050505b9250929050565b8051610d3390606d906020840190613531565b600061250a848484612f0d565b90505b9392505050565b8051602082810180516000938493606093889390928392909186918891848c0190910190825b8287116126c75760f882901c602e8114156126485760018989030391508167ffffffffffffffff8111801561256e57600080fd5b506040519080825280601f01601f191660200182016040528015612599576020820181803683370190505b5095506020860194506125ad858a84612fd7565b89866040516020018083815260200180602001828103825283818151815260200191508051906020019080838360005b838110156125f55781810151838201526020016125dd565b50505050905090810190601f1680156126225780820380516001836020036101000a031916815260200191505b5093505050506040516020818303038152906040528051906020012099508798506126b7565b60618160ff16108061265d5750607a8160ff16115b801561267a575060308160ff1610801561267a575060398160ff16115b801561268a57508060ff16602d14155b156126b757600080604051806020016040528060008152509c509c509c5050505050505050505050612737565b508651600190970196915061253a565b50600019878703018067ffffffffffffffff811180156126e657600080fd5b506040519080825280601f01601f191660200182016040528015612711576020820181803683370190505b509450602085019350612725848983612fd7565b5060019a509698509196505050505050505b9250925092565b61274984848461204b565b612755848484846128af565b6117815760405162461bcd60e51b815260040180806020018281038252603281526020018061412a6032913960400191505060405180910390fd5b6060816127d1575060408051808201909152600181527f300000000000000000000000000000000000000000000000000000000000000060208201526106f5565b8160005b81156127e957600101600a820491506127d5565b60008167ffffffffffffffff8111801561280257600080fd5b506040519080825280601f01601f19166020018201604052801561282d576020820181803683370190505b50859350905060001982015b831561289657600a840660300160f81b8282806001900393508151811061285c57fe5b60200101907effffffffffffffffffffffffffffffffffffffffffffffffffffffffffffff1916908160001a905350600a84049350612839565b50949350505050565b6000610ce38383613015565b5490565b60006128c3846001600160a01b0316612c04565b6128cf5750600161123f565b6000612a07630a85bd0160e11b6128e4611c14565b88878760405160240180856001600160a01b03168152602001846001600160a01b0316815260200183815260200180602001828103825283818151815260200191508051906020019080838360005b8381101561294b578181015183820152602001612933565b50505050905090810190601f1680156129785780820380516001836020036101000a031916815260200191505b5095505050505050604051602081830303815290604052907bffffffffffffffffffffffffffffffffffffffffffffffffffffffff19166020820180517bffffffffffffffffffffffffffffffffffffffffffffffffffffffff838183161783525050505060405180606001604052806032815260200161412a603291396001600160a01b038816919061302d565b90506000818060200190516020811015612a2057600080fd5b50516001600160e01b031916630a85bd0160e11b1492505050949350505050565b6000610ce3838361303c565b6000610ce38383613102565b600061250a84846001600160a01b03851661314c565b81546000908210612ab15760405162461bcd60e51b81526004018080602001828103825260228152602001806141086022913960400191505060405180910390fd5b826000018281548110612ac057fe5b9060005260206000200154905092915050565b6000612ae7846001600160a01b0316612c04565b15612bfc57836001600160a01b031663b2763317612b03611c14565b8786866040518563ffffffff1660e01b8152600401612b259493929190613cc3565b602060405180830381600087803b158015612b3f57600080fd5b505af1925050508015612b6f575060408051601f3d908101601f19168201909252612b6c918101906138a2565b60015b612bc9573d808015612b9d576040519150601f19603f3d011682016040523d82523d6000602084013e612ba2565b606091505b508051612bc15760405162461bcd60e51b8152600401611d6690613ed6565b805181602001fd5b6001600160e01b0319167fb27633170000000000000000000000000000000000000000000000000000000014905061123f565b50600161123f565b3b151590565b600054610100900460ff1680612c235750612c236123fe565b80612c31575060005460ff16155b612c6c5760405162461bcd60e51b815260040180806020018281038252602e81526020018061425d602e913960400191505060405180910390fd5b600054610100900460ff16158015612c97576000805460ff1961ff0019909116610100171660011790555b8015612ca9576000805461ff00191690555b50565b600054610100900460ff1680612cc55750612cc56123fe565b80612cd3575060005460ff16155b612d0e5760405162461bcd60e51b815260040180806020018281038252602e81526020018061425d602e913960400191505060405180910390fd5b600054610100900460ff16158015612d39576000805460ff1961ff0019909116610100171660011790555b612c977f01ffc9a7000000000000000000000000000000000000000000000000000000006131e3565b600054610100900460ff1680612d7b5750612d7b6123fe565b80612d89575060005460ff16155b612dc45760405162461bcd60e51b815260040180806020018281038252602e81526020018061425d602e913960400191505060405180910390fd5b600054610100900460ff16158015612def576000805460ff1961ff0019909116610100171660011790555b8251612e0290606a906020860190613531565b508151612e1690606b906020850190613531565b50612e407f80ac58cd000000000000000000000000000000000000000000000000000000006131e3565b612e697f5b5e139f000000000000000000000000000000000000000000000000000000006131e3565b6124b67f780e9d63000000000000000000000000000000000000000000000000000000006131e3565b815460009081908310612ed65760405162461bcd60e51b815260040180806020018281038252602281526020018061428b6022913960400191505060405180910390fd5b6000846000018481548110612ee757fe5b906000526020600020906002020190508060000154816001015492509250509250929050565b60008281526001840160205260408120548281612fa85760405162461bcd60e51b81526004018080602001828103825283818151815260200191508051906020019080838360005b83811015612f6d578181015183820152602001612f55565b50505050905090810190601f168015612f9a5780820380516001836020036101000a031916815260200191505b509250505060405180910390fd5b50846000016001820381548110612fbb57fe5b9060005260206000209060020201600101549150509392505050565b5b60208110612ff7578151835260209283019290910190601f1901612fd8565b905182516020929092036101000a6000190180199091169116179052565b60009081526001919091016020526040902054151590565b606061250a8484600085613267565b600081815260018301602052604081205480156130f8578354600019808301919081019060009087908390811061306f57fe5b906000526020600020015490508087600001848154811061308c57fe5b6000918252602080832090910192909255828152600189810190925260409020908401905586548790806130bc57fe5b60019003818190600052602060002001600090559055866001016000878152602001908152602001600020600090556001945050505050610ce6565b6000915050610ce6565b600061310e8383613015565b61314457508154600181810184556000848152602080822090930184905584548482528286019093526040902091909155610ce6565b506000610ce6565b6000828152600184016020526040812054806131b157505060408051808201825283815260208082018481528654600181810189556000898152848120955160029093029095019182559151908201558654868452818801909252929091205561250d565b828560000160018303815481106131c457fe5b906000526020600020906002020160010181905550600091505061250d565b6001600160e01b03198082161415613242576040805162461bcd60e51b815260206004820152601c60248201527f4552433136353a20696e76616c696420696e7465726661636520696400000000604482015290519081900360640190fd5b6001600160e01b0319166000908152603360205260409020805460ff19166001179055565b6060824710156132a85760405162461bcd60e51b81526004018080602001828103825260268152602001806141806026913960400191505060405180910390fd5b6132b185612c04565b613302576040805162461bcd60e51b815260206004820152601d60248201527f416464726573733a2063616c6c20746f206e6f6e2d636f6e7472616374000000604482015290519081900360640190fd5b600080866001600160a01b031685876040518082805190602001908083835b602083106133405780518252601f199092019160209182019101613321565b6001836020036101000a03801982511681845116808217855250505050505090500191505060006040518083038185875af1925050503d80600081146133a2576040519150601f19603f3d011682016040523d82523d6000602084013e6133a7565b606091505b50915091506133b78282866133c2565b979650505050505050565b606083156133d157508161250d565b8251156133e15782518084602001fd5b60405162461bcd60e51b8152602060048201818152845160248401528451859391928392604401919085019080838360008315612f6d578181015183820152602001612f55565b828054600181600116156101000203166002900490600052602060002090601f01602090048101928261345e57600085556134a4565b82601f106134775782800160ff198235161785556134a4565b828001600101855582156134a4579182015b828111156134a4578235825591602001919060010190613489565b506134b09291506135ad565b5090565b60405180610180016040528060006001600160a01b03168152602001600081526020016000815260200160006001600160a01b031681526020016060815260200160608152602001606081526020016000815260200160008152602001600081526020016000600281111561352557fe5b81526020016000905290565b828054600181600116156101000203166002900490600052602060002090601f01602090048101928261356757600085556134a4565b82601f1061358057805160ff19168380011785556134a4565b828001600101855582156134a4579182015b828111156134a4578251825591602001919060010190613592565b5b808211156134b057600081556001016135ae565b600067ffffffffffffffff8311156135d657fe5b6135e9601f8401601f19166020016140cd565b90508281528383830111156135fd57600080fd5b828260208301376000602084830101529392505050565b80356001600160a01b03811681146106f557600080fd5b60008083601f84011261363c578182fd5b50813567ffffffffffffffff811115613653578182fd5b6020830191508360208285010111156124e357600080fd5b600082601f83011261367b578081fd5b610ce3838335602085016135c2565b60006020828403121561369b578081fd5b610ce382613614565b600080604083850312156136b6578081fd5b6136bf83613614565b91506136cd60208401613614565b90509250929050565b6000806000606084860312156136ea578081fd5b6136f384613614565b925061370160208501613614565b9150604084013590509250925092565b60008060008060808587031215613726578081fd5b61372f85613614565b935061373d60208601613614565b925060408501359150606085013567ffffffffffffffff81111561375f578182fd5b8501601f8101871361376f578182fd5b61377e878235602084016135c2565b91505092959194509250565b6000806040838503121561379c578182fd5b6137a583613614565b9150602083013580151581146137b9578182fd5b809150509250929050565b600080604083850312156137d6578182fd5b6137df83613614565b946020939093013593505050565b600060208083850312156137ff578182fd5b823567ffffffffffffffff80821115613816578384fd5b818501915085601f830112613829578384fd5b81358181111561383557fe5b61384284858302016140cd565b8181528481019250838501865b83811015613878576138668a88843589010161366b565b8552938601939086019060010161384f565b509098975050505050505050565b600060208284031215613897578081fd5b813561250d816140f1565b6000602082840312156138b3578081fd5b815161250d816140f1565b600080600080606085870312156138d3578384fd5b843567ffffffffffffffff8111156138e9578485fd5b6138f58782880161362b565b9095509350613908905060208601613614565b915061391660408601613614565b905092959194509250565b60008060008060008060808789031215613939578384fd5b863567ffffffffffffffff80821115613950578586fd5b61395c8a838b0161362b565b909850965086915061397060208a01613614565b955061397e60408a01613614565b94506060890135915080821115613993578384fd5b506139a089828a0161362b565b979a9699509497509295939492505050565b60008060008060008060008060a0898b0312156139cd578586fd5b883567ffffffffffffffff808211156139e4578788fd5b6139f08c838d0161362b565b909a509850889150613a0460208c01613614565b9750613a1260408c01613614565b965060608b0135915080821115613a27578384fd5b613a338c838d0161362b565b909650945060808b0135915080821115613a4b578384fd5b50613a588b828c0161362b565b999c989b5096995094979396929594505050565b600060208284031215613a7d578081fd5b813567ffffffffffffffff811115613a93578182fd5b61123f8482850161366b565b600060208284031215613ab0578081fd5b5035919050565b60008060408385031215613ac9578182fd5b823591506136cd60208401613614565b60008060008060608587031215613aee578182fd5b84359350613afe60208601613614565b9250604085013567ffffffffffffffff811115613b19578283fd5b613b258782880161362b565b95989497509550505050565b60008060408385031215613b43578182fd5b823591506020830135600381106137b9578182fd5b600080600060408486031215613b6c578081fd5b83359250602084013567ffffffffffffffff811115613b89578182fd5b613b958682870161362b565b9497909650939450505050565b60008060408385031215613bb4578182fd5b82359150602083013567ffffffffffffffff811115613bd1578182fd5b613bdd8582860161366b565b9150509250929050565b60008060408385031215613bf9578182fd5b50508035926020909101359150565b6001600160a01b03169052565b60008151808452815b81811015613c3a57602081850181015186830182015201613c1e565b81811115613c4b5782602083870101525b50601f01601f19169290920160200192915050565b60038110613c6a57fe5b9052565b60008284528282602086013780602084860101526020601f19601f85011685010190509392505050565b60048152631493d3d560e21b602082015260400190565b6001600160a01b0391909116815260200190565b60006001600160a01b03808716835280861660208401525083604083015260806060830152613cf56080830184613c15565b9695505050505050565b901515815260200190565b6000851515825284602083015283604083015260806060830152613cf56080830184613c15565b60208101610ce68284613c60565b60006020825261250a602083018486613c6e565b600060208252610ce36020830184613c15565b60208082526012908201527f73656e6465722063616e74206372656174650000000000000000000000000000604082015260600190565b60208082526013908201527f4368696c64206c696d6974207265616368656400000000000000000000000000604082015260600190565b60208082526039908201527f5a4e5352656769737472792e5f636865636b4f6e536574436f6e74726f6c6c6560408201527f723a206e6f7420612076616c696420636f6e74726f6c6c657200000000000000606082015260800190565b60208082526014908201527f706172656e7420646f65736e2774206578697374000000000000000000000000604082015260600190565b60208082526016908201527f646f6d61696e206661696c656420746f20706172736500000000000000000000604082015260600190565b60208082526016908201527f646f6d61696e20616c7265616479206372656174656400000000000000000000604082015260600190565b6020808252603c908201527f5a4e5352656769737472793a20636f6e74726f6c6c65722073657420746f206e60408201527f6f6e205a4e53436f6e74726f6c6c657220696d706c656d656e74657200000000606082015260800190565b600060208252613f47602083018451613c08565b60208301516040830152604083015160608301526060830151613f6d6080840182613c08565b5060808301516101808060a0850152613f8a6101a0850183613c15565b915060a0850151601f19808685030160c0870152613fa88483613c15565b935060c08701519150808685030160e087015250613fc68382613c15565b60e0870151610100878101919091528701516101208088019190915287015161014080880191909152870151909350905061016061400681870183613c60565b860151905061401785830182613c60565b5090949350505050565b90815260200190565b600085825260606020830152614044606083018587613c6e565b90506001600160a01b038316604083015295945050505050565b60008382526040602083015261250a6040830184613c15565b600082825260406020830152610ce360408301613c98565b6000838252606060208301526140a760608301613c98565b90506001600160a01b03831660408301529392505050565b918252602082015260400190565b60405181810167ffffffffffffffff811182821017156140e957fe5b604052919050565b6001600160e01b031981168114612ca957600080fdfe456e756d657261626c655365743a20696e646578206f7574206f6620626f756e64734552433732313a207472616e7366657220746f206e6f6e20455243373231526563656976657220696d706c656d656e7465724552433732313a207472616e7366657220746f20746865207a65726f2061646472657373416464726573733a20696e73756666696369656e742062616c616e636520666f722063616c6c4552433732313a206f70657261746f7220717565727920666f72206e6f6e6578697374656e7420746f6b656e4552433732313a20617070726f76652063616c6c6572206973206e6f74206f776e6572206e6f7220617070726f76656420666f7220616c6c4552433732313a2062616c616e636520717565727920666f7220746865207a65726f20616464726573734552433732313a206f776e657220717565727920666f72206e6f6e6578697374656e7420746f6b656e496e697469616c697a61626c653a20636f6e747261637420697320616c726561647920696e697469616c697a6564456e756d657261626c654d61703a20696e646578206f7574206f6620626f756e64734552433732313a20617070726f76656420717565727920666f72206e6f6e6578697374656e7420746f6b656e4552433732313a207472616e73666572206f6620746f6b656e2074686174206973206e6f74206f776e4552433732314d657461646174613a2055524920717565727920666f72206e6f6e6578697374656e7420746f6b656e4552433732313a20617070726f76616c20746f2063757272656e74206f776e65724552433732313a207472616e736665722063616c6c6572206973206e6f74206f776e6572206e6f7220617070726f766564a26469706673582212205a7db5813c442058a1da1de8954a822a92bdc278914428ac042bc0c762c0d8e664736f6c63430007060033",
  "linkReferences": {},
  "deployedLinkReferences": {}
}