{
  "_format": "hh-sol-artifact-1",
  "contractName": "DSTokenProxyable",
  "sourceName": "contracts/bancor/token/DSTokenProxyable.sol",
  "abi": [
    {
      "anonymous": false,
      "inputs": [
        {
          "indexed": true,
          "internalType": "address",
          "name": "_owner",
          "type": "address"
        },
        {
          "indexed": true,
          "internalType": "address",
          "name": "_spender",
          "type": "address"
        },
        {
          "indexed": false,
          "internalType": "uint256",
          "name": "_value",
          "type": "uint256"
        }
      ],
      "name": "Approval",
      "type": "event"
    },
    {
      "anonymous": false,
      "inputs": [
        {
          "indexed": false,
          "internalType": "uint256",
          "name": "_amount",
          "type": "uint256"
        }
      ],
      "name": "Destruction",
      "type": "event"
    },
    {
      "anonymous": false,
      "inputs": [
        {
          "indexed": false,
          "internalType": "uint256",
          "name": "_amount",
          "type": "uint256"
        }
      ],
      "name": "Issuance",
      "type": "event"
    },
    {
      "anonymous": false,
      "inputs": [
        {
          "indexed": true,
          "internalType": "address",
          "name": "_prevOwner",
          "type": "address"
        },
        {
          "indexed": true,
          "internalType": "address",
          "name": "_newOwner",
          "type": "address"
        }
      ],
      "name": "OwnerUpdate",
      "type": "event"
    },
    {
      "anonymous": false,
      "inputs": [
        {
          "indexed": true,
          "internalType": "address",
          "name": "_from",
          "type": "address"
        },
        {
          "indexed": true,
          "internalType": "address",
          "name": "_to",
          "type": "address"
        },
        {
          "indexed": false,
          "internalType": "uint256",
          "name": "_value",
          "type": "uint256"
        }
      ],
      "name": "Transfer",
      "type": "event"
    },
    {
      "inputs": [],
      "name": "acceptOwnership",
      "outputs": [],
      "stateMutability": "nonpayable",
      "type": "function"
    },
    {
      "inputs": [
        {
          "internalType": "address",
          "name": "",
          "type": "address"
        },
        {
          "internalType": "address",
          "name": "",
          "type": "address"
        }
      ],
      "name": "allowance",
      "outputs": [
        {
          "internalType": "uint256",
          "name": "",
          "type": "uint256"
        }
      ],
      "stateMutability": "view",
      "type": "function"
    },
    {
      "inputs": [
        {
          "internalType": "address",
          "name": "_spender",
          "type": "address"
        },
        {
          "internalType": "uint256",
          "name": "_value",
          "type": "uint256"
        }
      ],
      "name": "approve",
      "outputs": [
        {
          "internalType": "bool",
          "name": "",
          "type": "bool"
        }
      ],
      "stateMutability": "nonpayable",
      "type": "function"
    },
    {
      "inputs": [
        {
          "internalType": "address",
          "name": "",
          "type": "address"
        }
      ],
      "name": "balanceOf",
      "outputs": [
        {
          "internalType": "uint256",
          "name": "",
          "type": "uint256"
        }
      ],
      "stateMutability": "view",
      "type": "function"
    },
    {
      "inputs": [],
      "name": "decimals",
      "outputs": [
        {
          "internalType": "uint8",
          "name": "",
          "type": "uint8"
        }
      ],
      "stateMutability": "view",
      "type": "function"
    },
    {
      "inputs": [
        {
          "internalType": "address",
          "name": "_from",
          "type": "address"
        },
        {
          "internalType": "uint256",
          "name": "_amount",
          "type": "uint256"
        }
      ],
      "name": "destroy",
      "outputs": [],
      "stateMutability": "nonpayable",
      "type": "function"
    },
    {
      "inputs": [
        {
          "internalType": "string",
          "name": "_name",
          "type": "string"
        },
        {
          "internalType": "string",
          "name": "_symbol",
          "type": "string"
        },
        {
          "internalType": "uint8",
          "name": "_decimals",
          "type": "uint8"
        }
      ],
      "name": "initialize",
      "outputs": [],
      "stateMutability": "nonpayable",
      "type": "function"
    },
    {
      "inputs": [
        {
          "internalType": "string",
          "name": "_name",
          "type": "string"
        },
        {
          "internalType": "string",
          "name": "_symbol",
          "type": "string"
        },
        {
          "internalType": "uint8",
          "name": "_decimals",
          "type": "uint8"
        },
        {
          "internalType": "uint256",
          "name": "_totalSupply",
          "type": "uint256"
        }
      ],
      "name": "initialize",
      "outputs": [],
      "stateMutability": "nonpayable",
      "type": "function"
    },
    {
      "inputs": [
        {
          "internalType": "address",
          "name": "_to",
          "type": "address"
        },
        {
          "internalType": "uint256",
          "name": "_amount",
          "type": "uint256"
        }
      ],
      "name": "issue",
      "outputs": [],
      "stateMutability": "nonpayable",
      "type": "function"
    },
    {
      "inputs": [],
      "name": "name",
      "outputs": [
        {
          "internalType": "string",
          "name": "",
          "type": "string"
        }
      ],
      "stateMutability": "view",
      "type": "function"
    },
    {
      "inputs": [],
      "name": "newOwner",
      "outputs": [
        {
          "internalType": "address",
          "name": "",
          "type": "address"
        }
      ],
      "stateMutability": "view",
      "type": "function"
    },
    {
      "inputs": [],
      "name": "owner",
      "outputs": [
        {
          "internalType": "address",
          "name": "",
          "type": "address"
        }
      ],
      "stateMutability": "view",
      "type": "function"
    },
    {
      "inputs": [],
      "name": "symbol",
      "outputs": [
        {
          "internalType": "string",
          "name": "",
          "type": "string"
        }
      ],
      "stateMutability": "view",
      "type": "function"
    },
    {
      "inputs": [],
      "name": "totalSupply",
      "outputs": [
        {
          "internalType": "uint256",
          "name": "",
          "type": "uint256"
        }
      ],
      "stateMutability": "view",
      "type": "function"
    },
    {
      "inputs": [
        {
          "internalType": "address",
          "name": "_to",
          "type": "address"
        },
        {
          "internalType": "uint256",
          "name": "_value",
          "type": "uint256"
        }
      ],
      "name": "transfer",
      "outputs": [
        {
          "internalType": "bool",
          "name": "",
          "type": "bool"
        }
      ],
      "stateMutability": "nonpayable",
      "type": "function"
    },
    {
      "inputs": [
        {
          "internalType": "address",
          "name": "_from",
          "type": "address"
        },
        {
          "internalType": "address",
          "name": "_to",
          "type": "address"
        },
        {
          "internalType": "uint256",
          "name": "_value",
          "type": "uint256"
        }
      ],
      "name": "transferFrom",
      "outputs": [
        {
          "internalType": "bool",
          "name": "",
          "type": "bool"
        }
      ],
      "stateMutability": "nonpayable",
      "type": "function"
    },
    {
      "inputs": [
        {
          "internalType": "address",
          "name": "_newOwner",
          "type": "address"
        }
      ],
      "name": "transferOwnership",
      "outputs": [],
      "stateMutability": "nonpayable",
      "type": "function"
    }
  ],
  "bytecode": "0x608060405234801561001057600080fd5b506111bd806100206000396000f3fe608060405234801561001057600080fd5b506004361061010b5760003560e01c806379ba5097116100a2578063a24835d111610071578063a24835d114610522578063a9059cbb1461054e578063d4ee1d901461057a578063dd62ed3e14610582578063f2fde38b146105b05761010b565b806379ba5097146104c2578063867904b4146104ca5780638da5cb5b146104f657806395d89b411461051a5761010b565b806323b872dd116100de57806323b872dd14610317578063253279ad1461034d578063313ce5671461047e57806370a082311461049c5761010b565b806306fdde0314610110578063095ea7b31461018d5780631624f6c6146101cd57806318160ddd146102fd575b600080fd5b6101186105d6565b6040805160208082528351818301528351919283929083019185019080838360005b8381101561015257818101518382015260200161013a565b50505050905090810190601f16801561017f5780820380516001836020036101000a031916815260200191505b509250505060405180910390f35b6101b9600480360360408110156101a357600080fd5b506001600160a01b038135169060200135610663565b604080519115158252519081900360200190f35b6102fb600480360360608110156101e357600080fd5b810190602081018135600160201b8111156101fd57600080fd5b82018360208201111561020f57600080fd5b803590602001918460018302840111600160201b8311171561023057600080fd5b91908080601f0160208091040260200160405190810160405280939291908181526020018383808284376000920191909152509295949360208101935035915050600160201b81111561028257600080fd5b82018360208201111561029457600080fd5b803590602001918460018302840111600160201b831117156102b557600080fd5b91908080601f0160208091040260200160405190810160405280939291908181526020018383808284376000920191909152509295505050903560ff1691506106d79050565b005b610305610791565b60408051918252519081900360200190f35b6101b96004803603606081101561032d57600080fd5b506001600160a01b03813581169160208101359091169060400135610797565b6102fb6004803603608081101561036357600080fd5b810190602081018135600160201b81111561037d57600080fd5b82018360208201111561038f57600080fd5b803590602001918460018302840111600160201b831117156103b057600080fd5b91908080601f0160208091040260200160405190810160405280939291908181526020018383808284376000920191909152509295949360208101935035915050600160201b81111561040257600080fd5b82018360208201111561041457600080fd5b803590602001918460018302840111600160201b8311171561043557600080fd5b91908080601f0160208091040260200160405190810160405280939291908181526020018383808284376000920191909152509295505060ff83351693505050602001356107ac565b610486610934565b6040805160ff9092168252519081900360200190f35b610305600480360360208110156104b257600080fd5b50356001600160a01b031661093d565b6102fb61094f565b6102fb600480360360408110156104e057600080fd5b506001600160a01b038135169060200135610a08565b6104fe610ade565b604080516001600160a01b039092168252519081900360200190f35b610118610aed565b6102fb6004803603604081101561053857600080fd5b506001600160a01b038135169060200135610b45565b6101b96004803603604081101561056457600080fd5b506001600160a01b038135169060200135610bff565b6104fe610c12565b6103056004803603604081101561059857600080fd5b506001600160a01b0381358116916020013516610c21565b6102fb600480360360208110156105c657600080fd5b50356001600160a01b0316610c3e565b60018054604080516020600284861615610100026000190190941693909304601f8101849004840282018401909252818152929183018282801561065b5780601f106106305761010080835404028352916020019161065b565b820191906000526020600020905b81548152906001019060200180831161063e57829003601f168201915b505050505081565b60008261066f81610cbc565b3360008181526006602090815260408083206001600160a01b03891680855290835292819020879055805187815290519293927f8c5be1e5ebec7d5bd14f71427d1e84f3dd0314c0f7b2291e5b200ac8c7c3b925929181900390910190a35060019392505050565b600054610100900460ff16806106f057506106f0610d10565b806106fe575060005460ff16155b6107395760405162461bcd60e51b815260040180806020018281038252602e81526020018061113a602e913960400191505060405180910390fd5b600054610100900460ff16158015610764576000805460ff1961ff0019909116610100171660011790555b61076c610d16565b61077984848460006107ac565b801561078b576000805461ff00191690555b50505050565b60045481565b60006107a4848484610dc9565b949350505050565b600054610100900460ff16806107c557506107c5610d10565b806107d3575060005460ff16155b61080e5760405162461bcd60e51b815260040180806020018281038252602e81526020018061113a602e913960400191505060405180910390fd5b600054610100900460ff16158015610839576000805460ff1961ff0019909116610100171660011790555b6000855111610882576040805162461bcd60e51b815260206004820152601060248201526f4552525f494e56414c49445f4e414d4560801b604482015290519081900360640190fd5b60008451116108cd576040805162461bcd60e51b815260206004820152601260248201527111549497d253959053125117d4d6535093d360721b604482015290519081900360640190fd5b84516108e09060019060208801906110a6565b5083516108f49060029060208701906110a6565b506003805460ff191660ff85161790556004829055336000908152600560205260409020829055801561092d576000805461ff00191690555b5050505050565b60035460ff1681565b60056020526000908152604090205481565b6008546001600160a01b031633146109a2576040805162461bcd60e51b815260206004820152601160248201527011549497d050d0d154d4d7d11153925151607a1b604482015290519081900360640190fd5b6008546007546040516001600160a01b0392831692909116907f343765429aea5a34b3ff6a3785a98a5abb2597aca87bfbb58632c173d585373a90600090a360088054600780546001600160a01b03199081166001600160a01b03841617909155169055565b610a10610ec8565b81610a1a81610cbc565b82610a2481610f1d565b600454610a319084610f71565b6004556001600160a01b038416600090815260056020526040902054610a579084610f71565b6001600160a01b03851660009081526005602090815260409182902092909255805185815290517f9386c90217c323f58030f9dadcbc938f807a940f4ff41cd4cead9562f5da7dc3929181900390910190a16040805184815290516001600160a01b038616916000916000805160206111688339815191529181900360200190a350505050565b6007546001600160a01b031681565b6002805460408051602060018416156101000260001901909316849004601f8101849004840282018401909252818152929183018282801561065b5780601f106106305761010080835404028352916020019161065b565b610b4d610ec8565b6001600160a01b038216600090815260056020526040902054610b709082610fba565b6001600160a01b038316600090815260056020526040902055600454610b969082610fba565b6004556040805182815290516000916001600160a01b038516916000805160206111688339815191529181900360200190a36040805182815290517f9a1b418bc061a5d80270261562e6986a35d995f8051145f277be16103abd34539181900360200190a15050565b6000610c0b8383611007565b9392505050565b6008546001600160a01b031681565b600660209081526000928352604080842090915290825290205481565b610c46610ec8565b6007546001600160a01b0382811691161415610c9a576040805162461bcd60e51b815260206004820152600e60248201526d22a9292fa9a0a6a2afa7aba722a960911b604482015290519081900360640190fd5b600880546001600160a01b0319166001600160a01b0392909216919091179055565b6001600160a01b038116610d0d576040805162461bcd60e51b81526020600482015260136024820152724552525f494e56414c49445f4144445245535360681b604482015290519081900360640190fd5b50565b303b1590565b600054610100900460ff1680610d2f5750610d2f610d10565b80610d3d575060005460ff16155b610d785760405162461bcd60e51b815260040180806020018281038252602e81526020018061113a602e913960400191505060405180910390fd5b600054610100900460ff16158015610da3576000805460ff1961ff0019909116610100171660011790555b600780546001600160a01b031916331790558015610d0d576000805461ff001916905550565b600083610dd581610cbc565b83610ddf81610cbc565b6001600160a01b0386166000908152600660209081526040808320338452909152902054610e0d9085610fba565b6001600160a01b038716600081815260066020908152604080832033845282528083209490945591815260059091522054610e489085610fba565b6001600160a01b038088166000908152600560205260408082209390935590871681522054610e779085610f71565b6001600160a01b0380871660008181526005602090815260409182902094909455805188815290519193928a169260008051602061116883398151915292918290030190a350600195945050505050565b6007546001600160a01b03163314610f1b576040805162461bcd60e51b815260206004820152601160248201527011549497d050d0d154d4d7d11153925151607a1b604482015290519081900360640190fd5b565b6001600160a01b038116301415610d0d576040805162461bcd60e51b815260206004820152601360248201527222a9292fa0a2222922a9a9afa4a9afa9a2a62360691b604482015290519081900360640190fd5b600082820183811015610c0b576040805162461bcd60e51b815260206004820152600c60248201526b4552525f4f564552464c4f5760a01b604482015290519081900360640190fd5b600081831015611001576040805162461bcd60e51b815260206004820152600d60248201526c4552525f554e444552464c4f5760981b604482015290519081900360640190fd5b50900390565b60008261101381610cbc565b3360009081526005602052604090205461102d9084610fba565b33600090815260056020526040808220929092556001600160a01b038616815220546110599084610f71565b6001600160a01b0385166000818152600560209081526040918290209390935580518681529051919233926000805160206111688339815191529281900390910190a35060019392505050565b828054600181600116156101000203166002900490600052602060002090601f016020900481019282601f106110e757805160ff1916838001178555611114565b82800160010185558215611114579182015b828111156111145782518255916020019190600101906110f9565b50611120929150611124565b5090565b5b80821115611120576000815560010161112556fe496e697469616c697a61626c653a20636f6e747261637420697320616c726561647920696e697469616c697a6564ddf252ad1be2c89b69c2b068fc378daa952ba7f163c4a11628f55a4df523b3efa2646970667358221220d583a63c702678bcf4decc48a23b271d37f9b8a419600aed5f609b25ae135ed164736f6c634300060c0033",
  "linkReferences": {},
  "deployedLinkReferences": {}
}