{
  "_format": "hh-sol-artifact-1",
  "contractName": "BancorNetwork",
  "sourceName": "contracts/bancor/BancorNetwork.sol",
  "abi": [
    {
      "inputs": [
        {
          "internalType": "contract IContractRegistry",
          "name": "_registry",
          "type": "address"
        }
      ],
      "stateMutability": "nonpayable",
      "type": "constructor"
    },
    {
      "anonymous": false,
      "inputs": [
        {
          "indexed": true,
          "internalType": "contract IConverterAnchor",
          "name": "_smartToken",
          "type": "address"
        },
        {
          "indexed": true,
          "internalType": "contract IERC20Token",
          "name": "_fromToken",
          "type": "address"
        },
        {
          "indexed": true,
          "internalType": "contract IERC20Token",
          "name": "_toToken",
          "type": "address"
        },
        {
          "indexed": false,
          "internalType": "uint256",
          "name": "_fromAmount",
          "type": "uint256"
        },
        {
          "indexed": false,
          "internalType": "uint256",
          "name": "_toAmount",
          "type": "uint256"
        },
        {
          "indexed": false,
          "internalType": "address",
          "name": "_trader",
          "type": "address"
        }
      ],
      "name": "Conversion",
      "type": "event"
    },
    {
      "anonymous": false,
      "inputs": [
        {
          "indexed": true,
          "internalType": "address",
          "name": "_prevOwner",
          "type": "address"
        },
        {
          "indexed": true,
          "internalType": "address",
          "name": "_newOwner",
          "type": "address"
        }
      ],
      "name": "OwnerUpdate",
      "type": "event"
    },
    {
      "inputs": [],
      "name": "acceptOwnership",
      "outputs": [],
      "stateMutability": "nonpayable",
      "type": "function"
    },
    {
      "inputs": [
        {
          "internalType": "address[]",
          "name": "_path",
          "type": "address[]"
        },
        {
          "internalType": "uint256",
          "name": "_amount",
          "type": "uint256"
        },
        {
          "internalType": "uint256",
          "name": "_minReturn",
          "type": "uint256"
        }
      ],
      "name": "claimAndConvert",
      "outputs": [
        {
          "internalType": "uint256",
          "name": "",
          "type": "uint256"
        }
      ],
      "stateMutability": "nonpayable",
      "type": "function"
    },
    {
      "inputs": [
        {
          "internalType": "address[]",
          "name": "_path",
          "type": "address[]"
        },
        {
          "internalType": "uint256",
          "name": "_amount",
          "type": "uint256"
        },
        {
          "internalType": "uint256",
          "name": "_minReturn",
          "type": "uint256"
        },
        {
          "internalType": "address",
          "name": "_affiliateAccount",
          "type": "address"
        },
        {
          "internalType": "uint256",
          "name": "_affiliateFee",
          "type": "uint256"
        }
      ],
      "name": "claimAndConvert2",
      "outputs": [
        {
          "internalType": "uint256",
          "name": "",
          "type": "uint256"
        }
      ],
      "stateMutability": "nonpayable",
      "type": "function"
    },
    {
      "inputs": [
        {
          "internalType": "address[]",
          "name": "_path",
          "type": "address[]"
        },
        {
          "internalType": "uint256",
          "name": "_amount",
          "type": "uint256"
        },
        {
          "internalType": "uint256",
          "name": "_minReturn",
          "type": "uint256"
        },
        {
          "internalType": "address payable",
          "name": "_beneficiary",
          "type": "address"
        }
      ],
      "name": "claimAndConvertFor",
      "outputs": [
        {
          "internalType": "uint256",
          "name": "",
          "type": "uint256"
        }
      ],
      "stateMutability": "nonpayable",
      "type": "function"
    },
    {
      "inputs": [
        {
          "internalType": "address[]",
          "name": "_path",
          "type": "address[]"
        },
        {
          "internalType": "uint256",
          "name": "_amount",
          "type": "uint256"
        },
        {
          "internalType": "uint256",
          "name": "_minReturn",
          "type": "uint256"
        },
        {
          "internalType": "address payable",
          "name": "_beneficiary",
          "type": "address"
        },
        {
          "internalType": "address",
          "name": "_affiliateAccount",
          "type": "address"
        },
        {
          "internalType": "uint256",
          "name": "_affiliateFee",
          "type": "uint256"
        }
      ],
      "name": "claimAndConvertFor2",
      "outputs": [
        {
          "internalType": "uint256",
          "name": "",
          "type": "uint256"
        }
      ],
      "stateMutability": "nonpayable",
      "type": "function"
    },
    {
      "inputs": [
        {
          "internalType": "address[]",
          "name": "_path",
          "type": "address[]"
        },
        {
          "internalType": "contract IBancorX",
          "name": "_bancorX",
          "type": "address"
        },
        {
          "internalType": "uint256",
          "name": "_conversionId",
          "type": "uint256"
        },
        {
          "internalType": "uint256",
          "name": "_minReturn",
          "type": "uint256"
        },
        {
          "internalType": "address payable",
          "name": "_beneficiary",
          "type": "address"
        }
      ],
      "name": "completeXConversion",
      "outputs": [
        {
          "internalType": "uint256",
          "name": "",
          "type": "uint256"
        }
      ],
      "stateMutability": "nonpayable",
      "type": "function"
    },
    {
      "inputs": [
        {
          "internalType": "contract IERC20Token",
          "name": "_sourceToken",
          "type": "address"
        },
        {
          "internalType": "contract IERC20Token",
          "name": "_targetToken",
          "type": "address"
        }
      ],
      "name": "conversionPath",
      "outputs": [
        {
          "internalType": "address[]",
          "name": "",
          "type": "address[]"
        }
      ],
      "stateMutability": "view",
      "type": "function"
    },
    {
      "inputs": [
        {
          "internalType": "address[]",
          "name": "_path",
          "type": "address[]"
        },
        {
          "internalType": "uint256",
          "name": "_amount",
          "type": "uint256"
        },
        {
          "internalType": "uint256",
          "name": "_minReturn",
          "type": "uint256"
        }
      ],
      "name": "convert",
      "outputs": [
        {
          "internalType": "uint256",
          "name": "",
          "type": "uint256"
        }
      ],
      "stateMutability": "payable",
      "type": "function"
    },
    {
      "inputs": [
        {
          "internalType": "address[]",
          "name": "_path",
          "type": "address[]"
        },
        {
          "internalType": "uint256",
          "name": "_amount",
          "type": "uint256"
        },
        {
          "internalType": "uint256",
          "name": "_minReturn",
          "type": "uint256"
        },
        {
          "internalType": "address",
          "name": "_affiliateAccount",
          "type": "address"
        },
        {
          "internalType": "uint256",
          "name": "_affiliateFee",
          "type": "uint256"
        }
      ],
      "name": "convert2",
      "outputs": [
        {
          "internalType": "uint256",
          "name": "",
          "type": "uint256"
        }
      ],
      "stateMutability": "payable",
      "type": "function"
    },
    {
      "inputs": [
        {
          "internalType": "address[]",
          "name": "_path",
          "type": "address[]"
        },
        {
          "internalType": "uint256",
          "name": "_amount",
          "type": "uint256"
        },
        {
          "internalType": "uint256",
          "name": "_minReturn",
          "type": "uint256"
        },
        {
          "internalType": "address payable",
          "name": "_beneficiary",
          "type": "address"
        },
        {
          "internalType": "address",
          "name": "_affiliateAccount",
          "type": "address"
        },
        {
          "internalType": "uint256",
          "name": "_affiliateFee",
          "type": "uint256"
        }
      ],
      "name": "convertByPath",
      "outputs": [
        {
          "internalType": "uint256",
          "name": "",
          "type": "uint256"
        }
      ],
      "stateMutability": "payable",
      "type": "function"
    },
    {
      "inputs": [
        {
          "internalType": "address[]",
          "name": "_path",
          "type": "address[]"
        },
        {
          "internalType": "uint256",
          "name": "_amount",
          "type": "uint256"
        },
        {
          "internalType": "uint256",
          "name": "_minReturn",
          "type": "uint256"
        },
        {
          "internalType": "address payable",
          "name": "_beneficiary",
          "type": "address"
        }
      ],
      "name": "convertFor",
      "outputs": [
        {
          "internalType": "uint256",
          "name": "",
          "type": "uint256"
        }
      ],
      "stateMutability": "payable",
      "type": "function"
    },
    {
      "inputs": [
        {
          "internalType": "address[]",
          "name": "_path",
          "type": "address[]"
        },
        {
          "internalType": "uint256",
          "name": "_amount",
          "type": "uint256"
        },
        {
          "internalType": "uint256",
          "name": "_minReturn",
          "type": "uint256"
        },
        {
          "internalType": "address payable",
          "name": "_beneficiary",
          "type": "address"
        },
        {
          "internalType": "address",
          "name": "_affiliateAccount",
          "type": "address"
        },
        {
          "internalType": "uint256",
          "name": "_affiliateFee",
          "type": "uint256"
        }
      ],
      "name": "convertFor2",
      "outputs": [
        {
          "internalType": "uint256",
          "name": "",
          "type": "uint256"
        }
      ],
      "stateMutability": "payable",
      "type": "function"
    },
    {
      "inputs": [
        {
          "internalType": "contract IERC20Token",
          "name": "",
          "type": "address"
        }
      ],
      "name": "etherTokens",
      "outputs": [
        {
          "internalType": "bool",
          "name": "",
          "type": "bool"
        }
      ],
      "stateMutability": "view",
      "type": "function"
    },
    {
      "inputs": [
        {
          "internalType": "address[]",
          "name": "_path",
          "type": "address[]"
        },
        {
          "internalType": "uint256",
          "name": "_amount",
          "type": "uint256"
        }
      ],
      "name": "getReturnByPath",
      "outputs": [
        {
          "internalType": "uint256",
          "name": "",
          "type": "uint256"
        },
        {
          "internalType": "uint256",
          "name": "",
          "type": "uint256"
        }
      ],
      "stateMutability": "view",
      "type": "function"
    },
    {
      "inputs": [],
      "name": "maxAffiliateFee",
      "outputs": [
        {
          "internalType": "uint256",
          "name": "",
          "type": "uint256"
        }
      ],
      "stateMutability": "view",
      "type": "function"
    },
    {
      "inputs": [],
      "name": "newOwner",
      "outputs": [
        {
          "internalType": "address",
          "name": "",
          "type": "address"
        }
      ],
      "stateMutability": "view",
      "type": "function"
    },
    {
      "inputs": [],
      "name": "onlyOwnerCanUpdateRegistry",
      "outputs": [
        {
          "internalType": "bool",
          "name": "",
          "type": "bool"
        }
      ],
      "stateMutability": "view",
      "type": "function"
    },
    {
      "inputs": [],
      "name": "owner",
      "outputs": [
        {
          "internalType": "address",
          "name": "",
          "type": "address"
        }
      ],
      "stateMutability": "view",
      "type": "function"
    },
    {
      "inputs": [],
      "name": "prevRegistry",
      "outputs": [
        {
          "internalType": "contract IContractRegistry",
          "name": "",
          "type": "address"
        }
      ],
      "stateMutability": "view",
      "type": "function"
    },
    {
      "inputs": [
        {
          "internalType": "address[]",
          "name": "_path",
          "type": "address[]"
        },
        {
          "internalType": "uint256",
          "name": "_amount",
          "type": "uint256"
        }
      ],
      "name": "rateByPath",
      "outputs": [
        {
          "internalType": "uint256",
          "name": "",
          "type": "uint256"
        }
      ],
      "stateMutability": "view",
      "type": "function"
    },
    {
      "inputs": [
        {
          "internalType": "contract IEtherToken",
          "name": "_token",
          "type": "address"
        },
        {
          "internalType": "bool",
          "name": "_register",
          "type": "bool"
        }
      ],
      "name": "registerEtherToken",
      "outputs": [],
      "stateMutability": "nonpayable",
      "type": "function"
    },
    {
      "inputs": [],
      "name": "registry",
      "outputs": [
        {
          "internalType": "contract IContractRegistry",
          "name": "",
          "type": "address"
        }
      ],
      "stateMutability": "view",
      "type": "function"
    },
    {
      "inputs": [],
      "name": "restoreRegistry",
      "outputs": [],
      "stateMutability": "nonpayable",
      "type": "function"
    },
    {
      "inputs": [
        {
          "internalType": "bool",
          "name": "_onlyOwnerCanUpdateRegistry",
          "type": "bool"
        }
      ],
      "name": "restrictRegistryUpdate",
      "outputs": [],
      "stateMutability": "nonpayable",
      "type": "function"
    },
    {
      "inputs": [
        {
          "internalType": "uint256",
          "name": "_maxAffiliateFee",
          "type": "uint256"
        }
      ],
      "name": "setMaxAffiliateFee",
      "outputs": [],
      "stateMutability": "nonpayable",
      "type": "function"
    },
    {
      "inputs": [
        {
          "internalType": "address",
          "name": "_newOwner",
          "type": "address"
        }
      ],
      "name": "transferOwnership",
      "outputs": [],
      "stateMutability": "nonpayable",
      "type": "function"
    },
    {
      "inputs": [],
      "name": "updateRegistry",
      "outputs": [],
      "stateMutability": "nonpayable",
      "type": "function"
    },
    {
      "inputs": [
        {
          "internalType": "contract IERC20Token",
          "name": "_token",
          "type": "address"
        },
        {
          "internalType": "address",
          "name": "_to",
          "type": "address"
        },
        {
          "internalType": "uint256",
          "name": "_amount",
          "type": "uint256"
        }
      ],
      "name": "withdrawTokens",
      "outputs": [],
      "stateMutability": "nonpayable",
      "type": "function"
    },
    {
      "inputs": [
        {
          "internalType": "address[]",
          "name": "_path",
          "type": "address[]"
        },
        {
          "internalType": "uint256",
          "name": "_amount",
          "type": "uint256"
        },
        {
          "internalType": "uint256",
          "name": "_minReturn",
          "type": "uint256"
        },
        {
          "internalType": "bytes32",
          "name": "_targetBlockchain",
          "type": "bytes32"
        },
        {
          "internalType": "bytes32",
          "name": "_targetAccount",
          "type": "bytes32"
        },
        {
          "internalType": "uint256",
          "name": "_conversionId",
          "type": "uint256"
        }
      ],
      "name": "xConvert",
      "outputs": [
        {
          "internalType": "uint256",
          "name": "",
          "type": "uint256"
        }
      ],
      "stateMutability": "payable",
      "type": "function"
    },
    {
      "inputs": [
        {
          "internalType": "address[]",
          "name": "_path",
          "type": "address[]"
        },
        {
          "internalType": "uint256",
          "name": "_amount",
          "type": "uint256"
        },
        {
          "internalType": "uint256",
          "name": "_minReturn",
          "type": "uint256"
        },
        {
          "internalType": "bytes32",
          "name": "_targetBlockchain",
          "type": "bytes32"
        },
        {
          "internalType": "bytes32",
          "name": "_targetAccount",
          "type": "bytes32"
        },
        {
          "internalType": "uint256",
          "name": "_conversionId",
          "type": "uint256"
        },
        {
          "internalType": "address",
          "name": "_affiliateAccount",
          "type": "address"
        },
        {
          "internalType": "uint256",
          "name": "_affiliateFee",
          "type": "uint256"
        }
      ],
      "name": "xConvert2",
      "outputs": [
        {
          "internalType": "uint256",
          "name": "",
          "type": "uint256"
        }
      ],
      "stateMutability": "payable",
      "type": "function"
    }
  ],
  "bytecode": "0x60806040526003805460ff60a81b191690556175306004553480156200002457600080fd5b5060405162003c2438038062003c24833981810160405260208110156200004a57600080fd5b5051600080546001600160a01b0319163317905580806200006b81620000e6565b50600280546001600160a01b039092166001600160a01b03199283168117909155600380549092161790555073eeeeeeeeeeeeeeeeeeeeeeeeeeeeeeeeeeeeeeee60005260056020527fa1829a9003092132f585b6ccdd167c19fe9774dbdea4260287e8a8e8ca8185d7805460ff1916600117905562000145565b6001600160a01b03811662000142576040805162461bcd60e51b815260206004820152601360248201527f4552525f494e56414c49445f4144445245535300000000000000000000000000604482015290519081900360640190fd5b50565b613acf80620001556000396000f3fe6080604052600436106101cd5760003560e01c80638da5cb5b116100f7578063c98fefed11610095578063e57738e511610064578063e57738e514610cbd578063f2fde38b14610ce0578063f3898a9714610d13578063f3bc7d2a14610d29576101cd565b8063c98fefed14610b37578063cb32564e14610b4d578063d4ee1d9014610c1d578063d734fa1914610c32576101cd565b8063b4a176d3116100d1578063b4a176d3146108ec578063b77d239b14610901578063c52173de146109c8578063c7ba24bc14610a82576101cd565b80638da5cb5b1461074c578063ab6214ce14610761578063b1e9932b14610828576101cd565b80635d732ff21161016f5780637b1039991161013e5780637b103999146105855780637f9c0ecd1461059a5780638077ccf71461064c57806389f9cc611461067f576101cd565b80635d732ff2146104e75780635e35359e146104fc57806361cd756e1461053f57806379ba509714610570576101cd565b80632978c10e116101ab5780632978c10e146103065780632fe8a6ad146103ec57806349d10b6414610415578063569706eb1461042a576101cd565b8063024c7ec7146101d257806302ef521e146102005780630c8496cc1461023b575b600080fd5b3480156101de57600080fd5b506101fe600480360360208110156101f557600080fd5b50351515610d53565b005b34801561020c57600080fd5b506101fe6004803603604081101561022357600080fd5b506001600160a01b0381351690602001351515610d94565b34801561024757600080fd5b506102ed6004803603604081101561025e57600080fd5b81019060208101813564010000000081111561027957600080fd5b82018360208201111561028b57600080fd5b803590602001918460208302840111640100000000831117156102ad57600080fd5b9190808060200260200160405190810160405280939291908181526020018383602002808284376000920191909152509295505091359250610ddd915050565b6040805192835260208301919091528051918290030190f35b34801561031257600080fd5b506103da600480360360c081101561032957600080fd5b81019060208101813564010000000081111561034457600080fd5b82018360208201111561035657600080fd5b8035906020019184602083028401116401000000008311171561037857600080fd5b919080806020026020016040519081016040528093929190818152602001838360200280828437600092019190915250929550508235935050506020810135906001600160a01b03604082013581169160608101359091169060800135610df5565b60408051918252519081900360200190f35b3480156103f857600080fd5b50610401610e10565b604080519115158252519081900360200190f35b34801561042157600080fd5b506101fe610e20565b6103da600480360360a081101561044057600080fd5b81019060208101813564010000000081111561045b57600080fd5b82018360208201111561046d57600080fd5b8035906020019184602083028401116401000000008311171561048f57600080fd5b919080806020026020016040519081016040528093929190818152602001838360200280828437600092019190915250929550508235935050506020810135906001600160a01b036040820135169060600135611061565b3480156104f357600080fd5b506103da61107c565b34801561050857600080fd5b506101fe6004803603606081101561051f57600080fd5b506001600160a01b03813581169160208101359091169060400135611082565b34801561054b57600080fd5b506105546110bb565b604080516001600160a01b039092168252519081900360200190f35b34801561057c57600080fd5b506101fe6110ca565b34801561059157600080fd5b5061055461118e565b3480156105a657600080fd5b506103da600480360360408110156105bd57600080fd5b8101906020810181356401000000008111156105d857600080fd5b8201836020820111156105ea57600080fd5b8035906020019184602083028401116401000000008311171561060c57600080fd5b919080806020026020016040519081016040528093929190818152602001838360200280828437600092019190915250929550509135925061119d915050565b34801561065857600080fd5b506104016004803603602081101561066f57600080fd5b50356001600160a01b0316611909565b34801561068b57600080fd5b506103da600480360360a08110156106a257600080fd5b8101906020810181356401000000008111156106bd57600080fd5b8201836020820111156106cf57600080fd5b803590602001918460208302840111640100000000831117156106f157600080fd5b919080806020026020016040519081016040528093929190818152602001838360200280828437600092019190915250929550506001600160a01b03833581169450602084013593604081013593506060013516905061191e565b34801561075857600080fd5b50610554611a95565b6103da600480360360c081101561077757600080fd5b81019060208101813564010000000081111561079257600080fd5b8201836020820111156107a457600080fd5b803590602001918460208302840111640100000000831117156107c657600080fd5b919080806020026020016040519081016040528093929190818152602001838360200280828437600092019190915250929550508235935050506020810135906001600160a01b03604082013581169160608101359091169060800135611aa4565b34801561083457600080fd5b506103da6004803603608081101561084b57600080fd5b81019060208101813564010000000081111561086657600080fd5b82018360208201111561087857600080fd5b8035906020019184602083028401116401000000008311171561089a57600080fd5b91908080602002602001604051908101604052809392919081815260200183836020028082843760009201919091525092955050823593505050602081013590604001356001600160a01b0316611aca565b3480156108f857600080fd5b506101fe611ae4565b6103da600480360360c081101561091757600080fd5b81019060208101813564010000000081111561093257600080fd5b82018360208201111561094457600080fd5b8035906020019184602083028401116401000000008311171561096657600080fd5b919080806020026020016040519081016040528093929190818152602001838360200280828437600092019190915250929550508235935050506020810135906001600160a01b03604082013581169160608101359091169060800135611b1d565b6103da600480360360c08110156109de57600080fd5b8101906020810181356401000000008111156109f957600080fd5b820183602082011115610a0b57600080fd5b80359060200191846020830284011164010000000083111715610a2d57600080fd5b9190808060200260200160405190810160405280939291908181526020018383602002808284376000920191909152509295505082359350505060208101359060408101359060608101359060800135611d0d565b348015610a8e57600080fd5b506103da60048036036060811015610aa557600080fd5b810190602081018135640100000000811115610ac057600080fd5b820183602082011115610ad257600080fd5b80359060200191846020830284011164010000000083111715610af457600080fd5b9190808060200260200160405190810160405280939291908181526020018383602002808284376000920191909152509295505082359350505060200135611d20565b6103da6004803603608081101561084b57600080fd5b6103da6004803603610100811015610b6457600080fd5b810190602081018135640100000000811115610b7f57600080fd5b820183602082011115610b9157600080fd5b80359060200191846020830284011164010000000083111715610bb357600080fd5b919080806020026020016040519081016040528093929190818152602001838360200280828437600092019190915250929550508235935050506020810135906040810135906060810135906080810135906001600160a01b0360a0820135169060c00135611d3a565b348015610c2957600080fd5b50610554611ec4565b348015610c3e57600080fd5b50610c6d60048036036040811015610c5557600080fd5b506001600160a01b0381358116916020013516611ed3565b60408051602080825283518183015283519192839290830191858101910280838360005b83811015610ca9578181015183820152602001610c91565b505050509050019250505060405180910390f35b348015610cc957600080fd5b506103da600480360360a081101561044057600080fd5b348015610cec57600080fd5b506101fe60048036036020811015610d0357600080fd5b50356001600160a01b0316612032565b6103da60048036036060811015610aa557600080fd5b348015610d3557600080fd5b506101fe60048036036020811015610d4c57600080fd5b50356120cc565b610d5b612131565b60038054911515600160a01b027fffffffffffffffffffffff00ffffffffffffffffffffffffffffffffffffffff909216919091179055565b610d9c612131565b81610da681612186565b82610db0816121e4565b50506001600160a01b03919091166000908152600560205260409020805460ff1916911515919091179055565b600080610dea848461119d565b946000945092505050565b6000610e05878787878787611b1d565b979650505050505050565b600354600160a01b900460ff1681565b6000546001600160a01b0316331480610e435750600354600160a01b900460ff16155b610e88576040805162461bcd60e51b815260206004820152601160248201527011549497d050d0d154d4d7d11153925151607a1b604482015290519081900360640190fd5b6000610eb37f436f6e7472616374526567697374727900000000000000000000000000000000612242565b6002549091506001600160a01b03808316911614801590610edc57506001600160a01b03811615155b610f2d576040805162461bcd60e51b815260206004820152601460248201527f4552525f494e56414c49445f5245474953545259000000000000000000000000604482015290519081900360640190fd5b60006001600160a01b0316816001600160a01b031663bb34534c7f436f6e74726163745265676973747279000000000000000000000000000000006040518263ffffffff1660e01b81526004018082815260200191505060206040518083038186803b158015610f9c57600080fd5b505afa158015610fb0573d6000803e3d6000fd5b505050506040513d6020811015610fc657600080fd5b50516001600160a01b03161415611024576040805162461bcd60e51b815260206004820152601460248201527f4552525f494e56414c49445f5245474953545259000000000000000000000000604482015290519081900360640190fd5b60028054600380546001600160a01b0380841673ffffffffffffffffffffffffffffffffffffffff19928316179092559091169216919091179055565b600061107286868660008787611b1d565b9695505050505050565b60045481565b61108a612131565b8261109481612186565b8261109e81612186565b836110a8816121e4565b6110b38686866122db565b505050505050565b6003546001600160a01b031681565b6001546001600160a01b0316331461111d576040805162461bcd60e51b815260206004820152601160248201527011549497d050d0d154d4d7d11153925151607a1b604482015290519081900360640190fd5b600154600080546040516001600160a01b0393841693909116917f343765429aea5a34b3ff6a3785a98a5abb2597aca87bfbb58632c173d585373a91a3600180546000805473ffffffffffffffffffffffffffffffffffffffff199081166001600160a01b03841617909155169055565b6002546001600160a01b031681565b6000806000806000806000806111d27f42616e636f72466f726d756c6100000000000000000000000000000000000000612242565b905088965060028a511180156111f3575060028a51816111ee57fe5b066001145b611244576040805162461bcd60e51b815260206004820152601060248201527f4552525f494e56414c49445f5041544800000000000000000000000000000000604482015290519081900360640190fd5b60025b8a518110156118f85760008b600283038151811061126157fe5b6020026020010151905060008c600184038151811061127c57fe5b6020026020010151905060008d848151811061129457fe5b60200260200101519050816001600160a01b0316638da5cb5b6040518163ffffffff1660e01b815260040160206040518083038186803b1580156112d757600080fd5b505afa1580156112eb573d6000803e3d6000fd5b505050506040513d602081101561130157600080fd5b5051955061130f868461245e565b925061131b868261245e565b9050816001600160a01b0316816001600160a01b0316141561162157600384108061136e57508d600385038151811061135057fe5b60200260200101516001600160a01b0316826001600160a01b031614155b156113db57816001600160a01b03166318160ddd6040518163ffffffff1660e01b815260040160206040518083038186803b1580156113ac57600080fd5b505afa1580156113c0573d6000803e3d6000fd5b505050506040513d60208110156113d657600080fd5b505198505b856001600160a01b031663d8959512846040518263ffffffff1660e01b815260040180826001600160a01b0316815260200191505060206040518083038186803b15801561142857600080fd5b505afa15801561143c573d6000803e3d6000fd5b505050506040513d602081101561145257600080fd5b505160408051630e53aae960e01b81526001600160a01b0386811660048301529151929a5090881691630e53aae99160248082019260a092909190829003018186803b1580156114a157600080fd5b505afa1580156114b5573d6000803e3d6000fd5b505050506040513d60a08110156114cb57600080fd5b50602090810151604080517ff3250fe2000000000000000000000000000000000000000000000000000000008152600481018d9052602481018c905263ffffffff83166044820152606481018f905290519199506001600160a01b0388169263f3250fe292608480840193829003018186803b15801561154a57600080fd5b505afa15801561155e573d6000803e3d6000fd5b505050506040513d602081101561157457600080fd5b505160408051632bce69e560e11b81529051919c5061160991620f424091611603916001600160a01b038b169163579cd3ca916004808301926020929190829003018186803b1580156115c657600080fd5b505afa1580156115da573d6000803e3d6000fd5b505050506040513d60208110156115f057600080fd5b50518e9063ffffffff908116906124be16565b9061251c565b9a8b90039a995061161a898c612586565b98506118ed565b816001600160a01b0316836001600160a01b031614156118db57600384108061167257508d600385038151811061165457fe5b60200260200101516001600160a01b0316826001600160a01b031614155b156116df57816001600160a01b03166318160ddd6040518163ffffffff1660e01b815260040160206040518083038186803b1580156116b057600080fd5b505afa1580156116c4573d6000803e3d6000fd5b505050506040513d60208110156116da57600080fd5b505198505b856001600160a01b031663d8959512826040518263ffffffff1660e01b815260040180826001600160a01b0316815260200191505060206040518083038186803b15801561172c57600080fd5b505afa158015611740573d6000803e3d6000fd5b505050506040513d602081101561175657600080fd5b505160408051630e53aae960e01b81526001600160a01b0384811660048301529151929a5090881691630e53aae99160248082019260a092909190829003018186803b1580156117a557600080fd5b505afa1580156117b9573d6000803e3d6000fd5b505050506040513d60a08110156117cf57600080fd5b50602090810151604080517f76cf0b56000000000000000000000000000000000000000000000000000000008152600481018d9052602481018c905263ffffffff83166044820152606481018f905290519199506001600160a01b038816926376cf0b5692608480840193829003018186803b15801561184e57600080fd5b505afa158015611862573d6000803e3d6000fd5b505050506040513d602081101561187857600080fd5b505160408051632bce69e560e11b81529051919c506118ca91620f424091611603916001600160a01b038b169163579cd3ca916004808301926020929190829003018186803b1580156115c657600080fd5b9a8b90039a995061161a898c6125cf565b6118e78684838e61262c565b909b5099505b505050600201611247565b509596505050505050505b92915050565b60056020526000908152604090205460ff1681565b6000846001600160a01b031663fc0c546a6040518163ffffffff1660e01b815260040160206040518083038186803b15801561195957600080fd5b505afa15801561196d573d6000803e3d6000fd5b505050506040513d602081101561198357600080fd5b505186516001600160a01b0390911690879060009061199e57fe5b60200260200101516001600160a01b031614611a01576040805162461bcd60e51b815260206004820152601860248201527f4552525f494e56414c49445f534f555243455f544f4b454e0000000000000000604482015290519081900360640190fd5b6000856001600160a01b031663aafd6b7686336040518363ffffffff1660e01b815260040180838152602001826001600160a01b031681526020019250505060206040518083038186803b158015611a5857600080fd5b505afa158015611a6c573d6000803e3d6000fd5b505050506040513d6020811015611a8257600080fd5b50519050610e0587828686600080611b1d565b6000546001600160a01b031681565b600084611ab0816127b9565b611abe888888888888611b1d565b98975050505050505050565b6000611adb85858585600080611b1d565b95945050505050565b611aec612131565b6003546002805473ffffffffffffffffffffffffffffffffffffffff19166001600160a01b03909216919091179055565b6000611b2761280e565b6003805460ff60a81b1916600160a81b17905584611b44816127b9565b60028851118015611b6057506002885181611b5b57fe5b066001145b611bb1576040805162461bcd60e51b815260206004820152601060248201527f4552525f494e56414c49445f5041544800000000000000000000000000000000604482015290519081900360640190fd5b611be488600081518110611bc157fe5b602002602001015189600181518110611bd657fe5b60200260200101518961286d565b60006001600160a01b038516611c4c578315611c47576040805162461bcd60e51b815260206004820152601960248201527f4552525f494e56414c49445f414646494c494154455f46454500000000000000604482015290519081900360640190fd5b611cb3565b836000108015611c5e57506004548411155b611caf576040805162461bcd60e51b815260206004820152601960248201527f4552525f494e56414c49445f414646494c494154455f46454500000000000000604482015290519081900360640190fd5b5060015b336001600160a01b03871615611cc65750855b6060611cd38b8385612a58565b90506000611ce4828c8c8b8b612e55565b9050611cf182828561334d565b6003805460ff60a81b191690559b9a5050505050505050505050565b6000610e05878787878787600080611d3a565b6000611d328484846000806000611b1d565b949350505050565b600086611d46816127b9565b60008a60018c510381518110611d5857fe5b602002602001015190506000611d8d7f42616e636f725800000000000000000000000000000000000000000000000000612242565b9050611da36721272a2a37b5b2b760c11b612242565b6001600160a01b0316826001600160a01b031614611e08576040805162461bcd60e51b815260206004820152601860248201527f4552525f494e56414c49445f5441524745545f544f4b454e0000000000000000604482015290519081900360640190fd5b6000611e188d8d8d308b8b611b1d565b9050611e2583838361342b565b604080517f427c0374000000000000000000000000000000000000000000000000000000008152600481018c9052602481018b905260448101839052606481018a905290516001600160a01b0384169163427c037491608480830192600092919082900301818387803b158015611e9b57600080fd5b505af1158015611eaf573d6000803e3d6000fd5b50929f9e505050505050505050505050505050565b6001546001600160a01b031681565b60606000611f007f436f6e76657273696f6e5061746846696e646572000000000000000000000000612242565b9050806001600160a01b031663a1c421cd85856040518363ffffffff1660e01b815260040180836001600160a01b03168152602001826001600160a01b031681526020019250505060006040518083038186803b158015611f6057600080fd5b505afa158015611f74573d6000803e3d6000fd5b505050506040513d6000823e601f3d908101601f191682016040526020811015611f9d57600080fd5b8101908080516040519392919084640100000000821115611fbd57600080fd5b908301906020820185811115611fd257600080fd5b8251866020820283011164010000000082111715611fef57600080fd5b82525081516020918201928201910280838360005b8381101561201c578181015183820152602001612004565b5050505090500160405250505091505092915050565b61203a612131565b6000546001600160a01b038281169116141561209d576040805162461bcd60e51b815260206004820152600e60248201527f4552525f53414d455f4f574e4552000000000000000000000000000000000000604482015290519081900360640190fd5b6001805473ffffffffffffffffffffffffffffffffffffffff19166001600160a01b0392909216919091179055565b6120d4612131565b620f424081111561212c576040805162461bcd60e51b815260206004820152601960248201527f4552525f494e56414c49445f414646494c494154455f46454500000000000000604482015290519081900360640190fd5b600455565b6000546001600160a01b03163314612184576040805162461bcd60e51b815260206004820152601160248201527011549497d050d0d154d4d7d11153925151607a1b604482015290519081900360640190fd5b565b6001600160a01b0381166121e1576040805162461bcd60e51b815260206004820152601360248201527f4552525f494e56414c49445f4144445245535300000000000000000000000000604482015290519081900360640190fd5b50565b6001600160a01b0381163014156121e1576040805162461bcd60e51b815260206004820152601360248201527f4552525f414444524553535f49535f53454c4600000000000000000000000000604482015290519081900360640190fd5b600254604080517fbb34534c0000000000000000000000000000000000000000000000000000000081526004810184905290516000926001600160a01b03169163bb34534c916024808301926020929190829003018186803b1580156122a757600080fd5b505afa1580156122bb573d6000803e3d6000fd5b505050506040513d60208110156122d157600080fd5b505190505b919050565b604080516001600160a01b038481166024830152604480830185905283518084039091018152606490920183526020820180516001600160e01b03167fa9059cbb00000000000000000000000000000000000000000000000000000000178152925182516000946060949389169392918291908083835b602083106123715780518252601f199092019160209182019101612352565b6001836020036101000a0380198251168184511680821785525050505050509050019150506000604051808303816000865af19150503d80600081146123d3576040519150601f19603f3d011682016040523d82523d6000602084013e6123d8565b606091505b5091509150818015612406575080511580612406575080806020019051602081101561240357600080fd5b50515b612457576040805162461bcd60e51b815260206004820152601360248201527f4552525f5452414e534645525f4641494c454400000000000000000000000000604482015290519081900360640190fd5b5050505050565b6001600160a01b03811660009081526005602052604081205460ff16612485575080611903565b61248e836134ee565b156124ae575073eeeeeeeeeeeeeeeeeeeeeeeeeeeeeeeeeeeeeeee611903565b6124b78361361e565b9392505050565b6000826124cd57506000611903565b828202828482816124da57fe5b04146124b7576040805162461bcd60e51b815260206004820152600c60248201526b4552525f4f564552464c4f5760a01b604482015290519081900360640190fd5b6000808211612572576040805162461bcd60e51b815260206004820152601260248201527f4552525f4449564944455f42595f5a45524f0000000000000000000000000000604482015290519081900360640190fd5b600082848161257d57fe5b04949350505050565b6000828201838110156124b7576040805162461bcd60e51b815260206004820152600c60248201526b4552525f4f564552464c4f5760a01b604482015290519081900360640190fd5b600081831015612626576040805162461bcd60e51b815260206004820152600d60248201527f4552525f554e444552464c4f5700000000000000000000000000000000000000604482015290519081900360640190fd5b50900390565b604080516001600160a01b0380861660248301528085166044830152606480830185905283518084039091018152608490920183526020820180516001600160e01b03167f1e1401f800000000000000000000000000000000000000000000000000000000178152925182516000948594938593606093918c169286928291908083835b602083106126cf5780518252601f1990920191602091820191016126b0565b6001836020036101000a038019825116818451168082178552505050505050905001915050600060405180830381855afa9150503d806000811461272f576040519150601f19603f3d011682016040523d82523d6000602084013e612734565b606091505b509150915081156127a5578051604014156127755780806020019051604081101561275e57600080fd5b50805160209091015190955093506127b092505050565b8051602014156127a55780806020019051602081101561279457600080fd5b50519450600093506127b092505050565b600080945094505050505b94509492505050565b600081116121e1576040805162461bcd60e51b815260206004820152600e60248201527f4552525f5a45524f5f56414c5545000000000000000000000000000000000000604482015290519081900360640190fd5b600354600160a81b900460ff1615612184576040805162461bcd60e51b815260206004820152600e60248201527f4552525f5245454e5452414e4359000000000000000000000000000000000000604482015290519081900360640190fd5b6000826001600160a01b0316638da5cb5b6040518163ffffffff1660e01b815260040160206040518083038186803b1580156128a857600080fd5b505afa1580156128bc573d6000803e3d6000fd5b505050506040513d60208110156128d257600080fd5b5051905060006128e1826134ee565b905034156129a45782341461293d576040805162461bcd60e51b815260206004820152601760248201527f4552525f4554485f414d4f554e545f4d49534d41544348000000000000000000604482015290519081900360640190fd5b8061299f5761294b8261361e565b6001600160a01b031663d0e30db0346040518263ffffffff1660e01b81526004016000604051808303818588803b15801561298557600080fd5b505af1158015612999573d6000803e3d6000fd5b50505050505b612457565b6001600160a01b03851660009081526005602052604090205460ff1615612a3a576129d18533308661375d565b801561299f57846001600160a01b0316632e1a7d4d846040518263ffffffff1660e01b815260040180828152602001915050600060405180830381600087803b158015612a1d57600080fd5b505af1158015612a31573d6000803e3d6000fd5b50505050612457565b8015612a4c5761299f8533848661375d565b6124578533308661375d565b6060806002855181612a6657fe5b0467ffffffffffffffff81118015612a7d57600080fd5b50604051908082528060200260200182016040528015612ab757816020015b612aa4613a5d565b815260200190600190039081612a9c5790505b509050600080612ad16721272a2a37b5b2b760c11b612242565b905060005b6001885103811015612c65576000888260010181518110612af357fe5b602002602001015190506000816001600160a01b0316638da5cb5b6040518163ffffffff1660e01b815260040160206040518083038186803b158015612b3857600080fd5b505afa158015612b4c573d6000803e3d6000fd5b505050506040513d6020811015612b6257600080fd5b50518a519091506000908b9060028601908110612b7b57fe5b602002602001015190506000898015612b92575086155b8015612baf5750856001600160a01b0316826001600160a01b0316145b90508015612bbc57600196505b6040518060e00160405280846001600160a01b03168152602001856001600160a01b031681526020018d8781518110612bf157fe5b60200260200101516001600160a01b03168152602001836001600160a01b0316815260200160006001600160a01b03168152602001612c2f856134ee565b15158152821515602090910152886002870481518110612c4b57fe5b602002602001018190525050505050600281019050612ad6565b612c6d613a5d565b84600081518110612c7a57fe5b6020908102919091018101516040808201516001600160a01b0316600090815260059093529091205490915060ff1615612cf1578060a0015115612cd75773eeeeeeeeeeeeeeeeeeeeeeeeeeeeeeeeeeeeeeee6040820152612cf1565b8051612ce29061361e565b6001600160a01b031660408201525b84600186510381518110612d0157fe5b60209081029190910181015160608101516001600160a01b03166000908152600590925260409091205490915060ff1615612d79578060a0015115612d5f5773eeeeeeeeeeeeeeeeeeeeeeeeeeeeeeeeeeeeeeee6060820152612d79565b8051612d6a9061361e565b6001600160a01b031660608201525b600091505b8451821015612e4857848281518110612d9357fe5b602002602001015190508060a0015115612e36578060c0015115612dbc57306080820152612e31565b6001855103821415612ddc576001600160a01b0388166080820152612e31565b848260010181518110612deb57fe5b602002602001015160a0015115612e2a57848260010181518110612e0b57fe5b6020908102919091010151516001600160a01b03166080820152612e31565b3060808201525b612e3d565b3060808201525b600190910190612d7e565b5092979650505050505050565b60008085815b88518110156132ec57612e6c613a5d565b898281518110612e7857fe5b602002602001015190508060a0015115612f0a578115801590612ec65750306001600160a01b03168a6001840381518110612eaf57fe5b6020026020010151608001516001600160a01b0316145b8015612eed57506040808201516001600160a01b031660009081526005602052205460ff16155b15612f0557612f0581604001518260000151856122db565b612f3e565b80602001516001600160a01b031681604001516001600160a01b031614612f3e57612f3e816040015182600001518561342b565b8060a00151612fff578051604080830151606084015182517f5e5144eb0000000000000000000000000000000000000000000000000000000081526001600160a01b039283166004820152908216602482015260448101879052600160648201529151921691635e5144eb916084808201926020929091908290030181600087803b158015612fcc57600080fd5b505af1158015612fe0573d6000803e3d6000fd5b505050506040513d6020811015612ff657600080fd5b5051935061316a565b6040808201516001600160a01b031660009081526005602052205460ff16156130c457805160408083015160608401516080850151835163e8dc12ff60e01b81526001600160a01b03938416600482015291831660248301526044820188905233606483015282166084820152915192169163e8dc12ff91349160a480830192602092919082900301818588803b15801561309957600080fd5b505af11580156130ad573d6000803e3d6000fd5b50505050506040513d6020811015612ff657600080fd5b805160408083015160608401516080850151835163e8dc12ff60e01b81526001600160a01b03938416600482015291831660248301526044820188905233606483015282166084820152915192169163e8dc12ff9160a4808201926020929091908290030181600087803b15801561313b57600080fd5b505af115801561314f573d6000803e3d6000fd5b505050506040513d602081101561316557600080fd5b505193505b8060c0015115613266576000613187620f4240611603878a6124be565b905081606001516001600160a01b031663a9059cbb89836040518363ffffffff1660e01b815260040180836001600160a01b0316815260200182815260200192505050602060405180830381600087803b1580156131e457600080fd5b505af11580156131f8573d6000803e3d6000fd5b505050506040513d602081101561320e57600080fd5b5051613261576040805162461bcd60e51b815260206004820152601760248201527f4552525f4645455f5452414e534645525f4641494c4544000000000000000000604482015290519081900360640190fd5b909303925b80606001516001600160a01b031681604001516001600160a01b031682602001516001600160a01b03167f7154b38b5dd31bb3122436a96d4e09aba5b323ae1fd580025fab55074334c09586883360405180848152602001838152602001826001600160a01b03168152602001935050505060405180910390a450829150600101612e5b565b5085821015613342576040805162461bcd60e51b815260206004820152601260248201527f4552525f52455455524e5f544f4f5f4c4f570000000000000000000000000000604482015290519081900360640190fd5b509695505050505050565b613355613a5d565b8360018551038151811061336557fe5b60200260200101519050306001600160a01b031681608001516001600160a01b0316146133925750613426565b60608101516001600160a01b03811660009081526005602052604090205460ff161561341b578160a00151156133c457fe5b806001600160a01b031663205c287884866040518363ffffffff1660e01b815260040180836001600160a01b0316815260200182815260200192505050600060405180830381600087803b158015612a1d57600080fd5b6124578184866122db565b505050565b604080517fdd62ed3e0000000000000000000000000000000000000000000000000000000081523060048201526001600160a01b038481166024830152915160009286169163dd62ed3e916044808301926020929190829003018186803b15801561349557600080fd5b505afa1580156134a9573d6000803e3d6000fd5b505050506040513d60208110156134bf57600080fd5b50519050818110156134e85780156134dd576134dd848460006138e1565b6134e88484846138e1565b50505050565b60408051600481526024810182526020810180516001600160e01b03167fd260529c000000000000000000000000000000000000000000000000000000001781529151815160009384926060926001600160a01b03881692610fa0928792909182918083835b602083106135735780518252601f199092019160209182019101613554565b6001836020036101000a0380198251168184511680821785525050505050509050019150506000604051808303818686fa925050503d80600081146135d4576040519150601f19603f3d011682016040523d82523d6000602084013e6135d9565b606091505b50915091508180156135ec575080516020145b156136135780806020019051602081101561360657600080fd5b505193506122d692505050565b506000949350505050565b600080826001600160a01b03166371f52bf36040518163ffffffff1660e01b815260040160206040518083038186803b15801561365a57600080fd5b505afa15801561366e573d6000803e3d6000fd5b505050506040513d602081101561368457600080fd5b505161ffff16905060005b81811015613740576000846001600160a01b03166319b64015836040518263ffffffff1660e01b81526004018082815260200191505060206040518083038186803b1580156136dd57600080fd5b505afa1580156136f1573d6000803e3d6000fd5b505050506040513d602081101561370757600080fd5b50516001600160a01b03811660009081526005602052604090205490915060ff16156137375792506122d6915050565b5060010161368f565b5073eeeeeeeeeeeeeeeeeeeeeeeeeeeeeeeeeeeeeeee9392505050565b604080516001600160a01b0385811660248301528481166044830152606480830185905283518084039091018152608490920183526020820180516001600160e01b03167f23b872dd0000000000000000000000000000000000000000000000000000000017815292518251600094606094938a169392918291908083835b602083106137fb5780518252601f1990920191602091820191016137dc565b6001836020036101000a0380198251168184511680821785525050505050509050019150506000604051808303816000865af19150503d806000811461385d576040519150601f19603f3d011682016040523d82523d6000602084013e613862565b606091505b5091509150818015613890575080511580613890575080806020019051602081101561388d57600080fd5b50515b6110b3576040805162461bcd60e51b815260206004820152601860248201527f4552525f5452414e534645525f46524f4d5f4641494c45440000000000000000604482015290519081900360640190fd5b604080516001600160a01b038481166024830152604480830185905283518084039091018152606490920183526020820180516001600160e01b03167f095ea7b300000000000000000000000000000000000000000000000000000000178152925182516000946060949389169392918291908083835b602083106139775780518252601f199092019160209182019101613958565b6001836020036101000a0380198251168184511680821785525050505050509050019150506000604051808303816000865af19150503d80600081146139d9576040519150601f19603f3d011682016040523d82523d6000602084013e6139de565b606091505b5091509150818015613a0c575080511580613a0c5750808060200190516020811015613a0957600080fd5b50515b612457576040805162461bcd60e51b815260206004820152601260248201527f4552525f415050524f56455f4641494c45440000000000000000000000000000604482015290519081900360640190fd5b6040805160e081018252600080825260208201819052918101829052606081018290526080810182905260a0810182905260c08101919091529056fea26469706673582212207c7f5c9421df664e379b86b91730b327cff3cbfc1d88536010a89ef99e1af0d964736f6c634300060c0033",
  "linkReferences": {},
  "deployedLinkReferences": {}
}