{
  "_format": "hh-sol-artifact-1",
  "contractName": "LiquidityPoolV2ConverterFactory",
  "sourceName": "contracts/bancor/converter/types/liquidity-pool-v2/LiquidityPoolV2ConverterFactory.sol",
  "abi": [
    {
      "inputs": [],
      "name": "converterType",
      "outputs": [
        {
          "internalType": "uint16",
          "name": "",
          "type": "uint16"
        }
      ],
      "stateMutability": "pure",
      "type": "function"
    },
    {
      "inputs": [
        {
          "internalType": "contract IConverterAnchor",
          "name": "_anchor",
          "type": "address"
        },
        {
          "internalType": "contract IContractRegistry",
          "name": "_registry",
          "type": "address"
        },
        {
          "internalType": "uint32",
          "name": "_maxConversionFee",
          "type": "uint32"
        }
      ],
      "name": "createConverter",
      "outputs": [
        {
          "internalType": "contract IConverter",
          "name": "",
          "type": "address"
        }
      ],
      "stateMutability": "nonpayable",
      "type": "function"
    }
  ],
  "bytecode": "0x608060405234801561001057600080fd5b50614e2f806100206000396000f3fe608060405234801561001057600080fd5b50600436106100365760003560e01c8063114139581461003b5780633e8ff43f14610094575b600080fd5b6100786004803603606081101561005157600080fd5b5080356001600160a01b03908116916020810135909116906040013563ffffffff166100b3565b604080516001600160a01b039092168252519081900360200190f35b61009c610184565b6040805161ffff9092168252519081900360200190f35b6000808484846040516100c590610189565b80846001600160a01b03168152602001836001600160a01b031681526020018263ffffffff1681526020019350505050604051809103906000f080158015610111573d6000803e3d6000fd5b509050806001600160a01b031663f2fde38b336040518263ffffffff1660e01b815260040180826001600160a01b03168152602001915050600060405180830381600087803b15801561016357600080fd5b505af1158015610177573d6000803e3d6000fd5b5092979650505050505050565b600290565b614c63806101978339019056fe60806040526003805460ff60a81b19169055600880546001600160601b03191690556012805460ff191660011764ffffffff001916622710001790553480156200004857600080fd5b5060405162004c6338038062004c63833981810160405260608110156200006e57600080fd5b5080516020820151604090920151600080546001600160a01b031916331790559091908282828282828180620000a4816200013e565b50600280546001600160a01b039092166001600160a01b031992831681179091556003805490921617905582620000db816200013e565b81620000e7816200019d565b5050600480546001600160a01b039094166001600160a01b031990941693909317909255506008805463ffffffff9092166401000000000263ffffffff60201b1990921691909117905550620001fc945050505050565b6001600160a01b0381166200019a576040805162461bcd60e51b815260206004820152601360248201527f4552525f494e56414c49445f4144445245535300000000000000000000000000604482015290519081900360640190fd5b50565b620f424063ffffffff821611156200019a576040805162461bcd60e51b815260206004820152601a60248201527f4552525f494e56414c49445f434f4e56455253494f4e5f464545000000000000604482015290519081900360640190fd5b614a57806200020c6000396000f3fe6080604052600436106103dc5760003560e01c80636a49d2c4116101fd578063d260529c11610118578063dc8de379116100ab578063ec2240f51161007a578063ec2240f514610df1578063ecbca55d14610e06578063f2fde38b14610e36578063fc0c546a14610e69578063fd2d6c7c14610e7e5761046d565b8063dc8de37914610d09578063ddd9abbf14610d3c578063e38192e314610d6c578063e8dc12ff14610dab5761046d565b8063d66bd524116100e7578063d66bd52414610c79578063d895951214610cac578063db2830a414610cdf578063dc75eb9a14610cf45761046d565b8063d260529c14610c25578063d3fb73b414610c3a578063d4ee1d9014610c4f578063d55ec69714610c645761046d565b8063ab28b17411610190578063bf7da6ba1161015f578063bf7da6ba14610b98578063c45d3d9214610bd1578063cdc91c6914610be6578063d031370b14610bfb5761046d565b8063ab28b17414610b16578063af94b8d814610b2b578063b4a176d314610b6e578063bf75455814610b835761046d565b80638da5cb5b116101cc5780638da5cb5b14610aa457806394c275ad14610ab957806398a71dcb14610ace5780639b99a8e214610b015761046d565b80636a49d2c414610a2657806371f52bf314610a6557806379ba509714610a7a5780637b10399914610a8f5761046d565b80632bf0c985116102f857806354fd4d501161028b5780635e35359e1161025a5780635e35359e1461092f57806361cd756e1461097257806367b6d57c1461098757806369067d95146109ba578063690d8320146109f35761046d565b806354fd4d50146108a057806355776b77146108b55780635768adcf146108e7578063579cd3ca1461091a5761046d565b80633e8ff43f116102c75780633e8ff43f146107fc578063467494681461082857806349d10b64146108585780634af80f0e1461086d5761046d565b80632bf0c9851461078a5780632fe8a6ad146107bd57806334d084b9146107d257806338a5e016146107e75761046d565b806316912f961161037057806321e6b53d1161033f57806321e6b53d146106fa57806322f3e2d41461072d5780632630c12f146107425780632bd3c107146107575761046d565b806316912f961461062c57806319b64015146106415780631cfab2901461066b5780631e1401f81461069e5761046d565b80630c7d5cd8116103ac5780630c7d5cd81461053d5780630e53aae91461056b578063119b90cd146105d257806312c2aca4146106175761046d565b80625e319c14610472578063024c7ec7146104b75780630337e3fb146104e35780630a55fb3d146105145761046d565b3661046d57600080516020614a0283398151915260005260076020527fb2084a3e4595ccf007fb44245853374aaf0de960074375e8e0fb334712e94d0f54600160301b900460ff1661046b576040805162461bcd60e51b81526020600482015260136024820152724552525f494e56414c49445f5245534552564560681b604482015290519081900360640190fd5b005b600080fd5b34801561047e57600080fd5b506104a56004803603602081101561049557600080fd5b50356001600160a01b0316610e93565b60408051918252519081900360200190f35b3480156104c357600080fd5b5061046b600480360360208110156104da57600080fd5b50351515610ebc565b3480156104ef57600080fd5b506104f8610ee2565b604080516001600160a01b039092168252519081900360200190f35b34801561052057600080fd5b50610529610ef1565b604080519115158252519081900360200190f35b34801561054957600080fd5b50610552610efa565b6040805163ffffffff9092168252519081900360200190f35b34801561057757600080fd5b5061059e6004803603602081101561058e57600080fd5b50356001600160a01b0316610f06565b6040805195865263ffffffff9094166020860152911515848401521515606084015215156080830152519081900360a00190f35b3480156105de57600080fd5b5061046b600480360360608110156105f557600080fd5b506001600160a01b038135811691602081013582169160409091013516610f9e565b34801561062357600080fd5b50610529611547565b34801561063857600080fd5b5061046b61158d565b34801561064d57600080fd5b506104f86004803603602081101561066457600080fd5b50356115a1565b34801561067757600080fd5b506105526004803603602081101561068e57600080fd5b50356001600160a01b03166115cb565b3480156106aa57600080fd5b506106e1600480360360608110156106c157600080fd5b506001600160a01b038135811691602081013590911690604001356115fd565b6040805192835260208301919091528051918290030190f35b34801561070657600080fd5b5061046b6004803603602081101561071d57600080fd5b50356001600160a01b0316611617565b34801561073957600080fd5b5061052961162b565b34801561074e57600080fd5b506104f8611657565b34801561076357600080fd5b506104a56004803603602081101561077a57600080fd5b50356001600160a01b031661166d565b34801561079657600080fd5b506104a5600480360360208110156107ad57600080fd5b50356001600160a01b0316611689565b3480156107c957600080fd5b50610529611754565b3480156107de57600080fd5b50610552611764565b3480156107f357600080fd5b5061046b611775565b34801561080857600080fd5b50610811611787565b6040805161ffff9092168252519081900360200190f35b34801561083457600080fd5b5061046b6004803603604081101561084b57600080fd5b508035906020013561178c565b34801561086457600080fd5b5061046b61180e565b34801561087957600080fd5b5061046b6004803603602081101561089057600080fd5b50356001600160a01b0316611a16565b3480156108ac57600080fd5b50610811611a4b565b6104a5600480360360608110156108cb57600080fd5b506001600160a01b038135169060208101359060400135611a50565b3480156108f357600080fd5b506104f86004803603602081101561090a57600080fd5b50356001600160a01b0316611f42565b34801561092657600080fd5b50610552611f60565b34801561093b57600080fd5b5061046b6004803603606081101561095257600080fd5b506001600160a01b03813581169160208101359091169060400135611f73565b34801561097e57600080fd5b506104f86120a4565b34801561099357600080fd5b5061046b600480360360208110156109aa57600080fd5b50356001600160a01b03166120b3565b3480156109c657600080fd5b506106e1600480360360408110156109dd57600080fd5b506001600160a01b03813516906020013561215f565b3480156109ff57600080fd5b5061046b60048036036020811015610a1657600080fd5b50356001600160a01b031661229d565b348015610a3257600080fd5b5061046b60048036036040811015610a4957600080fd5b5080356001600160a01b0316906020013563ffffffff166123c4565b348015610a7157600080fd5b50610811612436565b348015610a8657600080fd5b5061046b612440565b348015610a9b57600080fd5b506104f86124f7565b348015610ab057600080fd5b506104f8612506565b348015610ac557600080fd5b50610552612515565b348015610ada57600080fd5b506104a560048036036020811015610af157600080fd5b50356001600160a01b0316612529565b348015610b0d57600080fd5b5061081161253b565b348015610b2257600080fd5b506106e1612541565b348015610b3757600080fd5b506106e160048036036060811015610b4e57600080fd5b506001600160a01b0381358116916020810135909116906040013561254a565b348015610b7a57600080fd5b5061046b612680565b348015610b8f57600080fd5b506105296126ac565b348015610ba457600080fd5b5061046b60048036036040811015610bbb57600080fd5b506001600160a01b0381351690602001356126b1565b348015610bdd57600080fd5b506104f8612705565b348015610bf257600080fd5b5061046b612714565b348015610c0757600080fd5b506104f860048036036020811015610c1e57600080fd5b5035612778565b348015610c3157600080fd5b5061052961279f565b348015610c4657600080fd5b506104f86127a4565b348015610c5b57600080fd5b506104f86127b3565b348015610c7057600080fd5b5061046b6127c2565b348015610c8557600080fd5b5061059e60048036036020811015610c9c57600080fd5b50356001600160a01b03166128aa565b348015610cb857600080fd5b506104a560048036036020811015610ccf57600080fd5b50356001600160a01b03166128ed565b348015610ceb57600080fd5b506106e16128fe565b348015610d0057600080fd5b506104f8612924565b348015610d1557600080fd5b506104a560048036036020811015610d2c57600080fd5b50356001600160a01b0316612933565b348015610d4857600080fd5b5061046b60048036036020811015610d5f57600080fd5b503563ffffffff1661295c565b348015610d7857600080fd5b506104a560048036036060811015610d8f57600080fd5b506001600160a01b038135169060208101359060400135612a2e565b6104a5600480360360a0811015610dc157600080fd5b506001600160a01b0381358116916020810135821691604082013591606081013582169160809091013516612d23565b348015610dfd57600080fd5b506106e1612f33565b348015610e1257600080fd5b5061046b60048036036020811015610e2957600080fd5b503563ffffffff16612fae565b348015610e4257600080fd5b5061046b60048036036020811015610e5957600080fd5b50356001600160a01b0316613096565b348015610e7557600080fd5b506104f8613114565b348015610e8a57600080fd5b506104a5613123565b600081610e9f81613129565b50506001600160a01b03166000908152600b602052604090205490565b610ec4613196565b60038054911515600160a01b0260ff60a01b19909216919091179055565b6009546001600160a01b031681565b60125460ff1681565b60085463ffffffff1681565b6000806000806000610f166149b9565b505050506001600160a01b03929092166000908152600760209081526040808320815160a081018352815480825260019092015463ffffffff811694820185905260ff64010000000082048116151594830194909452650100000000008104841615156060830152600160301b90049092161515608090920182905295919450919250829190565b610fa66131e9565b610fae613196565b82610fb881613129565b82610fc281613230565b82610fcc81613230565b84610fd681613284565b84610fe081613284565b6004805460408051638da5cb5b60e01b8152905130936001600160a01b0390931692638da5cb5b92808201926020929091829003018186803b15801561102557600080fd5b505afa158015611039573d6000803e3d6000fd5b505050506040513d602081101561104f57600080fd5b50516001600160a01b0316146110a3576040805162461bcd60e51b815260206004820152601460248201527311549497d05390d213d497d393d517d3d5d3915160621b604482015290519081900360640190fd5b60006110ce7f436861696e6c696e6b4f7261636c6557686974656c69737400000000000000006132d5565b9050806001600160a01b0316633af32abf896040518263ffffffff1660e01b815260040180826001600160a01b0316815260200191505060206040518083038186803b15801561111d57600080fd5b505afa158015611131573d6000803e3d6000fd5b505050506040513d602081101561114757600080fd5b505180156111ca5750806001600160a01b0316633af32abf886040518263ffffffff1660e01b815260040180826001600160a01b0316815260200191505060206040518083038186803b15801561119d57600080fd5b505afa1580156111b1573d6000803e3d6000fd5b505050506040513d60208110156111c757600080fd5b50515b611210576040805162461bcd60e51b81526020600482015260126024820152714552525f494e56414c49445f4f5241434c4560701b604482015290519081900360640190fd5b611218613353565b600980546001600160a01b0319166001600160a01b038b161790556006805460009061124057fe5b6000918252602090912001546001600160a01b038a81169116141561129d57600660018154811061126d57fe5b600091825260209091200154600a80546001600160a01b0319166001600160a01b039092169190911790556112d7565b60066000815481106112ab57fe5b600091825260209091200154600a80546001600160a01b0319166001600160a01b039092169190911790555b60006112f56f436f6e766572746572466163746f727960801b6132d5565b6001600160a01b031663c977aed261130b611787565b6040518263ffffffff1660e01b8152600401808261ffff16815260200191505060206040518083038186803b15801561134357600080fd5b505afa158015611357573d6000803e3d6000fd5b505050506040513d602081101561136d57600080fd5b5051600a5460408051630d93a22760e11b81526001600160a01b038e8116600483015292831660248201528c831660448201528b83166064820152905192935090831691631b27444e916084808201926020929091908290030181600087803b1580156113d957600080fd5b505af11580156113ed573d6000803e3d6000fd5b505050506040513d602081101561140357600080fd5b5051600880546001600160a01b03909216600160601b026bffffffffffffffffffffffff9092169190911790556114386135b5565b8051600e5560200151600f5561144c61366d565b601055600954600090611467906001600160a01b0316610e93565b600954909150600090611482906001600160a01b0316612933565b600a5490915060009061149d906001600160a01b0316612933565b9050818314156114c85760008311806114b65750600081115b156114c3576114c3613671565b6114f1565b6000831180156114d85750600082115b80156114e45750600081115b156114f1576114f1613671565b6004546001906001600160a01b0316611508611787565b61ffff167f6b08c2e2c9969e55a647a764db9b554d64dc42f1a704da11a6d5b129ad163f2c60405160405180910390a450505050505050505050505050565b600080516020614a0283398151915260005260076020527fb2084a3e4595ccf007fb44245853374aaf0de960074375e8e0fb334712e94d0f54600160301b900460ff1690565b611595613196565b6012805460ff19169055565b6000600682815481106115b057fe5b6000918252602090912001546001600160a01b031692915050565b6000816115d781613129565b50506001600160a01b031660009081526007602052604090206001015463ffffffff1690565b60008061160b85858561254a565b91509150935093915050565b61161f613196565b611628816120b3565b50565b60006116356136e6565b80156116525750600854600160601b90046001600160a01b031615155b905090565b600854600160601b90046001600160a01b031681565b60008161167981613129565b61168283613765565b9392505050565b600080826001600160a01b03166318160ddd6040518163ffffffff1660e01b815260040160206040518083038186803b1580156116c557600080fd5b505afa1580156116d9573d6000803e3d6000fd5b505050506040513d60208110156116ef57600080fd5b50516001600160a01b038085166000908152600d602052604081205492935091169061171a82612933565b6001600160a01b0383166000908152600b602052604090205490915061174a81611744848761379f565b906137fd565b9695505050505050565b600354600160a01b900460ff1681565b601254610100900463ffffffff1681565b61177d613196565b611785612714565b565b600290565b611794613196565b816011600060066000815481106117a757fe5b60009182526020808320909101546001600160a01b03168352820192909252604001812091909155600680548392601192909160019081106117e557fe5b60009182526020808320909101546001600160a01b031683528201929092526040019020555050565b6000546001600160a01b03163314806118315750600354600160a01b900460ff16155b611876576040805162461bcd60e51b815260206004820152601160248201527011549497d050d0d154d4d7d11153925151607a1b604482015290519081900360640190fd5b60006118946f436f6e7472616374526567697374727960801b6132d5565b6002549091506001600160a01b038083169116148015906118bd57506001600160a01b03811615155b611905576040805162461bcd60e51b81526020600482015260146024820152734552525f494e56414c49445f524547495354525960601b604482015290519081900360640190fd5b60006001600160a01b0316816001600160a01b031663bb34534c6f436f6e7472616374526567697374727960801b6040518263ffffffff1660e01b81526004018082815260200191505060206040518083038186803b15801561196757600080fd5b505afa15801561197b573d6000803e3d6000fd5b505050506040513d602081101561199157600080fd5b50516001600160a01b031614156119e6576040805162461bcd60e51b81526020600482015260146024820152734552525f494e56414c49445f524547495354525960601b604482015290519081900360640190fd5b60028054600380546001600160a01b038084166001600160a01b0319928316179092559091169216919091179055565b611a1e613196565b80611a2881613230565b50600580546001600160a01b0319166001600160a01b0392909216919091179055565b602881565b6000611a5a61385c565b6003805460ff60a81b1916600160a81b179055611a756138ac565b83611a7f81613129565b83611a89816138f4565b83611a93816138f4565b6001600160a01b038716600080516020614a0283398151915214611ab8573415611abc565b8534145b611b07576040805162461bcd60e51b815260206004820152601760248201527608aa4a4be8aa890be829a9eaa9ca8be9a92a69a82a8869604b1b604482015290519081900360640190fd5b611b0f61393a565b6001600160a01b038716600080516020614a028339815191521415611bab57600080516020614a0283398151915260005260076020527fb2084a3e4595ccf007fb44245853374aaf0de960074375e8e0fb334712e94d0e54611b71903461397a565b600080516020614a0283398151915260005260076020527fb2084a3e4595ccf007fb44245853374aaf0de960074375e8e0fb334712e94d0e555b6001600160a01b0387166000908152600b602052604090205460125460ff1615611c66576001600160a01b0388166000908152601160205260409020541580611c1557506001600160a01b038816600090815260116020526040902054611c1282896139c7565b11155b611c66576040805162461bcd60e51b815260206004820152601e60248201527f4552525f4d41585f5354414b45445f42414c414e43455f524541434845440000604482015290519081900360640190fd5b6001600160a01b038089166000908152600c602090815260408083205481516318160ddd60e01b8152915194169384926318160ddd9260048082019391829003018186803b158015611cb757600080fd5b505afa158015611ccb573d6000803e3d6000fd5b505050506040513d6020811015611ce157600080fd5b505190506001600160a01b038a16600080516020614a0283398151915214611d0f57611d0f8a33308c613a10565b6001600160a01b038a16600090815260076020526040902054611d32908a6139c7565b6001600160a01b038b16600090815260076020526040902055611d55838a6139c7565b6001600160a01b038b166000908152600b6020526040812091909155831580611d7c575081155b15611d88575088611d99565b611d96846117448c8561379f565b90505b88811015611de3576040805162461bcd60e51b81526020600482015260126024820152714552525f52455455524e5f544f4f5f4c4f5760701b604482015290519081900360640190fd5b6004805460408051636361ddf360e11b81526001600160a01b0387811694820194909452336024820152604481018590529051929091169163c6c3bbe69160648082019260009290919082900301818387803b158015611e4257600080fd5b505af1158015611e56573d6000803e3d6000fd5b50505050611e62613671565b6001600160a01b038b16337f4a1a2a6176e9646d9e3157f7c2ab3c499f18337c0b0828cfb28e0a61de4a11f78c611e9988826139c7565b611ea387876139c7565b60408051938452602084019290925282820152519081900360600190a3611ed483611ece84846139c7565b8d613b7b565b611f276006600081548110611ee557fe5b600091825260209091200154600680546001600160a01b03909216916001908110611f0c57fe5b60009182526020822001546001600160a01b03169080613bdb565b6003805460ff60a81b191690559a9950505050505050505050565b6001600160a01b039081166000908152600c60205260409020541690565b600854600160401b900463ffffffff1681565b611f7b61385c565b6003805460ff60a81b1916600160a81b179055611f96613196565b6000611fbb762130b731b7b921b7b73b32b93a32b92ab833b930b232b960491b6132d5565b6001600160a01b038516600090815260076020526040902060010154909150600160301b900460ff161580611ff55750611ff361162b565b155b8061200d57506000546001600160a01b038281169116145b612052576040805162461bcd60e51b815260206004820152601160248201527011549497d050d0d154d4d7d11153925151607a1b604482015290519081900360640190fd5b61205d848484613cae565b6001600160a01b038416600090815260076020526040902060010154600160301b900460ff16156120915761209184613cdf565b50506003805460ff60a81b191690555050565b6003546001600160a01b031681565b6120bb613196565b762130b731b7b921b7b73b32b93a32b92ab833b930b232b960491b6120df81613db7565b600460009054906101000a90046001600160a01b03166001600160a01b031663f2fde38b836040518263ffffffff1660e01b815260040180826001600160a01b03168152602001915050600060405180830381600087803b15801561214357600080fd5b505af1158015612157573d6000803e3d6000fd5b505050505050565b6000806000846001600160a01b03166318160ddd6040518163ffffffff1660e01b815260040160206040518083038186803b15801561219d57600080fd5b505afa1580156121b1573d6000803e3d6000fd5b505050506040513d60208110156121c757600080fd5b50516001600160a01b038087166000908152600d60209081526040808320549093168252600b905220549091508185101561228e576009546001600160a01b03166000908152600b602052604081205461222290601461379f565b60095490915060009061223d906001600160a01b0316613765565b9050600080828410612250578284612253565b83835b90925090506000612268876117448c8961379f565b9050600061227a83611744848761379f565b995050889003965061229695505050505050565b925060009150505b9250929050565b6122a561385c565b6003805460ff60a81b1916600160a81b1790556122c0613196565b600080516020614a028339815191526122d881613129565b60006122fd762130b731b7b921b7b73b32b93a32b92ab833b930b232b960491b6132d5565b905061230761162b565b158061232057506000546001600160a01b038281169116145b612365576040805162461bcd60e51b815260206004820152601160248201527011549497d050d0d154d4d7d11153925151607a1b604482015290519081900360640190fd5b6040516001600160a01b038416904780156108fc02916000818181858888f1935050505015801561239a573d6000803e3d6000fd5b506123b2600080516020614a02833981519152613cdf565b50506003805460ff60a81b1916905550565b6123cc613196565b60026123d661253b565b61ffff1610612428576040805162461bcd60e51b815260206004820152601960248201527811549497d253959053125117d49154d154959157d0d3d55395603a1b604482015290519081900360640190fd5b6124328282613e19565b5050565b600061165261253b565b6001546001600160a01b03163314612493576040805162461bcd60e51b815260206004820152601160248201527011549497d050d0d154d4d7d11153925151607a1b604482015290519081900360640190fd5b600154600080546040516001600160a01b0393841693909116917f343765429aea5a34b3ff6a3785a98a5abb2597aca87bfbb58632c173d585373a91a360018054600080546001600160a01b03199081166001600160a01b03841617909155169055565b6002546001600160a01b031681565b6000546001600160a01b031681565b600854640100000000900463ffffffff1681565b60116020526000908152604090205481565b60065490565b600e54600f5482565b6000806125556138ac565b8461255f81613129565b8461256981613129565b856001600160a01b0316876001600160a01b031614156125c9576040805162461bcd60e51b815260206004820152601660248201527511549497d4d0535157d4d3d55490d157d5105491d15560521b604482015290519081900360640190fd5b6000806125d461366d565b601054141561260d5750506001600160a01b03871660009081526007602052604090206001015463ffffffff16620f424081900361265c565b6126156149e7565b61261d6135b5565b905060008061262b8361403b565b60095491935091506001600160a01b038d81169116141561265157819450809350612658565b8094508193505b5050505b60008061266c8b8b86868d614150565b919d919c50909a5050505050505050505050565b612688613196565b600354600280546001600160a01b0319166001600160a01b03909216919091179055565b600181565b6126b9613196565b762130b731b7b921b7b73b32b93a32b92ab833b930b232b960491b6126dd81613db7565b826126e781613129565b50506001600160a01b039091166000908152600b6020526040902055565b6005546001600160a01b031681565b600161271e61253b565b61ffff1611612770576040805162461bcd60e51b815260206004820152601960248201527811549497d253959053125117d49154d154959157d0d3d55395603a1b604482015290519081900360640190fd5b611785614281565b6006818154811061278557fe5b6000918252602090912001546001600160a01b0316905081565b600190565b6004546001600160a01b031681565b6001546001600160a01b031681565b6127ca613196565b60006127ef762130b731b7b921b7b73b32b93a32b92ab833b930b232b960491b6132d5565b6004549091506000906001600160a01b0316612809611787565b61ffff167f6b08c2e2c9969e55a647a764db9b554d64dc42f1a704da11a6d5b129ad163f2c60405160405180910390a461284281613096565b6040805163487ac64b60e11b81526028600482015290516001600160a01b038316916390f58c9691602480830192600092919082900301818387803b15801561288a57600080fd5b505af115801561289e573d6000803e3d6000fd5b50505050611628612440565b6007602052600090815260409020805460019091015463ffffffff81169060ff6401000000008204811691650100000000008104821691600160301b9091041685565b60006128f882612933565b92915050565b6000806129096149e7565b6129116135b5565b80516020909101519093509150505b9091565b600a546001600160a01b031681565b60008161293f81613129565b50506001600160a01b031660009081526007602052604090205490565b612964613196565b620f424063ffffffff821611156129c2576040805162461bcd60e51b815260206004820181905260248201527f4552525f494e56414c49445f4f5241434c455f444556494154494f4e5f464545604482015290519081900360640190fd5b6012546040805163ffffffff61010090930483168152918316602083015280517f4f6fed4838e1f48d74a10449b9152126aae795e67e8eba0fedacdeefdf19a8de9281900390910190a16012805463ffffffff9092166101000264ffffffff0019909216919091179055565b6000612a3861385c565b6003805460ff60a81b1916600160a81b179055612a536138ac565b83612a5d81614348565b83612a67816138f4565b83612a71816138f4565b612a7961393a565b6000876001600160a01b03166318160ddd6040518163ffffffff1660e01b815260040160206040518083038186803b158015612ab457600080fd5b505afa158015612ac8573d6000803e3d6000fd5b505050506040513d6020811015612ade57600080fd5b505190506000612aee898961215f565b50905086811015612b3b576040805162461bcd60e51b81526020600482015260126024820152714552525f52455455524e5f544f4f5f4c4f5760701b604482015290519081900360640190fd5b6001600160a01b03808a166000818152600d602052604080822054600480548351633dae446f60e21b815291820195909552336024820152604481018e9052915190851694939093169263f6b911bc9260648084019391929182900301818387803b158015612ba957600080fd5b505af1158015612bbd573d6000803e3d6000fd5b5050506001600160a01b038216600090815260076020526040902054612be491508361397a565b6001600160a01b038216600090815260076020908152604080832093909355600b905290812054612c15908461397a565b6001600160a01b0383166000818152600b60205260409020829055909150600080516020614a028339815191521415612c7b57604051339084156108fc029085906000818181858888f19350505050158015612c75573d6000803e3d6000fd5b50612c86565b612c868233856143ad565b612c8e613671565b6000612c9a858c61397a565b604080518681526020810185905280820183905290519192506001600160a01b0385169133917fbc7d19d505c7ec4db83f3b51f19fb98c4c8a99922e7839d1ee608dfbee29501b919081900360600190a3612cf68c8285613b7b565b612d076006600081548110611ee557fe5b50506003805460ff60a81b191690555098975050505050505050565b6000612d2d61385c565b6003805460ff60a81b1916600160a81b1790556c42616e636f724e6574776f726b60981b612d5a81613db7565b856001600160a01b0316876001600160a01b03161415612dba576040805162461bcd60e51b815260206004820152601660248201527511549497d4d0535157d4d3d55490d157d5105491d15560521b604482015290519081900360640190fd5b6005546001600160a01b03161580612ec7575060055460408051633af32abf60e01b81526001600160a01b03878116600483015291519190921691633af32abf916024808301926020929190829003018186803b158015612e1a57600080fd5b505afa158015612e2e573d6000803e3d6000fd5b505050506040513d6020811015612e4457600080fd5b50518015612ec7575060055460408051633af32abf60e01b81526001600160a01b03868116600483015291519190921691633af32abf916024808301926020929190829003018186803b158015612e9a57600080fd5b505afa158015612eae573d6000803e3d6000fd5b505050506040513d6020811015612ec457600080fd5b50515b612f0e576040805162461bcd60e51b815260206004820152601360248201527211549497d393d517d5d2125511531254d51151606a1b604482015290519081900360640190fd5b612f1b8787878787614506565b6003805460ff60a81b19169055979650505050505050565b600080612f3e6149e7565b612f466135b5565b9050600080612f548361403b565b915091506006600081548110612f6657fe5b6000918252602090912001546009546001600160a01b0390811691161415612f9c5763ffffffff91821694501691506129209050565b63ffffffff9081169450169150509091565b612fb6613196565b60085463ffffffff6401000000009091048116908216111561301f576040805162461bcd60e51b815260206004820152601a60248201527f4552525f494e56414c49445f434f4e56455253494f4e5f464545000000000000604482015290519081900360640190fd5b6008546040805163ffffffff600160401b90930483168152918316602083015280517f81cd2ffb37dd237c0e4e2a3de5265fcf9deb43d3e7801e80db9f1ccfba7ee6009281900390910190a16008805463ffffffff909216600160401b026bffffffff000000000000000019909216919091179055565b61309e613196565b6000546001600160a01b03828116911614156130f2576040805162461bcd60e51b815260206004820152600e60248201526d22a9292fa9a0a6a2afa7aba722a960911b604482015290519081900360640190fd5b600180546001600160a01b0319166001600160a01b0392909216919091179055565b6004546001600160a01b031690565b60105481565b6001600160a01b038116600090815260076020526040902060010154600160301b900460ff16611628576040805162461bcd60e51b81526020600482015260136024820152724552525f494e56414c49445f5245534552564560681b604482015290519081900360640190fd5b6000546001600160a01b03163314611785576040805162461bcd60e51b815260206004820152601160248201527011549497d050d0d154d4d7d11153925151607a1b604482015290519081900360640190fd5b6131f161162b565b15611785576040805162461bcd60e51b815260206004820152600a6024820152694552525f41435449564560b01b604482015290519081900360640190fd5b6001600160a01b038116301415611628576040805162461bcd60e51b815260206004820152601360248201527222a9292fa0a2222922a9a9afa4a9afa9a2a62360691b604482015290519081900360640190fd5b6001600160a01b038116611628576040805162461bcd60e51b81526020600482015260136024820152724552525f494e56414c49445f4144445245535360681b604482015290519081900360640190fd5b60025460408051632ecd14d360e21b81526004810184905290516000926001600160a01b03169163bb34534c916024808301926020929190829003018186803b15801561332157600080fd5b505afa158015613335573d6000803e3d6000fd5b505050506040513d602081101561334b57600080fd5b505192915050565b600480546040805163369f189f60e11b815290516001600160a01b03909216926060928492636d3e313e9281810192600092909190829003018186803b15801561339c57600080fd5b505afa1580156133b0573d6000803e3d6000fd5b505050506040513d6000823e601f3d908101601f1916820160405260208110156133d957600080fd5b81019080805160405193929190846401000000008211156133f957600080fd5b90830190602082018581111561340e57600080fd5b825186602082028301116401000000008211171561342b57600080fd5b82525081516020918201928201910280838360005b83811015613458578181015183820152602001613440565b50505050919091016040525050825160065493945015929150600090505b818110156135ae57600083156134f457856001600160a01b0316639cbf9e366040518163ffffffff1660e01b8152600401602060405180830381600087803b1580156134c157600080fd5b505af11580156134d5573d6000803e3d6000fd5b505050506040513d60208110156134eb57600080fd5b5051905061350b565b84828151811061350057fe5b602002602001015190505b80600c60006006858154811061351d57fe5b6000918252602080832091909101546001600160a01b039081168452908301939093526040909101902080546001600160a01b03191692909116919091179055600680548390811061356b57fe5b60009182526020808320909101546001600160a01b039384168352600d909152604090912080546001600160a01b03191692909116919091179055600101613476565b5050505050565b6135bd6149e7565b600854600954600a5460408051632ba0600160e21b81526001600160a01b039384166004820152918316602483015280516000948594600160601b909104169263ae818004926044808301939192829003018186803b15801561361f57600080fd5b505afa158015613633573d6000803e3d6000fd5b505050506040513d604081101561364957600080fd5b50805160209182015160408051808201909152918252918101919091529250505090565b4290565b60408051808201909152600e548152600f5460208201526136919061403b565b6009546001600160a01b03908116600090815260076020526040808220600a54909316825290206001908101805463ffffffff94851663ffffffff199182161790915591018054939092169216919091179055565b6004805460408051638da5cb5b60e01b8152905160009330936001600160a01b031692638da5cb5b9281830192602092829003018186803b15801561372a57600080fd5b505afa15801561373e573d6000803e3d6000fd5b505050506040513d602081101561375457600080fd5b50516001600160a01b031614905090565b6001600160a01b038116600090815260076020908152604080832054600b9092528220546128f8919061379990601361379f565b906139c7565b6000826137ae575060006128f8565b828202828482816137bb57fe5b0414611682576040805162461bcd60e51b815260206004820152600c60248201526b4552525f4f564552464c4f5760a01b604482015290519081900360640190fd5b6000808211613848576040805162461bcd60e51b81526020600482015260126024820152714552525f4449564944455f42595f5a45524f60701b604482015290519081900360640190fd5b600082848161385357fe5b04949350505050565b600354600160a81b900460ff1615611785576040805162461bcd60e51b815260206004820152600e60248201526d4552525f5245454e5452414e435960901b604482015290519081900360640190fd5b6138b461162b565b611785576040805162461bcd60e51b815260206004820152600c60248201526b4552525f494e41435449564560a01b604482015290519081900360640190fd5b60008111611628576040805162461bcd60e51b815260206004820152600e60248201526d4552525f5a45524f5f56414c554560901b604482015290519081900360640190fd5b60065460005b81811015612432576139726006828154811061395857fe5b6000918252602090912001546001600160a01b0316613cdf565b600101613940565b6000818310156139c1576040805162461bcd60e51b815260206004820152600d60248201526c4552525f554e444552464c4f5760981b604482015290519081900360640190fd5b50900390565b600082820183811015611682576040805162461bcd60e51b815260206004820152600c60248201526b4552525f4f564552464c4f5760a01b604482015290519081900360640190fd5b604080516001600160a01b0385811660248301528481166044830152606480830185905283518084039091018152608490920183526020820180516001600160e01b03166323b872dd60e01b17815292518251600094606094938a169392918291908083835b60208310613a955780518252601f199092019160209182019101613a76565b6001836020036101000a0380198251168184511680821785525050505050509050019150506000604051808303816000865af19150503d8060008114613af7576040519150601f19603f3d011682016040523d82523d6000602084013e613afc565b606091505b5091509150818015613b2a575080511580613b2a5750808060200190516020811015613b2757600080fd5b50515b612157576040805162461bcd60e51b815260206004820152601860248201527f4552525f5452414e534645525f46524f4d5f4641494c45440000000000000000604482015290519081900360640190fd5b6001600160a01b038082166000818152600b6020908152604091829020548251908152908101869052815192938716927f77f29993cf2c084e726f7e802da0719d6a0ade3e204badc7a3ffd57ecb768c24929181900390910190a3505050565b6000613be685613765565b90506000613bf385613765565b905063ffffffff8416613c25576001600160a01b03861660009081526007602052604090206001015463ffffffff1693505b63ffffffff8316613c395783620f42400392505b6001600160a01b038086169087167f77f29993cf2c084e726f7e802da0719d6a0ade3e204badc7a3ffd57ecb768c24613c7b8463ffffffff808a169061379f16565b613c8e8663ffffffff808a169061379f16565b6040805192835260208301919091528051918290030190a3505050505050565b613cb6613196565b82613cc081613284565b82613cca81613284565b83613cd481613230565b6121578686866143ad565b80613ce981613129565b6001600160a01b038216600080516020614a028339815191521415613d28576001600160a01b0382166000908152600760205260409020479055612432565b604080516370a0823160e01b815230600482015290516001600160a01b038416916370a08231916024808301926020929190829003018186803b158015613d6e57600080fd5b505afa158015613d82573d6000803e3d6000fd5b505050506040513d6020811015613d9857600080fd5b50516001600160a01b0383166000908152600760205260409020555050565b613dc0816132d5565b6001600160a01b0316336001600160a01b031614611628576040805162461bcd60e51b815260206004820152601160248201527011549497d050d0d154d4d7d11153925151607a1b604482015290519081900360640190fd5b613e21613196565b613e296131e9565b81613e3381613284565b82613e3d81613230565b82613e47816148b5565b6004546001600160a01b03868116911614801590613e8857506001600160a01b038516600090815260076020526040902060010154600160301b900460ff16155b613ecf576040805162461bcd60e51b81526020600482015260136024820152724552525f494e56414c49445f5245534552564560681b604482015290519081900360640190fd5b60085463ffffffff908116620f42400381169085161115613f37576040805162461bcd60e51b815260206004820152601a60248201527f4552525f494e56414c49445f524553455256455f574549474854000000000000604482015290519081900360640190fd5b61ffff613f4261253b565b61ffff1610613f94576040805162461bcd60e51b815260206004820152601960248201527811549497d253959053125117d49154d154959157d0d3d55395603a1b604482015290519081900360640190fd5b5050506001600160a01b0390911660008181526007602052604081208181556001908101805466ff0000000000001963ffffffff80881663ffffffff199384161791909116600160301b179092556006805493840181559093527ff652222313e28459528d920b65115c16c04f3efc82aaedc97be59f3f377c0d3f90910180546001600160a01b031916909317909255600880548084169094019092169216919091179055565b6009546001600160a01b03166000818152600b60205260408120549091829190829061406690613765565b600a54909150600090614081906001600160a01b0316613765565b905061409c6c42616e636f72466f726d756c6160981b6132d5565b6001600160a01b031663a11aa1b46140b585601461379f565b885160208a0151604080516001600160e01b031960e087901b1681526004810194909452602484018890526044840187905260648401929092526084830152805160a480840193829003018186803b15801561411057600080fd5b505afa158015614124573d6000803e3d6000fd5b505050506040513d604081101561413a57600080fd5b5080516020909101519095509350505050915091565b60008060008061415f89613765565b9050600061416c89613765565b905060006141896c42616e636f72466f726d756c6160981b6132d5565b6001600160a01b03166394491fab848b858c8c6040518663ffffffff1660e01b8152600401808681526020018563ffffffff1681526020018481526020018363ffffffff1681526020018281526020019550505050505060206040518083038186803b1580156141f857600080fd5b505afa15801561420c573d6000803e3d6000fd5b505050506040513d602081101561422257600080fd5b50519050600061423182614925565b60125490915060009061426390839061379990620f424090611744908890610100900463ffffffff9081169061379f16565b905061426f838261397a565b9d919c509a5098505050505050505050565b614289613196565b600061429361253b565b61ffff16116142e5576040805162461bcd60e51b815260206004820152601960248201527811549497d253959053125117d49154d154959157d0d3d55395603a1b604482015290519081900360640190fd5b60048054604080516379ba509760e01b815290516001600160a01b03909216926379ba509792828201926000929082900301818387803b15801561432857600080fd5b505af115801561433c573d6000803e3d6000fd5b5050505061178561393a565b6001600160a01b038181166000908152600d602052604090205416611628576040805162461bcd60e51b815260206004820152601660248201527522a9292fa4a72b20a624a22fa827a7a62faa27a5a2a760511b604482015290519081900360640190fd5b604080516001600160a01b038481166024830152604480830185905283518084039091018152606490920183526020820180516001600160e01b031663a9059cbb60e01b178152925182516000946060949389169392918291908083835b6020831061442a5780518252601f19909201916020918201910161440b565b6001836020036101000a0380198251168184511680821785525050505050509050019150506000604051808303816000865af19150503d806000811461448c576040519150601f19603f3d011682016040523d82523d6000602084013e614491565b606091505b50915091508180156144bf5750805115806144bf57508080602001905160208110156144bc57600080fd5b50515b6135ae576040805162461bcd60e51b815260206004820152601360248201527211549497d514905394d1915497d19052531151606a1b604482015290519081900360640190fd5b60006145106138ac565b8561451a81613129565b8561452481613129565b61452c61366d565b601054101561455c5761453d61366d565b6010556145486135b5565b8051600e5560200151600f5561455c613671565b6001600160a01b03881660009081526007602052604081206001015463ffffffff1690620f42408290039080806145968d8d87878f614150565b92509250925082600014156145eb576040805162461bcd60e51b815260206004820152601660248201527511549497d6915493d7d5105491d15517d05353d5539560521b604482015290519081900360640190fd5b6001600160a01b038d16600080516020614a02833981519152141561465d578a3414614658576040805162461bcd60e51b815260206004820152601760248201527608aa4a4be8aa890be829a9eaa9ca8be9a92a69a82a8869604b1b604482015290519081900360640190fd5b61473b565b341580156146f557508a6146f26146738f612933565b8f6001600160a01b03166370a08231306040518263ffffffff1660e01b815260040180826001600160a01b0316815260200191505060206040518083038186803b1580156146c057600080fd5b505afa1580156146d4573d6000803e3d6000fd5b505050506040513d60208110156146ea57600080fd5b50519061397a565b10155b61473b576040805162461bcd60e51b815260206004820152601260248201527111549497d253959053125117d05353d5539560721b604482015290519081900360640190fd5b6147448d613cdf565b614757836147518e612933565b9061397a565b6001600160a01b038d16600090815260076020908152604080832093909355600b9052205461478690836139c7565b6001600160a01b038d166000818152600b6020526040902091909155600080516020614a0283398151915214156147f3576040516001600160a01b038a169084156108fc029085906000818181858888f193505050501580156147ed573d6000803e3d6000fd5b506147fe565b6147fe8c8a856143ad565b61480c8d8d8c8e8786614950565b6148188d8d8787613bdb565b6001600160a01b03808d166000908152600c60209081526040918290205482516318160ddd60e01b815292519316926148a392849283926318160ddd926004808201939291829003018186803b15801561487157600080fd5b505afa158015614885573d6000803e3d6000fd5b505050506040513d602081101561489b57600080fd5b50518f613b7b565b50919c9b505050505050505050505050565b60008163ffffffff161180156148d45750620f424063ffffffff821611155b611628576040805162461bcd60e51b815260206004820152601a60248201527f4552525f494e56414c49445f524553455256455f574549474854000000000000604482015290519081900360640190fd5b6008546000906128f890620f424090611744908590600160401b900463ffffffff9081169061379f16565b600160ff1b811061495d57fe5b604080518481526020810184905280820183905290516001600160a01b038087169288821692918a16917f276856b36cbc45526a0ba64f44611557a2a8b68662c5388e9fe6d72e86e1c8cb9181900360600190a4505050505050565b6040805160a08101825260008082526020820181905291810182905260608101829052608081019190915290565b60405180604001604052806000815260200160008152509056fe000000000000000000000000eeeeeeeeeeeeeeeeeeeeeeeeeeeeeeeeeeeeeeeea26469706673582212202e175757e0cd1a32daa8700640fcf7a423fa6adace49a2fbb4a10c0532631da064736f6c634300060c0033a2646970667358221220aec3631d582dd6d754fa56d9a7cac123e2ef9f87e819165fe9795725aff1045664736f6c634300060c0033",
  "linkReferences": {},
  "deployedLinkReferences": {}
}