{
  "_format": "hh-sol-artifact-1",
  "contractName": "TestConverterFactory",
  "sourceName": "contracts/bancor/helpers/TestConverterFactory.sol",
  "abi": [
    {
      "anonymous": false,
      "inputs": [
        {
          "indexed": true,
          "internalType": "uint16",
          "name": "_type",
          "type": "uint16"
        },
        {
          "indexed": true,
          "internalType": "contract IConverter",
          "name": "_converter",
          "type": "address"
        },
        {
          "indexed": true,
          "internalType": "address",
          "name": "_owner",
          "type": "address"
        }
      ],
      "name": "NewConverter",
      "type": "event"
    },
    {
      "anonymous": false,
      "inputs": [
        {
          "indexed": true,
          "internalType": "address",
          "name": "_prevOwner",
          "type": "address"
        },
        {
          "indexed": true,
          "internalType": "address",
          "name": "_newOwner",
          "type": "address"
        }
      ],
      "name": "OwnerUpdate",
      "type": "event"
    },
    {
      "inputs": [],
      "name": "acceptOwnership",
      "outputs": [],
      "stateMutability": "nonpayable",
      "type": "function"
    },
    {
      "inputs": [
        {
          "internalType": "uint16",
          "name": "",
          "type": "uint16"
        }
      ],
      "name": "anchorFactories",
      "outputs": [
        {
          "internalType": "contract ITypedConverterAnchorFactory",
          "name": "",
          "type": "address"
        }
      ],
      "stateMutability": "view",
      "type": "function"
    },
    {
      "inputs": [
        {
          "internalType": "uint16",
          "name": "",
          "type": "uint16"
        }
      ],
      "name": "converterFactories",
      "outputs": [
        {
          "internalType": "contract ITypedConverterFactory",
          "name": "",
          "type": "address"
        }
      ],
      "stateMutability": "view",
      "type": "function"
    },
    {
      "inputs": [
        {
          "internalType": "uint16",
          "name": "_converterType",
          "type": "uint16"
        },
        {
          "internalType": "string",
          "name": "_name",
          "type": "string"
        },
        {
          "internalType": "string",
          "name": "_symbol",
          "type": "string"
        },
        {
          "internalType": "uint8",
          "name": "_decimals",
          "type": "uint8"
        }
      ],
      "name": "createAnchor",
      "outputs": [
        {
          "internalType": "contract IConverterAnchor",
          "name": "",
          "type": "address"
        }
      ],
      "stateMutability": "nonpayable",
      "type": "function"
    },
    {
      "inputs": [
        {
          "internalType": "uint16",
          "name": "_type",
          "type": "uint16"
        },
        {
          "internalType": "contract IConverterAnchor",
          "name": "_anchor",
          "type": "address"
        },
        {
          "internalType": "contract IContractRegistry",
          "name": "_registry",
          "type": "address"
        },
        {
          "internalType": "uint32",
          "name": "_maxConversionFee",
          "type": "uint32"
        }
      ],
      "name": "createConverter",
      "outputs": [
        {
          "internalType": "contract IConverter",
          "name": "",
          "type": "address"
        }
      ],
      "stateMutability": "nonpayable",
      "type": "function"
    },
    {
      "inputs": [],
      "name": "createdAnchor",
      "outputs": [
        {
          "internalType": "contract IConverterAnchor",
          "name": "",
          "type": "address"
        }
      ],
      "stateMutability": "view",
      "type": "function"
    },
    {
      "inputs": [],
      "name": "createdConverter",
      "outputs": [
        {
          "internalType": "contract IConverter",
          "name": "",
          "type": "address"
        }
      ],
      "stateMutability": "view",
      "type": "function"
    },
    {
      "inputs": [
        {
          "internalType": "uint16",
          "name": "",
          "type": "uint16"
        }
      ],
      "name": "customFactories",
      "outputs": [
        {
          "internalType": "contract ITypedConverterCustomFactory",
          "name": "",
          "type": "address"
        }
      ],
      "stateMutability": "view",
      "type": "function"
    },
    {
      "inputs": [],
      "name": "newOwner",
      "outputs": [
        {
          "internalType": "address",
          "name": "",
          "type": "address"
        }
      ],
      "stateMutability": "view",
      "type": "function"
    },
    {
      "inputs": [],
      "name": "owner",
      "outputs": [
        {
          "internalType": "address",
          "name": "",
          "type": "address"
        }
      ],
      "stateMutability": "view",
      "type": "function"
    },
    {
      "inputs": [
        {
          "internalType": "contract ITypedConverterAnchorFactory",
          "name": "_factory",
          "type": "address"
        }
      ],
      "name": "registerTypedConverterAnchorFactory",
      "outputs": [],
      "stateMutability": "nonpayable",
      "type": "function"
    },
    {
      "inputs": [
        {
          "internalType": "contract ITypedConverterCustomFactory",
          "name": "_factory",
          "type": "address"
        }
      ],
      "name": "registerTypedConverterCustomFactory",
      "outputs": [],
      "stateMutability": "nonpayable",
      "type": "function"
    },
    {
      "inputs": [
        {
          "internalType": "contract ITypedConverterFactory",
          "name": "_factory",
          "type": "address"
        }
      ],
      "name": "registerTypedConverterFactory",
      "outputs": [],
      "stateMutability": "nonpayable",
      "type": "function"
    },
    {
      "inputs": [
        {
          "internalType": "address",
          "name": "_newOwner",
          "type": "address"
        }
      ],
      "name": "transferOwnership",
      "outputs": [],
      "stateMutability": "nonpayable",
      "type": "function"
    }
  ],
  "bytecode": "0x608060405234801561001057600080fd5b50600080546001600160a01b03191633179055611bf1806100326000396000f3fe60806040523480156200001157600080fd5b5060043610620001005760003560e01c806379ba50971162000099578063c977aed2116200006f578063c977aed21462000375578063d4ee1d901462000399578063e54b93ef14620003a3578063f2fde38b14620003cc5762000100565b806379ba509714620003385780638cac5e2914620003425780638da5cb5b146200036b5762000100565b80632e9ab7b311620000db5780632e9ab7b314620001a0578063327779a714620002e65780633a8fc520146200030a5780636a4e5391146200032e5762000100565b806312b4c6c1146200010557806315f64b6a14620001305780631814f2d21462000196575b600080fd5b6200012e600480360360208110156200011d57600080fd5b50356001600160a01b0316620003f5565b005b6200017a600480360360808110156200014857600080fd5b50803561ffff169060208101356001600160a01b03908116916040810135909116906060013563ffffffff16620004a1565b604080516001600160a01b039092168252519081900360200190f35b6200017a620004d9565b6200017a60048036036080811015620001b857600080fd5b61ffff8235169190810190604081016020820135640100000000811115620001df57600080fd5b820183602082011115620001f257600080fd5b803590602001918460018302840111640100000000831117156200021557600080fd5b91908080601f01602080910402602001604051908101604052809392919081815260200183838082843760009201919091525092959493602081019350359150506401000000008111156200026957600080fd5b8201836020820111156200027c57600080fd5b803590602001918460018302840111640100000000831117156200029f57600080fd5b91908080601f0160208091040260200160405190810160405280939291908181526020018383808284376000920191909152509295505050903560ff169150620004e89050565b6200017a60048036036020811015620002fe57600080fd5b503561ffff1662000520565b6200017a600480360360208110156200032257600080fd5b503561ffff166200053b565b6200017a62000556565b6200012e62000565565b6200012e600480360360208110156200035a57600080fd5b50356001600160a01b03166200061d565b6200017a62000666565b6200017a600480360360208110156200038d57600080fd5b503561ffff1662000675565b6200017a62000690565b6200012e60048036036020811015620003bb57600080fd5b50356001600160a01b03166200069f565b6200012e60048036036020811015620003e457600080fd5b50356001600160a01b0316620006e8565b620003ff62000769565b8060026000836001600160a01b0316633e8ff43f6040518163ffffffff1660e01b815260040160206040518083038186803b1580156200043e57600080fd5b505afa15801562000453573d6000803e3d6000fd5b505050506040513d60208110156200046a57600080fd5b505161ffff168152602081019190915260400160002080546001600160a01b0319166001600160a01b039290921691909117905550565b6000620004b185858585620007bf565b600580546001600160a01b0319166001600160a01b0392831617908190551695945050505050565b6005546001600160a01b031681565b6000620004f88585858562000964565b600680546001600160a01b0319166001600160a01b0392831617908190551695945050505050565b6002602052600090815260409020546001600160a01b031681565b6003602052600090815260409020546001600160a01b031681565b6006546001600160a01b031681565b6001546001600160a01b03163314620005b9576040805162461bcd60e51b815260206004820152601160248201527011549497d050d0d154d4d7d11153925151607a1b604482015290519081900360640190fd5b600154600080546040516001600160a01b0393841693909116917f343765429aea5a34b3ff6a3785a98a5abb2597aca87bfbb58632c173d585373a91a360018054600080546001600160a01b03199081166001600160a01b03841617909155169055565b6200062762000769565b8060046000836001600160a01b0316633e8ff43f6040518163ffffffff1660e01b815260040160206040518083038186803b1580156200043e57600080fd5b6000546001600160a01b031681565b6004602052600090815260409020546001600160a01b031681565b6001546001600160a01b031681565b620006a962000769565b8060036000836001600160a01b0316633e8ff43f6040518163ffffffff1660e01b815260040160206040518083038186803b1580156200043e57600080fd5b620006f262000769565b6000546001600160a01b038281169116141562000747576040805162461bcd60e51b815260206004820152600e60248201526d22a9292fa9a0a6a2afa7aba722a960911b604482015290519081900360640190fd5b600180546001600160a01b0319166001600160a01b0392909216919091179055565b6000546001600160a01b03163314620007bd576040805162461bcd60e51b815260206004820152601160248201527011549497d050d0d154d4d7d11153925151607a1b604482015290519081900360640190fd5b565b61ffff84166000908152600260209081526040808320548151630228272b60e31b81526001600160a01b038881166004830152878116602483015263ffffffff8716604483015292518594939092169263114139589260648084019382900301818787803b1580156200083157600080fd5b505af115801562000846573d6000803e3d6000fd5b505050506040513d60208110156200085d57600080fd5b5051604080516379ba509760e01b815290519192506001600160a01b038316916379ba50979160048082019260009290919082900301818387803b158015620008a557600080fd5b505af1158015620008ba573d6000803e3d6000fd5b50506040805163f2fde38b60e01b815233600482015290516001600160a01b038516935063f2fde38b9250602480830192600092919082900301818387803b1580156200090657600080fd5b505af11580156200091b573d6000803e3d6000fd5b50506040513392506001600160a01b038416915061ffff8916907fbb340bcea68d239ac719bc5cf8c9a1716df04ad3babb8d1e562aa44d19fea3a390600090a495945050505050565b61ffff841660009081526003602052604081205481906001600160a01b03168062000a9f578585856040516200099a9062000cba565b60ff82166040820152606080825284519082015283518190602080830191608084019188019080838360005b83811015620009e0578181015183820152602001620009c6565b50505050905090810190601f16801562000a0e5780820380516001836020036101000a031916815260200191505b50838103825285518152855160209182019187019080838360005b8381101562000a4357818101518382015260200162000a29565b50505050905090810190601f16801562000a715780820380516001836020036101000a031916815260200191505b5095505050505050604051809103906000f08015801562000a96573d6000803e3d6000fd5b50915062000c4e565b806001600160a01b031663a9fd4a2a8787876040518463ffffffff1660e01b81526004018080602001806020018460ff168152602001838103835286818151815260200191508051906020019080838360005b8381101562000b0c57818101518382015260200162000af2565b50505050905090810190601f16801562000b3a5780820380516001836020036101000a031916815260200191505b50838103825285518152855160209182019187019080838360005b8381101562000b6f57818101518382015260200162000b55565b50505050905090810190601f16801562000b9d5780820380516001836020036101000a031916815260200191505b5095505050505050602060405180830381600087803b15801562000bc057600080fd5b505af115801562000bd5573d6000803e3d6000fd5b505050506040513d602081101562000bec57600080fd5b5051604080516379ba509760e01b815290519193506001600160a01b038416916379ba50979160048082019260009290919082900301818387803b15801562000c3457600080fd5b505af115801562000c49573d6000803e3d6000fd5b505050505b6040805163f2fde38b60e01b815233600482015290516001600160a01b0384169163f2fde38b91602480830192600092919082900301818387803b15801562000c9657600080fd5b505af115801562000cab573d6000803e3d6000fd5b50939998505050505050505050565b610ef38062000cc98339019056fe60806040523480156200001157600080fd5b5060405162000ef338038062000ef3833981810160405260608110156200003757600080fd5b81019080805160405193929190846401000000008211156200005857600080fd5b9083019060208201858111156200006e57600080fd5b82516401000000008111828201881017156200008957600080fd5b82525081516020918201929091019080838360005b83811015620000b85781810151838201526020016200009e565b50505050905090810190601f168015620000e65780820380516001836020036101000a031916815260200191505b50604052602001805160405193929190846401000000008211156200010a57600080fd5b9083019060208201858111156200012057600080fd5b82516401000000008111828201881017156200013b57600080fd5b82525081516020918201929091019080838360005b838110156200016a57818101518382015260200162000150565b50505050905090810190601f168015620001985780820380516001836020036101000a031916815260200191505b5060405260200151845190925084915083908390600090620001f4576040805162461bcd60e51b815260206004820152601060248201526f4552525f494e56414c49445f4e414d4560801b604482015290519081900360640190fd5b600083511162000240576040805162461bcd60e51b815260206004820152601260248201527111549497d253959053125117d4d6535093d360721b604482015290519081900360640190fd5b835162000255906000906020870190620002b8565b5082516200026b906001906020860190620002b8565b506002805460ff191660ff9390931692909217909155600381905533600081815260046020526040902091909155600680546001600160a01b031916909117905550620003549350505050565b828054600181600116156101000203166002900490600052602060002090601f016020900481019282601f10620002fb57805160ff19168380011785556200032b565b828001600101855582156200032b579182015b828111156200032b5782518255916020019190600101906200030e565b50620003399291506200033d565b5090565b5b808211156200033957600081556001016200033e565b610b8f80620003646000396000f3fe608060405234801561001057600080fd5b50600436106100f55760003560e01c8063867904b411610097578063a9059cbb11610066578063a9059cbb146102d9578063d4ee1d9014610305578063dd62ed3e1461030d578063f2fde38b1461033b576100f5565b8063867904b4146102555780638da5cb5b1461028157806395d89b41146102a5578063a24835d1146102ad576100f5565b806323b872dd116100d357806323b872dd146101d1578063313ce5671461020757806370a082311461022557806379ba50971461024b576100f5565b806306fdde03146100fa578063095ea7b31461017757806318160ddd146101b7575b600080fd5b610102610361565b6040805160208082528351818301528351919283929083019185019080838360005b8381101561013c578181015183820152602001610124565b50505050905090810190601f1680156101695780820380516001836020036101000a031916815260200191505b509250505060405180910390f35b6101a36004803603604081101561018d57600080fd5b506001600160a01b0381351690602001356103ef565b604080519115158252519081900360200190f35b6101bf610463565b60408051918252519081900360200190f35b6101a3600480360360608110156101e757600080fd5b506001600160a01b03813581169160208101359091169060400135610469565b61020f61047e565b6040805160ff9092168252519081900360200190f35b6101bf6004803603602081101561023b57600080fd5b50356001600160a01b0316610487565b610253610499565b005b6102536004803603604081101561026b57600080fd5b506001600160a01b038135169060200135610552565b610289610628565b604080516001600160a01b039092168252519081900360200190f35b610102610637565b610253600480360360408110156102c357600080fd5b506001600160a01b038135169060200135610691565b6101a3600480360360408110156102ef57600080fd5b506001600160a01b03813516906020013561074b565b61028961075e565b6101bf6004803603604081101561032357600080fd5b506001600160a01b038135811691602001351661076d565b6102536004803603602081101561035157600080fd5b50356001600160a01b031661078a565b6000805460408051602060026001851615610100026000190190941693909304601f810184900484028201840190925281815292918301828280156103e75780601f106103bc576101008083540402835291602001916103e7565b820191906000526020600020905b8154815290600101906020018083116103ca57829003601f168201915b505050505081565b6000826103fb81610808565b3360008181526005602090815260408083206001600160a01b03891680855290835292819020879055805187815290519293927f8c5be1e5ebec7d5bd14f71427d1e84f3dd0314c0f7b2291e5b200ac8c7c3b925929181900390910190a35060019392505050565b60035481565b600061047684848461085c565b949350505050565b60025460ff1681565b60046020526000908152604090205481565b6007546001600160a01b031633146104ec576040805162461bcd60e51b815260206004820152601160248201527011549497d050d0d154d4d7d11153925151607a1b604482015290519081900360640190fd5b6007546006546040516001600160a01b0392831692909116907f343765429aea5a34b3ff6a3785a98a5abb2597aca87bfbb58632c173d585373a90600090a360078054600680546001600160a01b03199081166001600160a01b03841617909155169055565b61055a61095b565b8161056481610808565b8261056e816109b0565b60035461057b9084610a04565b6003556001600160a01b0384166000908152600460205260409020546105a19084610a04565b6001600160a01b03851660009081526004602090815260409182902092909255805185815290517f9386c90217c323f58030f9dadcbc938f807a940f4ff41cd4cead9562f5da7dc3929181900390910190a16040805184815290516001600160a01b03861691600091600080516020610b3a8339815191529181900360200190a350505050565b6006546001600160a01b031681565b60018054604080516020600284861615610100026000190190941693909304601f810184900484028201840190925281815292918301828280156103e75780601f106103bc576101008083540402835291602001916103e7565b61069961095b565b6001600160a01b0382166000908152600460205260409020546106bc9082610a4d565b6001600160a01b0383166000908152600460205260409020556003546106e29082610a4d565b6003556040805182815290516000916001600160a01b03851691600080516020610b3a8339815191529181900360200190a36040805182815290517f9a1b418bc061a5d80270261562e6986a35d995f8051145f277be16103abd34539181900360200190a15050565b60006107578383610a9a565b9392505050565b6007546001600160a01b031681565b600560209081526000928352604080842090915290825290205481565b61079261095b565b6006546001600160a01b03828116911614156107e6576040805162461bcd60e51b815260206004820152600e60248201526d22a9292fa9a0a6a2afa7aba722a960911b604482015290519081900360640190fd5b600780546001600160a01b0319166001600160a01b0392909216919091179055565b6001600160a01b038116610859576040805162461bcd60e51b81526020600482015260136024820152724552525f494e56414c49445f4144445245535360681b604482015290519081900360640190fd5b50565b60008361086881610808565b8361087281610808565b6001600160a01b03861660009081526005602090815260408083203384529091529020546108a09085610a4d565b6001600160a01b0387166000818152600560209081526040808320338452825280832094909455918152600490915220546108db9085610a4d565b6001600160a01b03808816600090815260046020526040808220939093559087168152205461090a9085610a04565b6001600160a01b0380871660008181526004602090815260409182902094909455805188815290519193928a1692600080516020610b3a83398151915292918290030190a350600195945050505050565b6006546001600160a01b031633146109ae576040805162461bcd60e51b815260206004820152601160248201527011549497d050d0d154d4d7d11153925151607a1b604482015290519081900360640190fd5b565b6001600160a01b038116301415610859576040805162461bcd60e51b815260206004820152601360248201527222a9292fa0a2222922a9a9afa4a9afa9a2a62360691b604482015290519081900360640190fd5b600082820183811015610757576040805162461bcd60e51b815260206004820152600c60248201526b4552525f4f564552464c4f5760a01b604482015290519081900360640190fd5b600081831015610a94576040805162461bcd60e51b815260206004820152600d60248201526c4552525f554e444552464c4f5760981b604482015290519081900360640190fd5b50900390565b600082610aa681610808565b33600090815260046020526040902054610ac09084610a4d565b33600090815260046020526040808220929092556001600160a01b03861681522054610aec9084610a04565b6001600160a01b038516600081815260046020908152604091829020939093558051868152905191923392600080516020610b3a8339815191529281900390910190a3506001939250505056feddf252ad1be2c89b69c2b068fc378daa952ba7f163c4a11628f55a4df523b3efa26469706673582212204a863b957e4bf35ab60a3a80e48c3ee854fa0929d5f34fec90d5deef2d19786164736f6c634300060c0033a26469706673582212206ec2f5c3be7c7ed2bd0e7a28666fe5afebd9ef516e1aaa3b73012ded52854da664736f6c634300060c0033",
  "linkReferences": {},
  "deployedLinkReferences": {}
}