{
  "_format": "hh-sol-artifact-1",
  "contractName": "LiquidityPoolV1ConverterFactory",
  "sourceName": "contracts/bancor/converter/types/liquidity-pool-v1/LiquidityPoolV1ConverterFactory.sol",
  "abi": [
    {
      "inputs": [],
      "name": "converterType",
      "outputs": [
        {
          "internalType": "uint16",
          "name": "",
          "type": "uint16"
        }
      ],
      "stateMutability": "pure",
      "type": "function"
    },
    {
      "inputs": [
        {
          "internalType": "contract IConverterAnchor",
          "name": "_anchor",
          "type": "address"
        },
        {
          "internalType": "contract IContractRegistry",
          "name": "_registry",
          "type": "address"
        },
        {
          "internalType": "uint32",
          "name": "_maxConversionFee",
          "type": "uint32"
        }
      ],
      "name": "createConverter",
      "outputs": [
        {
          "internalType": "contract IConverter",
          "name": "",
          "type": "address"
        }
      ],
      "stateMutability": "nonpayable",
      "type": "function"
    }
  ],
  "bytecode": "0x608060405234801561001057600080fd5b506189fd806100206000396000f3fe608060405234801561001057600080fd5b50600436106100365760003560e01c8063114139581461003b5780633e8ff43f146100d9575b600080fd5b6100ad6004803603606081101561005157600080fd5b81019080803573ffffffffffffffffffffffffffffffffffffffff169060200190929190803573ffffffffffffffffffffffffffffffffffffffff169060200190929190803563ffffffff1690602001909291905050506100fb565b604051808273ffffffffffffffffffffffffffffffffffffffff16815260200191505060405180910390f35b6100e1610202565b604051808261ffff16815260200191505060405180910390f35b60008084848460405161010d9061020b565b808473ffffffffffffffffffffffffffffffffffffffff1681526020018373ffffffffffffffffffffffffffffffffffffffff1681526020018263ffffffff1681526020019350505050604051809103906000f080158015610173573d6000803e3d6000fd5b5090508073ffffffffffffffffffffffffffffffffffffffff1663f2fde38b336040518263ffffffff1660e01b8152600401808273ffffffffffffffffffffffffffffffffffffffff168152602001915050600060405180830381600087803b1580156101df57600080fd5b505af11580156101f3573d6000803e3d6000fd5b50505050809150509392505050565b60006001905090565b6187af806102198339019056fe60806040526000600360156101000a81548160ff0219169083151502179055506000600860006101000a81548163ffffffff021916908363ffffffff1602179055506000600860046101000a81548163ffffffff021916908363ffffffff16021790555060006008806101000a81548163ffffffff021916908363ffffffff16021790555073c0829421c1d260bd3cb3e0f06cfe2d52db2ce3156008600c6101000a81548173ffffffffffffffffffffffffffffffffffffffff021916908373ffffffffffffffffffffffffffffffffffffffff1602179055506000600960006101000a81548160ff0219169083151502179055503480156200010157600080fd5b50604051620087af380380620087af833981810160405260608110156200012757600080fd5b8101908080519060200190929190805190602001909291908051906020019092919050505082828282828281336000806101000a81548173ffffffffffffffffffffffffffffffffffffffff021916908373ffffffffffffffffffffffffffffffffffffffff16021790555080620001a581620002c060201b60201c565b81600260006101000a81548173ffffffffffffffffffffffffffffffffffffffff021916908373ffffffffffffffffffffffffffffffffffffffff16021790555081600360006101000a81548173ffffffffffffffffffffffffffffffffffffffff021916908373ffffffffffffffffffffffffffffffffffffffff1602179055505050826200023b81620002c060201b60201c565b816200024d816200036760201b60201c565b84600460006101000a81548173ffffffffffffffffffffffffffffffffffffffff021916908373ffffffffffffffffffffffffffffffffffffffff16021790555082600860046101000a81548163ffffffff021916908363ffffffff1602179055505050505050505050505050620003f0565b600073ffffffffffffffffffffffffffffffffffffffff168173ffffffffffffffffffffffffffffffffffffffff16141562000364576040517f08c379a00000000000000000000000000000000000000000000000000000000081526004018080602001828103825260138152602001807f4552525f494e56414c49445f414444524553530000000000000000000000000081525060200191505060405180910390fd5b50565b620f424063ffffffff168163ffffffff161115620003ed576040517f08c379a000000000000000000000000000000000000000000000000000000000815260040180806020018281038252601a8152602001807f4552525f494e56414c49445f434f4e56455253494f4e5f46454500000000000081525060200191505060405180910390fd5b50565b6183af80620004006000396000f3fe6080604052600436106103855760003560e01c806379ba5097116101d1578063ca1d209d11610102578063d66bd524116100a0578063e8dc12ff1161006f578063e8dc12ff14611875578063ecbca55d14611937578063f2fde38b14611978578063fc0c546a146119c957610462565b8063d66bd524146116ec578063d895951214611779578063dc8de379146117de578063e2c524681461184357610462565b8063d260529c116100dc578063d260529c14611626578063d3fb73b414611653578063d4ee1d9014611694578063d55ec697146116d557610462565b8063ca1d209d14611568578063cdc91c69146115aa578063d031370b146115c157610462565b8063a60e77241161016f578063b4a176d311610149578063b4a176d31461148a578063b7ef2367146114a1578063bf754558146114fa578063c45d3d921461152757610462565b8063a60e772414611163578063af94b8d81461123c578063b127c0a5146112d257610462565b806380d9416d116101ab57806380d9416d14610f945780638da5cb5b146110c257806394c275ad146111035780639b99a8e21461113457610462565b806379ba509714610dd25780637b10399914610de95780637d8916bd14610e2a57610462565b806338e9f27a116102b6578063579cd3ca11610254578063690d832011610223578063690d832014610ca25780636a49d2c414610cf35780636aa5332c14610d5457806371f52bf314610da357610462565b8063579cd3ca14610b645780635e35359e14610b9557806361cd756e14610c1057806367b6d57c14610c5157610462565b806349d10b641161029057806349d10b6414610a5e5780634af80f0e14610a755780634e40c26014610ac657806354fd4d5014610b3557610462565b806338e9f27a146109725780633e8ff43f1461099f578063415f1240146109ce57610462565b80631d4db7911161032357806321e6b53d116102fd57806321e6b53d146108b057806322f3e2d4146109015780632fe8a6ad1461092e57806338a5e0161461095b57610462565b80631d4db791146107835780631e1401f8146107ae5780631f0181bc1461084457610462565b806312c2aca41161035f57806312c2aca414610562578063154588371461058f57806319b64015146106b35780631cfab2901461071857610462565b8063024c7ec7146104675780630c7d5cd8146104a45780630e53aae9146104d557610462565b36610462576007600073eeeeeeeeeeeeeeeeeeeeeeeeeeeeeeeeeeeeeeee73ffffffffffffffffffffffffffffffffffffffff1673ffffffffffffffffffffffffffffffffffffffff16815260200190815260200160002060010160069054906101000a900460ff16610460576040517f08c379a00000000000000000000000000000000000000000000000000000000081526004018080602001828103825260138152602001807f4552525f494e56414c49445f524553455256450000000000000000000000000081525060200191505060405180910390fd5b005b600080fd5b34801561047357600080fd5b506104a26004803603602081101561048a57600080fd5b81019080803515159060200190929190505050611a0a565b005b3480156104b057600080fd5b506104b9611a2f565b604051808263ffffffff16815260200191505060405180910390f35b3480156104e157600080fd5b50610524600480360360208110156104f857600080fd5b81019080803573ffffffffffffffffffffffffffffffffffffffff169060200190929190505050611a45565b604051808681526020018563ffffffff1681526020018415158152602001831515815260200182151581526020019550505050505060405180910390f35b34801561056e57600080fd5b50610577611b48565b60405180821515815260200191505060405180910390f35b34801561059b57600080fd5b5061065c600480360360408110156105b257600080fd5b8101908080359060200190929190803590602001906401000000008111156105d957600080fd5b8201836020820111156105eb57600080fd5b8035906020019184602083028401116401000000008311171561060d57600080fd5b919080806020026020016040519081016040528093929190818152602001838360200280828437600081840152601f19601f820116905080830192505050505050509192919290505050611bb3565b6040518080602001828103825283818151815260200191508051906020019060200280838360005b8381101561069f578082015181840152602081019050610684565b505050509050019250505060405180910390f35b3480156106bf57600080fd5b506106ec600480360360208110156106d657600080fd5b8101908080359060200190929190505050611c9f565b604051808273ffffffffffffffffffffffffffffffffffffffff16815260200191505060405180910390f35b34801561072457600080fd5b506107676004803603602081101561073b57600080fd5b81019080803573ffffffffffffffffffffffffffffffffffffffff169060200190929190505050611ce0565b604051808263ffffffff16815260200191505060405180910390f35b34801561078f57600080fd5b50610798611d47565b6040518082815260200191505060405180910390f35b3480156107ba57600080fd5b50610827600480360360608110156107d157600080fd5b81019080803573ffffffffffffffffffffffffffffffffffffffff169060200190929190803573ffffffffffffffffffffffffffffffffffffffff16906020019092919080359060200190929190505050611d4d565b604051808381526020018281526020019250505060405180910390f35b34801561085057600080fd5b506108936004803603602081101561086757600080fd5b81019080803573ffffffffffffffffffffffffffffffffffffffff169060200190929190505050611d67565b604051808381526020018281526020019250505060405180910390f35b3480156108bc57600080fd5b506108ff600480360360208110156108d357600080fd5b81019080803573ffffffffffffffffffffffffffffffffffffffff169060200190929190505050611e93565b005b34801561090d57600080fd5b50610916611ea7565b60405180821515815260200191505060405180910390f35b34801561093a57600080fd5b50610943611f7f565b60405180821515815260200191505060405180910390f35b34801561096757600080fd5b50610970611f92565b005b34801561097e57600080fd5b50610987611fa4565b60405180821515815260200191505060405180910390f35b3480156109ab57600080fd5b506109b4611fb7565b604051808261ffff16815260200191505060405180910390f35b3480156109da57600080fd5b50610a07600480360360208110156109f157600080fd5b8101908080359060200190929190505050611fc0565b6040518080602001828103825283818151815260200191508051906020019060200280838360005b83811015610a4a578082015181840152602081019050610a2f565b505050509050019250505060405180910390f35b348015610a6a57600080fd5b50610a736122e7565b005b348015610a8157600080fd5b50610ac460048036036020811015610a9857600080fd5b81019080803573ffffffffffffffffffffffffffffffffffffffff1690602001909291905050506126df565b005b348015610ad257600080fd5b50610b1f60048036036040811015610ae957600080fd5b81019080803573ffffffffffffffffffffffffffffffffffffffff16906020019092919080359060200190929190505050612736565b6040518082815260200191505060405180910390f35b348015610b4157600080fd5b50610b4a612913565b604051808261ffff16815260200191505060405180910390f35b348015610b7057600080fd5b50610b79612918565b604051808263ffffffff16815260200191505060405180910390f35b348015610ba157600080fd5b50610c0e60048036036060811015610bb857600080fd5b81019080803573ffffffffffffffffffffffffffffffffffffffff169060200190929190803573ffffffffffffffffffffffffffffffffffffffff1690602001909291908035906020019092919050505061292c565b005b348015610c1c57600080fd5b50610c25612b38565b604051808273ffffffffffffffffffffffffffffffffffffffff16815260200191505060405180910390f35b348015610c5d57600080fd5b50610ca060048036036020811015610c7457600080fd5b81019080803573ffffffffffffffffffffffffffffffffffffffff169060200190929190505050612b5e565b005b348015610cae57600080fd5b50610cf160048036036020811015610cc557600080fd5b81019080803573ffffffffffffffffffffffffffffffffffffffff169060200190929190505050612c37565b005b348015610cff57600080fd5b50610d5260048036036040811015610d1657600080fd5b81019080803573ffffffffffffffffffffffffffffffffffffffff169060200190929190803563ffffffff169060200190929190505050612e02565b005b348015610d6057600080fd5b50610d8d60048036036020811015610d7757600080fd5b8101908080359060200190929190505050612f76565b6040518082815260200191505060405180910390f35b348015610daf57600080fd5b50610db8612fb0565b604051808261ffff16815260200191505060405180910390f35b348015610dde57600080fd5b50610de7612fbf565b005b348015610df557600080fd5b50610dfe6131c4565b604051808273ffffffffffffffffffffffffffffffffffffffff16815260200191505060405180910390f35b610f7e60048036036060811015610e4057600080fd5b8101908080359060200190640100000000811115610e5d57600080fd5b820183602082011115610e6f57600080fd5b80359060200191846020830284011164010000000083111715610e9157600080fd5b919080806020026020016040519081016040528093929190818152602001838360200280828437600081840152601f19601f82011690508083019250505050505050919291929080359060200190640100000000811115610ef157600080fd5b820183602082011115610f0357600080fd5b80359060200191846020830284011164010000000083111715610f2557600080fd5b919080806020026020016040519081016040528093929190818152602001838360200280828437600081840152601f19601f820116905080830192505050505050509192919290803590602001909291905050506131ea565b6040518082815260200191505060405180910390f35b348015610fa057600080fd5b5061106b60048036036060811015610fb757600080fd5b8101908080359060200190640100000000811115610fd457600080fd5b820183602082011115610fe657600080fd5b8035906020019184602083028401116401000000008311171561100857600080fd5b919080806020026020016040519081016040528093929190818152602001838360200280828437600081840152601f19601f82011690508083019250505050505050919291929080359060200190929190803590602001909291905050506135fe565b6040518080602001828103825283818151815260200191508051906020019060200280838360005b838110156110ae578082015181840152602081019050611093565b505050509050019250505060405180910390f35b3480156110ce57600080fd5b506110d7613985565b604051808273ffffffffffffffffffffffffffffffffffffffff16815260200191505060405180910390f35b34801561110f57600080fd5b506111186139a9565b604051808263ffffffff16815260200191505060405180910390f35b34801561114057600080fd5b506111496139bf565b604051808261ffff16815260200191505060405180910390f35b34801561116f57600080fd5b506112266004803603602081101561118657600080fd5b81019080803590602001906401000000008111156111a357600080fd5b8201836020820111156111b557600080fd5b803590602001918460208302840111640100000000831117156111d757600080fd5b919080806020026020016040519081016040528093929190818152602001838360200280828437600081840152601f19601f8201169050808301925050505050505091929192905050506139cc565b6040518082815260200191505060405180910390f35b34801561124857600080fd5b506112b56004803603606081101561125f57600080fd5b81019080803573ffffffffffffffffffffffffffffffffffffffff169060200190929190803573ffffffffffffffffffffffffffffffffffffffff16906020019092919080359060200190929190505050613a2b565b604051808381526020018281526020019250505060405180910390f35b3480156112de57600080fd5b50611433600480360360608110156112f557600080fd5b81019080803590602001909291908035906020019064010000000081111561131c57600080fd5b82018360208201111561132e57600080fd5b8035906020019184602083028401116401000000008311171561135057600080fd5b919080806020026020016040519081016040528093929190818152602001838360200280828437600081840152601f19601f820116905080830192505050505050509192919290803590602001906401000000008111156113b057600080fd5b8201836020820111156113c257600080fd5b803590602001918460208302840111640100000000831117156113e457600080fd5b919080806020026020016040519081016040528093929190818152602001838360200280828437600081840152601f19601f820116905080830192505050505050509192919290505050613ca5565b6040518080602001828103825283818151815260200191508051906020019060200280838360005b8381101561147657808201518184015260208101905061145b565b505050509050019250505060405180910390f35b34801561149657600080fd5b5061149f613e60565b005b3480156114ad57600080fd5b506114e4600480360360408110156114c457600080fd5b810190808035906020019092919080359060200190929190505050613ecd565b6040518082815260200191505060405180910390f35b34801561150657600080fd5b5061150f613eed565b60405180821515815260200191505060405180910390f35b34801561153357600080fd5b5061153c613ef2565b604051808273ffffffffffffffffffffffffffffffffffffffff16815260200191505060405180910390f35b6115946004803603602081101561157e57600080fd5b8101908080359060200190929190505050613f18565b6040518082815260200191505060405180910390f35b3480156115b657600080fd5b506115bf61464b565b005b3480156115cd57600080fd5b506115fa600480360360208110156115e457600080fd5b81019080803590602001909291905050506146d2565b604051808273ffffffffffffffffffffffffffffffffffffffff16815260200191505060405180910390f35b34801561163257600080fd5b5061163b61470e565b60405180821515815260200191505060405180910390f35b34801561165f57600080fd5b50611668614717565b604051808273ffffffffffffffffffffffffffffffffffffffff16815260200191505060405180910390f35b3480156116a057600080fd5b506116a961473d565b604051808273ffffffffffffffffffffffffffffffffffffffff16815260200191505060405180910390f35b3480156116e157600080fd5b506116ea614763565b005b3480156116f857600080fd5b5061173b6004803603602081101561170f57600080fd5b81019080803573ffffffffffffffffffffffffffffffffffffffff169060200190929190505050614891565b604051808681526020018563ffffffff1681526020018415158152602001831515815260200182151581526020019550505050505060405180910390f35b34801561178557600080fd5b506117c86004803603602081101561179c57600080fd5b81019080803573ffffffffffffffffffffffffffffffffffffffff1690602001909291905050506148fe565b6040518082815260200191505060405180910390f35b3480156117ea57600080fd5b5061182d6004803603602081101561180157600080fd5b81019080803573ffffffffffffffffffffffffffffffffffffffff169060200190929190505050614910565b6040518082815260200191505060405180910390f35b34801561184f57600080fd5b50611858614967565b604051808381526020018281526020019250505060405180910390f35b611921600480360360a081101561188b57600080fd5b81019080803573ffffffffffffffffffffffffffffffffffffffff169060200190929190803573ffffffffffffffffffffffffffffffffffffffff16906020019092919080359060200190929190803573ffffffffffffffffffffffffffffffffffffffff169060200190929190803573ffffffffffffffffffffffffffffffffffffffff169060200190929190505050614979565b6040518082815260200191505060405180910390f35b34801561194357600080fd5b506119766004803603602081101561195a57600080fd5b81019080803563ffffffff169060200190929190505050614cf9565b005b34801561198457600080fd5b506119c76004803603602081101561199b57600080fd5b81019080803573ffffffffffffffffffffffffffffffffffffffff169060200190929190505050614e13565b005b3480156119d557600080fd5b506119de614f21565b604051808273ffffffffffffffffffffffffffffffffffffffff16815260200191505060405180910390f35b611a12614f4b565b80600360146101000a81548160ff02191690831515021790555050565b600860009054906101000a900463ffffffff1681565b6000806000806000611a55618324565b600760008873ffffffffffffffffffffffffffffffffffffffff1673ffffffffffffffffffffffffffffffffffffffff1681526020019081526020016000206040518060a0016040529081600082015481526020016001820160009054906101000a900463ffffffff1663ffffffff1663ffffffff1681526020016001820160049054906101000a900460ff161515151581526020016001820160059054906101000a900460ff161515151581526020016001820160069054906101000a900460ff1615151515815250509050806000015181602001516000808460800151955095509550955095505091939590929450565b60006007600073eeeeeeeeeeeeeeeeeeeeeeeeeeeeeeeeeeeeeeee73ffffffffffffffffffffffffffffffffffffffff1673ffffffffffffffffffffffffffffffffffffffff16815260200190815260200160002060010160069054906101000a900460ff16905090565b60606000600460009054906101000a900473ffffffffffffffffffffffffffffffffffffffff1673ffffffffffffffffffffffffffffffffffffffff166318160ddd6040518163ffffffff1660e01b815260040160206040518083038186803b158015611c1f57600080fd5b505afa158015611c33573d6000803e3d6000fd5b505050506040513d6020811015611c4957600080fd5b810190808051906020019092919050505090506000611c877f42616e636f72466f726d756c610000000000000000000000000000000000000061500e565b9050611c95858584846150c5565b9250505092915050565b600060068281548110611cae57fe5b9060005260206000200160009054906101000a900473ffffffffffffffffffffffffffffffffffffffff169050919050565b600081611cec81615261565b600760008473ffffffffffffffffffffffffffffffffffffffff1673ffffffffffffffffffffffffffffffffffffffff16815260200190815260200160002060010160009054906101000a900463ffffffff16915050919050565b600c5481565b600080611d5b858585613a2b565b91509150935093915050565b600080600960009054906101000a900460ff16611dec576040517f08c379a00000000000000000000000000000000000000000000000000000000081526004018080602001828103825260158152602001807f4552525f4e4f4e5f5354414e444152445f504f4f4c000000000000000000000081525060200191505060405180910390fd5b611df461835f565b611dfc615326565b90506006600081548110611e0c57fe5b9060005260206000200160009054906101000a900473ffffffffffffffffffffffffffffffffffffffff1673ffffffffffffffffffffffffffffffffffffffff168473ffffffffffffffffffffffffffffffffffffffff161415611e7e57806000015181602001519250925050611e8e565b8060200151816000015192509250505b915091565b611e9b614f4b565b611ea481612b5e565b50565b60003073ffffffffffffffffffffffffffffffffffffffff16600460009054906101000a900473ffffffffffffffffffffffffffffffffffffffff1673ffffffffffffffffffffffffffffffffffffffff16638da5cb5b6040518163ffffffff1660e01b815260040160206040518083038186803b158015611f2857600080fd5b505afa158015611f3c573d6000803e3d6000fd5b505050506040513d6020811015611f5257600080fd5b810190808051906020019092919050505073ffffffffffffffffffffffffffffffffffffffff1614905090565b600360149054906101000a900460ff1681565b611f9a614f4b565b611fa261464b565b565b600960009054906101000a900460ff1681565b60006001905090565b6060611fca6155a8565b6001600360156101000a81548160ff0219169083151502179055506000821161205b576040517f08c379a000000000000000000000000000000000000000000000000000000000815260040180806020018281038252600f8152602001807f4552525f5a45524f5f414d4f554e54000000000000000000000000000000000081525060200191505060405180910390fd5b6000600460009054906101000a900473ffffffffffffffffffffffffffffffffffffffff1673ffffffffffffffffffffffffffffffffffffffff166318160ddd6040518163ffffffff1660e01b815260040160206040518083038186803b1580156120c557600080fd5b505afa1580156120d9573d6000803e3d6000fd5b505050506040513d60208110156120ef57600080fd5b81019080805190602001909291905050509050600460009054906101000a900473ffffffffffffffffffffffffffffffffffffffff1673ffffffffffffffffffffffffffffffffffffffff1663a24835d133856040518363ffffffff1660e01b8152600401808373ffffffffffffffffffffffffffffffffffffffff16815260200182815260200192505050600060405180830381600087803b15801561219557600080fd5b505af11580156121a9573d6000803e3d6000fd5b50505050606060068054905067ffffffffffffffff811180156121cb57600080fd5b506040519080825280602002602001820160405280156121fa5781602001602082028036833780820191505090505b50905060005b815181101561223057600182828151811061221757fe5b6020026020010181815250508080600101915050612200565b506122c360068054806020026020016040519081016040528092919081815260200182805480156122b657602002820191906000526020600020905b8160009054906101000a900473ffffffffffffffffffffffffffffffffffffffff1673ffffffffffffffffffffffffffffffffffffffff168152602001906001019080831161226c575b505050505082848761562d565b925050506000600360156101000a81548160ff021916908315150217905550919050565b60008054906101000a900473ffffffffffffffffffffffffffffffffffffffff1673ffffffffffffffffffffffffffffffffffffffff163373ffffffffffffffffffffffffffffffffffffffff16148061234e5750600360149054906101000a900460ff16155b6123c0576040517f08c379a00000000000000000000000000000000000000000000000000000000081526004018080602001828103825260118152602001807f4552525f4143434553535f44454e49454400000000000000000000000000000081525060200191505060405180910390fd5b60006123eb7f436f6e747261637452656769737472790000000000000000000000000000000061500e565b9050600260009054906101000a900473ffffffffffffffffffffffffffffffffffffffff1673ffffffffffffffffffffffffffffffffffffffff168173ffffffffffffffffffffffffffffffffffffffff16141580156124785750600073ffffffffffffffffffffffffffffffffffffffff168173ffffffffffffffffffffffffffffffffffffffff1614155b6124ea576040517f08c379a00000000000000000000000000000000000000000000000000000000081526004018080602001828103825260148152602001807f4552525f494e56414c49445f524547495354525900000000000000000000000081525060200191505060405180910390fd5b600073ffffffffffffffffffffffffffffffffffffffff168173ffffffffffffffffffffffffffffffffffffffff1663bb34534c7f436f6e74726163745265676973747279000000000000000000000000000000006040518263ffffffff1660e01b81526004018082815260200191505060206040518083038186803b15801561257357600080fd5b505afa158015612587573d6000803e3d6000fd5b505050506040513d602081101561259d57600080fd5b810190808051906020019092919050505073ffffffffffffffffffffffffffffffffffffffff161415612638576040517f08c379a00000000000000000000000000000000000000000000000000000000081526004018080602001828103825260148152602001807f4552525f494e56414c49445f524547495354525900000000000000000000000081525060200191505060405180910390fd5b600260009054906101000a900473ffffffffffffffffffffffffffffffffffffffff16600360006101000a81548173ffffffffffffffffffffffffffffffffffffffff021916908373ffffffffffffffffffffffffffffffffffffffff16021790555080600260006101000a81548173ffffffffffffffffffffffffffffffffffffffff021916908373ffffffffffffffffffffffffffffffffffffffff16021790555050565b6126e7614f4b565b806126f181615982565b81600560006101000a81548173ffffffffffffffffffffffffffffffffffffffff021916908373ffffffffffffffffffffffffffffffffffffffff1602179055505050565b600080600460009054906101000a900473ffffffffffffffffffffffffffffffffffffffff1673ffffffffffffffffffffffffffffffffffffffff166318160ddd6040518163ffffffff1660e01b815260040160206040518083038186803b1580156127a157600080fd5b505afa1580156127b5573d6000803e3d6000fd5b505050506040513d60208110156127cb57600080fd5b8101908080519060200190929190505050905060006128097f42616e636f72466f726d756c610000000000000000000000000000000000000061500e565b90508073ffffffffffffffffffffffffffffffffffffffff16632f55bdb583600760008973ffffffffffffffffffffffffffffffffffffffff1673ffffffffffffffffffffffffffffffffffffffff16815260200190815260200160002060000154600860009054906101000a900463ffffffff16886040518563ffffffff1660e01b8152600401808581526020018481526020018363ffffffff16815260200182815260200194505050505060206040518083038186803b1580156128ce57600080fd5b505afa1580156128e2573d6000803e3d6000fd5b505050506040513d60208110156128f857600080fd5b81019080805190602001909291905050509250505092915050565b602881565b60088054906101000a900463ffffffff1681565b6129346155a8565b6001600360156101000a81548160ff021916908315150217905550612957614f4b565b60006129827f42616e636f72436f6e766572746572557067726164657200000000000000000061500e565b9050600760008573ffffffffffffffffffffffffffffffffffffffff1673ffffffffffffffffffffffffffffffffffffffff16815260200190815260200160002060010160069054906101000a900460ff1615806129e557506129e3611ea7565b155b80612a3b57508073ffffffffffffffffffffffffffffffffffffffff1660008054906101000a900473ffffffffffffffffffffffffffffffffffffffff1673ffffffffffffffffffffffffffffffffffffffff16145b612aad576040517f08c379a00000000000000000000000000000000000000000000000000000000081526004018080602001828103825260118152602001807f4552525f4143434553535f44454e49454400000000000000000000000000000081525060200191505060405180910390fd5b612ab8848484615a27565b600760008573ffffffffffffffffffffffffffffffffffffffff1673ffffffffffffffffffffffffffffffffffffffff16815260200190815260200160002060010160069054906101000a900460ff1615612b1757612b1684615a60565b5b506000600360156101000a81548160ff021916908315150217905550505050565b600360009054906101000a900473ffffffffffffffffffffffffffffffffffffffff1681565b612b66614f4b565b7f42616e636f72436f6e7665727465725570677261646572000000000000000000612b9081615beb565b600460009054906101000a900473ffffffffffffffffffffffffffffffffffffffff1673ffffffffffffffffffffffffffffffffffffffff1663f2fde38b836040518263ffffffff1660e01b8152600401808273ffffffffffffffffffffffffffffffffffffffff168152602001915050600060405180830381600087803b158015612c1b57600080fd5b505af1158015612c2f573d6000803e3d6000fd5b505050505050565b612c3f6155a8565b6001600360156101000a81548160ff021916908315150217905550612c62614f4b565b73eeeeeeeeeeeeeeeeeeeeeeeeeeeeeeeeeeeeeeee612c8081615261565b6000612cab7f42616e636f72436f6e766572746572557067726164657200000000000000000061500e565b9050612cb5611ea7565b1580612d0c57508073ffffffffffffffffffffffffffffffffffffffff1660008054906101000a900473ffffffffffffffffffffffffffffffffffffffff1673ffffffffffffffffffffffffffffffffffffffff16145b612d7e576040517f08c379a00000000000000000000000000000000000000000000000000000000081526004018080602001828103825260118152602001807f4552525f4143434553535f44454e49454400000000000000000000000000000081525060200191505060405180910390fd5b8273ffffffffffffffffffffffffffffffffffffffff166108fc479081150290604051600060405180830381858888f19350505050158015612dc4573d6000803e3d6000fd5b50612de273eeeeeeeeeeeeeeeeeeeeeeeeeeeeeeeeeeeeeeee615a60565b50506000600360156101000a81548160ff02191690831515021790555050565b612e0a614f4b565b612e148282615c97565b6002600680549050148015612ebb57506207a120600760006006600081548110612e3a57fe5b9060005260206000200160009054906101000a900473ffffffffffffffffffffffffffffffffffffffff1673ffffffffffffffffffffffffffffffffffffffff1673ffffffffffffffffffffffffffffffffffffffff16815260200190815260200160002060010160009054906101000a900463ffffffff1663ffffffff16145b8015612f5957506207a120600760006006600181548110612ed857fe5b9060005260206000200160009054906101000a900473ffffffffffffffffffffffffffffffffffffffff1673ffffffffffffffffffffffffffffffffffffffff1673ffffffffffffffffffffffffffffffffffffffff16815260200190815260200160002060010160009054906101000a900463ffffffff1663ffffffff16145b600960006101000a81548160ff0219169083151502179055505050565b6000806000905060008390505b6000811115612fa6578180600101925050600a8181612f9e57fe5b049050612f83565b5080915050919050565b6000612fba6139bf565b905090565b600160009054906101000a900473ffffffffffffffffffffffffffffffffffffffff1673ffffffffffffffffffffffffffffffffffffffff163373ffffffffffffffffffffffffffffffffffffffff1614613082576040517f08c379a00000000000000000000000000000000000000000000000000000000081526004018080602001828103825260118152602001807f4552525f4143434553535f44454e49454400000000000000000000000000000081525060200191505060405180910390fd5b600160009054906101000a900473ffffffffffffffffffffffffffffffffffffffff1673ffffffffffffffffffffffffffffffffffffffff1660008054906101000a900473ffffffffffffffffffffffffffffffffffffffff1673ffffffffffffffffffffffffffffffffffffffff167f343765429aea5a34b3ff6a3785a98a5abb2597aca87bfbb58632c173d585373a60405160405180910390a3600160009054906101000a900473ffffffffffffffffffffffffffffffffffffffff166000806101000a81548173ffffffffffffffffffffffffffffffffffffffff021916908373ffffffffffffffffffffffffffffffffffffffff1602179055506000600160006101000a81548173ffffffffffffffffffffffffffffffffffffffff021916908373ffffffffffffffffffffffffffffffffffffffff160217905550565b600260009054906101000a900473ffffffffffffffffffffffffffffffffffffffff1681565b60006131f46155a8565b6001600360156101000a81548160ff02191690831515021790555061321761604d565b6132228484846160c9565b60005b845181101561331f5773eeeeeeeeeeeeeeeeeeeeeeeeeeeeeeeeeeeeeeee73ffffffffffffffffffffffffffffffffffffffff1685828151811061326557fe5b602002602001015173ffffffffffffffffffffffffffffffffffffffff161415613312573484828151811061329657fe5b602002602001015114613311576040517f08c379a00000000000000000000000000000000000000000000000000000000081526004018080602001828103825260178152602001807f4552525f4554485f414d4f554e545f4d49534d4154434800000000000000000081525060200191505060405180910390fd5b5b8080600101915050613225565b506000341115613400576007600073eeeeeeeeeeeeeeeeeeeeeeeeeeeeeeeeeeeeeeee73ffffffffffffffffffffffffffffffffffffffff1673ffffffffffffffffffffffffffffffffffffffff16815260200190815260200160002060010160069054906101000a900460ff166133ff576040517f08c379a00000000000000000000000000000000000000000000000000000000081526004018080602001828103825260128152602001807f4552525f4e4f5f4554485f52455345525645000000000000000000000000000081525060200191505060405180910390fd5b5b6000600460009054906101000a900473ffffffffffffffffffffffffffffffffffffffff1673ffffffffffffffffffffffffffffffffffffffff166318160ddd6040518163ffffffff1660e01b815260040160206040518083038186803b15801561346a57600080fd5b505afa15801561347e573d6000803e3d6000fd5b505050506040513d602081101561349457600080fd5b8101908080519060200190929190505050905060006134b48686846164ca565b90508381101561352c576040517f08c379a00000000000000000000000000000000000000000000000000000000081526004018080602001828103825260128152602001807f4552525f52455455524e5f544f4f5f4c4f57000000000000000000000000000081525060200191505060405180910390fd5b600460009054906101000a900473ffffffffffffffffffffffffffffffffffffffff1673ffffffffffffffffffffffffffffffffffffffff1663867904b433836040518363ffffffff1660e01b8152600401808373ffffffffffffffffffffffffffffffffffffffff16815260200182815260200192505050600060405180830381600087803b1580156135bf57600080fd5b505af11580156135d3573d6000803e3d6000fd5b5050505080925050506000600360156101000a81548160ff0219169083151502179055509392505050565b606080845167ffffffffffffffff8111801561361957600080fd5b506040519080825280602002602001820160405280156136485781602001602082028036833780820191505090505b5090506000600460009054906101000a900473ffffffffffffffffffffffffffffffffffffffff1673ffffffffffffffffffffffffffffffffffffffff166318160ddd6040518163ffffffff1660e01b815260040160206040518083038186803b1580156136b557600080fd5b505afa1580156136c9573d6000803e3d6000fd5b505050506040513d60208110156136df57600080fd5b81019080805190602001909291905050509050600061371d7f42616e636f72466f726d756c610000000000000000000000000000000000000061500e565b905060008173ffffffffffffffffffffffffffffffffffffffff16632f55bdb584600760008c8c8151811061374e57fe5b602002602001015173ffffffffffffffffffffffffffffffffffffffff1673ffffffffffffffffffffffffffffffffffffffff16815260200190815260200160002060000154600860009054906101000a900463ffffffff168a6040518563ffffffff1660e01b8152600401808581526020018481526020018363ffffffff16815260200182815260200194505050505060206040518083038186803b1580156137f757600080fd5b505afa15801561380b573d6000803e3d6000fd5b505050506040513d602081101561382157600080fd5b8101908080519060200190929190505050905060005b8451811015613976578273ffffffffffffffffffffffffffffffffffffffff1663ebbb215885600760008d868151811061386d57fe5b602002602001015173ffffffffffffffffffffffffffffffffffffffff1673ffffffffffffffffffffffffffffffffffffffff16815260200190815260200160002060000154600860009054906101000a900463ffffffff16866040518563ffffffff1660e01b8152600401808581526020018481526020018363ffffffff16815260200182815260200194505050505060206040518083038186803b15801561391657600080fd5b505afa15801561392a573d6000803e3d6000fd5b505050506040513d602081101561394057600080fd5b810190808051906020019092919050505085828151811061395d57fe5b6020026020010181815250508080600101915050613837565b50839450505050509392505050565b60008054906101000a900473ffffffffffffffffffffffffffffffffffffffff1681565b600860049054906101000a900463ffffffff1681565b6000600680549050905090565b6000806000905060008351905060005b81811015613a1157613a008582815181106139f357fe5b6020026020010151612f76565b8301925080806001019150506139dc565b506001613a1e8383613ecd565b03600a0a92505050919050565b600080613a3661604d565b84613a4081615261565b84613a4a81615261565b8573ffffffffffffffffffffffffffffffffffffffff168773ffffffffffffffffffffffffffffffffffffffff161415613aec576040517f08c379a00000000000000000000000000000000000000000000000000000000081526004018080602001828103825260168152602001807f4552525f53414d455f534f555243455f5441524745540000000000000000000081525060200191505060405180910390fd5b6000613b177f42616e636f72466f726d756c610000000000000000000000000000000000000061500e565b73ffffffffffffffffffffffffffffffffffffffff166394491fab613b3b8a614910565b600760008c73ffffffffffffffffffffffffffffffffffffffff1673ffffffffffffffffffffffffffffffffffffffff16815260200190815260200160002060010160009054906101000a900463ffffffff16613b978b614910565b600760008d73ffffffffffffffffffffffffffffffffffffffff1673ffffffffffffffffffffffffffffffffffffffff16815260200190815260200160002060010160009054906101000a900463ffffffff168b6040518663ffffffff1660e01b8152600401808681526020018563ffffffff1681526020018481526020018363ffffffff1681526020018281526020019550505050505060206040518083038186803b158015613c4757600080fd5b505afa158015613c5b573d6000803e3d6000fd5b505050506040513d6020811015613c7157600080fd5b810190808051906020019092919050505090506000613c8f826164fa565b9050808203819550955050505050935093915050565b6060613caf6155a8565b6001600360156101000a81548160ff021916908315150217905550613cd261604d565b613cdd8383866160c9565b6000600460009054906101000a900473ffffffffffffffffffffffffffffffffffffffff1673ffffffffffffffffffffffffffffffffffffffff166318160ddd6040518163ffffffff1660e01b815260040160206040518083038186803b158015613d4757600080fd5b505afa158015613d5b573d6000803e3d6000fd5b505050506040513d6020811015613d7157600080fd5b81019080805190602001909291905050509050600460009054906101000a900473ffffffffffffffffffffffffffffffffffffffff1673ffffffffffffffffffffffffffffffffffffffff1663a24835d133876040518363ffffffff1660e01b8152600401808373ffffffffffffffffffffffffffffffffffffffff16815260200182815260200192505050600060405180830381600087803b158015613e1757600080fd5b505af1158015613e2b573d6000803e3d6000fd5b50505050613e3b8484838861562d565b9150506000600360156101000a81548160ff0219169083151502179055509392505050565b613e68614f4b565b600360009054906101000a900473ffffffffffffffffffffffffffffffffffffffff16600260006101000a81548173ffffffffffffffffffffffffffffffffffffffff021916908373ffffffffffffffffffffffffffffffffffffffff160217905550565b60008160028381613eda57fe5b04840181613ee457fe5b04905092915050565b600181565b600560009054906101000a900473ffffffffffffffffffffffffffffffffffffffff1681565b6000613f226155a8565b6001600360156101000a81548160ff021916908315150217905550613f45616547565b613fae346007600073eeeeeeeeeeeeeeeeeeeeeeeeeeeeeeeeeeeeeeee73ffffffffffffffffffffffffffffffffffffffff1673ffffffffffffffffffffffffffffffffffffffff168152602001908152602001600020600001546165ad90919063ffffffff16565b6007600073eeeeeeeeeeeeeeeeeeeeeeeeeeeeeeeeeeeeeeee73ffffffffffffffffffffffffffffffffffffffff1673ffffffffffffffffffffffffffffffffffffffff168152602001908152602001600020600001819055506000600460009054906101000a900473ffffffffffffffffffffffffffffffffffffffff1673ffffffffffffffffffffffffffffffffffffffff166318160ddd6040518163ffffffff1660e01b815260040160206040518083038186803b15801561407257600080fd5b505afa158015614086573d6000803e3d6000fd5b505050506040513d602081101561409c57600080fd5b8101908080519060200190929190505050905060006140da7f42616e636f72466f726d756c610000000000000000000000000000000000000061500e565b90506000600680549050905060005b818110156145795760006006828154811061410057fe5b9060005260206000200160009054906101000a900473ffffffffffffffffffffffffffffffffffffffff1690506000600760008373ffffffffffffffffffffffffffffffffffffffff1673ffffffffffffffffffffffffffffffffffffffff16815260200190815260200160002060000154905060008573ffffffffffffffffffffffffffffffffffffffff1663ebbb21588884600860009054906101000a900463ffffffff168d6040518563ffffffff1660e01b8152600401808581526020018481526020018363ffffffff16815260200182815260200194505050505060206040518083038186803b1580156141f757600080fd5b505afa15801561420b573d6000803e3d6000fd5b505050506040513d602081101561422157600080fd5b8101908080519060200190929190505050905073eeeeeeeeeeeeeeeeeeeeeeeeeeeeeeeeeeeeeeee73ffffffffffffffffffffffffffffffffffffffff168373ffffffffffffffffffffffffffffffffffffffff16141561441257803411156142d2573373ffffffffffffffffffffffffffffffffffffffff166108fc8234039081150290604051600060405180830381858888f193505050501580156142cc573d6000803e3d6000fd5b5061440d565b8034101561440c5760003414614350576040517f08c379a00000000000000000000000000000000000000000000000000000000081526004018080602001828103825260158152602001807f4552525f494e56414c49445f4554485f56414c5545000000000000000000000081525060200191505060405180910390fd5b61437e6008600c9054906101000a900473ffffffffffffffffffffffffffffffffffffffff16333084616630565b6008600c9054906101000a900473ffffffffffffffffffffffffffffffffffffffff1673ffffffffffffffffffffffffffffffffffffffff16632e1a7d4d826040518263ffffffff1660e01b815260040180828152602001915050600060405180830381600087803b1580156143f357600080fd5b505af1158015614407573d6000803e3d6000fd5b505050505b5b61441f565b61441e83333084616630565b5b6000614434828461686a90919063ffffffff16565b905080600760008673ffffffffffffffffffffffffffffffffffffffff1673ffffffffffffffffffffffffffffffffffffffff1681526020019081526020016000206000018190555060006144928b8a61686a90919063ffffffff16565b90508473ffffffffffffffffffffffffffffffffffffffff163373ffffffffffffffffffffffffffffffffffffffff167f4a1a2a6176e9646d9e3157f7c2ab3c499f18337c0b0828cfb28e0a61de4a11f785858560405180848152602001838152602001828152602001935050505060405180910390a3614567818684600760008a73ffffffffffffffffffffffffffffffffffffffff1673ffffffffffffffffffffffffffffffffffffffff16815260200190815260200160002060010160009054906101000a900463ffffffff166168f2565b505050505080806001019150506140e9565b50600460009054906101000a900473ffffffffffffffffffffffffffffffffffffffff1673ffffffffffffffffffffffffffffffffffffffff1663867904b433876040518363ffffffff1660e01b8152600401808373ffffffffffffffffffffffffffffffffffffffff16815260200182815260200192505050600060405180830381600087803b15801561460d57600080fd5b505af1158015614621573d6000803e3d6000fd5b505050508493505050506000600360156101000a81548160ff021916908315150217905550919050565b614653614f4b565b61465b6169ba565b60011515600460009054906101000a900473ffffffffffffffffffffffffffffffffffffffff1673ffffffffffffffffffffffffffffffffffffffff166146a0611fb7565b61ffff167f6b08c2e2c9969e55a647a764db9b554d64dc42f1a704da11a6d5b129ad163f2c60405160405180910390a4565b600681815481106146df57fe5b906000526020600020016000915054906101000a900473ffffffffffffffffffffffffffffffffffffffff1681565b60006001905090565b600460009054906101000a900473ffffffffffffffffffffffffffffffffffffffff1681565b600160009054906101000a900473ffffffffffffffffffffffffffffffffffffffff1681565b61476b614f4b565b60006147967f42616e636f72436f6e766572746572557067726164657200000000000000000061500e565b905060001515600460009054906101000a900473ffffffffffffffffffffffffffffffffffffffff1673ffffffffffffffffffffffffffffffffffffffff166147dd611fb7565b61ffff167f6b08c2e2c9969e55a647a764db9b554d64dc42f1a704da11a6d5b129ad163f2c60405160405180910390a461481681614e13565b8073ffffffffffffffffffffffffffffffffffffffff166390f58c9660286040518263ffffffff1660e01b8152600401808261ffff168152602001915050600060405180830381600087803b15801561486e57600080fd5b505af1158015614882573d6000803e3d6000fd5b5050505061488e612fbf565b50565b60076020528060005260406000206000915090508060000154908060010160009054906101000a900463ffffffff16908060010160049054906101000a900460ff16908060010160059054906101000a900460ff16908060010160069054906101000a900460ff16905085565b600061490982614910565b9050919050565b60008161491c81615261565b600760008473ffffffffffffffffffffffffffffffffffffffff1673ffffffffffffffffffffffffffffffffffffffff16815260200190815260200160002060000154915050919050565b600a8060000154908060010154905082565b60006149836155a8565b6001600360156101000a81548160ff0219169083151502179055507f42616e636f724e6574776f726b000000000000000000000000000000000000006149c881615beb565b8573ffffffffffffffffffffffffffffffffffffffff168773ffffffffffffffffffffffffffffffffffffffff161415614a6a576040517f08c379a00000000000000000000000000000000000000000000000000000000081526004018080602001828103825260168152602001807f4552525f53414d455f534f555243455f5441524745540000000000000000000081525060200191505060405180910390fd5b600073ffffffffffffffffffffffffffffffffffffffff16600560009054906101000a900473ffffffffffffffffffffffffffffffffffffffff1673ffffffffffffffffffffffffffffffffffffffff161480614c535750600560009054906101000a900473ffffffffffffffffffffffffffffffffffffffff1673ffffffffffffffffffffffffffffffffffffffff16633af32abf856040518263ffffffff1660e01b8152600401808273ffffffffffffffffffffffffffffffffffffffff16815260200191505060206040518083038186803b158015614b4b57600080fd5b505afa158015614b5f573d6000803e3d6000fd5b505050506040513d6020811015614b7557600080fd5b81019080805190602001909291905050508015614c525750600560009054906101000a900473ffffffffffffffffffffffffffffffffffffffff1673ffffffffffffffffffffffffffffffffffffffff16633af32abf846040518263ffffffff1660e01b8152600401808273ffffffffffffffffffffffffffffffffffffffff16815260200191505060206040518083038186803b158015614c1657600080fd5b505afa158015614c2a573d6000803e3d6000fd5b505050506040513d6020811015614c4057600080fd5b81019080805190602001909291905050505b5b614cc5576040517f08c379a00000000000000000000000000000000000000000000000000000000081526004018080602001828103825260138152602001807f4552525f4e4f545f57484954454c49535445440000000000000000000000000081525060200191505060405180910390fd5b614cd28787878787616a45565b9150506000600360156101000a81548160ff02191690831515021790555095945050505050565b614d01614f4b565b600860049054906101000a900463ffffffff1663ffffffff168163ffffffff161115614d95576040517f08c379a000000000000000000000000000000000000000000000000000000000815260040180806020018281038252601a8152602001807f4552525f494e56414c49445f434f4e56455253494f4e5f46454500000000000081525060200191505060405180910390fd5b7f81cd2ffb37dd237c0e4e2a3de5265fcf9deb43d3e7801e80db9f1ccfba7ee60060088054906101000a900463ffffffff1682604051808363ffffffff1681526020018263ffffffff1681526020019250505060405180910390a1806008806101000a81548163ffffffff021916908363ffffffff16021790555050565b614e1b614f4b565b60008054906101000a900473ffffffffffffffffffffffffffffffffffffffff1673ffffffffffffffffffffffffffffffffffffffff168173ffffffffffffffffffffffffffffffffffffffff161415614edd576040517f08c379a000000000000000000000000000000000000000000000000000000000815260040180806020018281038252600e8152602001807f4552525f53414d455f4f574e455200000000000000000000000000000000000081525060200191505060405180910390fd5b80600160006101000a81548173ffffffffffffffffffffffffffffffffffffffff021916908373ffffffffffffffffffffffffffffffffffffffff16021790555050565b6000600460009054906101000a900473ffffffffffffffffffffffffffffffffffffffff16905090565b60008054906101000a900473ffffffffffffffffffffffffffffffffffffffff1673ffffffffffffffffffffffffffffffffffffffff163373ffffffffffffffffffffffffffffffffffffffff161461500c576040517f08c379a00000000000000000000000000000000000000000000000000000000081526004018080602001828103825260118152602001807f4552525f4143434553535f44454e49454400000000000000000000000000000081525060200191505060405180910390fd5b565b6000600260009054906101000a900473ffffffffffffffffffffffffffffffffffffffff1673ffffffffffffffffffffffffffffffffffffffff1663bb34534c836040518263ffffffff1660e01b81526004018082815260200191505060206040518083038186803b15801561508357600080fd5b505afa158015615097573d6000803e3d6000fd5b505050506040513d60208110156150ad57600080fd5b81019080805190602001909291905050509050919050565b606080845167ffffffffffffffff811180156150e057600080fd5b5060405190808252806020026020018201604052801561510f5781602001602082028036833780820191505090505b50905060005b8151811015615254578373ffffffffffffffffffffffffffffffffffffffff16638074590a86600760008a868151811061514b57fe5b602002602001015173ffffffffffffffffffffffffffffffffffffffff1673ffffffffffffffffffffffffffffffffffffffff16815260200190815260200160002060000154600860009054906101000a900463ffffffff168b6040518563ffffffff1660e01b8152600401808581526020018481526020018363ffffffff16815260200182815260200194505050505060206040518083038186803b1580156151f457600080fd5b505afa158015615208573d6000803e3d6000fd5b505050506040513d602081101561521e57600080fd5b810190808051906020019092919050505082828151811061523b57fe5b6020026020010181815250508080600101915050615115565b5080915050949350505050565b600760008273ffffffffffffffffffffffffffffffffffffffff1673ffffffffffffffffffffffffffffffffffffffff16815260200190815260200160002060010160069054906101000a900460ff16615323576040517f08c379a00000000000000000000000000000000000000000000000000000000081526004018080602001828103825260138152602001807f4552525f494e56414c49445f524553455256450000000000000000000000000081525060200191505060405180910390fd5b50565b61532e61835f565b6000600c5461533b616ea4565b039050600081141561537057600a604051806040016040529081600082015481526020016001820154815250509150506155a5565b600060076000600660018154811061538457fe5b9060005260206000200160009054906101000a900473ffffffffffffffffffffffffffffffffffffffff1673ffffffffffffffffffffffffffffffffffffffff1673ffffffffffffffffffffffffffffffffffffffff168152602001908152602001600020600001549050600060076000600660008154811061540357fe5b9060005260206000200160009054906101000a900473ffffffffffffffffffffffffffffffffffffffff1673ffffffffffffffffffffffffffffffffffffffff1673ffffffffffffffffffffffffffffffffffffffff16815260200190815260200160002060000154905061025883106154965760405180604001604052808381526020018281525093505050506155a5565b61549e61835f565b600a60405180604001604052908160008201548152602001600182015481525050905060006154da848360200151616eac90919063ffffffff16565b905060006154f5848460000151616eac90919063ffffffff16565b9050600061553461550f8885616eac90919063ffffffff16565b615526896102580385616eac90919063ffffffff16565b61686a90919063ffffffff16565b90506000615563610258615555888860200151616eac90919063ffffffff16565b616eac90919063ffffffff16565b905061557d82826c0c9f2c9cd04674edea40000000616f4f565b8092508193505050604051806040016040528083815260200182815250985050505050505050505b90565b600360159054906101000a900460ff161561562b576040517f08c379a000000000000000000000000000000000000000000000000000000000815260040180806020018281038252600e8152602001807f4552525f5245454e5452414e435900000000000000000000000000000000000081525060200191505060405180910390fd5b565b6060615637616547565b60006156627f42616e636f72466f726d756c610000000000000000000000000000000000000061500e565b9050600061567984866165ad90919063ffffffff16565b90506060615689858988866150c5565b905060005b88518110156159735760008982815181106156a557fe5b6020026020010151905060008383815181106156bd57fe5b602002602001015190508983815181106156d357fe5b6020026020010151811015615750576040517f08c379a00000000000000000000000000000000000000000000000000000000081526004018080602001828103825260168152602001807f4552525f5a45524f5f5441524745545f414d4f554e540000000000000000000081525060200191505060405180910390fd5b60006157a782600760008673ffffffffffffffffffffffffffffffffffffffff1673ffffffffffffffffffffffffffffffffffffffff168152602001908152602001600020600001546165ad90919063ffffffff16565b905080600760008573ffffffffffffffffffffffffffffffffffffffff1673ffffffffffffffffffffffffffffffffffffffff1681526020019081526020016000206000018190555073eeeeeeeeeeeeeeeeeeeeeeeeeeeeeeeeeeeeeeee73ffffffffffffffffffffffffffffffffffffffff168373ffffffffffffffffffffffffffffffffffffffff161415615884573373ffffffffffffffffffffffffffffffffffffffff166108fc839081150290604051600060405180830381858888f1935050505015801561587e573d6000803e3d6000fd5b50615890565b61588f833384616f87565b5b8273ffffffffffffffffffffffffffffffffffffffff163373ffffffffffffffffffffffffffffffffffffffff167fbc7d19d505c7ec4db83f3b51f19fb98c4c8a99922e7839d1ee608dfbee29501b84848a60405180848152602001838152602001828152602001935050505060405180910390a3615963868483600760008873ffffffffffffffffffffffffffffffffffffffff1673ffffffffffffffffffffffffffffffffffffffff16815260200190815260200160002060010160009054906101000a900463ffffffff166168f2565b505050808060010191505061568e565b50809350505050949350505050565b3073ffffffffffffffffffffffffffffffffffffffff168173ffffffffffffffffffffffffffffffffffffffff161415615a24576040517f08c379a00000000000000000000000000000000000000000000000000000000081526004018080602001828103825260138152602001807f4552525f414444524553535f49535f53454c460000000000000000000000000081525060200191505060405180910390fd5b50565b615a2f614f4b565b82615a39816171a2565b82615a43816171a2565b83615a4d81615982565b615a58868686616f87565b505050505050565b80615a6a81615261565b73eeeeeeeeeeeeeeeeeeeeeeeeeeeeeeeeeeeeeeee73ffffffffffffffffffffffffffffffffffffffff168273ffffffffffffffffffffffffffffffffffffffff161415615afe5747600760008473ffffffffffffffffffffffffffffffffffffffff1673ffffffffffffffffffffffffffffffffffffffff16815260200190815260200160002060000181905550615be7565b8173ffffffffffffffffffffffffffffffffffffffff166370a08231306040518263ffffffff1660e01b8152600401808273ffffffffffffffffffffffffffffffffffffffff16815260200191505060206040518083038186803b158015615b6557600080fd5b505afa158015615b79573d6000803e3d6000fd5b505050506040513d6020811015615b8f57600080fd5b8101908080519060200190929190505050600760008473ffffffffffffffffffffffffffffffffffffffff1673ffffffffffffffffffffffffffffffffffffffff168152602001908152602001600020600001819055505b5050565b615bf48161500e565b73ffffffffffffffffffffffffffffffffffffffff163373ffffffffffffffffffffffffffffffffffffffff1614615c94576040517f08c379a00000000000000000000000000000000000000000000000000000000081526004018080602001828103825260118152602001807f4552525f4143434553535f44454e49454400000000000000000000000000000081525060200191505060405180910390fd5b50565b615c9f614f4b565b615ca7617248565b81615cb1816171a2565b82615cbb81615982565b82615cc5816172c5565b600460009054906101000a900473ffffffffffffffffffffffffffffffffffffffff1673ffffffffffffffffffffffffffffffffffffffff168573ffffffffffffffffffffffffffffffffffffffff1614158015615d705750600760008673ffffffffffffffffffffffffffffffffffffffff1673ffffffffffffffffffffffffffffffffffffffff16815260200190815260200160002060010160069054906101000a900460ff16155b615de2576040517f08c379a00000000000000000000000000000000000000000000000000000000081526004018080602001828103825260138152602001807f4552525f494e56414c49445f524553455256450000000000000000000000000081525060200191505060405180910390fd5b600860009054906101000a900463ffffffff16620f42400363ffffffff168463ffffffff161115615e7b576040517f08c379a000000000000000000000000000000000000000000000000000000000815260040180806020018281038252601a8152602001807f4552525f494e56414c49445f524553455256455f57454947485400000000000081525060200191505060405180910390fd5b7fffffffffffffffffffffffffffffffffffffffffffffffffffffffffffffffff61ffff16615ea86139bf565b61ffff1610615f1f576040517f08c379a00000000000000000000000000000000000000000000000000000000081526004018080602001828103825260198152602001807f4552525f494e56414c49445f524553455256455f434f554e540000000000000081525060200191505060405180910390fd5b6000600760008773ffffffffffffffffffffffffffffffffffffffff1673ffffffffffffffffffffffffffffffffffffffff168152602001908152602001600020905060008160000181905550848160010160006101000a81548163ffffffff021916908363ffffffff16021790555060018160010160066101000a81548160ff0219169083151502179055506006869080600181540180825580915050600190039060005260206000200160009091909190916101000a81548173ffffffffffffffffffffffffffffffffffffffff021916908373ffffffffffffffffffffffffffffffffffffffff16021790555084600860008282829054906101000a900463ffffffff160192506101000a81548163ffffffff021916908363ffffffff160217905550505050505050565b616055611ea7565b6160c7576040517f08c379a000000000000000000000000000000000000000000000000000000000815260040180806020018281038252600c8152602001807f4552525f494e414354495645000000000000000000000000000000000000000081525060200191505060405180910390fd5b565b600080600060068054905090508551811461614c576040517f08c379a00000000000000000000000000000000000000000000000000000000081526004018080602001828103825260138152602001807f4552525f494e56414c49445f524553455256450000000000000000000000000081525060200191505060405180910390fd5b845181146161c2576040517f08c379a00000000000000000000000000000000000000000000000000000000081526004018080602001828103825260128152602001807f4552525f494e56414c49445f414d4f554e54000000000000000000000000000081525060200191505060405180910390fd5b600092505b8083101561644c57600760008785815181106161df57fe5b602002602001015173ffffffffffffffffffffffffffffffffffffffff1673ffffffffffffffffffffffffffffffffffffffff16815260200190815260200160002060010160069054906101000a900460ff166162a4576040517f08c379a00000000000000000000000000000000000000000000000000000000081526004018080602001828103825260138152602001807f4552525f494e56414c49445f524553455256450000000000000000000000000081525060200191505060405180910390fd5b600091505b80821015616341578582815181106162bd57fe5b602002602001015173ffffffffffffffffffffffffffffffffffffffff16600684815481106162e857fe5b9060005260206000200160009054906101000a900473ffffffffffffffffffffffffffffffffffffffff1673ffffffffffffffffffffffffffffffffffffffff16141561633457616341565b81806001019250506162a9565b8082106163b6576040517f08c379a00000000000000000000000000000000000000000000000000000000081526004018080602001828103825260138152602001807f4552525f494e56414c49445f524553455256450000000000000000000000000081525060200191505060405180910390fd5b60008584815181106163c457fe5b60200260200101511161643f576040517f08c379a00000000000000000000000000000000000000000000000000000000081526004018080602001828103825260128152602001807f4552525f494e56414c49445f414d4f554e54000000000000000000000000000081525060200191505060405180910390fd5b82806001019350506161c7565b600084116164c2576040517f08c379a000000000000000000000000000000000000000000000000000000000815260040180806020018281038252600f8152602001807f4552525f5a45524f5f414d4f554e54000000000000000000000000000000000081525060200191505060405180910390fd5b505050505050565b6000808214156164e5576164de848461735f565b90506164f3565b6164f0848484617531565b90505b9392505050565b6000616540620f424063ffffffff1661653260088054906101000a900463ffffffff1663ffffffff1685616eac90919063ffffffff16565b617a3190919063ffffffff16565b9050919050565b6000600680549050905060005b818110156165a95761659c6006828154811061656c57fe5b9060005260206000200160009054906101000a900473ffffffffffffffffffffffffffffffffffffffff16615a60565b8080600101915050616554565b5050565b600081831015616625576040517f08c379a000000000000000000000000000000000000000000000000000000000815260040180806020018281038252600d8152602001807f4552525f554e444552464c4f570000000000000000000000000000000000000081525060200191505060405180910390fd5b818303905092915050565b600060608573ffffffffffffffffffffffffffffffffffffffff167f23b872dd7302113369cda2901243429419bec145408fa8b352b3dd92b66c680b868686604051602401808473ffffffffffffffffffffffffffffffffffffffff1681526020018373ffffffffffffffffffffffffffffffffffffffff1681526020018281526020019350505050604051602081830303815290604052907bffffffffffffffffffffffffffffffffffffffffffffffffffffffff19166020820180517bffffffffffffffffffffffffffffffffffffffffffffffffffffffff83818316178352505050506040518082805190602001908083835b602083106167495780518252602082019150602081019050602083039250616726565b6001836020036101000a0380198251168184511680821785525050505050509050019150506000604051808303816000865af19150503d80600081146167ab576040519150601f19603f3d011682016040523d82523d6000602084013e6167b0565b606091505b50915091508180156167f057506000815114806167ef57508080602001905160208110156167dd57600080fd5b81019080805190602001909291905050505b5b616862576040517f08c379a00000000000000000000000000000000000000000000000000000000081526004018080602001828103825260188152602001807f4552525f5452414e534645525f46524f4d5f4641494c4544000000000000000081525060200191505060405180910390fd5b505050505050565b6000808284019050838110156168e8576040517f08c379a000000000000000000000000000000000000000000000000000000000815260040180806020018281038252600c8152602001807f4552525f4f564552464c4f57000000000000000000000000000000000000000081525060200191505060405180910390fd5b8091505092915050565b8273ffffffffffffffffffffffffffffffffffffffff16600460009054906101000a900473ffffffffffffffffffffffffffffffffffffffff1673ffffffffffffffffffffffffffffffffffffffff167f77f29993cf2c084e726f7e802da0719d6a0ade3e204badc7a3ffd57ecb768c2461697f620f424063ffffffff1686616eac90919063ffffffff16565b6169988563ffffffff1689616eac90919063ffffffff16565b604051808381526020018281526020019250505060405180910390a350505050565b60016169c46139bf565b61ffff1611616a3b576040517f08c379a00000000000000000000000000000000000000000000000000000000081526004018080602001828103825260198152602001807f4552525f494e56414c49445f524553455256455f434f554e540000000000000081525060200191505060405180910390fd5b616a43617ac0565b565b6000806000616a55888888613a2b565b915091506000821415616ad0576040517f08c379a00000000000000000000000000000000000000000000000000000000081526004018080602001828103825260168152602001807f4552525f5a45524f5f5441524745545f414d4f554e540000000000000000000081525060200191505060405180910390fd5b616ad987614910565b8210616ae157fe5b73eeeeeeeeeeeeeeeeeeeeeeeeeeeeeeeeeeeeeeee73ffffffffffffffffffffffffffffffffffffffff168873ffffffffffffffffffffffffffffffffffffffff161415616ba357853414616b9e576040517f08c379a00000000000000000000000000000000000000000000000000000000081526004018080602001828103825260178152602001807f4552525f4554485f414d4f554e545f4d49534d4154434800000000000000000081525060200191505060405180910390fd5b616ce1565b600034148015616c6e575085616c6b616bbb8a614910565b8a73ffffffffffffffffffffffffffffffffffffffff166370a08231306040518263ffffffff1660e01b8152600401808273ffffffffffffffffffffffffffffffffffffffff16815260200191505060206040518083038186803b158015616c2257600080fd5b505afa158015616c36573d6000803e3d6000fd5b505050506040513d6020811015616c4c57600080fd5b81019080805190602001909291905050506165ad90919063ffffffff16565b10155b616ce0576040517f08c379a00000000000000000000000000000000000000000000000000000000081526004018080602001828103825260128152602001807f4552525f494e56414c49445f414d4f554e54000000000000000000000000000081525060200191505060405180910390fd5b5b616cea88615a60565b616d3f82600760008a73ffffffffffffffffffffffffffffffffffffffff1673ffffffffffffffffffffffffffffffffffffffff168152602001908152602001600020600001546165ad90919063ffffffff16565b600760008973ffffffffffffffffffffffffffffffffffffffff1673ffffffffffffffffffffffffffffffffffffffff1681526020019081526020016000206000018190555073eeeeeeeeeeeeeeeeeeeeeeeeeeeeeeeeeeeeeeee73ffffffffffffffffffffffffffffffffffffffff168773ffffffffffffffffffffffffffffffffffffffff161415616e19578373ffffffffffffffffffffffffffffffffffffffff166108fc839081150290604051600060405180830381858888f19350505050158015616e13573d6000803e3d6000fd5b50616e25565b616e24878584616f87565b5b600960009054906101000a900460ff168015616e495750616e44616ea4565b600c54105b15616e7e57616e56615326565b600a6000820151816000015560208201518160010155905050616e77616ea4565b600c819055505b616e8c888887898686617bd5565b616e968888617c92565b819250505095945050505050565b600042905090565b600080831415616ebf5760009050616f49565b6000828402905082848281616ed057fe5b0414616f44576040517f08c379a000000000000000000000000000000000000000000000000000000000815260040180806020018281038252600c8152602001807f4552525f4f564552464c4f57000000000000000000000000000000000000000081525060200191505060405180910390fd5b809150505b92915050565b60008082851180616f5f57508284115b15616f7857616f6f858585617f93565b91509150616f7f565b8484915091505b935093915050565b600060608473ffffffffffffffffffffffffffffffffffffffff167fa9059cbb2ab09eb219583f4a59a5d0623ade346d962bcd4e46b11da047c9049b8585604051602401808373ffffffffffffffffffffffffffffffffffffffff16815260200182815260200192505050604051602081830303815290604052907bffffffffffffffffffffffffffffffffffffffffffffffffffffffff19166020820180517bffffffffffffffffffffffffffffffffffffffffffffffffffffffff83818316178352505050506040518082805190602001908083835b60208310617082578051825260208201915060208101905060208303925061705f565b6001836020036101000a0380198251168184511680821785525050505050509050019150506000604051808303816000865af19150503d80600081146170e4576040519150601f19603f3d011682016040523d82523d6000602084013e6170e9565b606091505b50915091508180156171295750600081511480617128575080806020019051602081101561711657600080fd5b81019080805190602001909291905050505b5b61719b576040517f08c379a00000000000000000000000000000000000000000000000000000000081526004018080602001828103825260138152602001807f4552525f5452414e534645525f4641494c45440000000000000000000000000081525060200191505060405180910390fd5b5050505050565b600073ffffffffffffffffffffffffffffffffffffffff168173ffffffffffffffffffffffffffffffffffffffff161415617245576040517f08c379a00000000000000000000000000000000000000000000000000000000081526004018080602001828103825260138152602001807f4552525f494e56414c49445f414444524553530000000000000000000000000081525060200191505060405180910390fd5b50565b617250611ea7565b156172c3576040517f08c379a000000000000000000000000000000000000000000000000000000000815260040180806020018281038252600a8152602001807f4552525f4143544956450000000000000000000000000000000000000000000081525060200191505060405180910390fd5b565b60008163ffffffff161180156172ea5750620f424063ffffffff168163ffffffff1611155b61735c576040517f08c379a000000000000000000000000000000000000000000000000000000000815260040180806020018281038252601a8152602001807f4552525f494e56414c49445f524553455256455f57454947485400000000000081525060200191505060405180910390fd5b50565b60008061736b836139cc565b905060005b845181101561752657600085828151811061738757fe5b60200260200101519050600085838151811061739f57fe5b6020026020010151905073eeeeeeeeeeeeeeeeeeeeeeeeeeeeeeeeeeeeeeee73ffffffffffffffffffffffffffffffffffffffff168273ffffffffffffffffffffffffffffffffffffffff16146173fd576173fc82333084616630565b5b80600760008473ffffffffffffffffffffffffffffffffffffffff1673ffffffffffffffffffffffffffffffffffffffff168152602001908152602001600020600001819055508173ffffffffffffffffffffffffffffffffffffffff163373ffffffffffffffffffffffffffffffffffffffff167f4a1a2a6176e9646d9e3157f7c2ab3c499f18337c0b0828cfb28e0a61de4a11f783848860405180848152602001838152602001828152602001935050505060405180910390a3617517848383600760008773ffffffffffffffffffffffffffffffffffffffff1673ffffffffffffffffffffffffffffffffffffffff16815260200190815260200160002060010160009054906101000a900463ffffffff166168f2565b50508080600101915050617370565b508091505092915050565b600061753b616547565b6175a4346007600073eeeeeeeeeeeeeeeeeeeeeeeeeeeeeeeeeeeeeeee73ffffffffffffffffffffffffffffffffffffffff1673ffffffffffffffffffffffffffffffffffffffff168152602001908152602001600020600001546165ad90919063ffffffff16565b6007600073eeeeeeeeeeeeeeeeeeeeeeeeeeeeeeeeeeeeeeee73ffffffffffffffffffffffffffffffffffffffff1673ffffffffffffffffffffffffffffffffffffffff1681526020019081526020016000206000018190555060006176297f42616e636f72466f726d756c610000000000000000000000000000000000000061500e565b9050600061763982858888617ffc565b90506000617650828661686a90919063ffffffff16565b905060005b8751811015617a2357600088828151811061766c57fe5b602002602001015190506000600760008373ffffffffffffffffffffffffffffffffffffffff1673ffffffffffffffffffffffffffffffffffffffff16815260200190815260200160002060000154905060008673ffffffffffffffffffffffffffffffffffffffff1663ebbb21588a84600860009054906101000a900463ffffffff168a6040518563ffffffff1660e01b8152600401808581526020018481526020018363ffffffff16815260200182815260200194505050505060206040518083038186803b15801561774057600080fd5b505afa158015617754573d6000803e3d6000fd5b505050506040513d602081101561776a57600080fd5b81019080805190602001909291905050509050600081116177f3576040517f08c379a00000000000000000000000000000000000000000000000000000000081526004018080602001828103825260168152602001807f4552525f5a45524f5f5441524745545f414d4f554e540000000000000000000081525060200191505060405180910390fd5b8984815181106177ff57fe5b602002602001015181111561781057fe5b73eeeeeeeeeeeeeeeeeeeeeeeeeeeeeeeeeeeeeeee73ffffffffffffffffffffffffffffffffffffffff168373ffffffffffffffffffffffffffffffffffffffff16146178685761786383333084616630565b6178e1565b808a858151811061787557fe5b602002602001015111156178e0573373ffffffffffffffffffffffffffffffffffffffff166108fc828c87815181106178aa57fe5b6020026020010151039081150290604051600060405180830381858888f193505050501580156178de573d6000803e3d6000fd5b505b5b60006178f6828461686a90919063ffffffff16565b905080600760008673ffffffffffffffffffffffffffffffffffffffff1673ffffffffffffffffffffffffffffffffffffffff168152602001908152602001600020600001819055508373ffffffffffffffffffffffffffffffffffffffff163373ffffffffffffffffffffffffffffffffffffffff167f4a1a2a6176e9646d9e3157f7c2ab3c499f18337c0b0828cfb28e0a61de4a11f784848a60405180848152602001838152602001828152602001935050505060405180910390a3617a12868583600760008973ffffffffffffffffffffffffffffffffffffffff1673ffffffffffffffffffffffffffffffffffffffff16815260200190815260200160002060010160009054906101000a900463ffffffff166168f2565b505050508080600101915050617655565b508193505050509392505050565b6000808211617aa8576040517f08c379a00000000000000000000000000000000000000000000000000000000081526004018080602001828103825260128152602001807f4552525f4449564944455f42595f5a45524f000000000000000000000000000081525060200191505060405180910390fd5b6000828481617ab357fe5b0490508091505092915050565b617ac8614f4b565b6000617ad26139bf565b61ffff1611617b49576040517f08c379a00000000000000000000000000000000000000000000000000000000081526004018080602001828103825260198152602001807f4552525f494e56414c49445f524553455256455f434f554e540000000000000081525060200191505060405180910390fd5b600460009054906101000a900473ffffffffffffffffffffffffffffffffffffffff1673ffffffffffffffffffffffffffffffffffffffff166379ba50976040518163ffffffff1660e01b8152600401600060405180830381600087803b158015617bb357600080fd5b505af1158015617bc7573d6000803e3d6000fd5b50505050617bd3616547565b565b7f80000000000000000000000000000000000000000000000000000000000000008110617bfe57fe5b8373ffffffffffffffffffffffffffffffffffffffff168573ffffffffffffffffffffffffffffffffffffffff168773ffffffffffffffffffffffffffffffffffffffff167f276856b36cbc45526a0ba64f44611557a2a8b68662c5388e9fe6d72e86e1c8cb86868660405180848152602001838152602001828152602001935050505060405180910390a4505050505050565b6000600460009054906101000a900473ffffffffffffffffffffffffffffffffffffffff1673ffffffffffffffffffffffffffffffffffffffff166318160ddd6040518163ffffffff1660e01b815260040160206040518083038186803b158015617cfc57600080fd5b505afa158015617d10573d6000803e3d6000fd5b505050506040513d6020811015617d2657600080fd5b810190808051906020019092919050505090506000617d4484614910565b90506000617d5184614910565b90506000600760008773ffffffffffffffffffffffffffffffffffffffff1673ffffffffffffffffffffffffffffffffffffffff16815260200190815260200160002060010160009054906101000a900463ffffffff1690506000600760008773ffffffffffffffffffffffffffffffffffffffff1673ffffffffffffffffffffffffffffffffffffffff16815260200190815260200160002060010160009054906101000a900463ffffffff1690506000617e1c8363ffffffff1685616eac90919063ffffffff16565b90506000617e398363ffffffff1687616eac90919063ffffffff16565b90508773ffffffffffffffffffffffffffffffffffffffff168973ffffffffffffffffffffffffffffffffffffffff167f77f29993cf2c084e726f7e802da0719d6a0ade3e204badc7a3ffd57ecb768c248484604051808381526020018281526020019250505060405180910390a3617eb4878a88876168f2565b617ec0878987866168f2565b8873ffffffffffffffffffffffffffffffffffffffff167f8a6a7f53b3c8fa1dc4b83e3f1be668c1b251ff8d44cdcb83eb3acec3fec6a788888887604051808481526020018381526020018263ffffffff168152602001935050505060405180910390a28773ffffffffffffffffffffffffffffffffffffffff167f8a6a7f53b3c8fa1dc4b83e3f1be668c1b251ff8d44cdcb83eb3acec3fec6a788888786604051808481526020018381526020018263ffffffff168152602001935050505060405180910390a2505050505050505050565b60008083851415617fbd5760028381617fa857fe5b0460028481617fb357fe5b0491509150617ff4565b83851015617fd957617fd0858585618250565b91509150617ff4565b600080617fe7868887618250565b9150915080829350935050505b935093915050565b600080600090506000600190505b84518110156181205761808e6007600087848151811061802657fe5b602002602001015173ffffffffffffffffffffffffffffffffffffffff1673ffffffffffffffffffffffffffffffffffffffff1681526020019081526020016000206000015485848151811061807857fe5b6020026020010151616eac90919063ffffffff16565b618109600760008886815181106180a157fe5b602002602001015173ffffffffffffffffffffffffffffffffffffffff1673ffffffffffffffffffffffffffffffffffffffff168152602001908152602001600020600001548684815181106180f357fe5b6020026020010151616eac90919063ffffffff16565b1015618113578091505b808060010191505061800a565b508573ffffffffffffffffffffffffffffffffffffffff16632f55bdb5866007600088868151811061814e57fe5b602002602001015173ffffffffffffffffffffffffffffffffffffffff1673ffffffffffffffffffffffffffffffffffffffff16815260200190815260200160002060000154600860009054906101000a900463ffffffff168786815181106181b357fe5b60200260200101516040518563ffffffff1660e01b8152600401808581526020018481526020018363ffffffff16815260200182815260200194505050505060206040518083038186803b15801561820a57600080fd5b505afa15801561821e573d6000803e3d6000fd5b505050506040513d602081101561823457600080fd5b8101908080519060200190929190505050915050949350505050565b6000806000837fffffffffffffffffffffffffffffffffffffffffffffffffffffffffffffffff8161827e57fe5b049050808611156182b65760006001808301888161829857fe5b040190508087816182a557fe5b0496508086816182b157fe5b049550505b60006182d68588026182d1888a61686a90919063ffffffff16565b6182f0565b905060008186039050818194509450505050935093915050565b6000600282816182fc57fe5b04820382848161830857fe5b068161831057fe5b0482848161831a57fe5b0401905092915050565b6040518060a0016040528060008152602001600063ffffffff1681526020016000151581526020016000151581526020016000151581525090565b60405180604001604052806000815260200160008152509056fea26469706673582212209ae7d955aa10e40066ae608236aa53cfa63659a4debf5053ef553d0e7eca32a164736f6c634300060c0033a2646970667358221220abe33ecb64d5c866bf9a7a31fed7f5ce0675b886e46936b4d04233640aaf4c9964736f6c634300060c0033",
  "linkReferences": {},
  "deployedLinkReferences": {}
}