{
  "_format": "hh-sol-artifact-1",
  "contractName": "LiquidTokenConverter",
  "sourceName": "contracts/bancor/converter/types/liquid-token/LiquidTokenConverter.sol",
  "abi": [
    {
      "inputs": [
        {
          "internalType": "contract IDSToken",
          "name": "_token",
          "type": "address"
        },
        {
          "internalType": "contract IContractRegistry",
          "name": "_registry",
          "type": "address"
        },
        {
          "internalType": "uint32",
          "name": "_maxConversionFee",
          "type": "uint32"
        }
      ],
      "stateMutability": "nonpayable",
      "type": "constructor"
    },
    {
      "anonymous": false,
      "inputs": [
        {
          "indexed": true,
          "internalType": "uint16",
          "name": "_type",
          "type": "uint16"
        },
        {
          "indexed": true,
          "internalType": "contract IConverterAnchor",
          "name": "_anchor",
          "type": "address"
        },
        {
          "indexed": true,
          "internalType": "bool",
          "name": "_activated",
          "type": "bool"
        }
      ],
      "name": "Activation",
      "type": "event"
    },
    {
      "anonymous": false,
      "inputs": [
        {
          "indexed": true,
          "internalType": "contract IERC20Token",
          "name": "_fromToken",
          "type": "address"
        },
        {
          "indexed": true,
          "internalType": "contract IERC20Token",
          "name": "_toToken",
          "type": "address"
        },
        {
          "indexed": true,
          "internalType": "address",
          "name": "_trader",
          "type": "address"
        },
        {
          "indexed": false,
          "internalType": "uint256",
          "name": "_amount",
          "type": "uint256"
        },
        {
          "indexed": false,
          "internalType": "uint256",
          "name": "_return",
          "type": "uint256"
        },
        {
          "indexed": false,
          "internalType": "int256",
          "name": "_conversionFee",
          "type": "int256"
        }
      ],
      "name": "Conversion",
      "type": "event"
    },
    {
      "anonymous": false,
      "inputs": [
        {
          "indexed": false,
          "internalType": "uint32",
          "name": "_prevFee",
          "type": "uint32"
        },
        {
          "indexed": false,
          "internalType": "uint32",
          "name": "_newFee",
          "type": "uint32"
        }
      ],
      "name": "ConversionFeeUpdate",
      "type": "event"
    },
    {
      "anonymous": false,
      "inputs": [
        {
          "indexed": true,
          "internalType": "address",
          "name": "_prevOwner",
          "type": "address"
        },
        {
          "indexed": true,
          "internalType": "address",
          "name": "_newOwner",
          "type": "address"
        }
      ],
      "name": "OwnerUpdate",
      "type": "event"
    },
    {
      "anonymous": false,
      "inputs": [
        {
          "indexed": true,
          "internalType": "contract IERC20Token",
          "name": "_token1",
          "type": "address"
        },
        {
          "indexed": true,
          "internalType": "contract IERC20Token",
          "name": "_token2",
          "type": "address"
        },
        {
          "indexed": false,
          "internalType": "uint256",
          "name": "_rateN",
          "type": "uint256"
        },
        {
          "indexed": false,
          "internalType": "uint256",
          "name": "_rateD",
          "type": "uint256"
        }
      ],
      "name": "TokenRateUpdate",
      "type": "event"
    },
    {
      "inputs": [],
      "name": "acceptAnchorOwnership",
      "outputs": [],
      "stateMutability": "nonpayable",
      "type": "function"
    },
    {
      "inputs": [],
      "name": "acceptOwnership",
      "outputs": [],
      "stateMutability": "nonpayable",
      "type": "function"
    },
    {
      "inputs": [],
      "name": "acceptTokenOwnership",
      "outputs": [],
      "stateMutability": "nonpayable",
      "type": "function"
    },
    {
      "inputs": [
        {
          "internalType": "contract IERC20Token",
          "name": "_token",
          "type": "address"
        },
        {
          "internalType": "uint32",
          "name": "_weight",
          "type": "uint32"
        }
      ],
      "name": "addReserve",
      "outputs": [],
      "stateMutability": "nonpayable",
      "type": "function"
    },
    {
      "inputs": [],
      "name": "anchor",
      "outputs": [
        {
          "internalType": "contract IConverterAnchor",
          "name": "",
          "type": "address"
        }
      ],
      "stateMutability": "view",
      "type": "function"
    },
    {
      "inputs": [],
      "name": "connectorTokenCount",
      "outputs": [
        {
          "internalType": "uint16",
          "name": "",
          "type": "uint16"
        }
      ],
      "stateMutability": "view",
      "type": "function"
    },
    {
      "inputs": [
        {
          "internalType": "uint256",
          "name": "_index",
          "type": "uint256"
        }
      ],
      "name": "connectorTokens",
      "outputs": [
        {
          "internalType": "contract IERC20Token",
          "name": "",
          "type": "address"
        }
      ],
      "stateMutability": "view",
      "type": "function"
    },
    {
      "inputs": [
        {
          "internalType": "contract IERC20Token",
          "name": "_address",
          "type": "address"
        }
      ],
      "name": "connectors",
      "outputs": [
        {
          "internalType": "uint256",
          "name": "",
          "type": "uint256"
        },
        {
          "internalType": "uint32",
          "name": "",
          "type": "uint32"
        },
        {
          "internalType": "bool",
          "name": "",
          "type": "bool"
        },
        {
          "internalType": "bool",
          "name": "",
          "type": "bool"
        },
        {
          "internalType": "bool",
          "name": "",
          "type": "bool"
        }
      ],
      "stateMutability": "view",
      "type": "function"
    },
    {
      "inputs": [],
      "name": "conversionFee",
      "outputs": [
        {
          "internalType": "uint32",
          "name": "",
          "type": "uint32"
        }
      ],
      "stateMutability": "view",
      "type": "function"
    },
    {
      "inputs": [],
      "name": "conversionWhitelist",
      "outputs": [
        {
          "internalType": "contract IWhitelist",
          "name": "",
          "type": "address"
        }
      ],
      "stateMutability": "view",
      "type": "function"
    },
    {
      "inputs": [],
      "name": "conversionsEnabled",
      "outputs": [
        {
          "internalType": "bool",
          "name": "",
          "type": "bool"
        }
      ],
      "stateMutability": "view",
      "type": "function"
    },
    {
      "inputs": [
        {
          "internalType": "contract IERC20Token",
          "name": "_sourceToken",
          "type": "address"
        },
        {
          "internalType": "contract IERC20Token",
          "name": "_targetToken",
          "type": "address"
        },
        {
          "internalType": "uint256",
          "name": "_amount",
          "type": "uint256"
        },
        {
          "internalType": "address",
          "name": "_trader",
          "type": "address"
        },
        {
          "internalType": "address payable",
          "name": "_beneficiary",
          "type": "address"
        }
      ],
      "name": "convert",
      "outputs": [
        {
          "internalType": "uint256",
          "name": "",
          "type": "uint256"
        }
      ],
      "stateMutability": "payable",
      "type": "function"
    },
    {
      "inputs": [],
      "name": "converterType",
      "outputs": [
        {
          "internalType": "uint16",
          "name": "",
          "type": "uint16"
        }
      ],
      "stateMutability": "pure",
      "type": "function"
    },
    {
      "inputs": [
        {
          "internalType": "contract IERC20Token",
          "name": "_connectorToken",
          "type": "address"
        }
      ],
      "name": "getConnectorBalance",
      "outputs": [
        {
          "internalType": "uint256",
          "name": "",
          "type": "uint256"
        }
      ],
      "stateMutability": "view",
      "type": "function"
    },
    {
      "inputs": [
        {
          "internalType": "contract IERC20Token",
          "name": "_sourceToken",
          "type": "address"
        },
        {
          "internalType": "contract IERC20Token",
          "name": "_targetToken",
          "type": "address"
        },
        {
          "internalType": "uint256",
          "name": "_amount",
          "type": "uint256"
        }
      ],
      "name": "getReturn",
      "outputs": [
        {
          "internalType": "uint256",
          "name": "",
          "type": "uint256"
        },
        {
          "internalType": "uint256",
          "name": "",
          "type": "uint256"
        }
      ],
      "stateMutability": "view",
      "type": "function"
    },
    {
      "inputs": [],
      "name": "hasETHReserve",
      "outputs": [
        {
          "internalType": "bool",
          "name": "",
          "type": "bool"
        }
      ],
      "stateMutability": "view",
      "type": "function"
    },
    {
      "inputs": [],
      "name": "isActive",
      "outputs": [
        {
          "internalType": "bool",
          "name": "",
          "type": "bool"
        }
      ],
      "stateMutability": "view",
      "type": "function"
    },
    {
      "inputs": [],
      "name": "isV28OrHigher",
      "outputs": [
        {
          "internalType": "bool",
          "name": "",
          "type": "bool"
        }
      ],
      "stateMutability": "pure",
      "type": "function"
    },
    {
      "inputs": [],
      "name": "maxConversionFee",
      "outputs": [
        {
          "internalType": "uint32",
          "name": "",
          "type": "uint32"
        }
      ],
      "stateMutability": "view",
      "type": "function"
    },
    {
      "inputs": [],
      "name": "newOwner",
      "outputs": [
        {
          "internalType": "address",
          "name": "",
          "type": "address"
        }
      ],
      "stateMutability": "view",
      "type": "function"
    },
    {
      "inputs": [],
      "name": "onlyOwnerCanUpdateRegistry",
      "outputs": [
        {
          "internalType": "bool",
          "name": "",
          "type": "bool"
        }
      ],
      "stateMutability": "view",
      "type": "function"
    },
    {
      "inputs": [],
      "name": "owner",
      "outputs": [
        {
          "internalType": "address",
          "name": "",
          "type": "address"
        }
      ],
      "stateMutability": "view",
      "type": "function"
    },
    {
      "inputs": [],
      "name": "prevRegistry",
      "outputs": [
        {
          "internalType": "contract IContractRegistry",
          "name": "",
          "type": "address"
        }
      ],
      "stateMutability": "view",
      "type": "function"
    },
    {
      "inputs": [],
      "name": "registry",
      "outputs": [
        {
          "internalType": "contract IContractRegistry",
          "name": "",
          "type": "address"
        }
      ],
      "stateMutability": "view",
      "type": "function"
    },
    {
      "inputs": [
        {
          "internalType": "contract IERC20Token",
          "name": "_reserveToken",
          "type": "address"
        }
      ],
      "name": "reserveBalance",
      "outputs": [
        {
          "internalType": "uint256",
          "name": "",
          "type": "uint256"
        }
      ],
      "stateMutability": "view",
      "type": "function"
    },
    {
      "inputs": [],
      "name": "reserveRatio",
      "outputs": [
        {
          "internalType": "uint32",
          "name": "",
          "type": "uint32"
        }
      ],
      "stateMutability": "view",
      "type": "function"
    },
    {
      "inputs": [],
      "name": "reserveTokenCount",
      "outputs": [
        {
          "internalType": "uint16",
          "name": "",
          "type": "uint16"
        }
      ],
      "stateMutability": "view",
      "type": "function"
    },
    {
      "inputs": [
        {
          "internalType": "uint256",
          "name": "",
          "type": "uint256"
        }
      ],
      "name": "reserveTokens",
      "outputs": [
        {
          "internalType": "contract IERC20Token",
          "name": "",
          "type": "address"
        }
      ],
      "stateMutability": "view",
      "type": "function"
    },
    {
      "inputs": [
        {
          "internalType": "contract IERC20Token",
          "name": "_reserveToken",
          "type": "address"
        }
      ],
      "name": "reserveWeight",
      "outputs": [
        {
          "internalType": "uint32",
          "name": "",
          "type": "uint32"
        }
      ],
      "stateMutability": "view",
      "type": "function"
    },
    {
      "inputs": [
        {
          "internalType": "contract IERC20Token",
          "name": "",
          "type": "address"
        }
      ],
      "name": "reserves",
      "outputs": [
        {
          "internalType": "uint256",
          "name": "balance",
          "type": "uint256"
        },
        {
          "internalType": "uint32",
          "name": "weight",
          "type": "uint32"
        },
        {
          "internalType": "bool",
          "name": "deprecated1",
          "type": "bool"
        },
        {
          "internalType": "bool",
          "name": "deprecated2",
          "type": "bool"
        },
        {
          "internalType": "bool",
          "name": "isSet",
          "type": "bool"
        }
      ],
      "stateMutability": "view",
      "type": "function"
    },
    {
      "inputs": [],
      "name": "restoreRegistry",
      "outputs": [],
      "stateMutability": "nonpayable",
      "type": "function"
    },
    {
      "inputs": [
        {
          "internalType": "bool",
          "name": "_onlyOwnerCanUpdateRegistry",
          "type": "bool"
        }
      ],
      "name": "restrictRegistryUpdate",
      "outputs": [],
      "stateMutability": "nonpayable",
      "type": "function"
    },
    {
      "inputs": [
        {
          "internalType": "uint32",
          "name": "_conversionFee",
          "type": "uint32"
        }
      ],
      "name": "setConversionFee",
      "outputs": [],
      "stateMutability": "nonpayable",
      "type": "function"
    },
    {
      "inputs": [
        {
          "internalType": "contract IWhitelist",
          "name": "_whitelist",
          "type": "address"
        }
      ],
      "name": "setConversionWhitelist",
      "outputs": [],
      "stateMutability": "nonpayable",
      "type": "function"
    },
    {
      "inputs": [
        {
          "internalType": "contract IERC20Token",
          "name": "_sourceToken",
          "type": "address"
        },
        {
          "internalType": "contract IERC20Token",
          "name": "_targetToken",
          "type": "address"
        },
        {
          "internalType": "uint256",
          "name": "_amount",
          "type": "uint256"
        }
      ],
      "name": "targetAmountAndFee",
      "outputs": [
        {
          "internalType": "uint256",
          "name": "",
          "type": "uint256"
        },
        {
          "internalType": "uint256",
          "name": "",
          "type": "uint256"
        }
      ],
      "stateMutability": "view",
      "type": "function"
    },
    {
      "inputs": [],
      "name": "token",
      "outputs": [
        {
          "internalType": "contract IConverterAnchor",
          "name": "",
          "type": "address"
        }
      ],
      "stateMutability": "view",
      "type": "function"
    },
    {
      "inputs": [
        {
          "internalType": "address",
          "name": "_newOwner",
          "type": "address"
        }
      ],
      "name": "transferAnchorOwnership",
      "outputs": [],
      "stateMutability": "nonpayable",
      "type": "function"
    },
    {
      "inputs": [
        {
          "internalType": "address",
          "name": "_newOwner",
          "type": "address"
        }
      ],
      "name": "transferOwnership",
      "outputs": [],
      "stateMutability": "nonpayable",
      "type": "function"
    },
    {
      "inputs": [
        {
          "internalType": "address",
          "name": "_newOwner",
          "type": "address"
        }
      ],
      "name": "transferTokenOwnership",
      "outputs": [],
      "stateMutability": "nonpayable",
      "type": "function"
    },
    {
      "inputs": [],
      "name": "updateRegistry",
      "outputs": [],
      "stateMutability": "nonpayable",
      "type": "function"
    },
    {
      "inputs": [],
      "name": "upgrade",
      "outputs": [],
      "stateMutability": "nonpayable",
      "type": "function"
    },
    {
      "inputs": [],
      "name": "version",
      "outputs": [
        {
          "internalType": "uint16",
          "name": "",
          "type": "uint16"
        }
      ],
      "stateMutability": "view",
      "type": "function"
    },
    {
      "inputs": [
        {
          "internalType": "address payable",
          "name": "_to",
          "type": "address"
        }
      ],
      "name": "withdrawETH",
      "outputs": [],
      "stateMutability": "nonpayable",
      "type": "function"
    },
    {
      "inputs": [
        {
          "internalType": "contract IERC20Token",
          "name": "_token",
          "type": "address"
        },
        {
          "internalType": "address",
          "name": "_to",
          "type": "address"
        },
        {
          "internalType": "uint256",
          "name": "_amount",
          "type": "uint256"
        }
      ],
      "name": "withdrawTokens",
      "outputs": [],
      "stateMutability": "nonpayable",
      "type": "function"
    },
    {
      "stateMutability": "payable",
      "type": "receive"
    }
  ],
  "bytecode": "0x60806040526003805460ff60a81b19169055600880546001600160601b03191690553480156200002e57600080fd5b506040516200341238038062003412833981810160405260608110156200005457600080fd5b5080516020820151604090920151600080546001600160a01b03191633179055909190828282818062000087816200011e565b50600280546001600160a01b039092166001600160a01b031992831681179091556003805490921617905582620000be816200011e565b81620000ca816200017d565b5050600480546001600160a01b039094166001600160a01b031990941693909317909255506008805463ffffffff9092166401000000000263ffffffff60201b1990921691909117905550620001dc915050565b6001600160a01b0381166200017a576040805162461bcd60e51b815260206004820152601360248201527f4552525f494e56414c49445f4144445245535300000000000000000000000000604482015290519081900360640190fd5b50565b620f424063ffffffff821611156200017a576040805162461bcd60e51b815260206004820152601a60248201527f4552525f494e56414c49445f434f4e56455253494f4e5f464545000000000000604482015290519081900360640190fd5b61322680620001ec6000396000f3fe6080604052600436106102eb5760003560e01c806379ba509711610184578063d260529c116100d6578063d89595121161008a578063ecbca55d11610064578063ecbca55d146109e1578063f2fde38b14610a11578063fc0c546a14610a445761038c565b8063d895951214610923578063dc8de37914610968578063e8dc12ff1461099b5761038c565b8063d4ee1d90116100bb578063d4ee1d90146108c6578063d55ec697146108db578063d66bd524146108f05761038c565b8063d260529c1461089c578063d3fb73b4146108b15761038c565b8063af94b8d811610138578063c45d3d9211610112578063c45d3d9214610848578063cdc91c691461085d578063d031370b146108725761038c565b8063af94b8d8146107db578063b4a176d31461081e578063bf754558146108335761038c565b80638da5cb5b116101695780638da5cb5b1461079c57806394c275ad146107b15780639b99a8e2146107c65761038c565b806379ba5097146107725780637b103999146107875761038c565b80633e8ff43f1161023d5780635e35359e116101f1578063690d8320116101cb578063690d8320146106eb5780636a49d2c41461071e57806371f52bf31461075d5761038c565b80635e35359e1461066057806361cd756e146106a357806367b6d57c146106b85761038c565b80634af80f0e116102225780634af80f0e1461060357806354fd4d5014610636578063579cd3ca1461064b5761038c565b80633e8ff43f146105c257806349d10b64146105ee5761038c565b80631cfab2901161029f57806322f3e2d41161027957806322f3e2d4146105835780632fe8a6ad1461059857806338a5e016146105ad5761038c565b80631cfab290146104c15780631e1401f8146104f457806321e6b53d146105505761038c565b80630e53aae9116102d05780630e53aae9146103eb57806312c2aca41461045257806319b640151461047b5761038c565b8063024c7ec7146103915780630c7d5cd8146103bd5761038c565b3661038c5773eeeeeeeeeeeeeeeeeeeeeeeeeeeeeeeeeeeeeeee60005260076020527fb2084a3e4595ccf007fb44245853374aaf0de960074375e8e0fb334712e94d0f54600160301b900460ff1661038a576040805162461bcd60e51b815260206004820152601360248201527f4552525f494e56414c49445f5245534552564500000000000000000000000000604482015290519081900360640190fd5b005b600080fd5b34801561039d57600080fd5b5061038a600480360360208110156103b457600080fd5b50351515610a59565b3480156103c957600080fd5b506103d2610a9a565b6040805163ffffffff9092168252519081900360200190f35b3480156103f757600080fd5b5061041e6004803603602081101561040e57600080fd5b50356001600160a01b0316610aa6565b6040805195865263ffffffff9094166020860152911515848401521515606084015215156080830152519081900360a00190f35b34801561045e57600080fd5b50610467610b3e565b604080519115158252519081900360200190f35b34801561048757600080fd5b506104a56004803603602081101561049e57600080fd5b5035610b8a565b604080516001600160a01b039092168252519081900360200190f35b3480156104cd57600080fd5b506103d2600480360360208110156104e457600080fd5b50356001600160a01b0316610bb4565b34801561050057600080fd5b506105376004803603606081101561051757600080fd5b506001600160a01b03813581169160208101359091169060400135610be6565b6040805192835260208301919091528051918290030190f35b34801561055c57600080fd5b5061038a6004803603602081101561057357600080fd5b50356001600160a01b0316610c01565b34801561058f57600080fd5b50610467610c15565b3480156105a457600080fd5b50610467610cad565b3480156105b957600080fd5b5061038a610cbd565b3480156105ce57600080fd5b506105d7610ccf565b6040805161ffff9092168252519081900360200190f35b3480156105fa57600080fd5b5061038a610cd4565b34801561060f57600080fd5b5061038a6004803603602081101561062657600080fd5b50356001600160a01b0316610f08565b34801561064257600080fd5b506105d7610f3d565b34801561065757600080fd5b506103d2610f42565b34801561066c57600080fd5b5061038a6004803603606081101561068357600080fd5b506001600160a01b03813581169160208101359091169060400135610f5a565b3480156106af57600080fd5b506104a5611091565b3480156106c457600080fd5b5061038a600480360360208110156106db57600080fd5b50356001600160a01b03166110a0565b3480156106f757600080fd5b5061038a6004803603602081101561070e57600080fd5b50356001600160a01b0316611152565b34801561072a57600080fd5b5061038a6004803603604081101561074157600080fd5b5080356001600160a01b0316906020013563ffffffff1661128b565b34801561076957600080fd5b506105d76112ff565b34801561077e57600080fd5b5061038a61130e565b34801561079357600080fd5b506104a56113c5565b3480156107a857600080fd5b506104a56113d4565b3480156107bd57600080fd5b506103d26113e3565b3480156107d257600080fd5b506105d76113f7565b3480156107e757600080fd5b50610537600480360360608110156107fe57600080fd5b506001600160a01b038135811691602081013590911690604001356113fd565b34801561082a57600080fd5b5061038a6114f2565b34801561083f57600080fd5b5061046761151e565b34801561085457600080fd5b506104a5611523565b34801561086957600080fd5b5061038a611532565b34801561087e57600080fd5b506104a56004803603602081101561089557600080fd5b503561158b565b3480156108a857600080fd5b506104676115b2565b3480156108bd57600080fd5b506104a56115b7565b3480156108d257600080fd5b506104a56115c6565b3480156108e757600080fd5b5061038a6115d5565b3480156108fc57600080fd5b5061041e6004803603602081101561091357600080fd5b50356001600160a01b03166116dc565b34801561092f57600080fd5b506109566004803603602081101561094657600080fd5b50356001600160a01b031661171f565b60408051918252519081900360200190f35b34801561097457600080fd5b506109566004803603602081101561098b57600080fd5b50356001600160a01b0316611730565b610956600480360360a08110156109b157600080fd5b506001600160a01b0381358116916020810135821691604082013591606081013582169160809091013516611759565b3480156109ed57600080fd5b5061038a60048036036020811015610a0457600080fd5b503563ffffffff1661198a565b348015610a1d57600080fd5b5061038a60048036036020811015610a3457600080fd5b50356001600160a01b0316611a7c565b348015610a5057600080fd5b506104a5611b09565b610a61611b18565b60038054911515600160a01b027fffffffffffffffffffffff00ffffffffffffffffffffffffffffffffffffffff909216919091179055565b60085463ffffffff1681565b6000806000806000610ab66131c2565b505050506001600160a01b03929092166000908152600760209081526040808320815160a081018352815480825260019092015463ffffffff811694820185905260ff64010000000082048116151594830194909452650100000000008104841615156060830152600160301b90049092161515608090920182905295919450919250829190565b73eeeeeeeeeeeeeeeeeeeeeeeeeeeeeeeeeeeeeeee60005260076020527fb2084a3e4595ccf007fb44245853374aaf0de960074375e8e0fb334712e94d0f54600160301b900460ff1690565b600060068281548110610b9957fe5b6000918252602090912001546001600160a01b031692915050565b600081610bc081611b6b565b50506001600160a01b031660009081526007602052604090206001015463ffffffff1690565b600080610bf48585856113fd565b915091505b935093915050565b610c09611b18565b610c12816110a0565b50565b60048054604080517f8da5cb5b000000000000000000000000000000000000000000000000000000008152905160009330936001600160a01b031692638da5cb5b9281830192602092829003018186803b158015610c7257600080fd5b505afa158015610c86573d6000803e3d6000fd5b505050506040513d6020811015610c9c57600080fd5b50516001600160a01b031614905090565b600354600160a01b900460ff1681565b610cc5611b18565b610ccd611532565b565b600090565b6000546001600160a01b0316331480610cf75750600354600160a01b900460ff16155b610d3c576040805162461bcd60e51b815260206004820152601160248201527011549497d050d0d154d4d7d11153925151607a1b604482015290519081900360640190fd5b6000610d677f436f6e7472616374526567697374727900000000000000000000000000000000611be2565b6002549091506001600160a01b03808316911614801590610d9057506001600160a01b03811615155b610de1576040805162461bcd60e51b815260206004820152601460248201527f4552525f494e56414c49445f5245474953545259000000000000000000000000604482015290519081900360640190fd5b60006001600160a01b0316816001600160a01b031663bb34534c7f436f6e74726163745265676973747279000000000000000000000000000000006040518263ffffffff1660e01b81526004018082815260200191505060206040518083038186803b158015610e5057600080fd5b505afa158015610e64573d6000803e3d6000fd5b505050506040513d6020811015610e7a57600080fd5b50516001600160a01b03161415610ed8576040805162461bcd60e51b815260206004820152601460248201527f4552525f494e56414c49445f5245474953545259000000000000000000000000604482015290519081900360640190fd5b60028054600380546001600160a01b038084166001600160a01b0319928316179092559091169216919091179055565b610f10611b18565b80610f1a81611c79565b50600580546001600160a01b0319166001600160a01b0392909216919091179055565b602881565b60085468010000000000000000900463ffffffff1681565b610f62611cd7565b6003805460ff60a81b1916600160a81b179055610f7d611b18565b6000610fa87f42616e636f72436f6e7665727465725570677261646572000000000000000000611be2565b6001600160a01b038516600090815260076020526040902060010154909150600160301b900460ff161580610fe25750610fe0610c15565b155b80610ffa57506000546001600160a01b038281169116145b61103f576040805162461bcd60e51b815260206004820152601160248201527011549497d050d0d154d4d7d11153925151607a1b604482015290519081900360640190fd5b61104a848484611d36565b6001600160a01b038416600090815260076020526040902060010154600160301b900460ff161561107e5761107e84611d67565b50506003805460ff60a81b191690555050565b6003546001600160a01b031681565b6110a8611b18565b7f42616e636f72436f6e76657274657255706772616465720000000000000000006110d281611e45565b600460009054906101000a90046001600160a01b03166001600160a01b031663f2fde38b836040518263ffffffff1660e01b815260040180826001600160a01b03168152602001915050600060405180830381600087803b15801561113657600080fd5b505af115801561114a573d6000803e3d6000fd5b505050505050565b61115a611cd7565b6003805460ff60a81b1916600160a81b179055611175611b18565b73eeeeeeeeeeeeeeeeeeeeeeeeeeeeeeeeeeeeeeee61119381611b6b565b60006111be7f42616e636f72436f6e7665727465725570677261646572000000000000000000611be2565b90506111c8610c15565b15806111e157506000546001600160a01b038281169116145b611226576040805162461bcd60e51b815260206004820152601160248201527011549497d050d0d154d4d7d11153925151607a1b604482015290519081900360640190fd5b6040516001600160a01b038416904780156108fc02916000818181858888f1935050505015801561125b573d6000803e3d6000fd5b5061127973eeeeeeeeeeeeeeeeeeeeeeeeeeeeeeeeeeeeeeee611d67565b50506003805460ff60a81b1916905550565b611293611b18565b61129b6113f7565b61ffff16156112f1576040805162461bcd60e51b815260206004820152601960248201527f4552525f494e56414c49445f524553455256455f434f554e5400000000000000604482015290519081900360640190fd5b6112fb8282611ea7565b5050565b60006113096113f7565b905090565b6001546001600160a01b03163314611361576040805162461bcd60e51b815260206004820152601160248201527011549497d050d0d154d4d7d11153925151607a1b604482015290519081900360640190fd5b600154600080546040516001600160a01b0393841693909116917f343765429aea5a34b3ff6a3785a98a5abb2597aca87bfbb58632c173d585373a91a360018054600080546001600160a01b03199081166001600160a01b03841617909155169055565b6002546001600160a01b031681565b6000546001600160a01b031681565b600854640100000000900463ffffffff1681565b60065490565b60045460009081906001600160a01b03858116911614801561144157506001600160a01b038516600090815260076020526040902060010154600160301b900460ff165b156114585761144f836120d7565b91509150610bf9565b6004546001600160a01b03868116911614801561149757506001600160a01b038416600090815260076020526040902060010154600160301b900460ff165b156114a55761144f836122e1565b6040805162461bcd60e51b815260206004820152601160248201527f4552525f494e56414c49445f544f4b454e000000000000000000000000000000604482015290519081900360640190fd5b6114fa611b18565b600354600280546001600160a01b0319166001600160a01b03909216919091179055565b600181565b6005546001600160a01b031681565b61153a611b18565b6115426123d5565b6004546001906001600160a01b0316611559610ccf565b61ffff167f6b08c2e2c9969e55a647a764db9b554d64dc42f1a704da11a6d5b129ad163f2c60405160405180910390a4565b6006818154811061159857fe5b6000918252602090912001546001600160a01b0316905081565b600190565b6004546001600160a01b031681565b6001546001600160a01b031681565b6115dd611b18565b60006116087f42616e636f72436f6e7665727465725570677261646572000000000000000000611be2565b6004549091506000906001600160a01b0316611622610ccf565b61ffff167f6b08c2e2c9969e55a647a764db9b554d64dc42f1a704da11a6d5b129ad163f2c60405160405180910390a461165b81611a7c565b604080517f90f58c960000000000000000000000000000000000000000000000000000000081526028600482015290516001600160a01b038316916390f58c9691602480830192600092919082900301818387803b1580156116bc57600080fd5b505af11580156116d0573d6000803e3d6000fd5b50505050610c1261130e565b6007602052600090815260409020805460019091015463ffffffff81169060ff6401000000008204811691650100000000008104821691600160301b9091041685565b600061172a82611730565b92915050565b60008161173c81611b6b565b50506001600160a01b031660009081526007602052604090205490565b6000611763611cd7565b6003805460ff60a81b1916600160a81b1790557f42616e636f724e6574776f726b000000000000000000000000000000000000006117a081611e45565b856001600160a01b0316876001600160a01b03161415611807576040805162461bcd60e51b815260206004820152601660248201527f4552525f53414d455f534f555243455f54415247455400000000000000000000604482015290519081900360640190fd5b6005546001600160a01b03161580611914575060055460408051633af32abf60e01b81526001600160a01b03878116600483015291519190921691633af32abf916024808301926020929190829003018186803b15801561186757600080fd5b505afa15801561187b573d6000803e3d6000fd5b505050506040513d602081101561189157600080fd5b50518015611914575060055460408051633af32abf60e01b81526001600160a01b03868116600483015291519190921691633af32abf916024808301926020929190829003018186803b1580156118e757600080fd5b505afa1580156118fb573d6000803e3d6000fd5b505050506040513d602081101561191157600080fd5b50515b611965576040805162461bcd60e51b815260206004820152601360248201527f4552525f4e4f545f57484954454c495354454400000000000000000000000000604482015290519081900360640190fd5b61197287878787876124b9565b6003805460ff60a81b19169055979650505050505050565b611992611b18565b60085463ffffffff640100000000909104811690821611156119fb576040805162461bcd60e51b815260206004820152601a60248201527f4552525f494e56414c49445f434f4e56455253494f4e5f464545000000000000604482015290519081900360640190fd5b6008546040805163ffffffff6801000000000000000090930483168152918316602083015280517f81cd2ffb37dd237c0e4e2a3de5265fcf9deb43d3e7801e80db9f1ccfba7ee6009281900390910190a16008805463ffffffff90921668010000000000000000026bffffffff000000000000000019909216919091179055565b611a84611b18565b6000546001600160a01b0382811691161415611ae7576040805162461bcd60e51b815260206004820152600e60248201527f4552525f53414d455f4f574e4552000000000000000000000000000000000000604482015290519081900360640190fd5b600180546001600160a01b0319166001600160a01b0392909216919091179055565b6004546001600160a01b031690565b6000546001600160a01b03163314610ccd576040805162461bcd60e51b815260206004820152601160248201527011549497d050d0d154d4d7d11153925151607a1b604482015290519081900360640190fd5b6001600160a01b038116600090815260076020526040902060010154600160301b900460ff16610c12576040805162461bcd60e51b815260206004820152601360248201527f4552525f494e56414c49445f5245534552564500000000000000000000000000604482015290519081900360640190fd5b600254604080517fbb34534c0000000000000000000000000000000000000000000000000000000081526004810184905290516000926001600160a01b03169163bb34534c916024808301926020929190829003018186803b158015611c4757600080fd5b505afa158015611c5b573d6000803e3d6000fd5b505050506040513d6020811015611c7157600080fd5b505192915050565b6001600160a01b038116301415610c12576040805162461bcd60e51b815260206004820152601360248201527f4552525f414444524553535f49535f53454c4600000000000000000000000000604482015290519081900360640190fd5b600354600160a81b900460ff1615610ccd576040805162461bcd60e51b815260206004820152600e60248201527f4552525f5245454e5452414e4359000000000000000000000000000000000000604482015290519081900360640190fd5b611d3e611b18565b82611d4881612682565b82611d5281612682565b83611d5c81611c79565b61114a8686866126dd565b80611d7181611b6b565b6001600160a01b03821673eeeeeeeeeeeeeeeeeeeeeeeeeeeeeeeeeeeeeeee1415611db6576001600160a01b03821660009081526007602052604090204790556112fb565b604080516370a0823160e01b815230600482015290516001600160a01b038416916370a08231916024808301926020929190829003018186803b158015611dfc57600080fd5b505afa158015611e10573d6000803e3d6000fd5b505050506040513d6020811015611e2657600080fd5b50516001600160a01b0383166000908152600760205260409020555050565b611e4e81611be2565b6001600160a01b0316336001600160a01b031614610c12576040805162461bcd60e51b815260206004820152601160248201527011549497d050d0d154d4d7d11153925151607a1b604482015290519081900360640190fd5b611eaf611b18565b611eb7612875565b81611ec181612682565b82611ecb81611c79565b82611ed5816128cf565b6004546001600160a01b03868116911614801590611f1657506001600160a01b038516600090815260076020526040902060010154600160301b900460ff16155b611f67576040805162461bcd60e51b815260206004820152601360248201527f4552525f494e56414c49445f5245534552564500000000000000000000000000604482015290519081900360640190fd5b60085463ffffffff908116620f42400381169085161115611fcf576040805162461bcd60e51b815260206004820152601a60248201527f4552525f494e56414c49445f524553455256455f574549474854000000000000604482015290519081900360640190fd5b61ffff611fda6113f7565b61ffff1610612030576040805162461bcd60e51b815260206004820152601960248201527f4552525f494e56414c49445f524553455256455f434f554e5400000000000000604482015290519081900360640190fd5b5050506001600160a01b0390911660008181526007602052604081208181556001908101805466ff0000000000001963ffffffff80881663ffffffff199384161791909116600160301b179092556006805493840181559093527ff652222313e28459528d920b65115c16c04f3efc82aaedc97be59f3f377c0d3f90910180546001600160a01b031916909317909255600880548084169094019092169216919091179055565b6000806120e261293f565b6000600460009054906101000a90046001600160a01b03166001600160a01b03166318160ddd6040518163ffffffff1660e01b815260040160206040518083038186803b15801561213257600080fd5b505afa158015612146573d6000803e3d6000fd5b505050506040513d602081101561215c57600080fd5b505160068054919250600091829061217057fe5b6000918252602090912001546001600160a01b03169050816121d9576001600160a01b0381166000908152600760205260409020600101546121cc9063ffffffff908116906121c6908890620f42409061299816565b90612a0e565b60009350935050506122dc565b60006121f46c42616e636f72466f726d756c6160981b611be2565b6001600160a01b031663f3250fe28461220c85611730565b6001600160a01b0386166000908152600760209081526040918290206001015482517fffffffff0000000000000000000000000000000000000000000000000000000060e088901b1681526004810195909552602485019390935263ffffffff9092166044840152606483018b905251608480840193829003018186803b15801561229657600080fd5b505afa1580156122aa573d6000803e3d6000fd5b505050506040513d60208110156122c057600080fd5b5051905060006122cf82612a78565b9182900395509093505050505b915091565b6000806122ec61293f565b6000600460009054906101000a90046001600160a01b03166001600160a01b03166318160ddd6040518163ffffffff1660e01b815260040160206040518083038186803b15801561233c57600080fd5b505afa158015612350573d6000803e3d6000fd5b505050506040513d602081101561236657600080fd5b505160068054919250600091829061237a57fe5b6000918252602090912001546001600160a01b03169050818514156123a2576121cc81611730565b60006123bd6c42616e636f72466f726d756c6160981b611be2565b6001600160a01b03166376cf0b568461220c85611730565b6123dd611b18565b60006123e76113f7565b61ffff161161243d576040805162461bcd60e51b815260206004820152601960248201527f4552525f494e56414c49445f524553455256455f434f554e5400000000000000604482015290519081900360640190fd5b60048054604080517f79ba509700000000000000000000000000000000000000000000000000000000815290516001600160a01b03909216926379ba509792828201926000929082900301818387803b15801561249957600080fd5b505af11580156124ad573d6000803e3d6000fd5b50505050610ccd612aa8565b600454600090819081906001600160a01b0388811691161480156124ff57506001600160a01b038816600090815260076020526040902060010154600160301b900460ff165b15612518575086612511868686612ae8565b9150612569565b6004546001600160a01b03898116911614801561255757506001600160a01b038716600090815260076020526040902060010154600160301b900460ff165b156114a5575085612511868686612d87565b6000600460009054906101000a90046001600160a01b03166001600160a01b03166318160ddd6040518163ffffffff1660e01b815260040160206040518083038186803b1580156125b957600080fd5b505afa1580156125cd573d6000803e3d6000fd5b505050506040513d60208110156125e357600080fd5b50516001600160a01b0380841660008181526007602052604090206001015460045493945063ffffffff16929091167f77f29993cf2c084e726f7e802da0719d6a0ade3e204badc7a3ffd57ecb768c24612649620f424061264388611730565b90612998565b61265c8663ffffffff8088169061299816565b6040805192835260208301919091528051918290030190a3509198975050505050505050565b6001600160a01b038116610c12576040805162461bcd60e51b815260206004820152601360248201527f4552525f494e56414c49445f4144445245535300000000000000000000000000604482015290519081900360640190fd5b604080516001600160a01b038481166024830152604480830185905283518084039091018152606490920183526020820180517bffffffffffffffffffffffffffffffffffffffffffffffffffffffff167fa9059cbb00000000000000000000000000000000000000000000000000000000178152925182516000946060949389169392918291908083835b602083106127885780518252601f199092019160209182019101612769565b6001836020036101000a0380198251168184511680821785525050505050509050019150506000604051808303816000865af19150503d80600081146127ea576040519150601f19603f3d011682016040523d82523d6000602084013e6127ef565b606091505b509150915081801561281d57508051158061281d575080806020019051602081101561281a57600080fd5b50515b61286e576040805162461bcd60e51b815260206004820152601360248201527f4552525f5452414e534645525f4641494c454400000000000000000000000000604482015290519081900360640190fd5b5050505050565b61287d610c15565b15610ccd576040805162461bcd60e51b815260206004820152600a60248201527f4552525f41435449564500000000000000000000000000000000000000000000604482015290519081900360640190fd5b60008163ffffffff161180156128ee5750620f424063ffffffff821611155b610c12576040805162461bcd60e51b815260206004820152601a60248201527f4552525f494e56414c49445f524553455256455f574549474854000000000000604482015290519081900360640190fd5b612947610c15565b610ccd576040805162461bcd60e51b815260206004820152600c60248201527f4552525f494e4143544956450000000000000000000000000000000000000000604482015290519081900360640190fd5b6000826129a75750600061172a565b828202828482816129b457fe5b0414612a07576040805162461bcd60e51b815260206004820152600c60248201527f4552525f4f564552464c4f570000000000000000000000000000000000000000604482015290519081900360640190fd5b9392505050565b6000808211612a64576040805162461bcd60e51b815260206004820152601260248201527f4552525f4449564944455f42595f5a45524f0000000000000000000000000000604482015290519081900360640190fd5b6000828481612a6f57fe5b04949350505050565b60085460009061172a90620f4240906121c690859068010000000000000000900463ffffffff9081169061299816565b60065460005b818110156112fb57612ae060068281548110612ac657fe5b6000918252602090912001546001600160a01b0316611d67565b600101612aae565b6000806000612af6866120d7565b915091508160001415612b50576040805162461bcd60e51b815260206004820152601660248201527f4552525f5a45524f5f5441524745545f414d4f554e5400000000000000000000604482015290519081900360640190fd5b60006006600081548110612b6057fe5b6000918252602090912001546001600160a01b0316905073eeeeeeeeeeeeeeeeeeeeeeeeeeeeeeeeeeeeeeee811415612bec57863414612be7576040805162461bcd60e51b815260206004820152601760248201527f4552525f4554485f414d4f554e545f4d49534d41544348000000000000000000604482015290519081900360640190fd5b612cce565b34158015612c7d575086612c7a612c0283611730565b604080516370a0823160e01b815230600482015290516001600160a01b038616916370a08231916024808301926020929190829003018186803b158015612c4857600080fd5b505afa158015612c5c573d6000803e3d6000fd5b505050506040513d6020811015612c7257600080fd5b5051906130e0565b10155b612cce576040805162461bcd60e51b815260206004820152601260248201527f4552525f494e56414c49445f414d4f554e540000000000000000000000000000604482015290519081900360640190fd5b612cd781611d67565b60048054604080517f867904b40000000000000000000000000000000000000000000000000000000081526001600160a01b0389811694820194909452602481018790529051929091169163867904b49160448082019260009290919082900301818387803b158015612d4957600080fd5b505af1158015612d5d573d6000803e3d6000fd5b5050600454612d7c92508391506001600160a01b0316888a878761313d565b509095945050505050565b60048054604080516370a0823160e01b81523093810193909352516000926001600160a01b03909216916370a08231916024808301926020929190829003018186803b158015612dd657600080fd5b505afa158015612dea573d6000803e3d6000fd5b505050506040513d6020811015612e0057600080fd5b5051841115612e56576040805162461bcd60e51b815260206004820152601260248201527f4552525f494e56414c49445f414d4f554e540000000000000000000000000000604482015290519081900360640190fd5b600080612e62866122e1565b915091508160001415612ebc576040805162461bcd60e51b815260206004820152601660248201527f4552525f5a45524f5f5441524745545f414d4f554e5400000000000000000000604482015290519081900360640190fd5b60006006600081548110612ecc57fe5b600091825260208083209091015460048054604080517f18160ddd00000000000000000000000000000000000000000000000000000000815290516001600160a01b03948516975091909316936318160ddd938084019391929190829003018186803b158015612f3b57600080fd5b505afa158015612f4f573d6000803e3d6000fd5b505050506040513d6020811015612f6557600080fd5b505190506000612f7483611730565b905080851080612f8d57508085148015612f8d57508189145b612f9357fe5b60048054604080517fa24835d10000000000000000000000000000000000000000000000000000000081523093810193909352602483018c9052516001600160a01b039091169163a24835d191604480830192600092919082900301818387803b15801561300057600080fd5b505af1158015613014573d6000803e3d6000fd5b5050506001600160a01b03841660009081526007602052604090205461303b9150866130e0565b6001600160a01b03841660008181526007602052604090209190915573eeeeeeeeeeeeeeeeeeeeeeeeeeeeeeeeeeeeeeee14156130ae576040516001600160a01b0388169086156108fc029087906000818181858888f193505050501580156130a8573d6000803e3d6000fd5b506130b9565b6130b98388876126dd565b6004546130d3906001600160a01b0316848a8c898961313d565b5092979650505050505050565b600081831015613137576040805162461bcd60e51b815260206004820152600d60248201527f4552525f554e444552464c4f5700000000000000000000000000000000000000604482015290519081900360640190fd5b50900390565b7f8000000000000000000000000000000000000000000000000000000000000000811061316657fe5b604080518481526020810184905280820183905290516001600160a01b038087169288821692918a16917f276856b36cbc45526a0ba64f44611557a2a8b68662c5388e9fe6d72e86e1c8cb9181900360600190a4505050505050565b6040805160a0810182526000808252602082018190529181018290526060810182905260808101919091529056fea264697066735822122075c7fe09fda6cdf5a36aaf8d63f780b122d2f9c2aba9eae7e36d95280c1f2a2164736f6c634300060c0033",
  "linkReferences": {},
  "deployedLinkReferences": {}
}