{
  "_format": "hh-sol-artifact-1",
  "contractName": "DynamicLiquidTokenConverter",
  "sourceName": "contracts/bancor/converter/types/liquid-token/DynamicLiquidTokenConverter.sol",
  "abi": [
    {
      "inputs": [
        {
          "internalType": "contract IDSToken",
          "name": "_token",
          "type": "address"
        },
        {
          "internalType": "contract IContractRegistry",
          "name": "_registry",
          "type": "address"
        },
        {
          "internalType": "uint32",
          "name": "_maxConversionFee",
          "type": "uint32"
        }
      ],
      "stateMutability": "nonpayable",
      "type": "constructor"
    },
    {
      "anonymous": false,
      "inputs": [
        {
          "indexed": true,
          "internalType": "uint16",
          "name": "_type",
          "type": "uint16"
        },
        {
          "indexed": true,
          "internalType": "contract IConverterAnchor",
          "name": "_anchor",
          "type": "address"
        },
        {
          "indexed": true,
          "internalType": "bool",
          "name": "_activated",
          "type": "bool"
        }
      ],
      "name": "Activation",
      "type": "event"
    },
    {
      "anonymous": false,
      "inputs": [
        {
          "indexed": true,
          "internalType": "contract IERC20Token",
          "name": "_fromToken",
          "type": "address"
        },
        {
          "indexed": true,
          "internalType": "contract IERC20Token",
          "name": "_toToken",
          "type": "address"
        },
        {
          "indexed": true,
          "internalType": "address",
          "name": "_trader",
          "type": "address"
        },
        {
          "indexed": false,
          "internalType": "uint256",
          "name": "_amount",
          "type": "uint256"
        },
        {
          "indexed": false,
          "internalType": "uint256",
          "name": "_return",
          "type": "uint256"
        },
        {
          "indexed": false,
          "internalType": "int256",
          "name": "_conversionFee",
          "type": "int256"
        }
      ],
      "name": "Conversion",
      "type": "event"
    },
    {
      "anonymous": false,
      "inputs": [
        {
          "indexed": false,
          "internalType": "uint32",
          "name": "_prevFee",
          "type": "uint32"
        },
        {
          "indexed": false,
          "internalType": "uint32",
          "name": "_newFee",
          "type": "uint32"
        }
      ],
      "name": "ConversionFeeUpdate",
      "type": "event"
    },
    {
      "anonymous": false,
      "inputs": [
        {
          "indexed": true,
          "internalType": "address",
          "name": "_prevOwner",
          "type": "address"
        },
        {
          "indexed": true,
          "internalType": "address",
          "name": "_newOwner",
          "type": "address"
        }
      ],
      "name": "OwnerUpdate",
      "type": "event"
    },
    {
      "anonymous": false,
      "inputs": [
        {
          "indexed": false,
          "internalType": "uint32",
          "name": "_prevWeight",
          "type": "uint32"
        },
        {
          "indexed": false,
          "internalType": "uint32",
          "name": "_newWeight",
          "type": "uint32"
        },
        {
          "indexed": false,
          "internalType": "uint256",
          "name": "_percentage",
          "type": "uint256"
        },
        {
          "indexed": false,
          "internalType": "uint256",
          "name": "_balance",
          "type": "uint256"
        }
      ],
      "name": "ReserveTokenWeightUpdate",
      "type": "event"
    },
    {
      "anonymous": false,
      "inputs": [
        {
          "indexed": true,
          "internalType": "contract IERC20Token",
          "name": "_token1",
          "type": "address"
        },
        {
          "indexed": true,
          "internalType": "contract IERC20Token",
          "name": "_token2",
          "type": "address"
        },
        {
          "indexed": false,
          "internalType": "uint256",
          "name": "_rateN",
          "type": "uint256"
        },
        {
          "indexed": false,
          "internalType": "uint256",
          "name": "_rateD",
          "type": "uint256"
        }
      ],
      "name": "TokenRateUpdate",
      "type": "event"
    },
    {
      "inputs": [],
      "name": "acceptAnchorOwnership",
      "outputs": [],
      "stateMutability": "nonpayable",
      "type": "function"
    },
    {
      "inputs": [],
      "name": "acceptOwnership",
      "outputs": [],
      "stateMutability": "nonpayable",
      "type": "function"
    },
    {
      "inputs": [],
      "name": "acceptTokenOwnership",
      "outputs": [],
      "stateMutability": "nonpayable",
      "type": "function"
    },
    {
      "inputs": [
        {
          "internalType": "contract IERC20Token",
          "name": "_token",
          "type": "address"
        },
        {
          "internalType": "uint32",
          "name": "_weight",
          "type": "uint32"
        }
      ],
      "name": "addReserve",
      "outputs": [],
      "stateMutability": "nonpayable",
      "type": "function"
    },
    {
      "inputs": [],
      "name": "anchor",
      "outputs": [
        {
          "internalType": "contract IConverterAnchor",
          "name": "",
          "type": "address"
        }
      ],
      "stateMutability": "view",
      "type": "function"
    },
    {
      "inputs": [],
      "name": "connectorTokenCount",
      "outputs": [
        {
          "internalType": "uint16",
          "name": "",
          "type": "uint16"
        }
      ],
      "stateMutability": "view",
      "type": "function"
    },
    {
      "inputs": [
        {
          "internalType": "uint256",
          "name": "_index",
          "type": "uint256"
        }
      ],
      "name": "connectorTokens",
      "outputs": [
        {
          "internalType": "contract IERC20Token",
          "name": "",
          "type": "address"
        }
      ],
      "stateMutability": "view",
      "type": "function"
    },
    {
      "inputs": [
        {
          "internalType": "contract IERC20Token",
          "name": "_address",
          "type": "address"
        }
      ],
      "name": "connectors",
      "outputs": [
        {
          "internalType": "uint256",
          "name": "",
          "type": "uint256"
        },
        {
          "internalType": "uint32",
          "name": "",
          "type": "uint32"
        },
        {
          "internalType": "bool",
          "name": "",
          "type": "bool"
        },
        {
          "internalType": "bool",
          "name": "",
          "type": "bool"
        },
        {
          "internalType": "bool",
          "name": "",
          "type": "bool"
        }
      ],
      "stateMutability": "view",
      "type": "function"
    },
    {
      "inputs": [],
      "name": "conversionFee",
      "outputs": [
        {
          "internalType": "uint32",
          "name": "",
          "type": "uint32"
        }
      ],
      "stateMutability": "view",
      "type": "function"
    },
    {
      "inputs": [],
      "name": "conversionWhitelist",
      "outputs": [
        {
          "internalType": "contract IWhitelist",
          "name": "",
          "type": "address"
        }
      ],
      "stateMutability": "view",
      "type": "function"
    },
    {
      "inputs": [],
      "name": "conversionsEnabled",
      "outputs": [
        {
          "internalType": "bool",
          "name": "",
          "type": "bool"
        }
      ],
      "stateMutability": "view",
      "type": "function"
    },
    {
      "inputs": [
        {
          "internalType": "contract IERC20Token",
          "name": "_sourceToken",
          "type": "address"
        },
        {
          "internalType": "contract IERC20Token",
          "name": "_targetToken",
          "type": "address"
        },
        {
          "internalType": "uint256",
          "name": "_amount",
          "type": "uint256"
        },
        {
          "internalType": "address",
          "name": "_trader",
          "type": "address"
        },
        {
          "internalType": "address payable",
          "name": "_beneficiary",
          "type": "address"
        }
      ],
      "name": "convert",
      "outputs": [
        {
          "internalType": "uint256",
          "name": "",
          "type": "uint256"
        }
      ],
      "stateMutability": "payable",
      "type": "function"
    },
    {
      "inputs": [],
      "name": "converterType",
      "outputs": [
        {
          "internalType": "uint16",
          "name": "",
          "type": "uint16"
        }
      ],
      "stateMutability": "pure",
      "type": "function"
    },
    {
      "inputs": [
        {
          "internalType": "contract IERC20Token",
          "name": "_connectorToken",
          "type": "address"
        }
      ],
      "name": "getConnectorBalance",
      "outputs": [
        {
          "internalType": "uint256",
          "name": "",
          "type": "uint256"
        }
      ],
      "stateMutability": "view",
      "type": "function"
    },
    {
      "inputs": [
        {
          "internalType": "contract IERC20Token",
          "name": "_reserveToken",
          "type": "address"
        }
      ],
      "name": "getMarketCap",
      "outputs": [
        {
          "internalType": "uint256",
          "name": "",
          "type": "uint256"
        }
      ],
      "stateMutability": "view",
      "type": "function"
    },
    {
      "inputs": [
        {
          "internalType": "contract IERC20Token",
          "name": "_sourceToken",
          "type": "address"
        },
        {
          "internalType": "contract IERC20Token",
          "name": "_targetToken",
          "type": "address"
        },
        {
          "internalType": "uint256",
          "name": "_amount",
          "type": "uint256"
        }
      ],
      "name": "getReturn",
      "outputs": [
        {
          "internalType": "uint256",
          "name": "",
          "type": "uint256"
        },
        {
          "internalType": "uint256",
          "name": "",
          "type": "uint256"
        }
      ],
      "stateMutability": "view",
      "type": "function"
    },
    {
      "inputs": [],
      "name": "hasETHReserve",
      "outputs": [
        {
          "internalType": "bool",
          "name": "",
          "type": "bool"
        }
      ],
      "stateMutability": "view",
      "type": "function"
    },
    {
      "inputs": [],
      "name": "isActive",
      "outputs": [
        {
          "internalType": "bool",
          "name": "",
          "type": "bool"
        }
      ],
      "stateMutability": "view",
      "type": "function"
    },
    {
      "inputs": [],
      "name": "isV28OrHigher",
      "outputs": [
        {
          "internalType": "bool",
          "name": "",
          "type": "bool"
        }
      ],
      "stateMutability": "pure",
      "type": "function"
    },
    {
      "inputs": [],
      "name": "marketCapThreshold",
      "outputs": [
        {
          "internalType": "uint256",
          "name": "",
          "type": "uint256"
        }
      ],
      "stateMutability": "view",
      "type": "function"
    },
    {
      "inputs": [],
      "name": "maxConversionFee",
      "outputs": [
        {
          "internalType": "uint32",
          "name": "",
          "type": "uint32"
        }
      ],
      "stateMutability": "view",
      "type": "function"
    },
    {
      "inputs": [],
      "name": "minimumWeight",
      "outputs": [
        {
          "internalType": "uint32",
          "name": "",
          "type": "uint32"
        }
      ],
      "stateMutability": "view",
      "type": "function"
    },
    {
      "inputs": [],
      "name": "newOwner",
      "outputs": [
        {
          "internalType": "address",
          "name": "",
          "type": "address"
        }
      ],
      "stateMutability": "view",
      "type": "function"
    },
    {
      "inputs": [],
      "name": "onlyOwnerCanUpdateRegistry",
      "outputs": [
        {
          "internalType": "bool",
          "name": "",
          "type": "bool"
        }
      ],
      "stateMutability": "view",
      "type": "function"
    },
    {
      "inputs": [],
      "name": "owner",
      "outputs": [
        {
          "internalType": "address",
          "name": "",
          "type": "address"
        }
      ],
      "stateMutability": "view",
      "type": "function"
    },
    {
      "inputs": [],
      "name": "prevRegistry",
      "outputs": [
        {
          "internalType": "contract IContractRegistry",
          "name": "",
          "type": "address"
        }
      ],
      "stateMutability": "view",
      "type": "function"
    },
    {
      "inputs": [
        {
          "internalType": "contract IERC20Token",
          "name": "_reserveToken",
          "type": "address"
        }
      ],
      "name": "reduceWeight",
      "outputs": [],
      "stateMutability": "nonpayable",
      "type": "function"
    },
    {
      "inputs": [],
      "name": "registry",
      "outputs": [
        {
          "internalType": "contract IContractRegistry",
          "name": "",
          "type": "address"
        }
      ],
      "stateMutability": "view",
      "type": "function"
    },
    {
      "inputs": [
        {
          "internalType": "contract IERC20Token",
          "name": "_reserveToken",
          "type": "address"
        }
      ],
      "name": "reserveBalance",
      "outputs": [
        {
          "internalType": "uint256",
          "name": "",
          "type": "uint256"
        }
      ],
      "stateMutability": "view",
      "type": "function"
    },
    {
      "inputs": [],
      "name": "reserveRatio",
      "outputs": [
        {
          "internalType": "uint32",
          "name": "",
          "type": "uint32"
        }
      ],
      "stateMutability": "view",
      "type": "function"
    },
    {
      "inputs": [],
      "name": "reserveTokenCount",
      "outputs": [
        {
          "internalType": "uint16",
          "name": "",
          "type": "uint16"
        }
      ],
      "stateMutability": "view",
      "type": "function"
    },
    {
      "inputs": [
        {
          "internalType": "uint256",
          "name": "",
          "type": "uint256"
        }
      ],
      "name": "reserveTokens",
      "outputs": [
        {
          "internalType": "contract IERC20Token",
          "name": "",
          "type": "address"
        }
      ],
      "stateMutability": "view",
      "type": "function"
    },
    {
      "inputs": [
        {
          "internalType": "contract IERC20Token",
          "name": "_reserveToken",
          "type": "address"
        }
      ],
      "name": "reserveWeight",
      "outputs": [
        {
          "internalType": "uint32",
          "name": "",
          "type": "uint32"
        }
      ],
      "stateMutability": "view",
      "type": "function"
    },
    {
      "inputs": [
        {
          "internalType": "contract IERC20Token",
          "name": "",
          "type": "address"
        }
      ],
      "name": "reserves",
      "outputs": [
        {
          "internalType": "uint256",
          "name": "balance",
          "type": "uint256"
        },
        {
          "internalType": "uint32",
          "name": "weight",
          "type": "uint32"
        },
        {
          "internalType": "bool",
          "name": "deprecated1",
          "type": "bool"
        },
        {
          "internalType": "bool",
          "name": "deprecated2",
          "type": "bool"
        },
        {
          "internalType": "bool",
          "name": "isSet",
          "type": "bool"
        }
      ],
      "stateMutability": "view",
      "type": "function"
    },
    {
      "inputs": [],
      "name": "restoreRegistry",
      "outputs": [],
      "stateMutability": "nonpayable",
      "type": "function"
    },
    {
      "inputs": [
        {
          "internalType": "bool",
          "name": "_onlyOwnerCanUpdateRegistry",
          "type": "bool"
        }
      ],
      "name": "restrictRegistryUpdate",
      "outputs": [],
      "stateMutability": "nonpayable",
      "type": "function"
    },
    {
      "inputs": [
        {
          "internalType": "uint32",
          "name": "_conversionFee",
          "type": "uint32"
        }
      ],
      "name": "setConversionFee",
      "outputs": [],
      "stateMutability": "nonpayable",
      "type": "function"
    },
    {
      "inputs": [
        {
          "internalType": "contract IWhitelist",
          "name": "_whitelist",
          "type": "address"
        }
      ],
      "name": "setConversionWhitelist",
      "outputs": [],
      "stateMutability": "nonpayable",
      "type": "function"
    },
    {
      "inputs": [
        {
          "internalType": "uint256",
          "name": "_marketCapThreshold",
          "type": "uint256"
        }
      ],
      "name": "setMarketCapThreshold",
      "outputs": [],
      "stateMutability": "nonpayable",
      "type": "function"
    },
    {
      "inputs": [
        {
          "internalType": "uint32",
          "name": "_minimumWeight",
          "type": "uint32"
        }
      ],
      "name": "setMinimumWeight",
      "outputs": [],
      "stateMutability": "nonpayable",
      "type": "function"
    },
    {
      "inputs": [
        {
          "internalType": "uint32",
          "name": "_stepWeight",
          "type": "uint32"
        }
      ],
      "name": "setStepWeight",
      "outputs": [],
      "stateMutability": "nonpayable",
      "type": "function"
    },
    {
      "inputs": [],
      "name": "stepWeight",
      "outputs": [
        {
          "internalType": "uint32",
          "name": "",
          "type": "uint32"
        }
      ],
      "stateMutability": "view",
      "type": "function"
    },
    {
      "inputs": [
        {
          "internalType": "contract IERC20Token",
          "name": "_sourceToken",
          "type": "address"
        },
        {
          "internalType": "contract IERC20Token",
          "name": "_targetToken",
          "type": "address"
        },
        {
          "internalType": "uint256",
          "name": "_amount",
          "type": "uint256"
        }
      ],
      "name": "targetAmountAndFee",
      "outputs": [
        {
          "internalType": "uint256",
          "name": "",
          "type": "uint256"
        },
        {
          "internalType": "uint256",
          "name": "",
          "type": "uint256"
        }
      ],
      "stateMutability": "view",
      "type": "function"
    },
    {
      "inputs": [],
      "name": "token",
      "outputs": [
        {
          "internalType": "contract IConverterAnchor",
          "name": "",
          "type": "address"
        }
      ],
      "stateMutability": "view",
      "type": "function"
    },
    {
      "inputs": [
        {
          "internalType": "address",
          "name": "_newOwner",
          "type": "address"
        }
      ],
      "name": "transferAnchorOwnership",
      "outputs": [],
      "stateMutability": "nonpayable",
      "type": "function"
    },
    {
      "inputs": [
        {
          "internalType": "address",
          "name": "_newOwner",
          "type": "address"
        }
      ],
      "name": "transferOwnership",
      "outputs": [],
      "stateMutability": "nonpayable",
      "type": "function"
    },
    {
      "inputs": [
        {
          "internalType": "address",
          "name": "_newOwner",
          "type": "address"
        }
      ],
      "name": "transferTokenOwnership",
      "outputs": [],
      "stateMutability": "nonpayable",
      "type": "function"
    },
    {
      "inputs": [],
      "name": "updateRegistry",
      "outputs": [],
      "stateMutability": "nonpayable",
      "type": "function"
    },
    {
      "inputs": [],
      "name": "upgrade",
      "outputs": [],
      "stateMutability": "nonpayable",
      "type": "function"
    },
    {
      "inputs": [],
      "name": "version",
      "outputs": [
        {
          "internalType": "uint16",
          "name": "",
          "type": "uint16"
        }
      ],
      "stateMutability": "view",
      "type": "function"
    },
    {
      "inputs": [
        {
          "internalType": "address payable",
          "name": "_to",
          "type": "address"
        }
      ],
      "name": "withdrawETH",
      "outputs": [],
      "stateMutability": "nonpayable",
      "type": "function"
    },
    {
      "inputs": [
        {
          "internalType": "contract IERC20Token",
          "name": "_token",
          "type": "address"
        },
        {
          "internalType": "address",
          "name": "_to",
          "type": "address"
        },
        {
          "internalType": "uint256",
          "name": "_amount",
          "type": "uint256"
        }
      ],
      "name": "withdrawTokens",
      "outputs": [],
      "stateMutability": "nonpayable",
      "type": "function"
    },
    {
      "stateMutability": "payable",
      "type": "receive"
    }
  ],
  "bytecode": "0x60806040526003805460ff60a81b19169055600880546001600160801b0319166d75300000000000000000000000001763ffffffff60801b191661027160841b17905569021e19e0c9bab24000006009556000600a553480156200006257600080fd5b506040516200383538038062003835833981810160405260608110156200008857600080fd5b5080516020820151604090920151600080546001600160a01b031916331790559091908282828282828180620000be8162000158565b50600280546001600160a01b039092166001600160a01b031992831681179091556003805490921617905582620000f58162000158565b816200010181620001b7565b5050600480546001600160a01b039094166001600160a01b031990941693909317909255506008805463ffffffff9092166401000000000263ffffffff60201b199092169190911790555062000216945050505050565b6001600160a01b038116620001b4576040805162461bcd60e51b815260206004820152601360248201527f4552525f494e56414c49445f4144445245535300000000000000000000000000604482015290519081900360640190fd5b50565b620f424063ffffffff82161115620001b4576040805162461bcd60e51b815260206004820152601a60248201527f4552525f494e56414c49445f434f4e56455253494f4e5f464545000000000000604482015290519081900360640190fd5b61360f80620002266000396000f3fe6080604052600436106103435760003560e01c80638da5cb5b116101b0578063d260529c116100ec578063d895951211610095578063ecbca55d1161006f578063ecbca55d14610b53578063f2fde38b14610b83578063f95e146c14610bb6578063fc0c546a14610bcb576103e4565b8063d895951214610aa7578063dc8de37914610ada578063e8dc12ff14610b0d576103e4565b8063d55ec697116100c6578063d55ec69714610a2c578063d66bd52414610a41578063d79604c214610a74576103e4565b8063d260529c146109ed578063d3fb73b414610a02578063d4ee1d9014610a17576103e4565b8063bf75455811610159578063c9be579b11610133578063c9be579b14610951578063cdc91c691461097b578063d031370b14610990578063d146d31d146109ba576103e4565b8063bf754558146108f7578063c3e8dfa81461090c578063c45d3d921461093c576103e4565b8063ad1615821161018a578063ad1615821461086f578063af94b8d81461089f578063b4a176d3146108e2576103e4565b80638da5cb5b1461083057806394c275ad146108455780639b99a8e21461085a576103e4565b806349d10b641161027f57806367b6d57c1161022857806370b0aec51161020257806370b0aec5146107ca57806371f52bf3146107f157806379ba5097146108065780637b1039991461081b576103e4565b806367b6d57c14610725578063690d8320146107585780636a49d2c41461078b576103e4565b8063579cd3ca11610259578063579cd3ca146106b85780635e35359e146106cd57806361cd756e14610710576103e4565b806349d10b641461065b5780634af80f0e1461067057806354fd4d50146106a3576103e4565b80631e1401f8116102ec5780632fe8a6ad116102c65780632fe8a6ad146105f057806338a5e016146106055780633e8ff43f1461061a57806340bf2fb714610646576103e4565b80631e1401f81461054c57806321e6b53d146105a857806322f3e2d4146105db576103e4565b806312c2aca41161031d57806312c2aca4146104aa57806319b64015146104d35780631cfab29014610519576103e4565b8063024c7ec7146103e95780630c7d5cd8146104155780630e53aae914610443576103e4565b366103e45773eeeeeeeeeeeeeeeeeeeeeeeeeeeeeeeeeeeeeeee60005260076020527fb2084a3e4595ccf007fb44245853374aaf0de960074375e8e0fb334712e94d0f54600160301b900460ff166103e2576040805162461bcd60e51b815260206004820152601360248201527f4552525f494e56414c49445f5245534552564500000000000000000000000000604482015290519081900360640190fd5b005b600080fd5b3480156103f557600080fd5b506103e26004803603602081101561040c57600080fd5b50351515610be0565b34801561042157600080fd5b5061042a610c21565b6040805163ffffffff9092168252519081900360200190f35b34801561044f57600080fd5b506104766004803603602081101561046657600080fd5b50356001600160a01b0316610c2d565b6040805195865263ffffffff9094166020860152911515848401521515606084015215156080830152519081900360a00190f35b3480156104b657600080fd5b506104bf610cc5565b604080519115158252519081900360200190f35b3480156104df57600080fd5b506104fd600480360360208110156104f657600080fd5b5035610d11565b604080516001600160a01b039092168252519081900360200190f35b34801561052557600080fd5b5061042a6004803603602081101561053c57600080fd5b50356001600160a01b0316610d3b565b34801561055857600080fd5b5061058f6004803603606081101561056f57600080fd5b506001600160a01b03813581169160208101359091169060400135610d6d565b6040805192835260208301919091528051918290030190f35b3480156105b457600080fd5b506103e2600480360360208110156105cb57600080fd5b50356001600160a01b0316610d88565b3480156105e757600080fd5b506104bf610d9c565b3480156105fc57600080fd5b506104bf610e34565b34801561061157600080fd5b506103e2610e44565b34801561062657600080fd5b5061062f610e56565b6040805161ffff9092168252519081900360200190f35b34801561065257600080fd5b5061042a610e5b565b34801561066757600080fd5b506103e2610e77565b34801561067c57600080fd5b506103e26004803603602081101561069357600080fd5b50356001600160a01b03166110ab565b3480156106af57600080fd5b5061062f6110e0565b3480156106c457600080fd5b5061042a6110e5565b3480156106d957600080fd5b506103e2600480360360608110156106f057600080fd5b506001600160a01b038135811691602081013590911690604001356110fd565b34801561071c57600080fd5b506104fd611171565b34801561073157600080fd5b506103e26004803603602081101561074857600080fd5b50356001600160a01b0316611180565b34801561076457600080fd5b506103e26004803603602081101561077b57600080fd5b50356001600160a01b0316611207565b34801561079757600080fd5b506103e2600480360360408110156107ae57600080fd5b5080356001600160a01b0316906020013563ffffffff166112ac565b3480156107d657600080fd5b506107df611320565b60408051918252519081900360200190f35b3480156107fd57600080fd5b5061062f611326565b34801561081257600080fd5b506103e2611335565b34801561082757600080fd5b506104fd6113ec565b34801561083c57600080fd5b506104fd6113fb565b34801561085157600080fd5b5061042a61140a565b34801561086657600080fd5b5061062f61141e565b34801561087b57600080fd5b506103e26004803603602081101561089257600080fd5b503563ffffffff16611424565b3480156108ab57600080fd5b5061058f600480360360608110156108c257600080fd5b506001600160a01b03813581169160208101359091169060400135611472565b3480156108ee57600080fd5b506103e2611567565b34801561090357600080fd5b506104bf611593565b34801561091857600080fd5b506103e26004803603602081101561092f57600080fd5b503563ffffffff16611598565b34801561094857600080fd5b506104fd6115ef565b34801561095d57600080fd5b506103e26004803603602081101561097457600080fd5b50356115fe565b34801561098757600080fd5b506103e2611613565b34801561099c57600080fd5b506104fd600480360360208110156109b357600080fd5b503561166c565b3480156109c657600080fd5b506107df600480360360208110156109dd57600080fd5b50356001600160a01b0316611693565b3480156109f957600080fd5b506104bf6116dd565b348015610a0e57600080fd5b506104fd6116e2565b348015610a2357600080fd5b506104fd6116f1565b348015610a3857600080fd5b506103e2611700565b348015610a4d57600080fd5b5061047660048036036020811015610a6457600080fd5b50356001600160a01b0316611807565b348015610a8057600080fd5b506103e260048036036020811015610a9757600080fd5b50356001600160a01b031661184a565b348015610ab357600080fd5b506107df60048036036020811015610aca57600080fd5b50356001600160a01b0316611acf565b348015610ae657600080fd5b506107df60048036036020811015610afd57600080fd5b50356001600160a01b0316611ae0565b6107df600480360360a0811015610b2357600080fd5b506001600160a01b0381358116916020810135821691604082013591606081013582169160809091013516611b09565b348015610b5f57600080fd5b506103e260048036036020811015610b7657600080fd5b503563ffffffff16611d3a565b348015610b8f57600080fd5b506103e260048036036020811015610ba657600080fd5b50356001600160a01b0316611e2c565b348015610bc257600080fd5b5061042a611eb9565b348015610bd757600080fd5b506104fd611ecc565b610be8611edb565b60038054911515600160a01b027fffffffffffffffffffffff00ffffffffffffffffffffffffffffffffffffffff909216919091179055565b60085463ffffffff1681565b6000806000806000610c3d6135ab565b505050506001600160a01b03929092166000908152600760209081526040808320815160a081018352815480825260019092015463ffffffff811694820185905260ff64010000000082048116151594830194909452650100000000008104841615156060830152600160301b90049092161515608090920182905295919450919250829190565b73eeeeeeeeeeeeeeeeeeeeeeeeeeeeeeeeeeeeeeee60005260076020527fb2084a3e4595ccf007fb44245853374aaf0de960074375e8e0fb334712e94d0f54600160301b900460ff1690565b600060068281548110610d2057fe5b6000918252602090912001546001600160a01b031692915050565b600081610d4781611f2e565b50506001600160a01b031660009081526007602052604090206001015463ffffffff1690565b600080610d7b858585611472565b915091505b935093915050565b610d90611edb565b610d9981611180565b50565b60048054604080517f8da5cb5b000000000000000000000000000000000000000000000000000000008152905160009330936001600160a01b031692638da5cb5b9281830192602092829003018186803b158015610df957600080fd5b505afa158015610e0d573d6000803e3d6000fd5b505050506040513d6020811015610e2357600080fd5b50516001600160a01b031614905090565b600354600160a01b900460ff1681565b610e4c611edb565b610e54611613565b565b600090565b6008546c01000000000000000000000000900463ffffffff1681565b6000546001600160a01b0316331480610e9a5750600354600160a01b900460ff16155b610edf576040805162461bcd60e51b815260206004820152601160248201527011549497d050d0d154d4d7d11153925151607a1b604482015290519081900360640190fd5b6000610f0a7f436f6e7472616374526567697374727900000000000000000000000000000000611fa5565b6002549091506001600160a01b03808316911614801590610f3357506001600160a01b03811615155b610f84576040805162461bcd60e51b815260206004820152601460248201527f4552525f494e56414c49445f5245474953545259000000000000000000000000604482015290519081900360640190fd5b60006001600160a01b0316816001600160a01b031663bb34534c7f436f6e74726163745265676973747279000000000000000000000000000000006040518263ffffffff1660e01b81526004018082815260200191505060206040518083038186803b158015610ff357600080fd5b505afa158015611007573d6000803e3d6000fd5b505050506040513d602081101561101d57600080fd5b50516001600160a01b0316141561107b576040805162461bcd60e51b815260206004820152601460248201527f4552525f494e56414c49445f5245474953545259000000000000000000000000604482015290519081900360640190fd5b60028054600380546001600160a01b038084166001600160a01b0319928316179092559091169216919091179055565b6110b3611edb565b806110bd8161203c565b50600580546001600160a01b0319166001600160a01b0392909216919091179055565b602881565b60085468010000000000000000900463ffffffff1681565b61110561209a565b6003805460ff60a81b1916600160a81b179055611120611edb565b61112b8383836120f9565b6001600160a01b038316600090815260076020526040902060010154600160301b900460ff161561115f5761115f83612132565b50506003805460ff60a81b1916905550565b6003546001600160a01b031681565b611188611edb565b600460009054906101000a90046001600160a01b03166001600160a01b031663f2fde38b826040518263ffffffff1660e01b815260040180826001600160a01b03168152602001915050600060405180830381600087803b1580156111ec57600080fd5b505af1158015611200573d6000803e3d6000fd5b5050505050565b61120f61209a565b6003805460ff60a81b1916600160a81b17905561122a611edb565b73eeeeeeeeeeeeeeeeeeeeeeeeeeeeeeeeeeeeeeee61124881611f2e565b6040516001600160a01b038316904780156108fc02916000818181858888f1935050505015801561127d573d6000803e3d6000fd5b5061129b73eeeeeeeeeeeeeeeeeeeeeeeeeeeeeeeeeeeeeeee612132565b50506003805460ff60a81b19169055565b6112b4611edb565b6112bc61141e565b61ffff1615611312576040805162461bcd60e51b815260206004820152601960248201527f4552525f494e56414c49445f524553455256455f434f554e5400000000000000604482015290519081900360640190fd5b61131c8282612210565b5050565b60095481565b600061133061141e565b905090565b6001546001600160a01b03163314611388576040805162461bcd60e51b815260206004820152601160248201527011549497d050d0d154d4d7d11153925151607a1b604482015290519081900360640190fd5b600154600080546040516001600160a01b0393841693909116917f343765429aea5a34b3ff6a3785a98a5abb2597aca87bfbb58632c173d585373a91a360018054600080546001600160a01b03199081166001600160a01b03841617909155169055565b6002546001600160a01b031681565b6000546001600160a01b031681565b600854640100000000900463ffffffff1681565b60065490565b61142c611edb565b611434612440565b6008805463ffffffff909216600160801b027fffffffffffffffffffffffff00000000ffffffffffffffffffffffffffffffff909216919091179055565b60045460009081906001600160a01b0385811691161480156114b657506001600160a01b038516600090815260076020526040902060010154600160301b900460ff165b156114cd576114c48361249a565b91509150610d80565b6004546001600160a01b03868116911614801561150c57506001600160a01b038416600090815260076020526040902060010154600160301b900460ff165b1561151a576114c48361269e565b6040805162461bcd60e51b815260206004820152601160248201527f4552525f494e56414c49445f544f4b454e000000000000000000000000000000604482015290519081900360640190fd5b61156f611edb565b600354600280546001600160a01b0319166001600160a01b03909216919091179055565b600181565b6115a0611edb565b6115a8612440565b6008805463ffffffff9092166c01000000000000000000000000027fffffffffffffffffffffffffffffffff00000000ffffffffffffffffffffffff909216919091179055565b6005546001600160a01b031681565b611606611edb565b61160e612440565b600955565b61161b611edb565b611623612792565b6004546001906001600160a01b031661163a610e56565b61ffff167f6b08c2e2c9969e55a647a764db9b554d64dc42f1a704da11a6d5b129ad163f2c60405160405180910390a4565b6006818154811061167957fe5b6000918252602090912001546001600160a01b0316905081565b6001600160a01b038116600090815260076020526040812060018101546116d69063ffffffff166116d0620f42406116ca87611ae0565b90612876565b906128d4565b9392505050565b600190565b6004546001600160a01b031681565b6001546001600160a01b031681565b611708611edb565b60006117337f42616e636f72436f6e7665727465725570677261646572000000000000000000611fa5565b6004549091506000906001600160a01b031661174d610e56565b61ffff167f6b08c2e2c9969e55a647a764db9b554d64dc42f1a704da11a6d5b129ad163f2c60405160405180910390a461178681611e2c565b604080517f90f58c960000000000000000000000000000000000000000000000000000000081526028600482015290516001600160a01b038316916390f58c9691602480830192600092919082900301818387803b1580156117e757600080fd5b505af11580156117fb573d6000803e3d6000fd5b50505050610d99611335565b6007602052600090815260409020805460019091015463ffffffff81169060ff6401000000008204811691650100000000008104821691600160301b9091041685565b8061185481611f2e565b61185c611edb565b600061186783611693565b9050611880600954600a5461293e90919063ffffffff16565b81116118d3576040805162461bcd60e51b815260206004820152601e60248201527f4552525f4d41524b45545f4341505f42454c4f575f5448524553484f4c440000604482015290519081900360640190fd5b6001600160a01b038316600090815260076020526040812060085460018201549192916119149163ffffffff91821691600160801b90910481169061298716565b600183015460085491925063ffffffff908116916c0100000000000000000000000090041682101561198d576040805162461bcd60e51b815260206004820152601a60248201527f4552525f494e56414c49445f524553455256455f574549474854000000000000604482015290519081900360640190fd5b60018301546000906119c1906119b79063ffffffff908116906116d0908790620f42409061287616565b620f424090612987565b60018501805463ffffffff861663ffffffff1991821681179092556008805490911690911790559050826000611a01620f42406116d0856116ca8d611ae0565b90506001600160a01b03891673eeeeeeeeeeeeeeeeeeeeeeeeeeeeeeeeeeeeeeee1415611a5b57604051339082156108fc029083906000818181858888f19350505050158015611a55573d6000803e3d6000fd5b50611a66565b611a668933836129e4565b600a879055611a7489612132565b85546040805163ffffffff8088168252851660208201528082018690526060810192909252517fdb546a099d5772cc83680ebd46cf464225ffd886eda63ba6c11095aa1422f75d9181900360800190a1505050505050505050565b6000611ada82611ae0565b92915050565b600081611aec81611f2e565b50506001600160a01b031660009081526007602052604090205490565b6000611b1361209a565b6003805460ff60a81b1916600160a81b1790557f42616e636f724e6574776f726b00000000000000000000000000000000000000611b5081612b75565b856001600160a01b0316876001600160a01b03161415611bb7576040805162461bcd60e51b815260206004820152601660248201527f4552525f53414d455f534f555243455f54415247455400000000000000000000604482015290519081900360640190fd5b6005546001600160a01b03161580611cc4575060055460408051633af32abf60e01b81526001600160a01b03878116600483015291519190921691633af32abf916024808301926020929190829003018186803b158015611c1757600080fd5b505afa158015611c2b573d6000803e3d6000fd5b505050506040513d6020811015611c4157600080fd5b50518015611cc4575060055460408051633af32abf60e01b81526001600160a01b03868116600483015291519190921691633af32abf916024808301926020929190829003018186803b158015611c9757600080fd5b505afa158015611cab573d6000803e3d6000fd5b505050506040513d6020811015611cc157600080fd5b50515b611d15576040805162461bcd60e51b815260206004820152601360248201527f4552525f4e4f545f57484954454c495354454400000000000000000000000000604482015290519081900360640190fd5b611d228787878787612bd7565b6003805460ff60a81b19169055979650505050505050565b611d42611edb565b60085463ffffffff64010000000090910481169082161115611dab576040805162461bcd60e51b815260206004820152601a60248201527f4552525f494e56414c49445f434f4e56455253494f4e5f464545000000000000604482015290519081900360640190fd5b6008546040805163ffffffff6801000000000000000090930483168152918316602083015280517f81cd2ffb37dd237c0e4e2a3de5265fcf9deb43d3e7801e80db9f1ccfba7ee6009281900390910190a16008805463ffffffff90921668010000000000000000026bffffffff000000000000000019909216919091179055565b611e34611edb565b6000546001600160a01b0382811691161415611e97576040805162461bcd60e51b815260206004820152600e60248201527f4552525f53414d455f4f574e4552000000000000000000000000000000000000604482015290519081900360640190fd5b600180546001600160a01b0319166001600160a01b0392909216919091179055565b600854600160801b900463ffffffff1681565b6004546001600160a01b031690565b6000546001600160a01b03163314610e54576040805162461bcd60e51b815260206004820152601160248201527011549497d050d0d154d4d7d11153925151607a1b604482015290519081900360640190fd5b6001600160a01b038116600090815260076020526040902060010154600160301b900460ff16610d99576040805162461bcd60e51b815260206004820152601360248201527f4552525f494e56414c49445f5245534552564500000000000000000000000000604482015290519081900360640190fd5b600254604080517fbb34534c0000000000000000000000000000000000000000000000000000000081526004810184905290516000926001600160a01b03169163bb34534c916024808301926020929190829003018186803b15801561200a57600080fd5b505afa15801561201e573d6000803e3d6000fd5b505050506040513d602081101561203457600080fd5b505192915050565b6001600160a01b038116301415610d99576040805162461bcd60e51b815260206004820152601360248201527f4552525f414444524553535f49535f53454c4600000000000000000000000000604482015290519081900360640190fd5b600354600160a81b900460ff1615610e54576040805162461bcd60e51b815260206004820152600e60248201527f4552525f5245454e5452414e4359000000000000000000000000000000000000604482015290519081900360640190fd5b612101611edb565b8261210b81612d9a565b8261211581612d9a565b8361211f8161203c565b61212a8686866129e4565b505050505050565b8061213c81611f2e565b6001600160a01b03821673eeeeeeeeeeeeeeeeeeeeeeeeeeeeeeeeeeeeeeee1415612181576001600160a01b038216600090815260076020526040902047905561131c565b604080516370a0823160e01b815230600482015290516001600160a01b038416916370a08231916024808301926020929190829003018186803b1580156121c757600080fd5b505afa1580156121db573d6000803e3d6000fd5b505050506040513d60208110156121f157600080fd5b50516001600160a01b0383166000908152600760205260409020555050565b612218611edb565b612220612440565b8161222a81612d9a565b826122348161203c565b8261223e81612df5565b6004546001600160a01b0386811691161480159061227f57506001600160a01b038516600090815260076020526040902060010154600160301b900460ff16155b6122d0576040805162461bcd60e51b815260206004820152601360248201527f4552525f494e56414c49445f5245534552564500000000000000000000000000604482015290519081900360640190fd5b60085463ffffffff908116620f42400381169085161115612338576040805162461bcd60e51b815260206004820152601a60248201527f4552525f494e56414c49445f524553455256455f574549474854000000000000604482015290519081900360640190fd5b61ffff61234361141e565b61ffff1610612399576040805162461bcd60e51b815260206004820152601960248201527f4552525f494e56414c49445f524553455256455f434f554e5400000000000000604482015290519081900360640190fd5b5050506001600160a01b0390911660008181526007602052604081208181556001908101805466ff0000000000001963ffffffff80881663ffffffff199384161791909116600160301b179092556006805493840181559093527ff652222313e28459528d920b65115c16c04f3efc82aaedc97be59f3f377c0d3f90910180546001600160a01b031916909317909255600880548084169094019092169216919091179055565b612448610d9c565b15610e54576040805162461bcd60e51b815260206004820152600a60248201527f4552525f41435449564500000000000000000000000000000000000000000000604482015290519081900360640190fd5b6000806124a5612e65565b6000600460009054906101000a90046001600160a01b03166001600160a01b03166318160ddd6040518163ffffffff1660e01b815260040160206040518083038186803b1580156124f557600080fd5b505afa158015612509573d6000803e3d6000fd5b505050506040513d602081101561251f57600080fd5b505160068054919250600091829061253357fe5b6000918252602090912001546001600160a01b0316905081612596576001600160a01b0381166000908152600760205260409020600101546125899063ffffffff908116906116d0908890620f42409061287616565b6000935093505050612699565b60006125b16c42616e636f72466f726d756c6160981b611fa5565b6001600160a01b031663f3250fe2846125c985611ae0565b6001600160a01b0386166000908152600760209081526040918290206001015482517fffffffff0000000000000000000000000000000000000000000000000000000060e088901b1681526004810195909552602485019390935263ffffffff9092166044840152606483018b905251608480840193829003018186803b15801561265357600080fd5b505afa158015612667573d6000803e3d6000fd5b505050506040513d602081101561267d57600080fd5b50519050600061268c82612ebe565b9182900395509093505050505b915091565b6000806126a9612e65565b6000600460009054906101000a90046001600160a01b03166001600160a01b03166318160ddd6040518163ffffffff1660e01b815260040160206040518083038186803b1580156126f957600080fd5b505afa15801561270d573d6000803e3d6000fd5b505050506040513d602081101561272357600080fd5b505160068054919250600091829061273757fe5b6000918252602090912001546001600160a01b031690508185141561275f5761258981611ae0565b600061277a6c42616e636f72466f726d756c6160981b611fa5565b6001600160a01b03166376cf0b56846125c985611ae0565b61279a611edb565b60006127a461141e565b61ffff16116127fa576040805162461bcd60e51b815260206004820152601960248201527f4552525f494e56414c49445f524553455256455f434f554e5400000000000000604482015290519081900360640190fd5b60048054604080517f79ba509700000000000000000000000000000000000000000000000000000000815290516001600160a01b03909216926379ba509792828201926000929082900301818387803b15801561285657600080fd5b505af115801561286a573d6000803e3d6000fd5b50505050610e54612eee565b60008261288557506000611ada565b8282028284828161289257fe5b04146116d6576040805162461bcd60e51b815260206004820152600c60248201526b4552525f4f564552464c4f5760a01b604482015290519081900360640190fd5b600080821161292a576040805162461bcd60e51b815260206004820152601260248201527f4552525f4449564944455f42595f5a45524f0000000000000000000000000000604482015290519081900360640190fd5b600082848161293557fe5b04949350505050565b6000828201838110156116d6576040805162461bcd60e51b815260206004820152600c60248201526b4552525f4f564552464c4f5760a01b604482015290519081900360640190fd5b6000818310156129de576040805162461bcd60e51b815260206004820152600d60248201527f4552525f554e444552464c4f5700000000000000000000000000000000000000604482015290519081900360640190fd5b50900390565b604080516001600160a01b038481166024830152604480830185905283518084039091018152606490920183526020820180517bffffffffffffffffffffffffffffffffffffffffffffffffffffffff167fa9059cbb00000000000000000000000000000000000000000000000000000000178152925182516000946060949389169392918291908083835b60208310612a8f5780518252601f199092019160209182019101612a70565b6001836020036101000a0380198251168184511680821785525050505050509050019150506000604051808303816000865af19150503d8060008114612af1576040519150601f19603f3d011682016040523d82523d6000602084013e612af6565b606091505b5091509150818015612b24575080511580612b245750808060200190516020811015612b2157600080fd5b50515b611200576040805162461bcd60e51b815260206004820152601360248201527f4552525f5452414e534645525f4641494c454400000000000000000000000000604482015290519081900360640190fd5b612b7e81611fa5565b6001600160a01b0316336001600160a01b031614610d99576040805162461bcd60e51b815260206004820152601160248201527011549497d050d0d154d4d7d11153925151607a1b604482015290519081900360640190fd5b600454600090819081906001600160a01b038881169116148015612c1d57506001600160a01b038816600090815260076020526040902060010154600160301b900460ff165b15612c36575086612c2f868686612f2e565b9150612c87565b6004546001600160a01b038981169116148015612c7557506001600160a01b038716600090815260076020526040902060010154600160301b900460ff165b1561151a575085612c2f8686866131cd565b6000600460009054906101000a90046001600160a01b03166001600160a01b03166318160ddd6040518163ffffffff1660e01b815260040160206040518083038186803b158015612cd757600080fd5b505afa158015612ceb573d6000803e3d6000fd5b505050506040513d6020811015612d0157600080fd5b50516001600160a01b0380841660008181526007602052604090206001015460045493945063ffffffff16929091167f77f29993cf2c084e726f7e802da0719d6a0ade3e204badc7a3ffd57ecb768c24612d61620f42406116ca88611ae0565b612d748663ffffffff8088169061287616565b6040805192835260208301919091528051918290030190a3509198975050505050505050565b6001600160a01b038116610d99576040805162461bcd60e51b815260206004820152601360248201527f4552525f494e56414c49445f4144445245535300000000000000000000000000604482015290519081900360640190fd5b60008163ffffffff16118015612e145750620f424063ffffffff821611155b610d99576040805162461bcd60e51b815260206004820152601a60248201527f4552525f494e56414c49445f524553455256455f574549474854000000000000604482015290519081900360640190fd5b612e6d610d9c565b610e54576040805162461bcd60e51b815260206004820152600c60248201527f4552525f494e4143544956450000000000000000000000000000000000000000604482015290519081900360640190fd5b600854600090611ada90620f4240906116d090859068010000000000000000900463ffffffff9081169061287616565b60065460005b8181101561131c57612f2660068281548110612f0c57fe5b6000918252602090912001546001600160a01b0316612132565b600101612ef4565b6000806000612f3c8661249a565b915091508160001415612f96576040805162461bcd60e51b815260206004820152601660248201527f4552525f5a45524f5f5441524745545f414d4f554e5400000000000000000000604482015290519081900360640190fd5b60006006600081548110612fa657fe5b6000918252602090912001546001600160a01b0316905073eeeeeeeeeeeeeeeeeeeeeeeeeeeeeeeeeeeeeeee8114156130325786341461302d576040805162461bcd60e51b815260206004820152601760248201527f4552525f4554485f414d4f554e545f4d49534d41544348000000000000000000604482015290519081900360640190fd5b613114565b341580156130c35750866130c061304883611ae0565b604080516370a0823160e01b815230600482015290516001600160a01b038616916370a08231916024808301926020929190829003018186803b15801561308e57600080fd5b505afa1580156130a2573d6000803e3d6000fd5b505050506040513d60208110156130b857600080fd5b505190612987565b10155b613114576040805162461bcd60e51b815260206004820152601260248201527f4552525f494e56414c49445f414d4f554e540000000000000000000000000000604482015290519081900360640190fd5b61311d81612132565b60048054604080517f867904b40000000000000000000000000000000000000000000000000000000081526001600160a01b0389811694820194909452602481018790529051929091169163867904b49160448082019260009290919082900301818387803b15801561318f57600080fd5b505af11580156131a3573d6000803e3d6000fd5b50506004546131c292508391506001600160a01b0316888a8787613526565b509095945050505050565b60048054604080516370a0823160e01b81523093810193909352516000926001600160a01b03909216916370a08231916024808301926020929190829003018186803b15801561321c57600080fd5b505afa158015613230573d6000803e3d6000fd5b505050506040513d602081101561324657600080fd5b505184111561329c576040805162461bcd60e51b815260206004820152601260248201527f4552525f494e56414c49445f414d4f554e540000000000000000000000000000604482015290519081900360640190fd5b6000806132a88661269e565b915091508160001415613302576040805162461bcd60e51b815260206004820152601660248201527f4552525f5a45524f5f5441524745545f414d4f554e5400000000000000000000604482015290519081900360640190fd5b6000600660008154811061331257fe5b600091825260208083209091015460048054604080517f18160ddd00000000000000000000000000000000000000000000000000000000815290516001600160a01b03948516975091909316936318160ddd938084019391929190829003018186803b15801561338157600080fd5b505afa158015613395573d6000803e3d6000fd5b505050506040513d60208110156133ab57600080fd5b5051905060006133ba83611ae0565b9050808510806133d3575080851480156133d357508189145b6133d957fe5b60048054604080517fa24835d10000000000000000000000000000000000000000000000000000000081523093810193909352602483018c9052516001600160a01b039091169163a24835d191604480830192600092919082900301818387803b15801561344657600080fd5b505af115801561345a573d6000803e3d6000fd5b5050506001600160a01b038416600090815260076020526040902054613481915086612987565b6001600160a01b03841660008181526007602052604090209190915573eeeeeeeeeeeeeeeeeeeeeeeeeeeeeeeeeeeeeeee14156134f4576040516001600160a01b0388169086156108fc029087906000818181858888f193505050501580156134ee573d6000803e3d6000fd5b506134ff565b6134ff8388876129e4565b600454613519906001600160a01b0316848a8c8989613526565b5092979650505050505050565b7f8000000000000000000000000000000000000000000000000000000000000000811061354f57fe5b604080518481526020810184905280820183905290516001600160a01b038087169288821692918a16917f276856b36cbc45526a0ba64f44611557a2a8b68662c5388e9fe6d72e86e1c8cb9181900360600190a4505050505050565b6040805160a0810182526000808252602082018190529181018290526060810182905260808101919091529056fea2646970667358221220f9b03ae28396c63307d997cd0189c0f79126f133fa79e997990fa41edb74df6e64736f6c634300060c0033",
  "linkReferences": {},
  "deployedLinkReferences": {}
}