{
  "_format": "hh-sol-artifact-1",
  "contractName": "ConversionPathFinder",
  "sourceName": "contracts/bancor/ConversionPathFinder.sol",
  "abi": [
    {
      "inputs": [
        {
          "internalType": "contract IContractRegistry",
          "name": "_registry",
          "type": "address"
        }
      ],
      "stateMutability": "nonpayable",
      "type": "constructor"
    },
    {
      "anonymous": false,
      "inputs": [
        {
          "indexed": true,
          "internalType": "address",
          "name": "_prevOwner",
          "type": "address"
        },
        {
          "indexed": true,
          "internalType": "address",
          "name": "_newOwner",
          "type": "address"
        }
      ],
      "name": "OwnerUpdate",
      "type": "event"
    },
    {
      "inputs": [],
      "name": "acceptOwnership",
      "outputs": [],
      "stateMutability": "nonpayable",
      "type": "function"
    },
    {
      "inputs": [],
      "name": "anchorToken",
      "outputs": [
        {
          "internalType": "contract IERC20Token",
          "name": "",
          "type": "address"
        }
      ],
      "stateMutability": "view",
      "type": "function"
    },
    {
      "inputs": [
        {
          "internalType": "contract IERC20Token",
          "name": "_sourceToken",
          "type": "address"
        },
        {
          "internalType": "contract IERC20Token",
          "name": "_targetToken",
          "type": "address"
        }
      ],
      "name": "findPath",
      "outputs": [
        {
          "internalType": "address[]",
          "name": "",
          "type": "address[]"
        }
      ],
      "stateMutability": "view",
      "type": "function"
    },
    {
      "inputs": [],
      "name": "newOwner",
      "outputs": [
        {
          "internalType": "address",
          "name": "",
          "type": "address"
        }
      ],
      "stateMutability": "view",
      "type": "function"
    },
    {
      "inputs": [],
      "name": "onlyOwnerCanUpdateRegistry",
      "outputs": [
        {
          "internalType": "bool",
          "name": "",
          "type": "bool"
        }
      ],
      "stateMutability": "view",
      "type": "function"
    },
    {
      "inputs": [],
      "name": "owner",
      "outputs": [
        {
          "internalType": "address",
          "name": "",
          "type": "address"
        }
      ],
      "stateMutability": "view",
      "type": "function"
    },
    {
      "inputs": [],
      "name": "prevRegistry",
      "outputs": [
        {
          "internalType": "contract IContractRegistry",
          "name": "",
          "type": "address"
        }
      ],
      "stateMutability": "view",
      "type": "function"
    },
    {
      "inputs": [],
      "name": "registry",
      "outputs": [
        {
          "internalType": "contract IContractRegistry",
          "name": "",
          "type": "address"
        }
      ],
      "stateMutability": "view",
      "type": "function"
    },
    {
      "inputs": [],
      "name": "restoreRegistry",
      "outputs": [],
      "stateMutability": "nonpayable",
      "type": "function"
    },
    {
      "inputs": [
        {
          "internalType": "bool",
          "name": "_onlyOwnerCanUpdateRegistry",
          "type": "bool"
        }
      ],
      "name": "restrictRegistryUpdate",
      "outputs": [],
      "stateMutability": "nonpayable",
      "type": "function"
    },
    {
      "inputs": [
        {
          "internalType": "contract IERC20Token",
          "name": "_anchorToken",
          "type": "address"
        }
      ],
      "name": "setAnchorToken",
      "outputs": [],
      "stateMutability": "nonpayable",
      "type": "function"
    },
    {
      "inputs": [
        {
          "internalType": "address",
          "name": "_newOwner",
          "type": "address"
        }
      ],
      "name": "transferOwnership",
      "outputs": [],
      "stateMutability": "nonpayable",
      "type": "function"
    },
    {
      "inputs": [],
      "name": "updateRegistry",
      "outputs": [],
      "stateMutability": "nonpayable",
      "type": "function"
    }
  ],
  "bytecode": "0x608060405234801561001057600080fd5b5060405161113f38038061113f8339818101604052602081101561003357600080fd5b5051600080546001600160a01b03191633179055808061005281610083565b50600280546001600160a01b039092166001600160a01b0319928316811790915560038054909216179055506100e1565b6001600160a01b0381166100de576040805162461bcd60e51b815260206004820152601360248201527f4552525f494e56414c49445f4144445245535300000000000000000000000000604482015290519081900360640190fd5b50565b61104f806100f06000396000f3fe608060405234801561001057600080fd5b50600436106100df5760003560e01c80637b1039991161008c578063b4a176d311610066578063b4a176d314610209578063d4ee1d9014610211578063e1c4c96614610219578063f2fde38b14610221576100df565b80637b1039991461017b5780638da5cb5b14610183578063a1c421cd1461018b576100df565b806349d10b64116100bd57806349d10b641461014757806361cd756e1461014f57806379ba509714610173576100df565b8063024c7ec7146100e45780632f167f05146101055780632fe8a6ad1461012b575b600080fd5b610103600480360360208110156100fa57600080fd5b50351515610247565b005b6101036004803603602081101561011b57600080fd5b50356001600160a01b0316610288565b6101336102b2565b604080519115158252519081900360200190f35b6101036102c2565b6101576104f6565b604080516001600160a01b039092168252519081900360200190f35b610103610505565b6101576105bc565b6101576105cb565b6101b9600480360360408110156101a157600080fd5b506001600160a01b03813581169160200135166105da565b60408051602080825283518183015283519192839290830191858101910280838360005b838110156101f55781810151838201526020016101dd565b505050509050019250505060405180910390f35b61010361063b565b610157610667565b610157610676565b6101036004803603602081101561023757600080fd5b50356001600160a01b0316610685565b61024f610712565b60038054911515600160a01b027fffffffffffffffffffffff00ffffffffffffffffffffffffffffffffffffffff909216919091179055565b610290610712565b600480546001600160a01b0319166001600160a01b0392909216919091179055565b600354600160a01b900460ff1681565b6000546001600160a01b03163314806102e55750600354600160a01b900460ff16155b61032a576040805162461bcd60e51b815260206004820152601160248201527011549497d050d0d154d4d7d11153925151607a1b604482015290519081900360640190fd5b60006103557f436f6e7472616374526567697374727900000000000000000000000000000000610767565b6002549091506001600160a01b0380831691161480159061037e57506001600160a01b03811615155b6103cf576040805162461bcd60e51b815260206004820152601460248201527f4552525f494e56414c49445f5245474953545259000000000000000000000000604482015290519081900360640190fd5b60006001600160a01b0316816001600160a01b031663bb34534c7f436f6e74726163745265676973747279000000000000000000000000000000006040518263ffffffff1660e01b81526004018082815260200191505060206040518083038186803b15801561043e57600080fd5b505afa158015610452573d6000803e3d6000fd5b505050506040513d602081101561046857600080fd5b50516001600160a01b031614156104c6576040805162461bcd60e51b815260206004820152601460248201527f4552525f494e56414c49445f5245474953545259000000000000000000000000604482015290519081900360640190fd5b60028054600380546001600160a01b038084166001600160a01b0319928316179092559091169216919091179055565b6003546001600160a01b031681565b6001546001600160a01b03163314610558576040805162461bcd60e51b815260206004820152601160248201527011549497d050d0d154d4d7d11153925151607a1b604482015290519081900360640190fd5b600154600080546040516001600160a01b0393841693909116917f343765429aea5a34b3ff6a3785a98a5abb2597aca87bfbb58632c173d585373a91a360018054600080546001600160a01b03199081166001600160a01b03841617909155169055565b6002546001600160a01b031681565b6000546001600160a01b031681565b606060006106077f42616e636f72436f6e7665727465725265676973747279000000000000000000610767565b9050606061061585836107fe565b9050606061062385846107fe565b905061062f8282610bed565b93505050505b92915050565b610643610712565b600354600280546001600160a01b0319166001600160a01b03909216919091179055565b6001546001600160a01b031681565b6004546001600160a01b031681565b61068d610712565b6000546001600160a01b03828116911614156106f0576040805162461bcd60e51b815260206004820152600e60248201527f4552525f53414d455f4f574e4552000000000000000000000000000000000000604482015290519081900360640190fd5b600180546001600160a01b0319166001600160a01b0392909216919091179055565b6000546001600160a01b03163314610765576040805162461bcd60e51b815260206004820152601160248201527011549497d050d0d154d4d7d11153925151607a1b604482015290519081900360640190fd5b565b600254604080517fbb34534c0000000000000000000000000000000000000000000000000000000081526004810184905290516000926001600160a01b03169163bb34534c916024808301926020929190829003018186803b1580156107cc57600080fd5b505afa1580156107e0573d6000803e3d6000fd5b505050506040513d60208110156107f657600080fd5b505192915050565b6004546060906001600160a01b03848116911614156108275761082083610e3f565b9050610635565b6060826001600160a01b031663d8cced2a856040518263ffffffff1660e01b815260040180826001600160a01b0316815260200191505060206040518083038186803b15801561087657600080fd5b505afa15801561088a573d6000803e3d6000fd5b505050506040513d60208110156108a057600080fd5b5051156108b7576108b084610e3f565b90506109d0565b826001600160a01b03166311839064856040518263ffffffff1660e01b815260040180826001600160a01b0316815260200191505060006040518083038186803b15801561090457600080fd5b505afa158015610918573d6000803e3d6000fd5b505050506040513d6000823e601f3d908101601f19168201604052602081101561094157600080fd5b810190808051604051939291908464010000000082111561096157600080fd5b90830190602082018581111561097657600080fd5b825186602082028301116401000000008211171561099357600080fd5b82525081516020918201928201910280838360005b838110156109c05781810151838201526020016109a8565b5050505090500160405250505090505b60005b8151811015610bd15760008282815181106109ea57fe5b60200260200101516001600160a01b0316638da5cb5b6040518163ffffffff1660e01b815260040160206040518083038186803b158015610a2a57600080fd5b505afa158015610a3e573d6000803e3d6000fd5b505050506040513d6020811015610a5457600080fd5b5051604080517f71f52bf300000000000000000000000000000000000000000000000000000000815290519192506000916001600160a01b038416916371f52bf3916004808301926020929190829003018186803b158015610ab557600080fd5b505afa158015610ac9573d6000803e3d6000fd5b505050506040513d6020811015610adf57600080fd5b505161ffff16905060005b81811015610bc6576000836001600160a01b03166319b64015836040518263ffffffff1660e01b81526004018082815260200191505060206040518083038186803b158015610b3857600080fd5b505afa158015610b4c573d6000803e3d6000fd5b505050506040513d6020811015610b6257600080fd5b505190506001600160a01b03808216908a1614610bbd576060610b85828a6107fe565b805190915015610bbb57610bad8a888881518110610b9f57fe5b602002602001015183610e91565b975050505050505050610635565b505b50600101610aea565b5050506001016109d3565b5060408051600080825260208201909252905b50949350505050565b606060008351118015610c01575060008251115b15610e2557825182515b600082118015610c1b5750600081115b8015610c645750836001820381518110610c3157fe5b60200260200101516001600160a01b0316856001840381518110610c5157fe5b60200260200101516001600160a01b0316145b15610c76576000199182019101610c0b565b606081830160010167ffffffffffffffff81118015610c9457600080fd5b50604051908082528060200260200182016040528015610cbe578160200160208202803683370190505b50905060005b838111610d0b57868181518110610cd757fe5b6020026020010151828281518110610ceb57fe5b6001600160a01b0390921660209283029190910190910152600101610cc4565b50815b8015610d5b57856001820381518110610d2357fe5b6020026020010151828284510381518110610d3a57fe5b6001600160a01b039092166020928302919091019091015260001901610d0e565b506000805b8251811015610e0f57600281015b60028206845103811015610dc857838181518110610d8857fe5b60200260200101516001600160a01b0316848381518110610da557fe5b60200260200101516001600160a01b03161415610dc0578091505b600201610d6e565b50828181518110610dd557fe5b6020026020010151838380600101945081518110610def57fe5b6001600160a01b0390921660209283029190910190910152600101610d60565b50610e1a8282610f87565b945050505050610635565b60408051600080825260208201909252905b509392505050565b604080516001808252818301909252606091829190602080830190803683370190505090508281600081518110610e7257fe5b6001600160a01b03909216602092830291909101909101529050919050565b606080825160020167ffffffffffffffff81118015610eaf57600080fd5b50604051908082528060200260200182016040528015610ed9578160200160208202803683370190505b5090508481600081518110610eea57fe5b60200260200101906001600160a01b031690816001600160a01b0316815250508381600181518110610f1857fe5b60200260200101906001600160a01b031690816001600160a01b03168152505060005b8351811015610be457838181518110610f5057fe5b6020026020010151828260020181518110610f6757fe5b6001600160a01b0390921660209283029190910190910152600101610f3b565b6060808267ffffffffffffffff81118015610fa157600080fd5b50604051908082528060200260200182016040528015610fcb578160200160208202803683370190505b50905060005b83811015610e3757848181518110610fe557fe5b6020026020010151828281518110610ff957fe5b6001600160a01b0390921660209283029190910190910152600101610fd156fea26469706673582212206feed885c692a56d2ccbc37c3311e16808b74a74f9a970e05d045385267778fa64736f6c634300060c0033",
  "linkReferences": {},
  "deployedLinkReferences": {}
}