{
  "_format": "hh-sol-artifact-1",
  "contractName": "TestNonStandardToken",
  "sourceName": "contracts/bancor/helpers/TestTokens.sol",
  "abi": [
    {
      "inputs": [
        {
          "internalType": "string",
          "name": "_name",
          "type": "string"
        },
        {
          "internalType": "string",
          "name": "_symbol",
          "type": "string"
        },
        {
          "internalType": "uint8",
          "name": "_decimals",
          "type": "uint8"
        },
        {
          "internalType": "uint256",
          "name": "_supply",
          "type": "uint256"
        }
      ],
      "stateMutability": "nonpayable",
      "type": "constructor"
    },
    {
      "anonymous": false,
      "inputs": [
        {
          "indexed": true,
          "internalType": "address",
          "name": "_owner",
          "type": "address"
        },
        {
          "indexed": true,
          "internalType": "address",
          "name": "_spender",
          "type": "address"
        },
        {
          "indexed": false,
          "internalType": "uint256",
          "name": "_value",
          "type": "uint256"
        }
      ],
      "name": "Approval",
      "type": "event"
    },
    {
      "anonymous": false,
      "inputs": [
        {
          "indexed": true,
          "internalType": "address",
          "name": "_from",
          "type": "address"
        },
        {
          "indexed": true,
          "internalType": "address",
          "name": "_to",
          "type": "address"
        },
        {
          "indexed": false,
          "internalType": "uint256",
          "name": "_value",
          "type": "uint256"
        }
      ],
      "name": "Transfer",
      "type": "event"
    },
    {
      "inputs": [
        {
          "internalType": "address",
          "name": "",
          "type": "address"
        },
        {
          "internalType": "address",
          "name": "",
          "type": "address"
        }
      ],
      "name": "allowance",
      "outputs": [
        {
          "internalType": "uint256",
          "name": "",
          "type": "uint256"
        }
      ],
      "stateMutability": "view",
      "type": "function"
    },
    {
      "inputs": [
        {
          "internalType": "address",
          "name": "_spender",
          "type": "address"
        },
        {
          "internalType": "uint256",
          "name": "_value",
          "type": "uint256"
        }
      ],
      "name": "approve",
      "outputs": [],
      "stateMutability": "nonpayable",
      "type": "function"
    },
    {
      "inputs": [
        {
          "internalType": "address",
          "name": "",
          "type": "address"
        }
      ],
      "name": "balanceOf",
      "outputs": [
        {
          "internalType": "uint256",
          "name": "",
          "type": "uint256"
        }
      ],
      "stateMutability": "view",
      "type": "function"
    },
    {
      "inputs": [],
      "name": "decimals",
      "outputs": [
        {
          "internalType": "uint8",
          "name": "",
          "type": "uint8"
        }
      ],
      "stateMutability": "view",
      "type": "function"
    },
    {
      "inputs": [],
      "name": "name",
      "outputs": [
        {
          "internalType": "string",
          "name": "",
          "type": "string"
        }
      ],
      "stateMutability": "view",
      "type": "function"
    },
    {
      "inputs": [],
      "name": "ok",
      "outputs": [
        {
          "internalType": "bool",
          "name": "",
          "type": "bool"
        }
      ],
      "stateMutability": "view",
      "type": "function"
    },
    {
      "inputs": [
        {
          "internalType": "bool",
          "name": "_ok",
          "type": "bool"
        }
      ],
      "name": "set",
      "outputs": [],
      "stateMutability": "nonpayable",
      "type": "function"
    },
    {
      "inputs": [],
      "name": "symbol",
      "outputs": [
        {
          "internalType": "string",
          "name": "",
          "type": "string"
        }
      ],
      "stateMutability": "view",
      "type": "function"
    },
    {
      "inputs": [],
      "name": "totalSupply",
      "outputs": [
        {
          "internalType": "uint256",
          "name": "",
          "type": "uint256"
        }
      ],
      "stateMutability": "view",
      "type": "function"
    },
    {
      "inputs": [
        {
          "internalType": "address",
          "name": "_to",
          "type": "address"
        },
        {
          "internalType": "uint256",
          "name": "_value",
          "type": "uint256"
        }
      ],
      "name": "transfer",
      "outputs": [],
      "stateMutability": "nonpayable",
      "type": "function"
    },
    {
      "inputs": [
        {
          "internalType": "address",
          "name": "_from",
          "type": "address"
        },
        {
          "internalType": "address",
          "name": "_to",
          "type": "address"
        },
        {
          "internalType": "uint256",
          "name": "_value",
          "type": "uint256"
        }
      ],
      "name": "transferFrom",
      "outputs": [],
      "stateMutability": "nonpayable",
      "type": "function"
    }
  ],
  "bytecode": "0x608060405234801561001057600080fd5b50604051610ab9380380610ab98339818101604052608081101561003357600080fd5b810190808051604051939291908464010000000082111561005357600080fd5b90830190602082018581111561006857600080fd5b825164010000000081118282018810171561008257600080fd5b82525081516020918201929091019080838360005b838110156100af578181015183820152602001610097565b50505050905090810190601f1680156100dc5780820380516001836020036101000a031916815260200191505b50604052602001805160405193929190846401000000008211156100ff57600080fd5b90830190602082018581111561011457600080fd5b825164010000000081118282018810171561012e57600080fd5b82525081516020918201929091019080838360005b8381101561015b578181015183820152602001610143565b50505050905090810190601f1680156101885780820380516001836020036101000a031916815260200191505b5060409081526020828101519282015160008181553381526001835292909220829055865192945090925085918591859185916101ca91600391870190610224565b5082516101de906004906020860190610224565b50506005805460ff191660ff92909216919091179055506102019050600161020a565b505050506102b7565b600580549115156101000261ff0019909216919091179055565b828054600181600116156101000203166002900490600052602060002090601f016020900481019282601f1061026557805160ff1916838001178555610292565b82800160010185558215610292579182015b82811115610292578251825591602001919060010190610277565b5061029e9291506102a2565b5090565b5b8082111561029e57600081556001016102a3565b6107f3806102c66000396000f3fe608060405234801561001057600080fd5b50600436106100c95760003560e01c80635f76f6ab11610081578063a9059cbb1161005b578063a9059cbb14610234578063d909b40314610260578063dd62ed3e1461027c576100c9565b80635f76f6ab146101e757806370a082311461020657806395d89b411461022c576100c9565b806318160ddd116100b257806318160ddd1461017957806323b872dd14610193578063313ce567146101c9576100c9565b806306fdde03146100ce578063095ea7b31461014b575b600080fd5b6100d66102aa565b6040805160208082528351818301528351919283929083019185019080838360005b838110156101105781810151838201526020016100f8565b50505050905090810190601f16801561013d5780820380516001836020036101000a031916815260200191505b509250505060405180910390f35b6101776004803603604081101561016157600080fd5b506001600160a01b038135169060200135610338565b005b61018161035a565b60408051918252519081900360200190f35b610177600480360360608110156101a957600080fd5b506001600160a01b03813581169160208101359091169060400135610360565b6101d1610384565b6040805160ff9092168252519081900360200190f35b610177600480360360208110156101fd57600080fd5b5035151561038d565b6101816004803603602081101561021c57600080fd5b50356001600160a01b03166103a7565b6100d66103b9565b6101776004803603604081101561024a57600080fd5b506001600160a01b038135169060200135610414565b61026861041e565b604080519115158252519081900360200190f35b6101816004803603604081101561029257600080fd5b506001600160a01b038135811691602001351661042c565b6003805460408051602060026001851615610100026000190190941693909304601f810184900484028201840190925281815292918301828280156103305780601f1061030557610100808354040283529160200191610330565b820191906000526020600020905b81548152906001019060200180831161031357829003601f168201915b505050505081565b6103428282610449565b600554610100900460ff1661035657600080fd5b5050565b60005481565b61036b8383836104ed565b600554610100900460ff1661037f57600080fd5b505050565b60055460ff1681565b600580549115156101000261ff0019909216919091179055565b60016020526000908152604090205481565b6004805460408051602060026001851615610100026000190190941693909304601f810184900484028201840190925281815292918301828280156103305780601f1061030557610100808354040283529160200191610330565b61034282826105f7565b600554610100900460ff1681565b600260209081526000928352604080842090915290825290205481565b81610453816106a1565b81158061048157503360009081526002602090815260408083206001600160a01b0387168452909152902054155b61048a57600080fd5b3360008181526002602090815260408083206001600160a01b03881680855290835292819020869055805186815290519293927f8c5be1e5ebec7d5bd14f71427d1e84f3dd0314c0f7b2291e5b200ac8c7c3b925929181900390910190a3505050565b826104f7816106a1565b82610501816106a1565b6001600160a01b038516600090815260026020908152604080832033845290915290205461052f90846106ff565b6001600160a01b03861660008181526002602090815260408083203384528252808320949094559181526001909152205461056a90846106ff565b6001600160a01b038087166000908152600160205260408082209390935590861681522054610599908461075c565b6001600160a01b0380861660008181526001602090815260409182902094909455805187815290519193928916927fddf252ad1be2c89b69c2b068fc378daa952ba7f163c4a11628f55a4df523b3ef92918290030190a35050505050565b81610601816106a1565b3360009081526001602052604090205461061b90836106ff565b33600090815260016020526040808220929092556001600160a01b03851681522054610647908361075c565b6001600160a01b0384166000818152600160209081526040918290209390935580518581529051919233927fddf252ad1be2c89b69c2b068fc378daa952ba7f163c4a11628f55a4df523b3ef9281900390910190a3505050565b6001600160a01b0381166106fc576040805162461bcd60e51b815260206004820152601360248201527f4552525f494e56414c49445f4144445245535300000000000000000000000000604482015290519081900360640190fd5b50565b600081831015610756576040805162461bcd60e51b815260206004820152600d60248201527f4552525f554e444552464c4f5700000000000000000000000000000000000000604482015290519081900360640190fd5b50900390565b6000828201838110156107b6576040805162461bcd60e51b815260206004820152600c60248201527f4552525f4f564552464c4f570000000000000000000000000000000000000000604482015290519081900360640190fd5b939250505056fea2646970667358221220c7f6cddc3902994f6c40d807bb5c1d48f8fb18ed612ef5ef0e843a34e5a9633e64736f6c634300060c0033",
  "linkReferences": {},
  "deployedLinkReferences": {}
}