{
  "_format": "hh-sol-artifact-1",
  "contractName": "ContractRegistryClientProxyable",
  "sourceName": "contracts/bancor/utility/ContractRegistryClientProxyable.sol",
  "abi": [
    {
      "anonymous": false,
      "inputs": [
        {
          "indexed": true,
          "internalType": "address",
          "name": "_prevOwner",
          "type": "address"
        },
        {
          "indexed": true,
          "internalType": "address",
          "name": "_newOwner",
          "type": "address"
        }
      ],
      "name": "OwnerUpdate",
      "type": "event"
    },
    {
      "inputs": [],
      "name": "acceptOwnership",
      "outputs": [],
      "stateMutability": "nonpayable",
      "type": "function"
    },
    {
      "inputs": [],
      "name": "newOwner",
      "outputs": [
        {
          "internalType": "address",
          "name": "",
          "type": "address"
        }
      ],
      "stateMutability": "view",
      "type": "function"
    },
    {
      "inputs": [],
      "name": "onlyOwnerCanUpdateRegistry",
      "outputs": [
        {
          "internalType": "bool",
          "name": "",
          "type": "bool"
        }
      ],
      "stateMutability": "view",
      "type": "function"
    },
    {
      "inputs": [],
      "name": "owner",
      "outputs": [
        {
          "internalType": "address",
          "name": "",
          "type": "address"
        }
      ],
      "stateMutability": "view",
      "type": "function"
    },
    {
      "inputs": [],
      "name": "prevRegistry",
      "outputs": [
        {
          "internalType": "contract IContractRegistry",
          "name": "",
          "type": "address"
        }
      ],
      "stateMutability": "view",
      "type": "function"
    },
    {
      "inputs": [],
      "name": "registry",
      "outputs": [
        {
          "internalType": "contract IContractRegistry",
          "name": "",
          "type": "address"
        }
      ],
      "stateMutability": "view",
      "type": "function"
    },
    {
      "inputs": [],
      "name": "restoreRegistry",
      "outputs": [],
      "stateMutability": "nonpayable",
      "type": "function"
    },
    {
      "inputs": [
        {
          "internalType": "bool",
          "name": "_onlyOwnerCanUpdateRegistry",
          "type": "bool"
        }
      ],
      "name": "restrictRegistryUpdate",
      "outputs": [],
      "stateMutability": "nonpayable",
      "type": "function"
    },
    {
      "inputs": [
        {
          "internalType": "address",
          "name": "_newOwner",
          "type": "address"
        }
      ],
      "name": "transferOwnership",
      "outputs": [],
      "stateMutability": "nonpayable",
      "type": "function"
    },
    {
      "inputs": [],
      "name": "updateRegistry",
      "outputs": [],
      "stateMutability": "nonpayable",
      "type": "function"
    }
  ],
  "bytecode": "0x608060405234801561001057600080fd5b50610743806100206000396000f3fe608060405234801561001057600080fd5b50600436106100be5760003560e01c80637b10399911610076578063b4a176d31161005b578063b4a176d314610144578063d4ee1d901461014c578063f2fde38b14610154576100be565b80637b103999146101345780638da5cb5b1461013c576100be565b806349d10b64116100a757806349d10b641461010057806361cd756e1461010857806379ba50971461012c576100be565b8063024c7ec7146100c35780632fe8a6ad146100e4575b600080fd5b6100e2600480360360208110156100d957600080fd5b5035151561017a565b005b6100ec6101bb565b604080519115158252519081900360200190f35b6100e26101cb565b610110610412565b604080516001600160a01b039092168252519081900360200190f35b6100e2610421565b61011061050f565b61011061051e565b6100e2610533565b61011061056c565b6100e26004803603602081101561016a57600080fd5b50356001600160a01b031661057b565b61018261061b565b60038054911515600160a01b027fffffffffffffffffffffff00ffffffffffffffffffffffffffffffffffffffff909216919091179055565b600354600160a01b900460ff1681565b6000546201000090046001600160a01b03163314806101f45750600354600160a01b900460ff16155b610239576040805162461bcd60e51b815260206004820152601160248201527011549497d050d0d154d4d7d11153925151607a1b604482015290519081900360640190fd5b60006102647f436f6e7472616374526567697374727900000000000000000000000000000000610676565b6002549091506001600160a01b0380831691161480159061028d57506001600160a01b03811615155b6102de576040805162461bcd60e51b815260206004820152601460248201527f4552525f494e56414c49445f5245474953545259000000000000000000000000604482015290519081900360640190fd5b60006001600160a01b0316816001600160a01b031663bb34534c7f436f6e74726163745265676973747279000000000000000000000000000000006040518263ffffffff1660e01b81526004018082815260200191505060206040518083038186803b15801561034d57600080fd5b505afa158015610361573d6000803e3d6000fd5b505050506040513d602081101561037757600080fd5b50516001600160a01b031614156103d5576040805162461bcd60e51b815260206004820152601460248201527f4552525f494e56414c49445f5245474953545259000000000000000000000000604482015290519081900360640190fd5b60028054600380546001600160a01b0380841673ffffffffffffffffffffffffffffffffffffffff19928316179092559091169216919091179055565b6003546001600160a01b031681565b6001546001600160a01b03163314610474576040805162461bcd60e51b815260206004820152601160248201527011549497d050d0d154d4d7d11153925151607a1b604482015290519081900360640190fd5b600154600080546040516001600160a01b039384169362010000909204909116917f343765429aea5a34b3ff6a3785a98a5abb2597aca87bfbb58632c173d585373a91a360018054600080547fffffffffffffffffffff0000000000000000000000000000000000000000ffff166001600160a01b038316620100000217905573ffffffffffffffffffffffffffffffffffffffff19169055565b6002546001600160a01b031681565b6000546201000090046001600160a01b031681565b61053b61061b565b6003546002805473ffffffffffffffffffffffffffffffffffffffff19166001600160a01b03909216919091179055565b6001546001600160a01b031681565b61058361061b565b6000546001600160a01b03828116620100009092041614156105ec576040805162461bcd60e51b815260206004820152600e60248201527f4552525f53414d455f4f574e4552000000000000000000000000000000000000604482015290519081900360640190fd5b6001805473ffffffffffffffffffffffffffffffffffffffff19166001600160a01b0392909216919091179055565b6000546201000090046001600160a01b03163314610674576040805162461bcd60e51b815260206004820152601160248201527011549497d050d0d154d4d7d11153925151607a1b604482015290519081900360640190fd5b565b600254604080517fbb34534c0000000000000000000000000000000000000000000000000000000081526004810184905290516000926001600160a01b03169163bb34534c916024808301926020929190829003018186803b1580156106db57600080fd5b505afa1580156106ef573d6000803e3d6000fd5b505050506040513d602081101561070557600080fd5b50519291505056fea2646970667358221220d2ba372aee68f068db060ac929ce6723bb39995fe89229db6d4a3892582146be64736f6c634300060c0033",
  "linkReferences": {},
  "deployedLinkReferences": {}
}