{
  "_format": "hh-sol-artifact-1",
  "contractName": "TestReentrancyGuardAttacker",
  "sourceName": "contracts/bancor/helpers/TestReentrancyGuard.sol",
  "abi": [
    {
      "inputs": [
        {
          "internalType": "contract TestReentrancyGuard",
          "name": "_target",
          "type": "address"
        }
      ],
      "stateMutability": "nonpayable",
      "type": "constructor"
    },
    {
      "inputs": [],
      "name": "attacking",
      "outputs": [
        {
          "internalType": "bool",
          "name": "",
          "type": "bool"
        }
      ],
      "stateMutability": "view",
      "type": "function"
    },
    {
      "inputs": [],
      "name": "callProtectedMethod",
      "outputs": [
        {
          "internalType": "bool",
          "name": "",
          "type": "bool"
        }
      ],
      "stateMutability": "view",
      "type": "function"
    },
    {
      "inputs": [],
      "name": "callback",
      "outputs": [],
      "stateMutability": "nonpayable",
      "type": "function"
    },
    {
      "inputs": [],
      "name": "reentrancy",
      "outputs": [
        {
          "internalType": "bool",
          "name": "",
          "type": "bool"
        }
      ],
      "stateMutability": "view",
      "type": "function"
    },
    {
      "inputs": [],
      "name": "run",
      "outputs": [],
      "stateMutability": "nonpayable",
      "type": "function"
    },
    {
      "inputs": [
        {
          "internalType": "bool",
          "name": "_callProtectedMethod",
          "type": "bool"
        }
      ],
      "name": "setCallProtectedMethod",
      "outputs": [],
      "stateMutability": "nonpayable",
      "type": "function"
    },
    {
      "inputs": [
        {
          "internalType": "bool",
          "name": "_reentrancy",
          "type": "bool"
        }
      ],
      "name": "setReentrancy",
      "outputs": [],
      "stateMutability": "nonpayable",
      "type": "function"
    },
    {
      "inputs": [],
      "name": "target",
      "outputs": [
        {
          "internalType": "contract TestReentrancyGuard",
          "name": "",
          "type": "address"
        }
      ],
      "stateMutability": "view",
      "type": "function"
    }
  ],
  "bytecode": "0x608060405234801561001057600080fd5b506040516103fb3803806103fb8339818101604052602081101561003357600080fd5b5051600080546001600160a01b039092166001600160a01b0319909216919091179055610396806100656000396000f3fe608060405234801561001057600080fd5b50600436106100885760003560e01c806399563f101161005b57806399563f10146100da578063c0406226146100f9578063d4b8399214610101578063e11f493e1461013257610088565b8063083b27321461008d57806317846e3914610097578063322d5010146100b35780633c0bbcd9146100d2575b600080fd5b61009561013a565b005b61009f61018c565b604080519115158252519081900360200190f35b610095600480360360208110156100c957600080fd5b5035151561019c565b61009f6101d5565b610095600480360360208110156100f057600080fd5b503515156101e5565b61009561021e565b610109610334565b6040805173ffffffffffffffffffffffffffffffffffffffff9092168252519081900360200190f35b61009f610350565b600054600160a01b900460ff166101505761018a565b600054600160b01b900460ff1661017c576000805460ff60b01b1916600160b01b17905561017c61021e565b6000805460ff60b01b191690555b565b600054600160a81b900460ff1681565b60008054911515600160a01b027fffffffffffffffffffffff00ffffffffffffffffffffffffffffffffffffffff909216919091179055565b600054600160b01b900460ff1681565b60008054911515600160a81b027fffffffffffffffffffff00ffffffffffffffffffffffffffffffffffffffffff909216919091179055565b600054600160a81b900460ff166102b35760008054604080517ff86485d9000000000000000000000000000000000000000000000000000000008152905173ffffffffffffffffffffffffffffffffffffffff9092169263f86485d99260048084019382900301818387803b15801561029657600080fd5b505af11580156102aa573d6000803e3d6000fd5b5050505061018a565b60008054604080517f2d4d800c000000000000000000000000000000000000000000000000000000008152905173ffffffffffffffffffffffffffffffffffffffff90921692632d4d800c9260048084019382900301818387803b15801561031a57600080fd5b505af115801561032e573d6000803e3d6000fd5b50505050565b60005473ffffffffffffffffffffffffffffffffffffffff1681565b600054600160a01b900460ff168156fea2646970667358221220c5de86675120f08386315637aa38686a7a4cdcf4762baaa34a4dfe622fb80a4264736f6c634300060c0033",
  "linkReferences": {},
  "deployedLinkReferences": {}
}