{
  "_format": "hh-sol-artifact-1",
  "contractName": "TestReentrancyGuard",
  "sourceName": "contracts/bancor/helpers/TestReentrancyGuard.sol",
  "abi": [
    {
      "inputs": [],
      "name": "calls",
      "outputs": [
        {
          "internalType": "uint256",
          "name": "",
          "type": "uint256"
        }
      ],
      "stateMutability": "view",
      "type": "function"
    },
    {
      "inputs": [],
      "name": "protectedMethod",
      "outputs": [],
      "stateMutability": "nonpayable",
      "type": "function"
    },
    {
      "inputs": [],
      "name": "unprotectedMethod",
      "outputs": [],
      "stateMutability": "nonpayable",
      "type": "function"
    }
  ],
  "bytecode": "0x60806040526000805460ff1916905534801561001a57600080fd5b506101848061002a6000396000f3fe608060405234801561001057600080fd5b50600436106100415760003560e01c80632d4d800c14610046578063305f72b714610050578063f86485d91461006a575b600080fd5b61004e610072565b005b61005861009b565b60408051918252519081900360200190f35b61004e6100a1565b61007a6100ab565b6000805460ff1916600117905561008f6100f4565b6000805460ff19169055565b60015481565b6100a96100f4565b565b60005460ff16156100a9576040805162461bcd60e51b815260206004820152600e60248201526d4552525f5245454e5452414e435960901b604482015290519081900360640190fd5b60018054810190556040805163041d939960e11b81529051339163083b273291600480830192600092919082900301818387803b15801561013457600080fd5b505af1158015610148573d6000803e3d6000fd5b5050505056fea26469706673582212202715d2745a734b376d78440be4229eef2726804963276bb64bee6d1aef3e4e7c64736f6c634300060c0033",
  "linkReferences": {},
  "deployedLinkReferences": {}
}