{
  "_format": "hh-sol-artifact-1",
  "contractName": "BancorX",
  "sourceName": "contracts/bancor/bancorx/BancorX.sol",
  "abi": [
    {
      "inputs": [
        {
          "internalType": "uint256",
          "name": "_maxLockLimit",
          "type": "uint256"
        },
        {
          "internalType": "uint256",
          "name": "_maxReleaseLimit",
          "type": "uint256"
        },
        {
          "internalType": "uint256",
          "name": "_minLimit",
          "type": "uint256"
        },
        {
          "internalType": "uint256",
          "name": "_limitIncPerBlock",
          "type": "uint256"
        },
        {
          "internalType": "uint8",
          "name": "_minRequiredReports",
          "type": "uint8"
        },
        {
          "internalType": "contract IContractRegistry",
          "name": "_registry",
          "type": "address"
        },
        {
          "internalType": "contract IERC20Token",
          "name": "_token",
          "type": "address"
        }
      ],
      "stateMutability": "nonpayable",
      "type": "constructor"
    },
    {
      "anonymous": false,
      "inputs": [
        {
          "indexed": true,
          "internalType": "address",
          "name": "_prevOwner",
          "type": "address"
        },
        {
          "indexed": true,
          "internalType": "address",
          "name": "_newOwner",
          "type": "address"
        }
      ],
      "name": "OwnerUpdate",
      "type": "event"
    },
    {
      "anonymous": false,
      "inputs": [
        {
          "indexed": true,
          "internalType": "address",
          "name": "_from",
          "type": "address"
        },
        {
          "indexed": false,
          "internalType": "uint256",
          "name": "_amount",
          "type": "uint256"
        }
      ],
      "name": "TokensLock",
      "type": "event"
    },
    {
      "anonymous": false,
      "inputs": [
        {
          "indexed": true,
          "internalType": "address",
          "name": "_to",
          "type": "address"
        },
        {
          "indexed": false,
          "internalType": "uint256",
          "name": "_amount",
          "type": "uint256"
        }
      ],
      "name": "TokensRelease",
      "type": "event"
    },
    {
      "anonymous": false,
      "inputs": [
        {
          "indexed": true,
          "internalType": "address",
          "name": "_reporter",
          "type": "address"
        },
        {
          "indexed": false,
          "internalType": "bytes32",
          "name": "_fromBlockchain",
          "type": "bytes32"
        },
        {
          "indexed": false,
          "internalType": "uint256",
          "name": "_txId",
          "type": "uint256"
        },
        {
          "indexed": false,
          "internalType": "address",
          "name": "_to",
          "type": "address"
        },
        {
          "indexed": false,
          "internalType": "uint256",
          "name": "_amount",
          "type": "uint256"
        },
        {
          "indexed": false,
          "internalType": "uint256",
          "name": "_xTransferId",
          "type": "uint256"
        }
      ],
      "name": "TxReport",
      "type": "event"
    },
    {
      "anonymous": false,
      "inputs": [
        {
          "indexed": true,
          "internalType": "address",
          "name": "_from",
          "type": "address"
        },
        {
          "indexed": false,
          "internalType": "bytes32",
          "name": "_toBlockchain",
          "type": "bytes32"
        },
        {
          "indexed": true,
          "internalType": "bytes32",
          "name": "_to",
          "type": "bytes32"
        },
        {
          "indexed": false,
          "internalType": "uint256",
          "name": "_amount",
          "type": "uint256"
        },
        {
          "indexed": false,
          "internalType": "uint256",
          "name": "_id",
          "type": "uint256"
        }
      ],
      "name": "XTransfer",
      "type": "event"
    },
    {
      "anonymous": false,
      "inputs": [
        {
          "indexed": false,
          "internalType": "address",
          "name": "_to",
          "type": "address"
        },
        {
          "indexed": false,
          "internalType": "uint256",
          "name": "_id",
          "type": "uint256"
        }
      ],
      "name": "XTransferComplete",
      "type": "event"
    },
    {
      "inputs": [],
      "name": "acceptOwnership",
      "outputs": [],
      "stateMutability": "nonpayable",
      "type": "function"
    },
    {
      "inputs": [
        {
          "internalType": "bool",
          "name": "_enable",
          "type": "bool"
        }
      ],
      "name": "enableReporting",
      "outputs": [],
      "stateMutability": "nonpayable",
      "type": "function"
    },
    {
      "inputs": [
        {
          "internalType": "bool",
          "name": "_enable",
          "type": "bool"
        }
      ],
      "name": "enableXTransfers",
      "outputs": [],
      "stateMutability": "nonpayable",
      "type": "function"
    },
    {
      "inputs": [],
      "name": "getCurrentLockLimit",
      "outputs": [
        {
          "internalType": "uint256",
          "name": "",
          "type": "uint256"
        }
      ],
      "stateMutability": "view",
      "type": "function"
    },
    {
      "inputs": [],
      "name": "getCurrentReleaseLimit",
      "outputs": [
        {
          "internalType": "uint256",
          "name": "",
          "type": "uint256"
        }
      ],
      "stateMutability": "view",
      "type": "function"
    },
    {
      "inputs": [
        {
          "internalType": "uint256",
          "name": "_xTransferId",
          "type": "uint256"
        },
        {
          "internalType": "address",
          "name": "_for",
          "type": "address"
        }
      ],
      "name": "getXTransferAmount",
      "outputs": [
        {
          "internalType": "uint256",
          "name": "",
          "type": "uint256"
        }
      ],
      "stateMutability": "view",
      "type": "function"
    },
    {
      "inputs": [],
      "name": "limitIncPerBlock",
      "outputs": [
        {
          "internalType": "uint256",
          "name": "",
          "type": "uint256"
        }
      ],
      "stateMutability": "view",
      "type": "function"
    },
    {
      "inputs": [],
      "name": "maxLockLimit",
      "outputs": [
        {
          "internalType": "uint256",
          "name": "",
          "type": "uint256"
        }
      ],
      "stateMutability": "view",
      "type": "function"
    },
    {
      "inputs": [],
      "name": "maxReleaseLimit",
      "outputs": [
        {
          "internalType": "uint256",
          "name": "",
          "type": "uint256"
        }
      ],
      "stateMutability": "view",
      "type": "function"
    },
    {
      "inputs": [],
      "name": "minLimit",
      "outputs": [
        {
          "internalType": "uint256",
          "name": "",
          "type": "uint256"
        }
      ],
      "stateMutability": "view",
      "type": "function"
    },
    {
      "inputs": [],
      "name": "minRequiredReports",
      "outputs": [
        {
          "internalType": "uint8",
          "name": "",
          "type": "uint8"
        }
      ],
      "stateMutability": "view",
      "type": "function"
    },
    {
      "inputs": [],
      "name": "newOwner",
      "outputs": [
        {
          "internalType": "address",
          "name": "",
          "type": "address"
        }
      ],
      "stateMutability": "view",
      "type": "function"
    },
    {
      "inputs": [],
      "name": "onlyOwnerCanUpdateRegistry",
      "outputs": [
        {
          "internalType": "bool",
          "name": "",
          "type": "bool"
        }
      ],
      "stateMutability": "view",
      "type": "function"
    },
    {
      "inputs": [],
      "name": "owner",
      "outputs": [
        {
          "internalType": "address",
          "name": "",
          "type": "address"
        }
      ],
      "stateMutability": "view",
      "type": "function"
    },
    {
      "inputs": [],
      "name": "prevLockBlockNumber",
      "outputs": [
        {
          "internalType": "uint256",
          "name": "",
          "type": "uint256"
        }
      ],
      "stateMutability": "view",
      "type": "function"
    },
    {
      "inputs": [],
      "name": "prevLockLimit",
      "outputs": [
        {
          "internalType": "uint256",
          "name": "",
          "type": "uint256"
        }
      ],
      "stateMutability": "view",
      "type": "function"
    },
    {
      "inputs": [],
      "name": "prevRegistry",
      "outputs": [
        {
          "internalType": "contract IContractRegistry",
          "name": "",
          "type": "address"
        }
      ],
      "stateMutability": "view",
      "type": "function"
    },
    {
      "inputs": [],
      "name": "prevReleaseBlockNumber",
      "outputs": [
        {
          "internalType": "uint256",
          "name": "",
          "type": "uint256"
        }
      ],
      "stateMutability": "view",
      "type": "function"
    },
    {
      "inputs": [],
      "name": "prevReleaseLimit",
      "outputs": [
        {
          "internalType": "uint256",
          "name": "",
          "type": "uint256"
        }
      ],
      "stateMutability": "view",
      "type": "function"
    },
    {
      "inputs": [],
      "name": "registry",
      "outputs": [
        {
          "internalType": "contract IContractRegistry",
          "name": "",
          "type": "address"
        }
      ],
      "stateMutability": "view",
      "type": "function"
    },
    {
      "inputs": [
        {
          "internalType": "bytes32",
          "name": "_fromBlockchain",
          "type": "bytes32"
        },
        {
          "internalType": "uint256",
          "name": "_txId",
          "type": "uint256"
        },
        {
          "internalType": "address",
          "name": "_to",
          "type": "address"
        },
        {
          "internalType": "uint256",
          "name": "_amount",
          "type": "uint256"
        },
        {
          "internalType": "uint256",
          "name": "_xTransferId",
          "type": "uint256"
        }
      ],
      "name": "reportTx",
      "outputs": [],
      "stateMutability": "nonpayable",
      "type": "function"
    },
    {
      "inputs": [
        {
          "internalType": "uint256",
          "name": "",
          "type": "uint256"
        },
        {
          "internalType": "address",
          "name": "",
          "type": "address"
        }
      ],
      "name": "reportedTxs",
      "outputs": [
        {
          "internalType": "bool",
          "name": "",
          "type": "bool"
        }
      ],
      "stateMutability": "view",
      "type": "function"
    },
    {
      "inputs": [
        {
          "internalType": "address",
          "name": "",
          "type": "address"
        }
      ],
      "name": "reporters",
      "outputs": [
        {
          "internalType": "bool",
          "name": "",
          "type": "bool"
        }
      ],
      "stateMutability": "view",
      "type": "function"
    },
    {
      "inputs": [],
      "name": "reportingEnabled",
      "outputs": [
        {
          "internalType": "bool",
          "name": "",
          "type": "bool"
        }
      ],
      "stateMutability": "view",
      "type": "function"
    },
    {
      "inputs": [],
      "name": "restoreRegistry",
      "outputs": [],
      "stateMutability": "nonpayable",
      "type": "function"
    },
    {
      "inputs": [
        {
          "internalType": "bool",
          "name": "_onlyOwnerCanUpdateRegistry",
          "type": "bool"
        }
      ],
      "name": "restrictRegistryUpdate",
      "outputs": [],
      "stateMutability": "nonpayable",
      "type": "function"
    },
    {
      "inputs": [
        {
          "internalType": "uint256",
          "name": "_limitIncPerBlock",
          "type": "uint256"
        }
      ],
      "name": "setLimitIncPerBlock",
      "outputs": [],
      "stateMutability": "nonpayable",
      "type": "function"
    },
    {
      "inputs": [
        {
          "internalType": "uint256",
          "name": "_maxLockLimit",
          "type": "uint256"
        }
      ],
      "name": "setMaxLockLimit",
      "outputs": [],
      "stateMutability": "nonpayable",
      "type": "function"
    },
    {
      "inputs": [
        {
          "internalType": "uint256",
          "name": "_maxReleaseLimit",
          "type": "uint256"
        }
      ],
      "name": "setMaxReleaseLimit",
      "outputs": [],
      "stateMutability": "nonpayable",
      "type": "function"
    },
    {
      "inputs": [
        {
          "internalType": "uint256",
          "name": "_minLimit",
          "type": "uint256"
        }
      ],
      "name": "setMinLimit",
      "outputs": [],
      "stateMutability": "nonpayable",
      "type": "function"
    },
    {
      "inputs": [
        {
          "internalType": "uint8",
          "name": "_minRequiredReports",
          "type": "uint8"
        }
      ],
      "name": "setMinRequiredReports",
      "outputs": [],
      "stateMutability": "nonpayable",
      "type": "function"
    },
    {
      "inputs": [
        {
          "internalType": "address",
          "name": "_reporter",
          "type": "address"
        },
        {
          "internalType": "bool",
          "name": "_active",
          "type": "bool"
        }
      ],
      "name": "setReporter",
      "outputs": [],
      "stateMutability": "nonpayable",
      "type": "function"
    },
    {
      "inputs": [],
      "name": "token",
      "outputs": [
        {
          "internalType": "contract IERC20Token",
          "name": "",
          "type": "address"
        }
      ],
      "stateMutability": "view",
      "type": "function"
    },
    {
      "inputs": [
        {
          "internalType": "uint256",
          "name": "",
          "type": "uint256"
        }
      ],
      "name": "transactionIds",
      "outputs": [
        {
          "internalType": "uint256",
          "name": "",
          "type": "uint256"
        }
      ],
      "stateMutability": "view",
      "type": "function"
    },
    {
      "inputs": [
        {
          "internalType": "uint256",
          "name": "",
          "type": "uint256"
        }
      ],
      "name": "transactions",
      "outputs": [
        {
          "internalType": "uint256",
          "name": "amount",
          "type": "uint256"
        },
        {
          "internalType": "bytes32",
          "name": "fromBlockchain",
          "type": "bytes32"
        },
        {
          "internalType": "address",
          "name": "to",
          "type": "address"
        },
        {
          "internalType": "uint8",
          "name": "numOfReports",
          "type": "uint8"
        },
        {
          "internalType": "bool",
          "name": "completed",
          "type": "bool"
        }
      ],
      "stateMutability": "view",
      "type": "function"
    },
    {
      "inputs": [
        {
          "internalType": "address",
          "name": "_newOwner",
          "type": "address"
        }
      ],
      "name": "transferOwnership",
      "outputs": [],
      "stateMutability": "nonpayable",
      "type": "function"
    },
    {
      "inputs": [],
      "name": "updateRegistry",
      "outputs": [],
      "stateMutability": "nonpayable",
      "type": "function"
    },
    {
      "inputs": [
        {
          "internalType": "address[]",
          "name": "_reporters",
          "type": "address[]"
        }
      ],
      "name": "upgrade",
      "outputs": [],
      "stateMutability": "nonpayable",
      "type": "function"
    },
    {
      "inputs": [],
      "name": "version",
      "outputs": [
        {
          "internalType": "uint16",
          "name": "",
          "type": "uint16"
        }
      ],
      "stateMutability": "view",
      "type": "function"
    },
    {
      "inputs": [
        {
          "internalType": "contract IERC20Token",
          "name": "_token",
          "type": "address"
        },
        {
          "internalType": "address",
          "name": "_to",
          "type": "address"
        },
        {
          "internalType": "uint256",
          "name": "_amount",
          "type": "uint256"
        }
      ],
      "name": "withdrawTokens",
      "outputs": [],
      "stateMutability": "nonpayable",
      "type": "function"
    },
    {
      "inputs": [
        {
          "internalType": "bytes32",
          "name": "_toBlockchain",
          "type": "bytes32"
        },
        {
          "internalType": "bytes32",
          "name": "_to",
          "type": "bytes32"
        },
        {
          "internalType": "uint256",
          "name": "_amount",
          "type": "uint256"
        },
        {
          "internalType": "uint256",
          "name": "_id",
          "type": "uint256"
        }
      ],
      "name": "xTransfer",
      "outputs": [],
      "stateMutability": "nonpayable",
      "type": "function"
    },
    {
      "inputs": [
        {
          "internalType": "bytes32",
          "name": "_toBlockchain",
          "type": "bytes32"
        },
        {
          "internalType": "bytes32",
          "name": "_to",
          "type": "bytes32"
        },
        {
          "internalType": "uint256",
          "name": "_amount",
          "type": "uint256"
        }
      ],
      "name": "xTransfer",
      "outputs": [],
      "stateMutability": "nonpayable",
      "type": "function"
    },
    {
      "inputs": [],
      "name": "xTransfersEnabled",
      "outputs": [
        {
          "internalType": "bool",
          "name": "",
          "type": "bool"
        }
      ],
      "stateMutability": "view",
      "type": "function"
    }
  ],
  "bytecode": "0x60806040526001600c60156101000a81548160ff0219169083151502179055506001600c60166101000a81548160ff0219169083151502179055503480156200004757600080fd5b506040516200353e3803806200353e833981810160405260e08110156200006d57600080fd5b810190808051906020019092919080519060200190929190805190602001909291908051906020019092919080519060200190929190805190602001909291908051906020019092919050505081336000806101000a81548173ffffffffffffffffffffffffffffffffffffffff021916908373ffffffffffffffffffffffffffffffffffffffff160217905550806200010d816200033e60201b60201c565b81600260006101000a81548173ffffffffffffffffffffffffffffffffffffffff021916908373ffffffffffffffffffffffffffffffffffffffff16021790555081600360006101000a81548173ffffffffffffffffffffffffffffffffffffffff021916908373ffffffffffffffffffffffffffffffffffffffff160217905550505086620001a381620003e560201b60201c565b86620001b581620003e560201b60201c565b86620001c781620003e560201b60201c565b86620001d981620003e560201b60201c565b8660ff16620001ee81620003e560201b60201c565b8562000200816200033e60201b60201c565b8662000212816200045f60201b60201c565b8d8c111580156200022357508c8c11155b62000296576040517f08c379a00000000000000000000000000000000000000000000000000000000081526004018080602001828103825260158152602001807f4552525f494e56414c49445f4d494e5f4c494d4954000000000000000000000081525060200191505060405180910390fd5b8d6004819055508c6005819055508b6006819055508a60098190555089600c60006101000a81548160ff021916908360ff1602179055508d6007819055508c60088190555043600a8190555043600b8190555087600c60016101000a81548173ffffffffffffffffffffffffffffffffffffffff021916908373ffffffffffffffffffffffffffffffffffffffff160217905550505050505050505050505050505062000505565b600073ffffffffffffffffffffffffffffffffffffffff168173ffffffffffffffffffffffffffffffffffffffff161415620003e2576040517f08c379a00000000000000000000000000000000000000000000000000000000081526004018080602001828103825260138152602001807f4552525f494e56414c49445f414444524553530000000000000000000000000081525060200191505060405180910390fd5b50565b600081116200045c576040517f08c379a000000000000000000000000000000000000000000000000000000000815260040180806020018281038252600e8152602001807f4552525f5a45524f5f56414c554500000000000000000000000000000000000081525060200191505060405180910390fd5b50565b3073ffffffffffffffffffffffffffffffffffffffff168173ffffffffffffffffffffffffffffffffffffffff16141562000502576040517f08c379a00000000000000000000000000000000000000000000000000000000081526004018080602001828103825260138152602001807f4552525f414444524553535f49535f53454c460000000000000000000000000081525060200191505060405180910390fd5b50565b61302980620005156000396000f3fe608060405234801561001057600080fd5b50600436106102695760003560e01c80637b10399911610151578063b4a176d3116100c3578063e36f8dc511610087578063e36f8dc514610a3f578063ed1d73a614610a81578063f2fde38b14610ab1578063f7385f7614610af5578063fbb2469214610b13578063fc0c546a14610b3357610269565b8063b4a176d314610962578063bf28ece41461096c578063ca27e0111461099a578063d4ee1d90146109bb578063e1bb5133146109ef57610269565b80639ace38c2116101155780639ace38c2146107dd578063a50c326c14610856578063a5c670ca14610884578063a8c36a90146108b4578063aafd6b76146108d2578063af2b96181461093457610269565b80637b103999146106c05780637b15879c146106f45780638544c52d146107255780638da5cb5b146107895780639390701c146107bd57610269565b806349282538116101ea5780635e35359e116101ae5780635e35359e1461055c57806361cd756e146105ca5780636dc6a01b146105fe5780636ec6d4a61461066a57806372f43d191461069857806379ba5097146106b657610269565b806349282538146104b257806349d10b64146104f45780634b3e475c146104fe57806352e94ce31461051c57806354fd4d501461053a57610269565b80631e04a593116102315780631e04a593146103b05780631fd8088d146103ce5780632cc1cd9e146103ec5780632fe8a6ad14610446578063427c03741461046657610269565b80630183592b1461026e578063024c7ec71461032657806316c76c271461035657806319967439146103745780631aff29eb14610392575b600080fd5b6103246004803603602081101561028457600080fd5b81019080803590602001906401000000008111156102a157600080fd5b8201836020820111156102b357600080fd5b803590602001918460208302840111640100000000831117156102d557600080fd5b919080806020026020016040519081016040528093929190818152602001838360200280828437600081840152601f19601f820116905080830192505050505050509192919290505050610b67565b005b6103546004803603602081101561033c57600080fd5b81019080803515159060200190929190505050610c6a565b005b61035e610c8f565b6040518082815260200191505060405180910390f35b61037c610c95565b6040518082815260200191505060405180910390f35b61039a610cf4565b6040518082815260200191505060405180910390f35b6103b8610cfa565b6040518082815260200191505060405180910390f35b6103d6610d59565b6040518082815260200191505060405180910390f35b61042e6004803603602081101561040257600080fd5b81019080803573ffffffffffffffffffffffffffffffffffffffff169060200190929190505050610d5f565b60405180821515815260200191505060405180910390f35b61044e610d7f565b60405180821515815260200191505060405180910390f35b6104b06004803603608081101561047c57600080fd5b8101908080359060200190929190803590602001909291908035906020019092919080359060200190929190505050610d92565b005b6104f2600480360360608110156104c857600080fd5b81019080803590602001909291908035906020019092919080359060200190929190505050610eb9565b005b6104fc610fe0565b005b6105066113d8565b6040518082815260200191505060405180910390f35b6105246113de565b6040518082815260200191505060405180910390f35b6105426113e4565b604051808261ffff16815260200191505060405180910390f35b6105c86004803603606081101561057257600080fd5b81019080803573ffffffffffffffffffffffffffffffffffffffff169060200190929190803573ffffffffffffffffffffffffffffffffffffffff169060200190929190803590602001909291905050506113e9565b005b6105d2611422565b604051808273ffffffffffffffffffffffffffffffffffffffff16815260200191505060405180910390f35b610668600480360360a081101561061457600080fd5b810190808035906020019092919080359060200190929190803573ffffffffffffffffffffffffffffffffffffffff1690602001909291908035906020019092919080359060200190929190505050611448565b005b6106966004803603602081101561068057600080fd5b8101908080359060200190929190505050611a68565b005b6106a0611b0b565b6040518082815260200191505060405180910390f35b6106be611b11565b005b6106c8611d16565b604051808273ffffffffffffffffffffffffffffffffffffffff16815260200191505060405180910390f35b6107236004803603602081101561070a57600080fd5b81019080803560ff169060200190929190505050611d3c565b005b6107716004803603604081101561073b57600080fd5b8101908080359060200190929190803573ffffffffffffffffffffffffffffffffffffffff169060200190929190505050611d70565b60405180821515815260200191505060405180910390f35b610791611d9f565b604051808273ffffffffffffffffffffffffffffffffffffffff16815260200191505060405180910390f35b6107c5611dc3565b60405180821515815260200191505060405180910390f35b610809600480360360208110156107f357600080fd5b8101908080359060200190929190505050611dd6565b604051808681526020018581526020018473ffffffffffffffffffffffffffffffffffffffff1681526020018360ff16815260200182151581526020019550505050505060405180910390f35b6108826004803603602081101561086c57600080fd5b8101908080359060200190929190505050611e46565b005b6108b26004803603602081101561089a57600080fd5b81019080803515159060200190929190505050611e63565b005b6108bc611e88565b6040518082815260200191505060405180910390f35b61091e600480360360408110156108e857600080fd5b8101908080359060200190929190803573ffffffffffffffffffffffffffffffffffffffff169060200190929190505050611e8e565b6040518082815260200191505060405180910390f35b6109606004803603602081101561094a57600080fd5b8101908080359060200190929190505050612020565b005b61096a61203d565b005b6109986004803603602081101561098257600080fd5b81019080803590602001909291905050506120aa565b005b6109a26120c7565b604051808260ff16815260200191505060405180910390f35b6109c36120da565b604051808273ffffffffffffffffffffffffffffffffffffffff16815260200191505060405180910390f35b610a3d60048036036040811015610a0557600080fd5b81019080803573ffffffffffffffffffffffffffffffffffffffff169060200190929190803515159060200190929190505050612100565b005b610a6b60048036036020811015610a5557600080fd5b8101908080359060200190929190505050612163565b6040518082815260200191505060405180910390f35b610aaf60048036036020811015610a9757600080fd5b8101908080351515906020019092919050505061217b565b005b610af360048036036020811015610ac757600080fd5b81019080803573ffffffffffffffffffffffffffffffffffffffff1690602001909291905050506121a0565b005b610afd6122ae565b6040518082815260200191505060405180910390f35b610b1b6122b4565b60405180821515815260200191505060405180910390f35b610b3b6122c7565b604051808273ffffffffffffffffffffffffffffffffffffffff16815260200191505060405180910390f35b610b6f6122ed565b6000610b9a7f42616e636f7258557067726164657200000000000000000000000000000000006123b0565b9050610ba5816121a0565b8073ffffffffffffffffffffffffffffffffffffffff1663546872cc6004846040518363ffffffff1660e01b8152600401808361ffff16815260200180602001828103825283818151815260200191508051906020019060200280838360005b83811015610c20578082015181840152602081019050610c05565b505050509050019350505050600060405180830381600087803b158015610c4657600080fd5b505af1158015610c5a573d6000803e3d6000fd5b50505050610c66611b11565b5050565b610c726122ed565b80600360146101000a81548160ff02191690831515021790555050565b60075481565b600080610cd5610cc4600954610cb6600a544361246790919063ffffffff16565b6124ea90919063ffffffff16565b60075461258d90919063ffffffff16565b9050600454811115610cec57600454915050610cf1565b809150505b90565b600a5481565b600080610d3a610d29600954610d1b600b544361246790919063ffffffff16565b6124ea90919063ffffffff16565b60085461258d90919063ffffffff16565b9050600554811115610d5157600554915050610d56565b809150505b90565b60065481565b60106020528060005260406000206000915054906101000a900460ff1681565b600360149054906101000a900460ff1681565b610d9a612615565b6000610da4610c95565b90506006548310158015610db85750808311155b610e2a576040517f08c379a00000000000000000000000000000000000000000000000000000000081526004018080602001828103825260138152602001807f4552525f414d4f554e545f544f4f5f484947480000000000000000000000000081525060200191505060405180910390fd5b610e3383612699565b610e46838261246790919063ffffffff16565b60078190555043600a81905550833373ffffffffffffffffffffffffffffffffffffffff167f4780f3edc9124597ede658e04ed3d8887b58c86943b2a805dc961cf512570b6287868660405180848152602001838152602001828152602001935050505060405180910390a35050505050565b610ec1612615565b6000610ecb610c95565b90506006548210158015610edf5750808211155b610f51576040517f08c379a00000000000000000000000000000000000000000000000000000000081526004018080602001828103825260138152602001807f4552525f414d4f554e545f544f4f5f484947480000000000000000000000000081525060200191505060405180910390fd5b610f5a82612699565b610f6d828261246790919063ffffffff16565b60078190555043600a81905550823373ffffffffffffffffffffffffffffffffffffffff167f4780f3edc9124597ede658e04ed3d8887b58c86943b2a805dc961cf512570b628685600060405180848152602001838152602001828152602001935050505060405180910390a350505050565b60008054906101000a900473ffffffffffffffffffffffffffffffffffffffff1673ffffffffffffffffffffffffffffffffffffffff163373ffffffffffffffffffffffffffffffffffffffff1614806110475750600360149054906101000a900460ff16155b6110b9576040517f08c379a00000000000000000000000000000000000000000000000000000000081526004018080602001828103825260118152602001807f4552525f4143434553535f44454e49454400000000000000000000000000000081525060200191505060405180910390fd5b60006110e47f436f6e74726163745265676973747279000000000000000000000000000000006123b0565b9050600260009054906101000a900473ffffffffffffffffffffffffffffffffffffffff1673ffffffffffffffffffffffffffffffffffffffff168173ffffffffffffffffffffffffffffffffffffffff16141580156111715750600073ffffffffffffffffffffffffffffffffffffffff168173ffffffffffffffffffffffffffffffffffffffff1614155b6111e3576040517f08c379a00000000000000000000000000000000000000000000000000000000081526004018080602001828103825260148152602001807f4552525f494e56414c49445f524547495354525900000000000000000000000081525060200191505060405180910390fd5b600073ffffffffffffffffffffffffffffffffffffffff168173ffffffffffffffffffffffffffffffffffffffff1663bb34534c7f436f6e74726163745265676973747279000000000000000000000000000000006040518263ffffffff1660e01b81526004018082815260200191505060206040518083038186803b15801561126c57600080fd5b505afa158015611280573d6000803e3d6000fd5b505050506040513d602081101561129657600080fd5b810190808051906020019092919050505073ffffffffffffffffffffffffffffffffffffffff161415611331576040517f08c379a00000000000000000000000000000000000000000000000000000000081526004018080602001828103825260148152602001807f4552525f494e56414c49445f524547495354525900000000000000000000000081525060200191505060405180910390fd5b600260009054906101000a900473ffffffffffffffffffffffffffffffffffffffff16600360006101000a81548173ffffffffffffffffffffffffffffffffffffffff021916908373ffffffffffffffffffffffffffffffffffffffff16021790555080600260006101000a81548173ffffffffffffffffffffffffffffffffffffffff021916908373ffffffffffffffffffffffffffffffffffffffff16021790555050565b600b5481565b60055481565b600481565b6113f16122ed565b826113fb81612718565b8261140581612718565b8361140f816127be565b61141a868686612863565b505050505050565b600360009054906101000a900473ffffffffffffffffffffffffffffffffffffffff1681565b611450612a7e565b611458612b3f565b8261146281612718565b8261146c81612bc3565b600f600087815260200190815260200160002060003373ffffffffffffffffffffffffffffffffffffffff1673ffffffffffffffffffffffffffffffffffffffff16815260200190815260200160002060009054906101000a900460ff161561153d576040517f08c379a00000000000000000000000000000000000000000000000000000000081526004018080602001828103825260148152602001807f4552525f414c52454144595f5245504f5254454400000000000000000000000081525060200191505060405180910390fd5b6001600f600088815260200190815260200160002060003373ffffffffffffffffffffffffffffffffffffffff1673ffffffffffffffffffffffffffffffffffffffff16815260200190815260200160002060006101000a81548160ff0219169083151502179055506000600d6000888152602001908152602001600020905060008160020160149054906101000a900460ff1660ff1614156116de57858160020160006101000a81548173ffffffffffffffffffffffffffffffffffffffff021916908373ffffffffffffffffffffffffffffffffffffffff160217905550848160000181905550878160010181905550600084146116d9576000600e600086815260200190815260200160002054146116c0576040517f08c379a00000000000000000000000000000000000000000000000000000000081526004018080602001828103825260158152602001807f4552525f54585f414c52454144595f455849535453000000000000000000000081525060200191505060405180910390fd5b86600e6000868152602001908152602001600020819055505b611853565b8573ffffffffffffffffffffffffffffffffffffffff168160020160009054906101000a900473ffffffffffffffffffffffffffffffffffffffff1673ffffffffffffffffffffffffffffffffffffffff161480156117405750848160000154145b801561174f5750878160010154145b6117c1576040517f08c379a000000000000000000000000000000000000000000000000000000000815260040180806020018281038252600f8152602001807f4552525f54585f4d49534d41544348000000000000000000000000000000000081525060200191505060405180910390fd5b600084146118525786600e60008681526020019081526020016000205414611851576040517f08c379a00000000000000000000000000000000000000000000000000000000081526004018080602001828103825260158152602001807f4552525f54585f414c52454144595f455849535453000000000000000000000081525060200191505060405180910390fd5b5b5b80600201601481819054906101000a900460ff168092919060010191906101000a81548160ff021916908360ff160217905550503373ffffffffffffffffffffffffffffffffffffffff167f5e77831e701760f7f4a1e61a8e9834d773b52c45d91ba9006b7d2afb7a1447398989898989604051808681526020018581526020018473ffffffffffffffffffffffffffffffffffffffff1681526020018381526020018281526020019550505050505060405180910390a2600c60009054906101000a900460ff1660ff168160020160149054906101000a900460ff1660ff1610611a5e57600d600088815260200190815260200160002060020160159054906101000a900460ff16156119cf576040517f08c379a00000000000000000000000000000000000000000000000000000000081526004018080602001828103825260188152602001807f4552525f54585f414c52454144595f434f4d504c45544544000000000000000081525060200191505060405180910390fd5b6001600d600089815260200190815260200160002060020160156101000a81548160ff0219169083151502179055507fd87906b7fce534fc5e6dde30064e777d92d0aaf3a28c72315de8ef2e4134dfef8685604051808373ffffffffffffffffffffffffffffffffffffffff1681526020018281526020019250505060405180910390a1611a5d8686612c3c565b5b5050505050505050565b611a706122ed565b80611a7a81612bc3565b6004548211158015611a8e57506005548211155b611b00576040517f08c379a00000000000000000000000000000000000000000000000000000000081526004018080602001828103825260158152602001807f4552525f494e56414c49445f4d494e5f4c494d4954000000000000000000000081525060200191505060405180910390fd5b816006819055505050565b60095481565b600160009054906101000a900473ffffffffffffffffffffffffffffffffffffffff1673ffffffffffffffffffffffffffffffffffffffff163373ffffffffffffffffffffffffffffffffffffffff1614611bd4576040517f08c379a00000000000000000000000000000000000000000000000000000000081526004018080602001828103825260118152602001807f4552525f4143434553535f44454e49454400000000000000000000000000000081525060200191505060405180910390fd5b600160009054906101000a900473ffffffffffffffffffffffffffffffffffffffff1673ffffffffffffffffffffffffffffffffffffffff1660008054906101000a900473ffffffffffffffffffffffffffffffffffffffff1673ffffffffffffffffffffffffffffffffffffffff167f343765429aea5a34b3ff6a3785a98a5abb2597aca87bfbb58632c173d585373a60405160405180910390a3600160009054906101000a900473ffffffffffffffffffffffffffffffffffffffff166000806101000a81548173ffffffffffffffffffffffffffffffffffffffff021916908373ffffffffffffffffffffffffffffffffffffffff1602179055506000600160006101000a81548173ffffffffffffffffffffffffffffffffffffffff021916908373ffffffffffffffffffffffffffffffffffffffff160217905550565b600260009054906101000a900473ffffffffffffffffffffffffffffffffffffffff1681565b611d446122ed565b8060ff16611d5181612bc3565b81600c60006101000a81548160ff021916908360ff1602179055505050565b600f6020528160005260406000206020528060005260406000206000915091509054906101000a900460ff1681565b60008054906101000a900473ffffffffffffffffffffffffffffffffffffffff1681565b600c60169054906101000a900460ff1681565b600d6020528060005260406000206000915090508060000154908060010154908060020160009054906101000a900473ffffffffffffffffffffffffffffffffffffffff16908060020160149054906101000a900460ff16908060020160159054906101000a900460ff16905085565b611e4e6122ed565b80611e5881612bc3565b816009819055505050565b611e6b6122ed565b80600c60156101000a81548160ff02191690831515021790555050565b60045481565b6000611e98612fa6565b600d6000600e60008781526020019081526020016000205481526020019081526020016000206040518060a001604052908160008201548152602001600182015481526020016002820160009054906101000a900473ffffffffffffffffffffffffffffffffffffffff1673ffffffffffffffffffffffffffffffffffffffff1673ffffffffffffffffffffffffffffffffffffffff1681526020016002820160149054906101000a900460ff1660ff1660ff1681526020016002820160159054906101000a900460ff16151515158152505090508273ffffffffffffffffffffffffffffffffffffffff16816040015173ffffffffffffffffffffffffffffffffffffffff1614612012576040517f08c379a000000000000000000000000000000000000000000000000000000000815260040180806020018281038252600f8152602001807f4552525f54585f4d49534d41544348000000000000000000000000000000000081525060200191505060405180910390fd5b806000015191505092915050565b6120286122ed565b8061203281612bc3565b816004819055505050565b6120456122ed565b600360009054906101000a900473ffffffffffffffffffffffffffffffffffffffff16600260006101000a81548173ffffffffffffffffffffffffffffffffffffffff021916908373ffffffffffffffffffffffffffffffffffffffff160217905550565b6120b26122ed565b806120bc81612bc3565b816005819055505050565b600c60009054906101000a900460ff1681565b600160009054906101000a900473ffffffffffffffffffffffffffffffffffffffff1681565b6121086122ed565b80601060008473ffffffffffffffffffffffffffffffffffffffff1673ffffffffffffffffffffffffffffffffffffffff16815260200190815260200160002060006101000a81548160ff0219169083151502179055505050565b600e6020528060005260406000206000915090505481565b6121836122ed565b80600c60166101000a81548160ff02191690831515021790555050565b6121a86122ed565b60008054906101000a900473ffffffffffffffffffffffffffffffffffffffff1673ffffffffffffffffffffffffffffffffffffffff168173ffffffffffffffffffffffffffffffffffffffff16141561226a576040517f08c379a000000000000000000000000000000000000000000000000000000000815260040180806020018281038252600e8152602001807f4552525f53414d455f4f574e455200000000000000000000000000000000000081525060200191505060405180910390fd5b80600160006101000a81548173ffffffffffffffffffffffffffffffffffffffff021916908373ffffffffffffffffffffffffffffffffffffffff16021790555050565b60085481565b600c60159054906101000a900460ff1681565b600c60019054906101000a900473ffffffffffffffffffffffffffffffffffffffff1681565b60008054906101000a900473ffffffffffffffffffffffffffffffffffffffff1673ffffffffffffffffffffffffffffffffffffffff163373ffffffffffffffffffffffffffffffffffffffff16146123ae576040517f08c379a00000000000000000000000000000000000000000000000000000000081526004018080602001828103825260118152602001807f4552525f4143434553535f44454e49454400000000000000000000000000000081525060200191505060405180910390fd5b565b6000600260009054906101000a900473ffffffffffffffffffffffffffffffffffffffff1673ffffffffffffffffffffffffffffffffffffffff1663bb34534c836040518263ffffffff1660e01b81526004018082815260200191505060206040518083038186803b15801561242557600080fd5b505afa158015612439573d6000803e3d6000fd5b505050506040513d602081101561244f57600080fd5b81019080805190602001909291905050509050919050565b6000818310156124df576040517f08c379a000000000000000000000000000000000000000000000000000000000815260040180806020018281038252600d8152602001807f4552525f554e444552464c4f570000000000000000000000000000000000000081525060200191505060405180910390fd5b818303905092915050565b6000808314156124fd5760009050612587565b600082840290508284828161250e57fe5b0414612582576040517f08c379a000000000000000000000000000000000000000000000000000000000815260040180806020018281038252600c8152602001807f4552525f4f564552464c4f57000000000000000000000000000000000000000081525060200191505060405180910390fd5b809150505b92915050565b60008082840190508381101561260b576040517f08c379a000000000000000000000000000000000000000000000000000000000815260040180806020018281038252600c8152602001807f4552525f4f564552464c4f57000000000000000000000000000000000000000081525060200191505060405180910390fd5b8091505092915050565b600c60159054906101000a900460ff16612697576040517f08c379a000000000000000000000000000000000000000000000000000000000815260040180806020018281038252600c8152602001807f4552525f44495341424c4544000000000000000000000000000000000000000081525060200191505060405180910390fd5b565b6126c7600c60019054906101000a900473ffffffffffffffffffffffffffffffffffffffff16333084612d6c565b3373ffffffffffffffffffffffffffffffffffffffff167ff5d7535a395393675f56d066384113754ca9cf4abd37298469934e2e9c2ec902826040518082815260200191505060405180910390a250565b600073ffffffffffffffffffffffffffffffffffffffff168173ffffffffffffffffffffffffffffffffffffffff1614156127bb576040517f08c379a00000000000000000000000000000000000000000000000000000000081526004018080602001828103825260138152602001807f4552525f494e56414c49445f414444524553530000000000000000000000000081525060200191505060405180910390fd5b50565b3073ffffffffffffffffffffffffffffffffffffffff168173ffffffffffffffffffffffffffffffffffffffff161415612860576040517f08c379a00000000000000000000000000000000000000000000000000000000081526004018080602001828103825260138152602001807f4552525f414444524553535f49535f53454c460000000000000000000000000081525060200191505060405180910390fd5b50565b600060608473ffffffffffffffffffffffffffffffffffffffff167fa9059cbb2ab09eb219583f4a59a5d0623ade346d962bcd4e46b11da047c9049b8585604051602401808373ffffffffffffffffffffffffffffffffffffffff16815260200182815260200192505050604051602081830303815290604052907bffffffffffffffffffffffffffffffffffffffffffffffffffffffff19166020820180517bffffffffffffffffffffffffffffffffffffffffffffffffffffffff83818316178352505050506040518082805190602001908083835b6020831061295e578051825260208201915060208101905060208303925061293b565b6001836020036101000a0380198251168184511680821785525050505050509050019150506000604051808303816000865af19150503d80600081146129c0576040519150601f19603f3d011682016040523d82523d6000602084013e6129c5565b606091505b5091509150818015612a055750600081511480612a0457508080602001905160208110156129f257600080fd5b81019080805190602001909291905050505b5b612a77576040517f08c379a00000000000000000000000000000000000000000000000000000000081526004018080602001828103825260138152602001807f4552525f5452414e534645525f4641494c45440000000000000000000000000081525060200191505060405180910390fd5b5050505050565b601060003373ffffffffffffffffffffffffffffffffffffffff1673ffffffffffffffffffffffffffffffffffffffff16815260200190815260200160002060009054906101000a900460ff16612b3d576040517f08c379a00000000000000000000000000000000000000000000000000000000081526004018080602001828103825260118152602001807f4552525f4143434553535f44454e49454400000000000000000000000000000081525060200191505060405180910390fd5b565b600c60169054906101000a900460ff16612bc1576040517f08c379a000000000000000000000000000000000000000000000000000000000815260040180806020018281038252600c8152602001807f4552525f44495341424c4544000000000000000000000000000000000000000081525060200191505060405180910390fd5b565b60008111612c39576040517f08c379a000000000000000000000000000000000000000000000000000000000815260040180806020018281038252600e8152602001807f4552525f5a45524f5f56414c554500000000000000000000000000000000000081525060200191505060405180910390fd5b50565b6000612c46610cfa565b90506006548210158015612c5a5750808211155b612ccc576040517f08c379a00000000000000000000000000000000000000000000000000000000081526004018080602001828103825260138152602001807f4552525f414d4f554e545f544f4f5f484947480000000000000000000000000081525060200191505060405180910390fd5b612cdf828261246790919063ffffffff16565b60088190555043600b81905550612d19600c60019054906101000a900473ffffffffffffffffffffffffffffffffffffffff168484612863565b8273ffffffffffffffffffffffffffffffffffffffff167fbfdc1f3c02b4715077e0be4a262f967d53d4d0fcd76c6987fa2ad6e2257d7c8f836040518082815260200191505060405180910390a2505050565b600060608573ffffffffffffffffffffffffffffffffffffffff167f23b872dd7302113369cda2901243429419bec145408fa8b352b3dd92b66c680b868686604051602401808473ffffffffffffffffffffffffffffffffffffffff1681526020018373ffffffffffffffffffffffffffffffffffffffff1681526020018281526020019350505050604051602081830303815290604052907bffffffffffffffffffffffffffffffffffffffffffffffffffffffff19166020820180517bffffffffffffffffffffffffffffffffffffffffffffffffffffffff83818316178352505050506040518082805190602001908083835b60208310612e855780518252602082019150602081019050602083039250612e62565b6001836020036101000a0380198251168184511680821785525050505050509050019150506000604051808303816000865af19150503d8060008114612ee7576040519150601f19603f3d011682016040523d82523d6000602084013e612eec565b606091505b5091509150818015612f2c5750600081511480612f2b5750808060200190516020811015612f1957600080fd5b81019080805190602001909291905050505b5b612f9e576040517f08c379a00000000000000000000000000000000000000000000000000000000081526004018080602001828103825260188152602001807f4552525f5452414e534645525f46524f4d5f4641494c4544000000000000000081525060200191505060405180910390fd5b505050505050565b6040518060a001604052806000815260200160008019168152602001600073ffffffffffffffffffffffffffffffffffffffff168152602001600060ff168152602001600015158152509056fea26469706673582212200bca0b893b53fa82963be60aa157692eb7ad96a3f20c2ab79ac00e41723d6fcf64736f6c634300060c0033",
  "linkReferences": {},
  "deployedLinkReferences": {}
}