{
  "_format": "hh-sol-artifact-1",
  "contractName": "Registrar",
  "sourceName": "contracts/Registrar.sol",
  "abi": [
    {
      "inputs": [
        {
          "internalType": "address",
          "name": "_owner",
          "type": "address"
        }
      ],
      "stateMutability": "nonpayable",
      "type": "constructor"
    },
    {
      "anonymous": false,
      "inputs": [
        {
          "indexed": true,
          "internalType": "address",
          "name": "owner",
          "type": "address"
        },
        {
          "indexed": true,
          "internalType": "address",
          "name": "approved",
          "type": "address"
        },
        {
          "indexed": true,
          "internalType": "uint256",
          "name": "tokenId",
          "type": "uint256"
        }
      ],
      "name": "Approval",
      "type": "event"
    },
    {
      "anonymous": false,
      "inputs": [
        {
          "indexed": true,
          "internalType": "address",
          "name": "owner",
          "type": "address"
        },
        {
          "indexed": true,
          "internalType": "address",
          "name": "operator",
          "type": "address"
        },
        {
          "indexed": false,
          "internalType": "bool",
          "name": "approved",
          "type": "bool"
        }
      ],
      "name": "ApprovalForAll",
      "type": "event"
    },
    {
      "anonymous": false,
      "inputs": [
        {
          "indexed": false,
          "internalType": "uint256",
          "name": "parentId",
          "type": "uint256"
        },
        {
          "indexed": false,
          "internalType": "string",
          "name": "domain",
          "type": "string"
        },
        {
          "indexed": false,
          "internalType": "address",
          "name": "_owner",
          "type": "address"
        },
        {
          "indexed": false,
          "internalType": "address",
          "name": "_controller",
          "type": "address"
        },
        {
          "indexed": false,
          "internalType": "string",
          "name": "_ref",
          "type": "string"
        }
      ],
      "name": "RegistryCreated",
      "type": "event"
    },
    {
      "anonymous": false,
      "inputs": [
        {
          "indexed": true,
          "internalType": "address",
          "name": "from",
          "type": "address"
        },
        {
          "indexed": true,
          "internalType": "address",
          "name": "to",
          "type": "address"
        },
        {
          "indexed": true,
          "internalType": "uint256",
          "name": "tokenId",
          "type": "uint256"
        }
      ],
      "name": "Transfer",
      "type": "event"
    },
    {
      "inputs": [
        {
          "internalType": "address",
          "name": "to",
          "type": "address"
        },
        {
          "internalType": "uint256",
          "name": "tokenId",
          "type": "uint256"
        }
      ],
      "name": "approve",
      "outputs": [],
      "stateMutability": "nonpayable",
      "type": "function"
    },
    {
      "inputs": [
        {
          "internalType": "address",
          "name": "owner",
          "type": "address"
        }
      ],
      "name": "balanceOf",
      "outputs": [
        {
          "internalType": "uint256",
          "name": "",
          "type": "uint256"
        }
      ],
      "stateMutability": "view",
      "type": "function"
    },
    {
      "inputs": [],
      "name": "baseURI",
      "outputs": [
        {
          "internalType": "string",
          "name": "",
          "type": "string"
        }
      ],
      "stateMutability": "view",
      "type": "function"
    },
    {
      "inputs": [
        {
          "internalType": "string",
          "name": "domain",
          "type": "string"
        },
        {
          "internalType": "address",
          "name": "_owner",
          "type": "address"
        },
        {
          "internalType": "address",
          "name": "_controller",
          "type": "address"
        },
        {
          "internalType": "string",
          "name": "_ref",
          "type": "string"
        }
      ],
      "name": "createRegistry",
      "outputs": [],
      "stateMutability": "nonpayable",
      "type": "function"
    },
    {
      "inputs": [
        {
          "internalType": "uint256",
          "name": "id",
          "type": "uint256"
        }
      ],
      "name": "entries",
      "outputs": [
        {
          "components": [
            {
              "internalType": "uint256",
              "name": "parent",
              "type": "uint256"
            },
            {
              "internalType": "string",
              "name": "ref",
              "type": "string"
            },
            {
              "internalType": "string",
              "name": "domain",
              "type": "string"
            },
            {
              "internalType": "address",
              "name": "controller",
              "type": "address"
            },
            {
              "internalType": "address",
              "name": "owner",
              "type": "address"
            },
            {
              "internalType": "uint256[]",
              "name": "children",
              "type": "uint256[]"
            }
          ],
          "internalType": "struct Registrar.EntryView",
          "name": "out",
          "type": "tuple"
        }
      ],
      "stateMutability": "view",
      "type": "function"
    },
    {
      "inputs": [
        {
          "internalType": "uint256",
          "name": "tokenId",
          "type": "uint256"
        }
      ],
      "name": "getApproved",
      "outputs": [
        {
          "internalType": "address",
          "name": "",
          "type": "address"
        }
      ],
      "stateMutability": "view",
      "type": "function"
    },
    {
      "inputs": [
        {
          "internalType": "string[]",
          "name": "path",
          "type": "string[]"
        }
      ],
      "name": "getId",
      "outputs": [
        {
          "internalType": "uint256",
          "name": "",
          "type": "uint256"
        }
      ],
      "stateMutability": "pure",
      "type": "function"
    },
    {
      "inputs": [
        {
          "internalType": "string[]",
          "name": "path",
          "type": "string[]"
        }
      ],
      "name": "getOwner",
      "outputs": [
        {
          "internalType": "address",
          "name": "",
          "type": "address"
        }
      ],
      "stateMutability": "view",
      "type": "function"
    },
    {
      "inputs": [
        {
          "internalType": "address",
          "name": "owner",
          "type": "address"
        },
        {
          "internalType": "address",
          "name": "operator",
          "type": "address"
        }
      ],
      "name": "isApprovedForAll",
      "outputs": [
        {
          "internalType": "bool",
          "name": "",
          "type": "bool"
        }
      ],
      "stateMutability": "view",
      "type": "function"
    },
    {
      "inputs": [],
      "name": "name",
      "outputs": [
        {
          "internalType": "string",
          "name": "",
          "type": "string"
        }
      ],
      "stateMutability": "view",
      "type": "function"
    },
    {
      "inputs": [
        {
          "internalType": "uint256",
          "name": "tokenId",
          "type": "uint256"
        }
      ],
      "name": "ownerOf",
      "outputs": [
        {
          "internalType": "address",
          "name": "",
          "type": "address"
        }
      ],
      "stateMutability": "view",
      "type": "function"
    },
    {
      "inputs": [
        {
          "internalType": "address",
          "name": "from",
          "type": "address"
        },
        {
          "internalType": "address",
          "name": "to",
          "type": "address"
        },
        {
          "internalType": "uint256",
          "name": "tokenId",
          "type": "uint256"
        }
      ],
      "name": "safeTransferFrom",
      "outputs": [],
      "stateMutability": "nonpayable",
      "type": "function"
    },
    {
      "inputs": [
        {
          "internalType": "address",
          "name": "from",
          "type": "address"
        },
        {
          "internalType": "address",
          "name": "to",
          "type": "address"
        },
        {
          "internalType": "uint256",
          "name": "tokenId",
          "type": "uint256"
        },
        {
          "internalType": "bytes",
          "name": "_data",
          "type": "bytes"
        }
      ],
      "name": "safeTransferFrom",
      "outputs": [],
      "stateMutability": "nonpayable",
      "type": "function"
    },
    {
      "inputs": [
        {
          "internalType": "address",
          "name": "operator",
          "type": "address"
        },
        {
          "internalType": "bool",
          "name": "approved",
          "type": "bool"
        }
      ],
      "name": "setApprovalForAll",
      "outputs": [],
      "stateMutability": "nonpayable",
      "type": "function"
    },
    {
      "inputs": [
        {
          "internalType": "bytes4",
          "name": "interfaceId",
          "type": "bytes4"
        }
      ],
      "name": "supportsInterface",
      "outputs": [
        {
          "internalType": "bool",
          "name": "",
          "type": "bool"
        }
      ],
      "stateMutability": "view",
      "type": "function"
    },
    {
      "inputs": [],
      "name": "symbol",
      "outputs": [
        {
          "internalType": "string",
          "name": "",
          "type": "string"
        }
      ],
      "stateMutability": "view",
      "type": "function"
    },
    {
      "inputs": [
        {
          "internalType": "uint256",
          "name": "index",
          "type": "uint256"
        }
      ],
      "name": "tokenByIndex",
      "outputs": [
        {
          "internalType": "uint256",
          "name": "",
          "type": "uint256"
        }
      ],
      "stateMutability": "view",
      "type": "function"
    },
    {
      "inputs": [
        {
          "internalType": "address",
          "name": "owner",
          "type": "address"
        },
        {
          "internalType": "uint256",
          "name": "index",
          "type": "uint256"
        }
      ],
      "name": "tokenOfOwnerByIndex",
      "outputs": [
        {
          "internalType": "uint256",
          "name": "",
          "type": "uint256"
        }
      ],
      "stateMutability": "view",
      "type": "function"
    },
    {
      "inputs": [
        {
          "internalType": "uint256",
          "name": "tokenId",
          "type": "uint256"
        }
      ],
      "name": "tokenURI",
      "outputs": [
        {
          "internalType": "string",
          "name": "",
          "type": "string"
        }
      ],
      "stateMutability": "view",
      "type": "function"
    },
    {
      "inputs": [
        {
          "internalType": "uint256",
          "name": "token",
          "type": "uint256"
        }
      ],
      "name": "tokenUri",
      "outputs": [
        {
          "internalType": "string",
          "name": "out",
          "type": "string"
        }
      ],
      "stateMutability": "view",
      "type": "function"
    },
    {
      "inputs": [],
      "name": "totalSupply",
      "outputs": [
        {
          "internalType": "uint256",
          "name": "",
          "type": "uint256"
        }
      ],
      "stateMutability": "view",
      "type": "function"
    },
    {
      "inputs": [
        {
          "internalType": "address",
          "name": "from",
          "type": "address"
        },
        {
          "internalType": "address",
          "name": "to",
          "type": "address"
        },
        {
          "internalType": "uint256",
          "name": "tokenId",
          "type": "uint256"
        }
      ],
      "name": "transferFrom",
      "outputs": [],
      "stateMutability": "nonpayable",
      "type": "function"
    },
    {
      "inputs": [
        {
          "internalType": "string",
          "name": "_s",
          "type": "string"
        }
      ],
      "name": "validateDomain",
      "outputs": [
        {
          "internalType": "bool",
          "name": "valid",
          "type": "bool"
        },
        {
          "internalType": "uint256",
          "name": "parent",
          "type": "uint256"
        },
        {
          "internalType": "string",
          "name": "domain",
          "type": "string"
        }
      ],
      "stateMutability": "pure",
      "type": "function"
    }
  ],
  "bytecode": "0x60806040523480156200001157600080fd5b5060405162004dfd38038062004dfd833981810160405281019062000037919062000cbb565b620000b36040518060400160405280601181526020017f5a657230204e616d6520536572766963650000000000000000000000000000008152506040518060400160405280600381526020017f5a4e5300000000000000000000000000000000000000000000000000000000008152506200017860201b60201c565b620000c6816000620002b860201b60201c565b60006097600080815260200190815260200160002090506040518060400160405280600381526020017f5a4e5300000000000000000000000000000000000000000000000000000000008152508160020190805190602001906200012c92919062000bee565b50818160030160006101000a81548173ffffffffffffffffffffffffffffffffffffffff021916908373ffffffffffffffffffffffffffffffffffffffff160217905550505062000d35565b600060019054906101000a900460ff1680620001a057506200019f620004cc60201b60201c565b5b80620001b7575060008054906101000a900460ff16155b6200020e576040517f08c379a000000000000000000000000000000000000000000000000000000000815260040180806020018281038252602e81526020018062004dcf602e913960400191505060405180910390fd5b60008060019054906101000a900460ff1615905080156200025f576001600060016101000a81548160ff02191690831515021790555060016000806101000a81548160ff0219169083151502179055505b6200026f620004e360201b60201c565b6200027f620005ef60201b60201c565b6200029183836200071360201b60201c565b8015620002b35760008060016101000a81548160ff0219169083151502179055505b505050565b600073ffffffffffffffffffffffffffffffffffffffff168273ffffffffffffffffffffffffffffffffffffffff1614156200035c576040517f08c379a00000000000000000000000000000000000000000000000000000000081526004018080602001828103825260208152602001807f4552433732313a206d696e7420746f20746865207a65726f206164647265737381525060200191505060405180910390fd5b6200036d816200089b60201b60201c565b15620003e1576040517f08c379a000000000000000000000000000000000000000000000000000000000815260040180806020018281038252601c8152602001807f4552433732313a20746f6b656e20616c7265616479206d696e7465640000000081525060200191505060405180910390fd5b620003f560008383620008bf60201b60201c565b6200044d81606560008573ffffffffffffffffffffffffffffffffffffffff1673ffffffffffffffffffffffffffffffffffffffff168152602001908152602001600020620008c460201b620014b21790919060201c565b506200046b81836066620008e660201b620014cc179092919060201c565b50808273ffffffffffffffffffffffffffffffffffffffff16600073ffffffffffffffffffffffffffffffffffffffff167fddf252ad1be2c89b69c2b068fc378daa952ba7f163c4a11628f55a4df523b3ef60405160405180910390a45050565b6000803090506000813b9050600081149250505090565b600060019054906101000a900460ff16806200050b57506200050a620004cc60201b60201c565b5b8062000522575060008054906101000a900460ff16155b62000579576040517f08c379a000000000000000000000000000000000000000000000000000000000815260040180806020018281038252602e81526020018062004dcf602e913960400191505060405180910390fd5b60008060019054906101000a900460ff161590508015620005ca576001600060016101000a81548160ff02191690831515021790555060016000806101000a81548160ff0219169083151502179055505b8015620005ec5760008060016101000a81548160ff0219169083151502179055505b50565b600060019054906101000a900460ff168062000617575062000616620004cc60201b60201c565b5b806200062e575060008054906101000a900460ff16155b62000685576040517f08c379a000000000000000000000000000000000000000000000000000000000815260040180806020018281038252602e81526020018062004dcf602e913960400191505060405180910390fd5b60008060019054906101000a900460ff161590508015620006d6576001600060016101000a81548160ff02191690831515021790555060016000806101000a81548160ff0219169083151502179055505b620006ee6301ffc9a760e01b6200092360201b60201c565b8015620007105760008060016101000a81548160ff0219169083151502179055505b50565b600060019054906101000a900460ff16806200073b57506200073a620004cc60201b60201c565b5b8062000752575060008054906101000a900460ff16155b620007a9576040517f08c379a000000000000000000000000000000000000000000000000000000000815260040180806020018281038252602e81526020018062004dcf602e913960400191505060405180910390fd5b60008060019054906101000a900460ff161590508015620007fa576001600060016101000a81548160ff02191690831515021790555060016000806101000a81548160ff0219169083151502179055505b82606a90805190602001906200081292919062000bee565b5081606b90805190602001906200082b92919062000bee565b50620008446380ac58cd60e01b6200092360201b60201c565b6200085c635b5e139f60e01b6200092360201b60201c565b6200087463780e9d6360e01b6200092360201b60201c565b8015620008965760008060016101000a81548160ff0219169083151502179055505b505050565b6000620008b882606662000a2d60201b620015011790919060201c565b9050919050565b505050565b6000620008de836000018360001b62000a4f60201b60201c565b905092915050565b60006200091a846000018460001b8473ffffffffffffffffffffffffffffffffffffffff1660001b62000ac960201b60201c565b90509392505050565b63ffffffff60e01b817bffffffffffffffffffffffffffffffffffffffffffffffffffffffff19161415620009c0576040517f08c379a000000000000000000000000000000000000000000000000000000000815260040180806020018281038252601c8152602001807f4552433136353a20696e76616c696420696e746572666163652069640000000081525060200191505060405180910390fd5b600160336000837bffffffffffffffffffffffffffffffffffffffffffffffffffffffff19167bffffffffffffffffffffffffffffffffffffffffffffffffffffffff1916815260200190815260200160002060006101000a81548160ff02191690831515021790555050565b600062000a47836000018360001b62000ba860201b60201c565b905092915050565b600062000a63838362000bcb60201b60201c565b62000abe57826000018290806001815401808255809150506001900390600052602060002001600090919091909150558260000180549050836001016000848152602001908152602001600020819055506001905062000ac3565b600090505b92915050565b600080846001016000858152602001908152602001600020549050600081141562000b725784600001604051806040016040528086815260200185815250908060018154018082558091505060019003906000526020600020906002020160009091909190915060008201518160000155602082015181600101555050846000018054905085600101600086815260200190815260200160002081905550600191505062000ba1565b8285600001600183038154811062000b8657fe5b90600052602060002090600202016001018190555060009150505b9392505050565b600080836001016000848152602001908152602001600020541415905092915050565b600080836001016000848152602001908152602001600020541415905092915050565b828054600181600116156101000203166002900490600052602060002090601f01602090048101928262000c26576000855562000c72565b82601f1062000c4157805160ff191683800117855562000c72565b8280016001018555821562000c72579182015b8281111562000c7157825182559160200191906001019062000c54565b5b50905062000c81919062000c85565b5090565b5b8082111562000ca057600081600090555060010162000c86565b5090565b60008151905062000cb58162000d1b565b92915050565b60006020828403121562000cce57600080fd5b600062000cde8482850162000ca4565b91505092915050565b600062000cf48262000cfb565b9050919050565b600073ffffffffffffffffffffffffffffffffffffffff82169050919050565b62000d268162000ce7565b811462000d3257600080fd5b50565b61408a8062000d456000396000f3fe608060405234801561001057600080fd5b506004361061014d5760003560e01c80636352211e116100c3578063b30906d41161007c578063b30906d4146103d6578063b88d4fde14610406578063c87b56dd14610422578063d4f5913414610452578063e985e9c514610482578063fb78fef1146104b25761014d565b80636352211e146102ee5780636c0360eb1461031e57806370a082311461033c57806395d89b411461036c578063a22cb4651461038a578063a4a183b0146103a65761014d565b806318160ddd1161011557806318160ddd1461021c57806323b872dd1461023a5780632f745c591461025657806342842e0e146102865780634f6ccce7146102a2578063573ea7b1146102d25761014d565b806301ffc9a71461015257806306fdde0314610182578063081812fc146101a0578063095ea7b3146101d05780631675f455146101ec575b600080fd5b61016c6004803603810190610167919061358e565b6104e4565b6040516101799190613a18565b60405180910390f35b61018a61054c565b6040516101979190613aa1565b60405180910390f35b6101ba60048036038101906101b59190613693565b6105ee565b6040516101c791906139fd565b60405180910390f35b6101ea60048036038101906101e59190613511565b610689565b005b61020660048036038101906102019190613693565b6107cd565b6040516102139190613aa1565b60405180910390f35b610224610813565b6040516102319190613ae5565b60405180910390f35b610254600480360381019061024f919061340b565b610824565b005b610270600480360381019061026b9190613511565b61089a565b60405161027d9190613ae5565b60405180910390f35b6102a0600480360381019061029b919061340b565b6108f5565b005b6102bc60048036038101906102b79190613693565b610915565b6040516102c99190613ae5565b60405180910390f35b6102ec60048036038101906102e791906135b7565b610938565b005b61030860048036038101906103039190613693565b61094e565b60405161031591906139fd565b60405180910390f35b610326610985565b6040516103339190613aa1565b60405180910390f35b610356600480360381019061035191906133a6565b610a27565b6040516103639190613ae5565b60405180910390f35b610374610afc565b6040516103819190613aa1565b60405180910390f35b6103a4600480360381019061039f91906134d5565b610b9e565b005b6103c060048036038101906103bb919061354d565b610d54565b6040516103cd91906139fd565b60405180910390f35b6103f060048036038101906103eb9190613693565b610d6e565b6040516103fd9190613ac3565b60405180910390f35b610420600480360381019061041b919061345a565b611031565b005b61043c60048036038101906104379190613693565b6110a9565b6040516104499190613aa1565b60405180910390f35b61046c6004803603810190610467919061354d565b611392565b6040516104799190613ae5565b60405180910390f35b61049c600480360381019061049791906133cf565b6113fd565b6040516104a99190613a18565b60405180910390f35b6104cc60048036038101906104c79190613652565b611491565b6040516104db93929190613a33565b60405180910390f35b600060336000837bffffffffffffffffffffffffffffffffffffffffffffffffffffffff19167bffffffffffffffffffffffffffffffffffffffffffffffffffffffff1916815260200190815260200160002060009054906101000a900460ff169050919050565b6060606a8054600181600116156101000203166002900480601f0160208091040260200160405190810160405280929190818152602001828054600181600116156101000203166002900480156105e45780601f106105b9576101008083540402835291602001916105e4565b820191906000526020600020905b8154815290600101906020018083116105c757829003601f168201915b5050505050905090565b60006105f98261151b565b61064e576040517f08c379a000000000000000000000000000000000000000000000000000000000815260040180806020018281038252602c815260200180613f7f602c913960400191505060405180910390fd5b6068600083815260200190815260200160002060009054906101000a900473ffffffffffffffffffffffffffffffffffffffff169050919050565b60006106948261094e565b90508073ffffffffffffffffffffffffffffffffffffffff168373ffffffffffffffffffffffffffffffffffffffff16141561071b576040517f08c379a00000000000000000000000000000000000000000000000000000000081526004018080602001828103825260218152602001806140036021913960400191505060405180910390fd5b8073ffffffffffffffffffffffffffffffffffffffff1661073a611538565b73ffffffffffffffffffffffffffffffffffffffff161480610769575061076881610763611538565b6113fd565b5b6107be576040517f08c379a0000000000000000000000000000000000000000000000000000000008152600401808060200182810382526038815260200180613ed26038913960400191505060405180910390fd5b6107c88383611540565b505050565b606061080c609760008481526020019081526020016000206001016040516020016107f891906139d0565b6040516020818303038152906040526115f9565b9050919050565b600061081f60666117ae565b905090565b61083561082f611538565b826117c3565b61088a576040517f08c379a00000000000000000000000000000000000000000000000000000000081526004018080602001828103825260318152602001806140246031913960400191505060405180910390fd5b6108958383836118b7565b505050565b60006108ed82606560008673ffffffffffffffffffffffffffffffffffffffff1673ffffffffffffffffffffffffffffffffffffffff16815260200190815260200160002061198f90919063ffffffff16565b905092915050565b61091083838360405180602001604052806000815250611031565b505050565b60008061092c8360666119a990919063ffffffff16565b50905080915050919050565b6109468686868686866119d5565b505050505050565b600061097e82604051806060016040528060298152602001613f34602991396066611b7c9092919063ffffffff16565b9050919050565b6060606d8054600181600116156101000203166002900480601f016020809104026020016040519081016040528092919081815260200182805460018160011615610100020316600290048015610a1d5780601f106109f257610100808354040283529160200191610a1d565b820191906000526020600020905b815481529060010190602001808311610a0057829003601f168201915b5050505050905090565b60008073ffffffffffffffffffffffffffffffffffffffff168273ffffffffffffffffffffffffffffffffffffffff161415610aae576040517f08c379a000000000000000000000000000000000000000000000000000000000815260040180806020018281038252602a815260200180613f0a602a913960400191505060405180910390fd5b610af5606560008473ffffffffffffffffffffffffffffffffffffffff1673ffffffffffffffffffffffffffffffffffffffff168152602001908152602001600020611b9b565b9050919050565b6060606b8054600181600116156101000203166002900480601f016020809104026020016040519081016040528092919081815260200182805460018160011615610100020316600290048015610b945780601f10610b6957610100808354040283529160200191610b94565b820191906000526020600020905b815481529060010190602001808311610b7757829003601f168201915b5050505050905090565b610ba6611538565b73ffffffffffffffffffffffffffffffffffffffff168273ffffffffffffffffffffffffffffffffffffffff161415610c47576040517f08c379a00000000000000000000000000000000000000000000000000000000081526004018080602001828103825260198152602001807f4552433732313a20617070726f766520746f2063616c6c65720000000000000081525060200191505060405180910390fd5b8060696000610c54611538565b73ffffffffffffffffffffffffffffffffffffffff1673ffffffffffffffffffffffffffffffffffffffff16815260200190815260200160002060008473ffffffffffffffffffffffffffffffffffffffff1673ffffffffffffffffffffffffffffffffffffffff16815260200190815260200160002060006101000a81548160ff0219169083151502179055508173ffffffffffffffffffffffffffffffffffffffff16610d01611538565b73ffffffffffffffffffffffffffffffffffffffff167f17307eab39ab6107e8899845ad3d59bd9653f200f220920489ca2b5937696c318360405180821515815260200191505060405180910390a35050565b6000610d67610d6283611392565b61094e565b9050919050565b610d766130a4565b6000609760008481526020019081526020016000209050610d968361094e565b826080019073ffffffffffffffffffffffffffffffffffffffff16908173ffffffffffffffffffffffffffffffffffffffff168152505080600001548260000181815250508060030160009054906101000a900473ffffffffffffffffffffffffffffffffffffffff16826060019073ffffffffffffffffffffffffffffffffffffffff16908173ffffffffffffffffffffffffffffffffffffffff1681525050806002018054600181600116156101000203166002900480601f016020809104026020016040519081016040528092919081815260200182805460018160011615610100020316600290048015610ecf5780601f10610ea457610100808354040283529160200191610ecf565b820191906000526020600020905b815481529060010190602001808311610eb257829003601f168201915b50505050508260200181905250806001018054600181600116156101000203166002900480601f016020809104026020016040519081016040528092919081815260200182805460018160011615610100020316600290048015610f745780601f10610f4957610100808354040283529160200191610f74565b820191906000526020600020905b815481529060010190602001808311610f5757829003601f168201915b50505050508260400181905250610f8d81600401611b9b565b67ffffffffffffffff81118015610fa357600080fd5b50604051908082528060200260200182016040528015610fd25781602001602082028036833780820191505090505b508260a0018190525060005b8260a001515181101561102a57611001818360040161198f90919063ffffffff16565b8360a00151828151811061101157fe5b6020026020010181815250508080600101915050610fde565b5050919050565b61104261103c611538565b836117c3565b611097576040517f08c379a00000000000000000000000000000000000000000000000000000000081526004018080602001828103825260318152602001806140246031913960400191505060405180910390fd5b6110a384848484611bb0565b50505050565b60606110b48261151b565b611109576040517f08c379a000000000000000000000000000000000000000000000000000000000815260040180806020018281038252602f815260200180613fd4602f913960400191505060405180910390fd5b6000606c60008481526020019081526020016000208054600181600116156101000203166002900480601f0160208091040260200160405190810160405280929190818152602001828054600181600116156101000203166002900480156111b25780601f10611187576101008083540402835291602001916111b2565b820191906000526020600020905b81548152906001019060200180831161119557829003601f168201915b505050505090506000606d80546001816001161561010002031660029004905014156111e1578091505061138d565b6000815111156112ba57606d81604051602001808380546001816001161561010002031660029004801561124c5780601f1061122a57610100808354040283529182019161124c565b820191906000526020600020905b815481529060010190602001808311611238575b505082805190602001908083835b6020831061127d578051825260208201915060208101905060208303925061125a565b6001836020036101000a0380198251168184511680821785525050505050509050019250505060405160208183030381529060405291505061138d565b606d6112c584611c22565b60405160200180838054600181600116156101000203166002900480156113235780601f10611301576101008083540402835291820191611323565b820191906000526020600020905b81548152906001019060200180831161130f575b505082805190602001908083835b602083106113545780518252602082019150602081019050602083039250611331565b6001836020036101000a038019825116818451168082178552505050505050905001925050506040516020818303038152906040529150505b919050565b6000806000905060005b83518110156113f057818482815181106113b257fe5b60200260200101516040516020016113cb929190613a71565b604051602081830303815290604052805190602001209150808060010191505061139c565b508060001c915050919050565b6000606960008473ffffffffffffffffffffffffffffffffffffffff1673ffffffffffffffffffffffffffffffffffffffff16815260200190815260200160002060008373ffffffffffffffffffffffffffffffffffffffff1673ffffffffffffffffffffffffffffffffffffffff16815260200190815260200160002060009054906101000a900460ff16905092915050565b600080606061149f84611d69565b8093508194508295505050509193909250565b60006114c4836000018360001b612058565b905092915050565b60006114f8846000018460001b8473ffffffffffffffffffffffffffffffffffffffff1660001b6120c8565b90509392505050565b6000611513836000018360001b6121a4565b905092915050565b600061153182606661150190919063ffffffff16565b9050919050565b600033905090565b816068600083815260200190815260200160002060006101000a81548173ffffffffffffffffffffffffffffffffffffffff021916908373ffffffffffffffffffffffffffffffffffffffff160217905550808273ffffffffffffffffffffffffffffffffffffffff166115b38361094e565b73ffffffffffffffffffffffffffffffffffffffff167f8c5be1e5ebec7d5bd14f71427d1e84f3dd0314c0f7b2291e5b200ac8c7c3b92560405160405180910390a45050565b606060008290506117a66040518060400160405280600481526020017f01551220000000000000000000000000000000000000000000000000000000008152506002836040518082805190602001908083835b6020831061166f578051825260208201915060208101905060208303925061164c565b6001836020036101000a038019825116818451168082178552505050505050905001915050602060405180830381855afa1580156116b1573d6000803e3d6000fd5b5050506040513d60208110156116c657600080fd5b81019080805190602001909291905050506040516020018083805190602001908083835b6020831061170d57805182526020820191506020810190506020830392506116ea565b6001836020036101000a0380198251168184511680821785525050505050509050018281526020019250505060405160208183030381529060405260056040518060400160405280602081526020017f6162636465666768696a6b6c6d6e6f707172737475767778797a3233343536378152507f62000000000000000000000000000000000000000000000000000000000000006121c7565b915050919050565b60006117bc826000016123cb565b9050919050565b60006117ce8261151b565b611823576040517f08c379a000000000000000000000000000000000000000000000000000000000815260040180806020018281038252602c815260200180613ea6602c913960400191505060405180910390fd5b600061182e8361094e565b90508073ffffffffffffffffffffffffffffffffffffffff168473ffffffffffffffffffffffffffffffffffffffff16148061189d57508373ffffffffffffffffffffffffffffffffffffffff16611885846105ee565b73ffffffffffffffffffffffffffffffffffffffff16145b806118ae57506118ad81856113fd565b5b91505092915050565b6118c08161094e565b73ffffffffffffffffffffffffffffffffffffffff166097600083815260200190815260200160002060030160009054906101000a900473ffffffffffffffffffffffffffffffffffffffff1673ffffffffffffffffffffffffffffffffffffffff16141561197f57816097600083815260200190815260200160002060030160006101000a81548173ffffffffffffffffffffffffffffffffffffffff021916908373ffffffffffffffffffffffffffffffffffffffff1602179055505b61198a8383836123dc565b505050565b600061199e836000018361261f565b60001c905092915050565b6000806000806119bc86600001866126a2565b915091508160001c8160001c9350935050509250929050565b6000806000611a2789898080601f016020809104026020016040519081016040528093929190818152602001838380828437600081840152601f19601f82011690508083019250505050505050611d69565b925092509250611a368261273b565b60008282604051602001611a4b929190613b65565b6040516020818303038152906040528051906020012060001c9050611a70888261277e565b611a9881609760008681526020019081526020016000206004016114b290919063ffffffff16565b611aa157600080fd5b60006097600083815260200190815260200160002090508381600001819055508686826002019190611ad4929190613106565b508a8a826001019190611ae8929190613106565b50878160030160006101000a81548173ffffffffffffffffffffffffffffffffffffffff021916908373ffffffffffffffffffffffffffffffffffffffff1602179055507f9e14f5eca5018837bf68e2f1854977988bca6fc66f09ba831cd8bada37e848ba848c8c8c8c8c8c604051611b679796959493929190613b00565b60405180910390a15050505050505050505050565b6000611b8f846000018460001b84612972565b60001c90509392505050565b6000611ba982600001612a68565b9050919050565b611bbb8484846118b7565b611bc784848484612a79565b611c1c576040517f08c379a0000000000000000000000000000000000000000000000000000000008152600401808060200182810382526032815260200180613e2a6032913960400191505060405180910390fd5b50505050565b60606000821415611c6a576040518060400160405280600181526020017f30000000000000000000000000000000000000000000000000000000000000008152509050611d64565b600082905060005b60008214611c94578080600101915050600a8281611c8c57fe5b049150611c72565b60008167ffffffffffffffff81118015611cad57600080fd5b506040519080825280601f01601f191660200182016040528015611ce05781602001600182028036833780820191505090505b50905060006001830390508593505b60008414611d5c57600a8481611d0157fe5b0660300160f81b82828060019003935081518110611d1b57fe5b60200101907effffffffffffffffffffffffffffffffffffffffffffffffffffffffffffff1916908160001a905350600a8481611d5457fe5b049350611cef565b819450505050505b919050565b600080606060008060606000602088019050600081905060008951905060606000808386019050600080865191505b828711611fd257605c60f81b7effffffffffffffffffffffffffffffffffffffffffffffffffffffffffffff1916827effffffffffffffffffffffffffffffffffffffffffffffffffffffffffffff19161415611e3e576000806040518060400160405280600981526020017f71756f74656361736500000000000000000000000000000000000000000000008152509d509d509d505050505050505050505050612051565b602e8260f81c60ff161415611f515760018888030390508067ffffffffffffffff81118015611e6c57600080fd5b506040519080825280601f01601f191660200182016040528015611e9f5781602001600182028036833780820191505090505b509450602085019350611eb3848983612c92565b89856040516020018083815260200180602001828103825283818151815260200191508051906020019080838360005b83811015611efe578082015181840152602081019050611ee3565b50505050905090810190601f168015611f2b5780820380516001836020036101000a031916815260200191505b509350505050604051602081830303815290604052805190602001209950869750611fc1565b60618260f81c60ff161080611f6c5750607a8260f81c60ff16115b15611fc0576000806040518060400160405280601281526020017f6661696c206e6f74206c6f7765726361736500000000000000000000000000008152509d509d509d505050505050505050505050612051565b5b865191508680600101975050611d98565b60018888030390508067ffffffffffffffff81118015611ff157600080fd5b506040519080825280601f01601f1916602001820160405280156120245781602001600182028036833780820191505090505b509450602085019350612038848983612c92565b60018a60001c869d509d509d5050505050505050505050505b9193909250565b60006120648383612cdb565b6120bd5782600001829080600181540180825580915050600190039060005260206000200160009091909190915055826000018054905083600101600084815260200190815260200160002081905550600190506120c2565b600090505b92915050565b600080846001016000858152602001908152602001600020549050600081141561216f5784600001604051806040016040528086815260200185815250908060018154018082558091505060019003906000526020600020906002020160009091909190915060008201518160000155602082015181600101555050846000018054905085600101600086815260200190815260200160002081905550600191505061219d565b8285600001600183038154811061218257fe5b90600052602060002090600202016001018190555060009150505b9392505050565b600080836001016000848152602001908152602001600020541415905092915050565b60606000600886510290506000808683816121de57fe5b06146121eb5760026121ee565b60015b60ff168683816121fa57fe5b0401905060008167ffffffffffffffff8111801561221757600080fd5b506040519080825280601f01601f19166020018201604052801561224a5781602001600182028036833780820191505090505b50905060006001886001901b039050600080878460008151811061226a57fe5b60200101907effffffffffffffffffffffffffffffffffffffffffffffffffffffffffffff1916908160001a90535060006001905060005b8c51811015612355578c81815181106122b757fe5b602001015160f81c60f81b60f81c60ff16600884901b1792506008840193505b8b841115612348578b840393508a8484901c8616815181106122f557fe5b602001015160f81c60f81b86838151811061230c57fe5b60200101907effffffffffffffffffffffffffffffffffffffffffffffffffffffffffffff1916908160001a90535081806001019250506122d7565b80806001019150506122a2565b5060008311156123b95789838c0383901b85168151811061237257fe5b602001015160f81c60f81b85828151811061238957fe5b60200101907effffffffffffffffffffffffffffffffffffffffffffffffffffffffffffff1916908160001a9053505b84975050505050505050949350505050565b600081600001805490509050919050565b8273ffffffffffffffffffffffffffffffffffffffff166123fc8261094e565b73ffffffffffffffffffffffffffffffffffffffff1614612468576040517f08c379a0000000000000000000000000000000000000000000000000000000008152600401808060200182810382526029815260200180613fab6029913960400191505060405180910390fd5b600073ffffffffffffffffffffffffffffffffffffffff168273ffffffffffffffffffffffffffffffffffffffff1614156124ee576040517f08c379a0000000000000000000000000000000000000000000000000000000008152600401808060200182810382526024815260200180613e5c6024913960400191505060405180910390fd5b6124f9838383612cfe565b612504600082611540565b61255581606560008673ffffffffffffffffffffffffffffffffffffffff1673ffffffffffffffffffffffffffffffffffffffff168152602001908152602001600020612d0390919063ffffffff16565b506125a781606560008573ffffffffffffffffffffffffffffffffffffffff1673ffffffffffffffffffffffffffffffffffffffff1681526020019081526020016000206114b290919063ffffffff16565b506125be818360666114cc9092919063ffffffff16565b50808273ffffffffffffffffffffffffffffffffffffffff168473ffffffffffffffffffffffffffffffffffffffff167fddf252ad1be2c89b69c2b068fc378daa952ba7f163c4a11628f55a4df523b3ef60405160405180910390a4505050565b600081836000018054905011612680576040517f08c379a0000000000000000000000000000000000000000000000000000000008152600401808060200182810382526022815260200180613e086022913960400191505060405180910390fd5b82600001828154811061268f57fe5b9060005260206000200154905092915050565b60008082846000018054905011612704576040517f08c379a0000000000000000000000000000000000000000000000000000000008152600401808060200182810382526022815260200180613f5d6022913960400191505060405180910390fd5b600084600001848154811061271557fe5b906000526020600020906002020190508060000154816001015492509250509250929050565b3373ffffffffffffffffffffffffffffffffffffffff1661275b8261094e565b73ffffffffffffffffffffffffffffffffffffffff161461277b57600080fd5b50565b600073ffffffffffffffffffffffffffffffffffffffff168273ffffffffffffffffffffffffffffffffffffffff161415612821576040517f08c379a00000000000000000000000000000000000000000000000000000000081526004018080602001828103825260208152602001807f4552433732313a206d696e7420746f20746865207a65726f206164647265737381525060200191505060405180910390fd5b61282a8161151b565b1561289d576040517f08c379a000000000000000000000000000000000000000000000000000000000815260040180806020018281038252601c8152602001807f4552433732313a20746f6b656e20616c7265616479206d696e7465640000000081525060200191505060405180910390fd5b6128a960008383612cfe565b6128fa81606560008573ffffffffffffffffffffffffffffffffffffffff1673ffffffffffffffffffffffffffffffffffffffff1681526020019081526020016000206114b290919063ffffffff16565b50612911818360666114cc9092919063ffffffff16565b50808273ffffffffffffffffffffffffffffffffffffffff16600073ffffffffffffffffffffffffffffffffffffffff167fddf252ad1be2c89b69c2b068fc378daa952ba7f163c4a11628f55a4df523b3ef60405160405180910390a45050565b60008084600101600085815260200190815260200160002054905060008114158390612a39576040517f08c379a00000000000000000000000000000000000000000000000000000000081526004018080602001828103825283818151815260200191508051906020019080838360005b838110156129fe5780820151818401526020810190506129e3565b50505050905090810190601f168015612a2b5780820380516001836020036101000a031916815260200191505b509250505060405180910390fd5b50846000016001820381548110612a4c57fe5b9060005260206000209060020201600101549150509392505050565b600081600001805490509050919050565b6000612a9a8473ffffffffffffffffffffffffffffffffffffffff16612d1d565b612aa75760019050612c8a565b6000612c1163150b7a0260e01b612abc611538565b888787604051602401808573ffffffffffffffffffffffffffffffffffffffff1681526020018473ffffffffffffffffffffffffffffffffffffffff16815260200183815260200180602001828103825283818151815260200191508051906020019080838360005b83811015612b40578082015181840152602081019050612b25565b50505050905090810190601f168015612b6d5780820380516001836020036101000a031916815260200191505b5095505050505050604051602081830303815290604052907bffffffffffffffffffffffffffffffffffffffffffffffffffffffff19166020820180517bffffffffffffffffffffffffffffffffffffffffffffffffffffffff8381831617835250505050604051806060016040528060328152602001613e2a603291398773ffffffffffffffffffffffffffffffffffffffff16612d309092919063ffffffff16565b90506000818060200190516020811015612c2a57600080fd5b8101908080519060200190929190505050905063150b7a0260e01b7bffffffffffffffffffffffffffffffffffffffffffffffffffffffff1916817bffffffffffffffffffffffffffffffffffffffffffffffffffffffff191614925050505b949350505050565b5b60208110612cb65781518352602083019250602082019150602081039050612c93565b60006001826020036101000a0390508019835116818551168181178652505050505050565b600080836001016000848152602001908152602001600020541415905092915050565b505050565b6000612d15836000018360001b612d48565b905092915050565b600080823b905060008111915050919050565b6060612d3f8484600085612e30565b90509392505050565b60008083600101600084815260200190815260200160002054905060008114612e245760006001820390506000600186600001805490500390506000866000018281548110612d9357fe5b9060005260206000200154905080876000018481548110612db057fe5b9060005260206000200181905550600183018760010160008381526020019081526020016000208190555086600001805480612de857fe5b60019003818190600052602060002001600090559055866001016000878152602001908152602001600020600090556001945050505050612e2a565b60009150505b92915050565b606082471015612e8b576040517f08c379a0000000000000000000000000000000000000000000000000000000008152600401808060200182810382526026815260200180613e806026913960400191505060405180910390fd5b612e9485612d1d565b612f06576040517f08c379a000000000000000000000000000000000000000000000000000000000815260040180806020018281038252601d8152602001807f416464726573733a2063616c6c20746f206e6f6e2d636f6e747261637400000081525060200191505060405180910390fd5b6000808673ffffffffffffffffffffffffffffffffffffffff1685876040518082805190602001908083835b60208310612f555780518252602082019150602081019050602083039250612f32565b6001836020036101000a03801982511681845116808217855250505050505090500191505060006040518083038185875af1925050503d8060008114612fb7576040519150601f19603f3d011682016040523d82523d6000602084013e612fbc565b606091505b5091509150612fcc828286612fd8565b92505050949350505050565b60608315612fe85782905061309d565b600083511115612ffb5782518084602001fd5b816040517f08c379a00000000000000000000000000000000000000000000000000000000081526004018080602001828103825283818151815260200191508051906020019080838360005b83811015613062578082015181840152602081019050613047565b50505050905090810190601f16801561308f5780820380516001836020036101000a031916815260200191505b509250505060405180910390fd5b9392505050565b6040518060c00160405280600081526020016060815260200160608152602001600073ffffffffffffffffffffffffffffffffffffffff168152602001600073ffffffffffffffffffffffffffffffffffffffff168152602001606081525090565b828054600181600116156101000203166002900490600052602060002090601f01602090048101928261313c5760008555613183565b82601f1061315557803560ff1916838001178555613183565b82800160010185558215613183579182015b82811115613182578235825591602001919060010190613167565b5b5090506131909190613194565b5090565b5b808211156131ad576000816000905550600101613195565b5090565b60006131c46131bf84613bc6565b613b95565b9050808382526020820190508260005b8581101561320457813585016131ea8882613367565b8452602084019350602083019250506001810190506131d4565b5050509392505050565b600061322161321c84613bf2565b613b95565b90508281526020810184848401111561323957600080fd5b613244848285613d56565b509392505050565b600061325f61325a84613c22565b613b95565b90508281526020810184848401111561327757600080fd5b613282848285613d56565b509392505050565b60008135905061329981613dab565b92915050565b600082601f8301126132b057600080fd5b81356132c08482602086016131b1565b91505092915050565b6000813590506132d881613dc2565b92915050565b6000813590506132ed81613dd9565b92915050565b600082601f83011261330457600080fd5b813561331484826020860161320e565b91505092915050565b60008083601f84011261332f57600080fd5b8235905067ffffffffffffffff81111561334857600080fd5b60208301915083600182028301111561336057600080fd5b9250929050565b600082601f83011261337857600080fd5b813561338884826020860161324c565b91505092915050565b6000813590506133a081613df0565b92915050565b6000602082840312156133b857600080fd5b60006133c68482850161328a565b91505092915050565b600080604083850312156133e257600080fd5b60006133f08582860161328a565b92505060206134018582860161328a565b9150509250929050565b60008060006060848603121561342057600080fd5b600061342e8682870161328a565b935050602061343f8682870161328a565b925050604061345086828701613391565b9150509250925092565b6000806000806080858703121561347057600080fd5b600061347e8782880161328a565b945050602061348f8782880161328a565b93505060406134a087828801613391565b925050606085013567ffffffffffffffff8111156134bd57600080fd5b6134c9878288016132f3565b91505092959194509250565b600080604083850312156134e857600080fd5b60006134f68582860161328a565b9250506020613507858286016132c9565b9150509250929050565b6000806040838503121561352457600080fd5b60006135328582860161328a565b925050602061354385828601613391565b9150509250929050565b60006020828403121561355f57600080fd5b600082013567ffffffffffffffff81111561357957600080fd5b6135858482850161329f565b91505092915050565b6000602082840312156135a057600080fd5b60006135ae848285016132de565b91505092915050565b600080600080600080608087890312156135d057600080fd5b600087013567ffffffffffffffff8111156135ea57600080fd5b6135f689828a0161331d565b9650965050602061360989828a0161328a565b945050604061361a89828a0161328a565b935050606087013567ffffffffffffffff81111561363757600080fd5b61364389828a0161331d565b92509250509295509295509295565b60006020828403121561366457600080fd5b600082013567ffffffffffffffff81111561367e57600080fd5b61368a84828501613367565b91505092915050565b6000602082840312156136a557600080fd5b60006136b384828501613391565b91505092915050565b60006136c883836139b2565b60208301905092915050565b6136dd81613cd8565b82525050565b6136ec81613cd8565b82525050565b60006136fd82613c77565b6137078185613c9a565b935061371283613c52565b8060005b8381101561374357815161372a88826136bc565b975061373583613c8d565b925050600181019050613716565b5085935050505092915050565b61375981613cea565b82525050565b61376881613cf6565b82525050565b600061377a8385613cbc565b9350613787838584613d56565b61379083613d9a565b840190509392505050565b60006137a682613c82565b6137b08185613cab565b93506137c0818560208601613d65565b6137c981613d9a565b840191505092915050565b60006137df82613c82565b6137e98185613cbc565b93506137f9818560208601613d65565b61380281613d9a565b840191505092915050565b60008154600181166000811461382a576001811461384f57613893565b607f600283041661383b8187613ccd565b955060ff1983168652808601935050613893565b6002820461385d8187613ccd565b955061386885613c62565b60005b8281101561388a5781548189015260018201915060208101905061386b565b82880195505050505b505092915050565b60006138a8600983613ccd565b91507f7b226e616d65223a2200000000000000000000000000000000000000000000006000830152600982019050919050565b60006138e8600283613ccd565b91507f227d0000000000000000000000000000000000000000000000000000000000006000830152600282019050919050565b600060c08301600083015161393360008601826139b2565b506020830151848203602086015261394b828261379b565b91505060408301518482036040860152613965828261379b565b915050606083015161397a60608601826136d4565b50608083015161398d60808601826136d4565b5060a083015184820360a08601526139a582826136f2565b9150508091505092915050565b6139bb81613d4c565b82525050565b6139ca81613d4c565b82525050565b60006139db8261389b565b91506139e7828461380d565b91506139f2826138db565b915081905092915050565b6000602082019050613a1260008301846136e3565b92915050565b6000602082019050613a2d6000830184613750565b92915050565b6000606082019050613a486000830186613750565b613a5560208301856139c1565b8181036040830152613a6781846137d4565b9050949350505050565b6000604082019050613a86600083018561375f565b8181036020830152613a9881846137d4565b90509392505050565b60006020820190508181036000830152613abb81846137d4565b905092915050565b60006020820190508181036000830152613add818461391b565b905092915050565b6000602082019050613afa60008301846139c1565b92915050565b600060a082019050613b15600083018a6139c1565b8181036020830152613b2881888a61376e565b9050613b3760408301876136e3565b613b4460608301866136e3565b8181036080830152613b5781848661376e565b905098975050505050505050565b6000604082019050613b7a60008301856139c1565b8181036020830152613b8c81846137d4565b90509392505050565b6000604051905081810181811067ffffffffffffffff82111715613bbc57613bbb613d98565b5b8060405250919050565b600067ffffffffffffffff821115613be157613be0613d98565b5b602082029050602081019050919050565b600067ffffffffffffffff821115613c0d57613c0c613d98565b5b601f19601f8301169050602081019050919050565b600067ffffffffffffffff821115613c3d57613c3c613d98565b5b601f19601f8301169050602081019050919050565b6000819050602082019050919050565b60008190508160005260206000209050919050565b600081519050919050565b600081519050919050565b6000602082019050919050565b600082825260208201905092915050565b600082825260208201905092915050565b600082825260208201905092915050565b600081905092915050565b6000613ce382613d2c565b9050919050565b60008115159050919050565b6000819050919050565b60007fffffffff0000000000000000000000000000000000000000000000000000000082169050919050565b600073ffffffffffffffffffffffffffffffffffffffff82169050919050565b6000819050919050565b82818337600083830152505050565b60005b83811015613d83578082015181840152602081019050613d68565b83811115613d92576000848401525b50505050565bfe5b6000601f19601f8301169050919050565b613db481613cd8565b8114613dbf57600080fd5b50565b613dcb81613cea565b8114613dd657600080fd5b50565b613de281613d00565b8114613ded57600080fd5b50565b613df981613d4c565b8114613e0457600080fd5b5056fe456e756d657261626c655365743a20696e646578206f7574206f6620626f756e64734552433732313a207472616e7366657220746f206e6f6e20455243373231526563656976657220696d706c656d656e7465724552433732313a207472616e7366657220746f20746865207a65726f2061646472657373416464726573733a20696e73756666696369656e742062616c616e636520666f722063616c6c4552433732313a206f70657261746f7220717565727920666f72206e6f6e6578697374656e7420746f6b656e4552433732313a20617070726f76652063616c6c6572206973206e6f74206f776e6572206e6f7220617070726f76656420666f7220616c6c4552433732313a2062616c616e636520717565727920666f7220746865207a65726f20616464726573734552433732313a206f776e657220717565727920666f72206e6f6e6578697374656e7420746f6b656e456e756d657261626c654d61703a20696e646578206f7574206f6620626f756e64734552433732313a20617070726f76656420717565727920666f72206e6f6e6578697374656e7420746f6b656e4552433732313a207472616e73666572206f6620746f6b656e2074686174206973206e6f74206f776e4552433732314d657461646174613a2055524920717565727920666f72206e6f6e6578697374656e7420746f6b656e4552433732313a20617070726f76616c20746f2063757272656e74206f776e65724552433732313a207472616e736665722063616c6c6572206973206e6f74206f776e6572206e6f7220617070726f766564a264697066735822122070800f637b178395776d3bde6df55646eb7df130ad3d7d422b6eb2e6ad482ca864736f6c63430007060033496e697469616c697a61626c653a20636f6e747261637420697320616c726561647920696e697469616c697a6564",
  "linkReferences": {},
  "deployedLinkReferences": {}
}