{
  "_format": "hh-sol-artifact-1",
  "contractName": "Registrar",
  "sourceName": "contracts/Registrar.sol",
  "abi": [
    {
      "inputs": [
        {
          "internalType": "address",
          "name": "_owner",
          "type": "address"
        },
        {
          "internalType": "address",
          "name": "_controller",
          "type": "address"
        }
      ],
      "stateMutability": "nonpayable",
      "type": "constructor"
    },
    {
      "anonymous": false,
      "inputs": [
        {
          "indexed": true,
          "internalType": "address",
          "name": "owner",
          "type": "address"
        },
        {
          "indexed": true,
          "internalType": "address",
          "name": "approved",
          "type": "address"
        },
        {
          "indexed": true,
          "internalType": "uint256",
          "name": "tokenId",
          "type": "uint256"
        }
      ],
      "name": "Approval",
      "type": "event"
    },
    {
      "anonymous": false,
      "inputs": [
        {
          "indexed": true,
          "internalType": "address",
          "name": "owner",
          "type": "address"
        },
        {
          "indexed": true,
          "internalType": "address",
          "name": "operator",
          "type": "address"
        },
        {
          "indexed": false,
          "internalType": "bool",
          "name": "approved",
          "type": "bool"
        }
      ],
      "name": "ApprovalForAll",
      "type": "event"
    },
    {
      "anonymous": false,
      "inputs": [
        {
          "indexed": true,
          "internalType": "uint256",
          "name": "parentId",
          "type": "uint256"
        },
        {
          "indexed": false,
          "internalType": "uint256",
          "name": "tokenId",
          "type": "uint256"
        },
        {
          "indexed": false,
          "internalType": "string",
          "name": "domain",
          "type": "string"
        },
        {
          "indexed": false,
          "internalType": "address",
          "name": "_owner",
          "type": "address"
        },
        {
          "indexed": false,
          "internalType": "address",
          "name": "_controller",
          "type": "address"
        },
        {
          "indexed": false,
          "internalType": "string",
          "name": "_ref",
          "type": "string"
        }
      ],
      "name": "DomainCreated",
      "type": "event"
    },
    {
      "anonymous": false,
      "inputs": [
        {
          "indexed": true,
          "internalType": "address",
          "name": "from",
          "type": "address"
        },
        {
          "indexed": true,
          "internalType": "address",
          "name": "to",
          "type": "address"
        },
        {
          "indexed": true,
          "internalType": "uint256",
          "name": "tokenId",
          "type": "uint256"
        }
      ],
      "name": "Transfer",
      "type": "event"
    },
    {
      "inputs": [
        {
          "internalType": "address",
          "name": "to",
          "type": "address"
        },
        {
          "internalType": "uint256",
          "name": "tokenId",
          "type": "uint256"
        }
      ],
      "name": "approve",
      "outputs": [],
      "stateMutability": "nonpayable",
      "type": "function"
    },
    {
      "inputs": [
        {
          "internalType": "address",
          "name": "owner",
          "type": "address"
        }
      ],
      "name": "balanceOf",
      "outputs": [
        {
          "internalType": "uint256",
          "name": "",
          "type": "uint256"
        }
      ],
      "stateMutability": "view",
      "type": "function"
    },
    {
      "inputs": [],
      "name": "baseURI",
      "outputs": [
        {
          "internalType": "string",
          "name": "",
          "type": "string"
        }
      ],
      "stateMutability": "view",
      "type": "function"
    },
    {
      "inputs": [
        {
          "internalType": "string",
          "name": "domain",
          "type": "string"
        },
        {
          "internalType": "address",
          "name": "_owner",
          "type": "address"
        },
        {
          "internalType": "address",
          "name": "_controller",
          "type": "address"
        },
        {
          "internalType": "string",
          "name": "_ref",
          "type": "string"
        }
      ],
      "name": "createDomain",
      "outputs": [],
      "stateMutability": "nonpayable",
      "type": "function"
    },
    {
      "inputs": [
        {
          "internalType": "uint256",
          "name": "id",
          "type": "uint256"
        }
      ],
      "name": "entries",
      "outputs": [
        {
          "components": [
            {
              "internalType": "uint256",
              "name": "parent",
              "type": "uint256"
            },
            {
              "internalType": "string",
              "name": "ref",
              "type": "string"
            },
            {
              "internalType": "string",
              "name": "domain",
              "type": "string"
            },
            {
              "internalType": "address",
              "name": "controller",
              "type": "address"
            },
            {
              "internalType": "address",
              "name": "owner",
              "type": "address"
            },
            {
              "internalType": "uint256[]",
              "name": "children",
              "type": "uint256[]"
            }
          ],
          "internalType": "struct Registrar.EntryView",
          "name": "out",
          "type": "tuple"
        }
      ],
      "stateMutability": "view",
      "type": "function"
    },
    {
      "inputs": [
        {
          "internalType": "uint256",
          "name": "tokenId",
          "type": "uint256"
        }
      ],
      "name": "getApproved",
      "outputs": [
        {
          "internalType": "address",
          "name": "",
          "type": "address"
        }
      ],
      "stateMutability": "view",
      "type": "function"
    },
    {
      "inputs": [
        {
          "internalType": "string[]",
          "name": "path",
          "type": "string[]"
        }
      ],
      "name": "getId",
      "outputs": [
        {
          "internalType": "uint256",
          "name": "",
          "type": "uint256"
        }
      ],
      "stateMutability": "pure",
      "type": "function"
    },
    {
      "inputs": [
        {
          "internalType": "string[]",
          "name": "path",
          "type": "string[]"
        }
      ],
      "name": "getOwner",
      "outputs": [
        {
          "internalType": "address",
          "name": "",
          "type": "address"
        }
      ],
      "stateMutability": "view",
      "type": "function"
    },
    {
      "inputs": [
        {
          "internalType": "address",
          "name": "owner",
          "type": "address"
        },
        {
          "internalType": "address",
          "name": "operator",
          "type": "address"
        }
      ],
      "name": "isApprovedForAll",
      "outputs": [
        {
          "internalType": "bool",
          "name": "",
          "type": "bool"
        }
      ],
      "stateMutability": "view",
      "type": "function"
    },
    {
      "inputs": [],
      "name": "name",
      "outputs": [
        {
          "internalType": "string",
          "name": "",
          "type": "string"
        }
      ],
      "stateMutability": "view",
      "type": "function"
    },
    {
      "inputs": [
        {
          "internalType": "uint256",
          "name": "tokenId",
          "type": "uint256"
        }
      ],
      "name": "ownerOf",
      "outputs": [
        {
          "internalType": "address",
          "name": "",
          "type": "address"
        }
      ],
      "stateMutability": "view",
      "type": "function"
    },
    {
      "inputs": [
        {
          "internalType": "address",
          "name": "from",
          "type": "address"
        },
        {
          "internalType": "address",
          "name": "to",
          "type": "address"
        },
        {
          "internalType": "uint256",
          "name": "tokenId",
          "type": "uint256"
        }
      ],
      "name": "safeTransferFrom",
      "outputs": [],
      "stateMutability": "nonpayable",
      "type": "function"
    },
    {
      "inputs": [
        {
          "internalType": "address",
          "name": "from",
          "type": "address"
        },
        {
          "internalType": "address",
          "name": "to",
          "type": "address"
        },
        {
          "internalType": "uint256",
          "name": "tokenId",
          "type": "uint256"
        },
        {
          "internalType": "bytes",
          "name": "_data",
          "type": "bytes"
        }
      ],
      "name": "safeTransferFrom",
      "outputs": [],
      "stateMutability": "nonpayable",
      "type": "function"
    },
    {
      "inputs": [
        {
          "internalType": "address",
          "name": "operator",
          "type": "address"
        },
        {
          "internalType": "bool",
          "name": "approved",
          "type": "bool"
        }
      ],
      "name": "setApprovalForAll",
      "outputs": [],
      "stateMutability": "nonpayable",
      "type": "function"
    },
    {
      "inputs": [
        {
          "internalType": "bytes4",
          "name": "interfaceId",
          "type": "bytes4"
        }
      ],
      "name": "supportsInterface",
      "outputs": [
        {
          "internalType": "bool",
          "name": "",
          "type": "bool"
        }
      ],
      "stateMutability": "view",
      "type": "function"
    },
    {
      "inputs": [],
      "name": "symbol",
      "outputs": [
        {
          "internalType": "string",
          "name": "",
          "type": "string"
        }
      ],
      "stateMutability": "view",
      "type": "function"
    },
    {
      "inputs": [
        {
          "internalType": "uint256",
          "name": "index",
          "type": "uint256"
        }
      ],
      "name": "tokenByIndex",
      "outputs": [
        {
          "internalType": "uint256",
          "name": "",
          "type": "uint256"
        }
      ],
      "stateMutability": "view",
      "type": "function"
    },
    {
      "inputs": [
        {
          "internalType": "address",
          "name": "owner",
          "type": "address"
        },
        {
          "internalType": "uint256",
          "name": "index",
          "type": "uint256"
        }
      ],
      "name": "tokenOfOwnerByIndex",
      "outputs": [
        {
          "internalType": "uint256",
          "name": "",
          "type": "uint256"
        }
      ],
      "stateMutability": "view",
      "type": "function"
    },
    {
      "inputs": [
        {
          "internalType": "uint256",
          "name": "token",
          "type": "uint256"
        }
      ],
      "name": "tokenURI",
      "outputs": [
        {
          "internalType": "string",
          "name": "out",
          "type": "string"
        }
      ],
      "stateMutability": "view",
      "type": "function"
    },
    {
      "inputs": [],
      "name": "totalSupply",
      "outputs": [
        {
          "internalType": "uint256",
          "name": "",
          "type": "uint256"
        }
      ],
      "stateMutability": "view",
      "type": "function"
    },
    {
      "inputs": [
        {
          "internalType": "address",
          "name": "from",
          "type": "address"
        },
        {
          "internalType": "address",
          "name": "to",
          "type": "address"
        },
        {
          "internalType": "uint256",
          "name": "tokenId",
          "type": "uint256"
        }
      ],
      "name": "transferFrom",
      "outputs": [],
      "stateMutability": "nonpayable",
      "type": "function"
    },
    {
      "inputs": [
        {
          "internalType": "string",
          "name": "_s",
          "type": "string"
        }
      ],
      "name": "validateDomain",
      "outputs": [
        {
          "internalType": "bool",
          "name": "valid",
          "type": "bool"
        },
        {
          "internalType": "uint256",
          "name": "parent",
          "type": "uint256"
        },
        {
          "internalType": "string",
          "name": "domain",
          "type": "string"
        }
      ],
      "stateMutability": "pure",
      "type": "function"
    }
  ],
  "bytecode": "0x60806040523480156200001157600080fd5b5060405162004bad38038062004bad833981810160405281019062000037919062000cfc565b620000b36040518060400160405280601181526020017f5a657230204e616d6520536572766963650000000000000000000000000000008152506040518060400160405280600381526020017f5a4e530000000000000000000000000000000000000000000000000000000000815250620001b960201b60201c565b620000c6826000620002f960201b60201c565b60006097600080815260200190815260200160002090506040518060400160405280600381526020017f5a4e5300000000000000000000000000000000000000000000000000000000008152508160020190805190602001906200012c92919062000c2f565b50818160030160006101000a81548173ffffffffffffffffffffffffffffffffffffffff021916908373ffffffffffffffffffffffffffffffffffffffff16021790555060007f950672e87ea0e77544ed29d9c2bc8d35d19a6402659e4712d1fc79f2c2f7f16760008585604051620001a89392919062000de3565b60405180910390a250505062000ec7565b600060019054906101000a900460ff1680620001e15750620001e06200050d60201b60201c565b5b80620001f8575060008054906101000a900460ff16155b6200024f576040517f08c379a000000000000000000000000000000000000000000000000000000000815260040180806020018281038252602e81526020018062004b7f602e913960400191505060405180910390fd5b60008060019054906101000a900460ff161590508015620002a0576001600060016101000a81548160ff02191690831515021790555060016000806101000a81548160ff0219169083151502179055505b620002b06200052460201b60201c565b620002c06200063060201b60201c565b620002d283836200075460201b60201c565b8015620002f45760008060016101000a81548160ff0219169083151502179055505b505050565b600073ffffffffffffffffffffffffffffffffffffffff168273ffffffffffffffffffffffffffffffffffffffff1614156200039d576040517f08c379a00000000000000000000000000000000000000000000000000000000081526004018080602001828103825260208152602001807f4552433732313a206d696e7420746f20746865207a65726f206164647265737381525060200191505060405180910390fd5b620003ae81620008dc60201b60201c565b1562000422576040517f08c379a000000000000000000000000000000000000000000000000000000000815260040180806020018281038252601c8152602001807f4552433732313a20746f6b656e20616c7265616479206d696e7465640000000081525060200191505060405180910390fd5b62000436600083836200090060201b60201c565b6200048e81606560008573ffffffffffffffffffffffffffffffffffffffff1673ffffffffffffffffffffffffffffffffffffffff1681526020019081526020016000206200090560201b620011ad1790919060201c565b50620004ac818360666200092760201b620011c7179092919060201c565b50808273ffffffffffffffffffffffffffffffffffffffff16600073ffffffffffffffffffffffffffffffffffffffff167fddf252ad1be2c89b69c2b068fc378daa952ba7f163c4a11628f55a4df523b3ef60405160405180910390a45050565b6000803090506000813b9050600081149250505090565b600060019054906101000a900460ff16806200054c57506200054b6200050d60201b60201c565b5b8062000563575060008054906101000a900460ff16155b620005ba576040517f08c379a000000000000000000000000000000000000000000000000000000000815260040180806020018281038252602e81526020018062004b7f602e913960400191505060405180910390fd5b60008060019054906101000a900460ff1615905080156200060b576001600060016101000a81548160ff02191690831515021790555060016000806101000a81548160ff0219169083151502179055505b80156200062d5760008060016101000a81548160ff0219169083151502179055505b50565b600060019054906101000a900460ff1680620006585750620006576200050d60201b60201c565b5b806200066f575060008054906101000a900460ff16155b620006c6576040517f08c379a000000000000000000000000000000000000000000000000000000000815260040180806020018281038252602e81526020018062004b7f602e913960400191505060405180910390fd5b60008060019054906101000a900460ff16159050801562000717576001600060016101000a81548160ff02191690831515021790555060016000806101000a81548160ff0219169083151502179055505b6200072f6301ffc9a760e01b6200096460201b60201c565b8015620007515760008060016101000a81548160ff0219169083151502179055505b50565b600060019054906101000a900460ff16806200077c57506200077b6200050d60201b60201c565b5b8062000793575060008054906101000a900460ff16155b620007ea576040517f08c379a000000000000000000000000000000000000000000000000000000000815260040180806020018281038252602e81526020018062004b7f602e913960400191505060405180910390fd5b60008060019054906101000a900460ff1615905080156200083b576001600060016101000a81548160ff02191690831515021790555060016000806101000a81548160ff0219169083151502179055505b82606a90805190602001906200085392919062000c2f565b5081606b90805190602001906200086c92919062000c2f565b50620008856380ac58cd60e01b6200096460201b60201c565b6200089d635b5e139f60e01b6200096460201b60201c565b620008b563780e9d6360e01b6200096460201b60201c565b8015620008d75760008060016101000a81548160ff0219169083151502179055505b505050565b6000620008f982606662000a6e60201b620011fc1790919060201c565b9050919050565b505050565b60006200091f836000018360001b62000a9060201b60201c565b905092915050565b60006200095b846000018460001b8473ffffffffffffffffffffffffffffffffffffffff1660001b62000b0a60201b60201c565b90509392505050565b63ffffffff60e01b817bffffffffffffffffffffffffffffffffffffffffffffffffffffffff1916141562000a01576040517f08c379a000000000000000000000000000000000000000000000000000000000815260040180806020018281038252601c8152602001807f4552433136353a20696e76616c696420696e746572666163652069640000000081525060200191505060405180910390fd5b600160336000837bffffffffffffffffffffffffffffffffffffffffffffffffffffffff19167bffffffffffffffffffffffffffffffffffffffffffffffffffffffff1916815260200190815260200160002060006101000a81548160ff02191690831515021790555050565b600062000a88836000018360001b62000be960201b60201c565b905092915050565b600062000aa4838362000c0c60201b60201c565b62000aff57826000018290806001815401808255809150506001900390600052602060002001600090919091909150558260000180549050836001016000848152602001908152602001600020819055506001905062000b04565b600090505b92915050565b600080846001016000858152602001908152602001600020549050600081141562000bb35784600001604051806040016040528086815260200185815250908060018154018082558091505060019003906000526020600020906002020160009091909190915060008201518160000155602082015181600101555050846000018054905085600101600086815260200190815260200160002081905550600191505062000be2565b8285600001600183038154811062000bc757fe5b90600052602060002090600202016001018190555060009150505b9392505050565b600080836001016000848152602001908152602001600020541415905092915050565b600080836001016000848152602001908152602001600020541415905092915050565b828054600181600116156101000203166002900490600052602060002090601f01602090048101928262000c67576000855562000cb3565b82601f1062000c8257805160ff191683800117855562000cb3565b8280016001018555821562000cb3579182015b8281111562000cb257825182559160200191906001019062000c95565b5b50905062000cc2919062000cc6565b5090565b5b8082111562000ce157600081600090555060010162000cc7565b5090565b60008151905062000cf68162000ead565b92915050565b6000806040838503121562000d1057600080fd5b600062000d208582860162000ce5565b925050602062000d338582860162000ce5565b9150509250929050565b62000d488162000e5b565b82525050565b62000d598162000e99565b82525050565b600062000d6e60058362000e4a565b91507f5f726f6f740000000000000000000000000000000000000000000000000000006000830152602082019050919050565b600062000db060078362000e4a565b91507f7a6572302e696f000000000000000000000000000000000000000000000000006000830152602082019050919050565b600060a08201905062000dfa600083018662000d4e565b818103602083015262000e0d8162000d5f565b905062000e1e604083018562000d3d565b62000e2d606083018462000d3d565b818103608083015262000e408162000da1565b9050949350505050565b600082825260208201905092915050565b600062000e688262000e6f565b9050919050565b600073ffffffffffffffffffffffffffffffffffffffff82169050919050565b6000819050919050565b600062000ea68262000e8f565b9050919050565b62000eb88162000e5b565b811462000ec457600080fd5b50565b613ca88062000ed76000396000f3fe608060405234801561001057600080fd5b50600436106101425760003560e01c80636c0360eb116100b8578063b30906d41161007c578063b30906d41461039b578063b88d4fde146103cb578063c87b56dd146103e7578063d4f5913414610417578063e985e9c514610447578063fb78fef11461047757610142565b80636c0360eb146102e357806370a082311461030157806395d89b4114610331578063a22cb4651461034f578063a4a183b01461036b57610142565b806320b419491161010a57806320b41949146101ff57806323b872dd1461021b5780632f745c591461023757806342842e0e146102675780634f6ccce7146102835780636352211e146102b357610142565b806301ffc9a71461014757806306fdde0314610177578063081812fc14610195578063095ea7b3146101c557806318160ddd146101e1575b600080fd5b610161600480360381019061015c9190613148565b6104a9565b60405161016e9190613665565b60405180910390f35b61017f610511565b60405161018c91906136ee565b60405180910390f35b6101af60048036038101906101aa919061324d565b6105b3565b6040516101bc919061364a565b60405180910390f35b6101df60048036038101906101da91906130cb565b61064e565b005b6101e9610792565b6040516101f69190613732565b60405180910390f35b61021960048036038101906102149190613171565b6107a3565b005b61023560048036038101906102309190612fc5565b6107b9565b005b610251600480360381019061024c91906130cb565b61082f565b60405161025e9190613732565b60405180910390f35b610281600480360381019061027c9190612fc5565b61088a565b005b61029d6004803603810190610298919061324d565b6108aa565b6040516102aa9190613732565b60405180910390f35b6102cd60048036038101906102c8919061324d565b6108cd565b6040516102da919061364a565b60405180910390f35b6102eb610904565b6040516102f891906136ee565b60405180910390f35b61031b60048036038101906103169190612f60565b6109a6565b6040516103289190613732565b60405180910390f35b610339610a7b565b60405161034691906136ee565b60405180910390f35b6103696004803603810190610364919061308f565b610b1d565b005b61038560048036038101906103809190613107565b610cd3565b604051610392919061364a565b60405180910390f35b6103b560048036038101906103b0919061324d565b610ced565b6040516103c29190613710565b60405180910390f35b6103e560048036038101906103e09190613014565b610fb0565b005b61040160048036038101906103fc919061324d565b611028565b60405161040e91906136ee565b60405180910390f35b610431600480360381019061042c9190613107565b61108d565b60405161043e9190613732565b60405180910390f35b610461600480360381019061045c9190612f89565b6110f8565b60405161046e9190613665565b60405180910390f35b610491600480360381019061048c919061320c565b61118c565b6040516104a093929190613680565b60405180910390f35b600060336000837bffffffffffffffffffffffffffffffffffffffffffffffffffffffff19167bffffffffffffffffffffffffffffffffffffffffffffffffffffffff1916815260200190815260200160002060009054906101000a900460ff169050919050565b6060606a8054600181600116156101000203166002900480601f0160208091040260200160405190810160405280929190818152602001828054600181600116156101000203166002900480156105a95780601f1061057e576101008083540402835291602001916105a9565b820191906000526020600020905b81548152906001019060200180831161058c57829003601f168201915b5050505050905090565b60006105be82611216565b610613576040517f08c379a000000000000000000000000000000000000000000000000000000000815260040180806020018281038252602c815260200180613bcc602c913960400191505060405180910390fd5b6068600083815260200190815260200160002060009054906101000a900473ffffffffffffffffffffffffffffffffffffffff169050919050565b6000610659826108cd565b90508073ffffffffffffffffffffffffffffffffffffffff168373ffffffffffffffffffffffffffffffffffffffff1614156106e0576040517f08c379a0000000000000000000000000000000000000000000000000000000008152600401808060200182810382526021815260200180613c216021913960400191505060405180910390fd5b8073ffffffffffffffffffffffffffffffffffffffff166106ff611233565b73ffffffffffffffffffffffffffffffffffffffff16148061072e575061072d81610728611233565b6110f8565b5b610783576040517f08c379a0000000000000000000000000000000000000000000000000000000008152600401808060200182810382526038815260200180613b1f6038913960400191505060405180910390fd5b61078d838361123b565b505050565b600061079e60666112f4565b905090565b6107b1868686868686611309565b505050505050565b6107ca6107c4611233565b826114bb565b61081f576040517f08c379a0000000000000000000000000000000000000000000000000000000008152600401808060200182810382526031815260200180613c426031913960400191505060405180910390fd5b61082a8383836115af565b505050565b600061088282606560008673ffffffffffffffffffffffffffffffffffffffff1673ffffffffffffffffffffffffffffffffffffffff16815260200190815260200160002061168790919063ffffffff16565b905092915050565b6108a583838360405180602001604052806000815250610fb0565b505050565b6000806108c18360666116a190919063ffffffff16565b50905080915050919050565b60006108fd82604051806060016040528060298152602001613b816029913960666116cd9092919063ffffffff16565b9050919050565b6060606d8054600181600116156101000203166002900480601f01602080910402602001604051908101604052809291908181526020018280546001816001161561010002031660029004801561099c5780601f106109715761010080835404028352916020019161099c565b820191906000526020600020905b81548152906001019060200180831161097f57829003601f168201915b5050505050905090565b60008073ffffffffffffffffffffffffffffffffffffffff168273ffffffffffffffffffffffffffffffffffffffff161415610a2d576040517f08c379a000000000000000000000000000000000000000000000000000000000815260040180806020018281038252602a815260200180613b57602a913960400191505060405180910390fd5b610a74606560008473ffffffffffffffffffffffffffffffffffffffff1673ffffffffffffffffffffffffffffffffffffffff1681526020019081526020016000206116ec565b9050919050565b6060606b8054600181600116156101000203166002900480601f016020809104026020016040519081016040528092919081815260200182805460018160011615610100020316600290048015610b135780601f10610ae857610100808354040283529160200191610b13565b820191906000526020600020905b815481529060010190602001808311610af657829003601f168201915b5050505050905090565b610b25611233565b73ffffffffffffffffffffffffffffffffffffffff168273ffffffffffffffffffffffffffffffffffffffff161415610bc6576040517f08c379a00000000000000000000000000000000000000000000000000000000081526004018080602001828103825260198152602001807f4552433732313a20617070726f766520746f2063616c6c65720000000000000081525060200191505060405180910390fd5b8060696000610bd3611233565b73ffffffffffffffffffffffffffffffffffffffff1673ffffffffffffffffffffffffffffffffffffffff16815260200190815260200160002060008473ffffffffffffffffffffffffffffffffffffffff1673ffffffffffffffffffffffffffffffffffffffff16815260200190815260200160002060006101000a81548160ff0219169083151502179055508173ffffffffffffffffffffffffffffffffffffffff16610c80611233565b73ffffffffffffffffffffffffffffffffffffffff167f17307eab39ab6107e8899845ad3d59bd9653f200f220920489ca2b5937696c318360405180821515815260200191505060405180910390a35050565b6000610ce6610ce18361108d565b6108cd565b9050919050565b610cf5612c5e565b6000609760008481526020019081526020016000209050610d15836108cd565b826080019073ffffffffffffffffffffffffffffffffffffffff16908173ffffffffffffffffffffffffffffffffffffffff168152505080600001548260000181815250508060030160009054906101000a900473ffffffffffffffffffffffffffffffffffffffff16826060019073ffffffffffffffffffffffffffffffffffffffff16908173ffffffffffffffffffffffffffffffffffffffff1681525050806002018054600181600116156101000203166002900480601f016020809104026020016040519081016040528092919081815260200182805460018160011615610100020316600290048015610e4e5780601f10610e2357610100808354040283529160200191610e4e565b820191906000526020600020905b815481529060010190602001808311610e3157829003601f168201915b50505050508260200181905250806001018054600181600116156101000203166002900480601f016020809104026020016040519081016040528092919081815260200182805460018160011615610100020316600290048015610ef35780601f10610ec857610100808354040283529160200191610ef3565b820191906000526020600020905b815481529060010190602001808311610ed657829003601f168201915b50505050508260400181905250610f0c816004016116ec565b67ffffffffffffffff81118015610f2257600080fd5b50604051908082528060200260200182016040528015610f515781602001602082028036833780820191505090505b508260a0018190525060005b8260a0015151811015610fa957610f80818360040161168790919063ffffffff16565b8360a001518281518110610f9057fe5b6020026020010181815250508080600101915050610f5d565b5050919050565b610fc1610fbb611233565b836114bb565b611016576040517f08c379a0000000000000000000000000000000000000000000000000000000008152600401808060200182810382526031815260200180613c426031913960400191505060405180910390fd5b61102284848484611701565b50505050565b60606110676097600084815260200190815260200160002060010160405160200161105391906135fb565b604051602081830303815290604052611773565b6040516020016110779190613628565b6040516020818303038152906040529050919050565b6000806000905060005b83518110156110eb57818482815181106110ad57fe5b60200260200101516040516020016110c69291906136be565b6040516020818303038152906040528051906020012091508080600101915050611097565b508060001c915050919050565b6000606960008473ffffffffffffffffffffffffffffffffffffffff1673ffffffffffffffffffffffffffffffffffffffff16815260200190815260200160002060008373ffffffffffffffffffffffffffffffffffffffff1673ffffffffffffffffffffffffffffffffffffffff16815260200190815260200160002060009054906101000a900460ff16905092915050565b600080606061119a84611928565b8093508194508295505050509193909250565b60006111bf836000018360001b611c12565b905092915050565b60006111f3846000018460001b8473ffffffffffffffffffffffffffffffffffffffff1660001b611c82565b90509392505050565b600061120e836000018360001b611d5e565b905092915050565b600061122c8260666111fc90919063ffffffff16565b9050919050565b600033905090565b816068600083815260200190815260200160002060006101000a81548173ffffffffffffffffffffffffffffffffffffffff021916908373ffffffffffffffffffffffffffffffffffffffff160217905550808273ffffffffffffffffffffffffffffffffffffffff166112ae836108cd565b73ffffffffffffffffffffffffffffffffffffffff167f8c5be1e5ebec7d5bd14f71427d1e84f3dd0314c0f7b2291e5b200ac8c7c3b92560405160405180910390a45050565b600061130282600001611d81565b9050919050565b600080600061135b89898080601f016020809104026020016040519081016040528093929190818152602001838380828437600081840152601f19601f82011690508083019250505050505050611928565b9250925092508261136b57600080fd5b61137482611d92565b600082826040516020016113899291906137b2565b6040516020818303038152906040528051906020012060001c90506113ae8882611dd5565b6113d681609760008681526020019081526020016000206004016111ad90919063ffffffff16565b6113df57600080fd5b60006097600083815260200190815260200160002090508381600001819055508686826002019190611412929190612cc0565b508a8a826001019190611426929190612cc0565b50878160030160006101000a81548173ffffffffffffffffffffffffffffffffffffffff021916908373ffffffffffffffffffffffffffffffffffffffff160217905550837f950672e87ea0e77544ed29d9c2bc8d35d19a6402659e4712d1fc79f2c2f7f167838d8d8d8d8d8d6040516114a6979695949392919061374d565b60405180910390a25050505050505050505050565b60006114c682611216565b61151b576040517f08c379a000000000000000000000000000000000000000000000000000000000815260040180806020018281038252602c815260200180613af3602c913960400191505060405180910390fd5b6000611526836108cd565b90508073ffffffffffffffffffffffffffffffffffffffff168473ffffffffffffffffffffffffffffffffffffffff16148061159557508373ffffffffffffffffffffffffffffffffffffffff1661157d846105b3565b73ffffffffffffffffffffffffffffffffffffffff16145b806115a657506115a581856110f8565b5b91505092915050565b6115b8816108cd565b73ffffffffffffffffffffffffffffffffffffffff166097600083815260200190815260200160002060030160009054906101000a900473ffffffffffffffffffffffffffffffffffffffff1673ffffffffffffffffffffffffffffffffffffffff16141561167757816097600083815260200190815260200160002060030160006101000a81548173ffffffffffffffffffffffffffffffffffffffff021916908373ffffffffffffffffffffffffffffffffffffffff1602179055505b611682838383611fc9565b505050565b6000611696836000018361220c565b60001c905092915050565b6000806000806116b4866000018661228f565b915091508160001c8160001c9350935050509250929050565b60006116e0846000018460001b84612328565b60001c90509392505050565b60006116fa8260000161241e565b9050919050565b61170c8484846115af565b6117188484848461242f565b61176d576040517f08c379a0000000000000000000000000000000000000000000000000000000008152600401808060200182810382526032815260200180613a776032913960400191505060405180910390fd5b50505050565b606060008290506119206040518060400160405280600481526020017f01551220000000000000000000000000000000000000000000000000000000008152506002836040518082805190602001908083835b602083106117e957805182526020820191506020810190506020830392506117c6565b6001836020036101000a038019825116818451168082178552505050505050905001915050602060405180830381855afa15801561182b573d6000803e3d6000fd5b5050506040513d602081101561184057600080fd5b81019080805190602001909291905050506040516020018083805190602001908083835b602083106118875780518252602082019150602081019050602083039250611864565b6001836020036101000a0380198251168184511680821785525050505050509050018281526020019250505060405160208183030381529060405260056040518060400160405280602081526020017f6162636465666768696a6b6c6d6e6f707172737475767778797a3233343536378152507f6200000000000000000000000000000000000000000000000000000000000000612648565b915050919050565b60008060606000806000602087019050600081905060008851905060606000808386019050600080865191505b828711611b8d57605c60f81b7effffffffffffffffffffffffffffffffffffffffffffffffffffffffffffff1916827effffffffffffffffffffffffffffffffffffffffffffffffffffffffffffff191614156119fa576000806040518060400160405280600981526020017f71756f74656361736500000000000000000000000000000000000000000000008152509c509c509c5050505050505050505050611c0b565b602e8260f81c60ff161415611b0d5760018888030390508067ffffffffffffffff81118015611a2857600080fd5b506040519080825280601f01601f191660200182016040528015611a5b5781602001600182028036833780820191505090505b509450602085019350611a6f84898361284c565b88856040516020018083815260200180602001828103825283818151815260200191508051906020019080838360005b83811015611aba578082015181840152602081019050611a9f565b50505050905090810190601f168015611ae75780820380516001836020036101000a031916815260200191505b509350505050604051602081830303815290604052805190602001209850869750611b7c565b60618260f81c60ff161080611b285750607a8260f81c60ff16115b15611b7b576000806040518060400160405280601281526020017f6661696c206e6f74206c6f7765726361736500000000000000000000000000008152509c509c509c5050505050505050505050611c0b565b5b865191508680600101975050611955565b60018888030390508067ffffffffffffffff81118015611bac57600080fd5b506040519080825280601f01601f191660200182016040528015611bdf5781602001600182028036833780820191505090505b509450602085019350611bf384898361284c565b60018960001c869c509c509c50505050505050505050505b9193909250565b6000611c1e8383612895565b611c77578260000182908060018154018082558091505060019003906000526020600020016000909190919091505582600001805490508360010160008481526020019081526020016000208190555060019050611c7c565b600090505b92915050565b6000808460010160008581526020019081526020016000205490506000811415611d2957846000016040518060400160405280868152602001858152509080600181540180825580915050600190039060005260206000209060020201600090919091909150600082015181600001556020820151816001015550508460000180549050856001016000868152602001908152602001600020819055506001915050611d57565b82856000016001830381548110611d3c57fe5b90600052602060002090600202016001018190555060009150505b9392505050565b600080836001016000848152602001908152602001600020541415905092915050565b600081600001805490509050919050565b3373ffffffffffffffffffffffffffffffffffffffff16611db2826108cd565b73ffffffffffffffffffffffffffffffffffffffff1614611dd257600080fd5b50565b600073ffffffffffffffffffffffffffffffffffffffff168273ffffffffffffffffffffffffffffffffffffffff161415611e78576040517f08c379a00000000000000000000000000000000000000000000000000000000081526004018080602001828103825260208152602001807f4552433732313a206d696e7420746f20746865207a65726f206164647265737381525060200191505060405180910390fd5b611e8181611216565b15611ef4576040517f08c379a000000000000000000000000000000000000000000000000000000000815260040180806020018281038252601c8152602001807f4552433732313a20746f6b656e20616c7265616479206d696e7465640000000081525060200191505060405180910390fd5b611f00600083836128b8565b611f5181606560008573ffffffffffffffffffffffffffffffffffffffff1673ffffffffffffffffffffffffffffffffffffffff1681526020019081526020016000206111ad90919063ffffffff16565b50611f68818360666111c79092919063ffffffff16565b50808273ffffffffffffffffffffffffffffffffffffffff16600073ffffffffffffffffffffffffffffffffffffffff167fddf252ad1be2c89b69c2b068fc378daa952ba7f163c4a11628f55a4df523b3ef60405160405180910390a45050565b8273ffffffffffffffffffffffffffffffffffffffff16611fe9826108cd565b73ffffffffffffffffffffffffffffffffffffffff1614612055576040517f08c379a0000000000000000000000000000000000000000000000000000000008152600401808060200182810382526029815260200180613bf86029913960400191505060405180910390fd5b600073ffffffffffffffffffffffffffffffffffffffff168273ffffffffffffffffffffffffffffffffffffffff1614156120db576040517f08c379a0000000000000000000000000000000000000000000000000000000008152600401808060200182810382526024815260200180613aa96024913960400191505060405180910390fd5b6120e68383836128b8565b6120f160008261123b565b61214281606560008673ffffffffffffffffffffffffffffffffffffffff1673ffffffffffffffffffffffffffffffffffffffff1681526020019081526020016000206128bd90919063ffffffff16565b5061219481606560008573ffffffffffffffffffffffffffffffffffffffff1673ffffffffffffffffffffffffffffffffffffffff1681526020019081526020016000206111ad90919063ffffffff16565b506121ab818360666111c79092919063ffffffff16565b50808273ffffffffffffffffffffffffffffffffffffffff168473ffffffffffffffffffffffffffffffffffffffff167fddf252ad1be2c89b69c2b068fc378daa952ba7f163c4a11628f55a4df523b3ef60405160405180910390a4505050565b60008183600001805490501161226d576040517f08c379a0000000000000000000000000000000000000000000000000000000008152600401808060200182810382526022815260200180613a556022913960400191505060405180910390fd5b82600001828154811061227c57fe5b9060005260206000200154905092915050565b600080828460000180549050116122f1576040517f08c379a0000000000000000000000000000000000000000000000000000000008152600401808060200182810382526022815260200180613baa6022913960400191505060405180910390fd5b600084600001848154811061230257fe5b906000526020600020906002020190508060000154816001015492509250509250929050565b600080846001016000858152602001908152602001600020549050600081141583906123ef576040517f08c379a00000000000000000000000000000000000000000000000000000000081526004018080602001828103825283818151815260200191508051906020019080838360005b838110156123b4578082015181840152602081019050612399565b50505050905090810190601f1680156123e15780820380516001836020036101000a031916815260200191505b509250505060405180910390fd5b5084600001600182038154811061240257fe5b9060005260206000209060020201600101549150509392505050565b600081600001805490509050919050565b60006124508473ffffffffffffffffffffffffffffffffffffffff166128d7565b61245d5760019050612640565b60006125c763150b7a0260e01b612472611233565b888787604051602401808573ffffffffffffffffffffffffffffffffffffffff1681526020018473ffffffffffffffffffffffffffffffffffffffff16815260200183815260200180602001828103825283818151815260200191508051906020019080838360005b838110156124f65780820151818401526020810190506124db565b50505050905090810190601f1680156125235780820380516001836020036101000a031916815260200191505b5095505050505050604051602081830303815290604052907bffffffffffffffffffffffffffffffffffffffffffffffffffffffff19166020820180517bffffffffffffffffffffffffffffffffffffffffffffffffffffffff8381831617835250505050604051806060016040528060328152602001613a77603291398773ffffffffffffffffffffffffffffffffffffffff166128ea9092919063ffffffff16565b905060008180602001905160208110156125e057600080fd5b8101908080519060200190929190505050905063150b7a0260e01b7bffffffffffffffffffffffffffffffffffffffffffffffffffffffff1916817bffffffffffffffffffffffffffffffffffffffffffffffffffffffff191614925050505b949350505050565b606060006008865102905060008086838161265f57fe5b061461266c57600261266f565b60015b60ff1686838161267b57fe5b0401905060008167ffffffffffffffff8111801561269857600080fd5b506040519080825280601f01601f1916602001820160405280156126cb5781602001600182028036833780820191505090505b50905060006001886001901b03905060008087846000815181106126eb57fe5b60200101907effffffffffffffffffffffffffffffffffffffffffffffffffffffffffffff1916908160001a90535060006001905060005b8c518110156127d6578c818151811061273857fe5b602001015160f81c60f81b60f81c60ff16600884901b1792506008840193505b8b8411156127c9578b840393508a8484901c86168151811061277657fe5b602001015160f81c60f81b86838151811061278d57fe5b60200101907effffffffffffffffffffffffffffffffffffffffffffffffffffffffffffff1916908160001a9053508180600101925050612758565b8080600101915050612723565b50600083111561283a5789838c0383901b8516815181106127f357fe5b602001015160f81c60f81b85828151811061280a57fe5b60200101907effffffffffffffffffffffffffffffffffffffffffffffffffffffffffffff1916908160001a9053505b84975050505050505050949350505050565b5b60208110612870578151835260208301925060208201915060208103905061284d565b60006001826020036101000a0390508019835116818551168181178652505050505050565b600080836001016000848152602001908152602001600020541415905092915050565b505050565b60006128cf836000018360001b612902565b905092915050565b600080823b905060008111915050919050565b60606128f984846000856129ea565b90509392505050565b600080836001016000848152602001908152602001600020549050600081146129de576000600182039050600060018660000180549050039050600086600001828154811061294d57fe5b906000526020600020015490508087600001848154811061296a57fe5b90600052602060002001819055506001830187600101600083815260200190815260200160002081905550866000018054806129a257fe5b600190038181906000526020600020016000905590558660010160008781526020019081526020016000206000905560019450505050506129e4565b60009150505b92915050565b606082471015612a45576040517f08c379a0000000000000000000000000000000000000000000000000000000008152600401808060200182810382526026815260200180613acd6026913960400191505060405180910390fd5b612a4e856128d7565b612ac0576040517f08c379a000000000000000000000000000000000000000000000000000000000815260040180806020018281038252601d8152602001807f416464726573733a2063616c6c20746f206e6f6e2d636f6e747261637400000081525060200191505060405180910390fd5b6000808673ffffffffffffffffffffffffffffffffffffffff1685876040518082805190602001908083835b60208310612b0f5780518252602082019150602081019050602083039250612aec565b6001836020036101000a03801982511681845116808217855250505050505090500191505060006040518083038185875af1925050503d8060008114612b71576040519150601f19603f3d011682016040523d82523d6000602084013e612b76565b606091505b5091509150612b86828286612b92565b92505050949350505050565b60608315612ba257829050612c57565b600083511115612bb55782518084602001fd5b816040517f08c379a00000000000000000000000000000000000000000000000000000000081526004018080602001828103825283818151815260200191508051906020019080838360005b83811015612c1c578082015181840152602081019050612c01565b50505050905090810190601f168015612c495780820380516001836020036101000a031916815260200191505b509250505060405180910390fd5b9392505050565b6040518060c00160405280600081526020016060815260200160608152602001600073ffffffffffffffffffffffffffffffffffffffff168152602001600073ffffffffffffffffffffffffffffffffffffffff168152602001606081525090565b828054600181600116156101000203166002900490600052602060002090601f016020900481019282612cf65760008555612d3d565b82601f10612d0f57803560ff1916838001178555612d3d565b82800160010185558215612d3d579182015b82811115612d3c578235825591602001919060010190612d21565b5b509050612d4a9190612d4e565b5090565b5b80821115612d67576000816000905550600101612d4f565b5090565b6000612d7e612d7984613813565b6137e2565b9050808382526020820190508260005b85811015612dbe5781358501612da48882612f21565b845260208401935060208301925050600181019050612d8e565b5050509392505050565b6000612ddb612dd68461383f565b6137e2565b905082815260208101848484011115612df357600080fd5b612dfe8482856139a3565b509392505050565b6000612e19612e148461386f565b6137e2565b905082815260208101848484011115612e3157600080fd5b612e3c8482856139a3565b509392505050565b600081359050612e53816139f8565b92915050565b600082601f830112612e6a57600080fd5b8135612e7a848260208601612d6b565b91505092915050565b600081359050612e9281613a0f565b92915050565b600081359050612ea781613a26565b92915050565b600082601f830112612ebe57600080fd5b8135612ece848260208601612dc8565b91505092915050565b60008083601f840112612ee957600080fd5b8235905067ffffffffffffffff811115612f0257600080fd5b602083019150836001820283011115612f1a57600080fd5b9250929050565b600082601f830112612f3257600080fd5b8135612f42848260208601612e06565b91505092915050565b600081359050612f5a81613a3d565b92915050565b600060208284031215612f7257600080fd5b6000612f8084828501612e44565b91505092915050565b60008060408385031215612f9c57600080fd5b6000612faa85828601612e44565b9250506020612fbb85828601612e44565b9150509250929050565b600080600060608486031215612fda57600080fd5b6000612fe886828701612e44565b9350506020612ff986828701612e44565b925050604061300a86828701612f4b565b9150509250925092565b6000806000806080858703121561302a57600080fd5b600061303887828801612e44565b945050602061304987828801612e44565b935050604061305a87828801612f4b565b925050606085013567ffffffffffffffff81111561307757600080fd5b61308387828801612ead565b91505092959194509250565b600080604083850312156130a257600080fd5b60006130b085828601612e44565b92505060206130c185828601612e83565b9150509250929050565b600080604083850312156130de57600080fd5b60006130ec85828601612e44565b92505060206130fd85828601612f4b565b9150509250929050565b60006020828403121561311957600080fd5b600082013567ffffffffffffffff81111561313357600080fd5b61313f84828501612e59565b91505092915050565b60006020828403121561315a57600080fd5b600061316884828501612e98565b91505092915050565b6000806000806000806080878903121561318a57600080fd5b600087013567ffffffffffffffff8111156131a457600080fd5b6131b089828a01612ed7565b965096505060206131c389828a01612e44565b94505060406131d489828a01612e44565b935050606087013567ffffffffffffffff8111156131f157600080fd5b6131fd89828a01612ed7565b92509250509295509295509295565b60006020828403121561321e57600080fd5b600082013567ffffffffffffffff81111561323857600080fd5b61324484828501612f21565b91505092915050565b60006020828403121561325f57600080fd5b600061326d84828501612f4b565b91505092915050565b600061328283836135dd565b60208301905092915050565b61329781613925565b82525050565b6132a681613925565b82525050565b60006132b7826138c4565b6132c181856138e7565b93506132cc8361389f565b8060005b838110156132fd5781516132e48882613276565b97506132ef836138da565b9250506001810190506132d0565b5085935050505092915050565b61331381613937565b82525050565b61332281613943565b82525050565b60006133348385613909565b93506133418385846139a3565b61334a836139e7565b840190509392505050565b6000613360826138cf565b61336a81856138f8565b935061337a8185602086016139b2565b613383816139e7565b840191505092915050565b6000613399826138cf565b6133a38185613909565b93506133b38185602086016139b2565b6133bc816139e7565b840191505092915050565b60006133d2826138cf565b6133dc818561391a565b93506133ec8185602086016139b2565b80840191505092915050565b600081546001811660008114613415576001811461343a5761347e565b607f6002830416613426818761391a565b955060ff198316865280860193505061347e565b60028204613448818761391a565b9550613453856138af565b60005b8281101561347557815481890152600182019150602081019050613456565b82880195505050505b505092915050565b600061349360098361391a565b91507f7b226e616d65223a2200000000000000000000000000000000000000000000006000830152600982019050919050565b60006134d360078361391a565b91507f697066733a2f2f000000000000000000000000000000000000000000000000006000830152600782019050919050565b600061351360028361391a565b91507f227d0000000000000000000000000000000000000000000000000000000000006000830152600282019050919050565b600060c08301600083015161355e60008601826135dd565b50602083015184820360208601526135768282613355565b915050604083015184820360408601526135908282613355565b91505060608301516135a5606086018261328e565b5060808301516135b8608086018261328e565b5060a083015184820360a08601526135d082826132ac565b9150508091505092915050565b6135e681613999565b82525050565b6135f581613999565b82525050565b600061360682613486565b915061361282846133f8565b915061361d82613506565b915081905092915050565b6000613633826134c6565b915061363f82846133c7565b915081905092915050565b600060208201905061365f600083018461329d565b92915050565b600060208201905061367a600083018461330a565b92915050565b6000606082019050613695600083018661330a565b6136a260208301856135ec565b81810360408301526136b4818461338e565b9050949350505050565b60006040820190506136d36000830185613319565b81810360208301526136e5818461338e565b90509392505050565b60006020820190508181036000830152613708818461338e565b905092915050565b6000602082019050818103600083015261372a8184613546565b905092915050565b600060208201905061374760008301846135ec565b92915050565b600060a082019050613762600083018a6135ec565b818103602083015261377581888a613328565b9050613784604083018761329d565b613791606083018661329d565b81810360808301526137a4818486613328565b905098975050505050505050565b60006040820190506137c760008301856135ec565b81810360208301526137d9818461338e565b90509392505050565b6000604051905081810181811067ffffffffffffffff82111715613809576138086139e5565b5b8060405250919050565b600067ffffffffffffffff82111561382e5761382d6139e5565b5b602082029050602081019050919050565b600067ffffffffffffffff82111561385a576138596139e5565b5b601f19601f8301169050602081019050919050565b600067ffffffffffffffff82111561388a576138896139e5565b5b601f19601f8301169050602081019050919050565b6000819050602082019050919050565b60008190508160005260206000209050919050565b600081519050919050565b600081519050919050565b6000602082019050919050565b600082825260208201905092915050565b600082825260208201905092915050565b600082825260208201905092915050565b600081905092915050565b600061393082613979565b9050919050565b60008115159050919050565b6000819050919050565b60007fffffffff0000000000000000000000000000000000000000000000000000000082169050919050565b600073ffffffffffffffffffffffffffffffffffffffff82169050919050565b6000819050919050565b82818337600083830152505050565b60005b838110156139d05780820151818401526020810190506139b5565b838111156139df576000848401525b50505050565bfe5b6000601f19601f8301169050919050565b613a0181613925565b8114613a0c57600080fd5b50565b613a1881613937565b8114613a2357600080fd5b50565b613a2f8161394d565b8114613a3a57600080fd5b50565b613a4681613999565b8114613a5157600080fd5b5056fe456e756d657261626c655365743a20696e646578206f7574206f6620626f756e64734552433732313a207472616e7366657220746f206e6f6e20455243373231526563656976657220696d706c656d656e7465724552433732313a207472616e7366657220746f20746865207a65726f2061646472657373416464726573733a20696e73756666696369656e742062616c616e636520666f722063616c6c4552433732313a206f70657261746f7220717565727920666f72206e6f6e6578697374656e7420746f6b656e4552433732313a20617070726f76652063616c6c6572206973206e6f74206f776e6572206e6f7220617070726f76656420666f7220616c6c4552433732313a2062616c616e636520717565727920666f7220746865207a65726f20616464726573734552433732313a206f776e657220717565727920666f72206e6f6e6578697374656e7420746f6b656e456e756d657261626c654d61703a20696e646578206f7574206f6620626f756e64734552433732313a20617070726f76656420717565727920666f72206e6f6e6578697374656e7420746f6b656e4552433732313a207472616e73666572206f6620746f6b656e2074686174206973206e6f74206f776e4552433732313a20617070726f76616c20746f2063757272656e74206f776e65724552433732313a207472616e736665722063616c6c6572206973206e6f74206f776e6572206e6f7220617070726f766564a2646970667358221220c94aee2a3ad882cc2f23afa2ef257e5a07bbe56ec00b2b9187233aa26b911b4964736f6c63430007060033496e697469616c697a61626c653a20636f6e747261637420697320616c726561647920696e697469616c697a6564",
  "linkReferences": {},
  "deployedLinkReferences": {}
}