{
  "_format": "hh-sol-artifact-1",
  "contractName": "Registrar",
  "sourceName": "contracts/Registrar.sol",
  "abi": [
    {
      "inputs": [
        {
          "internalType": "address",
          "name": "_owner",
          "type": "address"
        }
      ],
      "stateMutability": "nonpayable",
      "type": "constructor"
    },
    {
      "anonymous": false,
      "inputs": [
        {
          "indexed": true,
          "internalType": "address",
          "name": "owner",
          "type": "address"
        },
        {
          "indexed": true,
          "internalType": "address",
          "name": "approved",
          "type": "address"
        },
        {
          "indexed": true,
          "internalType": "uint256",
          "name": "tokenId",
          "type": "uint256"
        }
      ],
      "name": "Approval",
      "type": "event"
    },
    {
      "anonymous": false,
      "inputs": [
        {
          "indexed": true,
          "internalType": "address",
          "name": "owner",
          "type": "address"
        },
        {
          "indexed": true,
          "internalType": "address",
          "name": "operator",
          "type": "address"
        },
        {
          "indexed": false,
          "internalType": "bool",
          "name": "approved",
          "type": "bool"
        }
      ],
      "name": "ApprovalForAll",
      "type": "event"
    },
    {
      "anonymous": false,
      "inputs": [
        {
          "indexed": true,
          "internalType": "address",
          "name": "from",
          "type": "address"
        },
        {
          "indexed": true,
          "internalType": "address",
          "name": "to",
          "type": "address"
        },
        {
          "indexed": true,
          "internalType": "uint256",
          "name": "tokenId",
          "type": "uint256"
        }
      ],
      "name": "Transfer",
      "type": "event"
    },
    {
      "inputs": [
        {
          "internalType": "address",
          "name": "to",
          "type": "address"
        },
        {
          "internalType": "uint256",
          "name": "tokenId",
          "type": "uint256"
        }
      ],
      "name": "approve",
      "outputs": [],
      "stateMutability": "nonpayable",
      "type": "function"
    },
    {
      "inputs": [
        {
          "internalType": "address",
          "name": "owner",
          "type": "address"
        }
      ],
      "name": "balanceOf",
      "outputs": [
        {
          "internalType": "uint256",
          "name": "",
          "type": "uint256"
        }
      ],
      "stateMutability": "view",
      "type": "function"
    },
    {
      "inputs": [],
      "name": "baseURI",
      "outputs": [
        {
          "internalType": "string",
          "name": "",
          "type": "string"
        }
      ],
      "stateMutability": "view",
      "type": "function"
    },
    {
      "inputs": [
        {
          "internalType": "uint256",
          "name": "parentId",
          "type": "uint256"
        },
        {
          "internalType": "string",
          "name": "domain",
          "type": "string"
        },
        {
          "internalType": "address",
          "name": "_owner",
          "type": "address"
        },
        {
          "internalType": "address",
          "name": "_controller",
          "type": "address"
        },
        {
          "internalType": "string",
          "name": "_ref",
          "type": "string"
        }
      ],
      "name": "createRegistry",
      "outputs": [],
      "stateMutability": "nonpayable",
      "type": "function"
    },
    {
      "inputs": [
        {
          "internalType": "uint256",
          "name": "",
          "type": "uint256"
        }
      ],
      "name": "entries",
      "outputs": [
        {
          "internalType": "string",
          "name": "ref",
          "type": "string"
        },
        {
          "internalType": "address",
          "name": "controller",
          "type": "address"
        }
      ],
      "stateMutability": "view",
      "type": "function"
    },
    {
      "inputs": [
        {
          "internalType": "uint256",
          "name": "tokenId",
          "type": "uint256"
        }
      ],
      "name": "getApproved",
      "outputs": [
        {
          "internalType": "address",
          "name": "",
          "type": "address"
        }
      ],
      "stateMutability": "view",
      "type": "function"
    },
    {
      "inputs": [
        {
          "internalType": "string[]",
          "name": "path",
          "type": "string[]"
        }
      ],
      "name": "getId",
      "outputs": [
        {
          "internalType": "uint256",
          "name": "",
          "type": "uint256"
        }
      ],
      "stateMutability": "pure",
      "type": "function"
    },
    {
      "inputs": [
        {
          "internalType": "string",
          "name": "_s",
          "type": "string"
        }
      ],
      "name": "getIpfsHash",
      "outputs": [
        {
          "internalType": "bytes",
          "name": "",
          "type": "bytes"
        }
      ],
      "stateMutability": "view",
      "type": "function"
    },
    {
      "inputs": [
        {
          "internalType": "string[]",
          "name": "path",
          "type": "string[]"
        }
      ],
      "name": "getOwner",
      "outputs": [
        {
          "internalType": "address",
          "name": "",
          "type": "address"
        }
      ],
      "stateMutability": "view",
      "type": "function"
    },
    {
      "inputs": [
        {
          "internalType": "address",
          "name": "owner",
          "type": "address"
        },
        {
          "internalType": "address",
          "name": "operator",
          "type": "address"
        }
      ],
      "name": "isApprovedForAll",
      "outputs": [
        {
          "internalType": "bool",
          "name": "",
          "type": "bool"
        }
      ],
      "stateMutability": "view",
      "type": "function"
    },
    {
      "inputs": [],
      "name": "name",
      "outputs": [
        {
          "internalType": "string",
          "name": "",
          "type": "string"
        }
      ],
      "stateMutability": "view",
      "type": "function"
    },
    {
      "inputs": [
        {
          "internalType": "uint256",
          "name": "tokenId",
          "type": "uint256"
        }
      ],
      "name": "ownerOf",
      "outputs": [
        {
          "internalType": "address",
          "name": "",
          "type": "address"
        }
      ],
      "stateMutability": "view",
      "type": "function"
    },
    {
      "inputs": [
        {
          "internalType": "address",
          "name": "from",
          "type": "address"
        },
        {
          "internalType": "address",
          "name": "to",
          "type": "address"
        },
        {
          "internalType": "uint256",
          "name": "tokenId",
          "type": "uint256"
        }
      ],
      "name": "safeTransferFrom",
      "outputs": [],
      "stateMutability": "nonpayable",
      "type": "function"
    },
    {
      "inputs": [
        {
          "internalType": "address",
          "name": "from",
          "type": "address"
        },
        {
          "internalType": "address",
          "name": "to",
          "type": "address"
        },
        {
          "internalType": "uint256",
          "name": "tokenId",
          "type": "uint256"
        },
        {
          "internalType": "bytes",
          "name": "_data",
          "type": "bytes"
        }
      ],
      "name": "safeTransferFrom",
      "outputs": [],
      "stateMutability": "nonpayable",
      "type": "function"
    },
    {
      "inputs": [
        {
          "internalType": "address",
          "name": "operator",
          "type": "address"
        },
        {
          "internalType": "bool",
          "name": "approved",
          "type": "bool"
        }
      ],
      "name": "setApprovalForAll",
      "outputs": [],
      "stateMutability": "nonpayable",
      "type": "function"
    },
    {
      "inputs": [
        {
          "internalType": "bytes4",
          "name": "interfaceId",
          "type": "bytes4"
        }
      ],
      "name": "supportsInterface",
      "outputs": [
        {
          "internalType": "bool",
          "name": "",
          "type": "bool"
        }
      ],
      "stateMutability": "view",
      "type": "function"
    },
    {
      "inputs": [],
      "name": "symbol",
      "outputs": [
        {
          "internalType": "string",
          "name": "",
          "type": "string"
        }
      ],
      "stateMutability": "view",
      "type": "function"
    },
    {
      "inputs": [
        {
          "internalType": "uint256",
          "name": "index",
          "type": "uint256"
        }
      ],
      "name": "tokenByIndex",
      "outputs": [
        {
          "internalType": "uint256",
          "name": "",
          "type": "uint256"
        }
      ],
      "stateMutability": "view",
      "type": "function"
    },
    {
      "inputs": [
        {
          "internalType": "address",
          "name": "owner",
          "type": "address"
        },
        {
          "internalType": "uint256",
          "name": "index",
          "type": "uint256"
        }
      ],
      "name": "tokenOfOwnerByIndex",
      "outputs": [
        {
          "internalType": "uint256",
          "name": "",
          "type": "uint256"
        }
      ],
      "stateMutability": "view",
      "type": "function"
    },
    {
      "inputs": [
        {
          "internalType": "uint256",
          "name": "tokenId",
          "type": "uint256"
        }
      ],
      "name": "tokenURI",
      "outputs": [
        {
          "internalType": "string",
          "name": "",
          "type": "string"
        }
      ],
      "stateMutability": "view",
      "type": "function"
    },
    {
      "inputs": [],
      "name": "totalSupply",
      "outputs": [
        {
          "internalType": "uint256",
          "name": "",
          "type": "uint256"
        }
      ],
      "stateMutability": "view",
      "type": "function"
    },
    {
      "inputs": [
        {
          "internalType": "address",
          "name": "from",
          "type": "address"
        },
        {
          "internalType": "address",
          "name": "to",
          "type": "address"
        },
        {
          "internalType": "uint256",
          "name": "tokenId",
          "type": "uint256"
        }
      ],
      "name": "transferFrom",
      "outputs": [],
      "stateMutability": "nonpayable",
      "type": "function"
    },
    {
      "inputs": [
        {
          "internalType": "string",
          "name": "_s",
          "type": "string"
        }
      ],
      "name": "validateString",
      "outputs": [
        {
          "internalType": "bool",
          "name": "valid",
          "type": "bool"
        },
        {
          "internalType": "bytes32",
          "name": "parent",
          "type": "bytes32"
        },
        {
          "internalType": "string",
          "name": "domain",
          "type": "string"
        },
        {
          "internalType": "bytes",
          "name": "debug",
          "type": "bytes"
        }
      ],
      "stateMutability": "pure",
      "type": "function"
    }
  ],
  "bytecode": "0x60806040523480156200001157600080fd5b506040516200510e3803806200510e833981810160405281019062000037919062000cbb565b620000b36040518060400160405280601181526020017f5a657230204e616d6520536572766963650000000000000000000000000000008152506040518060400160405280600381526020017f5a4e5300000000000000000000000000000000000000000000000000000000008152506200017860201b60201c565b620000c6816000620002b860201b60201c565b60006097600080815260200190815260200160002090506040518060400160405280600381526020017f5a4e5300000000000000000000000000000000000000000000000000000000008152508160000190805190602001906200012c92919062000bee565b50818160010160006101000a81548173ffffffffffffffffffffffffffffffffffffffff021916908373ffffffffffffffffffffffffffffffffffffffff160217905550505062000d35565b600060019054906101000a900460ff1680620001a057506200019f620004cc60201b60201c565b5b80620001b7575060008054906101000a900460ff16155b6200020e576040517f08c379a000000000000000000000000000000000000000000000000000000000815260040180806020018281038252602e815260200180620050e0602e913960400191505060405180910390fd5b60008060019054906101000a900460ff1615905080156200025f576001600060016101000a81548160ff02191690831515021790555060016000806101000a81548160ff0219169083151502179055505b6200026f620004e360201b60201c565b6200027f620005ef60201b60201c565b6200029183836200071360201b60201c565b8015620002b35760008060016101000a81548160ff0219169083151502179055505b505050565b600073ffffffffffffffffffffffffffffffffffffffff168273ffffffffffffffffffffffffffffffffffffffff1614156200035c576040517f08c379a00000000000000000000000000000000000000000000000000000000081526004018080602001828103825260208152602001807f4552433732313a206d696e7420746f20746865207a65726f206164647265737381525060200191505060405180910390fd5b6200036d816200089b60201b60201c565b15620003e1576040517f08c379a000000000000000000000000000000000000000000000000000000000815260040180806020018281038252601c8152602001807f4552433732313a20746f6b656e20616c7265616479206d696e7465640000000081525060200191505060405180910390fd5b620003f560008383620008bf60201b60201c565b6200044d81606560008573ffffffffffffffffffffffffffffffffffffffff1673ffffffffffffffffffffffffffffffffffffffff168152602001908152602001600020620008c460201b620012e11790919060201c565b506200046b81836066620008e660201b620012fb179092919060201c565b50808273ffffffffffffffffffffffffffffffffffffffff16600073ffffffffffffffffffffffffffffffffffffffff167fddf252ad1be2c89b69c2b068fc378daa952ba7f163c4a11628f55a4df523b3ef60405160405180910390a45050565b6000803090506000813b9050600081149250505090565b600060019054906101000a900460ff16806200050b57506200050a620004cc60201b60201c565b5b8062000522575060008054906101000a900460ff16155b62000579576040517f08c379a000000000000000000000000000000000000000000000000000000000815260040180806020018281038252602e815260200180620050e0602e913960400191505060405180910390fd5b60008060019054906101000a900460ff161590508015620005ca576001600060016101000a81548160ff02191690831515021790555060016000806101000a81548160ff0219169083151502179055505b8015620005ec5760008060016101000a81548160ff0219169083151502179055505b50565b600060019054906101000a900460ff168062000617575062000616620004cc60201b60201c565b5b806200062e575060008054906101000a900460ff16155b62000685576040517f08c379a000000000000000000000000000000000000000000000000000000000815260040180806020018281038252602e815260200180620050e0602e913960400191505060405180910390fd5b60008060019054906101000a900460ff161590508015620006d6576001600060016101000a81548160ff02191690831515021790555060016000806101000a81548160ff0219169083151502179055505b620006ee6301ffc9a760e01b6200092360201b60201c565b8015620007105760008060016101000a81548160ff0219169083151502179055505b50565b600060019054906101000a900460ff16806200073b57506200073a620004cc60201b60201c565b5b8062000752575060008054906101000a900460ff16155b620007a9576040517f08c379a000000000000000000000000000000000000000000000000000000000815260040180806020018281038252602e815260200180620050e0602e913960400191505060405180910390fd5b60008060019054906101000a900460ff161590508015620007fa576001600060016101000a81548160ff02191690831515021790555060016000806101000a81548160ff0219169083151502179055505b82606a90805190602001906200081292919062000bee565b5081606b90805190602001906200082b92919062000bee565b50620008446380ac58cd60e01b6200092360201b60201c565b6200085c635b5e139f60e01b6200092360201b60201c565b6200087463780e9d6360e01b6200092360201b60201c565b8015620008965760008060016101000a81548160ff0219169083151502179055505b505050565b6000620008b882606662000a2d60201b620013301790919060201c565b9050919050565b505050565b6000620008de836000018360001b62000a4f60201b60201c565b905092915050565b60006200091a846000018460001b8473ffffffffffffffffffffffffffffffffffffffff1660001b62000ac960201b60201c565b90509392505050565b63ffffffff60e01b817bffffffffffffffffffffffffffffffffffffffffffffffffffffffff19161415620009c0576040517f08c379a000000000000000000000000000000000000000000000000000000000815260040180806020018281038252601c8152602001807f4552433136353a20696e76616c696420696e746572666163652069640000000081525060200191505060405180910390fd5b600160336000837bffffffffffffffffffffffffffffffffffffffffffffffffffffffff19167bffffffffffffffffffffffffffffffffffffffffffffffffffffffff1916815260200190815260200160002060006101000a81548160ff02191690831515021790555050565b600062000a47836000018360001b62000ba860201b60201c565b905092915050565b600062000a63838362000bcb60201b60201c565b62000abe57826000018290806001815401808255809150506001900390600052602060002001600090919091909150558260000180549050836001016000848152602001908152602001600020819055506001905062000ac3565b600090505b92915050565b600080846001016000858152602001908152602001600020549050600081141562000b725784600001604051806040016040528086815260200185815250908060018154018082558091505060019003906000526020600020906002020160009091909190915060008201518160000155602082015181600101555050846000018054905085600101600086815260200190815260200160002081905550600191505062000ba1565b8285600001600183038154811062000b8657fe5b90600052602060002090600202016001018190555060009150505b9392505050565b600080836001016000848152602001908152602001600020541415905092915050565b600080836001016000848152602001908152602001600020541415905092915050565b828054600181600116156101000203166002900490600052602060002090601f01602090048101928262000c26576000855562000c72565b82601f1062000c4157805160ff191683800117855562000c72565b8280016001018555821562000c72579182015b8281111562000c7157825182559160200191906001019062000c54565b5b50905062000c81919062000c85565b5090565b5b8082111562000ca057600081600090555060010162000c86565b5090565b60008151905062000cb58162000d1b565b92915050565b60006020828403121562000cce57600080fd5b600062000cde8482850162000ca4565b91505092915050565b600062000cf48262000cfb565b9050919050565b600073ffffffffffffffffffffffffffffffffffffffff82169050919050565b62000d268162000ce7565b811462000d3257600080fd5b50565b61439b8062000d456000396000f3fe608060405234801561001057600080fd5b506004361061014d5760003560e01c80636352211e116100c3578063a4a183b01161007c578063a4a183b0146103d9578063b30906d414610409578063b88d4fde1461043a578063c87b56dd14610456578063d4f5913414610486578063e985e9c5146104b65761014d565b80636352211e146103055780636c0360eb1461033557806370a0823114610353578063830bf1581461038357806395d89b411461039f578063a22cb465146103bd5761014d565b806318160ddd1161011557806318160ddd1461021f57806323b872dd1461023d5780632f745c591461025957806342842e0e146102895780634f6ccce7146102a55780635f9ea0b1146102d55761014d565b806301ffc9a71461015257806306fdde0314610182578063081812fc146101a0578063095ea7b3146101d0578063105f95a9146101ec575b600080fd5b61016c60048036038101906101679190613b22565b6104e6565b6040516101799190613d5b565b60405180910390f35b61018a61054e565b6040516101979190613e1b565b60405180910390f35b6101ba60048036038101906101b59190613b8c565b6105f0565b6040516101c79190613d40565b60405180910390f35b6101ea60048036038101906101e59190613aa5565b61068b565b005b61020660048036038101906102019190613b4b565b6107cf565b6040516102169493929190613d76565b60405180910390f35b6102276107f4565b6040516102349190613e6d565b60405180910390f35b6102576004803603810190610252919061399f565b610805565b005b610273600480360381019061026e9190613aa5565b61087b565b6040516102809190613e6d565b60405180910390f35b6102a3600480360381019061029e919061399f565b6108d6565b005b6102bf60048036038101906102ba9190613b8c565b6108f6565b6040516102cc9190613e6d565b60405180910390f35b6102ef60048036038101906102ea9190613b4b565b610919565b6040516102fc9190613df9565b60405180910390f35b61031f600480360381019061031a9190613b8c565b61092b565b60405161032c9190613d40565b60405180910390f35b61033d610962565b60405161034a9190613e1b565b60405180910390f35b61036d6004803603810190610368919061393a565b610a04565b60405161037a9190613e6d565b60405180910390f35b61039d60048036038101906103989190613bb5565b610ad9565b005b6103a7610b33565b6040516103b49190613e1b565b60405180910390f35b6103d760048036038101906103d29190613a69565b610bd5565b005b6103f360048036038101906103ee9190613ae1565b610d8b565b6040516104009190613d40565b60405180910390f35b610423600480360381019061041e9190613b8c565b610da5565b604051610431929190613e3d565b60405180910390f35b610454600480360381019061044f91906139ee565b610e81565b005b610470600480360381019061046b9190613b8c565b610ef9565b60405161047d9190613e1b565b60405180910390f35b6104a0600480360381019061049b9190613ae1565b6111e2565b6040516104ad9190613e6d565b60405180910390f35b6104d060048036038101906104cb9190613963565b61124d565b6040516104dd9190613d5b565b60405180910390f35b600060336000837bffffffffffffffffffffffffffffffffffffffffffffffffffffffff19167bffffffffffffffffffffffffffffffffffffffffffffffffffffffff1916815260200190815260200160002060009054906101000a900460ff169050919050565b6060606a8054600181600116156101000203166002900480601f0160208091040260200160405190810160405280929190818152602001828054600181600116156101000203166002900480156105e65780601f106105bb576101008083540402835291602001916105e6565b820191906000526020600020905b8154815290600101906020018083116105c957829003601f168201915b5050505050905090565b60006105fb8261134a565b610650576040517f08c379a000000000000000000000000000000000000000000000000000000000815260040180806020018281038252602c815260200180614256602c913960400191505060405180910390fd5b6068600083815260200190815260200160002060009054906101000a900473ffffffffffffffffffffffffffffffffffffffff169050919050565b60006106968261092b565b90508073ffffffffffffffffffffffffffffffffffffffff168373ffffffffffffffffffffffffffffffffffffffff16141561071d576040517f08c379a00000000000000000000000000000000000000000000000000000000081526004018080602001828103825260218152602001806142da6021913960400191505060405180910390fd5b8073ffffffffffffffffffffffffffffffffffffffff1661073c611367565b73ffffffffffffffffffffffffffffffffffffffff16148061076b575061076a81610765611367565b61124d565b5b6107c0576040517f08c379a00000000000000000000000000000000000000000000000000000000081526004018080602001828103825260388152602001806141a96038913960400191505060405180910390fd5b6107ca838361136f565b505050565b6000806060808490506107e185611428565b8094508195508296505050509193509193565b60006108006066611727565b905090565b610816610810611367565b8261173c565b61086b576040517f08c379a00000000000000000000000000000000000000000000000000000000081526004018080602001828103825260318152602001806142fb6031913960400191505060405180910390fd5b610876838383611830565b505050565b60006108ce82606560008673ffffffffffffffffffffffffffffffffffffffff1673ffffffffffffffffffffffffffffffffffffffff16815260200190815260200160002061190890919063ffffffff16565b905092915050565b6108f183838360405180602001604052806000815250610e81565b505050565b60008061090d83606661192290919063ffffffff16565b50905080915050919050565b60606109248261194e565b9050919050565b600061095b8260405180606001604052806029815260200161420b602991396066611e219092919063ffffffff16565b9050919050565b6060606d8054600181600116156101000203166002900480601f0160208091040260200160405190810160405280929190818152602001828054600181600116156101000203166002900480156109fa5780601f106109cf576101008083540402835291602001916109fa565b820191906000526020600020905b8154815290600101906020018083116109dd57829003601f168201915b5050505050905090565b60008073ffffffffffffffffffffffffffffffffffffffff168273ffffffffffffffffffffffffffffffffffffffff161415610a8b576040517f08c379a000000000000000000000000000000000000000000000000000000000815260040180806020018281038252602a8152602001806141e1602a913960400191505060405180910390fd5b610ad2606560008473ffffffffffffffffffffffffffffffffffffffff1673ffffffffffffffffffffffffffffffffffffffff168152602001908152602001600020611e40565b9050919050565b863373ffffffffffffffffffffffffffffffffffffffff16610afa8261092b565b73ffffffffffffffffffffffffffffffffffffffff1614610b1a57600080fd5b610b2988888888888888611e55565b5050505050505050565b6060606b8054600181600116156101000203166002900480601f016020809104026020016040519081016040528092919081815260200182805460018160011615610100020316600290048015610bcb5780601f10610ba057610100808354040283529160200191610bcb565b820191906000526020600020905b815481529060010190602001808311610bae57829003601f168201915b5050505050905090565b610bdd611367565b73ffffffffffffffffffffffffffffffffffffffff168273ffffffffffffffffffffffffffffffffffffffff161415610c7e576040517f08c379a00000000000000000000000000000000000000000000000000000000081526004018080602001828103825260198152602001807f4552433732313a20617070726f766520746f2063616c6c65720000000000000081525060200191505060405180910390fd5b8060696000610c8b611367565b73ffffffffffffffffffffffffffffffffffffffff1673ffffffffffffffffffffffffffffffffffffffff16815260200190815260200160002060008473ffffffffffffffffffffffffffffffffffffffff1673ffffffffffffffffffffffffffffffffffffffff16815260200190815260200160002060006101000a81548160ff0219169083151502179055508173ffffffffffffffffffffffffffffffffffffffff16610d38611367565b73ffffffffffffffffffffffffffffffffffffffff167f17307eab39ab6107e8899845ad3d59bd9653f200f220920489ca2b5937696c318360405180821515815260200191505060405180910390a35050565b6000610d9e610d99836111e2565b61092b565b9050919050565b6097602052806000526040600020600091509050806000018054600181600116156101000203166002900480601f016020809104026020016040519081016040528092919081815260200182805460018160011615610100020316600290048015610e515780601f10610e2657610100808354040283529160200191610e51565b820191906000526020600020905b815481529060010190602001808311610e3457829003601f168201915b5050505050908060010160009054906101000a900473ffffffffffffffffffffffffffffffffffffffff16905082565b610e92610e8c611367565b8361173c565b610ee7576040517f08c379a00000000000000000000000000000000000000000000000000000000081526004018080602001828103825260318152602001806142fb6031913960400191505060405180910390fd5b610ef384848484611f0a565b50505050565b6060610f048261134a565b610f59576040517f08c379a000000000000000000000000000000000000000000000000000000000815260040180806020018281038252602f8152602001806142ab602f913960400191505060405180910390fd5b6000606c60008481526020019081526020016000208054600181600116156101000203166002900480601f0160208091040260200160405190810160405280929190818152602001828054600181600116156101000203166002900480156110025780601f10610fd757610100808354040283529160200191611002565b820191906000526020600020905b815481529060010190602001808311610fe557829003601f168201915b505050505090506000606d805460018160011615610100020316600290049050141561103157809150506111dd565b60008151111561110a57606d81604051602001808380546001816001161561010002031660029004801561109c5780601f1061107a57610100808354040283529182019161109c565b820191906000526020600020905b815481529060010190602001808311611088575b505082805190602001908083835b602083106110cd57805182526020820191506020810190506020830392506110aa565b6001836020036101000a038019825116818451168082178552505050505050905001925050506040516020818303038152906040529150506111dd565b606d61111584611f7c565b60405160200180838054600181600116156101000203166002900480156111735780601f10611151576101008083540402835291820191611173565b820191906000526020600020905b81548152906001019060200180831161115f575b505082805190602001908083835b602083106111a45780518252602082019150602081019050602083039250611181565b6001836020036101000a038019825116818451168082178552505050505050905001925050506040516020818303038152906040529150505b919050565b6000806000905060005b8351811015611240578184828151811061120257fe5b602002602001015160405160200161121b929190613dc9565b60405160208183030381529060405280519060200120915080806001019150506111ec565b508060001c915050919050565b6000606960008473ffffffffffffffffffffffffffffffffffffffff1673ffffffffffffffffffffffffffffffffffffffff16815260200190815260200160002060008373ffffffffffffffffffffffffffffffffffffffff1673ffffffffffffffffffffffffffffffffffffffff16815260200190815260200160002060009054906101000a900460ff16905092915050565b60006112f3836000018360001b6120c3565b905092915050565b6000611327846000018460001b8473ffffffffffffffffffffffffffffffffffffffff1660001b612133565b90509392505050565b6000611342836000018360001b61220f565b905092915050565b600061136082606661133090919063ffffffff16565b9050919050565b600033905090565b816068600083815260200190815260200160002060006101000a81548173ffffffffffffffffffffffffffffffffffffffff021916908373ffffffffffffffffffffffffffffffffffffffff160217905550808273ffffffffffffffffffffffffffffffffffffffff166113e28361092b565b73ffffffffffffffffffffffffffffffffffffffff167f8c5be1e5ebec7d5bd14f71427d1e84f3dd0314c0f7b2291e5b200ac8c7c3b92560405160405180910390a45050565b60008060606000602085019050600081905060008651905060606000808386019050600080865191505b82871161168657605c60f81b7effffffffffffffffffffffffffffffffffffffffffffffffffffffffffffff1916827effffffffffffffffffffffffffffffffffffffffffffffffffffffffffffff191614156114f5576000826040518060400160405280600981526020017f71756f74656361736500000000000000000000000000000000000000000000008152509a509a509a505050505050505050611720565b602e8260f81c60ff1614156116085760018888030390508067ffffffffffffffff8111801561152357600080fd5b506040519080825280601f01601f1916602001820160405280156115565781602001600182028036833780820191505090505b50945060208501935061156a848983612232565b89856040516020018083815260200180602001828103825283818151815260200191508051906020019080838360005b838110156115b557808201518184015260208101905061159a565b50505050905090810190601f1680156115e25780820380516001836020036101000a031916815260200191505b509350505050604051602081830303815290604052805190602001209950869750611675565b60618260f81c60ff1610806116235750607a8260f81c60ff16115b15611674576000826040518060400160405280601281526020017f6661696c206e6f74206c6f7765726361736500000000000000000000000000008152509a509a509a505050505050505050611720565b5b865191508680600101975050611452565b60018888030390508067ffffffffffffffff811180156116a557600080fd5b506040519080825280601f01601f1916602001820160405280156116d85781602001600182028036833780820191505090505b5094506020850193506116ec848983612232565b6001857f0200000000000000000000000000000000000000000000000000000000000000909a509a509a5050505050505050505b9193909250565b60006117358260000161227b565b9050919050565b60006117478261134a565b61179c576040517f08c379a000000000000000000000000000000000000000000000000000000000815260040180806020018281038252602c81526020018061417d602c913960400191505060405180910390fd5b60006117a78361092b565b90508073ffffffffffffffffffffffffffffffffffffffff168473ffffffffffffffffffffffffffffffffffffffff16148061181657508373ffffffffffffffffffffffffffffffffffffffff166117fe846105f0565b73ffffffffffffffffffffffffffffffffffffffff16145b806118275750611826818561124d565b5b91505092915050565b6118398161092b565b73ffffffffffffffffffffffffffffffffffffffff166097600083815260200190815260200160002060010160009054906101000a900473ffffffffffffffffffffffffffffffffffffffff1673ffffffffffffffffffffffffffffffffffffffff1614156118f857816097600083815260200190815260200160002060010160006101000a81548173ffffffffffffffffffffffffffffffffffffffff021916908373ffffffffffffffffffffffffffffffffffffffff1602179055505b61190383838361228c565b505050565b600061191783600001836124cf565b60001c905092915050565b6000806000806119358660000186612552565b915091508160001c8160001c9350935050509250929050565b60606000829050600061196182516125eb565b9050600061197882516002026004855101016125eb565b9050611e17611e126040518060400160405280600281526020017f1220000000000000000000000000000000000000000000000000000000000000815250611e0d60026040518060400160405280600181526020017f0a00000000000000000000000000000000000000000000000000000000000000815250866040518060400160405280600381526020017f0802120000000000000000000000000000000000000000000000000000000000815250898b6040518060400160405280600181526020017f18000000000000000000000000000000000000000000000000000000000000008152508c604051602001808060200180602001806020018060200180602001806020018060200188810388528f818151815260200191508051906020019080838360005b83811015611abc578082015181840152602081019050611aa1565b50505050905090810190601f168015611ae95780820380516001836020036101000a031916815260200191505b5088810387528e818151815260200191508051906020019080838360005b83811015611b22578082015181840152602081019050611b07565b50505050905090810190601f168015611b4f5780820380516001836020036101000a031916815260200191505b5088810386528d818151815260200191508051906020019080838360005b83811015611b88578082015181840152602081019050611b6d565b50505050905090810190601f168015611bb55780820380516001836020036101000a031916815260200191505b5088810385528c818151815260200191508051906020019080838360005b83811015611bee578082015181840152602081019050611bd3565b50505050905090810190601f168015611c1b5780820380516001836020036101000a031916815260200191505b5088810384528b818151815260200191508051906020019080838360005b83811015611c54578082015181840152602081019050611c39565b50505050905090810190601f168015611c815780820380516001836020036101000a031916815260200191505b5088810383528a818151815260200191508051906020019080838360005b83811015611cba578082015181840152602081019050611c9f565b50505050905090810190601f168015611ce75780820380516001836020036101000a031916815260200191505b50888103825289818151815260200191508051906020019080838360005b83811015611d20578082015181840152602081019050611d05565b50505050905090810190601f168015611d4d5780820380516001836020036101000a031916815260200191505b509e5050505050505050505050505050506040516020818303038152906040526040518082805190602001908083835b60208310611da05780518252602082019150602081019050602083039250611d7d565b6001836020036101000a038019825116818451168082178552505050505050905001915050602060405180830381855afa158015611de2573d6000803e3d6000fd5b5050506040513d6020811015611df757600080fd5b810190808051906020019092919050505061263e565b612707565b612859565b9350505050919050565b6000611e34846000018460001b84612a4e565b60001c90509392505050565b6000611e4e82600001612b44565b9050919050565b6000878787604051602001611e6c93929190613e88565b6040516020818303038152906040528051906020012060001c9050611e918582612b55565b60006097600083815260200190815260200160002090508383826000019190611ebb92919061369a565b50848160010160006101000a81548173ffffffffffffffffffffffffffffffffffffffff021916908373ffffffffffffffffffffffffffffffffffffffff160217905550505050505050505050565b611f15848484611830565b611f2184848484612d49565b611f76576040517f08c379a00000000000000000000000000000000000000000000000000000000081526004018080602001828103825260328152602001806141016032913960400191505060405180910390fd5b50505050565b60606000821415611fc4576040518060400160405280600181526020017f300000000000000000000000000000000000000000000000000000000000000081525090506120be565b600082905060005b60008214611fee578080600101915050600a8281611fe657fe5b049150611fcc565b60008167ffffffffffffffff8111801561200757600080fd5b506040519080825280601f01601f19166020018201604052801561203a5781602001600182028036833780820191505090505b50905060006001830390508593505b600084146120b657600a848161205b57fe5b0660300160f81b8282806001900393508151811061207557fe5b60200101907effffffffffffffffffffffffffffffffffffffffffffffffffffffffffffff1916908160001a905350600a84816120ae57fe5b049350612049565b819450505050505b919050565b60006120cf8383612f62565b61212857826000018290806001815401808255809150506001900390600052602060002001600090919091909150558260000180549050836001016000848152602001908152602001600020819055506001905061212d565b600090505b92915050565b60008084600101600085815260200190815260200160002054905060008114156121da57846000016040518060400160405280868152602001858152509080600181540180825580915050600190039060005260206000209060020201600090919091909150600082015181600001556020820151816001015550508460000180549050856001016000868152602001908152602001600020819055506001915050612208565b828560000160018303815481106121ed57fe5b90600052602060002090600202016001018190555060009150505b9392505050565b600080836001016000848152602001908152602001600020541415905092915050565b5b602081106122565781518352602083019250602082019150602081039050612233565b60006001826020036101000a0390508019835116818551168181178652505050505050565b600081600001805490509050919050565b8273ffffffffffffffffffffffffffffffffffffffff166122ac8261092b565b73ffffffffffffffffffffffffffffffffffffffff1614612318576040517f08c379a00000000000000000000000000000000000000000000000000000000081526004018080602001828103825260298152602001806142826029913960400191505060405180910390fd5b600073ffffffffffffffffffffffffffffffffffffffff168273ffffffffffffffffffffffffffffffffffffffff16141561239e576040517f08c379a00000000000000000000000000000000000000000000000000000000081526004018080602001828103825260248152602001806141336024913960400191505060405180910390fd5b6123a9838383612f85565b6123b460008261136f565b61240581606560008673ffffffffffffffffffffffffffffffffffffffff1673ffffffffffffffffffffffffffffffffffffffff168152602001908152602001600020612f8a90919063ffffffff16565b5061245781606560008573ffffffffffffffffffffffffffffffffffffffff1673ffffffffffffffffffffffffffffffffffffffff1681526020019081526020016000206112e190919063ffffffff16565b5061246e818360666112fb9092919063ffffffff16565b50808273ffffffffffffffffffffffffffffffffffffffff168473ffffffffffffffffffffffffffffffffffffffff167fddf252ad1be2c89b69c2b068fc378daa952ba7f163c4a11628f55a4df523b3ef60405160405180910390a4505050565b600081836000018054905011612530576040517f08c379a00000000000000000000000000000000000000000000000000000000081526004018080602001828103825260228152602001806140df6022913960400191505060405180910390fd5b82600001828154811061253f57fe5b9060005260206000200154905092915050565b600080828460000180549050116125b4576040517f08c379a00000000000000000000000000000000000000000000000000000000081526004018080602001828103825260228152602001806142346022913960400191505060405180910390fd5b60008460000184815481106125c557fe5b906000526020600020906002020190508060000154816001015492509250509250929050565b60606080821015612606576125ff82612fa4565b9050612639565b61263661261e608080858161261757fe5b0601612fa4565b6126316080858161262b57fe5b04612fa4565b612707565b90505b919050565b60606000602067ffffffffffffffff8111801561265a57600080fd5b506040519080825280601f01601f19166020018201604052801561268d5781602001600182028036833780820191505090505b50905060005b60208160ff1610156126fd57838160ff16602081106126ae57fe5b1a60f81b828260ff16815181106126c157fe5b60200101907effffffffffffffffffffffffffffffffffffffffffffffffffffffffffffff1916908160001a9053508080600101915050612693565b5080915050919050565b60606000825184510167ffffffffffffffff8111801561272657600080fd5b506040519080825280601f01601f1916602001820160405280156127595781602001600182028036833780820191505090505b50905060005b84518161ffff1610156127d357848161ffff168151811061277c57fe5b602001015160f81c60f81b828261ffff168151811061279757fe5b60200101907effffffffffffffffffffffffffffffffffffffffffffffffffffffffffffff1916908160001a905350808060010191505061275f565b5b83518551018161ffff16101561284e578385518261ffff1603815181106127f757fe5b602001015160f81c60f81b828261ffff168151811061281257fe5b60200101907effffffffffffffffffffffffffffffffffffffffffffffffffffffffffffff1916908160001a90535080806001019150506127d4565b819250505092915050565b60606000825114156128b857600067ffffffffffffffff8111801561287d57600080fd5b506040519080825280601f01601f1916602001820160405280156128b05781602001600182028036833780820191505090505b509050612a49565b6000606467ffffffffffffffff811180156128d257600080fd5b506040519080825280602002602001820160405280156129015781602001602082028036833780820191505090505b50905060008160008151811061291357fe5b602002602001019060ff16908160ff168152505060006001905060005b8451811015612a2957600085828151811061294757fe5b602001015160f81c60f81b60f81c60ff16905060005b8360ff168110156129ca5761010085828151811061297757fe5b602002602001015160ff160282019150603a828161299157fe5b0685828151811061299e57fe5b602002602001019060ff16908160ff1681525050603a82816129bc57fe5b04915080600101905061295d565b505b6000811115612a1d57603a81816129df57fe5b06848460ff16815181106129ef57fe5b602002602001019060ff16908160ff16815250508280600101935050603a8181612a1557fe5b0490506129cc565b50806001019050612930565b50612a44612a3f612a3a84846130c9565b613173565b61321e565b925050505b919050565b60008084600101600085815260200190815260200160002054905060008114158390612b15576040517f08c379a00000000000000000000000000000000000000000000000000000000081526004018080602001828103825283818151815260200191508051906020019080838360005b83811015612ada578082015181840152602081019050612abf565b50505050905090810190601f168015612b075780820380516001836020036101000a031916815260200191505b509250505060405180910390fd5b50846000016001820381548110612b2857fe5b9060005260206000209060020201600101549150509392505050565b600081600001805490509050919050565b600073ffffffffffffffffffffffffffffffffffffffff168273ffffffffffffffffffffffffffffffffffffffff161415612bf8576040517f08c379a00000000000000000000000000000000000000000000000000000000081526004018080602001828103825260208152602001807f4552433732313a206d696e7420746f20746865207a65726f206164647265737381525060200191505060405180910390fd5b612c018161134a565b15612c74576040517f08c379a000000000000000000000000000000000000000000000000000000000815260040180806020018281038252601c8152602001807f4552433732313a20746f6b656e20616c7265616479206d696e7465640000000081525060200191505060405180910390fd5b612c8060008383612f85565b612cd181606560008573ffffffffffffffffffffffffffffffffffffffff1673ffffffffffffffffffffffffffffffffffffffff1681526020019081526020016000206112e190919063ffffffff16565b50612ce8818360666112fb9092919063ffffffff16565b50808273ffffffffffffffffffffffffffffffffffffffff16600073ffffffffffffffffffffffffffffffffffffffff167fddf252ad1be2c89b69c2b068fc378daa952ba7f163c4a11628f55a4df523b3ef60405160405180910390a45050565b6000612d6a8473ffffffffffffffffffffffffffffffffffffffff16613313565b612d775760019050612f5a565b6000612ee163150b7a0260e01b612d8c611367565b888787604051602401808573ffffffffffffffffffffffffffffffffffffffff1681526020018473ffffffffffffffffffffffffffffffffffffffff16815260200183815260200180602001828103825283818151815260200191508051906020019080838360005b83811015612e10578082015181840152602081019050612df5565b50505050905090810190601f168015612e3d5780820380516001836020036101000a031916815260200191505b5095505050505050604051602081830303815290604052907bffffffffffffffffffffffffffffffffffffffffffffffffffffffff19166020820180517bffffffffffffffffffffffffffffffffffffffffffffffffffffffff8381831617835250505050604051806060016040528060328152602001614101603291398773ffffffffffffffffffffffffffffffffffffffff166133269092919063ffffffff16565b90506000818060200190516020811015612efa57600080fd5b8101908080519060200190929190505050905063150b7a0260e01b7bffffffffffffffffffffffffffffffffffffffffffffffffffffffff1916817bffffffffffffffffffffffffffffffffffffffffffffffffffffffff191614925050505b949350505050565b600080836001016000848152602001908152602001600020541415905092915050565b505050565b6000612f9c836000018360001b61333e565b905092915050565b6060600082141561300257600067ffffffffffffffff81118015612fc757600080fd5b506040519080825280601f01601f191660200182016040528015612ffa5781602001600182028036833780820191505090505b5090506130c4565b6000610100838161300f57fe5b0660f81b90506000600167ffffffffffffffff8111801561302f57600080fd5b506040519080825280601f01601f1916602001820160405280156130625781602001600182028036833780820191505090505b509050818160008151811061307357fe5b60200101907effffffffffffffffffffffffffffffffffffffffffffffffffffffffffffff1916908160001a9053506130bf6130b961010086816130b357fe5b04612fa4565b82612707565b925050505b919050565b606060008260ff1667ffffffffffffffff811180156130e757600080fd5b506040519080825280602002602001820160405280156131165781602001602082028036833780820191505090505b50905060005b8360ff168110156131685784818151811061313357fe5b602002602001015182828151811061314757fe5b602002602001019060ff16908160ff1681525050808060010191505061311c565b508091505092915050565b60606000825167ffffffffffffffff8111801561318f57600080fd5b506040519080825280602002602001820160405280156131be5781602001602082028036833780820191505090505b50905060005b8351811015613214578381600186510303815181106131df57fe5b60200260200101518282815181106131f357fe5b602002602001019060ff16908160ff168152505080806001019150506131c4565b5080915050919050565b60606000825167ffffffffffffffff8111801561323a57600080fd5b506040519080825280601f01601f19166020018201604052801561326d5781602001600182028036833780820191505090505b50905060005b8351811015613309576040518060600160405280603a815260200161432c603a91398482815181106132a157fe5b602002602001015160ff16815181106132b657fe5b602001015160f81c60f81b8282815181106132cd57fe5b60200101907effffffffffffffffffffffffffffffffffffffffffffffffffffffffffffff1916908160001a9053508080600101915050613273565b5080915050919050565b600080823b905060008111915050919050565b60606133358484600085613426565b90509392505050565b6000808360010160008481526020019081526020016000205490506000811461341a576000600182039050600060018660000180549050039050600086600001828154811061338957fe5b90600052602060002001549050808760000184815481106133a657fe5b90600052602060002001819055506001830187600101600083815260200190815260200160002081905550866000018054806133de57fe5b60019003818190600052602060002001600090559055866001016000878152602001908152602001600020600090556001945050505050613420565b60009150505b92915050565b606082471015613481576040517f08c379a00000000000000000000000000000000000000000000000000000000081526004018080602001828103825260268152602001806141576026913960400191505060405180910390fd5b61348a85613313565b6134fc576040517f08c379a000000000000000000000000000000000000000000000000000000000815260040180806020018281038252601d8152602001807f416464726573733a2063616c6c20746f206e6f6e2d636f6e747261637400000081525060200191505060405180910390fd5b6000808673ffffffffffffffffffffffffffffffffffffffff1685876040518082805190602001908083835b6020831061354b5780518252602082019150602081019050602083039250613528565b6001836020036101000a03801982511681845116808217855250505050505090500191505060006040518083038185875af1925050503d80600081146135ad576040519150601f19603f3d011682016040523d82523d6000602084013e6135b2565b606091505b50915091506135c28282866135ce565b92505050949350505050565b606083156135de57829050613693565b6000835111156135f15782518084602001fd5b816040517f08c379a00000000000000000000000000000000000000000000000000000000081526004018080602001828103825283818151815260200191508051906020019080838360005b8381101561365857808201518184015260208101905061363d565b50505050905090810190601f1680156136855780820380516001836020036101000a031916815260200191505b509250505060405180910390fd5b9392505050565b828054600181600116156101000203166002900490600052602060002090601f0160209004810192826136d05760008555613717565b82601f106136e957803560ff1916838001178555613717565b82800160010185558215613717579182015b828111156137165782358255916020019190600101906136fb565b5b5090506137249190613728565b5090565b5b80821115613741576000816000905550600101613729565b5090565b600061375861375384613eeb565b613eba565b9050808382526020820190508260005b85811015613798578135850161377e88826138fb565b845260208401935060208301925050600181019050613768565b5050509392505050565b60006137b56137b084613f17565b613eba565b9050828152602081018484840111156137cd57600080fd5b6137d884828561402d565b509392505050565b60006137f36137ee84613f47565b613eba565b90508281526020810184848401111561380b57600080fd5b61381684828561402d565b509392505050565b60008135905061382d81614082565b92915050565b600082601f83011261384457600080fd5b8135613854848260208601613745565b91505092915050565b60008135905061386c81614099565b92915050565b600081359050613881816140b0565b92915050565b600082601f83011261389857600080fd5b81356138a88482602086016137a2565b91505092915050565b60008083601f8401126138c357600080fd5b8235905067ffffffffffffffff8111156138dc57600080fd5b6020830191508360018202830111156138f457600080fd5b9250929050565b600082601f83011261390c57600080fd5b813561391c8482602086016137e0565b91505092915050565b600081359050613934816140c7565b92915050565b60006020828403121561394c57600080fd5b600061395a8482850161381e565b91505092915050565b6000806040838503121561397657600080fd5b60006139848582860161381e565b92505060206139958582860161381e565b9150509250929050565b6000806000606084860312156139b457600080fd5b60006139c28682870161381e565b93505060206139d38682870161381e565b92505060406139e486828701613925565b9150509250925092565b60008060008060808587031215613a0457600080fd5b6000613a128782880161381e565b9450506020613a238782880161381e565b9350506040613a3487828801613925565b925050606085013567ffffffffffffffff811115613a5157600080fd5b613a5d87828801613887565b91505092959194509250565b60008060408385031215613a7c57600080fd5b6000613a8a8582860161381e565b9250506020613a9b8582860161385d565b9150509250929050565b60008060408385031215613ab857600080fd5b6000613ac68582860161381e565b9250506020613ad785828601613925565b9150509250929050565b600060208284031215613af357600080fd5b600082013567ffffffffffffffff811115613b0d57600080fd5b613b1984828501613833565b91505092915050565b600060208284031215613b3457600080fd5b6000613b4284828501613872565b91505092915050565b600060208284031215613b5d57600080fd5b600082013567ffffffffffffffff811115613b7757600080fd5b613b83848285016138fb565b91505092915050565b600060208284031215613b9e57600080fd5b6000613bac84828501613925565b91505092915050565b600080600080600080600060a0888a031215613bd057600080fd5b6000613bde8a828b01613925565b975050602088013567ffffffffffffffff811115613bfb57600080fd5b613c078a828b016138b1565b96509650506040613c1a8a828b0161381e565b9450506060613c2b8a828b0161381e565b935050608088013567ffffffffffffffff811115613c4857600080fd5b613c548a828b016138b1565b925092505092959891949750929550565b613c6e81613faf565b82525050565b613c7d81613fc1565b82525050565b613c8c81613fcd565b82525050565b6000613c9d82613f77565b613ca78185613f8d565b9350613cb781856020860161403c565b613cc081614071565b840191505092915050565b6000613cd78385613f9e565b9350613ce483858461402d565b613ced83614071565b840190509392505050565b6000613d0382613f82565b613d0d8185613f9e565b9350613d1d81856020860161403c565b613d2681614071565b840191505092915050565b613d3a81614023565b82525050565b6000602082019050613d556000830184613c65565b92915050565b6000602082019050613d706000830184613c74565b92915050565b6000608082019050613d8b6000830187613c74565b613d986020830186613c83565b8181036040830152613daa8185613cf8565b90508181036060830152613dbe8184613c92565b905095945050505050565b6000604082019050613dde6000830185613c83565b8181036020830152613df08184613cf8565b90509392505050565b60006020820190508181036000830152613e138184613c92565b905092915050565b60006020820190508181036000830152613e358184613cf8565b905092915050565b60006040820190508181036000830152613e578185613cf8565b9050613e666020830184613c65565b9392505050565b6000602082019050613e826000830184613d31565b92915050565b6000604082019050613e9d6000830186613d31565b8181036020830152613eb0818486613ccb565b9050949350505050565b6000604051905081810181811067ffffffffffffffff82111715613ee157613ee061406f565b5b8060405250919050565b600067ffffffffffffffff821115613f0657613f0561406f565b5b602082029050602081019050919050565b600067ffffffffffffffff821115613f3257613f3161406f565b5b601f19601f8301169050602081019050919050565b600067ffffffffffffffff821115613f6257613f6161406f565b5b601f19601f8301169050602081019050919050565b600081519050919050565b600081519050919050565b600082825260208201905092915050565b600082825260208201905092915050565b6000613fba82614003565b9050919050565b60008115159050919050565b6000819050919050565b60007fffffffff0000000000000000000000000000000000000000000000000000000082169050919050565b600073ffffffffffffffffffffffffffffffffffffffff82169050919050565b6000819050919050565b82818337600083830152505050565b60005b8381101561405a57808201518184015260208101905061403f565b83811115614069576000848401525b50505050565bfe5b6000601f19601f8301169050919050565b61408b81613faf565b811461409657600080fd5b50565b6140a281613fc1565b81146140ad57600080fd5b50565b6140b981613fd7565b81146140c457600080fd5b50565b6140d081614023565b81146140db57600080fd5b5056fe456e756d657261626c655365743a20696e646578206f7574206f6620626f756e64734552433732313a207472616e7366657220746f206e6f6e20455243373231526563656976657220696d706c656d656e7465724552433732313a207472616e7366657220746f20746865207a65726f2061646472657373416464726573733a20696e73756666696369656e742062616c616e636520666f722063616c6c4552433732313a206f70657261746f7220717565727920666f72206e6f6e6578697374656e7420746f6b656e4552433732313a20617070726f76652063616c6c6572206973206e6f74206f776e6572206e6f7220617070726f76656420666f7220616c6c4552433732313a2062616c616e636520717565727920666f7220746865207a65726f20616464726573734552433732313a206f776e657220717565727920666f72206e6f6e6578697374656e7420746f6b656e456e756d657261626c654d61703a20696e646578206f7574206f6620626f756e64734552433732313a20617070726f76656420717565727920666f72206e6f6e6578697374656e7420746f6b656e4552433732313a207472616e73666572206f6620746f6b656e2074686174206973206e6f74206f776e4552433732314d657461646174613a2055524920717565727920666f72206e6f6e6578697374656e7420746f6b656e4552433732313a20617070726f76616c20746f2063757272656e74206f776e65724552433732313a207472616e736665722063616c6c6572206973206e6f74206f776e6572206e6f7220617070726f76656431323334353637383941424344454647484a4b4c4d4e505152535455565758595a6162636465666768696a6b6d6e6f707172737475767778797aa2646970667358221220ced88b2f2fe122736baca187400b98dcb41b15d35d04f09ab89c3f92094e720064736f6c63430007060033496e697469616c697a61626c653a20636f6e747261637420697320616c726561647920696e697469616c697a6564",
  "linkReferences": {},
  "deployedLinkReferences": {}
}