{
  "_format": "hh-sol-artifact-1",
  "contractName": "Registrar",
  "sourceName": "contracts/Registrar.sol",
  "abi": [
    {
      "inputs": [
        {
          "internalType": "address",
          "name": "_owner",
          "type": "address"
        },
        {
          "internalType": "address",
          "name": "_controller",
          "type": "address"
        }
      ],
      "stateMutability": "nonpayable",
      "type": "constructor"
    },
    {
      "anonymous": false,
      "inputs": [
        {
          "indexed": true,
          "internalType": "address",
          "name": "owner",
          "type": "address"
        },
        {
          "indexed": true,
          "internalType": "address",
          "name": "approved",
          "type": "address"
        },
        {
          "indexed": true,
          "internalType": "uint256",
          "name": "tokenId",
          "type": "uint256"
        }
      ],
      "name": "Approval",
      "type": "event"
    },
    {
      "anonymous": false,
      "inputs": [
        {
          "indexed": true,
          "internalType": "address",
          "name": "owner",
          "type": "address"
        },
        {
          "indexed": true,
          "internalType": "address",
          "name": "operator",
          "type": "address"
        },
        {
          "indexed": false,
          "internalType": "bool",
          "name": "approved",
          "type": "bool"
        }
      ],
      "name": "ApprovalForAll",
      "type": "event"
    },
    {
      "anonymous": false,
      "inputs": [
        {
          "indexed": true,
          "internalType": "uint256",
          "name": "parentId",
          "type": "uint256"
        },
        {
          "indexed": false,
          "internalType": "uint256",
          "name": "tokenId",
          "type": "uint256"
        },
        {
          "indexed": false,
          "internalType": "string",
          "name": "domain",
          "type": "string"
        },
        {
          "indexed": false,
          "internalType": "address",
          "name": "_owner",
          "type": "address"
        },
        {
          "indexed": false,
          "internalType": "address",
          "name": "_controller",
          "type": "address"
        },
        {
          "indexed": false,
          "internalType": "string",
          "name": "_ref",
          "type": "string"
        }
      ],
      "name": "DomainCreated",
      "type": "event"
    },
    {
      "anonymous": false,
      "inputs": [
        {
          "indexed": true,
          "internalType": "address",
          "name": "from",
          "type": "address"
        },
        {
          "indexed": true,
          "internalType": "address",
          "name": "to",
          "type": "address"
        },
        {
          "indexed": true,
          "internalType": "uint256",
          "name": "tokenId",
          "type": "uint256"
        }
      ],
      "name": "Transfer",
      "type": "event"
    },
    {
      "inputs": [
        {
          "internalType": "address",
          "name": "to",
          "type": "address"
        },
        {
          "internalType": "uint256",
          "name": "tokenId",
          "type": "uint256"
        }
      ],
      "name": "approve",
      "outputs": [],
      "stateMutability": "nonpayable",
      "type": "function"
    },
    {
      "inputs": [
        {
          "internalType": "address",
          "name": "owner",
          "type": "address"
        }
      ],
      "name": "balanceOf",
      "outputs": [
        {
          "internalType": "uint256",
          "name": "",
          "type": "uint256"
        }
      ],
      "stateMutability": "view",
      "type": "function"
    },
    {
      "inputs": [],
      "name": "baseURI",
      "outputs": [
        {
          "internalType": "string",
          "name": "",
          "type": "string"
        }
      ],
      "stateMutability": "view",
      "type": "function"
    },
    {
      "inputs": [
        {
          "internalType": "string",
          "name": "domain",
          "type": "string"
        },
        {
          "internalType": "address",
          "name": "_owner",
          "type": "address"
        },
        {
          "internalType": "address",
          "name": "_controller",
          "type": "address"
        },
        {
          "internalType": "string",
          "name": "_ref",
          "type": "string"
        }
      ],
      "name": "createDomain",
      "outputs": [],
      "stateMutability": "nonpayable",
      "type": "function"
    },
    {
      "inputs": [
        {
          "internalType": "uint256",
          "name": "id",
          "type": "uint256"
        }
      ],
      "name": "entries",
      "outputs": [
        {
          "components": [
            {
              "internalType": "uint256",
              "name": "parent",
              "type": "uint256"
            },
            {
              "internalType": "string",
              "name": "ref",
              "type": "string"
            },
            {
              "internalType": "string",
              "name": "domain",
              "type": "string"
            },
            {
              "internalType": "address",
              "name": "controller",
              "type": "address"
            },
            {
              "internalType": "address",
              "name": "owner",
              "type": "address"
            },
            {
              "internalType": "uint256[]",
              "name": "children",
              "type": "uint256[]"
            }
          ],
          "internalType": "struct Registrar.EntryView",
          "name": "out",
          "type": "tuple"
        }
      ],
      "stateMutability": "view",
      "type": "function"
    },
    {
      "inputs": [
        {
          "internalType": "uint256",
          "name": "tokenId",
          "type": "uint256"
        }
      ],
      "name": "getApproved",
      "outputs": [
        {
          "internalType": "address",
          "name": "",
          "type": "address"
        }
      ],
      "stateMutability": "view",
      "type": "function"
    },
    {
      "inputs": [
        {
          "internalType": "string[]",
          "name": "path",
          "type": "string[]"
        }
      ],
      "name": "getId",
      "outputs": [
        {
          "internalType": "uint256",
          "name": "",
          "type": "uint256"
        }
      ],
      "stateMutability": "pure",
      "type": "function"
    },
    {
      "inputs": [
        {
          "internalType": "string[]",
          "name": "path",
          "type": "string[]"
        }
      ],
      "name": "getOwner",
      "outputs": [
        {
          "internalType": "address",
          "name": "",
          "type": "address"
        }
      ],
      "stateMutability": "view",
      "type": "function"
    },
    {
      "inputs": [
        {
          "internalType": "address",
          "name": "owner",
          "type": "address"
        },
        {
          "internalType": "address",
          "name": "operator",
          "type": "address"
        }
      ],
      "name": "isApprovedForAll",
      "outputs": [
        {
          "internalType": "bool",
          "name": "",
          "type": "bool"
        }
      ],
      "stateMutability": "view",
      "type": "function"
    },
    {
      "inputs": [],
      "name": "name",
      "outputs": [
        {
          "internalType": "string",
          "name": "",
          "type": "string"
        }
      ],
      "stateMutability": "view",
      "type": "function"
    },
    {
      "inputs": [
        {
          "internalType": "uint256",
          "name": "tokenId",
          "type": "uint256"
        }
      ],
      "name": "ownerOf",
      "outputs": [
        {
          "internalType": "address",
          "name": "",
          "type": "address"
        }
      ],
      "stateMutability": "view",
      "type": "function"
    },
    {
      "inputs": [
        {
          "internalType": "address",
          "name": "from",
          "type": "address"
        },
        {
          "internalType": "address",
          "name": "to",
          "type": "address"
        },
        {
          "internalType": "uint256",
          "name": "tokenId",
          "type": "uint256"
        }
      ],
      "name": "safeTransferFrom",
      "outputs": [],
      "stateMutability": "nonpayable",
      "type": "function"
    },
    {
      "inputs": [
        {
          "internalType": "address",
          "name": "from",
          "type": "address"
        },
        {
          "internalType": "address",
          "name": "to",
          "type": "address"
        },
        {
          "internalType": "uint256",
          "name": "tokenId",
          "type": "uint256"
        },
        {
          "internalType": "bytes",
          "name": "_data",
          "type": "bytes"
        }
      ],
      "name": "safeTransferFrom",
      "outputs": [],
      "stateMutability": "nonpayable",
      "type": "function"
    },
    {
      "inputs": [
        {
          "internalType": "address",
          "name": "operator",
          "type": "address"
        },
        {
          "internalType": "bool",
          "name": "approved",
          "type": "bool"
        }
      ],
      "name": "setApprovalForAll",
      "outputs": [],
      "stateMutability": "nonpayable",
      "type": "function"
    },
    {
      "inputs": [
        {
          "internalType": "bytes4",
          "name": "interfaceId",
          "type": "bytes4"
        }
      ],
      "name": "supportsInterface",
      "outputs": [
        {
          "internalType": "bool",
          "name": "",
          "type": "bool"
        }
      ],
      "stateMutability": "view",
      "type": "function"
    },
    {
      "inputs": [],
      "name": "symbol",
      "outputs": [
        {
          "internalType": "string",
          "name": "",
          "type": "string"
        }
      ],
      "stateMutability": "view",
      "type": "function"
    },
    {
      "inputs": [
        {
          "internalType": "uint256",
          "name": "index",
          "type": "uint256"
        }
      ],
      "name": "tokenByIndex",
      "outputs": [
        {
          "internalType": "uint256",
          "name": "",
          "type": "uint256"
        }
      ],
      "stateMutability": "view",
      "type": "function"
    },
    {
      "inputs": [
        {
          "internalType": "address",
          "name": "owner",
          "type": "address"
        },
        {
          "internalType": "uint256",
          "name": "index",
          "type": "uint256"
        }
      ],
      "name": "tokenOfOwnerByIndex",
      "outputs": [
        {
          "internalType": "uint256",
          "name": "",
          "type": "uint256"
        }
      ],
      "stateMutability": "view",
      "type": "function"
    },
    {
      "inputs": [
        {
          "internalType": "uint256",
          "name": "tokenId",
          "type": "uint256"
        }
      ],
      "name": "tokenURI",
      "outputs": [
        {
          "internalType": "string",
          "name": "",
          "type": "string"
        }
      ],
      "stateMutability": "view",
      "type": "function"
    },
    {
      "inputs": [
        {
          "internalType": "uint256",
          "name": "token",
          "type": "uint256"
        }
      ],
      "name": "tokenUri",
      "outputs": [
        {
          "internalType": "string",
          "name": "out",
          "type": "string"
        }
      ],
      "stateMutability": "view",
      "type": "function"
    },
    {
      "inputs": [],
      "name": "totalSupply",
      "outputs": [
        {
          "internalType": "uint256",
          "name": "",
          "type": "uint256"
        }
      ],
      "stateMutability": "view",
      "type": "function"
    },
    {
      "inputs": [
        {
          "internalType": "address",
          "name": "from",
          "type": "address"
        },
        {
          "internalType": "address",
          "name": "to",
          "type": "address"
        },
        {
          "internalType": "uint256",
          "name": "tokenId",
          "type": "uint256"
        }
      ],
      "name": "transferFrom",
      "outputs": [],
      "stateMutability": "nonpayable",
      "type": "function"
    },
    {
      "inputs": [
        {
          "internalType": "string",
          "name": "_s",
          "type": "string"
        }
      ],
      "name": "validateDomain",
      "outputs": [
        {
          "internalType": "bool",
          "name": "valid",
          "type": "bool"
        },
        {
          "internalType": "uint256",
          "name": "parent",
          "type": "uint256"
        },
        {
          "internalType": "string",
          "name": "domain",
          "type": "string"
        }
      ],
      "stateMutability": "pure",
      "type": "function"
    }
  ],
  "bytecode": "0x60806040523480156200001157600080fd5b5060405162004f9038038062004f90833981810160405281019062000037919062000cfc565b620000b36040518060400160405280601181526020017f5a657230204e616d6520536572766963650000000000000000000000000000008152506040518060400160405280600381526020017f5a4e530000000000000000000000000000000000000000000000000000000000815250620001b960201b60201c565b620000c6826000620002f960201b60201c565b60006097600080815260200190815260200160002090506040518060400160405280600381526020017f5a4e5300000000000000000000000000000000000000000000000000000000008152508160020190805190602001906200012c92919062000c2f565b50818160030160006101000a81548173ffffffffffffffffffffffffffffffffffffffff021916908373ffffffffffffffffffffffffffffffffffffffff16021790555060007f950672e87ea0e77544ed29d9c2bc8d35d19a6402659e4712d1fc79f2c2f7f16760008585604051620001a89392919062000de3565b60405180910390a250505062000ec7565b600060019054906101000a900460ff1680620001e15750620001e06200050d60201b60201c565b5b80620001f8575060008054906101000a900460ff16155b6200024f576040517f08c379a000000000000000000000000000000000000000000000000000000000815260040180806020018281038252602e81526020018062004f62602e913960400191505060405180910390fd5b60008060019054906101000a900460ff161590508015620002a0576001600060016101000a81548160ff02191690831515021790555060016000806101000a81548160ff0219169083151502179055505b620002b06200052460201b60201c565b620002c06200063060201b60201c565b620002d283836200075460201b60201c565b8015620002f45760008060016101000a81548160ff0219169083151502179055505b505050565b600073ffffffffffffffffffffffffffffffffffffffff168273ffffffffffffffffffffffffffffffffffffffff1614156200039d576040517f08c379a00000000000000000000000000000000000000000000000000000000081526004018080602001828103825260208152602001807f4552433732313a206d696e7420746f20746865207a65726f206164647265737381525060200191505060405180910390fd5b620003ae81620008dc60201b60201c565b1562000422576040517f08c379a000000000000000000000000000000000000000000000000000000000815260040180806020018281038252601c8152602001807f4552433732313a20746f6b656e20616c7265616479206d696e7465640000000081525060200191505060405180910390fd5b62000436600083836200090060201b60201c565b6200048e81606560008573ffffffffffffffffffffffffffffffffffffffff1673ffffffffffffffffffffffffffffffffffffffff1681526020019081526020016000206200090560201b620014b21790919060201c565b50620004ac818360666200092760201b620014cc179092919060201c565b50808273ffffffffffffffffffffffffffffffffffffffff16600073ffffffffffffffffffffffffffffffffffffffff167fddf252ad1be2c89b69c2b068fc378daa952ba7f163c4a11628f55a4df523b3ef60405160405180910390a45050565b6000803090506000813b9050600081149250505090565b600060019054906101000a900460ff16806200054c57506200054b6200050d60201b60201c565b5b8062000563575060008054906101000a900460ff16155b620005ba576040517f08c379a000000000000000000000000000000000000000000000000000000000815260040180806020018281038252602e81526020018062004f62602e913960400191505060405180910390fd5b60008060019054906101000a900460ff1615905080156200060b576001600060016101000a81548160ff02191690831515021790555060016000806101000a81548160ff0219169083151502179055505b80156200062d5760008060016101000a81548160ff0219169083151502179055505b50565b600060019054906101000a900460ff1680620006585750620006576200050d60201b60201c565b5b806200066f575060008054906101000a900460ff16155b620006c6576040517f08c379a000000000000000000000000000000000000000000000000000000000815260040180806020018281038252602e81526020018062004f62602e913960400191505060405180910390fd5b60008060019054906101000a900460ff16159050801562000717576001600060016101000a81548160ff02191690831515021790555060016000806101000a81548160ff0219169083151502179055505b6200072f6301ffc9a760e01b6200096460201b60201c565b8015620007515760008060016101000a81548160ff0219169083151502179055505b50565b600060019054906101000a900460ff16806200077c57506200077b6200050d60201b60201c565b5b8062000793575060008054906101000a900460ff16155b620007ea576040517f08c379a000000000000000000000000000000000000000000000000000000000815260040180806020018281038252602e81526020018062004f62602e913960400191505060405180910390fd5b60008060019054906101000a900460ff1615905080156200083b576001600060016101000a81548160ff02191690831515021790555060016000806101000a81548160ff0219169083151502179055505b82606a90805190602001906200085392919062000c2f565b5081606b90805190602001906200086c92919062000c2f565b50620008856380ac58cd60e01b6200096460201b60201c565b6200089d635b5e139f60e01b6200096460201b60201c565b620008b563780e9d6360e01b6200096460201b60201c565b8015620008d75760008060016101000a81548160ff0219169083151502179055505b505050565b6000620008f982606662000a6e60201b620015011790919060201c565b9050919050565b505050565b60006200091f836000018360001b62000a9060201b60201c565b905092915050565b60006200095b846000018460001b8473ffffffffffffffffffffffffffffffffffffffff1660001b62000b0a60201b60201c565b90509392505050565b63ffffffff60e01b817bffffffffffffffffffffffffffffffffffffffffffffffffffffffff1916141562000a01576040517f08c379a000000000000000000000000000000000000000000000000000000000815260040180806020018281038252601c8152602001807f4552433136353a20696e76616c696420696e746572666163652069640000000081525060200191505060405180910390fd5b600160336000837bffffffffffffffffffffffffffffffffffffffffffffffffffffffff19167bffffffffffffffffffffffffffffffffffffffffffffffffffffffff1916815260200190815260200160002060006101000a81548160ff02191690831515021790555050565b600062000a88836000018360001b62000be960201b60201c565b905092915050565b600062000aa4838362000c0c60201b60201c565b62000aff57826000018290806001815401808255809150506001900390600052602060002001600090919091909150558260000180549050836001016000848152602001908152602001600020819055506001905062000b04565b600090505b92915050565b600080846001016000858152602001908152602001600020549050600081141562000bb35784600001604051806040016040528086815260200185815250908060018154018082558091505060019003906000526020600020906002020160009091909190915060008201518160000155602082015181600101555050846000018054905085600101600086815260200190815260200160002081905550600191505062000be2565b8285600001600183038154811062000bc757fe5b90600052602060002090600202016001018190555060009150505b9392505050565b600080836001016000848152602001908152602001600020541415905092915050565b600080836001016000848152602001908152602001600020541415905092915050565b828054600181600116156101000203166002900490600052602060002090601f01602090048101928262000c67576000855562000cb3565b82601f1062000c8257805160ff191683800117855562000cb3565b8280016001018555821562000cb3579182015b8281111562000cb257825182559160200191906001019062000c95565b5b50905062000cc2919062000cc6565b5090565b5b8082111562000ce157600081600090555060010162000cc7565b5090565b60008151905062000cf68162000ead565b92915050565b6000806040838503121562000d1057600080fd5b600062000d208582860162000ce5565b925050602062000d338582860162000ce5565b9150509250929050565b62000d488162000e5b565b82525050565b62000d598162000e99565b82525050565b600062000d6e60038362000e4a565b91507f7a6e7300000000000000000000000000000000000000000000000000000000006000830152602082019050919050565b600062000db060078362000e4a565b91507f7a6572302e696f000000000000000000000000000000000000000000000000006000830152602082019050919050565b600060a08201905062000dfa600083018662000d4e565b818103602083015262000e0d8162000d5f565b905062000e1e604083018562000d3d565b62000e2d606083018462000d3d565b818103608083015262000e408162000da1565b9050949350505050565b600082825260208201905092915050565b600062000e688262000e6f565b9050919050565b600073ffffffffffffffffffffffffffffffffffffffff82169050919050565b6000819050919050565b600062000ea68262000e8f565b9050919050565b62000eb88162000e5b565b811462000ec457600080fd5b50565b61408b8062000ed76000396000f3fe608060405234801561001057600080fd5b506004361061014d5760003560e01c80636352211e116100c3578063b30906d41161007c578063b30906d4146103d6578063b88d4fde14610406578063c87b56dd14610422578063d4f5913414610452578063e985e9c514610482578063fb78fef1146104b25761014d565b80636352211e146102ee5780636c0360eb1461031e57806370a082311461033c57806395d89b411461036c578063a22cb4651461038a578063a4a183b0146103a65761014d565b806318160ddd1161011557806318160ddd1461021c57806320b419491461023a57806323b872dd146102565780632f745c591461027257806342842e0e146102a25780634f6ccce7146102be5761014d565b806301ffc9a71461015257806306fdde0314610182578063081812fc146101a0578063095ea7b3146101d05780631675f455146101ec575b600080fd5b61016c6004803603810190610167919061358f565b6104e4565b6040516101799190613a19565b60405180910390f35b61018a61054c565b6040516101979190613aa2565b60405180910390f35b6101ba60048036038101906101b59190613694565b6105ee565b6040516101c791906139fe565b60405180910390f35b6101ea60048036038101906101e59190613512565b610689565b005b61020660048036038101906102019190613694565b6107cd565b6040516102139190613aa2565b60405180910390f35b610224610813565b6040516102319190613ae6565b60405180910390f35b610254600480360381019061024f91906135b8565b610824565b005b610270600480360381019061026b919061340c565b61083a565b005b61028c60048036038101906102879190613512565b6108b0565b6040516102999190613ae6565b60405180910390f35b6102bc60048036038101906102b7919061340c565b61090b565b005b6102d860048036038101906102d39190613694565b61092b565b6040516102e59190613ae6565b60405180910390f35b61030860048036038101906103039190613694565b61094e565b60405161031591906139fe565b60405180910390f35b610326610985565b6040516103339190613aa2565b60405180910390f35b610356600480360381019061035191906133a7565b610a27565b6040516103639190613ae6565b60405180910390f35b610374610afc565b6040516103819190613aa2565b60405180910390f35b6103a4600480360381019061039f91906134d6565b610b9e565b005b6103c060048036038101906103bb919061354e565b610d54565b6040516103cd91906139fe565b60405180910390f35b6103f060048036038101906103eb9190613694565b610d6e565b6040516103fd9190613ac4565b60405180910390f35b610420600480360381019061041b919061345b565b611031565b005b61043c60048036038101906104379190613694565b6110a9565b6040516104499190613aa2565b60405180910390f35b61046c6004803603810190610467919061354e565b611392565b6040516104799190613ae6565b60405180910390f35b61049c600480360381019061049791906133d0565b6113fd565b6040516104a99190613a19565b60405180910390f35b6104cc60048036038101906104c79190613653565b611491565b6040516104db93929190613a34565b60405180910390f35b600060336000837bffffffffffffffffffffffffffffffffffffffffffffffffffffffff19167bffffffffffffffffffffffffffffffffffffffffffffffffffffffff1916815260200190815260200160002060009054906101000a900460ff169050919050565b6060606a8054600181600116156101000203166002900480601f0160208091040260200160405190810160405280929190818152602001828054600181600116156101000203166002900480156105e45780601f106105b9576101008083540402835291602001916105e4565b820191906000526020600020905b8154815290600101906020018083116105c757829003601f168201915b5050505050905090565b60006105f98261151b565b61064e576040517f08c379a000000000000000000000000000000000000000000000000000000000815260040180806020018281038252602c815260200180613f80602c913960400191505060405180910390fd5b6068600083815260200190815260200160002060009054906101000a900473ffffffffffffffffffffffffffffffffffffffff169050919050565b60006106948261094e565b90508073ffffffffffffffffffffffffffffffffffffffff168373ffffffffffffffffffffffffffffffffffffffff16141561071b576040517f08c379a00000000000000000000000000000000000000000000000000000000081526004018080602001828103825260218152602001806140046021913960400191505060405180910390fd5b8073ffffffffffffffffffffffffffffffffffffffff1661073a611538565b73ffffffffffffffffffffffffffffffffffffffff161480610769575061076881610763611538565b6113fd565b5b6107be576040517f08c379a0000000000000000000000000000000000000000000000000000000008152600401808060200182810382526038815260200180613ed36038913960400191505060405180910390fd5b6107c88383611540565b505050565b606061080c609760008481526020019081526020016000206001016040516020016107f891906139d1565b6040516020818303038152906040526115f9565b9050919050565b600061081f60666117ae565b905090565b6108328686868686866117c3565b505050505050565b61084b610845611538565b8261196b565b6108a0576040517f08c379a00000000000000000000000000000000000000000000000000000000081526004018080602001828103825260318152602001806140256031913960400191505060405180910390fd5b6108ab838383611a5f565b505050565b600061090382606560008673ffffffffffffffffffffffffffffffffffffffff1673ffffffffffffffffffffffffffffffffffffffff168152602001908152602001600020611b3790919063ffffffff16565b905092915050565b61092683838360405180602001604052806000815250611031565b505050565b600080610942836066611b5190919063ffffffff16565b50905080915050919050565b600061097e82604051806060016040528060298152602001613f35602991396066611b7d9092919063ffffffff16565b9050919050565b6060606d8054600181600116156101000203166002900480601f016020809104026020016040519081016040528092919081815260200182805460018160011615610100020316600290048015610a1d5780601f106109f257610100808354040283529160200191610a1d565b820191906000526020600020905b815481529060010190602001808311610a0057829003601f168201915b5050505050905090565b60008073ffffffffffffffffffffffffffffffffffffffff168273ffffffffffffffffffffffffffffffffffffffff161415610aae576040517f08c379a000000000000000000000000000000000000000000000000000000000815260040180806020018281038252602a815260200180613f0b602a913960400191505060405180910390fd5b610af5606560008473ffffffffffffffffffffffffffffffffffffffff1673ffffffffffffffffffffffffffffffffffffffff168152602001908152602001600020611b9c565b9050919050565b6060606b8054600181600116156101000203166002900480601f016020809104026020016040519081016040528092919081815260200182805460018160011615610100020316600290048015610b945780601f10610b6957610100808354040283529160200191610b94565b820191906000526020600020905b815481529060010190602001808311610b7757829003601f168201915b5050505050905090565b610ba6611538565b73ffffffffffffffffffffffffffffffffffffffff168273ffffffffffffffffffffffffffffffffffffffff161415610c47576040517f08c379a00000000000000000000000000000000000000000000000000000000081526004018080602001828103825260198152602001807f4552433732313a20617070726f766520746f2063616c6c65720000000000000081525060200191505060405180910390fd5b8060696000610c54611538565b73ffffffffffffffffffffffffffffffffffffffff1673ffffffffffffffffffffffffffffffffffffffff16815260200190815260200160002060008473ffffffffffffffffffffffffffffffffffffffff1673ffffffffffffffffffffffffffffffffffffffff16815260200190815260200160002060006101000a81548160ff0219169083151502179055508173ffffffffffffffffffffffffffffffffffffffff16610d01611538565b73ffffffffffffffffffffffffffffffffffffffff167f17307eab39ab6107e8899845ad3d59bd9653f200f220920489ca2b5937696c318360405180821515815260200191505060405180910390a35050565b6000610d67610d6283611392565b61094e565b9050919050565b610d766130a5565b6000609760008481526020019081526020016000209050610d968361094e565b826080019073ffffffffffffffffffffffffffffffffffffffff16908173ffffffffffffffffffffffffffffffffffffffff168152505080600001548260000181815250508060030160009054906101000a900473ffffffffffffffffffffffffffffffffffffffff16826060019073ffffffffffffffffffffffffffffffffffffffff16908173ffffffffffffffffffffffffffffffffffffffff1681525050806002018054600181600116156101000203166002900480601f016020809104026020016040519081016040528092919081815260200182805460018160011615610100020316600290048015610ecf5780601f10610ea457610100808354040283529160200191610ecf565b820191906000526020600020905b815481529060010190602001808311610eb257829003601f168201915b50505050508260200181905250806001018054600181600116156101000203166002900480601f016020809104026020016040519081016040528092919081815260200182805460018160011615610100020316600290048015610f745780601f10610f4957610100808354040283529160200191610f74565b820191906000526020600020905b815481529060010190602001808311610f5757829003601f168201915b50505050508260400181905250610f8d81600401611b9c565b67ffffffffffffffff81118015610fa357600080fd5b50604051908082528060200260200182016040528015610fd25781602001602082028036833780820191505090505b508260a0018190525060005b8260a001515181101561102a576110018183600401611b3790919063ffffffff16565b8360a00151828151811061101157fe5b6020026020010181815250508080600101915050610fde565b5050919050565b61104261103c611538565b8361196b565b611097576040517f08c379a00000000000000000000000000000000000000000000000000000000081526004018080602001828103825260318152602001806140256031913960400191505060405180910390fd5b6110a384848484611bb1565b50505050565b60606110b48261151b565b611109576040517f08c379a000000000000000000000000000000000000000000000000000000000815260040180806020018281038252602f815260200180613fd5602f913960400191505060405180910390fd5b6000606c60008481526020019081526020016000208054600181600116156101000203166002900480601f0160208091040260200160405190810160405280929190818152602001828054600181600116156101000203166002900480156111b25780601f10611187576101008083540402835291602001916111b2565b820191906000526020600020905b81548152906001019060200180831161119557829003601f168201915b505050505090506000606d80546001816001161561010002031660029004905014156111e1578091505061138d565b6000815111156112ba57606d81604051602001808380546001816001161561010002031660029004801561124c5780601f1061122a57610100808354040283529182019161124c565b820191906000526020600020905b815481529060010190602001808311611238575b505082805190602001908083835b6020831061127d578051825260208201915060208101905060208303925061125a565b6001836020036101000a0380198251168184511680821785525050505050509050019250505060405160208183030381529060405291505061138d565b606d6112c584611c23565b60405160200180838054600181600116156101000203166002900480156113235780601f10611301576101008083540402835291820191611323565b820191906000526020600020905b81548152906001019060200180831161130f575b505082805190602001908083835b602083106113545780518252602082019150602081019050602083039250611331565b6001836020036101000a038019825116818451168082178552505050505050905001925050506040516020818303038152906040529150505b919050565b6000806000905060005b83518110156113f057818482815181106113b257fe5b60200260200101516040516020016113cb929190613a72565b604051602081830303815290604052805190602001209150808060010191505061139c565b508060001c915050919050565b6000606960008473ffffffffffffffffffffffffffffffffffffffff1673ffffffffffffffffffffffffffffffffffffffff16815260200190815260200160002060008373ffffffffffffffffffffffffffffffffffffffff1673ffffffffffffffffffffffffffffffffffffffff16815260200190815260200160002060009054906101000a900460ff16905092915050565b600080606061149f84611d6a565b8093508194508295505050509193909250565b60006114c4836000018360001b612059565b905092915050565b60006114f8846000018460001b8473ffffffffffffffffffffffffffffffffffffffff1660001b6120c9565b90509392505050565b6000611513836000018360001b6121a5565b905092915050565b600061153182606661150190919063ffffffff16565b9050919050565b600033905090565b816068600083815260200190815260200160002060006101000a81548173ffffffffffffffffffffffffffffffffffffffff021916908373ffffffffffffffffffffffffffffffffffffffff160217905550808273ffffffffffffffffffffffffffffffffffffffff166115b38361094e565b73ffffffffffffffffffffffffffffffffffffffff167f8c5be1e5ebec7d5bd14f71427d1e84f3dd0314c0f7b2291e5b200ac8c7c3b92560405160405180910390a45050565b606060008290506117a66040518060400160405280600481526020017f01551220000000000000000000000000000000000000000000000000000000008152506002836040518082805190602001908083835b6020831061166f578051825260208201915060208101905060208303925061164c565b6001836020036101000a038019825116818451168082178552505050505050905001915050602060405180830381855afa1580156116b1573d6000803e3d6000fd5b5050506040513d60208110156116c657600080fd5b81019080805190602001909291905050506040516020018083805190602001908083835b6020831061170d57805182526020820191506020810190506020830392506116ea565b6001836020036101000a0380198251168184511680821785525050505050509050018281526020019250505060405160208183030381529060405260056040518060400160405280602081526020017f6162636465666768696a6b6c6d6e6f707172737475767778797a3233343536378152507f62000000000000000000000000000000000000000000000000000000000000006121c8565b915050919050565b60006117bc826000016123cc565b9050919050565b600080600061181589898080601f016020809104026020016040519081016040528093929190818152602001838380828437600081840152601f19601f82011690508083019250505050505050611d6a565b925092509250611824826123dd565b60008282604051602001611839929190613b66565b6040516020818303038152906040528051906020012060001c905061185e8882612420565b61188681609760008681526020019081526020016000206004016114b290919063ffffffff16565b61188f57600080fd5b600060976000838152602001908152602001600020905083816000018190555086868260020191906118c2929190613107565b508a8a8260010191906118d6929190613107565b50878160030160006101000a81548173ffffffffffffffffffffffffffffffffffffffff021916908373ffffffffffffffffffffffffffffffffffffffff160217905550837f950672e87ea0e77544ed29d9c2bc8d35d19a6402659e4712d1fc79f2c2f7f167838d8d8d8d8d8d6040516119569796959493929190613b01565b60405180910390a25050505050505050505050565b60006119768261151b565b6119cb576040517f08c379a000000000000000000000000000000000000000000000000000000000815260040180806020018281038252602c815260200180613ea7602c913960400191505060405180910390fd5b60006119d68361094e565b90508073ffffffffffffffffffffffffffffffffffffffff168473ffffffffffffffffffffffffffffffffffffffff161480611a4557508373ffffffffffffffffffffffffffffffffffffffff16611a2d846105ee565b73ffffffffffffffffffffffffffffffffffffffff16145b80611a565750611a5581856113fd565b5b91505092915050565b611a688161094e565b73ffffffffffffffffffffffffffffffffffffffff166097600083815260200190815260200160002060030160009054906101000a900473ffffffffffffffffffffffffffffffffffffffff1673ffffffffffffffffffffffffffffffffffffffff161415611b2757816097600083815260200190815260200160002060030160006101000a81548173ffffffffffffffffffffffffffffffffffffffff021916908373ffffffffffffffffffffffffffffffffffffffff1602179055505b611b32838383612614565b505050565b6000611b468360000183612857565b60001c905092915050565b600080600080611b6486600001866128da565b915091508160001c8160001c9350935050509250929050565b6000611b90846000018460001b84612973565b60001c90509392505050565b6000611baa82600001612a69565b9050919050565b611bbc848484611a5f565b611bc884848484612a7a565b611c1d576040517f08c379a0000000000000000000000000000000000000000000000000000000008152600401808060200182810382526032815260200180613e2b6032913960400191505060405180910390fd5b50505050565b60606000821415611c6b576040518060400160405280600181526020017f30000000000000000000000000000000000000000000000000000000000000008152509050611d65565b600082905060005b60008214611c95578080600101915050600a8281611c8d57fe5b049150611c73565b60008167ffffffffffffffff81118015611cae57600080fd5b506040519080825280601f01601f191660200182016040528015611ce15781602001600182028036833780820191505090505b50905060006001830390508593505b60008414611d5d57600a8481611d0257fe5b0660300160f81b82828060019003935081518110611d1c57fe5b60200101907effffffffffffffffffffffffffffffffffffffffffffffffffffffffffffff1916908160001a905350600a8481611d5557fe5b049350611cf0565b819450505050505b919050565b600080606060008060606000602088019050600081905060008951905060606000808386019050600080865191505b828711611fd357605c60f81b7effffffffffffffffffffffffffffffffffffffffffffffffffffffffffffff1916827effffffffffffffffffffffffffffffffffffffffffffffffffffffffffffff19161415611e3f576000806040518060400160405280600981526020017f71756f74656361736500000000000000000000000000000000000000000000008152509d509d509d505050505050505050505050612052565b602e8260f81c60ff161415611f525760018888030390508067ffffffffffffffff81118015611e6d57600080fd5b506040519080825280601f01601f191660200182016040528015611ea05781602001600182028036833780820191505090505b509450602085019350611eb4848983612c93565b89856040516020018083815260200180602001828103825283818151815260200191508051906020019080838360005b83811015611eff578082015181840152602081019050611ee4565b50505050905090810190601f168015611f2c5780820380516001836020036101000a031916815260200191505b509350505050604051602081830303815290604052805190602001209950869750611fc2565b60618260f81c60ff161080611f6d5750607a8260f81c60ff16115b15611fc1576000806040518060400160405280601281526020017f6661696c206e6f74206c6f7765726361736500000000000000000000000000008152509d509d509d505050505050505050505050612052565b5b865191508680600101975050611d99565b60018888030390508067ffffffffffffffff81118015611ff257600080fd5b506040519080825280601f01601f1916602001820160405280156120255781602001600182028036833780820191505090505b509450602085019350612039848983612c93565b60018a60001c869d509d509d5050505050505050505050505b9193909250565b60006120658383612cdc565b6120be5782600001829080600181540180825580915050600190039060005260206000200160009091909190915055826000018054905083600101600084815260200190815260200160002081905550600190506120c3565b600090505b92915050565b60008084600101600085815260200190815260200160002054905060008114156121705784600001604051806040016040528086815260200185815250908060018154018082558091505060019003906000526020600020906002020160009091909190915060008201518160000155602082015181600101555050846000018054905085600101600086815260200190815260200160002081905550600191505061219e565b8285600001600183038154811061218357fe5b90600052602060002090600202016001018190555060009150505b9392505050565b600080836001016000848152602001908152602001600020541415905092915050565b60606000600886510290506000808683816121df57fe5b06146121ec5760026121ef565b60015b60ff168683816121fb57fe5b0401905060008167ffffffffffffffff8111801561221857600080fd5b506040519080825280601f01601f19166020018201604052801561224b5781602001600182028036833780820191505090505b50905060006001886001901b039050600080878460008151811061226b57fe5b60200101907effffffffffffffffffffffffffffffffffffffffffffffffffffffffffffff1916908160001a90535060006001905060005b8c51811015612356578c81815181106122b857fe5b602001015160f81c60f81b60f81c60ff16600884901b1792506008840193505b8b841115612349578b840393508a8484901c8616815181106122f657fe5b602001015160f81c60f81b86838151811061230d57fe5b60200101907effffffffffffffffffffffffffffffffffffffffffffffffffffffffffffff1916908160001a90535081806001019250506122d8565b80806001019150506122a3565b5060008311156123ba5789838c0383901b85168151811061237357fe5b602001015160f81c60f81b85828151811061238a57fe5b60200101907effffffffffffffffffffffffffffffffffffffffffffffffffffffffffffff1916908160001a9053505b84975050505050505050949350505050565b600081600001805490509050919050565b3373ffffffffffffffffffffffffffffffffffffffff166123fd8261094e565b73ffffffffffffffffffffffffffffffffffffffff161461241d57600080fd5b50565b600073ffffffffffffffffffffffffffffffffffffffff168273ffffffffffffffffffffffffffffffffffffffff1614156124c3576040517f08c379a00000000000000000000000000000000000000000000000000000000081526004018080602001828103825260208152602001807f4552433732313a206d696e7420746f20746865207a65726f206164647265737381525060200191505060405180910390fd5b6124cc8161151b565b1561253f576040517f08c379a000000000000000000000000000000000000000000000000000000000815260040180806020018281038252601c8152602001807f4552433732313a20746f6b656e20616c7265616479206d696e7465640000000081525060200191505060405180910390fd5b61254b60008383612cff565b61259c81606560008573ffffffffffffffffffffffffffffffffffffffff1673ffffffffffffffffffffffffffffffffffffffff1681526020019081526020016000206114b290919063ffffffff16565b506125b3818360666114cc9092919063ffffffff16565b50808273ffffffffffffffffffffffffffffffffffffffff16600073ffffffffffffffffffffffffffffffffffffffff167fddf252ad1be2c89b69c2b068fc378daa952ba7f163c4a11628f55a4df523b3ef60405160405180910390a45050565b8273ffffffffffffffffffffffffffffffffffffffff166126348261094e565b73ffffffffffffffffffffffffffffffffffffffff16146126a0576040517f08c379a0000000000000000000000000000000000000000000000000000000008152600401808060200182810382526029815260200180613fac6029913960400191505060405180910390fd5b600073ffffffffffffffffffffffffffffffffffffffff168273ffffffffffffffffffffffffffffffffffffffff161415612726576040517f08c379a0000000000000000000000000000000000000000000000000000000008152600401808060200182810382526024815260200180613e5d6024913960400191505060405180910390fd5b612731838383612cff565b61273c600082611540565b61278d81606560008673ffffffffffffffffffffffffffffffffffffffff1673ffffffffffffffffffffffffffffffffffffffff168152602001908152602001600020612d0490919063ffffffff16565b506127df81606560008573ffffffffffffffffffffffffffffffffffffffff1673ffffffffffffffffffffffffffffffffffffffff1681526020019081526020016000206114b290919063ffffffff16565b506127f6818360666114cc9092919063ffffffff16565b50808273ffffffffffffffffffffffffffffffffffffffff168473ffffffffffffffffffffffffffffffffffffffff167fddf252ad1be2c89b69c2b068fc378daa952ba7f163c4a11628f55a4df523b3ef60405160405180910390a4505050565b6000818360000180549050116128b8576040517f08c379a0000000000000000000000000000000000000000000000000000000008152600401808060200182810382526022815260200180613e096022913960400191505060405180910390fd5b8260000182815481106128c757fe5b9060005260206000200154905092915050565b6000808284600001805490501161293c576040517f08c379a0000000000000000000000000000000000000000000000000000000008152600401808060200182810382526022815260200180613f5e6022913960400191505060405180910390fd5b600084600001848154811061294d57fe5b906000526020600020906002020190508060000154816001015492509250509250929050565b60008084600101600085815260200190815260200160002054905060008114158390612a3a576040517f08c379a00000000000000000000000000000000000000000000000000000000081526004018080602001828103825283818151815260200191508051906020019080838360005b838110156129ff5780820151818401526020810190506129e4565b50505050905090810190601f168015612a2c5780820380516001836020036101000a031916815260200191505b509250505060405180910390fd5b50846000016001820381548110612a4d57fe5b9060005260206000209060020201600101549150509392505050565b600081600001805490509050919050565b6000612a9b8473ffffffffffffffffffffffffffffffffffffffff16612d1e565b612aa85760019050612c8b565b6000612c1263150b7a0260e01b612abd611538565b888787604051602401808573ffffffffffffffffffffffffffffffffffffffff1681526020018473ffffffffffffffffffffffffffffffffffffffff16815260200183815260200180602001828103825283818151815260200191508051906020019080838360005b83811015612b41578082015181840152602081019050612b26565b50505050905090810190601f168015612b6e5780820380516001836020036101000a031916815260200191505b5095505050505050604051602081830303815290604052907bffffffffffffffffffffffffffffffffffffffffffffffffffffffff19166020820180517bffffffffffffffffffffffffffffffffffffffffffffffffffffffff8381831617835250505050604051806060016040528060328152602001613e2b603291398773ffffffffffffffffffffffffffffffffffffffff16612d319092919063ffffffff16565b90506000818060200190516020811015612c2b57600080fd5b8101908080519060200190929190505050905063150b7a0260e01b7bffffffffffffffffffffffffffffffffffffffffffffffffffffffff1916817bffffffffffffffffffffffffffffffffffffffffffffffffffffffff191614925050505b949350505050565b5b60208110612cb75781518352602083019250602082019150602081039050612c94565b60006001826020036101000a0390508019835116818551168181178652505050505050565b600080836001016000848152602001908152602001600020541415905092915050565b505050565b6000612d16836000018360001b612d49565b905092915050565b600080823b905060008111915050919050565b6060612d408484600085612e31565b90509392505050565b60008083600101600084815260200190815260200160002054905060008114612e255760006001820390506000600186600001805490500390506000866000018281548110612d9457fe5b9060005260206000200154905080876000018481548110612db157fe5b9060005260206000200181905550600183018760010160008381526020019081526020016000208190555086600001805480612de957fe5b60019003818190600052602060002001600090559055866001016000878152602001908152602001600020600090556001945050505050612e2b565b60009150505b92915050565b606082471015612e8c576040517f08c379a0000000000000000000000000000000000000000000000000000000008152600401808060200182810382526026815260200180613e816026913960400191505060405180910390fd5b612e9585612d1e565b612f07576040517f08c379a000000000000000000000000000000000000000000000000000000000815260040180806020018281038252601d8152602001807f416464726573733a2063616c6c20746f206e6f6e2d636f6e747261637400000081525060200191505060405180910390fd5b6000808673ffffffffffffffffffffffffffffffffffffffff1685876040518082805190602001908083835b60208310612f565780518252602082019150602081019050602083039250612f33565b6001836020036101000a03801982511681845116808217855250505050505090500191505060006040518083038185875af1925050503d8060008114612fb8576040519150601f19603f3d011682016040523d82523d6000602084013e612fbd565b606091505b5091509150612fcd828286612fd9565b92505050949350505050565b60608315612fe95782905061309e565b600083511115612ffc5782518084602001fd5b816040517f08c379a00000000000000000000000000000000000000000000000000000000081526004018080602001828103825283818151815260200191508051906020019080838360005b83811015613063578082015181840152602081019050613048565b50505050905090810190601f1680156130905780820380516001836020036101000a031916815260200191505b509250505060405180910390fd5b9392505050565b6040518060c00160405280600081526020016060815260200160608152602001600073ffffffffffffffffffffffffffffffffffffffff168152602001600073ffffffffffffffffffffffffffffffffffffffff168152602001606081525090565b828054600181600116156101000203166002900490600052602060002090601f01602090048101928261313d5760008555613184565b82601f1061315657803560ff1916838001178555613184565b82800160010185558215613184579182015b82811115613183578235825591602001919060010190613168565b5b5090506131919190613195565b5090565b5b808211156131ae576000816000905550600101613196565b5090565b60006131c56131c084613bc7565b613b96565b9050808382526020820190508260005b8581101561320557813585016131eb8882613368565b8452602084019350602083019250506001810190506131d5565b5050509392505050565b600061322261321d84613bf3565b613b96565b90508281526020810184848401111561323a57600080fd5b613245848285613d57565b509392505050565b600061326061325b84613c23565b613b96565b90508281526020810184848401111561327857600080fd5b613283848285613d57565b509392505050565b60008135905061329a81613dac565b92915050565b600082601f8301126132b157600080fd5b81356132c18482602086016131b2565b91505092915050565b6000813590506132d981613dc3565b92915050565b6000813590506132ee81613dda565b92915050565b600082601f83011261330557600080fd5b813561331584826020860161320f565b91505092915050565b60008083601f84011261333057600080fd5b8235905067ffffffffffffffff81111561334957600080fd5b60208301915083600182028301111561336157600080fd5b9250929050565b600082601f83011261337957600080fd5b813561338984826020860161324d565b91505092915050565b6000813590506133a181613df1565b92915050565b6000602082840312156133b957600080fd5b60006133c78482850161328b565b91505092915050565b600080604083850312156133e357600080fd5b60006133f18582860161328b565b92505060206134028582860161328b565b9150509250929050565b60008060006060848603121561342157600080fd5b600061342f8682870161328b565b93505060206134408682870161328b565b925050604061345186828701613392565b9150509250925092565b6000806000806080858703121561347157600080fd5b600061347f8782880161328b565b94505060206134908782880161328b565b93505060406134a187828801613392565b925050606085013567ffffffffffffffff8111156134be57600080fd5b6134ca878288016132f4565b91505092959194509250565b600080604083850312156134e957600080fd5b60006134f78582860161328b565b9250506020613508858286016132ca565b9150509250929050565b6000806040838503121561352557600080fd5b60006135338582860161328b565b925050602061354485828601613392565b9150509250929050565b60006020828403121561356057600080fd5b600082013567ffffffffffffffff81111561357a57600080fd5b613586848285016132a0565b91505092915050565b6000602082840312156135a157600080fd5b60006135af848285016132df565b91505092915050565b600080600080600080608087890312156135d157600080fd5b600087013567ffffffffffffffff8111156135eb57600080fd5b6135f789828a0161331e565b9650965050602061360a89828a0161328b565b945050604061361b89828a0161328b565b935050606087013567ffffffffffffffff81111561363857600080fd5b61364489828a0161331e565b92509250509295509295509295565b60006020828403121561366557600080fd5b600082013567ffffffffffffffff81111561367f57600080fd5b61368b84828501613368565b91505092915050565b6000602082840312156136a657600080fd5b60006136b484828501613392565b91505092915050565b60006136c983836139b3565b60208301905092915050565b6136de81613cd9565b82525050565b6136ed81613cd9565b82525050565b60006136fe82613c78565b6137088185613c9b565b935061371383613c53565b8060005b8381101561374457815161372b88826136bd565b975061373683613c8e565b925050600181019050613717565b5085935050505092915050565b61375a81613ceb565b82525050565b61376981613cf7565b82525050565b600061377b8385613cbd565b9350613788838584613d57565b61379183613d9b565b840190509392505050565b60006137a782613c83565b6137b18185613cac565b93506137c1818560208601613d66565b6137ca81613d9b565b840191505092915050565b60006137e082613c83565b6137ea8185613cbd565b93506137fa818560208601613d66565b61380381613d9b565b840191505092915050565b60008154600181166000811461382b576001811461385057613894565b607f600283041661383c8187613cce565b955060ff1983168652808601935050613894565b6002820461385e8187613cce565b955061386985613c63565b60005b8281101561388b5781548189015260018201915060208101905061386c565b82880195505050505b505092915050565b60006138a9600983613cce565b91507f7b226e616d65223a2200000000000000000000000000000000000000000000006000830152600982019050919050565b60006138e9600283613cce565b91507f227d0000000000000000000000000000000000000000000000000000000000006000830152600282019050919050565b600060c08301600083015161393460008601826139b3565b506020830151848203602086015261394c828261379c565b91505060408301518482036040860152613966828261379c565b915050606083015161397b60608601826136d5565b50608083015161398e60808601826136d5565b5060a083015184820360a08601526139a682826136f3565b9150508091505092915050565b6139bc81613d4d565b82525050565b6139cb81613d4d565b82525050565b60006139dc8261389c565b91506139e8828461380e565b91506139f3826138dc565b915081905092915050565b6000602082019050613a1360008301846136e4565b92915050565b6000602082019050613a2e6000830184613751565b92915050565b6000606082019050613a496000830186613751565b613a5660208301856139c2565b8181036040830152613a6881846137d5565b9050949350505050565b6000604082019050613a876000830185613760565b8181036020830152613a9981846137d5565b90509392505050565b60006020820190508181036000830152613abc81846137d5565b905092915050565b60006020820190508181036000830152613ade818461391c565b905092915050565b6000602082019050613afb60008301846139c2565b92915050565b600060a082019050613b16600083018a6139c2565b8181036020830152613b2981888a61376f565b9050613b3860408301876136e4565b613b4560608301866136e4565b8181036080830152613b5881848661376f565b905098975050505050505050565b6000604082019050613b7b60008301856139c2565b8181036020830152613b8d81846137d5565b90509392505050565b6000604051905081810181811067ffffffffffffffff82111715613bbd57613bbc613d99565b5b8060405250919050565b600067ffffffffffffffff821115613be257613be1613d99565b5b602082029050602081019050919050565b600067ffffffffffffffff821115613c0e57613c0d613d99565b5b601f19601f8301169050602081019050919050565b600067ffffffffffffffff821115613c3e57613c3d613d99565b5b601f19601f8301169050602081019050919050565b6000819050602082019050919050565b60008190508160005260206000209050919050565b600081519050919050565b600081519050919050565b6000602082019050919050565b600082825260208201905092915050565b600082825260208201905092915050565b600082825260208201905092915050565b600081905092915050565b6000613ce482613d2d565b9050919050565b60008115159050919050565b6000819050919050565b60007fffffffff0000000000000000000000000000000000000000000000000000000082169050919050565b600073ffffffffffffffffffffffffffffffffffffffff82169050919050565b6000819050919050565b82818337600083830152505050565b60005b83811015613d84578082015181840152602081019050613d69565b83811115613d93576000848401525b50505050565bfe5b6000601f19601f8301169050919050565b613db581613cd9565b8114613dc057600080fd5b50565b613dcc81613ceb565b8114613dd757600080fd5b50565b613de381613d01565b8114613dee57600080fd5b50565b613dfa81613d4d565b8114613e0557600080fd5b5056fe456e756d657261626c655365743a20696e646578206f7574206f6620626f756e64734552433732313a207472616e7366657220746f206e6f6e20455243373231526563656976657220696d706c656d656e7465724552433732313a207472616e7366657220746f20746865207a65726f2061646472657373416464726573733a20696e73756666696369656e742062616c616e636520666f722063616c6c4552433732313a206f70657261746f7220717565727920666f72206e6f6e6578697374656e7420746f6b656e4552433732313a20617070726f76652063616c6c6572206973206e6f74206f776e6572206e6f7220617070726f76656420666f7220616c6c4552433732313a2062616c616e636520717565727920666f7220746865207a65726f20616464726573734552433732313a206f776e657220717565727920666f72206e6f6e6578697374656e7420746f6b656e456e756d657261626c654d61703a20696e646578206f7574206f6620626f756e64734552433732313a20617070726f76656420717565727920666f72206e6f6e6578697374656e7420746f6b656e4552433732313a207472616e73666572206f6620746f6b656e2074686174206973206e6f74206f776e4552433732314d657461646174613a2055524920717565727920666f72206e6f6e6578697374656e7420746f6b656e4552433732313a20617070726f76616c20746f2063757272656e74206f776e65724552433732313a207472616e736665722063616c6c6572206973206e6f74206f776e6572206e6f7220617070726f766564a26469706673582212207f0be233240f68193b4964dc235005e52ed9755aeebaee19afaed92d0fb9ce2464736f6c63430007060033496e697469616c697a61626c653a20636f6e747261637420697320616c726561647920696e697469616c697a6564",
  "linkReferences": {},
  "deployedLinkReferences": {}
}