{
  "_format": "hh-sol-artifact-1",
  "contractName": "Registrar",
  "sourceName": "contracts/Registrar.sol",
  "abi": [
    {
      "inputs": [
        {
          "internalType": "address",
          "name": "_owner",
          "type": "address"
        }
      ],
      "stateMutability": "nonpayable",
      "type": "constructor"
    },
    {
      "anonymous": false,
      "inputs": [
        {
          "indexed": true,
          "internalType": "address",
          "name": "owner",
          "type": "address"
        },
        {
          "indexed": true,
          "internalType": "address",
          "name": "approved",
          "type": "address"
        },
        {
          "indexed": true,
          "internalType": "uint256",
          "name": "tokenId",
          "type": "uint256"
        }
      ],
      "name": "Approval",
      "type": "event"
    },
    {
      "anonymous": false,
      "inputs": [
        {
          "indexed": true,
          "internalType": "address",
          "name": "owner",
          "type": "address"
        },
        {
          "indexed": true,
          "internalType": "address",
          "name": "operator",
          "type": "address"
        },
        {
          "indexed": false,
          "internalType": "bool",
          "name": "approved",
          "type": "bool"
        }
      ],
      "name": "ApprovalForAll",
      "type": "event"
    },
    {
      "anonymous": false,
      "inputs": [
        {
          "indexed": false,
          "internalType": "uint256",
          "name": "parentId",
          "type": "uint256"
        },
        {
          "indexed": false,
          "internalType": "string",
          "name": "domain",
          "type": "string"
        },
        {
          "indexed": false,
          "internalType": "address",
          "name": "_owner",
          "type": "address"
        },
        {
          "indexed": false,
          "internalType": "address",
          "name": "_controller",
          "type": "address"
        },
        {
          "indexed": false,
          "internalType": "string",
          "name": "_ref",
          "type": "string"
        }
      ],
      "name": "RegistryCreated",
      "type": "event"
    },
    {
      "anonymous": false,
      "inputs": [
        {
          "indexed": true,
          "internalType": "address",
          "name": "from",
          "type": "address"
        },
        {
          "indexed": true,
          "internalType": "address",
          "name": "to",
          "type": "address"
        },
        {
          "indexed": true,
          "internalType": "uint256",
          "name": "tokenId",
          "type": "uint256"
        }
      ],
      "name": "Transfer",
      "type": "event"
    },
    {
      "inputs": [
        {
          "internalType": "address",
          "name": "to",
          "type": "address"
        },
        {
          "internalType": "uint256",
          "name": "tokenId",
          "type": "uint256"
        }
      ],
      "name": "approve",
      "outputs": [],
      "stateMutability": "nonpayable",
      "type": "function"
    },
    {
      "inputs": [
        {
          "internalType": "address",
          "name": "owner",
          "type": "address"
        }
      ],
      "name": "balanceOf",
      "outputs": [
        {
          "internalType": "uint256",
          "name": "",
          "type": "uint256"
        }
      ],
      "stateMutability": "view",
      "type": "function"
    },
    {
      "inputs": [],
      "name": "baseURI",
      "outputs": [
        {
          "internalType": "string",
          "name": "",
          "type": "string"
        }
      ],
      "stateMutability": "view",
      "type": "function"
    },
    {
      "inputs": [
        {
          "internalType": "uint256",
          "name": "parentId",
          "type": "uint256"
        },
        {
          "internalType": "string",
          "name": "domain",
          "type": "string"
        },
        {
          "internalType": "address",
          "name": "_owner",
          "type": "address"
        },
        {
          "internalType": "address",
          "name": "_controller",
          "type": "address"
        },
        {
          "internalType": "string",
          "name": "_ref",
          "type": "string"
        }
      ],
      "name": "createRegistry",
      "outputs": [],
      "stateMutability": "nonpayable",
      "type": "function"
    },
    {
      "inputs": [
        {
          "internalType": "uint256",
          "name": "",
          "type": "uint256"
        }
      ],
      "name": "entries",
      "outputs": [
        {
          "internalType": "string",
          "name": "ref",
          "type": "string"
        },
        {
          "internalType": "address",
          "name": "controller",
          "type": "address"
        }
      ],
      "stateMutability": "view",
      "type": "function"
    },
    {
      "inputs": [
        {
          "internalType": "uint256",
          "name": "tokenId",
          "type": "uint256"
        }
      ],
      "name": "getApproved",
      "outputs": [
        {
          "internalType": "address",
          "name": "",
          "type": "address"
        }
      ],
      "stateMutability": "view",
      "type": "function"
    },
    {
      "inputs": [
        {
          "internalType": "string[]",
          "name": "path",
          "type": "string[]"
        }
      ],
      "name": "getId",
      "outputs": [
        {
          "internalType": "uint256",
          "name": "",
          "type": "uint256"
        }
      ],
      "stateMutability": "pure",
      "type": "function"
    },
    {
      "inputs": [
        {
          "internalType": "string",
          "name": "_s",
          "type": "string"
        }
      ],
      "name": "getIpfsHash",
      "outputs": [
        {
          "internalType": "bytes",
          "name": "",
          "type": "bytes"
        }
      ],
      "stateMutability": "view",
      "type": "function"
    },
    {
      "inputs": [
        {
          "internalType": "string[]",
          "name": "path",
          "type": "string[]"
        }
      ],
      "name": "getOwner",
      "outputs": [
        {
          "internalType": "address",
          "name": "",
          "type": "address"
        }
      ],
      "stateMutability": "view",
      "type": "function"
    },
    {
      "inputs": [
        {
          "internalType": "address",
          "name": "owner",
          "type": "address"
        },
        {
          "internalType": "address",
          "name": "operator",
          "type": "address"
        }
      ],
      "name": "isApprovedForAll",
      "outputs": [
        {
          "internalType": "bool",
          "name": "",
          "type": "bool"
        }
      ],
      "stateMutability": "view",
      "type": "function"
    },
    {
      "inputs": [],
      "name": "name",
      "outputs": [
        {
          "internalType": "string",
          "name": "",
          "type": "string"
        }
      ],
      "stateMutability": "view",
      "type": "function"
    },
    {
      "inputs": [
        {
          "internalType": "uint256",
          "name": "tokenId",
          "type": "uint256"
        }
      ],
      "name": "ownerOf",
      "outputs": [
        {
          "internalType": "address",
          "name": "",
          "type": "address"
        }
      ],
      "stateMutability": "view",
      "type": "function"
    },
    {
      "inputs": [
        {
          "internalType": "address",
          "name": "from",
          "type": "address"
        },
        {
          "internalType": "address",
          "name": "to",
          "type": "address"
        },
        {
          "internalType": "uint256",
          "name": "tokenId",
          "type": "uint256"
        }
      ],
      "name": "safeTransferFrom",
      "outputs": [],
      "stateMutability": "nonpayable",
      "type": "function"
    },
    {
      "inputs": [
        {
          "internalType": "address",
          "name": "from",
          "type": "address"
        },
        {
          "internalType": "address",
          "name": "to",
          "type": "address"
        },
        {
          "internalType": "uint256",
          "name": "tokenId",
          "type": "uint256"
        },
        {
          "internalType": "bytes",
          "name": "_data",
          "type": "bytes"
        }
      ],
      "name": "safeTransferFrom",
      "outputs": [],
      "stateMutability": "nonpayable",
      "type": "function"
    },
    {
      "inputs": [
        {
          "internalType": "address",
          "name": "operator",
          "type": "address"
        },
        {
          "internalType": "bool",
          "name": "approved",
          "type": "bool"
        }
      ],
      "name": "setApprovalForAll",
      "outputs": [],
      "stateMutability": "nonpayable",
      "type": "function"
    },
    {
      "inputs": [
        {
          "internalType": "bytes4",
          "name": "interfaceId",
          "type": "bytes4"
        }
      ],
      "name": "supportsInterface",
      "outputs": [
        {
          "internalType": "bool",
          "name": "",
          "type": "bool"
        }
      ],
      "stateMutability": "view",
      "type": "function"
    },
    {
      "inputs": [],
      "name": "symbol",
      "outputs": [
        {
          "internalType": "string",
          "name": "",
          "type": "string"
        }
      ],
      "stateMutability": "view",
      "type": "function"
    },
    {
      "inputs": [
        {
          "internalType": "uint256",
          "name": "index",
          "type": "uint256"
        }
      ],
      "name": "tokenByIndex",
      "outputs": [
        {
          "internalType": "uint256",
          "name": "",
          "type": "uint256"
        }
      ],
      "stateMutability": "view",
      "type": "function"
    },
    {
      "inputs": [
        {
          "internalType": "address",
          "name": "owner",
          "type": "address"
        },
        {
          "internalType": "uint256",
          "name": "index",
          "type": "uint256"
        }
      ],
      "name": "tokenOfOwnerByIndex",
      "outputs": [
        {
          "internalType": "uint256",
          "name": "",
          "type": "uint256"
        }
      ],
      "stateMutability": "view",
      "type": "function"
    },
    {
      "inputs": [
        {
          "internalType": "uint256",
          "name": "tokenId",
          "type": "uint256"
        }
      ],
      "name": "tokenURI",
      "outputs": [
        {
          "internalType": "string",
          "name": "",
          "type": "string"
        }
      ],
      "stateMutability": "view",
      "type": "function"
    },
    {
      "inputs": [],
      "name": "totalSupply",
      "outputs": [
        {
          "internalType": "uint256",
          "name": "",
          "type": "uint256"
        }
      ],
      "stateMutability": "view",
      "type": "function"
    },
    {
      "inputs": [
        {
          "internalType": "address",
          "name": "from",
          "type": "address"
        },
        {
          "internalType": "address",
          "name": "to",
          "type": "address"
        },
        {
          "internalType": "uint256",
          "name": "tokenId",
          "type": "uint256"
        }
      ],
      "name": "transferFrom",
      "outputs": [],
      "stateMutability": "nonpayable",
      "type": "function"
    },
    {
      "inputs": [
        {
          "internalType": "string",
          "name": "_s",
          "type": "string"
        }
      ],
      "name": "validateDomain",
      "outputs": [
        {
          "internalType": "bool",
          "name": "valid",
          "type": "bool"
        },
        {
          "internalType": "bytes32",
          "name": "parent",
          "type": "bytes32"
        },
        {
          "internalType": "string",
          "name": "domain",
          "type": "string"
        },
        {
          "internalType": "bytes",
          "name": "debug",
          "type": "bytes"
        }
      ],
      "stateMutability": "pure",
      "type": "function"
    }
  ],
  "bytecode": "0x60806040523480156200001157600080fd5b5060405162004a5238038062004a52833981810160405281019062000037919062000cbb565b620000b36040518060400160405280601181526020017f5a657230204e616d6520536572766963650000000000000000000000000000008152506040518060400160405280600381526020017f5a4e5300000000000000000000000000000000000000000000000000000000008152506200017860201b60201c565b620000c6816000620002b860201b60201c565b60006097600080815260200190815260200160002090506040518060400160405280600381526020017f5a4e5300000000000000000000000000000000000000000000000000000000008152508160000190805190602001906200012c92919062000bee565b50818160010160006101000a81548173ffffffffffffffffffffffffffffffffffffffff021916908373ffffffffffffffffffffffffffffffffffffffff160217905550505062000d35565b600060019054906101000a900460ff1680620001a057506200019f620004cc60201b60201c565b5b80620001b7575060008054906101000a900460ff16155b6200020e576040517f08c379a000000000000000000000000000000000000000000000000000000000815260040180806020018281038252602e81526020018062004a24602e913960400191505060405180910390fd5b60008060019054906101000a900460ff1615905080156200025f576001600060016101000a81548160ff02191690831515021790555060016000806101000a81548160ff0219169083151502179055505b6200026f620004e360201b60201c565b6200027f620005ef60201b60201c565b6200029183836200071360201b60201c565b8015620002b35760008060016101000a81548160ff0219169083151502179055505b505050565b600073ffffffffffffffffffffffffffffffffffffffff168273ffffffffffffffffffffffffffffffffffffffff1614156200035c576040517f08c379a00000000000000000000000000000000000000000000000000000000081526004018080602001828103825260208152602001807f4552433732313a206d696e7420746f20746865207a65726f206164647265737381525060200191505060405180910390fd5b6200036d816200089b60201b60201c565b15620003e1576040517f08c379a000000000000000000000000000000000000000000000000000000000815260040180806020018281038252601c8152602001807f4552433732313a20746f6b656e20616c7265616479206d696e7465640000000081525060200191505060405180910390fd5b620003f560008383620008bf60201b60201c565b6200044d81606560008573ffffffffffffffffffffffffffffffffffffffff1673ffffffffffffffffffffffffffffffffffffffff168152602001908152602001600020620008c460201b620012e11790919060201c565b506200046b81836066620008e660201b620012fb179092919060201c565b50808273ffffffffffffffffffffffffffffffffffffffff16600073ffffffffffffffffffffffffffffffffffffffff167fddf252ad1be2c89b69c2b068fc378daa952ba7f163c4a11628f55a4df523b3ef60405160405180910390a45050565b6000803090506000813b9050600081149250505090565b600060019054906101000a900460ff16806200050b57506200050a620004cc60201b60201c565b5b8062000522575060008054906101000a900460ff16155b62000579576040517f08c379a000000000000000000000000000000000000000000000000000000000815260040180806020018281038252602e81526020018062004a24602e913960400191505060405180910390fd5b60008060019054906101000a900460ff161590508015620005ca576001600060016101000a81548160ff02191690831515021790555060016000806101000a81548160ff0219169083151502179055505b8015620005ec5760008060016101000a81548160ff0219169083151502179055505b50565b600060019054906101000a900460ff168062000617575062000616620004cc60201b60201c565b5b806200062e575060008054906101000a900460ff16155b62000685576040517f08c379a000000000000000000000000000000000000000000000000000000000815260040180806020018281038252602e81526020018062004a24602e913960400191505060405180910390fd5b60008060019054906101000a900460ff161590508015620006d6576001600060016101000a81548160ff02191690831515021790555060016000806101000a81548160ff0219169083151502179055505b620006ee6301ffc9a760e01b6200092360201b60201c565b8015620007105760008060016101000a81548160ff0219169083151502179055505b50565b600060019054906101000a900460ff16806200073b57506200073a620004cc60201b60201c565b5b8062000752575060008054906101000a900460ff16155b620007a9576040517f08c379a000000000000000000000000000000000000000000000000000000000815260040180806020018281038252602e81526020018062004a24602e913960400191505060405180910390fd5b60008060019054906101000a900460ff161590508015620007fa576001600060016101000a81548160ff02191690831515021790555060016000806101000a81548160ff0219169083151502179055505b82606a90805190602001906200081292919062000bee565b5081606b90805190602001906200082b92919062000bee565b50620008446380ac58cd60e01b6200092360201b60201c565b6200085c635b5e139f60e01b6200092360201b60201c565b6200087463780e9d6360e01b6200092360201b60201c565b8015620008965760008060016101000a81548160ff0219169083151502179055505b505050565b6000620008b882606662000a2d60201b620013301790919060201c565b9050919050565b505050565b6000620008de836000018360001b62000a4f60201b60201c565b905092915050565b60006200091a846000018460001b8473ffffffffffffffffffffffffffffffffffffffff1660001b62000ac960201b60201c565b90509392505050565b63ffffffff60e01b817bffffffffffffffffffffffffffffffffffffffffffffffffffffffff19161415620009c0576040517f08c379a000000000000000000000000000000000000000000000000000000000815260040180806020018281038252601c8152602001807f4552433136353a20696e76616c696420696e746572666163652069640000000081525060200191505060405180910390fd5b600160336000837bffffffffffffffffffffffffffffffffffffffffffffffffffffffff19167bffffffffffffffffffffffffffffffffffffffffffffffffffffffff1916815260200190815260200160002060006101000a81548160ff02191690831515021790555050565b600062000a47836000018360001b62000ba860201b60201c565b905092915050565b600062000a63838362000bcb60201b60201c565b62000abe57826000018290806001815401808255809150506001900390600052602060002001600090919091909150558260000180549050836001016000848152602001908152602001600020819055506001905062000ac3565b600090505b92915050565b600080846001016000858152602001908152602001600020549050600081141562000b725784600001604051806040016040528086815260200185815250908060018154018082558091505060019003906000526020600020906002020160009091909190915060008201518160000155602082015181600101555050846000018054905085600101600086815260200190815260200160002081905550600191505062000ba1565b8285600001600183038154811062000b8657fe5b90600052602060002090600202016001018190555060009150505b9392505050565b600080836001016000848152602001908152602001600020541415905092915050565b600080836001016000848152602001908152602001600020541415905092915050565b828054600181600116156101000203166002900490600052602060002090601f01602090048101928262000c26576000855562000c72565b82601f1062000c4157805160ff191683800117855562000c72565b8280016001018555821562000c72579182015b8281111562000c7157825182559160200191906001019062000c54565b5b50905062000c81919062000c85565b5090565b5b8082111562000ca057600081600090555060010162000c86565b5090565b60008151905062000cb58162000d1b565b92915050565b60006020828403121562000cce57600080fd5b600062000cde8482850162000ca4565b91505092915050565b600062000cf48262000cfb565b9050919050565b600073ffffffffffffffffffffffffffffffffffffffff82169050919050565b62000d268162000ce7565b811462000d3257600080fd5b50565b613cdf8062000d456000396000f3fe608060405234801561001057600080fd5b506004361061014d5760003560e01c80636c0360eb116100c3578063b30906d41161007c578063b30906d4146103d6578063b88d4fde14610407578063c87b56dd14610423578063d4f5913414610453578063e985e9c514610483578063fb78fef1146104b35761014d565b80636c0360eb1461030257806370a0823114610320578063830bf1581461035057806395d89b411461036c578063a22cb4651461038a578063a4a183b0146103a65761014d565b806323b872dd1161011557806323b872dd1461020a5780632f745c591461022657806342842e0e146102565780634f6ccce7146102725780635f9ea0b1146102a25780636352211e146102d25761014d565b806301ffc9a71461015257806306fdde0314610182578063081812fc146101a0578063095ea7b3146101d057806318160ddd146101ec575b600080fd5b61016c6004803603810190610167919061343b565b6104e6565b6040516101799190613674565b60405180910390f35b61018a61054e565b6040516101979190613734565b60405180910390f35b6101ba60048036038101906101b591906134a5565b6105f0565b6040516101c79190613659565b60405180910390f35b6101ea60048036038101906101e591906133be565b61068b565b005b6101f46107cf565b6040516102019190613786565b60405180910390f35b610224600480360381019061021f91906132b8565b6107e0565b005b610240600480360381019061023b91906133be565b610856565b60405161024d9190613786565b60405180910390f35b610270600480360381019061026b91906132b8565b6108b1565b005b61028c600480360381019061028791906134a5565b6108d1565b6040516102999190613786565b60405180910390f35b6102bc60048036038101906102b79190613464565b6108f4565b6040516102c99190613712565b60405180910390f35b6102ec60048036038101906102e791906134a5565b610906565b6040516102f99190613659565b60405180910390f35b61030a61093d565b6040516103179190613734565b60405180910390f35b61033a60048036038101906103359190613253565b6109df565b6040516103479190613786565b60405180910390f35b61036a600480360381019061036591906134ce565b610ab4565b005b610374610b0e565b6040516103819190613734565b60405180910390f35b6103a4600480360381019061039f9190613382565b610bb0565b005b6103c060048036038101906103bb91906133fa565b610d66565b6040516103cd9190613659565b60405180910390f35b6103f060048036038101906103eb91906134a5565b610d80565b6040516103fe929190613756565b60405180910390f35b610421600480360381019061041c9190613307565b610e5c565b005b61043d600480360381019061043891906134a5565b610ed4565b60405161044a9190613734565b60405180910390f35b61046d600480360381019061046891906133fa565b6111bd565b60405161047a9190613786565b60405180910390f35b61049d6004803603810190610498919061327c565b611228565b6040516104aa9190613674565b60405180910390f35b6104cd60048036038101906104c89190613464565b6112bc565b6040516104dd949392919061368f565b60405180910390f35b600060336000837bffffffffffffffffffffffffffffffffffffffffffffffffffffffff19167bffffffffffffffffffffffffffffffffffffffffffffffffffffffff1916815260200190815260200160002060009054906101000a900460ff169050919050565b6060606a8054600181600116156101000203166002900480601f0160208091040260200160405190810160405280929190818152602001828054600181600116156101000203166002900480156105e65780601f106105bb576101008083540402835291602001916105e6565b820191906000526020600020905b8154815290600101906020018083116105c957829003601f168201915b5050505050905090565b60006105fb8261134a565b610650576040517f08c379a000000000000000000000000000000000000000000000000000000000815260040180806020018281038252602c815260200180613bd4602c913960400191505060405180910390fd5b6068600083815260200190815260200160002060009054906101000a900473ffffffffffffffffffffffffffffffffffffffff169050919050565b600061069682610906565b90508073ffffffffffffffffffffffffffffffffffffffff168373ffffffffffffffffffffffffffffffffffffffff16141561071d576040517f08c379a0000000000000000000000000000000000000000000000000000000008152600401808060200182810382526021815260200180613c586021913960400191505060405180910390fd5b8073ffffffffffffffffffffffffffffffffffffffff1661073c611367565b73ffffffffffffffffffffffffffffffffffffffff16148061076b575061076a81610765611367565b611228565b5b6107c0576040517f08c379a0000000000000000000000000000000000000000000000000000000008152600401808060200182810382526038815260200180613b276038913960400191505060405180910390fd5b6107ca838361136f565b505050565b60006107db6066611428565b905090565b6107f16107eb611367565b8261143d565b610846576040517f08c379a0000000000000000000000000000000000000000000000000000000008152600401808060200182810382526031815260200180613c796031913960400191505060405180910390fd5b610851838383611531565b505050565b60006108a982606560008673ffffffffffffffffffffffffffffffffffffffff1673ffffffffffffffffffffffffffffffffffffffff16815260200190815260200160002061160990919063ffffffff16565b905092915050565b6108cc83838360405180602001604052806000815250610e5c565b505050565b6000806108e883606661162390919063ffffffff16565b50905080915050919050565b60606108ff8261164f565b9050919050565b600061093682604051806060016040528060298152602001613b896029913960666117a39092919063ffffffff16565b9050919050565b6060606d8054600181600116156101000203166002900480601f0160208091040260200160405190810160405280929190818152602001828054600181600116156101000203166002900480156109d55780601f106109aa576101008083540402835291602001916109d5565b820191906000526020600020905b8154815290600101906020018083116109b857829003601f168201915b5050505050905090565b60008073ffffffffffffffffffffffffffffffffffffffff168273ffffffffffffffffffffffffffffffffffffffff161415610a66576040517f08c379a000000000000000000000000000000000000000000000000000000000815260040180806020018281038252602a815260200180613b5f602a913960400191505060405180910390fd5b610aad606560008473ffffffffffffffffffffffffffffffffffffffff1673ffffffffffffffffffffffffffffffffffffffff1681526020019081526020016000206117c2565b9050919050565b863373ffffffffffffffffffffffffffffffffffffffff16610ad582610906565b73ffffffffffffffffffffffffffffffffffffffff1614610af557600080fd5b610b04888888888888886117d7565b5050505050505050565b6060606b8054600181600116156101000203166002900480601f016020809104026020016040519081016040528092919081815260200182805460018160011615610100020316600290048015610ba65780601f10610b7b57610100808354040283529160200191610ba6565b820191906000526020600020905b815481529060010190602001808311610b8957829003601f168201915b5050505050905090565b610bb8611367565b73ffffffffffffffffffffffffffffffffffffffff168273ffffffffffffffffffffffffffffffffffffffff161415610c59576040517f08c379a00000000000000000000000000000000000000000000000000000000081526004018080602001828103825260198152602001807f4552433732313a20617070726f766520746f2063616c6c65720000000000000081525060200191505060405180910390fd5b8060696000610c66611367565b73ffffffffffffffffffffffffffffffffffffffff1673ffffffffffffffffffffffffffffffffffffffff16815260200190815260200160002060008473ffffffffffffffffffffffffffffffffffffffff1673ffffffffffffffffffffffffffffffffffffffff16815260200190815260200160002060006101000a81548160ff0219169083151502179055508173ffffffffffffffffffffffffffffffffffffffff16610d13611367565b73ffffffffffffffffffffffffffffffffffffffff167f17307eab39ab6107e8899845ad3d59bd9653f200f220920489ca2b5937696c318360405180821515815260200191505060405180910390a35050565b6000610d79610d74836111bd565b610906565b9050919050565b6097602052806000526040600020600091509050806000018054600181600116156101000203166002900480601f016020809104026020016040519081016040528092919081815260200182805460018160011615610100020316600290048015610e2c5780601f10610e0157610100808354040283529160200191610e2c565b820191906000526020600020905b815481529060010190602001808311610e0f57829003601f168201915b5050505050908060010160009054906101000a900473ffffffffffffffffffffffffffffffffffffffff16905082565b610e6d610e67611367565b8361143d565b610ec2576040517f08c379a0000000000000000000000000000000000000000000000000000000008152600401808060200182810382526031815260200180613c796031913960400191505060405180910390fd5b610ece848484846118cf565b50505050565b6060610edf8261134a565b610f34576040517f08c379a000000000000000000000000000000000000000000000000000000000815260040180806020018281038252602f815260200180613c29602f913960400191505060405180910390fd5b6000606c60008481526020019081526020016000208054600181600116156101000203166002900480601f016020809104026020016040519081016040528092919081815260200182805460018160011615610100020316600290048015610fdd5780601f10610fb257610100808354040283529160200191610fdd565b820191906000526020600020905b815481529060010190602001808311610fc057829003601f168201915b505050505090506000606d805460018160011615610100020316600290049050141561100c57809150506111b8565b6000815111156110e557606d8160405160200180838054600181600116156101000203166002900480156110775780601f10611055576101008083540402835291820191611077565b820191906000526020600020905b815481529060010190602001808311611063575b505082805190602001908083835b602083106110a85780518252602082019150602081019050602083039250611085565b6001836020036101000a038019825116818451168082178552505050505050905001925050506040516020818303038152906040529150506111b8565b606d6110f084611941565b604051602001808380546001816001161561010002031660029004801561114e5780601f1061112c57610100808354040283529182019161114e565b820191906000526020600020905b81548152906001019060200180831161113a575b505082805190602001908083835b6020831061117f578051825260208201915060208101905060208303925061115c565b6001836020036101000a038019825116818451168082178552505050505050905001925050506040516020818303038152906040529150505b919050565b6000806000905060005b835181101561121b57818482815181106111dd57fe5b60200260200101516040516020016111f69291906136e2565b60405160208183030381529060405280519060200120915080806001019150506111c7565b508060001c915050919050565b6000606960008473ffffffffffffffffffffffffffffffffffffffff1673ffffffffffffffffffffffffffffffffffffffff16815260200190815260200160002060008373ffffffffffffffffffffffffffffffffffffffff1673ffffffffffffffffffffffffffffffffffffffff16815260200190815260200160002060009054906101000a900460ff16905092915050565b6000806060808490506112ce85611a88565b8094508195508296505050509193509193565b60006112f3836000018360001b611d87565b905092915050565b6000611327846000018460001b8473ffffffffffffffffffffffffffffffffffffffff1660001b611df7565b90509392505050565b6000611342836000018360001b611ed3565b905092915050565b600061136082606661133090919063ffffffff16565b9050919050565b600033905090565b816068600083815260200190815260200160002060006101000a81548173ffffffffffffffffffffffffffffffffffffffff021916908373ffffffffffffffffffffffffffffffffffffffff160217905550808273ffffffffffffffffffffffffffffffffffffffff166113e283610906565b73ffffffffffffffffffffffffffffffffffffffff167f8c5be1e5ebec7d5bd14f71427d1e84f3dd0314c0f7b2291e5b200ac8c7c3b92560405160405180910390a45050565b600061143682600001611ef6565b9050919050565b60006114488261134a565b61149d576040517f08c379a000000000000000000000000000000000000000000000000000000000815260040180806020018281038252602c815260200180613afb602c913960400191505060405180910390fd5b60006114a883610906565b90508073ffffffffffffffffffffffffffffffffffffffff168473ffffffffffffffffffffffffffffffffffffffff16148061151757508373ffffffffffffffffffffffffffffffffffffffff166114ff846105f0565b73ffffffffffffffffffffffffffffffffffffffff16145b8061152857506115278185611228565b5b91505092915050565b61153a81610906565b73ffffffffffffffffffffffffffffffffffffffff166097600083815260200190815260200160002060010160009054906101000a900473ffffffffffffffffffffffffffffffffffffffff1673ffffffffffffffffffffffffffffffffffffffff1614156115f957816097600083815260200190815260200160002060010160006101000a81548173ffffffffffffffffffffffffffffffffffffffff021916908373ffffffffffffffffffffffffffffffffffffffff1602179055505b611604838383611f07565b505050565b6000611618836000018361214a565b60001c905092915050565b60008060008061163686600001866121cd565b915091508160001c8160001c9350935050509250929050565b6060600082905061179b61173d6040518060400160405280600481526020017f01551220000000000000000000000000000000000000000000000000000000008152506117386002856040518082805190602001908083835b602083106116cb57805182526020820191506020810190506020830392506116a8565b6001836020036101000a038019825116818451168082178552505050505050905001915050602060405180830381855afa15801561170d573d6000803e3d6000fd5b5050506040513d602081101561172257600080fd5b8101908080519060200190929190505050612266565b61232f565b60056040518060400160405280602081526020017f6162636465666768696a6b6c6d6e6f707172737475767778797a3233343536378152507f6200000000000000000000000000000000000000000000000000000000000000612481565b915050919050565b60006117b6846000018460001b8461268d565b60001c90509392505050565b60006117d082600001612783565b9050919050565b60008787876040516020016117ee939291906137a1565b6040516020818303038152906040528051906020012060001c90506118138582612794565b6000609760008381526020019081526020016000209050838382600001919061183d929190612fb3565b50848160010160006101000a81548173ffffffffffffffffffffffffffffffffffffffff021916908373ffffffffffffffffffffffffffffffffffffffff1602179055507f9e14f5eca5018837bf68e2f1854977988bca6fc66f09ba831cd8bada37e848ba898989898989896040516118bc97969594939291906137d3565b60405180910390a1505050505050505050565b6118da848484611531565b6118e684848484612988565b61193b576040517f08c379a0000000000000000000000000000000000000000000000000000000008152600401808060200182810382526032815260200180613a7f6032913960400191505060405180910390fd5b50505050565b60606000821415611989576040518060400160405280600181526020017f30000000000000000000000000000000000000000000000000000000000000008152509050611a83565b600082905060005b600082146119b3578080600101915050600a82816119ab57fe5b049150611991565b60008167ffffffffffffffff811180156119cc57600080fd5b506040519080825280601f01601f1916602001820160405280156119ff5781602001600182028036833780820191505090505b50905060006001830390508593505b60008414611a7b57600a8481611a2057fe5b0660300160f81b82828060019003935081518110611a3a57fe5b60200101907effffffffffffffffffffffffffffffffffffffffffffffffffffffffffffff1916908160001a905350600a8481611a7357fe5b049350611a0e565b819450505050505b919050565b60008060606000602085019050600081905060008651905060606000808386019050600080865191505b828711611ce657605c60f81b7effffffffffffffffffffffffffffffffffffffffffffffffffffffffffffff1916827effffffffffffffffffffffffffffffffffffffffffffffffffffffffffffff19161415611b55576000826040518060400160405280600981526020017f71756f74656361736500000000000000000000000000000000000000000000008152509a509a509a505050505050505050611d80565b602e8260f81c60ff161415611c685760018888030390508067ffffffffffffffff81118015611b8357600080fd5b506040519080825280601f01601f191660200182016040528015611bb65781602001600182028036833780820191505090505b509450602085019350611bca848983612ba1565b89856040516020018083815260200180602001828103825283818151815260200191508051906020019080838360005b83811015611c15578082015181840152602081019050611bfa565b50505050905090810190601f168015611c425780820380516001836020036101000a031916815260200191505b509350505050604051602081830303815290604052805190602001209950869750611cd5565b60618260f81c60ff161080611c835750607a8260f81c60ff16115b15611cd4576000826040518060400160405280601281526020017f6661696c206e6f74206c6f7765726361736500000000000000000000000000008152509a509a509a505050505050505050611d80565b5b865191508680600101975050611ab2565b60018888030390508067ffffffffffffffff81118015611d0557600080fd5b506040519080825280601f01601f191660200182016040528015611d385781602001600182028036833780820191505090505b509450602085019350611d4c848983612ba1565b6001857f0200000000000000000000000000000000000000000000000000000000000000909a509a509a5050505050505050505b9193909250565b6000611d938383612bea565b611dec578260000182908060018154018082558091505060019003906000526020600020016000909190919091505582600001805490508360010160008481526020019081526020016000208190555060019050611df1565b600090505b92915050565b6000808460010160008581526020019081526020016000205490506000811415611e9e57846000016040518060400160405280868152602001858152509080600181540180825580915050600190039060005260206000209060020201600090919091909150600082015181600001556020820151816001015550508460000180549050856001016000868152602001908152602001600020819055506001915050611ecc565b82856000016001830381548110611eb157fe5b90600052602060002090600202016001018190555060009150505b9392505050565b600080836001016000848152602001908152602001600020541415905092915050565b600081600001805490509050919050565b8273ffffffffffffffffffffffffffffffffffffffff16611f2782610906565b73ffffffffffffffffffffffffffffffffffffffff1614611f93576040517f08c379a0000000000000000000000000000000000000000000000000000000008152600401808060200182810382526029815260200180613c006029913960400191505060405180910390fd5b600073ffffffffffffffffffffffffffffffffffffffff168273ffffffffffffffffffffffffffffffffffffffff161415612019576040517f08c379a0000000000000000000000000000000000000000000000000000000008152600401808060200182810382526024815260200180613ab16024913960400191505060405180910390fd5b612024838383612c0d565b61202f60008261136f565b61208081606560008673ffffffffffffffffffffffffffffffffffffffff1673ffffffffffffffffffffffffffffffffffffffff168152602001908152602001600020612c1290919063ffffffff16565b506120d281606560008573ffffffffffffffffffffffffffffffffffffffff1673ffffffffffffffffffffffffffffffffffffffff1681526020019081526020016000206112e190919063ffffffff16565b506120e9818360666112fb9092919063ffffffff16565b50808273ffffffffffffffffffffffffffffffffffffffff168473ffffffffffffffffffffffffffffffffffffffff167fddf252ad1be2c89b69c2b068fc378daa952ba7f163c4a11628f55a4df523b3ef60405160405180910390a4505050565b6000818360000180549050116121ab576040517f08c379a0000000000000000000000000000000000000000000000000000000008152600401808060200182810382526022815260200180613a5d6022913960400191505060405180910390fd5b8260000182815481106121ba57fe5b9060005260206000200154905092915050565b6000808284600001805490501161222f576040517f08c379a0000000000000000000000000000000000000000000000000000000008152600401808060200182810382526022815260200180613bb26022913960400191505060405180910390fd5b600084600001848154811061224057fe5b906000526020600020906002020190508060000154816001015492509250509250929050565b60606000602067ffffffffffffffff8111801561228257600080fd5b506040519080825280601f01601f1916602001820160405280156122b55781602001600182028036833780820191505090505b50905060005b60208160ff16101561232557838160ff16602081106122d657fe5b1a60f81b828260ff16815181106122e957fe5b60200101907effffffffffffffffffffffffffffffffffffffffffffffffffffffffffffff1916908160001a90535080806001019150506122bb565b5080915050919050565b60606000825184510167ffffffffffffffff8111801561234e57600080fd5b506040519080825280601f01601f1916602001820160405280156123815781602001600182028036833780820191505090505b50905060005b84518161ffff1610156123fb57848161ffff16815181106123a457fe5b602001015160f81c60f81b828261ffff16815181106123bf57fe5b60200101907effffffffffffffffffffffffffffffffffffffffffffffffffffffffffffff1916908160001a9053508080600101915050612387565b5b83518551018161ffff161015612476578385518261ffff16038151811061241f57fe5b602001015160f81c60f81b828261ffff168151811061243a57fe5b60200101907effffffffffffffffffffffffffffffffffffffffffffffffffffffffffffff1916908160001a90535080806001019150506123fc565b819250505092915050565b606060006008865102905060008086838161249857fe5b06146124a55760026124a8565b60015b60ff168683816124b457fe5b0401905060008167ffffffffffffffff811180156124d157600080fd5b506040519080825280601f01601f1916602001820160405280156125045781602001600182028036833780820191505090505b50905060006001886001901b039050600080878460008151811061252457fe5b60200101907effffffffffffffffffffffffffffffffffffffffffffffffffffffffffffff1916908160001a90535060006001905060005b8c5181101561260f578c818151811061257157fe5b602001015160f81c60f81b60f81c60ff16600884901b1792506008840193505b8b841115612602578b840393508a8484901c8616815181106125af57fe5b602001015160f81c60f81b8683815181106125c657fe5b60200101907effffffffffffffffffffffffffffffffffffffffffffffffffffffffffffff1916908160001a9053508180600101925050612591565b808060010191505061255c565b50600083111561267b5789838c0383901b85168151811061262c57fe5b602001015160f81c60f81b85828151811061264357fe5b60200101907effffffffffffffffffffffffffffffffffffffffffffffffffffffffffffff1916908160001a90535080806001019150505b84975050505050505050949350505050565b60008084600101600085815260200190815260200160002054905060008114158390612754576040517f08c379a00000000000000000000000000000000000000000000000000000000081526004018080602001828103825283818151815260200191508051906020019080838360005b838110156127195780820151818401526020810190506126fe565b50505050905090810190601f1680156127465780820380516001836020036101000a031916815260200191505b509250505060405180910390fd5b5084600001600182038154811061276757fe5b9060005260206000209060020201600101549150509392505050565b600081600001805490509050919050565b600073ffffffffffffffffffffffffffffffffffffffff168273ffffffffffffffffffffffffffffffffffffffff161415612837576040517f08c379a00000000000000000000000000000000000000000000000000000000081526004018080602001828103825260208152602001807f4552433732313a206d696e7420746f20746865207a65726f206164647265737381525060200191505060405180910390fd5b6128408161134a565b156128b3576040517f08c379a000000000000000000000000000000000000000000000000000000000815260040180806020018281038252601c8152602001807f4552433732313a20746f6b656e20616c7265616479206d696e7465640000000081525060200191505060405180910390fd5b6128bf60008383612c0d565b61291081606560008573ffffffffffffffffffffffffffffffffffffffff1673ffffffffffffffffffffffffffffffffffffffff1681526020019081526020016000206112e190919063ffffffff16565b50612927818360666112fb9092919063ffffffff16565b50808273ffffffffffffffffffffffffffffffffffffffff16600073ffffffffffffffffffffffffffffffffffffffff167fddf252ad1be2c89b69c2b068fc378daa952ba7f163c4a11628f55a4df523b3ef60405160405180910390a45050565b60006129a98473ffffffffffffffffffffffffffffffffffffffff16612c2c565b6129b65760019050612b99565b6000612b2063150b7a0260e01b6129cb611367565b888787604051602401808573ffffffffffffffffffffffffffffffffffffffff1681526020018473ffffffffffffffffffffffffffffffffffffffff16815260200183815260200180602001828103825283818151815260200191508051906020019080838360005b83811015612a4f578082015181840152602081019050612a34565b50505050905090810190601f168015612a7c5780820380516001836020036101000a031916815260200191505b5095505050505050604051602081830303815290604052907bffffffffffffffffffffffffffffffffffffffffffffffffffffffff19166020820180517bffffffffffffffffffffffffffffffffffffffffffffffffffffffff8381831617835250505050604051806060016040528060328152602001613a7f603291398773ffffffffffffffffffffffffffffffffffffffff16612c3f9092919063ffffffff16565b90506000818060200190516020811015612b3957600080fd5b8101908080519060200190929190505050905063150b7a0260e01b7bffffffffffffffffffffffffffffffffffffffffffffffffffffffff1916817bffffffffffffffffffffffffffffffffffffffffffffffffffffffff191614925050505b949350505050565b5b60208110612bc55781518352602083019250602082019150602081039050612ba2565b60006001826020036101000a0390508019835116818551168181178652505050505050565b600080836001016000848152602001908152602001600020541415905092915050565b505050565b6000612c24836000018360001b612c57565b905092915050565b600080823b905060008111915050919050565b6060612c4e8484600085612d3f565b90509392505050565b60008083600101600084815260200190815260200160002054905060008114612d335760006001820390506000600186600001805490500390506000866000018281548110612ca257fe5b9060005260206000200154905080876000018481548110612cbf57fe5b9060005260206000200181905550600183018760010160008381526020019081526020016000208190555086600001805480612cf757fe5b60019003818190600052602060002001600090559055866001016000878152602001908152602001600020600090556001945050505050612d39565b60009150505b92915050565b606082471015612d9a576040517f08c379a0000000000000000000000000000000000000000000000000000000008152600401808060200182810382526026815260200180613ad56026913960400191505060405180910390fd5b612da385612c2c565b612e15576040517f08c379a000000000000000000000000000000000000000000000000000000000815260040180806020018281038252601d8152602001807f416464726573733a2063616c6c20746f206e6f6e2d636f6e747261637400000081525060200191505060405180910390fd5b6000808673ffffffffffffffffffffffffffffffffffffffff1685876040518082805190602001908083835b60208310612e645780518252602082019150602081019050602083039250612e41565b6001836020036101000a03801982511681845116808217855250505050505090500191505060006040518083038185875af1925050503d8060008114612ec6576040519150601f19603f3d011682016040523d82523d6000602084013e612ecb565b606091505b5091509150612edb828286612ee7565b92505050949350505050565b60608315612ef757829050612fac565b600083511115612f0a5782518084602001fd5b816040517f08c379a00000000000000000000000000000000000000000000000000000000081526004018080602001828103825283818151815260200191508051906020019080838360005b83811015612f71578082015181840152602081019050612f56565b50505050905090810190601f168015612f9e5780820380516001836020036101000a031916815260200191505b509250505060405180910390fd5b9392505050565b828054600181600116156101000203166002900490600052602060002090601f016020900481019282612fe95760008555613030565b82601f1061300257803560ff1916838001178555613030565b82800160010185558215613030579182015b8281111561302f578235825591602001919060010190613014565b5b50905061303d9190613041565b5090565b5b8082111561305a576000816000905550600101613042565b5090565b600061307161306c84613869565b613838565b9050808382526020820190508260005b858110156130b157813585016130978882613214565b845260208401935060208301925050600181019050613081565b5050509392505050565b60006130ce6130c984613895565b613838565b9050828152602081018484840111156130e657600080fd5b6130f18482856139ab565b509392505050565b600061310c613107846138c5565b613838565b90508281526020810184848401111561312457600080fd5b61312f8482856139ab565b509392505050565b60008135905061314681613a00565b92915050565b600082601f83011261315d57600080fd5b813561316d84826020860161305e565b91505092915050565b60008135905061318581613a17565b92915050565b60008135905061319a81613a2e565b92915050565b600082601f8301126131b157600080fd5b81356131c18482602086016130bb565b91505092915050565b60008083601f8401126131dc57600080fd5b8235905067ffffffffffffffff8111156131f557600080fd5b60208301915083600182028301111561320d57600080fd5b9250929050565b600082601f83011261322557600080fd5b81356132358482602086016130f9565b91505092915050565b60008135905061324d81613a45565b92915050565b60006020828403121561326557600080fd5b600061327384828501613137565b91505092915050565b6000806040838503121561328f57600080fd5b600061329d85828601613137565b92505060206132ae85828601613137565b9150509250929050565b6000806000606084860312156132cd57600080fd5b60006132db86828701613137565b93505060206132ec86828701613137565b92505060406132fd8682870161323e565b9150509250925092565b6000806000806080858703121561331d57600080fd5b600061332b87828801613137565b945050602061333c87828801613137565b935050604061334d8782880161323e565b925050606085013567ffffffffffffffff81111561336a57600080fd5b613376878288016131a0565b91505092959194509250565b6000806040838503121561339557600080fd5b60006133a385828601613137565b92505060206133b485828601613176565b9150509250929050565b600080604083850312156133d157600080fd5b60006133df85828601613137565b92505060206133f08582860161323e565b9150509250929050565b60006020828403121561340c57600080fd5b600082013567ffffffffffffffff81111561342657600080fd5b6134328482850161314c565b91505092915050565b60006020828403121561344d57600080fd5b600061345b8482850161318b565b91505092915050565b60006020828403121561347657600080fd5b600082013567ffffffffffffffff81111561349057600080fd5b61349c84828501613214565b91505092915050565b6000602082840312156134b757600080fd5b60006134c58482850161323e565b91505092915050565b600080600080600080600060a0888a0312156134e957600080fd5b60006134f78a828b0161323e565b975050602088013567ffffffffffffffff81111561351457600080fd5b6135208a828b016131ca565b965096505060406135338a828b01613137565b94505060606135448a828b01613137565b935050608088013567ffffffffffffffff81111561356157600080fd5b61356d8a828b016131ca565b925092505092959891949750929550565b6135878161392d565b82525050565b6135968161393f565b82525050565b6135a58161394b565b82525050565b60006135b6826138f5565b6135c0818561390b565b93506135d08185602086016139ba565b6135d9816139ef565b840191505092915050565b60006135f0838561391c565b93506135fd8385846139ab565b613606836139ef565b840190509392505050565b600061361c82613900565b613626818561391c565b93506136368185602086016139ba565b61363f816139ef565b840191505092915050565b613653816139a1565b82525050565b600060208201905061366e600083018461357e565b92915050565b6000602082019050613689600083018461358d565b92915050565b60006080820190506136a4600083018761358d565b6136b1602083018661359c565b81810360408301526136c38185613611565b905081810360608301526136d781846135ab565b905095945050505050565b60006040820190506136f7600083018561359c565b81810360208301526137098184613611565b90509392505050565b6000602082019050818103600083015261372c81846135ab565b905092915050565b6000602082019050818103600083015261374e8184613611565b905092915050565b600060408201905081810360008301526137708185613611565b905061377f602083018461357e565b9392505050565b600060208201905061379b600083018461364a565b92915050565b60006040820190506137b6600083018661364a565b81810360208301526137c98184866135e4565b9050949350505050565b600060a0820190506137e8600083018a61364a565b81810360208301526137fb81888a6135e4565b905061380a604083018761357e565b613817606083018661357e565b818103608083015261382a8184866135e4565b905098975050505050505050565b6000604051905081810181811067ffffffffffffffff8211171561385f5761385e6139ed565b5b8060405250919050565b600067ffffffffffffffff821115613884576138836139ed565b5b602082029050602081019050919050565b600067ffffffffffffffff8211156138b0576138af6139ed565b5b601f19601f8301169050602081019050919050565b600067ffffffffffffffff8211156138e0576138df6139ed565b5b601f19601f8301169050602081019050919050565b600081519050919050565b600081519050919050565b600082825260208201905092915050565b600082825260208201905092915050565b600061393882613981565b9050919050565b60008115159050919050565b6000819050919050565b60007fffffffff0000000000000000000000000000000000000000000000000000000082169050919050565b600073ffffffffffffffffffffffffffffffffffffffff82169050919050565b6000819050919050565b82818337600083830152505050565b60005b838110156139d85780820151818401526020810190506139bd565b838111156139e7576000848401525b50505050565bfe5b6000601f19601f8301169050919050565b613a098161392d565b8114613a1457600080fd5b50565b613a208161393f565b8114613a2b57600080fd5b50565b613a3781613955565b8114613a4257600080fd5b50565b613a4e816139a1565b8114613a5957600080fd5b5056fe456e756d657261626c655365743a20696e646578206f7574206f6620626f756e64734552433732313a207472616e7366657220746f206e6f6e20455243373231526563656976657220696d706c656d656e7465724552433732313a207472616e7366657220746f20746865207a65726f2061646472657373416464726573733a20696e73756666696369656e742062616c616e636520666f722063616c6c4552433732313a206f70657261746f7220717565727920666f72206e6f6e6578697374656e7420746f6b656e4552433732313a20617070726f76652063616c6c6572206973206e6f74206f776e6572206e6f7220617070726f76656420666f7220616c6c4552433732313a2062616c616e636520717565727920666f7220746865207a65726f20616464726573734552433732313a206f776e657220717565727920666f72206e6f6e6578697374656e7420746f6b656e456e756d657261626c654d61703a20696e646578206f7574206f6620626f756e64734552433732313a20617070726f76656420717565727920666f72206e6f6e6578697374656e7420746f6b656e4552433732313a207472616e73666572206f6620746f6b656e2074686174206973206e6f74206f776e4552433732314d657461646174613a2055524920717565727920666f72206e6f6e6578697374656e7420746f6b656e4552433732313a20617070726f76616c20746f2063757272656e74206f776e65724552433732313a207472616e736665722063616c6c6572206973206e6f74206f776e6572206e6f7220617070726f766564a2646970667358221220d0ef504a8deb68b071af435f011b8a0a8057f18c1780929b7feab142bc38f9e364736f6c63430007060033496e697469616c697a61626c653a20636f6e747261637420697320616c726561647920696e697469616c697a6564",
  "linkReferences": {},
  "deployedLinkReferences": {}
}