{
  "_format": "hh-sol-artifact-1",
  "contractName": "Registrar",
  "sourceName": "contracts/Registrar.sol",
  "abi": [
    {
      "inputs": [
        {
          "internalType": "address",
          "name": "_owner",
          "type": "address"
        }
      ],
      "stateMutability": "nonpayable",
      "type": "constructor"
    },
    {
      "anonymous": false,
      "inputs": [
        {
          "indexed": true,
          "internalType": "address",
          "name": "owner",
          "type": "address"
        },
        {
          "indexed": true,
          "internalType": "address",
          "name": "approved",
          "type": "address"
        },
        {
          "indexed": true,
          "internalType": "uint256",
          "name": "tokenId",
          "type": "uint256"
        }
      ],
      "name": "Approval",
      "type": "event"
    },
    {
      "anonymous": false,
      "inputs": [
        {
          "indexed": true,
          "internalType": "address",
          "name": "owner",
          "type": "address"
        },
        {
          "indexed": true,
          "internalType": "address",
          "name": "operator",
          "type": "address"
        },
        {
          "indexed": false,
          "internalType": "bool",
          "name": "approved",
          "type": "bool"
        }
      ],
      "name": "ApprovalForAll",
      "type": "event"
    },
    {
      "anonymous": false,
      "inputs": [
        {
          "indexed": true,
          "internalType": "address",
          "name": "from",
          "type": "address"
        },
        {
          "indexed": true,
          "internalType": "address",
          "name": "to",
          "type": "address"
        },
        {
          "indexed": true,
          "internalType": "uint256",
          "name": "tokenId",
          "type": "uint256"
        }
      ],
      "name": "Transfer",
      "type": "event"
    },
    {
      "inputs": [
        {
          "internalType": "address",
          "name": "to",
          "type": "address"
        },
        {
          "internalType": "uint256",
          "name": "tokenId",
          "type": "uint256"
        }
      ],
      "name": "approve",
      "outputs": [],
      "stateMutability": "nonpayable",
      "type": "function"
    },
    {
      "inputs": [
        {
          "internalType": "address",
          "name": "owner",
          "type": "address"
        }
      ],
      "name": "balanceOf",
      "outputs": [
        {
          "internalType": "uint256",
          "name": "",
          "type": "uint256"
        }
      ],
      "stateMutability": "view",
      "type": "function"
    },
    {
      "inputs": [],
      "name": "baseURI",
      "outputs": [
        {
          "internalType": "string",
          "name": "",
          "type": "string"
        }
      ],
      "stateMutability": "view",
      "type": "function"
    },
    {
      "inputs": [
        {
          "internalType": "uint256",
          "name": "parentId",
          "type": "uint256"
        },
        {
          "internalType": "string",
          "name": "domain",
          "type": "string"
        },
        {
          "internalType": "address",
          "name": "_owner",
          "type": "address"
        },
        {
          "internalType": "address",
          "name": "_controller",
          "type": "address"
        },
        {
          "internalType": "string",
          "name": "_ref",
          "type": "string"
        }
      ],
      "name": "createRegistry",
      "outputs": [],
      "stateMutability": "nonpayable",
      "type": "function"
    },
    {
      "inputs": [
        {
          "internalType": "uint256",
          "name": "",
          "type": "uint256"
        }
      ],
      "name": "entries",
      "outputs": [
        {
          "internalType": "string",
          "name": "ref",
          "type": "string"
        },
        {
          "internalType": "address",
          "name": "controller",
          "type": "address"
        }
      ],
      "stateMutability": "view",
      "type": "function"
    },
    {
      "inputs": [
        {
          "internalType": "uint256",
          "name": "tokenId",
          "type": "uint256"
        }
      ],
      "name": "getApproved",
      "outputs": [
        {
          "internalType": "address",
          "name": "",
          "type": "address"
        }
      ],
      "stateMutability": "view",
      "type": "function"
    },
    {
      "inputs": [
        {
          "internalType": "string[]",
          "name": "path",
          "type": "string[]"
        }
      ],
      "name": "getId",
      "outputs": [
        {
          "internalType": "uint256",
          "name": "",
          "type": "uint256"
        }
      ],
      "stateMutability": "pure",
      "type": "function"
    },
    {
      "inputs": [
        {
          "internalType": "string[]",
          "name": "path",
          "type": "string[]"
        }
      ],
      "name": "getOwner",
      "outputs": [
        {
          "internalType": "address",
          "name": "",
          "type": "address"
        }
      ],
      "stateMutability": "view",
      "type": "function"
    },
    {
      "inputs": [
        {
          "internalType": "address",
          "name": "owner",
          "type": "address"
        },
        {
          "internalType": "address",
          "name": "operator",
          "type": "address"
        }
      ],
      "name": "isApprovedForAll",
      "outputs": [
        {
          "internalType": "bool",
          "name": "",
          "type": "bool"
        }
      ],
      "stateMutability": "view",
      "type": "function"
    },
    {
      "inputs": [],
      "name": "name",
      "outputs": [
        {
          "internalType": "string",
          "name": "",
          "type": "string"
        }
      ],
      "stateMutability": "view",
      "type": "function"
    },
    {
      "inputs": [
        {
          "internalType": "uint256",
          "name": "tokenId",
          "type": "uint256"
        }
      ],
      "name": "ownerOf",
      "outputs": [
        {
          "internalType": "address",
          "name": "",
          "type": "address"
        }
      ],
      "stateMutability": "view",
      "type": "function"
    },
    {
      "inputs": [
        {
          "internalType": "address",
          "name": "from",
          "type": "address"
        },
        {
          "internalType": "address",
          "name": "to",
          "type": "address"
        },
        {
          "internalType": "uint256",
          "name": "tokenId",
          "type": "uint256"
        }
      ],
      "name": "safeTransferFrom",
      "outputs": [],
      "stateMutability": "nonpayable",
      "type": "function"
    },
    {
      "inputs": [
        {
          "internalType": "address",
          "name": "from",
          "type": "address"
        },
        {
          "internalType": "address",
          "name": "to",
          "type": "address"
        },
        {
          "internalType": "uint256",
          "name": "tokenId",
          "type": "uint256"
        },
        {
          "internalType": "bytes",
          "name": "_data",
          "type": "bytes"
        }
      ],
      "name": "safeTransferFrom",
      "outputs": [],
      "stateMutability": "nonpayable",
      "type": "function"
    },
    {
      "inputs": [
        {
          "internalType": "address",
          "name": "operator",
          "type": "address"
        },
        {
          "internalType": "bool",
          "name": "approved",
          "type": "bool"
        }
      ],
      "name": "setApprovalForAll",
      "outputs": [],
      "stateMutability": "nonpayable",
      "type": "function"
    },
    {
      "inputs": [
        {
          "internalType": "bytes4",
          "name": "interfaceId",
          "type": "bytes4"
        }
      ],
      "name": "supportsInterface",
      "outputs": [
        {
          "internalType": "bool",
          "name": "",
          "type": "bool"
        }
      ],
      "stateMutability": "view",
      "type": "function"
    },
    {
      "inputs": [],
      "name": "symbol",
      "outputs": [
        {
          "internalType": "string",
          "name": "",
          "type": "string"
        }
      ],
      "stateMutability": "view",
      "type": "function"
    },
    {
      "inputs": [
        {
          "internalType": "uint256",
          "name": "index",
          "type": "uint256"
        }
      ],
      "name": "tokenByIndex",
      "outputs": [
        {
          "internalType": "uint256",
          "name": "",
          "type": "uint256"
        }
      ],
      "stateMutability": "view",
      "type": "function"
    },
    {
      "inputs": [
        {
          "internalType": "address",
          "name": "owner",
          "type": "address"
        },
        {
          "internalType": "uint256",
          "name": "index",
          "type": "uint256"
        }
      ],
      "name": "tokenOfOwnerByIndex",
      "outputs": [
        {
          "internalType": "uint256",
          "name": "",
          "type": "uint256"
        }
      ],
      "stateMutability": "view",
      "type": "function"
    },
    {
      "inputs": [
        {
          "internalType": "uint256",
          "name": "tokenId",
          "type": "uint256"
        }
      ],
      "name": "tokenURI",
      "outputs": [
        {
          "internalType": "string",
          "name": "",
          "type": "string"
        }
      ],
      "stateMutability": "view",
      "type": "function"
    },
    {
      "inputs": [],
      "name": "totalSupply",
      "outputs": [
        {
          "internalType": "uint256",
          "name": "",
          "type": "uint256"
        }
      ],
      "stateMutability": "view",
      "type": "function"
    },
    {
      "inputs": [
        {
          "internalType": "address",
          "name": "from",
          "type": "address"
        },
        {
          "internalType": "address",
          "name": "to",
          "type": "address"
        },
        {
          "internalType": "uint256",
          "name": "tokenId",
          "type": "uint256"
        }
      ],
      "name": "transferFrom",
      "outputs": [],
      "stateMutability": "nonpayable",
      "type": "function"
    },
    {
      "inputs": [
        {
          "internalType": "string",
          "name": "_s",
          "type": "string"
        }
      ],
      "name": "validateString",
      "outputs": [
        {
          "internalType": "bool",
          "name": "valid",
          "type": "bool"
        },
        {
          "internalType": "bytes32",
          "name": "parent",
          "type": "bytes32"
        },
        {
          "internalType": "string",
          "name": "domain",
          "type": "string"
        },
        {
          "internalType": "bytes",
          "name": "debug",
          "type": "bytes"
        }
      ],
      "stateMutability": "pure",
      "type": "function"
    }
  ],
  "bytecode": "0x60806040523480156200001157600080fd5b50604051620046e6380380620046e6833981810160405281019062000037919062000bc4565b620000b36040518060400160405280601181526020017f5a657230204e616d6520536572766963650000000000000000000000000000008152506040518060400160405280600381526020017f5a4e5300000000000000000000000000000000000000000000000000000000008152506200017860201b60201c565b620000c6816000620002a360201b60201c565b60006097600080815260200190815260200160002090506040518060400160405280600381526020017f5a4e5300000000000000000000000000000000000000000000000000000000008152508160000190805190602001906200012c92919062000b07565b50818160010160006101000a81548173ffffffffffffffffffffffffffffffffffffffff021916908373ffffffffffffffffffffffffffffffffffffffff160217905550505062000e05565b600060019054906101000a900460ff1680620001a057506200019f6200045560201b60201c565b5b80620001b7575060008054906101000a900460ff16155b620001f9576040517f08c379a0000000000000000000000000000000000000000000000000000000008152600401620001f09062000d62565b60405180910390fd5b60008060019054906101000a900460ff1615905080156200024a576001600060016101000a81548160ff02191690831515021790555060016000806101000a81548160ff0219169083151502179055505b6200025a6200046c60201b60201c565b6200026a6200056360201b60201c565b6200027c83836200067260201b60201c565b80156200029e5760008060016101000a81548160ff0219169083151502179055505b505050565b600073ffffffffffffffffffffffffffffffffffffffff168273ffffffffffffffffffffffffffffffffffffffff16141562000316576040517f08c379a00000000000000000000000000000000000000000000000000000000081526004016200030d9062000d84565b60405180910390fd5b6200032781620007e560201b60201c565b156200036a576040517f08c379a0000000000000000000000000000000000000000000000000000000008152600401620003619062000d40565b60405180910390fd5b6200037e600083836200080960201b60201c565b620003d681606560008573ffffffffffffffffffffffffffffffffffffffff1673ffffffffffffffffffffffffffffffffffffffff1681526020019081526020016000206200080e60201b6200107d1790919060201c565b50620003f4818360666200083060201b62001097179092919060201c565b50808273ffffffffffffffffffffffffffffffffffffffff16600073ffffffffffffffffffffffffffffffffffffffff167fddf252ad1be2c89b69c2b068fc378daa952ba7f163c4a11628f55a4df523b3ef60405160405180910390a45050565b6000803090506000813b9050600081149250505090565b600060019054906101000a900460ff1680620004945750620004936200045560201b60201c565b5b80620004ab575060008054906101000a900460ff16155b620004ed576040517f08c379a0000000000000000000000000000000000000000000000000000000008152600401620004e49062000d62565b60405180910390fd5b60008060019054906101000a900460ff1615905080156200053e576001600060016101000a81548160ff02191690831515021790555060016000806101000a81548160ff0219169083151502179055505b8015620005605760008060016101000a81548160ff0219169083151502179055505b50565b600060019054906101000a900460ff16806200058b57506200058a6200045560201b60201c565b5b80620005a2575060008054906101000a900460ff16155b620005e4576040517f08c379a0000000000000000000000000000000000000000000000000000000008152600401620005db9062000d62565b60405180910390fd5b60008060019054906101000a900460ff16159050801562000635576001600060016101000a81548160ff02191690831515021790555060016000806101000a81548160ff0219169083151502179055505b6200064d6301ffc9a760e01b6200086d60201b60201c565b80156200066f5760008060016101000a81548160ff0219169083151502179055505b50565b600060019054906101000a900460ff16806200069a5750620006996200045560201b60201c565b5b80620006b1575060008054906101000a900460ff16155b620006f3576040517f08c379a0000000000000000000000000000000000000000000000000000000008152600401620006ea9062000d62565b60405180910390fd5b60008060019054906101000a900460ff16159050801562000744576001600060016101000a81548160ff02191690831515021790555060016000806101000a81548160ff0219169083151502179055505b82606a90805190602001906200075c92919062000b07565b5081606b90805190602001906200077592919062000b07565b506200078e6380ac58cd60e01b6200086d60201b60201c565b620007a6635b5e139f60e01b6200086d60201b60201c565b620007be63780e9d6360e01b6200086d60201b60201c565b8015620007e05760008060016101000a81548160ff0219169083151502179055505b505050565b6000620008028260666200094660201b620010cc1790919060201c565b9050919050565b505050565b600062000828836000018360001b6200096860201b60201c565b905092915050565b600062000864846000018460001b8473ffffffffffffffffffffffffffffffffffffffff1660001b620009e260201b60201c565b90509392505050565b63ffffffff60e01b817bffffffffffffffffffffffffffffffffffffffffffffffffffffffff19161415620008d9576040517f08c379a0000000000000000000000000000000000000000000000000000000008152600401620008d09062000d1e565b60405180910390fd5b600160336000837bffffffffffffffffffffffffffffffffffffffffffffffffffffffff19167bffffffffffffffffffffffffffffffffffffffffffffffffffffffff1916815260200190815260200160002060006101000a81548160ff02191690831515021790555050565b600062000960836000018360001b62000ac160201b60201c565b905092915050565b60006200097c838362000ae460201b60201c565b620009d7578260000182908060018154018082558091505060019003906000526020600020016000909190919091505582600001805490508360010160008481526020019081526020016000208190555060019050620009dc565b600090505b92915050565b600080846001016000858152602001908152602001600020549050600081141562000a8b5784600001604051806040016040528086815260200185815250908060018154018082558091505060019003906000526020600020906002020160009091909190915060008201518160000155602082015181600101555050846000018054905085600101600086815260200190815260200160002081905550600191505062000aba565b8285600001600183038154811062000a9f57fe5b90600052602060002090600202016001018190555060009150505b9392505050565b600080836001016000848152602001908152602001600020541415905092915050565b600080836001016000848152602001908152602001600020541415905092915050565b828054600181600116156101000203166002900490600052602060002090601f016020900481019282601f1062000b4a57805160ff191683800117855562000b7b565b8280016001018555821562000b7b579182015b8281111562000b7a57825182559160200191906001019062000b5d565b5b50905062000b8a919062000b8e565b5090565b5b8082111562000ba957600081600090555060010162000b8f565b5090565b60008151905062000bbe8162000deb565b92915050565b60006020828403121562000bd757600080fd5b600062000be78482850162000bad565b91505092915050565b600062000bff601c8362000da6565b91507f4552433136353a20696e76616c696420696e74657266616365206964000000006000830152602082019050919050565b600062000c41601c8362000da6565b91507f4552433732313a20746f6b656e20616c7265616479206d696e746564000000006000830152602082019050919050565b600062000c83602e8362000da6565b91507f496e697469616c697a61626c653a20636f6e747261637420697320616c72656160008301527f647920696e697469616c697a65640000000000000000000000000000000000006020830152604082019050919050565b600062000ceb60208362000da6565b91507f4552433732313a206d696e7420746f20746865207a65726f20616464726573736000830152602082019050919050565b6000602082019050818103600083015262000d398162000bf0565b9050919050565b6000602082019050818103600083015262000d5b8162000c32565b9050919050565b6000602082019050818103600083015262000d7d8162000c74565b9050919050565b6000602082019050818103600083015262000d9f8162000cdc565b9050919050565b600082825260208201905092915050565b600062000dc48262000dcb565b9050919050565b600073ffffffffffffffffffffffffffffffffffffffff82169050919050565b62000df68162000db7565b811462000e0257600080fd5b50565b6138d18062000e156000396000f3fe608060405234801561001057600080fd5b50600436106101425760003560e01c80636c0360eb116100b8578063a4a183b01161007c578063a4a183b01461039e578063b30906d4146103ce578063b88d4fde146103ff578063c87b56dd1461041b578063d4f591341461044b578063e985e9c51461047b57610142565b80636c0360eb146102fa57806370a0823114610318578063830bf1581461034857806395d89b4114610364578063a22cb4651461038257610142565b806318160ddd1161010a57806318160ddd1461021457806323b872dd146102325780632f745c591461024e57806342842e0e1461027e5780634f6ccce71461029a5780636352211e146102ca57610142565b806301ffc9a71461014757806306fdde0314610177578063081812fc14610195578063095ea7b3146101c5578063105f95a9146101e1575b600080fd5b610161600480360381019061015c919061287e565b6104ab565b60405161016e9190613294565b60405180910390f35b61017f610513565b60405161018c9190613332565b60405180910390f35b6101af60048036038101906101aa9190612911565b6105b5565b6040516101bc919061322d565b60405180910390f35b6101df60048036038101906101da9190612801565b61063a565b005b6101fb60048036038101906101f691906128d0565b610752565b60405161020b94939291906132af565b60405180910390f35b61021c610777565b60405161022991906135a4565b60405180910390f35b61024c600480360381019061024791906126fb565b610788565b005b61026860048036038101906102639190612801565b6107e8565b60405161027591906135a4565b60405180910390f35b610298600480360381019061029391906126fb565b610843565b005b6102b460048036038101906102af9190612911565b610863565b6040516102c191906135a4565b60405180910390f35b6102e460048036038101906102df9190612911565b610886565b6040516102f1919061322d565b60405180910390f35b6103026108bd565b60405161030f9190613332565b60405180910390f35b610332600480360381019061032d9190612696565b61095f565b60405161033f91906135a4565b60405180910390f35b610362600480360381019061035d919061293a565b610a1e565b005b61036c610a78565b6040516103799190613332565b60405180910390f35b61039c600480360381019061039791906127c5565b610b1a565b005b6103b860048036038101906103b3919061283d565b610c9b565b6040516103c5919061322d565b60405180910390f35b6103e860048036038101906103e39190612911565b610cb5565b6040516103f6929190613354565b60405180910390f35b6104196004803603810190610414919061274a565b610d91565b005b61043560048036038101906104309190612911565b610df3565b6040516104429190613332565b60405180910390f35b6104656004803603810190610460919061283d565b610f7e565b60405161047291906135a4565b60405180910390f35b610495600480360381019061049091906126bf565b610fe9565b6040516104a29190613294565b60405180910390f35b600060336000837bffffffffffffffffffffffffffffffffffffffffffffffffffffffff19167bffffffffffffffffffffffffffffffffffffffffffffffffffffffff1916815260200190815260200160002060009054906101000a900460ff169050919050565b6060606a8054600181600116156101000203166002900480601f0160208091040260200160405190810160405280929190818152602001828054600181600116156101000203166002900480156105ab5780601f10610580576101008083540402835291602001916105ab565b820191906000526020600020905b81548152906001019060200180831161058e57829003601f168201915b5050505050905090565b60006105c0826110e6565b6105ff576040517f08c379a00000000000000000000000000000000000000000000000000000000081526004016105f6906134e4565b60405180910390fd5b6068600083815260200190815260200160002060009054906101000a900473ffffffffffffffffffffffffffffffffffffffff169050919050565b600061064582610886565b90508073ffffffffffffffffffffffffffffffffffffffff168373ffffffffffffffffffffffffffffffffffffffff1614156106b6576040517f08c379a00000000000000000000000000000000000000000000000000000000081526004016106ad90613544565b60405180910390fd5b8073ffffffffffffffffffffffffffffffffffffffff166106d5611103565b73ffffffffffffffffffffffffffffffffffffffff1614806107045750610703816106fe611103565b610fe9565b5b610743576040517f08c379a000000000000000000000000000000000000000000000000000000000815260040161073a90613464565b60405180910390fd5b61074d838361110b565b505050565b600080606080849050610764856111c4565b8094508195508296505050509193509193565b60006107836066611458565b905090565b610799610793611103565b8261146d565b6107d8576040517f08c379a00000000000000000000000000000000000000000000000000000000081526004016107cf90613564565b60405180910390fd5b6107e383838361154b565b505050565b600061083b82606560008673ffffffffffffffffffffffffffffffffffffffff1673ffffffffffffffffffffffffffffffffffffffff16815260200190815260200160002061162390919063ffffffff16565b905092915050565b61085e83838360405180602001604052806000815250610d91565b505050565b60008061087a83606661163d90919063ffffffff16565b50905080915050919050565b60006108b6826040518060600160405280602981526020016138736029913960666116699092919063ffffffff16565b9050919050565b6060606d8054600181600116156101000203166002900480601f0160208091040260200160405190810160405280929190818152602001828054600181600116156101000203166002900480156109555780601f1061092a57610100808354040283529160200191610955565b820191906000526020600020905b81548152906001019060200180831161093857829003601f168201915b5050505050905090565b60008073ffffffffffffffffffffffffffffffffffffffff168273ffffffffffffffffffffffffffffffffffffffff1614156109d0576040517f08c379a00000000000000000000000000000000000000000000000000000000081526004016109c790613484565b60405180910390fd5b610a17606560008473ffffffffffffffffffffffffffffffffffffffff1673ffffffffffffffffffffffffffffffffffffffff168152602001908152602001600020611688565b9050919050565b863373ffffffffffffffffffffffffffffffffffffffff16610a3f82610886565b73ffffffffffffffffffffffffffffffffffffffff1614610a5f57600080fd5b610a6e8888888888888861169d565b5050505050505050565b6060606b8054600181600116156101000203166002900480601f016020809104026020016040519081016040528092919081815260200182805460018160011615610100020316600290048015610b105780601f10610ae557610100808354040283529160200191610b10565b820191906000526020600020905b815481529060010190602001808311610af357829003601f168201915b5050505050905090565b610b22611103565b73ffffffffffffffffffffffffffffffffffffffff168273ffffffffffffffffffffffffffffffffffffffff161415610b90576040517f08c379a0000000000000000000000000000000000000000000000000000000008152600401610b8790613404565b60405180910390fd5b8060696000610b9d611103565b73ffffffffffffffffffffffffffffffffffffffff1673ffffffffffffffffffffffffffffffffffffffff16815260200190815260200160002060008473ffffffffffffffffffffffffffffffffffffffff1673ffffffffffffffffffffffffffffffffffffffff16815260200190815260200160002060006101000a81548160ff0219169083151502179055508173ffffffffffffffffffffffffffffffffffffffff16610c4a611103565b73ffffffffffffffffffffffffffffffffffffffff167f17307eab39ab6107e8899845ad3d59bd9653f200f220920489ca2b5937696c3183604051610c8f9190613294565b60405180910390a35050565b6000610cae610ca983610f7e565b610886565b9050919050565b6097602052806000526040600020600091509050806000018054600181600116156101000203166002900480601f016020809104026020016040519081016040528092919081815260200182805460018160011615610100020316600290048015610d615780601f10610d3657610100808354040283529160200191610d61565b820191906000526020600020905b815481529060010190602001808311610d4457829003601f168201915b5050505050908060010160009054906101000a900473ffffffffffffffffffffffffffffffffffffffff16905082565b610da2610d9c611103565b8361146d565b610de1576040517f08c379a0000000000000000000000000000000000000000000000000000000008152600401610dd890613564565b60405180910390fd5b610ded84848484611752565b50505050565b6060610dfe826110e6565b610e3d576040517f08c379a0000000000000000000000000000000000000000000000000000000008152600401610e3490613524565b60405180910390fd5b6060606c60008481526020019081526020016000208054600181600116156101000203166002900480601f016020809104026020016040519081016040528092919081815260200182805460018160011615610100020316600290048015610ee65780601f10610ebb57610100808354040283529160200191610ee6565b820191906000526020600020905b815481529060010190602001808311610ec957829003601f168201915b505050505090506000606d8054600181600116156101000203166002900490501415610f155780915050610f79565b600081511115610f4a57606d81604051602001610f33929190613209565b604051602081830303815290604052915050610f79565b606d610f55846117ae565b604051602001610f66929190613209565b6040516020818303038152906040529150505b919050565b6000806000905060005b8351811015610fdc5781848281518110610f9e57fe5b6020026020010151604051602001610fb7929190613302565b6040516020818303038152906040528051906020012091508080600101915050610f88565b508060001c915050919050565b6000606960008473ffffffffffffffffffffffffffffffffffffffff1673ffffffffffffffffffffffffffffffffffffffff16815260200190815260200160002060008373ffffffffffffffffffffffffffffffffffffffff1673ffffffffffffffffffffffffffffffffffffffff16815260200190815260200160002060009054906101000a900460ff16905092915050565b600061108f836000018360001b6118f5565b905092915050565b60006110c3846000018460001b8473ffffffffffffffffffffffffffffffffffffffff1660001b611965565b90509392505050565b60006110de836000018360001b611a41565b905092915050565b60006110fc8260666110cc90919063ffffffff16565b9050919050565b600033905090565b816068600083815260200190815260200160002060006101000a81548173ffffffffffffffffffffffffffffffffffffffff021916908373ffffffffffffffffffffffffffffffffffffffff160217905550808273ffffffffffffffffffffffffffffffffffffffff1661117e83610886565b73ffffffffffffffffffffffffffffffffffffffff167f8c5be1e5ebec7d5bd14f71427d1e84f3dd0314c0f7b2291e5b200ac8c7c3b92560405160405180910390a45050565b60008060606000602085019050600081905060008651905060606000808386019050600080865191505b8287116113b757605c60f81b7effffffffffffffffffffffffffffffffffffffffffffffffffffffffffffff1916827effffffffffffffffffffffffffffffffffffffffffffffffffffffffffffff19161415611291576000826040518060400160405280600981526020017f71756f74656361736500000000000000000000000000000000000000000000008152509a509a509a505050505050505050611451565b602e8260f81c60ff1614156113395760018888030390508067ffffffffffffffff811180156112bf57600080fd5b506040519080825280601f01601f1916602001820160405280156112f25781602001600182028036833780820191505090505b509450602085019350611306848983611a64565b8985604051602001611319929190613302565b6040516020818303038152906040528051906020012099508697506113a6565b60618260f81c60ff1610806113545750607a8260f81c60ff16115b156113a5576000826040518060400160405280601281526020017f6661696c206e6f74206c6f7765726361736500000000000000000000000000008152509a509a509a505050505050505050611451565b5b8651915086806001019750506111ee565b60018888030390508067ffffffffffffffff811180156113d657600080fd5b506040519080825280601f01601f1916602001820160405280156114095781602001600182028036833780820191505090505b50945060208501935061141d848983611a64565b6001857f0200000000000000000000000000000000000000000000000000000000000000909a509a509a5050505050505050505b9193909250565b600061146682600001611aad565b9050919050565b6000611478826110e6565b6114b7576040517f08c379a00000000000000000000000000000000000000000000000000000000081526004016114ae90613444565b60405180910390fd5b60006114c283610886565b90508073ffffffffffffffffffffffffffffffffffffffff168473ffffffffffffffffffffffffffffffffffffffff16148061153157508373ffffffffffffffffffffffffffffffffffffffff16611519846105b5565b73ffffffffffffffffffffffffffffffffffffffff16145b8061154257506115418185610fe9565b5b91505092915050565b61155481610886565b73ffffffffffffffffffffffffffffffffffffffff166097600083815260200190815260200160002060010160009054906101000a900473ffffffffffffffffffffffffffffffffffffffff1673ffffffffffffffffffffffffffffffffffffffff16141561161357816097600083815260200190815260200160002060010160006101000a81548173ffffffffffffffffffffffffffffffffffffffff021916908373ffffffffffffffffffffffffffffffffffffffff1602179055505b61161e838383611abe565b505050565b60006116328360000183611cd5565b60001c905092915050565b6000806000806116508660000186611d42565b915091508160001c8160001c9350935050509250929050565b600061167c846000018460001b84611dc5565b60001c90509392505050565b600061169682600001611e56565b9050919050565b60008787876040516020016116b4939291906135bf565b6040516020818303038152906040528051906020012060001c90506116d98582611e67565b6000609760008381526020019081526020016000209050838382600001919061170392919061242a565b50848160010160006101000a81548173ffffffffffffffffffffffffffffffffffffffff021916908373ffffffffffffffffffffffffffffffffffffffff160217905550505050505050505050565b61175d84848461154b565b61176984848484611ff5565b6117a8576040517f08c379a000000000000000000000000000000000000000000000000000000000815260040161179f906133a4565b60405180910390fd5b50505050565b606060008214156117f6576040518060400160405280600181526020017f300000000000000000000000000000000000000000000000000000000000000081525090506118f0565b600082905060005b60008214611820578080600101915050600a828161181857fe5b0491506117fe565b60608167ffffffffffffffff8111801561183957600080fd5b506040519080825280601f01601f19166020018201604052801561186c5781602001600182028036833780820191505090505b50905060006001830390508593505b600084146118e857600a848161188d57fe5b0660300160f81b828280600190039350815181106118a757fe5b60200101907effffffffffffffffffffffffffffffffffffffffffffffffffffffffffffff1916908160001a905350600a84816118e057fe5b04935061187b565b819450505050505b919050565b60006119018383612159565b61195a57826000018290806001815401808255809150506001900390600052602060002001600090919091909150558260000180549050836001016000848152602001908152602001600020819055506001905061195f565b600090505b92915050565b6000808460010160008581526020019081526020016000205490506000811415611a0c57846000016040518060400160405280868152602001858152509080600181540180825580915050600190039060005260206000209060020201600090919091909150600082015181600001556020820151816001015550508460000180549050856001016000868152602001908152602001600020819055506001915050611a3a565b82856000016001830381548110611a1f57fe5b90600052602060002090600202016001018190555060009150505b9392505050565b600080836001016000848152602001908152602001600020541415905092915050565b5b60208110611a885781518352602083019250602082019150602081039050611a65565b60006001826020036101000a0390508019835116818551168181178652505050505050565b600081600001805490509050919050565b8273ffffffffffffffffffffffffffffffffffffffff16611ade82610886565b73ffffffffffffffffffffffffffffffffffffffff1614611b34576040517f08c379a0000000000000000000000000000000000000000000000000000000008152600401611b2b90613504565b60405180910390fd5b600073ffffffffffffffffffffffffffffffffffffffff168273ffffffffffffffffffffffffffffffffffffffff161415611ba4576040517f08c379a0000000000000000000000000000000000000000000000000000000008152600401611b9b906133e4565b60405180910390fd5b611baf83838361217c565b611bba60008261110b565b611c0b81606560008673ffffffffffffffffffffffffffffffffffffffff1673ffffffffffffffffffffffffffffffffffffffff16815260200190815260200160002061218190919063ffffffff16565b50611c5d81606560008573ffffffffffffffffffffffffffffffffffffffff1673ffffffffffffffffffffffffffffffffffffffff16815260200190815260200160002061107d90919063ffffffff16565b50611c74818360666110979092919063ffffffff16565b50808273ffffffffffffffffffffffffffffffffffffffff168473ffffffffffffffffffffffffffffffffffffffff167fddf252ad1be2c89b69c2b068fc378daa952ba7f163c4a11628f55a4df523b3ef60405160405180910390a4505050565b600081836000018054905011611d20576040517f08c379a0000000000000000000000000000000000000000000000000000000008152600401611d1790613384565b60405180910390fd5b826000018281548110611d2f57fe5b9060005260206000200154905092915050565b60008082846000018054905011611d8e576040517f08c379a0000000000000000000000000000000000000000000000000000000008152600401611d85906134a4565b60405180910390fd5b6000846000018481548110611d9f57fe5b906000526020600020906002020190508060000154816001015492509250509250929050565b60008084600101600085815260200190815260200160002054905060008114158390611e27576040517f08c379a0000000000000000000000000000000000000000000000000000000008152600401611e1e9190613332565b60405180910390fd5b50846000016001820381548110611e3a57fe5b9060005260206000209060020201600101549150509392505050565b600081600001805490509050919050565b600073ffffffffffffffffffffffffffffffffffffffff168273ffffffffffffffffffffffffffffffffffffffff161415611ed7576040517f08c379a0000000000000000000000000000000000000000000000000000000008152600401611ece906134c4565b60405180910390fd5b611ee0816110e6565b15611f20576040517f08c379a0000000000000000000000000000000000000000000000000000000008152600401611f17906133c4565b60405180910390fd5b611f2c6000838361217c565b611f7d81606560008573ffffffffffffffffffffffffffffffffffffffff1673ffffffffffffffffffffffffffffffffffffffff16815260200190815260200160002061107d90919063ffffffff16565b50611f94818360666110979092919063ffffffff16565b50808273ffffffffffffffffffffffffffffffffffffffff16600073ffffffffffffffffffffffffffffffffffffffff167fddf252ad1be2c89b69c2b068fc378daa952ba7f163c4a11628f55a4df523b3ef60405160405180910390a45050565b60006120168473ffffffffffffffffffffffffffffffffffffffff1661219b565b6120235760019050612151565b60606120ea63150b7a0260e01b612038611103565b88878760405160240161204e9493929190613248565b604051602081830303815290604052907bffffffffffffffffffffffffffffffffffffffffffffffffffffffff19166020820180517bffffffffffffffffffffffffffffffffffffffffffffffffffffffff8381831617835250505050604051806060016040528060328152602001613841603291398773ffffffffffffffffffffffffffffffffffffffff166121ae9092919063ffffffff16565b905060008180602001905181019061210291906128a7565b905063150b7a0260e01b7bffffffffffffffffffffffffffffffffffffffffffffffffffffffff1916817bffffffffffffffffffffffffffffffffffffffffffffffffffffffff191614925050505b949350505050565b600080836001016000848152602001908152602001600020541415905092915050565b505050565b6000612193836000018360001b6121c6565b905092915050565b600080823b905060008111915050919050565b60606121bd84846000856122ae565b90509392505050565b600080836001016000848152602001908152602001600020549050600081146122a2576000600182039050600060018660000180549050039050600086600001828154811061221157fe5b906000526020600020015490508087600001848154811061222e57fe5b906000526020600020018190555060018301876001016000838152602001908152602001600020819055508660000180548061226657fe5b600190038181906000526020600020016000905590558660010160008781526020019081526020016000206000905560019450505050506122a8565b60009150505b92915050565b6060824710156122f3576040517f08c379a00000000000000000000000000000000000000000000000000000000081526004016122ea90613424565b60405180910390fd5b6122fc8561219b565b61233b576040517f08c379a000000000000000000000000000000000000000000000000000000000815260040161233290613584565b60405180910390fd5b600060608673ffffffffffffffffffffffffffffffffffffffff16858760405161236591906131f2565b60006040518083038185875af1925050503d80600081146123a2576040519150601f19603f3d011682016040523d82523d6000602084013e6123a7565b606091505b50915091506123b78282866123c3565b92505050949350505050565b606083156123d357829050612423565b6000835111156123e65782518084602001fd5b816040517f08c379a000000000000000000000000000000000000000000000000000000000815260040161241a9190613332565b60405180910390fd5b9392505050565b828054600181600116156101000203166002900490600052602060002090601f016020900481019282601f1061246b57803560ff1916838001178555612499565b82800160010185558215612499579182015b8281111561249857823582559160200191906001019061247d565b5b5090506124a691906124aa565b5090565b5b808211156124c35760008160009055506001016124ab565b5090565b6000813590506124d6816137e4565b92915050565b600082601f8301126124ed57600080fd5b81356125006124fb8261361e565b6135f1565b9150818183526020840193506020810190508360005b83811015612546578135860161252c888261262d565b845260208401935060208301925050600181019050612516565b5050505092915050565b60008135905061255f816137fb565b92915050565b60008135905061257481613812565b92915050565b60008151905061258981613812565b92915050565b600082601f8301126125a057600080fd5b81356125b36125ae82613646565b6135f1565b915080825260208301602083018583830111156125cf57600080fd5b6125da838284613791565b50505092915050565b60008083601f8401126125f557600080fd5b8235905067ffffffffffffffff81111561260e57600080fd5b60208301915083600182028301111561262657600080fd5b9250929050565b600082601f83011261263e57600080fd5b813561265161264c82613672565b6135f1565b9150808252602083016020830185838301111561266d57600080fd5b612678838284613791565b50505092915050565b60008135905061269081613829565b92915050565b6000602082840312156126a857600080fd5b60006126b6848285016124c7565b91505092915050565b600080604083850312156126d257600080fd5b60006126e0858286016124c7565b92505060206126f1858286016124c7565b9150509250929050565b60008060006060848603121561271057600080fd5b600061271e868287016124c7565b935050602061272f868287016124c7565b925050604061274086828701612681565b9150509250925092565b6000806000806080858703121561276057600080fd5b600061276e878288016124c7565b945050602061277f878288016124c7565b935050604061279087828801612681565b925050606085013567ffffffffffffffff8111156127ad57600080fd5b6127b98782880161258f565b91505092959194509250565b600080604083850312156127d857600080fd5b60006127e6858286016124c7565b92505060206127f785828601612550565b9150509250929050565b6000806040838503121561281457600080fd5b6000612822858286016124c7565b925050602061283385828601612681565b9150509250929050565b60006020828403121561284f57600080fd5b600082013567ffffffffffffffff81111561286957600080fd5b612875848285016124dc565b91505092915050565b60006020828403121561289057600080fd5b600061289e84828501612565565b91505092915050565b6000602082840312156128b957600080fd5b60006128c78482850161257a565b91505092915050565b6000602082840312156128e257600080fd5b600082013567ffffffffffffffff8111156128fc57600080fd5b6129088482850161262d565b91505092915050565b60006020828403121561292357600080fd5b600061293184828501612681565b91505092915050565b600080600080600080600060a0888a03121561295557600080fd5b60006129638a828b01612681565b975050602088013567ffffffffffffffff81111561298057600080fd5b61298c8a828b016125e3565b9650965050604061299f8a828b016124c7565b94505060606129b08a828b016124c7565b935050608088013567ffffffffffffffff8111156129cd57600080fd5b6129d98a828b016125e3565b925092505092959891949750929550565b6129f381613713565b82525050565b612a0281613701565b82525050565b612a1181613725565b82525050565b612a2081613731565b82525050565b6000612a31826136b3565b612a3b81856136c9565b9350612a4b8185602086016137a0565b612a54816137d3565b840191505092915050565b6000612a6a826136b3565b612a7481856136da565b9350612a848185602086016137a0565b80840191505092915050565b6000612a9c83856136e5565b9350612aa9838584613791565b612ab2836137d3565b840190509392505050565b6000612ac8826136be565b612ad281856136e5565b9350612ae28185602086016137a0565b612aeb816137d3565b840191505092915050565b6000612b01826136be565b612b0b81856136f6565b9350612b1b8185602086016137a0565b80840191505092915050565b600081546001811660008114612b445760018114612b6957612bad565b607f6002830416612b5581876136f6565b955060ff1983168652808601935050612bad565b60028204612b7781876136f6565b9550612b828561369e565b60005b82811015612ba457815481890152600182019150602081019050612b85565b82880195505050505b505092915050565b6000612bc26022836136e5565b91507f456e756d657261626c655365743a20696e646578206f7574206f6620626f756e60008301527f64730000000000000000000000000000000000000000000000000000000000006020830152604082019050919050565b6000612c286032836136e5565b91507f4552433732313a207472616e7366657220746f206e6f6e20455243373231526560008301527f63656976657220696d706c656d656e74657200000000000000000000000000006020830152604082019050919050565b6000612c8e601c836136e5565b91507f4552433732313a20746f6b656e20616c7265616479206d696e746564000000006000830152602082019050919050565b6000612cce6024836136e5565b91507f4552433732313a207472616e7366657220746f20746865207a65726f2061646460008301527f72657373000000000000000000000000000000000000000000000000000000006020830152604082019050919050565b6000612d346019836136e5565b91507f4552433732313a20617070726f766520746f2063616c6c6572000000000000006000830152602082019050919050565b6000612d746026836136e5565b91507f416464726573733a20696e73756666696369656e742062616c616e636520666f60008301527f722063616c6c00000000000000000000000000000000000000000000000000006020830152604082019050919050565b6000612dda602c836136e5565b91507f4552433732313a206f70657261746f7220717565727920666f72206e6f6e657860008301527f697374656e7420746f6b656e00000000000000000000000000000000000000006020830152604082019050919050565b6000612e406038836136e5565b91507f4552433732313a20617070726f76652063616c6c6572206973206e6f74206f7760008301527f6e6572206e6f7220617070726f76656420666f7220616c6c00000000000000006020830152604082019050919050565b6000612ea6602a836136e5565b91507f4552433732313a2062616c616e636520717565727920666f7220746865207a6560008301527f726f2061646472657373000000000000000000000000000000000000000000006020830152604082019050919050565b6000612f0c6022836136e5565b91507f456e756d657261626c654d61703a20696e646578206f7574206f6620626f756e60008301527f64730000000000000000000000000000000000000000000000000000000000006020830152604082019050919050565b6000612f726020836136e5565b91507f4552433732313a206d696e7420746f20746865207a65726f20616464726573736000830152602082019050919050565b6000612fb2602c836136e5565b91507f4552433732313a20617070726f76656420717565727920666f72206e6f6e657860008301527f697374656e7420746f6b656e00000000000000000000000000000000000000006020830152604082019050919050565b60006130186029836136e5565b91507f4552433732313a207472616e73666572206f6620746f6b656e2074686174206960008301527f73206e6f74206f776e00000000000000000000000000000000000000000000006020830152604082019050919050565b600061307e602f836136e5565b91507f4552433732314d657461646174613a2055524920717565727920666f72206e6f60008301527f6e6578697374656e7420746f6b656e00000000000000000000000000000000006020830152604082019050919050565b60006130e46021836136e5565b91507f4552433732313a20617070726f76616c20746f2063757272656e74206f776e6560008301527f72000000000000000000000000000000000000000000000000000000000000006020830152604082019050919050565b600061314a6031836136e5565b91507f4552433732313a207472616e736665722063616c6c6572206973206e6f74206f60008301527f776e6572206e6f7220617070726f7665640000000000000000000000000000006020830152604082019050919050565b60006131b0601d836136e5565b91507f416464726573733a2063616c6c20746f206e6f6e2d636f6e74726163740000006000830152602082019050919050565b6131ec81613787565b82525050565b60006131fe8284612a5f565b915081905092915050565b60006132158285612b27565b91506132218284612af6565b91508190509392505050565b600060208201905061324260008301846129f9565b92915050565b600060808201905061325d60008301876129ea565b61326a60208301866129f9565b61327760408301856131e3565b81810360608301526132898184612a26565b905095945050505050565b60006020820190506132a96000830184612a08565b92915050565b60006080820190506132c46000830187612a08565b6132d16020830186612a17565b81810360408301526132e38185612abd565b905081810360608301526132f78184612a26565b905095945050505050565b60006040820190506133176000830185612a17565b81810360208301526133298184612abd565b90509392505050565b6000602082019050818103600083015261334c8184612abd565b905092915050565b6000604082019050818103600083015261336e8185612abd565b905061337d60208301846129f9565b9392505050565b6000602082019050818103600083015261339d81612bb5565b9050919050565b600060208201905081810360008301526133bd81612c1b565b9050919050565b600060208201905081810360008301526133dd81612c81565b9050919050565b600060208201905081810360008301526133fd81612cc1565b9050919050565b6000602082019050818103600083015261341d81612d27565b9050919050565b6000602082019050818103600083015261343d81612d67565b9050919050565b6000602082019050818103600083015261345d81612dcd565b9050919050565b6000602082019050818103600083015261347d81612e33565b9050919050565b6000602082019050818103600083015261349d81612e99565b9050919050565b600060208201905081810360008301526134bd81612eff565b9050919050565b600060208201905081810360008301526134dd81612f65565b9050919050565b600060208201905081810360008301526134fd81612fa5565b9050919050565b6000602082019050818103600083015261351d8161300b565b9050919050565b6000602082019050818103600083015261353d81613071565b9050919050565b6000602082019050818103600083015261355d816130d7565b9050919050565b6000602082019050818103600083015261357d8161313d565b9050919050565b6000602082019050818103600083015261359d816131a3565b9050919050565b60006020820190506135b960008301846131e3565b92915050565b60006040820190506135d460008301866131e3565b81810360208301526135e7818486612a90565b9050949350505050565b6000604051905081810181811067ffffffffffffffff8211171561361457600080fd5b8060405250919050565b600067ffffffffffffffff82111561363557600080fd5b602082029050602081019050919050565b600067ffffffffffffffff82111561365d57600080fd5b601f19601f8301169050602081019050919050565b600067ffffffffffffffff82111561368957600080fd5b601f19601f8301169050602081019050919050565b60008190508160005260206000209050919050565b600081519050919050565b600081519050919050565b600082825260208201905092915050565b600081905092915050565b600082825260208201905092915050565b600081905092915050565b600061370c82613767565b9050919050565b600061371e82613767565b9050919050565b60008115159050919050565b6000819050919050565b60007fffffffff0000000000000000000000000000000000000000000000000000000082169050919050565b600073ffffffffffffffffffffffffffffffffffffffff82169050919050565b6000819050919050565b82818337600083830152505050565b60005b838110156137be5780820151818401526020810190506137a3565b838111156137cd576000848401525b50505050565b6000601f19601f8301169050919050565b6137ed81613701565b81146137f857600080fd5b50565b61380481613725565b811461380f57600080fd5b50565b61381b8161373b565b811461382657600080fd5b50565b61383281613787565b811461383d57600080fd5b5056fe4552433732313a207472616e7366657220746f206e6f6e20455243373231526563656976657220696d706c656d656e7465724552433732313a206f776e657220717565727920666f72206e6f6e6578697374656e7420746f6b656ea2646970667358221220b574686ce677b632713b0fe6eaf030f079713f81dbc17a26b314abe558d0941b64736f6c634300060c0033",
  "linkReferences": {},
  "deployedLinkReferences": {}
}