{
  "_format": "hh-sol-artifact-1",
  "contractName": "ConverterV28OrHigherWithFallback",
  "sourceName": "contracts/bancor/helpers/TestBancorNetwork.sol",
  "abi": [
    {
      "inputs": [],
      "name": "isV28OrHigher",
      "outputs": [
        {
          "internalType": "bool",
          "name": "",
          "type": "bool"
        }
      ],
      "stateMutability": "pure",
      "type": "function"
    },
    {
      "stateMutability": "payable",
      "type": "receive"
    }
  ],
  "bytecode": "0x6080604052348015600f57600080fd5b50608e8061001e6000396000f3fe608060405260043610601f5760003560e01c8063d260529c14602d576028565b36602857600080fd5b600080fd5b348015603857600080fd5b50603f6053565b604080519115158252519081900360200190f35b60019056fea26469706673582212208fa8f13606d433d3cd98204df9c736b32c0655a95c32da062d53920e10345b7d64736f6c634300060c0033",
  "linkReferences": {},
  "deployedLinkReferences": {}
}