{
  "_format": "hh-sol-artifact-1",
  "contractName": "NewConverter",
  "sourceName": "contracts/bancor/helpers/TestBancorNetwork.sol",
  "abi": [
    {
      "inputs": [
        {
          "internalType": "uint256",
          "name": "_amount",
          "type": "uint256"
        },
        {
          "internalType": "uint256",
          "name": "_fee",
          "type": "uint256"
        }
      ],
      "stateMutability": "nonpayable",
      "type": "constructor"
    },
    {
      "inputs": [
        {
          "internalType": "contract IERC20Token",
          "name": "_sourceToken",
          "type": "address"
        },
        {
          "internalType": "contract IERC20Token",
          "name": "_targetToken",
          "type": "address"
        },
        {
          "internalType": "uint256",
          "name": "_amount",
          "type": "uint256"
        }
      ],
      "name": "getReturn",
      "outputs": [
        {
          "internalType": "uint256",
          "name": "",
          "type": "uint256"
        },
        {
          "internalType": "uint256",
          "name": "",
          "type": "uint256"
        }
      ],
      "stateMutability": "view",
      "type": "function"
    }
  ],
  "bytecode": "0x608060405234801561001057600080fd5b5060405161011d38038061011d8339818101604052604081101561003357600080fd5b50805160209091015160009190915560015560ca806100536000396000f3fe6080604052348015600f57600080fd5b506004361060285760003560e01c80631e1401f814602d575b600080fd5b606d60048036036060811015604157600080fd5b5073ffffffffffffffffffffffffffffffffffffffff8135811691602081013590911690604001356086565b6040805192835260208301919091528051918290030190f35b60005460015493509391505056fea26469706673582212208355a9b1c7a00769e3b6699c2fed3788166173a7b9d1aca961b6ac24089ead4164736f6c634300060c0033",
  "linkReferences": {},
  "deployedLinkReferences": {}
}