{
  "_format": "hh-sol-artifact-1",
  "contractName": "Registry",
  "sourceName": "contracts/Registry.sol",
  "abi": [
    {
      "inputs": [
        {
          "internalType": "address",
          "name": "_owner",
          "type": "address"
        },
        {
          "internalType": "address",
          "name": "_registrar",
          "type": "address"
        },
        {
          "internalType": "string",
          "name": "_resolver",
          "type": "string"
        },
        {
          "internalType": "string",
          "name": "_image",
          "type": "string"
        }
      ],
      "stateMutability": "nonpayable",
      "type": "constructor"
    },
    {
      "anonymous": false,
      "inputs": [
        {
          "indexed": true,
          "internalType": "address",
          "name": "owner",
          "type": "address"
        },
        {
          "indexed": true,
          "internalType": "address",
          "name": "approved",
          "type": "address"
        },
        {
          "indexed": true,
          "internalType": "uint256",
          "name": "tokenId",
          "type": "uint256"
        }
      ],
      "name": "Approval",
      "type": "event"
    },
    {
      "anonymous": false,
      "inputs": [
        {
          "indexed": true,
          "internalType": "address",
          "name": "owner",
          "type": "address"
        },
        {
          "indexed": true,
          "internalType": "address",
          "name": "operator",
          "type": "address"
        },
        {
          "indexed": false,
          "internalType": "bool",
          "name": "approved",
          "type": "bool"
        }
      ],
      "name": "ApprovalForAll",
      "type": "event"
    },
    {
      "anonymous": false,
      "inputs": [
        {
          "indexed": true,
          "internalType": "uint256",
          "name": "parentId",
          "type": "uint256"
        },
        {
          "indexed": false,
          "internalType": "uint256",
          "name": "tokenId",
          "type": "uint256"
        },
        {
          "indexed": false,
          "internalType": "string",
          "name": "domain",
          "type": "string"
        },
        {
          "indexed": false,
          "internalType": "address",
          "name": "owner",
          "type": "address"
        },
        {
          "indexed": false,
          "internalType": "address",
          "name": "registrar",
          "type": "address"
        },
        {
          "indexed": false,
          "internalType": "string",
          "name": "resolver",
          "type": "string"
        },
        {
          "indexed": false,
          "internalType": "string",
          "name": "image",
          "type": "string"
        }
      ],
      "name": "DomainCreated",
      "type": "event"
    },
    {
      "anonymous": false,
      "inputs": [
        {
          "indexed": true,
          "internalType": "address",
          "name": "owner",
          "type": "address"
        },
        {
          "indexed": true,
          "internalType": "uint256",
          "name": "id",
          "type": "uint256"
        },
        {
          "indexed": false,
          "internalType": "string",
          "name": "image",
          "type": "string"
        }
      ],
      "name": "ImageSet",
      "type": "event"
    },
    {
      "anonymous": false,
      "inputs": [
        {
          "indexed": true,
          "internalType": "address",
          "name": "owner",
          "type": "address"
        },
        {
          "indexed": true,
          "internalType": "uint256",
          "name": "id",
          "type": "uint256"
        },
        {
          "indexed": false,
          "internalType": "string",
          "name": "resolver",
          "type": "string"
        }
      ],
      "name": "ResolverSet",
      "type": "event"
    },
    {
      "anonymous": false,
      "inputs": [
        {
          "indexed": true,
          "internalType": "address",
          "name": "oldRegistrar",
          "type": "address"
        },
        {
          "indexed": true,
          "internalType": "address",
          "name": "newReigstrar",
          "type": "address"
        },
        {
          "indexed": true,
          "internalType": "uint256",
          "name": "id",
          "type": "uint256"
        },
        {
          "indexed": false,
          "internalType": "string",
          "name": "resolver",
          "type": "string"
        }
      ],
      "name": "SetRegistrar",
      "type": "event"
    },
    {
      "anonymous": false,
      "inputs": [
        {
          "indexed": true,
          "internalType": "address",
          "name": "from",
          "type": "address"
        },
        {
          "indexed": true,
          "internalType": "address",
          "name": "to",
          "type": "address"
        },
        {
          "indexed": true,
          "internalType": "uint256",
          "name": "tokenId",
          "type": "uint256"
        }
      ],
      "name": "Transfer",
      "type": "event"
    },
    {
      "inputs": [],
      "name": "ROOT_ID",
      "outputs": [
        {
          "internalType": "uint256",
          "name": "",
          "type": "uint256"
        }
      ],
      "stateMutability": "view",
      "type": "function"
    },
    {
      "inputs": [
        {
          "internalType": "address",
          "name": "to",
          "type": "address"
        },
        {
          "internalType": "uint256",
          "name": "tokenId",
          "type": "uint256"
        }
      ],
      "name": "approve",
      "outputs": [],
      "stateMutability": "nonpayable",
      "type": "function"
    },
    {
      "inputs": [
        {
          "internalType": "address",
          "name": "owner",
          "type": "address"
        }
      ],
      "name": "balanceOf",
      "outputs": [
        {
          "internalType": "uint256",
          "name": "",
          "type": "uint256"
        }
      ],
      "stateMutability": "view",
      "type": "function"
    },
    {
      "inputs": [],
      "name": "baseURI",
      "outputs": [
        {
          "internalType": "string",
          "name": "",
          "type": "string"
        }
      ],
      "stateMutability": "view",
      "type": "function"
    },
    {
      "inputs": [
        {
          "internalType": "address",
          "name": "creator",
          "type": "address"
        },
        {
          "internalType": "uint256",
          "name": "id",
          "type": "uint256"
        }
      ],
      "name": "canCreate",
      "outputs": [
        {
          "internalType": "bool",
          "name": "",
          "type": "bool"
        }
      ],
      "stateMutability": "nonpayable",
      "type": "function"
    },
    {
      "inputs": [
        {
          "internalType": "uint256",
          "name": "id",
          "type": "uint256"
        }
      ],
      "name": "controllerOf",
      "outputs": [
        {
          "internalType": "address",
          "name": "",
          "type": "address"
        }
      ],
      "stateMutability": "view",
      "type": "function"
    },
    {
      "inputs": [
        {
          "internalType": "string",
          "name": "domain",
          "type": "string"
        },
        {
          "internalType": "address",
          "name": "_owner",
          "type": "address"
        },
        {
          "internalType": "address",
          "name": "_registrar",
          "type": "address"
        },
        {
          "internalType": "string",
          "name": "resolver",
          "type": "string"
        },
        {
          "internalType": "string",
          "name": "image",
          "type": "string"
        }
      ],
      "name": "createDomain",
      "outputs": [],
      "stateMutability": "nonpayable",
      "type": "function"
    },
    {
      "inputs": [
        {
          "internalType": "uint256",
          "name": "id",
          "type": "uint256"
        }
      ],
      "name": "entries",
      "outputs": [
        {
          "components": [
            {
              "internalType": "address",
              "name": "owner",
              "type": "address"
            },
            {
              "internalType": "uint256",
              "name": "parent",
              "type": "uint256"
            },
            {
              "internalType": "uint256",
              "name": "depth",
              "type": "uint256"
            },
            {
              "internalType": "address",
              "name": "controller",
              "type": "address"
            },
            {
              "internalType": "address",
              "name": "registrar",
              "type": "address"
            },
            {
              "internalType": "string",
              "name": "resolver",
              "type": "string"
            },
            {
              "internalType": "string",
              "name": "image",
              "type": "string"
            },
            {
              "internalType": "string",
              "name": "domain",
              "type": "string"
            },
            {
              "internalType": "uint256[]",
              "name": "children",
              "type": "uint256[]"
            }
          ],
          "internalType": "struct Registry.EntryView",
          "name": "out",
          "type": "tuple"
        }
      ],
      "stateMutability": "view",
      "type": "function"
    },
    {
      "inputs": [
        {
          "internalType": "uint256",
          "name": "tokenId",
          "type": "uint256"
        }
      ],
      "name": "getApproved",
      "outputs": [
        {
          "internalType": "address",
          "name": "",
          "type": "address"
        }
      ],
      "stateMutability": "view",
      "type": "function"
    },
    {
      "inputs": [
        {
          "internalType": "uint256",
          "name": "id",
          "type": "uint256"
        }
      ],
      "name": "getChildLength",
      "outputs": [
        {
          "internalType": "uint256",
          "name": "",
          "type": "uint256"
        }
      ],
      "stateMutability": "view",
      "type": "function"
    },
    {
      "inputs": [
        {
          "internalType": "uint256",
          "name": "id",
          "type": "uint256"
        }
      ],
      "name": "getDepth",
      "outputs": [
        {
          "internalType": "uint256",
          "name": "",
          "type": "uint256"
        }
      ],
      "stateMutability": "view",
      "type": "function"
    },
    {
      "inputs": [
        {
          "internalType": "string[]",
          "name": "path",
          "type": "string[]"
        }
      ],
      "name": "getId",
      "outputs": [
        {
          "internalType": "uint256",
          "name": "",
          "type": "uint256"
        }
      ],
      "stateMutability": "pure",
      "type": "function"
    },
    {
      "inputs": [
        {
          "internalType": "string[]",
          "name": "path",
          "type": "string[]"
        }
      ],
      "name": "getOwner",
      "outputs": [
        {
          "internalType": "address",
          "name": "",
          "type": "address"
        }
      ],
      "stateMutability": "view",
      "type": "function"
    },
    {
      "inputs": [
        {
          "internalType": "uint256",
          "name": "id",
          "type": "uint256"
        }
      ],
      "name": "getRegistrar",
      "outputs": [
        {
          "internalType": "address",
          "name": "",
          "type": "address"
        }
      ],
      "stateMutability": "view",
      "type": "function"
    },
    {
      "inputs": [
        {
          "internalType": "address",
          "name": "owner",
          "type": "address"
        },
        {
          "internalType": "address",
          "name": "operator",
          "type": "address"
        }
      ],
      "name": "isApprovedForAll",
      "outputs": [
        {
          "internalType": "bool",
          "name": "",
          "type": "bool"
        }
      ],
      "stateMutability": "view",
      "type": "function"
    },
    {
      "inputs": [],
      "name": "name",
      "outputs": [
        {
          "internalType": "string",
          "name": "",
          "type": "string"
        }
      ],
      "stateMutability": "view",
      "type": "function"
    },
    {
      "inputs": [
        {
          "internalType": "uint256",
          "name": "tokenId",
          "type": "uint256"
        }
      ],
      "name": "ownerOf",
      "outputs": [
        {
          "internalType": "address",
          "name": "",
          "type": "address"
        }
      ],
      "stateMutability": "view",
      "type": "function"
    },
    {
      "inputs": [
        {
          "internalType": "uint256",
          "name": "id",
          "type": "uint256"
        }
      ],
      "name": "registrarOf",
      "outputs": [
        {
          "internalType": "address",
          "name": "",
          "type": "address"
        }
      ],
      "stateMutability": "view",
      "type": "function"
    },
    {
      "inputs": [
        {
          "internalType": "address",
          "name": "from",
          "type": "address"
        },
        {
          "internalType": "address",
          "name": "to",
          "type": "address"
        },
        {
          "internalType": "uint256",
          "name": "tokenId",
          "type": "uint256"
        }
      ],
      "name": "safeTransferFrom",
      "outputs": [],
      "stateMutability": "nonpayable",
      "type": "function"
    },
    {
      "inputs": [
        {
          "internalType": "address",
          "name": "from",
          "type": "address"
        },
        {
          "internalType": "address",
          "name": "to",
          "type": "address"
        },
        {
          "internalType": "uint256",
          "name": "tokenId",
          "type": "uint256"
        },
        {
          "internalType": "bytes",
          "name": "_data",
          "type": "bytes"
        }
      ],
      "name": "safeTransferFrom",
      "outputs": [],
      "stateMutability": "nonpayable",
      "type": "function"
    },
    {
      "inputs": [
        {
          "internalType": "address",
          "name": "operator",
          "type": "address"
        },
        {
          "internalType": "bool",
          "name": "approved",
          "type": "bool"
        }
      ],
      "name": "setApprovalForAll",
      "outputs": [],
      "stateMutability": "nonpayable",
      "type": "function"
    },
    {
      "inputs": [
        {
          "internalType": "uint256",
          "name": "id",
          "type": "uint256"
        },
        {
          "internalType": "string",
          "name": "image",
          "type": "string"
        }
      ],
      "name": "setImage",
      "outputs": [],
      "stateMutability": "nonpayable",
      "type": "function"
    },
    {
      "inputs": [
        {
          "internalType": "uint256",
          "name": "id",
          "type": "uint256"
        },
        {
          "internalType": "string",
          "name": "resolver",
          "type": "string"
        }
      ],
      "name": "setResolver",
      "outputs": [],
      "stateMutability": "nonpayable",
      "type": "function"
    },
    {
      "inputs": [
        {
          "internalType": "bytes4",
          "name": "interfaceId",
          "type": "bytes4"
        }
      ],
      "name": "supportsInterface",
      "outputs": [
        {
          "internalType": "bool",
          "name": "",
          "type": "bool"
        }
      ],
      "stateMutability": "view",
      "type": "function"
    },
    {
      "inputs": [],
      "name": "symbol",
      "outputs": [
        {
          "internalType": "string",
          "name": "",
          "type": "string"
        }
      ],
      "stateMutability": "view",
      "type": "function"
    },
    {
      "inputs": [
        {
          "internalType": "uint256",
          "name": "index",
          "type": "uint256"
        }
      ],
      "name": "tokenByIndex",
      "outputs": [
        {
          "internalType": "uint256",
          "name": "",
          "type": "uint256"
        }
      ],
      "stateMutability": "view",
      "type": "function"
    },
    {
      "inputs": [
        {
          "internalType": "address",
          "name": "owner",
          "type": "address"
        },
        {
          "internalType": "uint256",
          "name": "index",
          "type": "uint256"
        }
      ],
      "name": "tokenOfOwnerByIndex",
      "outputs": [
        {
          "internalType": "uint256",
          "name": "",
          "type": "uint256"
        }
      ],
      "stateMutability": "view",
      "type": "function"
    },
    {
      "inputs": [
        {
          "internalType": "uint256",
          "name": "token",
          "type": "uint256"
        }
      ],
      "name": "tokenURI",
      "outputs": [
        {
          "internalType": "string",
          "name": "out",
          "type": "string"
        }
      ],
      "stateMutability": "view",
      "type": "function"
    },
    {
      "inputs": [],
      "name": "totalSupply",
      "outputs": [
        {
          "internalType": "uint256",
          "name": "",
          "type": "uint256"
        }
      ],
      "stateMutability": "view",
      "type": "function"
    },
    {
      "inputs": [
        {
          "internalType": "address",
          "name": "from",
          "type": "address"
        },
        {
          "internalType": "address",
          "name": "to",
          "type": "address"
        },
        {
          "internalType": "uint256",
          "name": "tokenId",
          "type": "uint256"
        }
      ],
      "name": "transferFrom",
      "outputs": [],
      "stateMutability": "nonpayable",
      "type": "function"
    },
    {
      "inputs": [
        {
          "internalType": "string",
          "name": "_s",
          "type": "string"
        }
      ],
      "name": "validateDomain",
      "outputs": [
        {
          "internalType": "bool",
          "name": "valid",
          "type": "bool"
        },
        {
          "internalType": "uint256",
          "name": "parent",
          "type": "uint256"
        },
        {
          "internalType": "uint256",
          "name": "id",
          "type": "uint256"
        },
        {
          "internalType": "string",
          "name": "domain",
          "type": "string"
        }
      ],
      "stateMutability": "pure",
      "type": "function"
    }
  ],
  "bytecode": "0x60806040523480156200001157600080fd5b50604051620055f4380380620055f4833981810160405281019062000037919062000ddb565b620000b36040518060400160405280601181526020017f5a657230204e616d6520536572766963650000000000000000000000000000008152506040518060400160405280600381526020017f5a4e5300000000000000000000000000000000000000000000000000000000008152506200022660201b60201c565b620000f1846000604051602001620000cc919062000f1e565b6040516020818303038152906040528051906020012060001c6200036660201b60201c565b600060976000806040516020016200010a919062000f1e565b6040516020818303038152906040528051906020012060001c81526020019081526020016000209050838160030160006101000a81548173ffffffffffffffffffffffffffffffffffffffff021916908373ffffffffffffffffffffffffffffffffffffffff160217905550828160040190805190602001906200019092919062000c9c565b5081816006019080519060200190620001ab92919062000c9c565b5060007f4be7df4d4dd45fd5c8095cf2b3d4b5c14d2fcdae37c306d45750ed229e59827f6000604051602001620001e3919062000f1e565b6040516020818303038152906040528051906020012060001c878787876040516200021395949392919062000f50565b60405180910390a25050505050620010f4565b600060019054906101000a900460ff16806200024e57506200024d6200057a60201b60201c565b5b8062000265575060008054906101000a900460ff16155b620002bc576040517f08c379a000000000000000000000000000000000000000000000000000000000815260040180806020018281038252602e815260200180620055c6602e913960400191505060405180910390fd5b60008060019054906101000a900460ff1615905080156200030d576001600060016101000a81548160ff02191690831515021790555060016000806101000a81548160ff0219169083151502179055505b6200031d6200059160201b60201c565b6200032d6200069d60201b60201c565b6200033f8383620007c160201b60201c565b8015620003615760008060016101000a81548160ff0219169083151502179055505b505050565b600073ffffffffffffffffffffffffffffffffffffffff168273ffffffffffffffffffffffffffffffffffffffff1614156200040a576040517f08c379a00000000000000000000000000000000000000000000000000000000081526004018080602001828103825260208152602001807f4552433732313a206d696e7420746f20746865207a65726f206164647265737381525060200191505060405180910390fd5b6200041b816200094960201b60201c565b156200048f576040517f08c379a000000000000000000000000000000000000000000000000000000000815260040180806020018281038252601c8152602001807f4552433732313a20746f6b656e20616c7265616479206d696e7465640000000081525060200191505060405180910390fd5b620004a3600083836200096d60201b60201c565b620004fb81606560008573ffffffffffffffffffffffffffffffffffffffff1673ffffffffffffffffffffffffffffffffffffffff1681526020019081526020016000206200097260201b6200172d1790919060201c565b5062000519818360666200099460201b62001747179092919060201c565b50808273ffffffffffffffffffffffffffffffffffffffff16600073ffffffffffffffffffffffffffffffffffffffff167fddf252ad1be2c89b69c2b068fc378daa952ba7f163c4a11628f55a4df523b3ef60405160405180910390a45050565b6000803090506000813b9050600081149250505090565b600060019054906101000a900460ff1680620005b95750620005b86200057a60201b60201c565b5b80620005d0575060008054906101000a900460ff16155b62000627576040517f08c379a000000000000000000000000000000000000000000000000000000000815260040180806020018281038252602e815260200180620055c6602e913960400191505060405180910390fd5b60008060019054906101000a900460ff16159050801562000678576001600060016101000a81548160ff02191690831515021790555060016000806101000a81548160ff0219169083151502179055505b80156200069a5760008060016101000a81548160ff0219169083151502179055505b50565b600060019054906101000a900460ff1680620006c55750620006c46200057a60201b60201c565b5b80620006dc575060008054906101000a900460ff16155b62000733576040517f08c379a000000000000000000000000000000000000000000000000000000000815260040180806020018281038252602e815260200180620055c6602e913960400191505060405180910390fd5b60008060019054906101000a900460ff16159050801562000784576001600060016101000a81548160ff02191690831515021790555060016000806101000a81548160ff0219169083151502179055505b6200079c6301ffc9a760e01b620009d160201b60201c565b8015620007be5760008060016101000a81548160ff0219169083151502179055505b50565b600060019054906101000a900460ff1680620007e95750620007e86200057a60201b60201c565b5b8062000800575060008054906101000a900460ff16155b62000857576040517f08c379a000000000000000000000000000000000000000000000000000000000815260040180806020018281038252602e815260200180620055c6602e913960400191505060405180910390fd5b60008060019054906101000a900460ff161590508015620008a8576001600060016101000a81548160ff02191690831515021790555060016000806101000a81548160ff0219169083151502179055505b82606a9080519060200190620008c092919062000c9c565b5081606b9080519060200190620008d992919062000c9c565b50620008f26380ac58cd60e01b620009d160201b60201c565b6200090a635b5e139f60e01b620009d160201b60201c565b6200092263780e9d6360e01b620009d160201b60201c565b8015620009445760008060016101000a81548160ff0219169083151502179055505b505050565b60006200096682606662000adb60201b6200177c1790919060201c565b9050919050565b505050565b60006200098c836000018360001b62000afd60201b60201c565b905092915050565b6000620009c8846000018460001b8473ffffffffffffffffffffffffffffffffffffffff1660001b62000b7760201b60201c565b90509392505050565b63ffffffff60e01b817bffffffffffffffffffffffffffffffffffffffffffffffffffffffff1916141562000a6e576040517f08c379a000000000000000000000000000000000000000000000000000000000815260040180806020018281038252601c8152602001807f4552433136353a20696e76616c696420696e746572666163652069640000000081525060200191505060405180910390fd5b600160336000837bffffffffffffffffffffffffffffffffffffffffffffffffffffffff19167bffffffffffffffffffffffffffffffffffffffffffffffffffffffff1916815260200190815260200160002060006101000a81548160ff02191690831515021790555050565b600062000af5836000018360001b62000c5660201b60201c565b905092915050565b600062000b11838362000c7960201b60201c565b62000b6c57826000018290806001815401808255809150506001900390600052602060002001600090919091909150558260000180549050836001016000848152602001908152602001600020819055506001905062000b71565b600090505b92915050565b600080846001016000858152602001908152602001600020549050600081141562000c205784600001604051806040016040528086815260200185815250908060018154018082558091505060019003906000526020600020906002020160009091909190915060008201518160000155602082015181600101555050846000018054905085600101600086815260200190815260200160002081905550600191505062000c4f565b8285600001600183038154811062000c3457fe5b90600052602060002090600202016001018190555060009150505b9392505050565b600080836001016000848152602001908152602001600020541415905092915050565b600080836001016000848152602001908152602001600020541415905092915050565b828054600181600116156101000203166002900490600052602060002090601f01602090048101928262000cd4576000855562000d20565b82601f1062000cef57805160ff191683800117855562000d20565b8280016001018555821562000d20579182015b8281111562000d1f57825182559160200191906001019062000d02565b5b50905062000d2f919062000d33565b5090565b5b8082111562000d4e57600081600090555060010162000d34565b5090565b600062000d6962000d638462001004565b62000fd0565b90508281526020810184848401111562000d8257600080fd5b62000d8f84828562001091565b509392505050565b60008151905062000da881620010da565b92915050565b600082601f83011262000dc057600080fd5b815162000dd284826020860162000d52565b91505092915050565b6000806000806080858703121562000df257600080fd5b600062000e028782880162000d97565b945050602062000e158782880162000d97565b935050604085015167ffffffffffffffff81111562000e3357600080fd5b62000e418782880162000dae565b925050606085015167ffffffffffffffff81111562000e5f57600080fd5b62000e6d8782880162000dae565b91505092959194509250565b62000e848162001053565b82525050565b600062000e978262001037565b62000ea3818562001042565b935062000eb581856020860162001091565b62000ec081620010c9565b840191505092915050565b600062000eda60048362001042565b91507f524f4f54000000000000000000000000000000000000000000000000000000006000830152602082019050919050565b62000f188162001087565b82525050565b600060408201905062000f35600083018462000f0d565b818103602083015262000f488162000ecb565b905092915050565b600060c08201905062000f67600083018862000f0d565b818103602083015262000f7a8162000ecb565b905062000f8b604083018762000e79565b62000f9a606083018662000e79565b818103608083015262000fae818562000e8a565b905081810360a083015262000fc4818462000e8a565b90509695505050505050565b6000604051905081810181811067ffffffffffffffff8211171562000ffa5762000ff9620010c7565b5b8060405250919050565b600067ffffffffffffffff821115620010225762001021620010c7565b5b601f19601f8301169050602081019050919050565b600081519050919050565b600082825260208201905092915050565b6000620010608262001067565b9050919050565b600073ffffffffffffffffffffffffffffffffffffffff82169050919050565b6000819050919050565b60005b83811015620010b157808201518184015260208101905062001094565b83811115620010c1576000848401525b50505050565bfe5b6000601f19601f8301169050919050565b620010e58162001053565b8114620010f157600080fd5b50565b6144c280620011046000396000f3fe608060405234801561001057600080fd5b50600436106101e55760003560e01c806375e618c91161010f578063c980c626116100a2578063e985e9c511610071578063e985e9c514610612578063eb69761114610642578063eedf792814610672578063fb78fef114610690576101e5565b8063c980c62614610566578063d360eefe14610582578063d4f59134146105b2578063e65305f7146105e2576101e5565b8063b30906d4116100de578063b30906d4146104ce578063b88d4fde146104fe578063c7acd4e71461051a578063c87b56dd14610536576101e5565b806375e618c91461043457806395d89b4114610464578063a22cb46514610482578063a4a183b01461049e576101e5565b80632f745c59116101875780635dd8f6aa116101565780635dd8f6aa146103865780636352211e146103b65780636c0360eb146103e657806370a0823114610404576101e5565b80632f745c59146102da57806342842e0e1461030a5780634f6ccce714610326578063593b844f14610356576101e5565b8063081812fc116101c3578063081812fc14610254578063095ea7b31461028457806318160ddd146102a057806323b872dd146102be576101e5565b806301ffc9a7146101ea57806306fdde031461021a57806307c6b84114610238575b600080fd5b61020460048036038101906101ff9190613708565b6106c3565b6040516102119190613de2565b60405180910390f35b61022261072b565b60405161022f9190613e6d565b60405180910390f35b610252600480360381019061024d9190613867565b6107cd565b005b61026e6004803603810190610269919061383e565b610891565b60405161027b9190613dc7565b60405180910390f35b61029e6004803603810190610299919061368b565b61092c565b005b6102a8610a70565b6040516102b59190613f11565b60405180910390f35b6102d860048036038101906102d39190613585565b610a81565b005b6102f460048036038101906102ef919061368b565b610af7565b6040516103019190613f11565b60405180910390f35b610324600480360381019061031f9190613585565b610b52565b005b610340600480360381019061033b919061383e565b610b72565b60405161034d9190613f11565b60405180910390f35b610370600480360381019061036b919061383e565b610b95565b60405161037d9190613f11565b60405180910390f35b6103a0600480360381019061039b919061383e565b610bbc565b6040516103ad9190613dc7565b60405180910390f35b6103d060048036038101906103cb919061383e565b610bfc565b6040516103dd9190613dc7565b60405180910390f35b6103ee610c33565b6040516103fb9190613e6d565b60405180910390f35b61041e60048036038101906104199190613520565b610cd5565b60405161042b9190613f11565b60405180910390f35b61044e6004803603810190610449919061383e565b610daa565b60405161045b9190613f11565b60405180910390f35b61046c610dca565b6040516104799190613e6d565b60405180910390f35b61049c6004803603810190610497919061364f565b610e6c565b005b6104b860048036038101906104b391906136c7565b611022565b6040516104c59190613dc7565b60405180910390f35b6104e860048036038101906104e3919061383e565b61103c565b6040516104f59190613eef565b60405180910390f35b610518600480360381019061051391906135d4565b61125d565b005b610534600480360381019061052f9190613731565b6112d5565b005b610550600480360381019061054b919061383e565b6112ef565b60405161055d9190613e6d565b60405180910390f35b610580600480360381019061057b9190613867565b611354565b005b61059c6004803603810190610597919061383e565b611418565b6040516105a99190613dc7565b60405180910390f35b6105cc60048036038101906105c791906136c7565b611458565b6040516105d99190613f11565b60405180910390f35b6105fc60048036038101906105f7919061383e565b6114ec565b6040516106099190613dc7565b60405180910390f35b61062c60048036038101906106279190613549565b61152c565b6040516106399190613de2565b60405180910390f35b61065c6004803603810190610657919061368b565b6115c0565b6040516106699190613de2565b60405180910390f35b61067a611683565b6040516106879190613f11565b60405180910390f35b6106aa60048036038101906106a591906137fd565b6116b1565b6040516106ba9493929190613dfd565b60405180910390f35b600060336000837bffffffffffffffffffffffffffffffffffffffffffffffffffffffff19167bffffffffffffffffffffffffffffffffffffffffffffffffffffffff1916815260200190815260200160002060009054906101000a900460ff169050919050565b6060606a8054600181600116156101000203166002900480601f0160208091040260200160405190810160405280929190818152602001828054600181600116156101000203166002900480156107c35780601f10610798576101008083540402835291602001916107c3565b820191906000526020600020905b8154815290600101906020018083116107a657829003601f168201915b5050505050905090565b3373ffffffffffffffffffffffffffffffffffffffff166107ed84610bfc565b73ffffffffffffffffffffffffffffffffffffffff161461080d57600080fd5b81816097600086815260200190815260200160002060040191906108329291906131f2565b508261083d84610bfc565b73ffffffffffffffffffffffffffffffffffffffff167f446f502bb4d7664110df81da26583f4c2a757d1890d992c2df364826e4f404678484604051610884929190613e49565b60405180910390a3505050565b600061089c82611796565b6108f1576040517f08c379a000000000000000000000000000000000000000000000000000000000815260040180806020018281038252602c8152602001806143e6602c913960400191505060405180910390fd5b6068600083815260200190815260200160002060009054906101000a900473ffffffffffffffffffffffffffffffffffffffff169050919050565b600061093782610bfc565b90508073ffffffffffffffffffffffffffffffffffffffff168373ffffffffffffffffffffffffffffffffffffffff1614156109be576040517f08c379a000000000000000000000000000000000000000000000000000000000815260040180806020018281038252602181526020018061443b6021913960400191505060405180910390fd5b8073ffffffffffffffffffffffffffffffffffffffff166109dd6117b3565b73ffffffffffffffffffffffffffffffffffffffff161480610a0c5750610a0b81610a066117b3565b61152c565b5b610a61576040517f08c379a00000000000000000000000000000000000000000000000000000000081526004018080602001828103825260388152602001806143396038913960400191505060405180910390fd5b610a6b83836117bb565b505050565b6000610a7c6066611874565b905090565b610a92610a8c6117b3565b82611889565b610ae7576040517f08c379a000000000000000000000000000000000000000000000000000000000815260040180806020018281038252603181526020018061445c6031913960400191505060405180910390fd5b610af283838361197d565b505050565b6000610b4a82606560008673ffffffffffffffffffffffffffffffffffffffff1673ffffffffffffffffffffffffffffffffffffffff16815260200190815260200160002061198d90919063ffffffff16565b905092915050565b610b6d8383836040518060200160405280600081525061125d565b505050565b600080610b898360666119a790919063ffffffff16565b50905080915050919050565b6000610bb5609760008481526020019081526020016000206007016119d3565b9050919050565b60006097600083815260200190815260200160002060020160009054906101000a900473ffffffffffffffffffffffffffffffffffffffff169050919050565b6000610c2c8260405180606001604052806029815260200161439b6029913960666119e89092919063ffffffff16565b9050919050565b6060606d8054600181600116156101000203166002900480601f016020809104026020016040519081016040528092919081815260200182805460018160011615610100020316600290048015610ccb5780601f10610ca057610100808354040283529160200191610ccb565b820191906000526020600020905b815481529060010190602001808311610cae57829003601f168201915b5050505050905090565b60008073ffffffffffffffffffffffffffffffffffffffff168273ffffffffffffffffffffffffffffffffffffffff161415610d5c576040517f08c379a000000000000000000000000000000000000000000000000000000000815260040180806020018281038252602a815260200180614371602a913960400191505060405180910390fd5b610da3606560008473ffffffffffffffffffffffffffffffffffffffff1673ffffffffffffffffffffffffffffffffffffffff1681526020019081526020016000206119d3565b9050919050565b600060976000838152602001908152602001600020600101549050919050565b6060606b8054600181600116156101000203166002900480601f016020809104026020016040519081016040528092919081815260200182805460018160011615610100020316600290048015610e625780601f10610e3757610100808354040283529160200191610e62565b820191906000526020600020905b815481529060010190602001808311610e4557829003601f168201915b5050505050905090565b610e746117b3565b73ffffffffffffffffffffffffffffffffffffffff168273ffffffffffffffffffffffffffffffffffffffff161415610f15576040517f08c379a00000000000000000000000000000000000000000000000000000000081526004018080602001828103825260198152602001807f4552433732313a20617070726f766520746f2063616c6c65720000000000000081525060200191505060405180910390fd5b8060696000610f226117b3565b73ffffffffffffffffffffffffffffffffffffffff1673ffffffffffffffffffffffffffffffffffffffff16815260200190815260200160002060008473ffffffffffffffffffffffffffffffffffffffff1673ffffffffffffffffffffffffffffffffffffffff16815260200190815260200160002060006101000a81548160ff0219169083151502179055508173ffffffffffffffffffffffffffffffffffffffff16610fcf6117b3565b73ffffffffffffffffffffffffffffffffffffffff167f17307eab39ab6107e8899845ad3d59bd9653f200f220920489ca2b5937696c318360405180821515815260200191505060405180910390a35050565b600061103561103083611458565b610bfc565b9050919050565b611044613280565b600060976000848152602001908152602001600020905061106483610bfc565b826000019073ffffffffffffffffffffffffffffffffffffffff16908173ffffffffffffffffffffffffffffffffffffffff168152505080600001548260200181815250508060030160009054906101000a900473ffffffffffffffffffffffffffffffffffffffff16826080019073ffffffffffffffffffffffffffffffffffffffff16908173ffffffffffffffffffffffffffffffffffffffff1681525050806005018054600181600116156101000203166002900480601f01602080910402602001604051908101604052809291908181526020018280546001816001161561010002031660029004801561119d5780601f106111725761010080835404028352916020019161119d565b820191906000526020600020905b81548152906001019060200180831161118057829003601f168201915b50505050508260e001819052506111b6816007016119d3565b67ffffffffffffffff811180156111cc57600080fd5b506040519080825280602002602001820160405280156111fb5781602001602082028036833780820191505090505b5082610100018190525060005b826101000151518110156112565761122c818360070161198d90919063ffffffff16565b836101000151828151811061123d57fe5b6020026020010181815250508080600101915050611208565b5050919050565b61126e6112686117b3565b83611889565b6112c3576040517f08c379a000000000000000000000000000000000000000000000000000000000815260040180806020018281038252603181526020018061445c6031913960400191505060405180910390fd5b6112cf84848484611a07565b50505050565b6112e58888888888888888611a79565b5050505050505050565b606061132e6097600084815260200190815260200160002060050160405160200161131a9190613d78565b604051602081830303815290604052611d44565b60405160200161133e9190613da5565b6040516020818303038152906040529050919050565b3373ffffffffffffffffffffffffffffffffffffffff1661137484610bfc565b73ffffffffffffffffffffffffffffffffffffffff161461139457600080fd5b81816097600086815260200190815260200160002060060191906113b99291906131f2565b50826113c484610bfc565b73ffffffffffffffffffffffffffffffffffffffff167f7228383a10f0dfa73f0129ad947aa4f6689f533279ea1fa0e9fa10fbdb52120e848460405161140b929190613e49565b60405180910390a3505050565b60006097600083815260200190815260200160002060030160009054906101000a900473ffffffffffffffffffffffffffffffffffffffff169050919050565b600080600060405160200161146d9190613fd8565b6040516020818303038152906040528051906020012060001c905060005b83518110156114e257818482815181106114a157fe5b60200260200101516040516020016114ba929190613fa8565b6040516020818303038152906040528051906020012060001c9150808060010191505061148b565b5080915050919050565b60006097600083815260200190815260200160002060030160009054906101000a900473ffffffffffffffffffffffffffffffffffffffff169050919050565b6000606960008473ffffffffffffffffffffffffffffffffffffffff1673ffffffffffffffffffffffffffffffffffffffff16815260200190815260200160002060008373ffffffffffffffffffffffffffffffffffffffff1673ffffffffffffffffffffffffffffffffffffffff16815260200190815260200160002060009054906101000a900460ff16905092915050565b6000806115cc83611418565b905060006115d984610bbc565b90508173ffffffffffffffffffffffffffffffffffffffff168573ffffffffffffffffffffffffffffffffffffffff16148061164057508073ffffffffffffffffffffffffffffffffffffffff168573ffffffffffffffffffffffffffffffffffffffff16145b80611679575060008173ffffffffffffffffffffffffffffffffffffffff168373ffffffffffffffffffffffffffffffffffffffff1617145b9250505092915050565b60006040516020016116959190613fd8565b6040516020818303038152906040528051906020012060001c81565b600080600060606116ec60006040516020016116cd9190613fd8565b6040516020818303038152906040528051906020012060001c86611ef9565b809350819550829650505050828160405160200161170b929190613fa8565b6040516020818303038152906040528051906020012060001c91509193509193565b600061173f836000018360001b6121e9565b905092915050565b6000611773846000018460001b8473ffffffffffffffffffffffffffffffffffffffff1660001b612259565b90509392505050565b600061178e836000018360001b612335565b905092915050565b60006117ac82606661177c90919063ffffffff16565b9050919050565b600033905090565b816068600083815260200190815260200160002060006101000a81548173ffffffffffffffffffffffffffffffffffffffff021916908373ffffffffffffffffffffffffffffffffffffffff160217905550808273ffffffffffffffffffffffffffffffffffffffff1661182e83610bfc565b73ffffffffffffffffffffffffffffffffffffffff167f8c5be1e5ebec7d5bd14f71427d1e84f3dd0314c0f7b2291e5b200ac8c7c3b92560405160405180910390a45050565b600061188282600001612358565b9050919050565b600061189482611796565b6118e9576040517f08c379a000000000000000000000000000000000000000000000000000000000815260040180806020018281038252602c81526020018061430d602c913960400191505060405180910390fd5b60006118f483610bfc565b90508073ffffffffffffffffffffffffffffffffffffffff168473ffffffffffffffffffffffffffffffffffffffff16148061196357508373ffffffffffffffffffffffffffffffffffffffff1661194b84610891565b73ffffffffffffffffffffffffffffffffffffffff16145b806119745750611973818561152c565b5b91505092915050565b611988838383612369565b505050565b600061199c83600001836125ac565b60001c905092915050565b6000806000806119ba866000018661262f565b915091508160001c8160001c9350935050509250929050565b60006119e1826000016126c8565b9050919050565b60006119fb846000018460001b846126d9565b60001c90509392505050565b611a1284848461197d565b611a1e848484846127cf565b611a73576040517f08c379a00000000000000000000000000000000000000000000000000000000081526004018080602001828103825260328152602001806142916032913960400191505060405180910390fd5b50505050565b6000806000611af66000604051602001611a939190613fd8565b6040516020818303038152906040528051906020012060001c8c8c8080601f016020809104026020016040519081016040528093929190818152602001838380828437600081840152601f19601f82011690508083019250505050505050611ef9565b92509250925082611b3c576040517f08c379a0000000000000000000000000000000000000000000000000000000008152600401611b3390613eaf565b60405180910390fd5b60008282604051602001611b51929190613fa8565b6040516020818303038152906040528051906020012060001c9050611b7633846115c0565b611bb5576040517f08c379a0000000000000000000000000000000000000000000000000000000008152600401611bac90613e8f565b60405180910390fd5b611bdd816097600086815260200190815260200160002060070161172d90919063ffffffff16565b611c1c576040517f08c379a0000000000000000000000000000000000000000000000000000000008152600401611c1390613ecf565b60405180910390fd5b611c268a826129e8565b60006097600085815260200190815260200160002090506000609760008481526020019081526020016000209050600182600101540181600101819055508481600001819055508989826004019190611c809291906131f2565b508d8d826005019190611c949291906131f2565b508a8160030160006101000a81548173ffffffffffffffffffffffffffffffffffffffff021916908373ffffffffffffffffffffffffffffffffffffffff1602179055508787826006019190611ceb9291906131f2565b505050827f4be7df4d4dd45fd5c8095cf2b3d4b5c14d2fcdae37c306d45750ed229e59827f828e8e8e8e8e8e8e8e604051611d2e99989796959493929190613f2c565b60405180910390a2505050505050505050505050565b60606000829050611ef16040518060400160405280600481526020017f01551220000000000000000000000000000000000000000000000000000000008152506002836040518082805190602001908083835b60208310611dba5780518252602082019150602081019050602083039250611d97565b6001836020036101000a038019825116818451168082178552505050505050905001915050602060405180830381855afa158015611dfc573d6000803e3d6000fd5b5050506040513d6020811015611e1157600080fd5b81019080805190602001909291905050506040516020018083805190602001908083835b60208310611e585780518252602082019150602081019050602083039250611e35565b6001836020036101000a0380198251168184511680821785525050505050509050018281526020019250505060405160208183030381529060405260056040518060400160405280602081526020017f6162636465666768696a6b6c6d6e6f707172737475767778797a3233343536378152507f6200000000000000000000000000000000000000000000000000000000000000612bdc565b915050919050565b60008060606000808660001b90506000602087019050600081905060008851905060606000808386019050600080865191505b82871161216457605c60f81b7effffffffffffffffffffffffffffffffffffffffffffffffffffffffffffff1916827effffffffffffffffffffffffffffffffffffffffffffffffffffffffffffff19161415611fd1576000806040518060400160405280600981526020017f71756f74656361736500000000000000000000000000000000000000000000008152509c509c509c50505050505050505050506121e2565b602e8260f81c60ff1614156120e45760018888030390508067ffffffffffffffff81118015611fff57600080fd5b506040519080825280601f01601f1916602001820160405280156120325781602001600182028036833780820191505090505b509450602085019350612046848983612de0565b88856040516020018083815260200180602001828103825283818151815260200191508051906020019080838360005b83811015612091578082015181840152602081019050612076565b50505050905090810190601f1680156120be5780820380516001836020036101000a031916815260200191505b509350505050604051602081830303815290604052805190602001209850869750612153565b60618260f81c60ff1610806120ff5750607a8260f81c60ff16115b15612152576000806040518060400160405280601281526020017f6661696c206e6f74206c6f7765726361736500000000000000000000000000008152509c509c509c50505050505050505050506121e2565b5b865191508680600101975050611f2c565b60018888030390508067ffffffffffffffff8111801561218357600080fd5b506040519080825280601f01601f1916602001820160405280156121b65781602001600182028036833780820191505090505b5094506020850193506121ca848983612de0565b60018960001c869c509c509c50505050505050505050505b9250925092565b60006121f58383612e29565b61224e578260000182908060018154018082558091505060019003906000526020600020016000909190919091505582600001805490508360010160008481526020019081526020016000208190555060019050612253565b600090505b92915050565b60008084600101600085815260200190815260200160002054905060008114156123005784600001604051806040016040528086815260200185815250908060018154018082558091505060019003906000526020600020906002020160009091909190915060008201518160000155602082015181600101555050846000018054905085600101600086815260200190815260200160002081905550600191505061232e565b8285600001600183038154811061231357fe5b90600052602060002090600202016001018190555060009150505b9392505050565b600080836001016000848152602001908152602001600020541415905092915050565b600081600001805490509050919050565b8273ffffffffffffffffffffffffffffffffffffffff1661238982610bfc565b73ffffffffffffffffffffffffffffffffffffffff16146123f5576040517f08c379a00000000000000000000000000000000000000000000000000000000081526004018080602001828103825260298152602001806144126029913960400191505060405180910390fd5b600073ffffffffffffffffffffffffffffffffffffffff168273ffffffffffffffffffffffffffffffffffffffff16141561247b576040517f08c379a00000000000000000000000000000000000000000000000000000000081526004018080602001828103825260248152602001806142c36024913960400191505060405180910390fd5b612486838383612e4c565b6124916000826117bb565b6124e281606560008673ffffffffffffffffffffffffffffffffffffffff1673ffffffffffffffffffffffffffffffffffffffff168152602001908152602001600020612e5190919063ffffffff16565b5061253481606560008573ffffffffffffffffffffffffffffffffffffffff1673ffffffffffffffffffffffffffffffffffffffff16815260200190815260200160002061172d90919063ffffffff16565b5061254b818360666117479092919063ffffffff16565b50808273ffffffffffffffffffffffffffffffffffffffff168473ffffffffffffffffffffffffffffffffffffffff167fddf252ad1be2c89b69c2b068fc378daa952ba7f163c4a11628f55a4df523b3ef60405160405180910390a4505050565b60008183600001805490501161260d576040517f08c379a000000000000000000000000000000000000000000000000000000000815260040180806020018281038252602281526020018061426f6022913960400191505060405180910390fd5b82600001828154811061261c57fe5b9060005260206000200154905092915050565b60008082846000018054905011612691576040517f08c379a00000000000000000000000000000000000000000000000000000000081526004018080602001828103825260228152602001806143c46022913960400191505060405180910390fd5b60008460000184815481106126a257fe5b906000526020600020906002020190508060000154816001015492509250509250929050565b600081600001805490509050919050565b600080846001016000858152602001908152602001600020549050600081141583906127a0576040517f08c379a00000000000000000000000000000000000000000000000000000000081526004018080602001828103825283818151815260200191508051906020019080838360005b8381101561276557808201518184015260208101905061274a565b50505050905090810190601f1680156127925780820380516001836020036101000a031916815260200191505b509250505060405180910390fd5b508460000160018203815481106127b357fe5b9060005260206000209060020201600101549150509392505050565b60006127f08473ffffffffffffffffffffffffffffffffffffffff16612e6b565b6127fd57600190506129e0565b600061296763150b7a0260e01b6128126117b3565b888787604051602401808573ffffffffffffffffffffffffffffffffffffffff1681526020018473ffffffffffffffffffffffffffffffffffffffff16815260200183815260200180602001828103825283818151815260200191508051906020019080838360005b8381101561289657808201518184015260208101905061287b565b50505050905090810190601f1680156128c35780820380516001836020036101000a031916815260200191505b5095505050505050604051602081830303815290604052907bffffffffffffffffffffffffffffffffffffffffffffffffffffffff19166020820180517bffffffffffffffffffffffffffffffffffffffffffffffffffffffff8381831617835250505050604051806060016040528060328152602001614291603291398773ffffffffffffffffffffffffffffffffffffffff16612e7e9092919063ffffffff16565b9050600081806020019051602081101561298057600080fd5b8101908080519060200190929190505050905063150b7a0260e01b7bffffffffffffffffffffffffffffffffffffffffffffffffffffffff1916817bffffffffffffffffffffffffffffffffffffffffffffffffffffffff191614925050505b949350505050565b600073ffffffffffffffffffffffffffffffffffffffff168273ffffffffffffffffffffffffffffffffffffffff161415612a8b576040517f08c379a00000000000000000000000000000000000000000000000000000000081526004018080602001828103825260208152602001807f4552433732313a206d696e7420746f20746865207a65726f206164647265737381525060200191505060405180910390fd5b612a9481611796565b15612b07576040517f08c379a000000000000000000000000000000000000000000000000000000000815260040180806020018281038252601c8152602001807f4552433732313a20746f6b656e20616c7265616479206d696e7465640000000081525060200191505060405180910390fd5b612b1360008383612e4c565b612b6481606560008573ffffffffffffffffffffffffffffffffffffffff1673ffffffffffffffffffffffffffffffffffffffff16815260200190815260200160002061172d90919063ffffffff16565b50612b7b818360666117479092919063ffffffff16565b50808273ffffffffffffffffffffffffffffffffffffffff16600073ffffffffffffffffffffffffffffffffffffffff167fddf252ad1be2c89b69c2b068fc378daa952ba7f163c4a11628f55a4df523b3ef60405160405180910390a45050565b6060600060088651029050600080868381612bf357fe5b0614612c00576002612c03565b60015b60ff16868381612c0f57fe5b0401905060008167ffffffffffffffff81118015612c2c57600080fd5b506040519080825280601f01601f191660200182016040528015612c5f5781602001600182028036833780820191505090505b50905060006001886001901b0390506000808784600081518110612c7f57fe5b60200101907effffffffffffffffffffffffffffffffffffffffffffffffffffffffffffff1916908160001a90535060006001905060005b8c51811015612d6a578c8181518110612ccc57fe5b602001015160f81c60f81b60f81c60ff16600884901b1792506008840193505b8b841115612d5d578b840393508a8484901c861681518110612d0a57fe5b602001015160f81c60f81b868381518110612d2157fe5b60200101907effffffffffffffffffffffffffffffffffffffffffffffffffffffffffffff1916908160001a9053508180600101925050612cec565b8080600101915050612cb7565b506000831115612dce5789838c0383901b851681518110612d8757fe5b602001015160f81c60f81b858281518110612d9e57fe5b60200101907effffffffffffffffffffffffffffffffffffffffffffffffffffffffffffff1916908160001a9053505b84975050505050505050949350505050565b5b60208110612e045781518352602083019250602082019150602081039050612de1565b60006001826020036101000a0390508019835116818551168181178652505050505050565b600080836001016000848152602001908152602001600020541415905092915050565b505050565b6000612e63836000018360001b612e96565b905092915050565b600080823b905060008111915050919050565b6060612e8d8484600085612f7e565b90509392505050565b60008083600101600084815260200190815260200160002054905060008114612f725760006001820390506000600186600001805490500390506000866000018281548110612ee157fe5b9060005260206000200154905080876000018481548110612efe57fe5b9060005260206000200181905550600183018760010160008381526020019081526020016000208190555086600001805480612f3657fe5b60019003818190600052602060002001600090559055866001016000878152602001908152602001600020600090556001945050505050612f78565b60009150505b92915050565b606082471015612fd9576040517f08c379a00000000000000000000000000000000000000000000000000000000081526004018080602001828103825260268152602001806142e76026913960400191505060405180910390fd5b612fe285612e6b565b613054576040517f08c379a000000000000000000000000000000000000000000000000000000000815260040180806020018281038252601d8152602001807f416464726573733a2063616c6c20746f206e6f6e2d636f6e747261637400000081525060200191505060405180910390fd5b6000808673ffffffffffffffffffffffffffffffffffffffff1685876040518082805190602001908083835b602083106130a35780518252602082019150602081019050602083039250613080565b6001836020036101000a03801982511681845116808217855250505050505090500191505060006040518083038185875af1925050503d8060008114613105576040519150601f19603f3d011682016040523d82523d6000602084013e61310a565b606091505b509150915061311a828286613126565b92505050949350505050565b60608315613136578290506131eb565b6000835111156131495782518084602001fd5b816040517f08c379a00000000000000000000000000000000000000000000000000000000081526004018080602001828103825283818151815260200191508051906020019080838360005b838110156131b0578082015181840152602081019050613195565b50505050905090810190601f1680156131dd5780820380516001836020036101000a031916815260200191505b509250505060405180910390fd5b9392505050565b828054600181600116156101000203166002900490600052602060002090601f016020900481019282613228576000855561326f565b82601f1061324157803560ff191683800117855561326f565b8280016001018555821561326f579182015b8281111561326e578235825591602001919060010190613253565b5b50905061327c919061330e565b5090565b604051806101200160405280600073ffffffffffffffffffffffffffffffffffffffff1681526020016000815260200160008152602001600073ffffffffffffffffffffffffffffffffffffffff168152602001600073ffffffffffffffffffffffffffffffffffffffff168152602001606081526020016060815260200160608152602001606081525090565b5b8082111561332757600081600090555060010161330f565b5090565b600061333e61333984614037565b614006565b9050808382526020820190508260005b8581101561337e578135850161336488826134e1565b84526020840193506020830192505060018101905061334e565b5050509392505050565b600061339b61339684614063565b614006565b9050828152602081018484840111156133b357600080fd5b6133be8482856141bd565b509392505050565b60006133d96133d484614093565b614006565b9050828152602081018484840111156133f157600080fd5b6133fc8482856141bd565b509392505050565b60008135905061341381614212565b92915050565b600082601f83011261342a57600080fd5b813561343a84826020860161332b565b91505092915050565b60008135905061345281614229565b92915050565b60008135905061346781614240565b92915050565b600082601f83011261347e57600080fd5b813561348e848260208601613388565b91505092915050565b60008083601f8401126134a957600080fd5b8235905067ffffffffffffffff8111156134c257600080fd5b6020830191508360018202830111156134da57600080fd5b9250929050565b600082601f8301126134f257600080fd5b81356135028482602086016133c6565b91505092915050565b60008135905061351a81614257565b92915050565b60006020828403121561353257600080fd5b600061354084828501613404565b91505092915050565b6000806040838503121561355c57600080fd5b600061356a85828601613404565b925050602061357b85828601613404565b9150509250929050565b60008060006060848603121561359a57600080fd5b60006135a886828701613404565b93505060206135b986828701613404565b92505060406135ca8682870161350b565b9150509250925092565b600080600080608085870312156135ea57600080fd5b60006135f887828801613404565b945050602061360987828801613404565b935050604061361a8782880161350b565b925050606085013567ffffffffffffffff81111561363757600080fd5b6136438782880161346d565b91505092959194509250565b6000806040838503121561366257600080fd5b600061367085828601613404565b925050602061368185828601613443565b9150509250929050565b6000806040838503121561369e57600080fd5b60006136ac85828601613404565b92505060206136bd8582860161350b565b9150509250929050565b6000602082840312156136d957600080fd5b600082013567ffffffffffffffff8111156136f357600080fd5b6136ff84828501613419565b91505092915050565b60006020828403121561371a57600080fd5b600061372884828501613458565b91505092915050565b60008060008060008060008060a0898b03121561374d57600080fd5b600089013567ffffffffffffffff81111561376757600080fd5b6137738b828c01613497565b985098505060206137868b828c01613404565b96505060406137978b828c01613404565b955050606089013567ffffffffffffffff8111156137b457600080fd5b6137c08b828c01613497565b9450945050608089013567ffffffffffffffff8111156137df57600080fd5b6137eb8b828c01613497565b92509250509295985092959890939650565b60006020828403121561380f57600080fd5b600082013567ffffffffffffffff81111561382957600080fd5b613835848285016134e1565b91505092915050565b60006020828403121561385057600080fd5b600061385e8482850161350b565b91505092915050565b60008060006040848603121561387c57600080fd5b600061388a8682870161350b565b935050602084013567ffffffffffffffff8111156138a757600080fd5b6138b386828701613497565b92509250509250925092565b60006138cb8383613d5a565b60208301905092915050565b6138e081614149565b82525050565b6138ef81614149565b82525050565b6000613900826140e8565b61390a818561410b565b9350613915836140c3565b8060005b8381101561394657815161392d88826138bf565b9750613938836140fe565b925050600181019050613919565b5085935050505092915050565b61395c8161415b565b82525050565b600061396e838561412d565b935061397b8385846141bd565b61398483614201565b840190509392505050565b600061399a826140f3565b6139a4818561411c565b93506139b48185602086016141cc565b6139bd81614201565b840191505092915050565b60006139d3826140f3565b6139dd818561412d565b93506139ed8185602086016141cc565b6139f681614201565b840191505092915050565b6000613a0c826140f3565b613a16818561413e565b9350613a268185602086016141cc565b80840191505092915050565b600081546001811660008114613a4f5760018114613a7457613ab8565b607f6002830416613a60818761413e565b955060ff1983168652808601935050613ab8565b60028204613a82818761413e565b9550613a8d856140d3565b60005b82811015613aaf57815481890152600182019150602081019050613a90565b82880195505050505b505092915050565b6000613acd60128361412d565b91507f73656e6465722063616e742063726561746500000000000000000000000000006000830152602082019050919050565b6000613b0d60048361412d565b91507f524f4f54000000000000000000000000000000000000000000000000000000006000830152602082019050919050565b6000613b4d60098361413e565b91507f7b226e616d65223a2200000000000000000000000000000000000000000000006000830152600982019050919050565b6000613b8d60198361412d565b91507f646f6d61696e206661696c656420746f2076616c6964617465000000000000006000830152602082019050919050565b6000613bcd60078361413e565b91507f697066733a2f2f000000000000000000000000000000000000000000000000006000830152600782019050919050565b6000613c0d60028361413e565b91507f227d0000000000000000000000000000000000000000000000000000000000006000830152600282019050919050565b6000613c4d601a8361412d565b91507f646f6d61696e20616c726561647920696e206368696c6472656e0000000000006000830152602082019050919050565b600061012083016000830151613c9960008601826138d7565b506020830151613cac6020860182613d5a565b506040830151613cbf6040860182613d5a565b506060830151613cd260608601826138d7565b506080830151613ce560808601826138d7565b5060a083015184820360a0860152613cfd828261398f565b91505060c083015184820360c0860152613d17828261398f565b91505060e083015184820360e0860152613d31828261398f565b915050610100830151848203610100860152613d4d82826138f5565b9150508091505092915050565b613d63816141b3565b82525050565b613d72816141b3565b82525050565b6000613d8382613b40565b9150613d8f8284613a32565b9150613d9a82613c00565b915081905092915050565b6000613db082613bc0565b9150613dbc8284613a01565b915081905092915050565b6000602082019050613ddc60008301846138e6565b92915050565b6000602082019050613df76000830184613953565b92915050565b6000608082019050613e126000830187613953565b613e1f6020830186613d69565b613e2c6040830185613d69565b8181036060830152613e3e81846139c8565b905095945050505050565b60006020820190508181036000830152613e64818486613962565b90509392505050565b60006020820190508181036000830152613e8781846139c8565b905092915050565b60006020820190508181036000830152613ea881613ac0565b9050919050565b60006020820190508181036000830152613ec881613b80565b9050919050565b60006020820190508181036000830152613ee881613c40565b9050919050565b60006020820190508181036000830152613f098184613c80565b905092915050565b6000602082019050613f266000830184613d69565b92915050565b600060c082019050613f41600083018c613d69565b8181036020830152613f54818a8c613962565b9050613f6360408301896138e6565b613f7060608301886138e6565b8181036080830152613f83818688613962565b905081810360a0830152613f98818486613962565b90509a9950505050505050505050565b6000604082019050613fbd6000830185613d69565b8181036020830152613fcf81846139c8565b90509392505050565b6000604082019050613fed6000830184613d69565b8181036020830152613ffe81613b00565b905092915050565b6000604051905081810181811067ffffffffffffffff8211171561402d5761402c6141ff565b5b8060405250919050565b600067ffffffffffffffff821115614052576140516141ff565b5b602082029050602081019050919050565b600067ffffffffffffffff82111561407e5761407d6141ff565b5b601f19601f8301169050602081019050919050565b600067ffffffffffffffff8211156140ae576140ad6141ff565b5b601f19601f8301169050602081019050919050565b6000819050602082019050919050565b60008190508160005260206000209050919050565b600081519050919050565b600081519050919050565b6000602082019050919050565b600082825260208201905092915050565b600082825260208201905092915050565b600082825260208201905092915050565b600081905092915050565b600061415482614193565b9050919050565b60008115159050919050565b60007fffffffff0000000000000000000000000000000000000000000000000000000082169050919050565b600073ffffffffffffffffffffffffffffffffffffffff82169050919050565b6000819050919050565b82818337600083830152505050565b60005b838110156141ea5780820151818401526020810190506141cf565b838111156141f9576000848401525b50505050565bfe5b6000601f19601f8301169050919050565b61421b81614149565b811461422657600080fd5b50565b6142328161415b565b811461423d57600080fd5b50565b61424981614167565b811461425457600080fd5b50565b614260816141b3565b811461426b57600080fd5b5056fe456e756d657261626c655365743a20696e646578206f7574206f6620626f756e64734552433732313a207472616e7366657220746f206e6f6e20455243373231526563656976657220696d706c656d656e7465724552433732313a207472616e7366657220746f20746865207a65726f2061646472657373416464726573733a20696e73756666696369656e742062616c616e636520666f722063616c6c4552433732313a206f70657261746f7220717565727920666f72206e6f6e6578697374656e7420746f6b656e4552433732313a20617070726f76652063616c6c6572206973206e6f74206f776e6572206e6f7220617070726f76656420666f7220616c6c4552433732313a2062616c616e636520717565727920666f7220746865207a65726f20616464726573734552433732313a206f776e657220717565727920666f72206e6f6e6578697374656e7420746f6b656e456e756d657261626c654d61703a20696e646578206f7574206f6620626f756e64734552433732313a20617070726f76656420717565727920666f72206e6f6e6578697374656e7420746f6b656e4552433732313a207472616e73666572206f6620746f6b656e2074686174206973206e6f74206f776e4552433732313a20617070726f76616c20746f2063757272656e74206f776e65724552433732313a207472616e736665722063616c6c6572206973206e6f74206f776e6572206e6f7220617070726f766564a2646970667358221220087b154c2d8223916b5880265540ed5180b526708d772a19e97f708d3d3f4e2764736f6c63430007060033496e697469616c697a61626c653a20636f6e747261637420697320616c726561647920696e697469616c697a6564",
  "linkReferences": {},
  "deployedLinkReferences": {}
}