{
  "_format": "hh-sol-artifact-1",
  "contractName": "Registry",
  "sourceName": "contracts/Registry.sol",
  "abi": [
    {
      "inputs": [
        {
          "internalType": "address",
          "name": "_owner",
          "type": "address"
        },
        {
          "internalType": "address",
          "name": "_controller",
          "type": "address"
        },
        {
          "internalType": "string",
          "name": "_resolver",
          "type": "string"
        },
        {
          "internalType": "string",
          "name": "_image",
          "type": "string"
        }
      ],
      "stateMutability": "nonpayable",
      "type": "constructor"
    },
    {
      "anonymous": false,
      "inputs": [
        {
          "indexed": true,
          "internalType": "address",
          "name": "owner",
          "type": "address"
        },
        {
          "indexed": true,
          "internalType": "address",
          "name": "approved",
          "type": "address"
        },
        {
          "indexed": true,
          "internalType": "uint256",
          "name": "tokenId",
          "type": "uint256"
        }
      ],
      "name": "Approval",
      "type": "event"
    },
    {
      "anonymous": false,
      "inputs": [
        {
          "indexed": true,
          "internalType": "address",
          "name": "owner",
          "type": "address"
        },
        {
          "indexed": true,
          "internalType": "address",
          "name": "operator",
          "type": "address"
        },
        {
          "indexed": false,
          "internalType": "bool",
          "name": "approved",
          "type": "bool"
        }
      ],
      "name": "ApprovalForAll",
      "type": "event"
    },
    {
      "anonymous": false,
      "inputs": [
        {
          "indexed": true,
          "internalType": "uint256",
          "name": "id",
          "type": "uint256"
        },
        {
          "indexed": true,
          "internalType": "address",
          "name": "oldController",
          "type": "address"
        },
        {
          "indexed": true,
          "internalType": "address",
          "name": "newController",
          "type": "address"
        },
        {
          "indexed": false,
          "internalType": "address",
          "name": "sender",
          "type": "address"
        }
      ],
      "name": "ControllerSet",
      "type": "event"
    },
    {
      "anonymous": false,
      "inputs": [
        {
          "indexed": true,
          "internalType": "uint256",
          "name": "parentId",
          "type": "uint256"
        },
        {
          "indexed": false,
          "internalType": "uint256",
          "name": "tokenId",
          "type": "uint256"
        },
        {
          "indexed": false,
          "internalType": "string",
          "name": "domain",
          "type": "string"
        },
        {
          "indexed": false,
          "internalType": "address",
          "name": "owner",
          "type": "address"
        },
        {
          "indexed": false,
          "internalType": "address",
          "name": "controller",
          "type": "address"
        },
        {
          "indexed": false,
          "internalType": "string",
          "name": "resolver",
          "type": "string"
        },
        {
          "indexed": false,
          "internalType": "string",
          "name": "image",
          "type": "string"
        }
      ],
      "name": "DomainCreated",
      "type": "event"
    },
    {
      "anonymous": false,
      "inputs": [
        {
          "indexed": true,
          "internalType": "address",
          "name": "owner",
          "type": "address"
        },
        {
          "indexed": true,
          "internalType": "uint256",
          "name": "id",
          "type": "uint256"
        },
        {
          "indexed": false,
          "internalType": "string",
          "name": "image",
          "type": "string"
        }
      ],
      "name": "ImageSet",
      "type": "event"
    },
    {
      "anonymous": false,
      "inputs": [
        {
          "indexed": true,
          "internalType": "address",
          "name": "owner",
          "type": "address"
        },
        {
          "indexed": true,
          "internalType": "uint256",
          "name": "id",
          "type": "uint256"
        },
        {
          "indexed": false,
          "internalType": "string",
          "name": "resolver",
          "type": "string"
        }
      ],
      "name": "ResolverSet",
      "type": "event"
    },
    {
      "anonymous": false,
      "inputs": [
        {
          "indexed": true,
          "internalType": "address",
          "name": "from",
          "type": "address"
        },
        {
          "indexed": true,
          "internalType": "address",
          "name": "to",
          "type": "address"
        },
        {
          "indexed": true,
          "internalType": "uint256",
          "name": "tokenId",
          "type": "uint256"
        }
      ],
      "name": "Transfer",
      "type": "event"
    },
    {
      "inputs": [],
      "name": "ROOT_ID",
      "outputs": [
        {
          "internalType": "uint256",
          "name": "",
          "type": "uint256"
        }
      ],
      "stateMutability": "view",
      "type": "function"
    },
    {
      "inputs": [
        {
          "internalType": "address",
          "name": "to",
          "type": "address"
        },
        {
          "internalType": "uint256",
          "name": "tokenId",
          "type": "uint256"
        }
      ],
      "name": "approve",
      "outputs": [],
      "stateMutability": "nonpayable",
      "type": "function"
    },
    {
      "inputs": [
        {
          "internalType": "address",
          "name": "owner",
          "type": "address"
        }
      ],
      "name": "balanceOf",
      "outputs": [
        {
          "internalType": "uint256",
          "name": "",
          "type": "uint256"
        }
      ],
      "stateMutability": "view",
      "type": "function"
    },
    {
      "inputs": [],
      "name": "baseURI",
      "outputs": [
        {
          "internalType": "string",
          "name": "",
          "type": "string"
        }
      ],
      "stateMutability": "view",
      "type": "function"
    },
    {
      "inputs": [
        {
          "internalType": "address",
          "name": "creator",
          "type": "address"
        },
        {
          "internalType": "uint256",
          "name": "id",
          "type": "uint256"
        }
      ],
      "name": "canCreate",
      "outputs": [
        {
          "internalType": "bool",
          "name": "",
          "type": "bool"
        }
      ],
      "stateMutability": "nonpayable",
      "type": "function"
    },
    {
      "inputs": [
        {
          "internalType": "uint256",
          "name": "id",
          "type": "uint256"
        }
      ],
      "name": "controllerOf",
      "outputs": [
        {
          "internalType": "address",
          "name": "",
          "type": "address"
        }
      ],
      "stateMutability": "view",
      "type": "function"
    },
    {
      "inputs": [
        {
          "internalType": "string",
          "name": "domain",
          "type": "string"
        },
        {
          "internalType": "address",
          "name": "_owner",
          "type": "address"
        },
        {
          "internalType": "address",
          "name": "_controller",
          "type": "address"
        },
        {
          "internalType": "string",
          "name": "resolver",
          "type": "string"
        },
        {
          "internalType": "string",
          "name": "image",
          "type": "string"
        }
      ],
      "name": "createDomain",
      "outputs": [],
      "stateMutability": "nonpayable",
      "type": "function"
    },
    {
      "inputs": [
        {
          "internalType": "uint256",
          "name": "id",
          "type": "uint256"
        }
      ],
      "name": "entries",
      "outputs": [
        {
          "components": [
            {
              "internalType": "address",
              "name": "owner",
              "type": "address"
            },
            {
              "internalType": "uint256",
              "name": "parent",
              "type": "uint256"
            },
            {
              "internalType": "uint256",
              "name": "depth",
              "type": "uint256"
            },
            {
              "internalType": "address",
              "name": "controller",
              "type": "address"
            },
            {
              "internalType": "string",
              "name": "resolver",
              "type": "string"
            },
            {
              "internalType": "string",
              "name": "image",
              "type": "string"
            },
            {
              "internalType": "string",
              "name": "domain",
              "type": "string"
            },
            {
              "internalType": "uint256[]",
              "name": "children",
              "type": "uint256[]"
            }
          ],
          "internalType": "struct Registry.EntryView",
          "name": "out",
          "type": "tuple"
        }
      ],
      "stateMutability": "view",
      "type": "function"
    },
    {
      "inputs": [
        {
          "internalType": "uint256",
          "name": "tokenId",
          "type": "uint256"
        }
      ],
      "name": "getApproved",
      "outputs": [
        {
          "internalType": "address",
          "name": "",
          "type": "address"
        }
      ],
      "stateMutability": "view",
      "type": "function"
    },
    {
      "inputs": [
        {
          "internalType": "uint256",
          "name": "id",
          "type": "uint256"
        }
      ],
      "name": "getChildLength",
      "outputs": [
        {
          "internalType": "uint256",
          "name": "",
          "type": "uint256"
        }
      ],
      "stateMutability": "view",
      "type": "function"
    },
    {
      "inputs": [
        {
          "internalType": "uint256",
          "name": "id",
          "type": "uint256"
        }
      ],
      "name": "getDepth",
      "outputs": [
        {
          "internalType": "uint256",
          "name": "",
          "type": "uint256"
        }
      ],
      "stateMutability": "view",
      "type": "function"
    },
    {
      "inputs": [
        {
          "internalType": "string[]",
          "name": "path",
          "type": "string[]"
        }
      ],
      "name": "getId",
      "outputs": [
        {
          "internalType": "uint256",
          "name": "",
          "type": "uint256"
        }
      ],
      "stateMutability": "pure",
      "type": "function"
    },
    {
      "inputs": [
        {
          "internalType": "string[]",
          "name": "path",
          "type": "string[]"
        }
      ],
      "name": "getOwner",
      "outputs": [
        {
          "internalType": "address",
          "name": "",
          "type": "address"
        }
      ],
      "stateMutability": "view",
      "type": "function"
    },
    {
      "inputs": [
        {
          "internalType": "address",
          "name": "owner",
          "type": "address"
        },
        {
          "internalType": "address",
          "name": "operator",
          "type": "address"
        }
      ],
      "name": "isApprovedForAll",
      "outputs": [
        {
          "internalType": "bool",
          "name": "",
          "type": "bool"
        }
      ],
      "stateMutability": "view",
      "type": "function"
    },
    {
      "inputs": [],
      "name": "name",
      "outputs": [
        {
          "internalType": "string",
          "name": "",
          "type": "string"
        }
      ],
      "stateMutability": "view",
      "type": "function"
    },
    {
      "inputs": [
        {
          "internalType": "uint256",
          "name": "tokenId",
          "type": "uint256"
        }
      ],
      "name": "ownerOf",
      "outputs": [
        {
          "internalType": "address",
          "name": "",
          "type": "address"
        }
      ],
      "stateMutability": "view",
      "type": "function"
    },
    {
      "inputs": [
        {
          "internalType": "address",
          "name": "from",
          "type": "address"
        },
        {
          "internalType": "address",
          "name": "to",
          "type": "address"
        },
        {
          "internalType": "uint256",
          "name": "tokenId",
          "type": "uint256"
        }
      ],
      "name": "safeTransferFrom",
      "outputs": [],
      "stateMutability": "nonpayable",
      "type": "function"
    },
    {
      "inputs": [
        {
          "internalType": "address",
          "name": "from",
          "type": "address"
        },
        {
          "internalType": "address",
          "name": "to",
          "type": "address"
        },
        {
          "internalType": "uint256",
          "name": "tokenId",
          "type": "uint256"
        },
        {
          "internalType": "bytes",
          "name": "_data",
          "type": "bytes"
        }
      ],
      "name": "safeTransferFrom",
      "outputs": [],
      "stateMutability": "nonpayable",
      "type": "function"
    },
    {
      "inputs": [
        {
          "internalType": "address",
          "name": "operator",
          "type": "address"
        },
        {
          "internalType": "bool",
          "name": "approved",
          "type": "bool"
        }
      ],
      "name": "setApprovalForAll",
      "outputs": [],
      "stateMutability": "nonpayable",
      "type": "function"
    },
    {
      "inputs": [
        {
          "internalType": "uint256",
          "name": "id",
          "type": "uint256"
        },
        {
          "internalType": "address",
          "name": "controller",
          "type": "address"
        }
      ],
      "name": "setController",
      "outputs": [],
      "stateMutability": "nonpayable",
      "type": "function"
    },
    {
      "inputs": [
        {
          "internalType": "uint256",
          "name": "id",
          "type": "uint256"
        },
        {
          "internalType": "string",
          "name": "image",
          "type": "string"
        }
      ],
      "name": "setImage",
      "outputs": [],
      "stateMutability": "nonpayable",
      "type": "function"
    },
    {
      "inputs": [
        {
          "internalType": "uint256",
          "name": "id",
          "type": "uint256"
        },
        {
          "internalType": "string",
          "name": "resolver",
          "type": "string"
        }
      ],
      "name": "setResolver",
      "outputs": [],
      "stateMutability": "nonpayable",
      "type": "function"
    },
    {
      "inputs": [
        {
          "internalType": "bytes4",
          "name": "interfaceId",
          "type": "bytes4"
        }
      ],
      "name": "supportsInterface",
      "outputs": [
        {
          "internalType": "bool",
          "name": "",
          "type": "bool"
        }
      ],
      "stateMutability": "view",
      "type": "function"
    },
    {
      "inputs": [],
      "name": "symbol",
      "outputs": [
        {
          "internalType": "string",
          "name": "",
          "type": "string"
        }
      ],
      "stateMutability": "view",
      "type": "function"
    },
    {
      "inputs": [
        {
          "internalType": "uint256",
          "name": "index",
          "type": "uint256"
        }
      ],
      "name": "tokenByIndex",
      "outputs": [
        {
          "internalType": "uint256",
          "name": "",
          "type": "uint256"
        }
      ],
      "stateMutability": "view",
      "type": "function"
    },
    {
      "inputs": [
        {
          "internalType": "address",
          "name": "owner",
          "type": "address"
        },
        {
          "internalType": "uint256",
          "name": "index",
          "type": "uint256"
        }
      ],
      "name": "tokenOfOwnerByIndex",
      "outputs": [
        {
          "internalType": "uint256",
          "name": "",
          "type": "uint256"
        }
      ],
      "stateMutability": "view",
      "type": "function"
    },
    {
      "inputs": [
        {
          "internalType": "uint256",
          "name": "token",
          "type": "uint256"
        }
      ],
      "name": "tokenURI",
      "outputs": [
        {
          "internalType": "string",
          "name": "out",
          "type": "string"
        }
      ],
      "stateMutability": "view",
      "type": "function"
    },
    {
      "inputs": [],
      "name": "totalSupply",
      "outputs": [
        {
          "internalType": "uint256",
          "name": "",
          "type": "uint256"
        }
      ],
      "stateMutability": "view",
      "type": "function"
    },
    {
      "inputs": [
        {
          "internalType": "address",
          "name": "from",
          "type": "address"
        },
        {
          "internalType": "address",
          "name": "to",
          "type": "address"
        },
        {
          "internalType": "uint256",
          "name": "tokenId",
          "type": "uint256"
        }
      ],
      "name": "transferFrom",
      "outputs": [],
      "stateMutability": "nonpayable",
      "type": "function"
    },
    {
      "inputs": [
        {
          "internalType": "string",
          "name": "_s",
          "type": "string"
        }
      ],
      "name": "validateDomain",
      "outputs": [
        {
          "internalType": "bool",
          "name": "valid",
          "type": "bool"
        },
        {
          "internalType": "uint256",
          "name": "parent",
          "type": "uint256"
        },
        {
          "internalType": "uint256",
          "name": "id",
          "type": "uint256"
        },
        {
          "internalType": "string",
          "name": "domain",
          "type": "string"
        }
      ],
      "stateMutability": "pure",
      "type": "function"
    }
  ],
  "bytecode": "0x60806040523480156200001157600080fd5b506040516200557238038062005572833981810160405281019062000037919062000dc0565b620000b36040518060400160405280601181526020017f5a657230204e616d6520536572766963650000000000000000000000000000008152506040518060400160405280600381526020017f5a4e5300000000000000000000000000000000000000000000000000000000008152506200020b60201b60201c565b620000f1846000604051602001620000cc919062000f03565b6040516020818303038152906040528051906020012060001c6200034b60201b60201c565b600060976000806040516020016200010a919062000f03565b6040516020818303038152906040528051906020012060001c81526020019081526020016000209050838160020160006101000a81548173ffffffffffffffffffffffffffffffffffffffff021916908373ffffffffffffffffffffffffffffffffffffffff160217905550818160050190805190602001906200019092919062000c81565b5060007f4be7df4d4dd45fd5c8095cf2b3d4b5c14d2fcdae37c306d45750ed229e59827f6000604051602001620001c8919062000f03565b6040516020818303038152906040528051906020012060001c87878787604051620001f895949392919062000f35565b60405180910390a25050505050620010d9565b600060019054906101000a900460ff1680620002335750620002326200055f60201b60201c565b5b806200024a575060008054906101000a900460ff16155b620002a1576040517f08c379a000000000000000000000000000000000000000000000000000000000815260040180806020018281038252602e81526020018062005544602e913960400191505060405180910390fd5b60008060019054906101000a900460ff161590508015620002f2576001600060016101000a81548160ff02191690831515021790555060016000806101000a81548160ff0219169083151502179055505b620003026200057660201b60201c565b620003126200068260201b60201c565b620003248383620007a660201b60201c565b8015620003465760008060016101000a81548160ff0219169083151502179055505b505050565b600073ffffffffffffffffffffffffffffffffffffffff168273ffffffffffffffffffffffffffffffffffffffff161415620003ef576040517f08c379a00000000000000000000000000000000000000000000000000000000081526004018080602001828103825260208152602001807f4552433732313a206d696e7420746f20746865207a65726f206164647265737381525060200191505060405180910390fd5b62000400816200092e60201b60201c565b1562000474576040517f08c379a000000000000000000000000000000000000000000000000000000000815260040180806020018281038252601c8152602001807f4552433732313a20746f6b656e20616c7265616479206d696e7465640000000081525060200191505060405180910390fd5b62000488600083836200095260201b60201c565b620004e081606560008573ffffffffffffffffffffffffffffffffffffffff1673ffffffffffffffffffffffffffffffffffffffff1681526020019081526020016000206200095760201b6200165c1790919060201c565b50620004fe818360666200097960201b62001676179092919060201c565b50808273ffffffffffffffffffffffffffffffffffffffff16600073ffffffffffffffffffffffffffffffffffffffff167fddf252ad1be2c89b69c2b068fc378daa952ba7f163c4a11628f55a4df523b3ef60405160405180910390a45050565b6000803090506000813b9050600081149250505090565b600060019054906101000a900460ff16806200059e57506200059d6200055f60201b60201c565b5b80620005b5575060008054906101000a900460ff16155b6200060c576040517f08c379a000000000000000000000000000000000000000000000000000000000815260040180806020018281038252602e81526020018062005544602e913960400191505060405180910390fd5b60008060019054906101000a900460ff1615905080156200065d576001600060016101000a81548160ff02191690831515021790555060016000806101000a81548160ff0219169083151502179055505b80156200067f5760008060016101000a81548160ff0219169083151502179055505b50565b600060019054906101000a900460ff1680620006aa5750620006a96200055f60201b60201c565b5b80620006c1575060008054906101000a900460ff16155b62000718576040517f08c379a000000000000000000000000000000000000000000000000000000000815260040180806020018281038252602e81526020018062005544602e913960400191505060405180910390fd5b60008060019054906101000a900460ff16159050801562000769576001600060016101000a81548160ff02191690831515021790555060016000806101000a81548160ff0219169083151502179055505b620007816301ffc9a760e01b620009b660201b60201c565b8015620007a35760008060016101000a81548160ff0219169083151502179055505b50565b600060019054906101000a900460ff1680620007ce5750620007cd6200055f60201b60201c565b5b80620007e5575060008054906101000a900460ff16155b6200083c576040517f08c379a000000000000000000000000000000000000000000000000000000000815260040180806020018281038252602e81526020018062005544602e913960400191505060405180910390fd5b60008060019054906101000a900460ff1615905080156200088d576001600060016101000a81548160ff02191690831515021790555060016000806101000a81548160ff0219169083151502179055505b82606a9080519060200190620008a592919062000c81565b5081606b9080519060200190620008be92919062000c81565b50620008d76380ac58cd60e01b620009b660201b60201c565b620008ef635b5e139f60e01b620009b660201b60201c565b6200090763780e9d6360e01b620009b660201b60201c565b8015620009295760008060016101000a81548160ff0219169083151502179055505b505050565b60006200094b82606662000ac060201b620016ab1790919060201c565b9050919050565b505050565b600062000971836000018360001b62000ae260201b60201c565b905092915050565b6000620009ad846000018460001b8473ffffffffffffffffffffffffffffffffffffffff1660001b62000b5c60201b60201c565b90509392505050565b63ffffffff60e01b817bffffffffffffffffffffffffffffffffffffffffffffffffffffffff1916141562000a53576040517f08c379a000000000000000000000000000000000000000000000000000000000815260040180806020018281038252601c8152602001807f4552433136353a20696e76616c696420696e746572666163652069640000000081525060200191505060405180910390fd5b600160336000837bffffffffffffffffffffffffffffffffffffffffffffffffffffffff19167bffffffffffffffffffffffffffffffffffffffffffffffffffffffff1916815260200190815260200160002060006101000a81548160ff02191690831515021790555050565b600062000ada836000018360001b62000c3b60201b60201c565b905092915050565b600062000af6838362000c5e60201b60201c565b62000b5157826000018290806001815401808255809150506001900390600052602060002001600090919091909150558260000180549050836001016000848152602001908152602001600020819055506001905062000b56565b600090505b92915050565b600080846001016000858152602001908152602001600020549050600081141562000c055784600001604051806040016040528086815260200185815250908060018154018082558091505060019003906000526020600020906002020160009091909190915060008201518160000155602082015181600101555050846000018054905085600101600086815260200190815260200160002081905550600191505062000c34565b8285600001600183038154811062000c1957fe5b90600052602060002090600202016001018190555060009150505b9392505050565b600080836001016000848152602001908152602001600020541415905092915050565b600080836001016000848152602001908152602001600020541415905092915050565b828054600181600116156101000203166002900490600052602060002090601f01602090048101928262000cb9576000855562000d05565b82601f1062000cd457805160ff191683800117855562000d05565b8280016001018555821562000d05579182015b8281111562000d0457825182559160200191906001019062000ce7565b5b50905062000d14919062000d18565b5090565b5b8082111562000d3357600081600090555060010162000d19565b5090565b600062000d4e62000d488462000fe9565b62000fb5565b90508281526020810184848401111562000d6757600080fd5b62000d7484828562001076565b509392505050565b60008151905062000d8d81620010bf565b92915050565b600082601f83011262000da557600080fd5b815162000db784826020860162000d37565b91505092915050565b6000806000806080858703121562000dd757600080fd5b600062000de78782880162000d7c565b945050602062000dfa8782880162000d7c565b935050604085015167ffffffffffffffff81111562000e1857600080fd5b62000e268782880162000d93565b925050606085015167ffffffffffffffff81111562000e4457600080fd5b62000e528782880162000d93565b91505092959194509250565b62000e698162001038565b82525050565b600062000e7c826200101c565b62000e88818562001027565b935062000e9a81856020860162001076565b62000ea581620010ae565b840191505092915050565b600062000ebf60048362001027565b91507f524f4f54000000000000000000000000000000000000000000000000000000006000830152602082019050919050565b62000efd816200106c565b82525050565b600060408201905062000f1a600083018462000ef2565b818103602083015262000f2d8162000eb0565b905092915050565b600060c08201905062000f4c600083018862000ef2565b818103602083015262000f5f8162000eb0565b905062000f70604083018762000e5e565b62000f7f606083018662000e5e565b818103608083015262000f93818562000e6f565b905081810360a083015262000fa9818462000e6f565b90509695505050505050565b6000604051905081810181811067ffffffffffffffff8211171562000fdf5762000fde620010ac565b5b8060405250919050565b600067ffffffffffffffff821115620010075762001006620010ac565b5b601f19601f8301169050602081019050919050565b600081519050919050565b600082825260208201905092915050565b600062001045826200104c565b9050919050565b600073ffffffffffffffffffffffffffffffffffffffff82169050919050565b6000819050919050565b60005b838110156200109657808201518184015260208101905062001079565b83811115620010a6576000848401525b50505050565bfe5b6000601f19601f8301169050919050565b620010ca8162001038565b8114620010d657600080fd5b50565b61445b80620010e96000396000f3fe608060405234801561001057600080fd5b50600436106101da5760003560e01c806370a0823111610104578063c7acd4e7116100a2578063e985e9c511610071578063e985e9c5146105c3578063eb697611146105f3578063eedf792814610623578063fb78fef114610641576101da565b8063c7acd4e71461052b578063c87b56dd14610547578063c980c62614610577578063d4f5913414610593576101da565b8063a22cb465116100de578063a22cb46514610493578063a4a183b0146104af578063b30906d4146104df578063b88d4fde1461050f576101da565b806370a082311461041557806375e618c91461044557806395d89b4114610475576101da565b80632f745c591161017c578063593b844f1161014b578063593b844f146103675780635dd8f6aa146103975780636352211e146103c75780636c0360eb146103f7576101da565b80632f745c59146102cf5780633e5779ee146102ff57806342842e0e1461031b5780634f6ccce714610337576101da565b8063081812fc116101b8578063081812fc14610249578063095ea7b31461027957806318160ddd1461029557806323b872dd146102b3576101da565b806301ffc9a7146101df57806306fdde031461020f57806307c6b8411461022d575b600080fd5b6101f960048036038101906101f4919061361a565b610674565b6040516102069190613d45565b60405180910390f35b6102176106dc565b6040516102249190613dd0565b60405180910390f35b610247600480360381019061024291906137b5565b61077e565b005b610263600480360381019061025e9190613750565b610842565b6040516102709190613d0f565b60405180910390f35b610293600480360381019061028e919061359d565b6108dd565b005b61029d610a21565b6040516102aa9190613e74565b60405180910390f35b6102cd60048036038101906102c89190613497565b610a32565b005b6102e960048036038101906102e4919061359d565b610aa8565b6040516102f69190613e74565b60405180910390f35b61031960048036038101906103149190613779565b610b03565b005b61033560048036038101906103309190613497565b610bdd565b005b610351600480360381019061034c9190613750565b610bfd565b60405161035e9190613e74565b60405180910390f35b610381600480360381019061037c9190613750565b610c20565b60405161038e9190613e74565b60405180910390f35b6103b160048036038101906103ac9190613750565b610c47565b6040516103be9190613d0f565b60405180910390f35b6103e160048036038101906103dc9190613750565b610c87565b6040516103ee9190613d0f565b60405180910390f35b6103ff610cbe565b60405161040c9190613dd0565b60405180910390f35b61042f600480360381019061042a9190613432565b610d60565b60405161043c9190613e74565b60405180910390f35b61045f600480360381019061045a9190613750565b610e35565b60405161046c9190613e74565b60405180910390f35b61047d610e55565b60405161048a9190613dd0565b60405180910390f35b6104ad60048036038101906104a89190613561565b610ef7565b005b6104c960048036038101906104c491906135d9565b6110ad565b6040516104d69190613d0f565b60405180910390f35b6104f960048036038101906104f49190613750565b6110c7565b6040516105069190613e52565b60405180910390f35b610529600480360381019061052491906134e6565b611289565b005b61054560048036038101906105409190613643565b611301565b005b610561600480360381019061055c9190613750565b61131b565b60405161056e9190613dd0565b60405180910390f35b610591600480360381019061058c91906137b5565b611380565b005b6105ad60048036038101906105a891906135d9565b611444565b6040516105ba9190613e74565b60405180910390f35b6105dd60048036038101906105d8919061345b565b6114d8565b6040516105ea9190613d45565b60405180910390f35b61060d6004803603810190610608919061359d565b61156c565b60405161061a9190613d45565b60405180910390f35b61062b6115b2565b6040516106389190613e74565b60405180910390f35b61065b6004803603810190610656919061370f565b6115e0565b60405161066b9493929190613d60565b60405180910390f35b600060336000837bffffffffffffffffffffffffffffffffffffffffffffffffffffffff19167bffffffffffffffffffffffffffffffffffffffffffffffffffffffff1916815260200190815260200160002060009054906101000a900460ff169050919050565b6060606a8054600181600116156101000203166002900480601f0160208091040260200160405190810160405280929190818152602001828054600181600116156101000203166002900480156107745780601f1061074957610100808354040283529160200191610774565b820191906000526020600020905b81548152906001019060200180831161075757829003601f168201915b5050505050905090565b3373ffffffffffffffffffffffffffffffffffffffff1661079e84610c87565b73ffffffffffffffffffffffffffffffffffffffff16146107be57600080fd5b81816097600086815260200190815260200160002060030191906107e3929190613121565b50826107ee84610c87565b73ffffffffffffffffffffffffffffffffffffffff167f446f502bb4d7664110df81da26583f4c2a757d1890d992c2df364826e4f404678484604051610835929190613dac565b60405180910390a3505050565b600061084d826116c5565b6108a2576040517f08c379a000000000000000000000000000000000000000000000000000000000815260040180806020018281038252602c81526020018061437f602c913960400191505060405180910390fd5b6068600083815260200190815260200160002060009054906101000a900473ffffffffffffffffffffffffffffffffffffffff169050919050565b60006108e882610c87565b90508073ffffffffffffffffffffffffffffffffffffffff168373ffffffffffffffffffffffffffffffffffffffff16141561096f576040517f08c379a00000000000000000000000000000000000000000000000000000000081526004018080602001828103825260218152602001806143d46021913960400191505060405180910390fd5b8073ffffffffffffffffffffffffffffffffffffffff1661098e6116e2565b73ffffffffffffffffffffffffffffffffffffffff1614806109bd57506109bc816109b76116e2565b6114d8565b5b610a12576040517f08c379a00000000000000000000000000000000000000000000000000000000081526004018080602001828103825260388152602001806142d26038913960400191505060405180910390fd5b610a1c83836116ea565b505050565b6000610a2d60666117a3565b905090565b610a43610a3d6116e2565b826117b8565b610a98576040517f08c379a00000000000000000000000000000000000000000000000000000000081526004018080602001828103825260318152602001806143f56031913960400191505060405180910390fd5b610aa38383836118ac565b505050565b6000610afb82606560008673ffffffffffffffffffffffffffffffffffffffff1673ffffffffffffffffffffffffffffffffffffffff1681526020019081526020016000206118bc90919063ffffffff16565b905092915050565b610b0d338361156c565b610b1657600080fd5b806097600084815260200190815260200160002060020160006101000a81548173ffffffffffffffffffffffffffffffffffffffff021916908373ffffffffffffffffffffffffffffffffffffffff1602179055508073ffffffffffffffffffffffffffffffffffffffff16610b8b83610c47565b73ffffffffffffffffffffffffffffffffffffffff16837f0af36ec64da94c558c48ce7fb33930392a9a27325b8cb0584000835ffff08cdd33604051610bd19190613d2a565b60405180910390a45050565b610bf883838360405180602001604052806000815250611289565b505050565b600080610c148360666118d690919063ffffffff16565b50905080915050919050565b6000610c4060976000848152602001908152602001600020600601611902565b9050919050565b60006097600083815260200190815260200160002060020160009054906101000a900473ffffffffffffffffffffffffffffffffffffffff169050919050565b6000610cb7826040518060600160405280602981526020016143346029913960666119179092919063ffffffff16565b9050919050565b6060606d8054600181600116156101000203166002900480601f016020809104026020016040519081016040528092919081815260200182805460018160011615610100020316600290048015610d565780601f10610d2b57610100808354040283529160200191610d56565b820191906000526020600020905b815481529060010190602001808311610d3957829003601f168201915b5050505050905090565b60008073ffffffffffffffffffffffffffffffffffffffff168273ffffffffffffffffffffffffffffffffffffffff161415610de7576040517f08c379a000000000000000000000000000000000000000000000000000000000815260040180806020018281038252602a81526020018061430a602a913960400191505060405180910390fd5b610e2e606560008473ffffffffffffffffffffffffffffffffffffffff1673ffffffffffffffffffffffffffffffffffffffff168152602001908152602001600020611902565b9050919050565b600060976000838152602001908152602001600020600101549050919050565b6060606b8054600181600116156101000203166002900480601f016020809104026020016040519081016040528092919081815260200182805460018160011615610100020316600290048015610eed5780601f10610ec257610100808354040283529160200191610eed565b820191906000526020600020905b815481529060010190602001808311610ed057829003601f168201915b5050505050905090565b610eff6116e2565b73ffffffffffffffffffffffffffffffffffffffff168273ffffffffffffffffffffffffffffffffffffffff161415610fa0576040517f08c379a00000000000000000000000000000000000000000000000000000000081526004018080602001828103825260198152602001807f4552433732313a20617070726f766520746f2063616c6c65720000000000000081525060200191505060405180910390fd5b8060696000610fad6116e2565b73ffffffffffffffffffffffffffffffffffffffff1673ffffffffffffffffffffffffffffffffffffffff16815260200190815260200160002060008473ffffffffffffffffffffffffffffffffffffffff1673ffffffffffffffffffffffffffffffffffffffff16815260200190815260200160002060006101000a81548160ff0219169083151502179055508173ffffffffffffffffffffffffffffffffffffffff1661105a6116e2565b73ffffffffffffffffffffffffffffffffffffffff167f17307eab39ab6107e8899845ad3d59bd9653f200f220920489ca2b5937696c318360405180821515815260200191505060405180910390a35050565b60006110c06110bb83611444565b610c87565b9050919050565b6110cf6131af565b60006097600084815260200190815260200160002090506110ef83610c87565b826000019073ffffffffffffffffffffffffffffffffffffffff16908173ffffffffffffffffffffffffffffffffffffffff16815250508060000154826020018181525050806004018054600181600116156101000203166002900480601f0160208091040260200160405190810160405280929190818152602001828054600181600116156101000203166002900480156111cc5780601f106111a1576101008083540402835291602001916111cc565b820191906000526020600020905b8154815290600101906020018083116111af57829003601f168201915b50505050508260c001819052506111e581600601611902565b67ffffffffffffffff811180156111fb57600080fd5b5060405190808252806020026020018201604052801561122a5781602001602082028036833780820191505090505b508260e0018190525060005b8260e00151518110156112825761125981836006016118bc90919063ffffffff16565b8360e00151828151811061126957fe5b6020026020010181815250508080600101915050611236565b5050919050565b61129a6112946116e2565b836117b8565b6112ef576040517f08c379a00000000000000000000000000000000000000000000000000000000081526004018080602001828103825260318152602001806143f56031913960400191505060405180910390fd5b6112fb84848484611936565b50505050565b61131188888888888888886119a8565b5050505050505050565b606061135a609760008481526020019081526020016000206004016040516020016113469190613cc0565b604051602081830303815290604052611c73565b60405160200161136a9190613ced565b6040516020818303038152906040529050919050565b3373ffffffffffffffffffffffffffffffffffffffff166113a084610c87565b73ffffffffffffffffffffffffffffffffffffffff16146113c057600080fd5b81816097600086815260200190815260200160002060050191906113e5929190613121565b50826113f084610c87565b73ffffffffffffffffffffffffffffffffffffffff167f7228383a10f0dfa73f0129ad947aa4f6689f533279ea1fa0e9fa10fbdb52120e8484604051611437929190613dac565b60405180910390a3505050565b60008060006040516020016114599190613f3b565b6040516020818303038152906040528051906020012060001c905060005b83518110156114ce578184828151811061148d57fe5b60200260200101516040516020016114a6929190613f0b565b6040516020818303038152906040528051906020012060001c91508080600101915050611477565b5080915050919050565b6000606960008473ffffffffffffffffffffffffffffffffffffffff1673ffffffffffffffffffffffffffffffffffffffff16815260200190815260200160002060008373ffffffffffffffffffffffffffffffffffffffff1673ffffffffffffffffffffffffffffffffffffffff16815260200190815260200160002060009054906101000a900460ff16905092915050565b60008061157883610c47565b90508073ffffffffffffffffffffffffffffffffffffffff168473ffffffffffffffffffffffffffffffffffffffff161491505092915050565b60006040516020016115c49190613f3b565b6040516020818303038152906040528051906020012060001c81565b6000806000606061161b60006040516020016115fc9190613f3b565b6040516020818303038152906040528051906020012060001c86611e28565b809350819550829650505050828160405160200161163a929190613f0b565b6040516020818303038152906040528051906020012060001c91509193509193565b600061166e836000018360001b612118565b905092915050565b60006116a2846000018460001b8473ffffffffffffffffffffffffffffffffffffffff1660001b612188565b90509392505050565b60006116bd836000018360001b612264565b905092915050565b60006116db8260666116ab90919063ffffffff16565b9050919050565b600033905090565b816068600083815260200190815260200160002060006101000a81548173ffffffffffffffffffffffffffffffffffffffff021916908373ffffffffffffffffffffffffffffffffffffffff160217905550808273ffffffffffffffffffffffffffffffffffffffff1661175d83610c87565b73ffffffffffffffffffffffffffffffffffffffff167f8c5be1e5ebec7d5bd14f71427d1e84f3dd0314c0f7b2291e5b200ac8c7c3b92560405160405180910390a45050565b60006117b182600001612287565b9050919050565b60006117c3826116c5565b611818576040517f08c379a000000000000000000000000000000000000000000000000000000000815260040180806020018281038252602c8152602001806142a6602c913960400191505060405180910390fd5b600061182383610c87565b90508073ffffffffffffffffffffffffffffffffffffffff168473ffffffffffffffffffffffffffffffffffffffff16148061189257508373ffffffffffffffffffffffffffffffffffffffff1661187a84610842565b73ffffffffffffffffffffffffffffffffffffffff16145b806118a357506118a281856114d8565b5b91505092915050565b6118b7838383612298565b505050565b60006118cb83600001836124db565b60001c905092915050565b6000806000806118e9866000018661255e565b915091508160001c8160001c9350935050509250929050565b6000611910826000016125f7565b9050919050565b600061192a846000018460001b84612608565b60001c90509392505050565b6119418484846118ac565b61194d848484846126fe565b6119a2576040517f08c379a000000000000000000000000000000000000000000000000000000000815260040180806020018281038252603281526020018061422a6032913960400191505060405180910390fd5b50505050565b6000806000611a2560006040516020016119c29190613f3b565b6040516020818303038152906040528051906020012060001c8c8c8080601f016020809104026020016040519081016040528093929190818152602001838380828437600081840152601f19601f82011690508083019250505050505050611e28565b92509250925082611a6b576040517f08c379a0000000000000000000000000000000000000000000000000000000008152600401611a6290613e12565b60405180910390fd5b60008282604051602001611a80929190613f0b565b6040516020818303038152906040528051906020012060001c9050611aa5338461156c565b611ae4576040517f08c379a0000000000000000000000000000000000000000000000000000000008152600401611adb90613df2565b60405180910390fd5b611b0c816097600086815260200190815260200160002060060161165c90919063ffffffff16565b611b4b576040517f08c379a0000000000000000000000000000000000000000000000000000000008152600401611b4290613e32565b60405180910390fd5b611b558a82612917565b60006097600085815260200190815260200160002090506000609760008481526020019081526020016000209050600182600101540181600101819055508481600001819055508989826003019190611baf929190613121565b508d8d826004019190611bc3929190613121565b508a8160020160006101000a81548173ffffffffffffffffffffffffffffffffffffffff021916908373ffffffffffffffffffffffffffffffffffffffff1602179055508787826005019190611c1a929190613121565b505050827f4be7df4d4dd45fd5c8095cf2b3d4b5c14d2fcdae37c306d45750ed229e59827f828e8e8e8e8e8e8e8e604051611c5d99989796959493929190613e8f565b60405180910390a2505050505050505050505050565b60606000829050611e206040518060400160405280600481526020017f01551220000000000000000000000000000000000000000000000000000000008152506002836040518082805190602001908083835b60208310611ce95780518252602082019150602081019050602083039250611cc6565b6001836020036101000a038019825116818451168082178552505050505050905001915050602060405180830381855afa158015611d2b573d6000803e3d6000fd5b5050506040513d6020811015611d4057600080fd5b81019080805190602001909291905050506040516020018083805190602001908083835b60208310611d875780518252602082019150602081019050602083039250611d64565b6001836020036101000a0380198251168184511680821785525050505050509050018281526020019250505060405160208183030381529060405260056040518060400160405280602081526020017f6162636465666768696a6b6c6d6e6f707172737475767778797a3233343536378152507f6200000000000000000000000000000000000000000000000000000000000000612b0b565b915050919050565b60008060606000808660001b90506000602087019050600081905060008851905060606000808386019050600080865191505b82871161209357605c60f81b7effffffffffffffffffffffffffffffffffffffffffffffffffffffffffffff1916827effffffffffffffffffffffffffffffffffffffffffffffffffffffffffffff19161415611f00576000806040518060400160405280600981526020017f71756f74656361736500000000000000000000000000000000000000000000008152509c509c509c5050505050505050505050612111565b602e8260f81c60ff1614156120135760018888030390508067ffffffffffffffff81118015611f2e57600080fd5b506040519080825280601f01601f191660200182016040528015611f615781602001600182028036833780820191505090505b509450602085019350611f75848983612d0f565b88856040516020018083815260200180602001828103825283818151815260200191508051906020019080838360005b83811015611fc0578082015181840152602081019050611fa5565b50505050905090810190601f168015611fed5780820380516001836020036101000a031916815260200191505b509350505050604051602081830303815290604052805190602001209850869750612082565b60618260f81c60ff16108061202e5750607a8260f81c60ff16115b15612081576000806040518060400160405280601281526020017f6661696c206e6f74206c6f7765726361736500000000000000000000000000008152509c509c509c5050505050505050505050612111565b5b865191508680600101975050611e5b565b60018888030390508067ffffffffffffffff811180156120b257600080fd5b506040519080825280601f01601f1916602001820160405280156120e55781602001600182028036833780820191505090505b5094506020850193506120f9848983612d0f565b60018960001c869c509c509c50505050505050505050505b9250925092565b60006121248383612d58565b61217d578260000182908060018154018082558091505060019003906000526020600020016000909190919091505582600001805490508360010160008481526020019081526020016000208190555060019050612182565b600090505b92915050565b600080846001016000858152602001908152602001600020549050600081141561222f5784600001604051806040016040528086815260200185815250908060018154018082558091505060019003906000526020600020906002020160009091909190915060008201518160000155602082015181600101555050846000018054905085600101600086815260200190815260200160002081905550600191505061225d565b8285600001600183038154811061224257fe5b90600052602060002090600202016001018190555060009150505b9392505050565b600080836001016000848152602001908152602001600020541415905092915050565b600081600001805490509050919050565b8273ffffffffffffffffffffffffffffffffffffffff166122b882610c87565b73ffffffffffffffffffffffffffffffffffffffff1614612324576040517f08c379a00000000000000000000000000000000000000000000000000000000081526004018080602001828103825260298152602001806143ab6029913960400191505060405180910390fd5b600073ffffffffffffffffffffffffffffffffffffffff168273ffffffffffffffffffffffffffffffffffffffff1614156123aa576040517f08c379a000000000000000000000000000000000000000000000000000000000815260040180806020018281038252602481526020018061425c6024913960400191505060405180910390fd5b6123b5838383612d7b565b6123c06000826116ea565b61241181606560008673ffffffffffffffffffffffffffffffffffffffff1673ffffffffffffffffffffffffffffffffffffffff168152602001908152602001600020612d8090919063ffffffff16565b5061246381606560008573ffffffffffffffffffffffffffffffffffffffff1673ffffffffffffffffffffffffffffffffffffffff16815260200190815260200160002061165c90919063ffffffff16565b5061247a818360666116769092919063ffffffff16565b50808273ffffffffffffffffffffffffffffffffffffffff168473ffffffffffffffffffffffffffffffffffffffff167fddf252ad1be2c89b69c2b068fc378daa952ba7f163c4a11628f55a4df523b3ef60405160405180910390a4505050565b60008183600001805490501161253c576040517f08c379a00000000000000000000000000000000000000000000000000000000081526004018080602001828103825260228152602001806142086022913960400191505060405180910390fd5b82600001828154811061254b57fe5b9060005260206000200154905092915050565b600080828460000180549050116125c0576040517f08c379a000000000000000000000000000000000000000000000000000000000815260040180806020018281038252602281526020018061435d6022913960400191505060405180910390fd5b60008460000184815481106125d157fe5b906000526020600020906002020190508060000154816001015492509250509250929050565b600081600001805490509050919050565b600080846001016000858152602001908152602001600020549050600081141583906126cf576040517f08c379a00000000000000000000000000000000000000000000000000000000081526004018080602001828103825283818151815260200191508051906020019080838360005b83811015612694578082015181840152602081019050612679565b50505050905090810190601f1680156126c15780820380516001836020036101000a031916815260200191505b509250505060405180910390fd5b508460000160018203815481106126e257fe5b9060005260206000209060020201600101549150509392505050565b600061271f8473ffffffffffffffffffffffffffffffffffffffff16612d9a565b61272c576001905061290f565b600061289663150b7a0260e01b6127416116e2565b888787604051602401808573ffffffffffffffffffffffffffffffffffffffff1681526020018473ffffffffffffffffffffffffffffffffffffffff16815260200183815260200180602001828103825283818151815260200191508051906020019080838360005b838110156127c55780820151818401526020810190506127aa565b50505050905090810190601f1680156127f25780820380516001836020036101000a031916815260200191505b5095505050505050604051602081830303815290604052907bffffffffffffffffffffffffffffffffffffffffffffffffffffffff19166020820180517bffffffffffffffffffffffffffffffffffffffffffffffffffffffff838183161783525050505060405180606001604052806032815260200161422a603291398773ffffffffffffffffffffffffffffffffffffffff16612dad9092919063ffffffff16565b905060008180602001905160208110156128af57600080fd5b8101908080519060200190929190505050905063150b7a0260e01b7bffffffffffffffffffffffffffffffffffffffffffffffffffffffff1916817bffffffffffffffffffffffffffffffffffffffffffffffffffffffff191614925050505b949350505050565b600073ffffffffffffffffffffffffffffffffffffffff168273ffffffffffffffffffffffffffffffffffffffff1614156129ba576040517f08c379a00000000000000000000000000000000000000000000000000000000081526004018080602001828103825260208152602001807f4552433732313a206d696e7420746f20746865207a65726f206164647265737381525060200191505060405180910390fd5b6129c3816116c5565b15612a36576040517f08c379a000000000000000000000000000000000000000000000000000000000815260040180806020018281038252601c8152602001807f4552433732313a20746f6b656e20616c7265616479206d696e7465640000000081525060200191505060405180910390fd5b612a4260008383612d7b565b612a9381606560008573ffffffffffffffffffffffffffffffffffffffff1673ffffffffffffffffffffffffffffffffffffffff16815260200190815260200160002061165c90919063ffffffff16565b50612aaa818360666116769092919063ffffffff16565b50808273ffffffffffffffffffffffffffffffffffffffff16600073ffffffffffffffffffffffffffffffffffffffff167fddf252ad1be2c89b69c2b068fc378daa952ba7f163c4a11628f55a4df523b3ef60405160405180910390a45050565b6060600060088651029050600080868381612b2257fe5b0614612b2f576002612b32565b60015b60ff16868381612b3e57fe5b0401905060008167ffffffffffffffff81118015612b5b57600080fd5b506040519080825280601f01601f191660200182016040528015612b8e5781602001600182028036833780820191505090505b50905060006001886001901b0390506000808784600081518110612bae57fe5b60200101907effffffffffffffffffffffffffffffffffffffffffffffffffffffffffffff1916908160001a90535060006001905060005b8c51811015612c99578c8181518110612bfb57fe5b602001015160f81c60f81b60f81c60ff16600884901b1792506008840193505b8b841115612c8c578b840393508a8484901c861681518110612c3957fe5b602001015160f81c60f81b868381518110612c5057fe5b60200101907effffffffffffffffffffffffffffffffffffffffffffffffffffffffffffff1916908160001a9053508180600101925050612c1b565b8080600101915050612be6565b506000831115612cfd5789838c0383901b851681518110612cb657fe5b602001015160f81c60f81b858281518110612ccd57fe5b60200101907effffffffffffffffffffffffffffffffffffffffffffffffffffffffffffff1916908160001a9053505b84975050505050505050949350505050565b5b60208110612d335781518352602083019250602082019150602081039050612d10565b60006001826020036101000a0390508019835116818551168181178652505050505050565b600080836001016000848152602001908152602001600020541415905092915050565b505050565b6000612d92836000018360001b612dc5565b905092915050565b600080823b905060008111915050919050565b6060612dbc8484600085612ead565b90509392505050565b60008083600101600084815260200190815260200160002054905060008114612ea15760006001820390506000600186600001805490500390506000866000018281548110612e1057fe5b9060005260206000200154905080876000018481548110612e2d57fe5b9060005260206000200181905550600183018760010160008381526020019081526020016000208190555086600001805480612e6557fe5b60019003818190600052602060002001600090559055866001016000878152602001908152602001600020600090556001945050505050612ea7565b60009150505b92915050565b606082471015612f08576040517f08c379a00000000000000000000000000000000000000000000000000000000081526004018080602001828103825260268152602001806142806026913960400191505060405180910390fd5b612f1185612d9a565b612f83576040517f08c379a000000000000000000000000000000000000000000000000000000000815260040180806020018281038252601d8152602001807f416464726573733a2063616c6c20746f206e6f6e2d636f6e747261637400000081525060200191505060405180910390fd5b6000808673ffffffffffffffffffffffffffffffffffffffff1685876040518082805190602001908083835b60208310612fd25780518252602082019150602081019050602083039250612faf565b6001836020036101000a03801982511681845116808217855250505050505090500191505060006040518083038185875af1925050503d8060008114613034576040519150601f19603f3d011682016040523d82523d6000602084013e613039565b606091505b5091509150613049828286613055565b92505050949350505050565b606083156130655782905061311a565b6000835111156130785782518084602001fd5b816040517f08c379a00000000000000000000000000000000000000000000000000000000081526004018080602001828103825283818151815260200191508051906020019080838360005b838110156130df5780820151818401526020810190506130c4565b50505050905090810190601f16801561310c5780820380516001836020036101000a031916815260200191505b509250505060405180910390fd5b9392505050565b828054600181600116156101000203166002900490600052602060002090601f016020900481019282613157576000855561319e565b82601f1061317057803560ff191683800117855561319e565b8280016001018555821561319e579182015b8281111561319d578235825591602001919060010190613182565b5b5090506131ab9190613220565b5090565b604051806101000160405280600073ffffffffffffffffffffffffffffffffffffffff1681526020016000815260200160008152602001600073ffffffffffffffffffffffffffffffffffffffff168152602001606081526020016060815260200160608152602001606081525090565b5b80821115613239576000816000905550600101613221565b5090565b600061325061324b84613f9a565b613f69565b9050808382526020820190508260005b85811015613290578135850161327688826133f3565b845260208401935060208301925050600181019050613260565b5050509392505050565b60006132ad6132a884613fc6565b613f69565b9050828152602081018484840111156132c557600080fd5b6132d0848285614156565b509392505050565b60006132eb6132e684613ff6565b613f69565b90508281526020810184848401111561330357600080fd5b61330e848285614156565b509392505050565b600081359050613325816141ab565b92915050565b600082601f83011261333c57600080fd5b813561334c84826020860161323d565b91505092915050565b600081359050613364816141c2565b92915050565b600081359050613379816141d9565b92915050565b600082601f83011261339057600080fd5b81356133a084826020860161329a565b91505092915050565b60008083601f8401126133bb57600080fd5b8235905067ffffffffffffffff8111156133d457600080fd5b6020830191508360018202830111156133ec57600080fd5b9250929050565b600082601f83011261340457600080fd5b81356134148482602086016132d8565b91505092915050565b60008135905061342c816141f0565b92915050565b60006020828403121561344457600080fd5b600061345284828501613316565b91505092915050565b6000806040838503121561346e57600080fd5b600061347c85828601613316565b925050602061348d85828601613316565b9150509250929050565b6000806000606084860312156134ac57600080fd5b60006134ba86828701613316565b93505060206134cb86828701613316565b92505060406134dc8682870161341d565b9150509250925092565b600080600080608085870312156134fc57600080fd5b600061350a87828801613316565b945050602061351b87828801613316565b935050604061352c8782880161341d565b925050606085013567ffffffffffffffff81111561354957600080fd5b6135558782880161337f565b91505092959194509250565b6000806040838503121561357457600080fd5b600061358285828601613316565b925050602061359385828601613355565b9150509250929050565b600080604083850312156135b057600080fd5b60006135be85828601613316565b92505060206135cf8582860161341d565b9150509250929050565b6000602082840312156135eb57600080fd5b600082013567ffffffffffffffff81111561360557600080fd5b6136118482850161332b565b91505092915050565b60006020828403121561362c57600080fd5b600061363a8482850161336a565b91505092915050565b60008060008060008060008060a0898b03121561365f57600080fd5b600089013567ffffffffffffffff81111561367957600080fd5b6136858b828c016133a9565b985098505060206136988b828c01613316565b96505060406136a98b828c01613316565b955050606089013567ffffffffffffffff8111156136c657600080fd5b6136d28b828c016133a9565b9450945050608089013567ffffffffffffffff8111156136f157600080fd5b6136fd8b828c016133a9565b92509250509295985092959890939650565b60006020828403121561372157600080fd5b600082013567ffffffffffffffff81111561373b57600080fd5b613747848285016133f3565b91505092915050565b60006020828403121561376257600080fd5b60006137708482850161341d565b91505092915050565b6000806040838503121561378c57600080fd5b600061379a8582860161341d565b92505060206137ab85828601613316565b9150509250929050565b6000806000604084860312156137ca57600080fd5b60006137d88682870161341d565b935050602084013567ffffffffffffffff8111156137f557600080fd5b613801868287016133a9565b92509250509250925092565b60006138198383613ca2565b60208301905092915050565b61382e81614120565b82525050565b61383d816140ac565b82525050565b61384c816140ac565b82525050565b600061385d8261404b565b613867818561406e565b935061387283614026565b8060005b838110156138a357815161388a888261380d565b975061389583614061565b925050600181019050613876565b5085935050505092915050565b6138b9816140be565b82525050565b60006138cb8385614090565b93506138d8838584614156565b6138e18361419a565b840190509392505050565b60006138f782614056565b613901818561407f565b9350613911818560208601614165565b61391a8161419a565b840191505092915050565b600061393082614056565b61393a8185614090565b935061394a818560208601614165565b6139538161419a565b840191505092915050565b600061396982614056565b61397381856140a1565b9350613983818560208601614165565b80840191505092915050565b6000815460018116600081146139ac57600181146139d157613a15565b607f60028304166139bd81876140a1565b955060ff1983168652808601935050613a15565b600282046139df81876140a1565b95506139ea85614036565b60005b82811015613a0c578154818901526001820191506020810190506139ed565b82880195505050505b505092915050565b6000613a2a601283614090565b91507f73656e6465722063616e742063726561746500000000000000000000000000006000830152602082019050919050565b6000613a6a600483614090565b91507f524f4f54000000000000000000000000000000000000000000000000000000006000830152602082019050919050565b6000613aaa6009836140a1565b91507f7b226e616d65223a2200000000000000000000000000000000000000000000006000830152600982019050919050565b6000613aea601983614090565b91507f646f6d61696e206661696c656420746f2076616c6964617465000000000000006000830152602082019050919050565b6000613b2a6007836140a1565b91507f697066733a2f2f000000000000000000000000000000000000000000000000006000830152600782019050919050565b6000613b6a6002836140a1565b91507f227d0000000000000000000000000000000000000000000000000000000000006000830152600282019050919050565b6000613baa601a83614090565b91507f646f6d61696e20616c726561647920696e206368696c6472656e0000000000006000830152602082019050919050565b600061010083016000830151613bf66000860182613834565b506020830151613c096020860182613ca2565b506040830151613c1c6040860182613ca2565b506060830151613c2f6060860182613834565b5060808301518482036080860152613c4782826138ec565b91505060a083015184820360a0860152613c6182826138ec565b91505060c083015184820360c0860152613c7b82826138ec565b91505060e083015184820360e0860152613c958282613852565b9150508091505092915050565b613cab81614116565b82525050565b613cba81614116565b82525050565b6000613ccb82613a9d565b9150613cd7828461398f565b9150613ce282613b5d565b915081905092915050565b6000613cf882613b1d565b9150613d04828461395e565b915081905092915050565b6000602082019050613d246000830184613843565b92915050565b6000602082019050613d3f6000830184613825565b92915050565b6000602082019050613d5a60008301846138b0565b92915050565b6000608082019050613d7560008301876138b0565b613d826020830186613cb1565b613d8f6040830185613cb1565b8181036060830152613da18184613925565b905095945050505050565b60006020820190508181036000830152613dc78184866138bf565b90509392505050565b60006020820190508181036000830152613dea8184613925565b905092915050565b60006020820190508181036000830152613e0b81613a1d565b9050919050565b60006020820190508181036000830152613e2b81613add565b9050919050565b60006020820190508181036000830152613e4b81613b9d565b9050919050565b60006020820190508181036000830152613e6c8184613bdd565b905092915050565b6000602082019050613e896000830184613cb1565b92915050565b600060c082019050613ea4600083018c613cb1565b8181036020830152613eb7818a8c6138bf565b9050613ec66040830189613843565b613ed36060830188613843565b8181036080830152613ee68186886138bf565b905081810360a0830152613efb8184866138bf565b90509a9950505050505050505050565b6000604082019050613f206000830185613cb1565b8181036020830152613f328184613925565b90509392505050565b6000604082019050613f506000830184613cb1565b8181036020830152613f6181613a5d565b905092915050565b6000604051905081810181811067ffffffffffffffff82111715613f9057613f8f614198565b5b8060405250919050565b600067ffffffffffffffff821115613fb557613fb4614198565b5b602082029050602081019050919050565b600067ffffffffffffffff821115613fe157613fe0614198565b5b601f19601f8301169050602081019050919050565b600067ffffffffffffffff82111561401157614010614198565b5b601f19601f8301169050602081019050919050565b6000819050602082019050919050565b60008190508160005260206000209050919050565b600081519050919050565b600081519050919050565b6000602082019050919050565b600082825260208201905092915050565b600082825260208201905092915050565b600082825260208201905092915050565b600081905092915050565b60006140b7826140f6565b9050919050565b60008115159050919050565b60007fffffffff0000000000000000000000000000000000000000000000000000000082169050919050565b600073ffffffffffffffffffffffffffffffffffffffff82169050919050565b6000819050919050565b600061412b82614132565b9050919050565b600061413d82614144565b9050919050565b600061414f826140f6565b9050919050565b82818337600083830152505050565b60005b83811015614183578082015181840152602081019050614168565b83811115614192576000848401525b50505050565bfe5b6000601f19601f8301169050919050565b6141b4816140ac565b81146141bf57600080fd5b50565b6141cb816140be565b81146141d657600080fd5b50565b6141e2816140ca565b81146141ed57600080fd5b50565b6141f981614116565b811461420457600080fd5b5056fe456e756d657261626c655365743a20696e646578206f7574206f6620626f756e64734552433732313a207472616e7366657220746f206e6f6e20455243373231526563656976657220696d706c656d656e7465724552433732313a207472616e7366657220746f20746865207a65726f2061646472657373416464726573733a20696e73756666696369656e742062616c616e636520666f722063616c6c4552433732313a206f70657261746f7220717565727920666f72206e6f6e6578697374656e7420746f6b656e4552433732313a20617070726f76652063616c6c6572206973206e6f74206f776e6572206e6f7220617070726f76656420666f7220616c6c4552433732313a2062616c616e636520717565727920666f7220746865207a65726f20616464726573734552433732313a206f776e657220717565727920666f72206e6f6e6578697374656e7420746f6b656e456e756d657261626c654d61703a20696e646578206f7574206f6620626f756e64734552433732313a20617070726f76656420717565727920666f72206e6f6e6578697374656e7420746f6b656e4552433732313a207472616e73666572206f6620746f6b656e2074686174206973206e6f74206f776e4552433732313a20617070726f76616c20746f2063757272656e74206f776e65724552433732313a207472616e736665722063616c6c6572206973206e6f74206f776e6572206e6f7220617070726f766564a26469706673582212204b309788c06c7bf349a720d5457632c892d3b6fdfcbdaf39a102eb0121d9664964736f6c63430007060033496e697469616c697a61626c653a20636f6e747261637420697320616c726561647920696e697469616c697a6564",
  "linkReferences": {},
  "deployedLinkReferences": {}
}