{
  "_format": "hh-sol-artifact-1",
  "contractName": "Registry",
  "sourceName": "contracts/Registry.sol",
  "abi": [
    {
      "inputs": [
        {
          "internalType": "address",
          "name": "_owner",
          "type": "address"
        },
        {
          "internalType": "address",
          "name": "_controller",
          "type": "address"
        },
        {
          "internalType": "string",
          "name": "_resolver",
          "type": "string"
        },
        {
          "internalType": "string",
          "name": "_image",
          "type": "string"
        }
      ],
      "stateMutability": "nonpayable",
      "type": "constructor"
    },
    {
      "anonymous": false,
      "inputs": [
        {
          "indexed": true,
          "internalType": "address",
          "name": "owner",
          "type": "address"
        },
        {
          "indexed": true,
          "internalType": "address",
          "name": "approved",
          "type": "address"
        },
        {
          "indexed": true,
          "internalType": "uint256",
          "name": "tokenId",
          "type": "uint256"
        }
      ],
      "name": "Approval",
      "type": "event"
    },
    {
      "anonymous": false,
      "inputs": [
        {
          "indexed": true,
          "internalType": "address",
          "name": "owner",
          "type": "address"
        },
        {
          "indexed": true,
          "internalType": "address",
          "name": "operator",
          "type": "address"
        },
        {
          "indexed": false,
          "internalType": "bool",
          "name": "approved",
          "type": "bool"
        }
      ],
      "name": "ApprovalForAll",
      "type": "event"
    },
    {
      "anonymous": false,
      "inputs": [
        {
          "indexed": true,
          "internalType": "uint256",
          "name": "id",
          "type": "uint256"
        },
        {
          "indexed": true,
          "internalType": "address",
          "name": "oldController",
          "type": "address"
        },
        {
          "indexed": true,
          "internalType": "address",
          "name": "newController",
          "type": "address"
        },
        {
          "indexed": false,
          "internalType": "address",
          "name": "sender",
          "type": "address"
        }
      ],
      "name": "ControllerSet",
      "type": "event"
    },
    {
      "anonymous": false,
      "inputs": [
        {
          "indexed": true,
          "internalType": "uint256",
          "name": "parentId",
          "type": "uint256"
        },
        {
          "indexed": false,
          "internalType": "uint256",
          "name": "tokenId",
          "type": "uint256"
        },
        {
          "indexed": false,
          "internalType": "string",
          "name": "domain",
          "type": "string"
        },
        {
          "indexed": false,
          "internalType": "address",
          "name": "owner",
          "type": "address"
        },
        {
          "indexed": false,
          "internalType": "address",
          "name": "controller",
          "type": "address"
        },
        {
          "indexed": false,
          "internalType": "string",
          "name": "resolver",
          "type": "string"
        },
        {
          "indexed": false,
          "internalType": "string",
          "name": "image",
          "type": "string"
        }
      ],
      "name": "DomainCreated",
      "type": "event"
    },
    {
      "anonymous": false,
      "inputs": [
        {
          "indexed": true,
          "internalType": "address",
          "name": "owner",
          "type": "address"
        },
        {
          "indexed": true,
          "internalType": "uint256",
          "name": "id",
          "type": "uint256"
        },
        {
          "indexed": false,
          "internalType": "string",
          "name": "image",
          "type": "string"
        }
      ],
      "name": "ImageSet",
      "type": "event"
    },
    {
      "anonymous": false,
      "inputs": [
        {
          "indexed": true,
          "internalType": "address",
          "name": "owner",
          "type": "address"
        },
        {
          "indexed": true,
          "internalType": "uint256",
          "name": "id",
          "type": "uint256"
        },
        {
          "indexed": false,
          "internalType": "string",
          "name": "resolver",
          "type": "string"
        }
      ],
      "name": "ResolverSet",
      "type": "event"
    },
    {
      "anonymous": false,
      "inputs": [
        {
          "indexed": true,
          "internalType": "address",
          "name": "from",
          "type": "address"
        },
        {
          "indexed": true,
          "internalType": "address",
          "name": "to",
          "type": "address"
        },
        {
          "indexed": true,
          "internalType": "uint256",
          "name": "tokenId",
          "type": "uint256"
        }
      ],
      "name": "Transfer",
      "type": "event"
    },
    {
      "inputs": [],
      "name": "ROOT_ID",
      "outputs": [
        {
          "internalType": "uint256",
          "name": "",
          "type": "uint256"
        }
      ],
      "stateMutability": "view",
      "type": "function"
    },
    {
      "inputs": [
        {
          "internalType": "address",
          "name": "to",
          "type": "address"
        },
        {
          "internalType": "uint256",
          "name": "tokenId",
          "type": "uint256"
        }
      ],
      "name": "approve",
      "outputs": [],
      "stateMutability": "nonpayable",
      "type": "function"
    },
    {
      "inputs": [
        {
          "internalType": "address",
          "name": "owner",
          "type": "address"
        }
      ],
      "name": "balanceOf",
      "outputs": [
        {
          "internalType": "uint256",
          "name": "",
          "type": "uint256"
        }
      ],
      "stateMutability": "view",
      "type": "function"
    },
    {
      "inputs": [],
      "name": "baseURI",
      "outputs": [
        {
          "internalType": "string",
          "name": "",
          "type": "string"
        }
      ],
      "stateMutability": "view",
      "type": "function"
    },
    {
      "inputs": [
        {
          "internalType": "address",
          "name": "creator",
          "type": "address"
        },
        {
          "internalType": "uint256",
          "name": "id",
          "type": "uint256"
        }
      ],
      "name": "canCreate",
      "outputs": [
        {
          "internalType": "bool",
          "name": "",
          "type": "bool"
        }
      ],
      "stateMutability": "nonpayable",
      "type": "function"
    },
    {
      "inputs": [
        {
          "internalType": "uint256",
          "name": "id",
          "type": "uint256"
        }
      ],
      "name": "controllerOf",
      "outputs": [
        {
          "internalType": "address",
          "name": "",
          "type": "address"
        }
      ],
      "stateMutability": "view",
      "type": "function"
    },
    {
      "inputs": [
        {
          "internalType": "string",
          "name": "domain",
          "type": "string"
        },
        {
          "internalType": "address",
          "name": "_owner",
          "type": "address"
        },
        {
          "internalType": "address",
          "name": "_controller",
          "type": "address"
        },
        {
          "internalType": "string",
          "name": "resolver",
          "type": "string"
        },
        {
          "internalType": "string",
          "name": "image",
          "type": "string"
        }
      ],
      "name": "createDomain",
      "outputs": [],
      "stateMutability": "nonpayable",
      "type": "function"
    },
    {
      "inputs": [
        {
          "internalType": "uint256",
          "name": "id",
          "type": "uint256"
        }
      ],
      "name": "entries",
      "outputs": [
        {
          "components": [
            {
              "internalType": "address",
              "name": "owner",
              "type": "address"
            },
            {
              "internalType": "uint256",
              "name": "parent",
              "type": "uint256"
            },
            {
              "internalType": "uint256",
              "name": "depth",
              "type": "uint256"
            },
            {
              "internalType": "address",
              "name": "controller",
              "type": "address"
            },
            {
              "internalType": "string",
              "name": "resolver",
              "type": "string"
            },
            {
              "internalType": "string",
              "name": "image",
              "type": "string"
            },
            {
              "internalType": "string",
              "name": "domain",
              "type": "string"
            },
            {
              "internalType": "uint256[]",
              "name": "children",
              "type": "uint256[]"
            }
          ],
          "internalType": "struct Registry.EntryView",
          "name": "out",
          "type": "tuple"
        }
      ],
      "stateMutability": "view",
      "type": "function"
    },
    {
      "inputs": [
        {
          "internalType": "uint256",
          "name": "tokenId",
          "type": "uint256"
        }
      ],
      "name": "getApproved",
      "outputs": [
        {
          "internalType": "address",
          "name": "",
          "type": "address"
        }
      ],
      "stateMutability": "view",
      "type": "function"
    },
    {
      "inputs": [
        {
          "internalType": "uint256",
          "name": "id",
          "type": "uint256"
        }
      ],
      "name": "getChildLength",
      "outputs": [
        {
          "internalType": "uint256",
          "name": "",
          "type": "uint256"
        }
      ],
      "stateMutability": "view",
      "type": "function"
    },
    {
      "inputs": [
        {
          "internalType": "uint256",
          "name": "id",
          "type": "uint256"
        }
      ],
      "name": "getDepth",
      "outputs": [
        {
          "internalType": "uint256",
          "name": "",
          "type": "uint256"
        }
      ],
      "stateMutability": "view",
      "type": "function"
    },
    {
      "inputs": [
        {
          "internalType": "string[]",
          "name": "path",
          "type": "string[]"
        }
      ],
      "name": "getId",
      "outputs": [
        {
          "internalType": "uint256",
          "name": "",
          "type": "uint256"
        }
      ],
      "stateMutability": "pure",
      "type": "function"
    },
    {
      "inputs": [
        {
          "internalType": "string[]",
          "name": "path",
          "type": "string[]"
        }
      ],
      "name": "getOwner",
      "outputs": [
        {
          "internalType": "address",
          "name": "",
          "type": "address"
        }
      ],
      "stateMutability": "view",
      "type": "function"
    },
    {
      "inputs": [
        {
          "internalType": "address",
          "name": "owner",
          "type": "address"
        },
        {
          "internalType": "address",
          "name": "operator",
          "type": "address"
        }
      ],
      "name": "isApprovedForAll",
      "outputs": [
        {
          "internalType": "bool",
          "name": "",
          "type": "bool"
        }
      ],
      "stateMutability": "view",
      "type": "function"
    },
    {
      "inputs": [],
      "name": "name",
      "outputs": [
        {
          "internalType": "string",
          "name": "",
          "type": "string"
        }
      ],
      "stateMutability": "view",
      "type": "function"
    },
    {
      "inputs": [
        {
          "internalType": "uint256",
          "name": "tokenId",
          "type": "uint256"
        }
      ],
      "name": "ownerOf",
      "outputs": [
        {
          "internalType": "address",
          "name": "",
          "type": "address"
        }
      ],
      "stateMutability": "view",
      "type": "function"
    },
    {
      "inputs": [
        {
          "internalType": "address",
          "name": "from",
          "type": "address"
        },
        {
          "internalType": "address",
          "name": "to",
          "type": "address"
        },
        {
          "internalType": "uint256",
          "name": "tokenId",
          "type": "uint256"
        }
      ],
      "name": "safeTransferFrom",
      "outputs": [],
      "stateMutability": "nonpayable",
      "type": "function"
    },
    {
      "inputs": [
        {
          "internalType": "address",
          "name": "from",
          "type": "address"
        },
        {
          "internalType": "address",
          "name": "to",
          "type": "address"
        },
        {
          "internalType": "uint256",
          "name": "tokenId",
          "type": "uint256"
        },
        {
          "internalType": "bytes",
          "name": "_data",
          "type": "bytes"
        }
      ],
      "name": "safeTransferFrom",
      "outputs": [],
      "stateMutability": "nonpayable",
      "type": "function"
    },
    {
      "inputs": [
        {
          "internalType": "address",
          "name": "operator",
          "type": "address"
        },
        {
          "internalType": "bool",
          "name": "approved",
          "type": "bool"
        }
      ],
      "name": "setApprovalForAll",
      "outputs": [],
      "stateMutability": "nonpayable",
      "type": "function"
    },
    {
      "inputs": [
        {
          "internalType": "uint256",
          "name": "id",
          "type": "uint256"
        },
        {
          "internalType": "address",
          "name": "controller",
          "type": "address"
        }
      ],
      "name": "setController",
      "outputs": [],
      "stateMutability": "nonpayable",
      "type": "function"
    },
    {
      "inputs": [
        {
          "internalType": "uint256",
          "name": "id",
          "type": "uint256"
        },
        {
          "internalType": "string",
          "name": "image",
          "type": "string"
        }
      ],
      "name": "setImage",
      "outputs": [],
      "stateMutability": "nonpayable",
      "type": "function"
    },
    {
      "inputs": [
        {
          "internalType": "uint256",
          "name": "id",
          "type": "uint256"
        },
        {
          "internalType": "string",
          "name": "resolver",
          "type": "string"
        }
      ],
      "name": "setResolver",
      "outputs": [],
      "stateMutability": "nonpayable",
      "type": "function"
    },
    {
      "inputs": [
        {
          "internalType": "bytes4",
          "name": "interfaceId",
          "type": "bytes4"
        }
      ],
      "name": "supportsInterface",
      "outputs": [
        {
          "internalType": "bool",
          "name": "",
          "type": "bool"
        }
      ],
      "stateMutability": "view",
      "type": "function"
    },
    {
      "inputs": [],
      "name": "symbol",
      "outputs": [
        {
          "internalType": "string",
          "name": "",
          "type": "string"
        }
      ],
      "stateMutability": "view",
      "type": "function"
    },
    {
      "inputs": [
        {
          "internalType": "uint256",
          "name": "index",
          "type": "uint256"
        }
      ],
      "name": "tokenByIndex",
      "outputs": [
        {
          "internalType": "uint256",
          "name": "",
          "type": "uint256"
        }
      ],
      "stateMutability": "view",
      "type": "function"
    },
    {
      "inputs": [
        {
          "internalType": "address",
          "name": "owner",
          "type": "address"
        },
        {
          "internalType": "uint256",
          "name": "index",
          "type": "uint256"
        }
      ],
      "name": "tokenOfOwnerByIndex",
      "outputs": [
        {
          "internalType": "uint256",
          "name": "",
          "type": "uint256"
        }
      ],
      "stateMutability": "view",
      "type": "function"
    },
    {
      "inputs": [
        {
          "internalType": "uint256",
          "name": "token",
          "type": "uint256"
        }
      ],
      "name": "tokenURI",
      "outputs": [
        {
          "internalType": "string",
          "name": "out",
          "type": "string"
        }
      ],
      "stateMutability": "view",
      "type": "function"
    },
    {
      "inputs": [],
      "name": "totalSupply",
      "outputs": [
        {
          "internalType": "uint256",
          "name": "",
          "type": "uint256"
        }
      ],
      "stateMutability": "view",
      "type": "function"
    },
    {
      "inputs": [
        {
          "internalType": "address",
          "name": "from",
          "type": "address"
        },
        {
          "internalType": "address",
          "name": "to",
          "type": "address"
        },
        {
          "internalType": "uint256",
          "name": "tokenId",
          "type": "uint256"
        }
      ],
      "name": "transferFrom",
      "outputs": [],
      "stateMutability": "nonpayable",
      "type": "function"
    },
    {
      "inputs": [
        {
          "internalType": "string",
          "name": "_s",
          "type": "string"
        }
      ],
      "name": "validateDomain",
      "outputs": [
        {
          "internalType": "bool",
          "name": "valid",
          "type": "bool"
        },
        {
          "internalType": "uint256",
          "name": "parent",
          "type": "uint256"
        },
        {
          "internalType": "uint256",
          "name": "id",
          "type": "uint256"
        },
        {
          "internalType": "string",
          "name": "domain",
          "type": "string"
        }
      ],
      "stateMutability": "pure",
      "type": "function"
    }
  ],
  "bytecode": "0x60806040523480156200001157600080fd5b50604051620055ce380380620055ce833981810160405281019062000037919062000dc0565b620000b36040518060400160405280601181526020017f5a657230204e616d6520536572766963650000000000000000000000000000008152506040518060400160405280600381526020017f5a4e5300000000000000000000000000000000000000000000000000000000008152506200020b60201b60201c565b620000f1846000604051602001620000cc919062000f03565b6040516020818303038152906040528051906020012060001c6200034b60201b60201c565b600060976000806040516020016200010a919062000f03565b6040516020818303038152906040528051906020012060001c81526020019081526020016000209050838160020160006101000a81548173ffffffffffffffffffffffffffffffffffffffff021916908373ffffffffffffffffffffffffffffffffffffffff160217905550818160050190805190602001906200019092919062000c81565b5060007f4be7df4d4dd45fd5c8095cf2b3d4b5c14d2fcdae37c306d45750ed229e59827f6000604051602001620001c8919062000f03565b6040516020818303038152906040528051906020012060001c87878787604051620001f895949392919062000f35565b60405180910390a25050505050620010d9565b600060019054906101000a900460ff1680620002335750620002326200055f60201b60201c565b5b806200024a575060008054906101000a900460ff16155b620002a1576040517f08c379a000000000000000000000000000000000000000000000000000000000815260040180806020018281038252602e815260200180620055a0602e913960400191505060405180910390fd5b60008060019054906101000a900460ff161590508015620002f2576001600060016101000a81548160ff02191690831515021790555060016000806101000a81548160ff0219169083151502179055505b620003026200057660201b60201c565b620003126200068260201b60201c565b620003248383620007a660201b60201c565b8015620003465760008060016101000a81548160ff0219169083151502179055505b505050565b600073ffffffffffffffffffffffffffffffffffffffff168273ffffffffffffffffffffffffffffffffffffffff161415620003ef576040517f08c379a00000000000000000000000000000000000000000000000000000000081526004018080602001828103825260208152602001807f4552433732313a206d696e7420746f20746865207a65726f206164647265737381525060200191505060405180910390fd5b62000400816200092e60201b60201c565b1562000474576040517f08c379a000000000000000000000000000000000000000000000000000000000815260040180806020018281038252601c8152602001807f4552433732313a20746f6b656e20616c7265616479206d696e7465640000000081525060200191505060405180910390fd5b62000488600083836200095260201b60201c565b620004e081606560008573ffffffffffffffffffffffffffffffffffffffff1673ffffffffffffffffffffffffffffffffffffffff1681526020019081526020016000206200095760201b620016b81790919060201c565b50620004fe818360666200097960201b620016d2179092919060201c565b50808273ffffffffffffffffffffffffffffffffffffffff16600073ffffffffffffffffffffffffffffffffffffffff167fddf252ad1be2c89b69c2b068fc378daa952ba7f163c4a11628f55a4df523b3ef60405160405180910390a45050565b6000803090506000813b9050600081149250505090565b600060019054906101000a900460ff16806200059e57506200059d6200055f60201b60201c565b5b80620005b5575060008054906101000a900460ff16155b6200060c576040517f08c379a000000000000000000000000000000000000000000000000000000000815260040180806020018281038252602e815260200180620055a0602e913960400191505060405180910390fd5b60008060019054906101000a900460ff1615905080156200065d576001600060016101000a81548160ff02191690831515021790555060016000806101000a81548160ff0219169083151502179055505b80156200067f5760008060016101000a81548160ff0219169083151502179055505b50565b600060019054906101000a900460ff1680620006aa5750620006a96200055f60201b60201c565b5b80620006c1575060008054906101000a900460ff16155b62000718576040517f08c379a000000000000000000000000000000000000000000000000000000000815260040180806020018281038252602e815260200180620055a0602e913960400191505060405180910390fd5b60008060019054906101000a900460ff16159050801562000769576001600060016101000a81548160ff02191690831515021790555060016000806101000a81548160ff0219169083151502179055505b620007816301ffc9a760e01b620009b660201b60201c565b8015620007a35760008060016101000a81548160ff0219169083151502179055505b50565b600060019054906101000a900460ff1680620007ce5750620007cd6200055f60201b60201c565b5b80620007e5575060008054906101000a900460ff16155b6200083c576040517f08c379a000000000000000000000000000000000000000000000000000000000815260040180806020018281038252602e815260200180620055a0602e913960400191505060405180910390fd5b60008060019054906101000a900460ff1615905080156200088d576001600060016101000a81548160ff02191690831515021790555060016000806101000a81548160ff0219169083151502179055505b82606a9080519060200190620008a592919062000c81565b5081606b9080519060200190620008be92919062000c81565b50620008d76380ac58cd60e01b620009b660201b60201c565b620008ef635b5e139f60e01b620009b660201b60201c565b6200090763780e9d6360e01b620009b660201b60201c565b8015620009295760008060016101000a81548160ff0219169083151502179055505b505050565b60006200094b82606662000ac060201b620017071790919060201c565b9050919050565b505050565b600062000971836000018360001b62000ae260201b60201c565b905092915050565b6000620009ad846000018460001b8473ffffffffffffffffffffffffffffffffffffffff1660001b62000b5c60201b60201c565b90509392505050565b63ffffffff60e01b817bffffffffffffffffffffffffffffffffffffffffffffffffffffffff1916141562000a53576040517f08c379a000000000000000000000000000000000000000000000000000000000815260040180806020018281038252601c8152602001807f4552433136353a20696e76616c696420696e746572666163652069640000000081525060200191505060405180910390fd5b600160336000837bffffffffffffffffffffffffffffffffffffffffffffffffffffffff19167bffffffffffffffffffffffffffffffffffffffffffffffffffffffff1916815260200190815260200160002060006101000a81548160ff02191690831515021790555050565b600062000ada836000018360001b62000c3b60201b60201c565b905092915050565b600062000af6838362000c5e60201b60201c565b62000b5157826000018290806001815401808255809150506001900390600052602060002001600090919091909150558260000180549050836001016000848152602001908152602001600020819055506001905062000b56565b600090505b92915050565b600080846001016000858152602001908152602001600020549050600081141562000c055784600001604051806040016040528086815260200185815250908060018154018082558091505060019003906000526020600020906002020160009091909190915060008201518160000155602082015181600101555050846000018054905085600101600086815260200190815260200160002081905550600191505062000c34565b8285600001600183038154811062000c1957fe5b90600052602060002090600202016001018190555060009150505b9392505050565b600080836001016000848152602001908152602001600020541415905092915050565b600080836001016000848152602001908152602001600020541415905092915050565b828054600181600116156101000203166002900490600052602060002090601f01602090048101928262000cb9576000855562000d05565b82601f1062000cd457805160ff191683800117855562000d05565b8280016001018555821562000d05579182015b8281111562000d0457825182559160200191906001019062000ce7565b5b50905062000d14919062000d18565b5090565b5b8082111562000d3357600081600090555060010162000d19565b5090565b600062000d4e62000d488462000fe9565b62000fb5565b90508281526020810184848401111562000d6757600080fd5b62000d7484828562001076565b509392505050565b60008151905062000d8d81620010bf565b92915050565b600082601f83011262000da557600080fd5b815162000db784826020860162000d37565b91505092915050565b6000806000806080858703121562000dd757600080fd5b600062000de78782880162000d7c565b945050602062000dfa8782880162000d7c565b935050604085015167ffffffffffffffff81111562000e1857600080fd5b62000e268782880162000d93565b925050606085015167ffffffffffffffff81111562000e4457600080fd5b62000e528782880162000d93565b91505092959194509250565b62000e698162001038565b82525050565b600062000e7c826200101c565b62000e88818562001027565b935062000e9a81856020860162001076565b62000ea581620010ae565b840191505092915050565b600062000ebf60048362001027565b91507f524f4f54000000000000000000000000000000000000000000000000000000006000830152602082019050919050565b62000efd816200106c565b82525050565b600060408201905062000f1a600083018462000ef2565b818103602083015262000f2d8162000eb0565b905092915050565b600060c08201905062000f4c600083018862000ef2565b818103602083015262000f5f8162000eb0565b905062000f70604083018762000e5e565b62000f7f606083018662000e5e565b818103608083015262000f93818562000e6f565b905081810360a083015262000fa9818462000e6f565b90509695505050505050565b6000604051905081810181811067ffffffffffffffff8211171562000fdf5762000fde620010ac565b5b8060405250919050565b600067ffffffffffffffff821115620010075762001006620010ac565b5b601f19601f8301169050602081019050919050565b600081519050919050565b600082825260208201905092915050565b600062001045826200104c565b9050919050565b600073ffffffffffffffffffffffffffffffffffffffff82169050919050565b6000819050919050565b60005b838110156200109657808201518184015260208101905062001079565b83811115620010a6576000848401525b50505050565bfe5b6000601f19601f8301169050919050565b620010ca8162001038565b8114620010d657600080fd5b50565b6144b780620010e96000396000f3fe608060405234801561001057600080fd5b50600436106101da5760003560e01c806370a0823111610104578063c7acd4e7116100a2578063e985e9c511610071578063e985e9c5146105c3578063eb697611146105f3578063eedf792814610623578063fb78fef114610641576101da565b8063c7acd4e71461052b578063c87b56dd14610547578063c980c62614610577578063d4f5913414610593576101da565b8063a22cb465116100de578063a22cb46514610493578063a4a183b0146104af578063b30906d4146104df578063b88d4fde1461050f576101da565b806370a082311461041557806375e618c91461044557806395d89b4114610475576101da565b80632f745c591161017c578063593b844f1161014b578063593b844f146103675780635dd8f6aa146103975780636352211e146103c75780636c0360eb146103f7576101da565b80632f745c59146102cf5780633e5779ee146102ff57806342842e0e1461031b5780634f6ccce714610337576101da565b8063081812fc116101b8578063081812fc14610249578063095ea7b31461027957806318160ddd1461029557806323b872dd146102b3576101da565b806301ffc9a7146101df57806306fdde031461020f57806307c6b8411461022d575b600080fd5b6101f960048036038101906101f49190613676565b610674565b6040516102069190613da1565b60405180910390f35b6102176106dc565b6040516102249190613e2c565b60405180910390f35b61024760048036038101906102429190613811565b61077e565b005b610263600480360381019061025e91906137ac565b610842565b6040516102709190613d6b565b60405180910390f35b610293600480360381019061028e91906135f9565b6108dd565b005b61029d610a21565b6040516102aa9190613ed0565b60405180910390f35b6102cd60048036038101906102c891906134f3565b610a32565b005b6102e960048036038101906102e491906135f9565b610aa8565b6040516102f69190613ed0565b60405180910390f35b610319600480360381019061031491906137d5565b610b03565b005b610335600480360381019061033091906134f3565b610bdd565b005b610351600480360381019061034c91906137ac565b610bfd565b60405161035e9190613ed0565b60405180910390f35b610381600480360381019061037c91906137ac565b610c20565b60405161038e9190613ed0565b60405180910390f35b6103b160048036038101906103ac91906137ac565b610c47565b6040516103be9190613d6b565b60405180910390f35b6103e160048036038101906103dc91906137ac565b610c87565b6040516103ee9190613d6b565b60405180910390f35b6103ff610cbe565b60405161040c9190613e2c565b60405180910390f35b61042f600480360381019061042a919061348e565b610d60565b60405161043c9190613ed0565b60405180910390f35b61045f600480360381019061045a91906137ac565b610e35565b60405161046c9190613ed0565b60405180910390f35b61047d610e55565b60405161048a9190613e2c565b60405180910390f35b6104ad60048036038101906104a891906135bd565b610ef7565b005b6104c960048036038101906104c49190613635565b6110ad565b6040516104d69190613d6b565b60405180910390f35b6104f960048036038101906104f491906137ac565b6110c7565b6040516105069190613eae565b60405180910390f35b61052960048036038101906105249190613542565b6112e5565b005b6105456004803603810190610540919061369f565b61135d565b005b610561600480360381019061055c91906137ac565b611377565b60405161056e9190613e2c565b60405180910390f35b610591600480360381019061058c9190613811565b6113dc565b005b6105ad60048036038101906105a89190613635565b6114a0565b6040516105ba9190613ed0565b60405180910390f35b6105dd60048036038101906105d891906134b7565b611534565b6040516105ea9190613da1565b60405180910390f35b61060d600480360381019061060891906135f9565b6115c8565b60405161061a9190613da1565b60405180910390f35b61062b61160e565b6040516106389190613ed0565b60405180910390f35b61065b6004803603810190610656919061376b565b61163c565b60405161066b9493929190613dbc565b60405180910390f35b600060336000837bffffffffffffffffffffffffffffffffffffffffffffffffffffffff19167bffffffffffffffffffffffffffffffffffffffffffffffffffffffff1916815260200190815260200160002060009054906101000a900460ff169050919050565b6060606a8054600181600116156101000203166002900480601f0160208091040260200160405190810160405280929190818152602001828054600181600116156101000203166002900480156107745780601f1061074957610100808354040283529160200191610774565b820191906000526020600020905b81548152906001019060200180831161075757829003601f168201915b5050505050905090565b3373ffffffffffffffffffffffffffffffffffffffff1661079e84610c87565b73ffffffffffffffffffffffffffffffffffffffff16146107be57600080fd5b81816097600086815260200190815260200160002060030191906107e392919061317d565b50826107ee84610c87565b73ffffffffffffffffffffffffffffffffffffffff167f446f502bb4d7664110df81da26583f4c2a757d1890d992c2df364826e4f404678484604051610835929190613e08565b60405180910390a3505050565b600061084d82611721565b6108a2576040517f08c379a000000000000000000000000000000000000000000000000000000000815260040180806020018281038252602c8152602001806143db602c913960400191505060405180910390fd5b6068600083815260200190815260200160002060009054906101000a900473ffffffffffffffffffffffffffffffffffffffff169050919050565b60006108e882610c87565b90508073ffffffffffffffffffffffffffffffffffffffff168373ffffffffffffffffffffffffffffffffffffffff16141561096f576040517f08c379a00000000000000000000000000000000000000000000000000000000081526004018080602001828103825260218152602001806144306021913960400191505060405180910390fd5b8073ffffffffffffffffffffffffffffffffffffffff1661098e61173e565b73ffffffffffffffffffffffffffffffffffffffff1614806109bd57506109bc816109b761173e565b611534565b5b610a12576040517f08c379a000000000000000000000000000000000000000000000000000000000815260040180806020018281038252603881526020018061432e6038913960400191505060405180910390fd5b610a1c8383611746565b505050565b6000610a2d60666117ff565b905090565b610a43610a3d61173e565b82611814565b610a98576040517f08c379a00000000000000000000000000000000000000000000000000000000081526004018080602001828103825260318152602001806144516031913960400191505060405180910390fd5b610aa3838383611908565b505050565b6000610afb82606560008673ffffffffffffffffffffffffffffffffffffffff1673ffffffffffffffffffffffffffffffffffffffff16815260200190815260200160002061191890919063ffffffff16565b905092915050565b610b0d33836115c8565b610b1657600080fd5b806097600084815260200190815260200160002060020160006101000a81548173ffffffffffffffffffffffffffffffffffffffff021916908373ffffffffffffffffffffffffffffffffffffffff1602179055508073ffffffffffffffffffffffffffffffffffffffff16610b8b83610c47565b73ffffffffffffffffffffffffffffffffffffffff16837f0af36ec64da94c558c48ce7fb33930392a9a27325b8cb0584000835ffff08cdd33604051610bd19190613d86565b60405180910390a45050565b610bf8838383604051806020016040528060008152506112e5565b505050565b600080610c1483606661193290919063ffffffff16565b50905080915050919050565b6000610c406097600084815260200190815260200160002060060161195e565b9050919050565b60006097600083815260200190815260200160002060020160009054906101000a900473ffffffffffffffffffffffffffffffffffffffff169050919050565b6000610cb7826040518060600160405280602981526020016143906029913960666119739092919063ffffffff16565b9050919050565b6060606d8054600181600116156101000203166002900480601f016020809104026020016040519081016040528092919081815260200182805460018160011615610100020316600290048015610d565780601f10610d2b57610100808354040283529160200191610d56565b820191906000526020600020905b815481529060010190602001808311610d3957829003601f168201915b5050505050905090565b60008073ffffffffffffffffffffffffffffffffffffffff168273ffffffffffffffffffffffffffffffffffffffff161415610de7576040517f08c379a000000000000000000000000000000000000000000000000000000000815260040180806020018281038252602a815260200180614366602a913960400191505060405180910390fd5b610e2e606560008473ffffffffffffffffffffffffffffffffffffffff1673ffffffffffffffffffffffffffffffffffffffff16815260200190815260200160002061195e565b9050919050565b600060976000838152602001908152602001600020600101549050919050565b6060606b8054600181600116156101000203166002900480601f016020809104026020016040519081016040528092919081815260200182805460018160011615610100020316600290048015610eed5780601f10610ec257610100808354040283529160200191610eed565b820191906000526020600020905b815481529060010190602001808311610ed057829003601f168201915b5050505050905090565b610eff61173e565b73ffffffffffffffffffffffffffffffffffffffff168273ffffffffffffffffffffffffffffffffffffffff161415610fa0576040517f08c379a00000000000000000000000000000000000000000000000000000000081526004018080602001828103825260198152602001807f4552433732313a20617070726f766520746f2063616c6c65720000000000000081525060200191505060405180910390fd5b8060696000610fad61173e565b73ffffffffffffffffffffffffffffffffffffffff1673ffffffffffffffffffffffffffffffffffffffff16815260200190815260200160002060008473ffffffffffffffffffffffffffffffffffffffff1673ffffffffffffffffffffffffffffffffffffffff16815260200190815260200160002060006101000a81548160ff0219169083151502179055508173ffffffffffffffffffffffffffffffffffffffff1661105a61173e565b73ffffffffffffffffffffffffffffffffffffffff167f17307eab39ab6107e8899845ad3d59bd9653f200f220920489ca2b5937696c318360405180821515815260200191505060405180910390a35050565b60006110c06110bb836114a0565b610c87565b9050919050565b6110cf61320b565b60006097600084815260200190815260200160002090506110ef83610c87565b826000019073ffffffffffffffffffffffffffffffffffffffff16908173ffffffffffffffffffffffffffffffffffffffff168152505080600001548260200181815250508060020160009054906101000a900473ffffffffffffffffffffffffffffffffffffffff16826060019073ffffffffffffffffffffffffffffffffffffffff16908173ffffffffffffffffffffffffffffffffffffffff1681525050806004018054600181600116156101000203166002900480601f0160208091040260200160405190810160405280929190818152602001828054600181600116156101000203166002900480156112285780601f106111fd57610100808354040283529160200191611228565b820191906000526020600020905b81548152906001019060200180831161120b57829003601f168201915b50505050508260c001819052506112418160060161195e565b67ffffffffffffffff8111801561125757600080fd5b506040519080825280602002602001820160405280156112865781602001602082028036833780820191505090505b508260e0018190525060005b8260e00151518110156112de576112b5818360060161191890919063ffffffff16565b8360e0015182815181106112c557fe5b6020026020010181815250508080600101915050611292565b5050919050565b6112f66112f061173e565b83611814565b61134b576040517f08c379a00000000000000000000000000000000000000000000000000000000081526004018080602001828103825260318152602001806144516031913960400191505060405180910390fd5b61135784848484611992565b50505050565b61136d8888888888888888611a04565b5050505050505050565b60606113b6609760008481526020019081526020016000206004016040516020016113a29190613d1c565b604051602081830303815290604052611ccf565b6040516020016113c69190613d49565b6040516020818303038152906040529050919050565b3373ffffffffffffffffffffffffffffffffffffffff166113fc84610c87565b73ffffffffffffffffffffffffffffffffffffffff161461141c57600080fd5b818160976000868152602001908152602001600020600501919061144192919061317d565b508261144c84610c87565b73ffffffffffffffffffffffffffffffffffffffff167f7228383a10f0dfa73f0129ad947aa4f6689f533279ea1fa0e9fa10fbdb52120e8484604051611493929190613e08565b60405180910390a3505050565b60008060006040516020016114b59190613f97565b6040516020818303038152906040528051906020012060001c905060005b835181101561152a57818482815181106114e957fe5b6020026020010151604051602001611502929190613f67565b6040516020818303038152906040528051906020012060001c915080806001019150506114d3565b5080915050919050565b6000606960008473ffffffffffffffffffffffffffffffffffffffff1673ffffffffffffffffffffffffffffffffffffffff16815260200190815260200160002060008373ffffffffffffffffffffffffffffffffffffffff1673ffffffffffffffffffffffffffffffffffffffff16815260200190815260200160002060009054906101000a900460ff16905092915050565b6000806115d483610c47565b90508073ffffffffffffffffffffffffffffffffffffffff168473ffffffffffffffffffffffffffffffffffffffff161491505092915050565b60006040516020016116209190613f97565b6040516020818303038152906040528051906020012060001c81565b6000806000606061167760006040516020016116589190613f97565b6040516020818303038152906040528051906020012060001c86611e84565b8093508195508296505050508281604051602001611696929190613f67565b6040516020818303038152906040528051906020012060001c91509193509193565b60006116ca836000018360001b612174565b905092915050565b60006116fe846000018460001b8473ffffffffffffffffffffffffffffffffffffffff1660001b6121e4565b90509392505050565b6000611719836000018360001b6122c0565b905092915050565b600061173782606661170790919063ffffffff16565b9050919050565b600033905090565b816068600083815260200190815260200160002060006101000a81548173ffffffffffffffffffffffffffffffffffffffff021916908373ffffffffffffffffffffffffffffffffffffffff160217905550808273ffffffffffffffffffffffffffffffffffffffff166117b983610c87565b73ffffffffffffffffffffffffffffffffffffffff167f8c5be1e5ebec7d5bd14f71427d1e84f3dd0314c0f7b2291e5b200ac8c7c3b92560405160405180910390a45050565b600061180d826000016122e3565b9050919050565b600061181f82611721565b611874576040517f08c379a000000000000000000000000000000000000000000000000000000000815260040180806020018281038252602c815260200180614302602c913960400191505060405180910390fd5b600061187f83610c87565b90508073ffffffffffffffffffffffffffffffffffffffff168473ffffffffffffffffffffffffffffffffffffffff1614806118ee57508373ffffffffffffffffffffffffffffffffffffffff166118d684610842565b73ffffffffffffffffffffffffffffffffffffffff16145b806118ff57506118fe8185611534565b5b91505092915050565b6119138383836122f4565b505050565b60006119278360000183612537565b60001c905092915050565b60008060008061194586600001866125ba565b915091508160001c8160001c9350935050509250929050565b600061196c82600001612653565b9050919050565b6000611986846000018460001b84612664565b60001c90509392505050565b61199d848484611908565b6119a98484848461275a565b6119fe576040517f08c379a00000000000000000000000000000000000000000000000000000000081526004018080602001828103825260328152602001806142866032913960400191505060405180910390fd5b50505050565b6000806000611a816000604051602001611a1e9190613f97565b6040516020818303038152906040528051906020012060001c8c8c8080601f016020809104026020016040519081016040528093929190818152602001838380828437600081840152601f19601f82011690508083019250505050505050611e84565b92509250925082611ac7576040517f08c379a0000000000000000000000000000000000000000000000000000000008152600401611abe90613e6e565b60405180910390fd5b60008282604051602001611adc929190613f67565b6040516020818303038152906040528051906020012060001c9050611b0133846115c8565b611b40576040517f08c379a0000000000000000000000000000000000000000000000000000000008152600401611b3790613e4e565b60405180910390fd5b611b6881609760008681526020019081526020016000206006016116b890919063ffffffff16565b611ba7576040517f08c379a0000000000000000000000000000000000000000000000000000000008152600401611b9e90613e8e565b60405180910390fd5b611bb18a82612973565b60006097600085815260200190815260200160002090506000609760008481526020019081526020016000209050600182600101540181600101819055508481600001819055508989826003019190611c0b92919061317d565b508d8d826004019190611c1f92919061317d565b508a8160020160006101000a81548173ffffffffffffffffffffffffffffffffffffffff021916908373ffffffffffffffffffffffffffffffffffffffff1602179055508787826005019190611c7692919061317d565b505050827f4be7df4d4dd45fd5c8095cf2b3d4b5c14d2fcdae37c306d45750ed229e59827f828e8e8e8e8e8e8e8e604051611cb999989796959493929190613eeb565b60405180910390a2505050505050505050505050565b60606000829050611e7c6040518060400160405280600481526020017f01551220000000000000000000000000000000000000000000000000000000008152506002836040518082805190602001908083835b60208310611d455780518252602082019150602081019050602083039250611d22565b6001836020036101000a038019825116818451168082178552505050505050905001915050602060405180830381855afa158015611d87573d6000803e3d6000fd5b5050506040513d6020811015611d9c57600080fd5b81019080805190602001909291905050506040516020018083805190602001908083835b60208310611de35780518252602082019150602081019050602083039250611dc0565b6001836020036101000a0380198251168184511680821785525050505050509050018281526020019250505060405160208183030381529060405260056040518060400160405280602081526020017f6162636465666768696a6b6c6d6e6f707172737475767778797a3233343536378152507f6200000000000000000000000000000000000000000000000000000000000000612b67565b915050919050565b60008060606000808660001b90506000602087019050600081905060008851905060606000808386019050600080865191505b8287116120ef57605c60f81b7effffffffffffffffffffffffffffffffffffffffffffffffffffffffffffff1916827effffffffffffffffffffffffffffffffffffffffffffffffffffffffffffff19161415611f5c576000806040518060400160405280600981526020017f71756f74656361736500000000000000000000000000000000000000000000008152509c509c509c505050505050505050505061216d565b602e8260f81c60ff16141561206f5760018888030390508067ffffffffffffffff81118015611f8a57600080fd5b506040519080825280601f01601f191660200182016040528015611fbd5781602001600182028036833780820191505090505b509450602085019350611fd1848983612d6b565b88856040516020018083815260200180602001828103825283818151815260200191508051906020019080838360005b8381101561201c578082015181840152602081019050612001565b50505050905090810190601f1680156120495780820380516001836020036101000a031916815260200191505b5093505050506040516020818303038152906040528051906020012098508697506120de565b60618260f81c60ff16108061208a5750607a8260f81c60ff16115b156120dd576000806040518060400160405280601281526020017f6661696c206e6f74206c6f7765726361736500000000000000000000000000008152509c509c509c505050505050505050505061216d565b5b865191508680600101975050611eb7565b60018888030390508067ffffffffffffffff8111801561210e57600080fd5b506040519080825280601f01601f1916602001820160405280156121415781602001600182028036833780820191505090505b509450602085019350612155848983612d6b565b60018960001c869c509c509c50505050505050505050505b9250925092565b60006121808383612db4565b6121d95782600001829080600181540180825580915050600190039060005260206000200160009091909190915055826000018054905083600101600084815260200190815260200160002081905550600190506121de565b600090505b92915050565b600080846001016000858152602001908152602001600020549050600081141561228b578460000160405180604001604052808681526020018581525090806001815401808255809150506001900390600052602060002090600202016000909190919091506000820151816000015560208201518160010155505084600001805490508560010160008681526020019081526020016000208190555060019150506122b9565b8285600001600183038154811061229e57fe5b90600052602060002090600202016001018190555060009150505b9392505050565b600080836001016000848152602001908152602001600020541415905092915050565b600081600001805490509050919050565b8273ffffffffffffffffffffffffffffffffffffffff1661231482610c87565b73ffffffffffffffffffffffffffffffffffffffff1614612380576040517f08c379a00000000000000000000000000000000000000000000000000000000081526004018080602001828103825260298152602001806144076029913960400191505060405180910390fd5b600073ffffffffffffffffffffffffffffffffffffffff168273ffffffffffffffffffffffffffffffffffffffff161415612406576040517f08c379a00000000000000000000000000000000000000000000000000000000081526004018080602001828103825260248152602001806142b86024913960400191505060405180910390fd5b612411838383612dd7565b61241c600082611746565b61246d81606560008673ffffffffffffffffffffffffffffffffffffffff1673ffffffffffffffffffffffffffffffffffffffff168152602001908152602001600020612ddc90919063ffffffff16565b506124bf81606560008573ffffffffffffffffffffffffffffffffffffffff1673ffffffffffffffffffffffffffffffffffffffff1681526020019081526020016000206116b890919063ffffffff16565b506124d6818360666116d29092919063ffffffff16565b50808273ffffffffffffffffffffffffffffffffffffffff168473ffffffffffffffffffffffffffffffffffffffff167fddf252ad1be2c89b69c2b068fc378daa952ba7f163c4a11628f55a4df523b3ef60405160405180910390a4505050565b600081836000018054905011612598576040517f08c379a00000000000000000000000000000000000000000000000000000000081526004018080602001828103825260228152602001806142646022913960400191505060405180910390fd5b8260000182815481106125a757fe5b9060005260206000200154905092915050565b6000808284600001805490501161261c576040517f08c379a00000000000000000000000000000000000000000000000000000000081526004018080602001828103825260228152602001806143b96022913960400191505060405180910390fd5b600084600001848154811061262d57fe5b906000526020600020906002020190508060000154816001015492509250509250929050565b600081600001805490509050919050565b6000808460010160008581526020019081526020016000205490506000811415839061272b576040517f08c379a00000000000000000000000000000000000000000000000000000000081526004018080602001828103825283818151815260200191508051906020019080838360005b838110156126f05780820151818401526020810190506126d5565b50505050905090810190601f16801561271d5780820380516001836020036101000a031916815260200191505b509250505060405180910390fd5b5084600001600182038154811061273e57fe5b9060005260206000209060020201600101549150509392505050565b600061277b8473ffffffffffffffffffffffffffffffffffffffff16612df6565b612788576001905061296b565b60006128f263150b7a0260e01b61279d61173e565b888787604051602401808573ffffffffffffffffffffffffffffffffffffffff1681526020018473ffffffffffffffffffffffffffffffffffffffff16815260200183815260200180602001828103825283818151815260200191508051906020019080838360005b83811015612821578082015181840152602081019050612806565b50505050905090810190601f16801561284e5780820380516001836020036101000a031916815260200191505b5095505050505050604051602081830303815290604052907bffffffffffffffffffffffffffffffffffffffffffffffffffffffff19166020820180517bffffffffffffffffffffffffffffffffffffffffffffffffffffffff8381831617835250505050604051806060016040528060328152602001614286603291398773ffffffffffffffffffffffffffffffffffffffff16612e099092919063ffffffff16565b9050600081806020019051602081101561290b57600080fd5b8101908080519060200190929190505050905063150b7a0260e01b7bffffffffffffffffffffffffffffffffffffffffffffffffffffffff1916817bffffffffffffffffffffffffffffffffffffffffffffffffffffffff191614925050505b949350505050565b600073ffffffffffffffffffffffffffffffffffffffff168273ffffffffffffffffffffffffffffffffffffffff161415612a16576040517f08c379a00000000000000000000000000000000000000000000000000000000081526004018080602001828103825260208152602001807f4552433732313a206d696e7420746f20746865207a65726f206164647265737381525060200191505060405180910390fd5b612a1f81611721565b15612a92576040517f08c379a000000000000000000000000000000000000000000000000000000000815260040180806020018281038252601c8152602001807f4552433732313a20746f6b656e20616c7265616479206d696e7465640000000081525060200191505060405180910390fd5b612a9e60008383612dd7565b612aef81606560008573ffffffffffffffffffffffffffffffffffffffff1673ffffffffffffffffffffffffffffffffffffffff1681526020019081526020016000206116b890919063ffffffff16565b50612b06818360666116d29092919063ffffffff16565b50808273ffffffffffffffffffffffffffffffffffffffff16600073ffffffffffffffffffffffffffffffffffffffff167fddf252ad1be2c89b69c2b068fc378daa952ba7f163c4a11628f55a4df523b3ef60405160405180910390a45050565b6060600060088651029050600080868381612b7e57fe5b0614612b8b576002612b8e565b60015b60ff16868381612b9a57fe5b0401905060008167ffffffffffffffff81118015612bb757600080fd5b506040519080825280601f01601f191660200182016040528015612bea5781602001600182028036833780820191505090505b50905060006001886001901b0390506000808784600081518110612c0a57fe5b60200101907effffffffffffffffffffffffffffffffffffffffffffffffffffffffffffff1916908160001a90535060006001905060005b8c51811015612cf5578c8181518110612c5757fe5b602001015160f81c60f81b60f81c60ff16600884901b1792506008840193505b8b841115612ce8578b840393508a8484901c861681518110612c9557fe5b602001015160f81c60f81b868381518110612cac57fe5b60200101907effffffffffffffffffffffffffffffffffffffffffffffffffffffffffffff1916908160001a9053508180600101925050612c77565b8080600101915050612c42565b506000831115612d595789838c0383901b851681518110612d1257fe5b602001015160f81c60f81b858281518110612d2957fe5b60200101907effffffffffffffffffffffffffffffffffffffffffffffffffffffffffffff1916908160001a9053505b84975050505050505050949350505050565b5b60208110612d8f5781518352602083019250602082019150602081039050612d6c565b60006001826020036101000a0390508019835116818551168181178652505050505050565b600080836001016000848152602001908152602001600020541415905092915050565b505050565b6000612dee836000018360001b612e21565b905092915050565b600080823b905060008111915050919050565b6060612e188484600085612f09565b90509392505050565b60008083600101600084815260200190815260200160002054905060008114612efd5760006001820390506000600186600001805490500390506000866000018281548110612e6c57fe5b9060005260206000200154905080876000018481548110612e8957fe5b9060005260206000200181905550600183018760010160008381526020019081526020016000208190555086600001805480612ec157fe5b60019003818190600052602060002001600090559055866001016000878152602001908152602001600020600090556001945050505050612f03565b60009150505b92915050565b606082471015612f64576040517f08c379a00000000000000000000000000000000000000000000000000000000081526004018080602001828103825260268152602001806142dc6026913960400191505060405180910390fd5b612f6d85612df6565b612fdf576040517f08c379a000000000000000000000000000000000000000000000000000000000815260040180806020018281038252601d8152602001807f416464726573733a2063616c6c20746f206e6f6e2d636f6e747261637400000081525060200191505060405180910390fd5b6000808673ffffffffffffffffffffffffffffffffffffffff1685876040518082805190602001908083835b6020831061302e578051825260208201915060208101905060208303925061300b565b6001836020036101000a03801982511681845116808217855250505050505090500191505060006040518083038185875af1925050503d8060008114613090576040519150601f19603f3d011682016040523d82523d6000602084013e613095565b606091505b50915091506130a58282866130b1565b92505050949350505050565b606083156130c157829050613176565b6000835111156130d45782518084602001fd5b816040517f08c379a00000000000000000000000000000000000000000000000000000000081526004018080602001828103825283818151815260200191508051906020019080838360005b8381101561313b578082015181840152602081019050613120565b50505050905090810190601f1680156131685780820380516001836020036101000a031916815260200191505b509250505060405180910390fd5b9392505050565b828054600181600116156101000203166002900490600052602060002090601f0160209004810192826131b357600085556131fa565b82601f106131cc57803560ff19168380011785556131fa565b828001600101855582156131fa579182015b828111156131f95782358255916020019190600101906131de565b5b509050613207919061327c565b5090565b604051806101000160405280600073ffffffffffffffffffffffffffffffffffffffff1681526020016000815260200160008152602001600073ffffffffffffffffffffffffffffffffffffffff168152602001606081526020016060815260200160608152602001606081525090565b5b8082111561329557600081600090555060010161327d565b5090565b60006132ac6132a784613ff6565b613fc5565b9050808382526020820190508260005b858110156132ec57813585016132d2888261344f565b8452602084019350602083019250506001810190506132bc565b5050509392505050565b600061330961330484614022565b613fc5565b90508281526020810184848401111561332157600080fd5b61332c8482856141b2565b509392505050565b600061334761334284614052565b613fc5565b90508281526020810184848401111561335f57600080fd5b61336a8482856141b2565b509392505050565b60008135905061338181614207565b92915050565b600082601f83011261339857600080fd5b81356133a8848260208601613299565b91505092915050565b6000813590506133c08161421e565b92915050565b6000813590506133d581614235565b92915050565b600082601f8301126133ec57600080fd5b81356133fc8482602086016132f6565b91505092915050565b60008083601f84011261341757600080fd5b8235905067ffffffffffffffff81111561343057600080fd5b60208301915083600182028301111561344857600080fd5b9250929050565b600082601f83011261346057600080fd5b8135613470848260208601613334565b91505092915050565b6000813590506134888161424c565b92915050565b6000602082840312156134a057600080fd5b60006134ae84828501613372565b91505092915050565b600080604083850312156134ca57600080fd5b60006134d885828601613372565b92505060206134e985828601613372565b9150509250929050565b60008060006060848603121561350857600080fd5b600061351686828701613372565b935050602061352786828701613372565b925050604061353886828701613479565b9150509250925092565b6000806000806080858703121561355857600080fd5b600061356687828801613372565b945050602061357787828801613372565b935050604061358887828801613479565b925050606085013567ffffffffffffffff8111156135a557600080fd5b6135b1878288016133db565b91505092959194509250565b600080604083850312156135d057600080fd5b60006135de85828601613372565b92505060206135ef858286016133b1565b9150509250929050565b6000806040838503121561360c57600080fd5b600061361a85828601613372565b925050602061362b85828601613479565b9150509250929050565b60006020828403121561364757600080fd5b600082013567ffffffffffffffff81111561366157600080fd5b61366d84828501613387565b91505092915050565b60006020828403121561368857600080fd5b6000613696848285016133c6565b91505092915050565b60008060008060008060008060a0898b0312156136bb57600080fd5b600089013567ffffffffffffffff8111156136d557600080fd5b6136e18b828c01613405565b985098505060206136f48b828c01613372565b96505060406137058b828c01613372565b955050606089013567ffffffffffffffff81111561372257600080fd5b61372e8b828c01613405565b9450945050608089013567ffffffffffffffff81111561374d57600080fd5b6137598b828c01613405565b92509250509295985092959890939650565b60006020828403121561377d57600080fd5b600082013567ffffffffffffffff81111561379757600080fd5b6137a38482850161344f565b91505092915050565b6000602082840312156137be57600080fd5b60006137cc84828501613479565b91505092915050565b600080604083850312156137e857600080fd5b60006137f685828601613479565b925050602061380785828601613372565b9150509250929050565b60008060006040848603121561382657600080fd5b600061383486828701613479565b935050602084013567ffffffffffffffff81111561385157600080fd5b61385d86828701613405565b92509250509250925092565b60006138758383613cfe565b60208301905092915050565b61388a8161417c565b82525050565b61389981614108565b82525050565b6138a881614108565b82525050565b60006138b9826140a7565b6138c381856140ca565b93506138ce83614082565b8060005b838110156138ff5781516138e68882613869565b97506138f1836140bd565b9250506001810190506138d2565b5085935050505092915050565b6139158161411a565b82525050565b600061392783856140ec565b93506139348385846141b2565b61393d836141f6565b840190509392505050565b6000613953826140b2565b61395d81856140db565b935061396d8185602086016141c1565b613976816141f6565b840191505092915050565b600061398c826140b2565b61399681856140ec565b93506139a68185602086016141c1565b6139af816141f6565b840191505092915050565b60006139c5826140b2565b6139cf81856140fd565b93506139df8185602086016141c1565b80840191505092915050565b600081546001811660008114613a085760018114613a2d57613a71565b607f6002830416613a1981876140fd565b955060ff1983168652808601935050613a71565b60028204613a3b81876140fd565b9550613a4685614092565b60005b82811015613a6857815481890152600182019150602081019050613a49565b82880195505050505b505092915050565b6000613a866012836140ec565b91507f73656e6465722063616e742063726561746500000000000000000000000000006000830152602082019050919050565b6000613ac66004836140ec565b91507f524f4f54000000000000000000000000000000000000000000000000000000006000830152602082019050919050565b6000613b066009836140fd565b91507f7b226e616d65223a2200000000000000000000000000000000000000000000006000830152600982019050919050565b6000613b466019836140ec565b91507f646f6d61696e206661696c656420746f2076616c6964617465000000000000006000830152602082019050919050565b6000613b866007836140fd565b91507f697066733a2f2f000000000000000000000000000000000000000000000000006000830152600782019050919050565b6000613bc66002836140fd565b91507f227d0000000000000000000000000000000000000000000000000000000000006000830152600282019050919050565b6000613c06601a836140ec565b91507f646f6d61696e20616c726561647920696e206368696c6472656e0000000000006000830152602082019050919050565b600061010083016000830151613c526000860182613890565b506020830151613c656020860182613cfe565b506040830151613c786040860182613cfe565b506060830151613c8b6060860182613890565b5060808301518482036080860152613ca38282613948565b91505060a083015184820360a0860152613cbd8282613948565b91505060c083015184820360c0860152613cd78282613948565b91505060e083015184820360e0860152613cf182826138ae565b9150508091505092915050565b613d0781614172565b82525050565b613d1681614172565b82525050565b6000613d2782613af9565b9150613d3382846139eb565b9150613d3e82613bb9565b915081905092915050565b6000613d5482613b79565b9150613d6082846139ba565b915081905092915050565b6000602082019050613d80600083018461389f565b92915050565b6000602082019050613d9b6000830184613881565b92915050565b6000602082019050613db6600083018461390c565b92915050565b6000608082019050613dd1600083018761390c565b613dde6020830186613d0d565b613deb6040830185613d0d565b8181036060830152613dfd8184613981565b905095945050505050565b60006020820190508181036000830152613e2381848661391b565b90509392505050565b60006020820190508181036000830152613e468184613981565b905092915050565b60006020820190508181036000830152613e6781613a79565b9050919050565b60006020820190508181036000830152613e8781613b39565b9050919050565b60006020820190508181036000830152613ea781613bf9565b9050919050565b60006020820190508181036000830152613ec88184613c39565b905092915050565b6000602082019050613ee56000830184613d0d565b92915050565b600060c082019050613f00600083018c613d0d565b8181036020830152613f13818a8c61391b565b9050613f22604083018961389f565b613f2f606083018861389f565b8181036080830152613f4281868861391b565b905081810360a0830152613f5781848661391b565b90509a9950505050505050505050565b6000604082019050613f7c6000830185613d0d565b8181036020830152613f8e8184613981565b90509392505050565b6000604082019050613fac6000830184613d0d565b8181036020830152613fbd81613ab9565b905092915050565b6000604051905081810181811067ffffffffffffffff82111715613fec57613feb6141f4565b5b8060405250919050565b600067ffffffffffffffff821115614011576140106141f4565b5b602082029050602081019050919050565b600067ffffffffffffffff82111561403d5761403c6141f4565b5b601f19601f8301169050602081019050919050565b600067ffffffffffffffff82111561406d5761406c6141f4565b5b601f19601f8301169050602081019050919050565b6000819050602082019050919050565b60008190508160005260206000209050919050565b600081519050919050565b600081519050919050565b6000602082019050919050565b600082825260208201905092915050565b600082825260208201905092915050565b600082825260208201905092915050565b600081905092915050565b600061411382614152565b9050919050565b60008115159050919050565b60007fffffffff0000000000000000000000000000000000000000000000000000000082169050919050565b600073ffffffffffffffffffffffffffffffffffffffff82169050919050565b6000819050919050565b60006141878261418e565b9050919050565b6000614199826141a0565b9050919050565b60006141ab82614152565b9050919050565b82818337600083830152505050565b60005b838110156141df5780820151818401526020810190506141c4565b838111156141ee576000848401525b50505050565bfe5b6000601f19601f8301169050919050565b61421081614108565b811461421b57600080fd5b50565b6142278161411a565b811461423257600080fd5b50565b61423e81614126565b811461424957600080fd5b50565b61425581614172565b811461426057600080fd5b5056fe456e756d657261626c655365743a20696e646578206f7574206f6620626f756e64734552433732313a207472616e7366657220746f206e6f6e20455243373231526563656976657220696d706c656d656e7465724552433732313a207472616e7366657220746f20746865207a65726f2061646472657373416464726573733a20696e73756666696369656e742062616c616e636520666f722063616c6c4552433732313a206f70657261746f7220717565727920666f72206e6f6e6578697374656e7420746f6b656e4552433732313a20617070726f76652063616c6c6572206973206e6f74206f776e6572206e6f7220617070726f76656420666f7220616c6c4552433732313a2062616c616e636520717565727920666f7220746865207a65726f20616464726573734552433732313a206f776e657220717565727920666f72206e6f6e6578697374656e7420746f6b656e456e756d657261626c654d61703a20696e646578206f7574206f6620626f756e64734552433732313a20617070726f76656420717565727920666f72206e6f6e6578697374656e7420746f6b656e4552433732313a207472616e73666572206f6620746f6b656e2074686174206973206e6f74206f776e4552433732313a20617070726f76616c20746f2063757272656e74206f776e65724552433732313a207472616e736665722063616c6c6572206973206e6f74206f776e6572206e6f7220617070726f766564a26469706673582212208b27e94dd6f966d674c8b58f2e94f00f4d7412ad7f4760a66802850bebe0d62e64736f6c63430007060033496e697469616c697a61626c653a20636f6e747261637420697320616c726561647920696e697469616c697a6564",
  "linkReferences": {},
  "deployedLinkReferences": {}
}