{
  "_format": "hh-sol-artifact-1",
  "contractName": "Registry",
  "sourceName": "contracts/Registry.sol",
  "abi": [
    {
      "anonymous": false,
      "inputs": [
        {
          "indexed": true,
          "internalType": "address",
          "name": "owner",
          "type": "address"
        },
        {
          "indexed": true,
          "internalType": "address",
          "name": "approved",
          "type": "address"
        },
        {
          "indexed": true,
          "internalType": "uint256",
          "name": "tokenId",
          "type": "uint256"
        }
      ],
      "name": "Approval",
      "type": "event"
    },
    {
      "anonymous": false,
      "inputs": [
        {
          "indexed": true,
          "internalType": "address",
          "name": "owner",
          "type": "address"
        },
        {
          "indexed": true,
          "internalType": "address",
          "name": "operator",
          "type": "address"
        },
        {
          "indexed": false,
          "internalType": "bool",
          "name": "approved",
          "type": "bool"
        }
      ],
      "name": "ApprovalForAll",
      "type": "event"
    },
    {
      "anonymous": false,
      "inputs": [
        {
          "indexed": true,
          "internalType": "address",
          "name": "owner",
          "type": "address"
        },
        {
          "indexed": true,
          "internalType": "uint256",
          "name": "id",
          "type": "uint256"
        },
        {
          "indexed": false,
          "internalType": "uint256",
          "name": "childLimit",
          "type": "uint256"
        }
      ],
      "name": "ChildLimitSet",
      "type": "event"
    },
    {
      "anonymous": false,
      "inputs": [
        {
          "indexed": true,
          "internalType": "uint256",
          "name": "id",
          "type": "uint256"
        },
        {
          "indexed": true,
          "internalType": "address",
          "name": "oldController",
          "type": "address"
        },
        {
          "indexed": true,
          "internalType": "address",
          "name": "newController",
          "type": "address"
        },
        {
          "indexed": false,
          "internalType": "address",
          "name": "sender",
          "type": "address"
        }
      ],
      "name": "ControllerSet",
      "type": "event"
    },
    {
      "anonymous": false,
      "inputs": [
        {
          "indexed": true,
          "internalType": "uint256",
          "name": "parentId",
          "type": "uint256"
        },
        {
          "indexed": false,
          "internalType": "uint256",
          "name": "tokenId",
          "type": "uint256"
        },
        {
          "indexed": false,
          "internalType": "string",
          "name": "domain",
          "type": "string"
        },
        {
          "indexed": false,
          "internalType": "address",
          "name": "owner",
          "type": "address"
        }
      ],
      "name": "DomainCreated",
      "type": "event"
    },
    {
      "anonymous": false,
      "inputs": [
        {
          "indexed": true,
          "internalType": "address",
          "name": "owner",
          "type": "address"
        },
        {
          "indexed": true,
          "internalType": "uint256",
          "name": "id",
          "type": "uint256"
        },
        {
          "indexed": false,
          "internalType": "string",
          "name": "image",
          "type": "string"
        }
      ],
      "name": "ImageSet",
      "type": "event"
    },
    {
      "anonymous": false,
      "inputs": [
        {
          "indexed": true,
          "internalType": "address",
          "name": "owner",
          "type": "address"
        },
        {
          "indexed": true,
          "internalType": "uint256",
          "name": "id",
          "type": "uint256"
        },
        {
          "indexed": false,
          "internalType": "string",
          "name": "resolver",
          "type": "string"
        }
      ],
      "name": "ResolverSet",
      "type": "event"
    },
    {
      "anonymous": false,
      "inputs": [
        {
          "indexed": true,
          "internalType": "address",
          "name": "from",
          "type": "address"
        },
        {
          "indexed": true,
          "internalType": "address",
          "name": "to",
          "type": "address"
        },
        {
          "indexed": true,
          "internalType": "uint256",
          "name": "tokenId",
          "type": "uint256"
        }
      ],
      "name": "Transfer",
      "type": "event"
    },
    {
      "inputs": [],
      "name": "ROOT_ID",
      "outputs": [
        {
          "internalType": "uint256",
          "name": "",
          "type": "uint256"
        }
      ],
      "stateMutability": "view",
      "type": "function"
    },
    {
      "inputs": [
        {
          "internalType": "address",
          "name": "to",
          "type": "address"
        },
        {
          "internalType": "uint256",
          "name": "tokenId",
          "type": "uint256"
        }
      ],
      "name": "approve",
      "outputs": [],
      "stateMutability": "nonpayable",
      "type": "function"
    },
    {
      "inputs": [
        {
          "internalType": "address",
          "name": "owner",
          "type": "address"
        }
      ],
      "name": "balanceOf",
      "outputs": [
        {
          "internalType": "uint256",
          "name": "",
          "type": "uint256"
        }
      ],
      "stateMutability": "view",
      "type": "function"
    },
    {
      "inputs": [],
      "name": "baseURI",
      "outputs": [
        {
          "internalType": "string",
          "name": "",
          "type": "string"
        }
      ],
      "stateMutability": "view",
      "type": "function"
    },
    {
      "inputs": [
        {
          "internalType": "address",
          "name": "creator",
          "type": "address"
        },
        {
          "internalType": "uint256",
          "name": "id",
          "type": "uint256"
        }
      ],
      "name": "canCreate",
      "outputs": [
        {
          "internalType": "bool",
          "name": "",
          "type": "bool"
        }
      ],
      "stateMutability": "nonpayable",
      "type": "function"
    },
    {
      "inputs": [
        {
          "internalType": "uint256",
          "name": "id",
          "type": "uint256"
        }
      ],
      "name": "childCountOf",
      "outputs": [
        {
          "internalType": "uint256",
          "name": "",
          "type": "uint256"
        }
      ],
      "stateMutability": "view",
      "type": "function"
    },
    {
      "inputs": [
        {
          "internalType": "uint256",
          "name": "id",
          "type": "uint256"
        }
      ],
      "name": "controllerOf",
      "outputs": [
        {
          "internalType": "address",
          "name": "",
          "type": "address"
        }
      ],
      "stateMutability": "view",
      "type": "function"
    },
    {
      "inputs": [
        {
          "internalType": "string",
          "name": "domain",
          "type": "string"
        },
        {
          "internalType": "address",
          "name": "_owner",
          "type": "address"
        },
        {
          "internalType": "address",
          "name": "_controller",
          "type": "address"
        }
      ],
      "name": "createDomain",
      "outputs": [
        {
          "internalType": "uint256",
          "name": "id",
          "type": "uint256"
        },
        {
          "internalType": "uint256",
          "name": "parentId",
          "type": "uint256"
        }
      ],
      "stateMutability": "nonpayable",
      "type": "function"
    },
    {
      "inputs": [
        {
          "internalType": "string",
          "name": "domain",
          "type": "string"
        },
        {
          "internalType": "address",
          "name": "_owner",
          "type": "address"
        },
        {
          "internalType": "address",
          "name": "_controller",
          "type": "address"
        },
        {
          "internalType": "bytes",
          "name": "controllerData",
          "type": "bytes"
        }
      ],
      "name": "createDomainSafeController",
      "outputs": [
        {
          "internalType": "uint256",
          "name": "id",
          "type": "uint256"
        },
        {
          "internalType": "uint256",
          "name": "parentId",
          "type": "uint256"
        }
      ],
      "stateMutability": "nonpayable",
      "type": "function"
    },
    {
      "inputs": [
        {
          "internalType": "string",
          "name": "domain",
          "type": "string"
        },
        {
          "internalType": "address",
          "name": "_owner",
          "type": "address"
        },
        {
          "internalType": "address",
          "name": "_controller",
          "type": "address"
        },
        {
          "internalType": "bytes",
          "name": "mintData",
          "type": "bytes"
        }
      ],
      "name": "createDomainSafeMint",
      "outputs": [
        {
          "internalType": "uint256",
          "name": "id",
          "type": "uint256"
        },
        {
          "internalType": "uint256",
          "name": "parentId",
          "type": "uint256"
        }
      ],
      "stateMutability": "nonpayable",
      "type": "function"
    },
    {
      "inputs": [
        {
          "internalType": "uint256",
          "name": "id",
          "type": "uint256"
        }
      ],
      "name": "depthOf",
      "outputs": [
        {
          "internalType": "uint256",
          "name": "",
          "type": "uint256"
        }
      ],
      "stateMutability": "view",
      "type": "function"
    },
    {
      "inputs": [
        {
          "internalType": "uint256",
          "name": "id",
          "type": "uint256"
        }
      ],
      "name": "entryOf",
      "outputs": [
        {
          "components": [
            {
              "internalType": "address",
              "name": "owner",
              "type": "address"
            },
            {
              "internalType": "uint256",
              "name": "parent",
              "type": "uint256"
            },
            {
              "internalType": "uint256",
              "name": "depth",
              "type": "uint256"
            },
            {
              "internalType": "address",
              "name": "controller",
              "type": "address"
            },
            {
              "internalType": "string",
              "name": "resolver",
              "type": "string"
            },
            {
              "internalType": "string",
              "name": "image",
              "type": "string"
            },
            {
              "internalType": "string",
              "name": "domain",
              "type": "string"
            },
            {
              "internalType": "uint256",
              "name": "childLimit",
              "type": "uint256"
            },
            {
              "internalType": "uint256",
              "name": "childCount",
              "type": "uint256"
            }
          ],
          "internalType": "struct Registry.EntryView",
          "name": "out",
          "type": "tuple"
        }
      ],
      "stateMutability": "view",
      "type": "function"
    },
    {
      "inputs": [
        {
          "internalType": "uint256",
          "name": "id",
          "type": "uint256"
        }
      ],
      "name": "exists",
      "outputs": [
        {
          "internalType": "bool",
          "name": "",
          "type": "bool"
        }
      ],
      "stateMutability": "view",
      "type": "function"
    },
    {
      "inputs": [
        {
          "internalType": "uint256",
          "name": "tokenId",
          "type": "uint256"
        }
      ],
      "name": "getApproved",
      "outputs": [
        {
          "internalType": "address",
          "name": "",
          "type": "address"
        }
      ],
      "stateMutability": "view",
      "type": "function"
    },
    {
      "inputs": [
        {
          "internalType": "string[]",
          "name": "path",
          "type": "string[]"
        }
      ],
      "name": "getId",
      "outputs": [
        {
          "internalType": "uint256",
          "name": "",
          "type": "uint256"
        }
      ],
      "stateMutability": "pure",
      "type": "function"
    },
    {
      "inputs": [
        {
          "internalType": "string",
          "name": "_s",
          "type": "string"
        }
      ],
      "name": "getIdAndParent",
      "outputs": [
        {
          "internalType": "uint256",
          "name": "",
          "type": "uint256"
        },
        {
          "internalType": "uint256",
          "name": "",
          "type": "uint256"
        }
      ],
      "stateMutability": "pure",
      "type": "function"
    },
    {
      "inputs": [
        {
          "internalType": "string[]",
          "name": "path",
          "type": "string[]"
        }
      ],
      "name": "getOwner",
      "outputs": [
        {
          "internalType": "address",
          "name": "",
          "type": "address"
        }
      ],
      "stateMutability": "view",
      "type": "function"
    },
    {
      "inputs": [
        {
          "internalType": "address",
          "name": "_owner",
          "type": "address"
        },
        {
          "internalType": "address",
          "name": "_controller",
          "type": "address"
        },
        {
          "internalType": "string",
          "name": "image",
          "type": "string"
        },
        {
          "internalType": "uint256",
          "name": "childLimit",
          "type": "uint256"
        }
      ],
      "name": "initialize",
      "outputs": [],
      "stateMutability": "nonpayable",
      "type": "function"
    },
    {
      "inputs": [
        {
          "internalType": "address",
          "name": "owner",
          "type": "address"
        },
        {
          "internalType": "address",
          "name": "operator",
          "type": "address"
        }
      ],
      "name": "isApprovedForAll",
      "outputs": [
        {
          "internalType": "bool",
          "name": "",
          "type": "bool"
        }
      ],
      "stateMutability": "view",
      "type": "function"
    },
    {
      "inputs": [],
      "name": "name",
      "outputs": [
        {
          "internalType": "string",
          "name": "",
          "type": "string"
        }
      ],
      "stateMutability": "view",
      "type": "function"
    },
    {
      "inputs": [
        {
          "internalType": "uint256",
          "name": "tokenId",
          "type": "uint256"
        }
      ],
      "name": "ownerOf",
      "outputs": [
        {
          "internalType": "address",
          "name": "",
          "type": "address"
        }
      ],
      "stateMutability": "view",
      "type": "function"
    },
    {
      "inputs": [
        {
          "internalType": "uint256",
          "name": "id",
          "type": "uint256"
        }
      ],
      "name": "parentOf",
      "outputs": [
        {
          "internalType": "uint256",
          "name": "",
          "type": "uint256"
        }
      ],
      "stateMutability": "view",
      "type": "function"
    },
    {
      "inputs": [
        {
          "internalType": "string",
          "name": "domain",
          "type": "string"
        },
        {
          "internalType": "address",
          "name": "_owner",
          "type": "address"
        },
        {
          "internalType": "address",
          "name": "_controller",
          "type": "address"
        },
        {
          "internalType": "bytes",
          "name": "mintData",
          "type": "bytes"
        },
        {
          "internalType": "bytes",
          "name": "controllerData",
          "type": "bytes"
        }
      ],
      "name": "safeCreateDomain",
      "outputs": [
        {
          "internalType": "uint256",
          "name": "id",
          "type": "uint256"
        },
        {
          "internalType": "uint256",
          "name": "parentId",
          "type": "uint256"
        }
      ],
      "stateMutability": "nonpayable",
      "type": "function"
    },
    {
      "inputs": [
        {
          "internalType": "uint256",
          "name": "id",
          "type": "uint256"
        },
        {
          "internalType": "address",
          "name": "controller",
          "type": "address"
        },
        {
          "internalType": "bytes",
          "name": "_data",
          "type": "bytes"
        }
      ],
      "name": "safeSetController",
      "outputs": [],
      "stateMutability": "nonpayable",
      "type": "function"
    },
    {
      "inputs": [
        {
          "internalType": "address",
          "name": "from",
          "type": "address"
        },
        {
          "internalType": "address",
          "name": "to",
          "type": "address"
        },
        {
          "internalType": "uint256",
          "name": "tokenId",
          "type": "uint256"
        }
      ],
      "name": "safeTransferFrom",
      "outputs": [],
      "stateMutability": "nonpayable",
      "type": "function"
    },
    {
      "inputs": [
        {
          "internalType": "address",
          "name": "from",
          "type": "address"
        },
        {
          "internalType": "address",
          "name": "to",
          "type": "address"
        },
        {
          "internalType": "uint256",
          "name": "tokenId",
          "type": "uint256"
        },
        {
          "internalType": "bytes",
          "name": "_data",
          "type": "bytes"
        }
      ],
      "name": "safeTransferFrom",
      "outputs": [],
      "stateMutability": "nonpayable",
      "type": "function"
    },
    {
      "inputs": [
        {
          "internalType": "address",
          "name": "operator",
          "type": "address"
        },
        {
          "internalType": "bool",
          "name": "approved",
          "type": "bool"
        }
      ],
      "name": "setApprovalForAll",
      "outputs": [],
      "stateMutability": "nonpayable",
      "type": "function"
    },
    {
      "inputs": [
        {
          "internalType": "uint256",
          "name": "id",
          "type": "uint256"
        },
        {
          "internalType": "uint256",
          "name": "childLimit",
          "type": "uint256"
        }
      ],
      "name": "setChildLimit",
      "outputs": [],
      "stateMutability": "nonpayable",
      "type": "function"
    },
    {
      "inputs": [
        {
          "internalType": "uint256",
          "name": "id",
          "type": "uint256"
        },
        {
          "internalType": "address",
          "name": "controller",
          "type": "address"
        }
      ],
      "name": "setController",
      "outputs": [],
      "stateMutability": "nonpayable",
      "type": "function"
    },
    {
      "inputs": [
        {
          "internalType": "uint256",
          "name": "id",
          "type": "uint256"
        },
        {
          "internalType": "string",
          "name": "image",
          "type": "string"
        }
      ],
      "name": "setImage",
      "outputs": [],
      "stateMutability": "nonpayable",
      "type": "function"
    },
    {
      "inputs": [
        {
          "internalType": "uint256",
          "name": "id",
          "type": "uint256"
        },
        {
          "internalType": "string",
          "name": "resolver",
          "type": "string"
        }
      ],
      "name": "setResolver",
      "outputs": [],
      "stateMutability": "nonpayable",
      "type": "function"
    },
    {
      "inputs": [
        {
          "internalType": "bytes4",
          "name": "interfaceId",
          "type": "bytes4"
        }
      ],
      "name": "supportsInterface",
      "outputs": [
        {
          "internalType": "bool",
          "name": "",
          "type": "bool"
        }
      ],
      "stateMutability": "view",
      "type": "function"
    },
    {
      "inputs": [],
      "name": "symbol",
      "outputs": [
        {
          "internalType": "string",
          "name": "",
          "type": "string"
        }
      ],
      "stateMutability": "view",
      "type": "function"
    },
    {
      "inputs": [
        {
          "internalType": "uint256",
          "name": "index",
          "type": "uint256"
        }
      ],
      "name": "tokenByIndex",
      "outputs": [
        {
          "internalType": "uint256",
          "name": "",
          "type": "uint256"
        }
      ],
      "stateMutability": "view",
      "type": "function"
    },
    {
      "inputs": [
        {
          "internalType": "address",
          "name": "owner",
          "type": "address"
        },
        {
          "internalType": "uint256",
          "name": "index",
          "type": "uint256"
        }
      ],
      "name": "tokenOfOwnerByIndex",
      "outputs": [
        {
          "internalType": "uint256",
          "name": "",
          "type": "uint256"
        }
      ],
      "stateMutability": "view",
      "type": "function"
    },
    {
      "inputs": [
        {
          "internalType": "uint256",
          "name": "token",
          "type": "uint256"
        }
      ],
      "name": "tokenURI",
      "outputs": [
        {
          "internalType": "string",
          "name": "out",
          "type": "string"
        }
      ],
      "stateMutability": "view",
      "type": "function"
    },
    {
      "inputs": [],
      "name": "totalSupply",
      "outputs": [
        {
          "internalType": "uint256",
          "name": "",
          "type": "uint256"
        }
      ],
      "stateMutability": "view",
      "type": "function"
    },
    {
      "inputs": [
        {
          "internalType": "address",
          "name": "from",
          "type": "address"
        },
        {
          "internalType": "address",
          "name": "to",
          "type": "address"
        },
        {
          "internalType": "uint256",
          "name": "tokenId",
          "type": "uint256"
        }
      ],
      "name": "transferFrom",
      "outputs": [],
      "stateMutability": "nonpayable",
      "type": "function"
    },
    {
      "inputs": [
        {
          "internalType": "string",
          "name": "_s",
          "type": "string"
        }
      ],
      "name": "validateDomain",
      "outputs": [
        {
          "internalType": "bool",
          "name": "valid",
          "type": "bool"
        },
        {
          "internalType": "uint256",
          "name": "parent",
          "type": "uint256"
        },
        {
          "internalType": "uint256",
          "name": "id",
          "type": "uint256"
        },
        {
          "internalType": "string",
          "name": "domain",
          "type": "string"
        }
      ],
      "stateMutability": "pure",
      "type": "function"
    }
  ],
  "bytecode": "0x608060405234801561001057600080fd5b5061404e806100206000396000f3fe608060405234801561001057600080fd5b50600436106102ad5760003560e01c806370a082311161017b578063c87b56dd116100d8578063e985e9c51161008c578063eedf792811610071578063eedf79281461058c578063fa23b5b014610594578063fb78fef1146105a7576102ad565b8063e985e9c514610566578063eb69761114610579576102ad565b8063cfa3c132116100bd578063cfa3c1321461052d578063d2a200ee14610540578063d4f5913414610553576102ad565b8063c87b56dd14610507578063c980c6261461051a576102ad565b8063963d1dad1161012f578063a4a183b011610114578063a4a183b0146104ce578063b1b3c83a146104e1578063b88d4fde146104f4576102ad565b8063963d1dad146104a8578063a22cb465146104bb576102ad565b80638cfbe3bb116101605780638cfbe3bb1461047a5780638faa8d091461048d57806395d89b41146104a0576102ad565b806370a08231146104545780637b4f022e14610467576102ad565b80632bb4350c116102295780634f558e79116101dd5780635dd8f6aa116101c25780635dd8f6aa146104265780636352211e146104395780636c0360eb1461044c576102ad565b80634f558e79146104005780634f6ccce714610413576102ad565b80633e4538361161020e5780633e453836146103c75780633e5779ee146103da57806342842e0e146103ed576102ad565b80632bb4350c146103945780632f745c59146103b4576102ad565b8063095ea7b3116102805780631ffb525f116102655780631ffb525f1461034d57806323b872dd1461036e5780632729af4314610381576102ad565b8063095ea7b31461032557806318160ddd14610338576102ad565b806301ffc9a7146102b257806306fdde03146102db57806307c6b841146102f0578063081812fc14610305575b600080fd5b6102c56102c03660046134c1565b6105ca565b6040516102d29190613a07565b60405180910390f35b6102e36105ed565b6040516102d29190613a4d565b6103036102fe36600461376c565b610683565b005b6103186103133660046136da565b61070e565b6040516102d291906139b7565b6103036103333660046133ff565b610770565b610340610846565b6040516102d29190613cba565b61036061035b36600461355c565b610857565b6040516102d2929190613d58565b61030361037c366004613311565b6108c3565b61034061038f3660046136da565b61091a565b6103a76103a23660046136da565b61092f565b6040516102d29190613c07565b6103406103c23660046133ff565b610ab4565b6103606103d536600461355c565b610adf565b6103036103e83660046136f2565b610b3d565b6103036103fb366004613311565b610b5e565b6102c561040e3660046136da565b610b79565b6103406104213660046136da565b610b84565b6103186104343660046136da565b610b9a565b6103186104473660046136da565b610bb8565b6102e3610be0565b610340610462366004613261565b610c41565b6103606104753660046136a7565b610ca9565b6103606104883660046135ed565b610d2f565b61034061049b3660046136da565b610dd4565b6102e3610de9565b6103036104b63660046137fb565b610e4a565b6103036104c93660046133c5565b610ee7565b6103186104dc366004613428565b610fec565b6103606104ef3660046134f9565b610ffa565b61030361050236600461334c565b61102a565b6102e36105153660046136da565b611088565b6103036105283660046137b6565b6110ed565b61034061053b3660046136da565b611172565b61030361054e3660046132ad565b611184565b610340610561366004613428565b611410565b6102c561057436600461327b565b61149b565b6102c56105873660046133ff565b6114c9565b61034061152a565b6103036105a2366004613714565b611558565b6105ba6105b53660046136a7565b6115ac565b6040516102d29493929190613a12565b6001600160e01b0319811660009081526033602052604090205460ff165b919050565b606a8054604080516020601f60026000196101006001881615020190951694909404938401819004810282018101909252828152606093909290918301828280156106795780601f1061064e57610100808354040283529160200191610679565b820191906000526020600020905b81548152906001019060200180831161065c57829003601f168201915b5050505050905090565b3361068d84610bb8565b6001600160a01b0316146106a057600080fd5b60008381526097602052604090206106bc90600301838361301e565b50826106c784610bb8565b6001600160a01b03167f446f502bb4d7664110df81da26583f4c2a757d1890d992c2df364826e4f404678484604051610701929190613a39565b60405180910390a3505050565b600061071982611624565b6107545760405162461bcd60e51b815260040180806020018281038252602c815260200180613f72602c913960400191505060405180910390fd5b506000908152606860205260409020546001600160a01b031690565b600061077b82610bb8565b9050806001600160a01b0316836001600160a01b031614156107ce5760405162461bcd60e51b8152600401808060200182810382526021815260200180613fc76021913960400191505060405180910390fd5b806001600160a01b03166107e0611631565b6001600160a01b031614806107fc57506107fc81610574611631565b6108375760405162461bcd60e51b8152600401808060200182810382526038815260200180613e976038913960400191505060405180910390fd5b6108418383611635565b505050565b600061085260666116b0565b905090565b6000806108658888886116bb565b80925081935050506108ae868386868080601f0160208091040260200160405190810160405280939291908181526020018383808284376000920191909152506118b592505050565b6108b88286611907565b965096945050505050565b6108d46108ce611631565b8261198f565b61090f5760405162461bcd60e51b8152600401808060200182810382526031815260200180613fe86031913960400191505060405180910390fd5b610841838383611a2b565b60009081526097602052604090206007015490565b6109376130aa565b600082815260976020526040902061094e83610bb8565b6001600160a01b0390811683528154602080850191909152600280840154909216606085015260048301805460408051601f6000196001851615610100020190931695909504918201849004840285018401905280845290918301828280156109f85780601f106109cd576101008083540402835291602001916109f8565b820191906000526020600020905b8154815290600101906020018083116109db57829003601f168201915b505050505060c0830152600681015460e0830152600781015461010080840191909152600582018054604080516020600260018516159096026000190190931694909404601f810183900483028501830190915280845290830182828015610aa15780601f10610a7657610100808354040283529160200191610aa1565b820191906000526020600020905b815481529060010190602001808311610a8457829003601f168201915b50505050508260a0018190525050919050565b6001600160a01b0382166000908152606560205260408120610ad69083611a36565b90505b92915050565b600080610aed8888886116bb565b9092509050610afc8683611a42565b6108b8828686868080601f016020809104026020016040519081016040528093929190818152602001838380828437600092019190915250611b7092505050565b610b4733836114c9565b610b5057600080fd5b610b5a8282611907565b5050565b6108418383836040518060200160405280600081525061102a565b6000610ad982611624565b600080610b92606684611c22565b509392505050565b6000908152609760205260409020600201546001600160a01b031690565b6000610ad982604051806060016040528060298152602001613ef96029913960669190611c40565b606d8054604080516020601f60026000196101006001881615020190951694909404938401819004810282018101909252828152606093909290918301828280156106795780601f1061064e57610100808354040283529160200191610679565b60006001600160a01b038216610c885760405162461bcd60e51b815260040180806020018281038252602a815260200180613ecf602a913960400191505060405180910390fd5b6001600160a01b0382166000908152606560205260409020610ad9906116b0565b6000806000806000610ce56000604051602001610cc69190613d10565b6040516020818303038152906040528051906020012060001c87611c57565b92509250925082610cf557600080fd5b60008282604051602001610d0a929190613cf7565b60408051601f1981840301815291905280516020909101209550919350505050915091565b600080610d3d8a8a8a6116bb565b8092508193505050610d86888388888080601f0160208091040260200160405190810160405280939291908181526020018383808284376000920191909152506118b592505050565b610dc7828886868080601f016020809104026020016040519081016040528093929190818152602001838380828437600092019190915250611b7092505050565b9850989650505050505050565b60009081526097602052604090206001015490565b606b8054604080516020601f60026000196101006001881615020190951694909404938401819004810282018101909252828152606093909290918301828280156106795780601f1061064e57610100808354040283529160200191610679565b33610e5483610bb8565b6001600160a01b031614610e6757600080fd5b600082815260976020526040902060060154811015610e8557600080fd5b600082815260976020526040902060060181905581610ea381610bb8565b6001600160a01b03167f4b347ca8c0c51791079de452638b82fce403ab3f12319ae12e4659e17e2a4a7683604051610edb9190613cba565b60405180910390a35050565b610eef611631565b6001600160a01b0316826001600160a01b03161415610f55576040805162461bcd60e51b815260206004820152601960248201527f4552433732313a20617070726f766520746f2063616c6c657200000000000000604482015290519081900360640190fd5b8060696000610f62611631565b6001600160a01b03908116825260208083019390935260409182016000908120918716808252919093529120805460ff191692151592909217909155610fa6611631565b6001600160a01b03167f17307eab39ab6107e8899845ad3d59bd9653f200f220920489ca2b5937696c318360405180821515815260200191505060405180910390a35050565b6000610ad961044783611410565b6000806110088686866116bb565b90925090506110178483611a42565b6110218284611907565b94509492505050565b61103b611035611631565b8361198f565b6110765760405162461bcd60e51b8152600401808060200182810382526031815260200180613fe86031913960400191505060405180910390fd5b61108284848484611f14565b50505050565b60606110c7609760008481526020019081526020016000206004016040516020016110b391906138af565b604051602081830303815290604052611f66565b6040516020016110d79190613972565b6040516020818303038152906040529050919050565b336110f783610bb8565b6001600160a01b03161461110a57600080fd5b6000828152609760209081526040909120825161112f92600590920191840190613108565b508161113a83610bb8565b6001600160a01b03167f7228383a10f0dfa73f0129ad947aa4f6689f533279ea1fa0e9fa10fbdb52120e83604051610edb9190613a4d565b60009081526097602052604090205490565b600054610100900460ff168061119d575061119d6120eb565b806111ab575060005460ff16155b6111e65760405162461bcd60e51b815260040180806020018281038252602e815260200180613f22602e913960400191505060405180910390fd5b600054610100900460ff16158015611211576000805460ff1961ff0019909116610100171660011790555b6112856040518060400160405280601181526020017f5a657230204e616d6520536572766963650000000000000000000000000000008152506040518060400160405280600381526020017f5a4e5300000000000000000000000000000000000000000000000000000000008152506120f1565b6112b985600060405160200161129b9190613d10565b6040516020818303038152906040528051906020012060001c611a42565b600060976000806040516020016112d09190613d10565b6040516020818303038152906040528051906020012060001c8152602001908152602001600020905060007f2c1a95cbf8200eb60430d91027ae7f1207996d544a887575b13bdfd1a958a667600060405160200161132e9190613d10565b60408051601f19818403018152908290528051602090910120611352918a90613d28565b60405180910390a261138e600060405160200161136f9190613d10565b6040516020818303038152906040528051906020012060001c86611907565b6113c260006040516020016113a39190613d10565b6040516020818303038152906040528051906020012060001c856110ed565b6113f660006040516020016113d79190613d10565b6040516020818303038152906040528051906020012060001c84610e4a565b508015611409576000805461ff00191690555b5050505050565b60008060006040516020016114259190613d10565b6040516020818303038152906040528051906020012060001c905060005b8351811015611494578184828151811061145957fe5b6020026020010151604051602001611472929190613cf7565b60408051601f1981840301815291905280516020909101209150600101611443565b5092915050565b6001600160a01b03918216600090815260696020908152604080832093909416825291909152205460ff1690565b6000806114d583610b9a565b9050806001600160a01b0316846001600160a01b0316148061152257506001600160a01b0381161580156115225750836001600160a01b031661151784610bb8565b6001600160a01b0316145b949350505050565b600060405160200161153c9190613d10565b6040516020818303038152906040528051906020012060001c81565b61156233856114c9565b61156b57600080fd5b611082848484848080601f016020809104026020016040519081016040528093929190818152602001838380828437600092019190915250611b7092505050565b600080600060606115e760006040516020016115c89190613d10565b6040516020818303038152906040528051906020012060001c86611c57565b60405192965090945091506116029084908390602001613cf7565b6040516020818303038152906040528051906020012060001c91509193509193565b6000610ad96066836121ae565b3390565b6000818152606860205260409020805473ffffffffffffffffffffffffffffffffffffffff19166001600160a01b038416908117909155819061167782610bb8565b6001600160a01b03167f8c5be1e5ebec7d5bd14f71427d1e84f3dd0314c0f7b2291e5b200ac8c7c3b92560405160405180910390a45050565b6000610ad9826121ba565b600080600080600061172660006040516020016116d89190613d10565b60408051601f198184030181528282528051602091820120601f8c018290048202840182019092528a83529091908b908b9081908401838280828437600092019190915250611c5792505050565b92509250925060008282604051602001611741929190613cf7565b6040516020818303038152906040528051906020012060001c9050836117825760405162461bcd60e51b815260040161177990613ace565b60405180910390fd5b61178c33846114c9565b6117a85760405162461bcd60e51b815260040161177990613a60565b6117b183611624565b6117cd5760405162461bcd60e51b815260040161177990613b05565b6117d681611624565b156117f35760405162461bcd60e51b815260040161177990613b73565b6000838152609760205260409020600681015460078201546001011061182b5760405162461bcd60e51b815260040161177990613a97565b6007810180546001908101909155600083815260976020526040902081830154820191810191909155848155611865600482018c8c61301e565b50847f2c1a95cbf8200eb60430d91027ae7f1207996d544a887575b13bdfd1a958a667848d8d8d60405161189c9493929190613cc3565b60405180910390a2509099929850919650505050505050565b6118bf8383611a42565b6118cc60008484846121be565b6108415760405162461bcd60e51b8152600401808060200182810382526032815260200180613def6032913960400191505060405180910390fd5b6000828152609760205260409020600201805473ffffffffffffffffffffffffffffffffffffffff19166001600160a01b03831690811790915561194a83610b9a565b6001600160a01b0316837f0af36ec64da94c558c48ce7fb33930392a9a27325b8cb0584000835ffff08cdd3360405161198391906139b7565b60405180910390a45050565b600061199a82611624565b6119d55760405162461bcd60e51b815260040180806020018281038252602c815260200180613e6b602c913960400191505060405180910390fd5b60006119e083610bb8565b9050806001600160a01b0316846001600160a01b03161480611a1b5750836001600160a01b0316611a108461070e565b6001600160a01b0316145b806115225750611522818561149b565b610841838383612350565b6000610ad6838361249c565b6001600160a01b038216611a9d576040805162461bcd60e51b815260206004820181905260248201527f4552433732313a206d696e7420746f20746865207a65726f2061646472657373604482015290519081900360640190fd5b611aa681611624565b15611af8576040805162461bcd60e51b815260206004820152601c60248201527f4552433732313a20746f6b656e20616c7265616479206d696e74656400000000604482015290519081900360640190fd5b611b0460008383610841565b6001600160a01b0382166000908152606560205260409020611b269082612500565b50611b336066828461250c565b5060405181906001600160a01b038416906000907fddf252ad1be2c89b69c2b068fc378daa952ba7f163c4a11628f55a4df523b3ef908290a45050565b6000611b7b84610b9a565b60008581526097602052604090819020600201805473ffffffffffffffffffffffffffffffffffffffff19166001600160a01b03878116918217909255915192935090919083169086907f0af36ec64da94c558c48ce7fb33930392a9a27325b8cb0584000835ffff08cdd90611bf29033906139b7565b60405180910390a4611c0681848685612522565b6110825760405162461bcd60e51b815260040161177990613b3c565b6000808080611c318686612653565b909450925050505b9250929050565b6000611c4d8484846126ce565b90505b9392505050565b805160208281018051600093849360609385938993919283929187918791848d0190910190825b828711611e9c577fff0000000000000000000000000000000000000000000000000000000000000082167f5c000000000000000000000000000000000000000000000000000000000000001415611d1d576000806040518060400160405280600981526020017f71756f74656361736500000000000000000000000000000000000000000000008152509c509c509c5050505050505050505050611f0d565b60f882901c602e1415611e235750600019878703018067ffffffffffffffff81118015611d4957600080fd5b506040519080825280601f01601f191660200182016040528015611d74576020820181803683370190505b509450602085019350611d88848983612798565b88856040516020018083815260200180602001828103825283818151815260200191508051906020019080838360005b83811015611dd0578181015183820152602001611db8565b50505050905090810190601f168015611dfd5780820380516001836020036101000a031916815260200191505b509350505050604051602081830303815290604052805190602001209850869750611e8d565b606160f883901c1080611e3a5750607a60f883901c115b15611e8d576000806040518060400160405280601281526020017f6661696c206e6f74206c6f7765726361736500000000000000000000000000008152509c509c509c5050505050505050505050611f0d565b86516001909701969150611c7e565b50600019878703018067ffffffffffffffff81118015611ebb57600080fd5b506040519080825280601f01601f191660200182016040528015611ee6576020820181803683370190505b509450602085019350611efa848983612798565b5060019b50969950919750505050505050505b9250925092565b611f1f848484611a2b565b611f2b848484846121be565b6110825760405162461bcd60e51b8152600401808060200182810382526032815260200180613def6032913960400191505060405180910390fd5b60606000829050611c506040518060400160405280600481526020017f01551220000000000000000000000000000000000000000000000000000000008152506002836040518082805190602001908083835b60208310611fd85780518252601f199092019160209182019101611fb9565b51815160209384036101000a60001901801990921691161790526040519190930194509192505080830381855afa158015612017573d6000803e3d6000fd5b5050506040513d602081101561202c57600080fd5b505160405182516020918201918291908501908083835b602083106120625780518252601f199092019160209182019101612043565b51815160209384036101000a60001901801990921691161790529201938452506040805180850381526060850182528483019283527f6162636465666768696a6b6c6d6e6f707172737475767778797a323334353637919094015291925060059190507f62000000000000000000000000000000000000000000000000000000000000006127d6565b303b1590565b600054610100900460ff168061210a575061210a6120eb565b80612118575060005460ff16155b6121535760405162461bcd60e51b815260040180806020018281038252602e815260200180613f22602e913960400191505060405180910390fd5b600054610100900460ff1615801561217e576000805460ff1961ff0019909116610100171660011790555b612186612971565b61218e612a13565b6121988383612ac9565b8015610841576000805461ff0019169055505050565b6000610ad68383612bf9565b5490565b60006121d2846001600160a01b0316612c11565b6121de57506001611522565b6000612316630a85bd0160e11b6121f3611631565b88878760405160240180856001600160a01b03168152602001846001600160a01b0316815260200183815260200180602001828103825283818151815260200191508051906020019080838360005b8381101561225a578181015183820152602001612242565b50505050905090810190601f1680156122875780820380516001836020036101000a031916815260200191505b5095505050505050604051602081830303815290604052907bffffffffffffffffffffffffffffffffffffffffffffffffffffffff19166020820180517bffffffffffffffffffffffffffffffffffffffffffffffffffffffff8381831617835250505050604051806060016040528060328152602001613def603291396001600160a01b0388169190612c17565b9050600081806020019051602081101561232f57600080fd5b50516001600160e01b031916630a85bd0160e11b1492505050949350505050565b826001600160a01b031661236382610bb8565b6001600160a01b0316146123a85760405162461bcd60e51b8152600401808060200182810382526029815260200180613f9e6029913960400191505060405180910390fd5b6001600160a01b0382166123ed5760405162461bcd60e51b8152600401808060200182810382526024815260200180613e216024913960400191505060405180910390fd5b6123f8838383610841565b612403600082611635565b6001600160a01b03831660009081526065602052604090206124259082612c26565b506001600160a01b03821660009081526065602052604090206124489082612500565b506124556066828461250c565b5080826001600160a01b0316846001600160a01b03167fddf252ad1be2c89b69c2b068fc378daa952ba7f163c4a11628f55a4df523b3ef60405160405180910390a4505050565b815460009082106124de5760405162461bcd60e51b8152600401808060200182810382526022815260200180613dcd6022913960400191505060405180910390fd5b8260000182815481106124ed57fe5b9060005260206000200154905092915050565b6000610ad68383612c32565b6000611c4d84846001600160a01b038516612c7c565b6000612536846001600160a01b0316612c11565b1561264b57836001600160a01b031663b2763317612552611631565b8786866040518563ffffffff1660e01b815260040161257494939291906139cb565b602060405180830381600087803b15801561258e57600080fd5b505af19250505080156125be575060408051601f3d908101601f191682019092526125bb918101906134dd565b60015b612618573d8080156125ec576040519150601f19603f3d011682016040523d82523d6000602084013e6125f1565b606091505b5080516126105760405162461bcd60e51b815260040161177990613baa565b805181602001fd5b6001600160e01b0319167fb276331700000000000000000000000000000000000000000000000000000000149050611522565b506001611522565b8154600090819083106126975760405162461bcd60e51b8152600401808060200182810382526022815260200180613f506022913960400191505060405180910390fd5b60008460000184815481106126a857fe5b906000526020600020906002020190508060000154816001015492509250509250929050565b600082815260018401602052604081205482816127695760405162461bcd60e51b81526004018080602001828103825283818151815260200191508051906020019080838360005b8381101561272e578181015183820152602001612716565b50505050905090810190601f16801561275b5780820380516001836020036101000a031916815260200191505b509250505060405180910390fd5b5084600001600182038154811061277c57fe5b9060005260206000209060020201600101549150509392505050565b5b602081106127b8578151835260209283019290910190601f1901612799565b905182516020929092036101000a6000190180199091169116179052565b835160609060080260008582816127e957fe5b06156127f65760026127f9565b60015b60ff1686838161280557fe5b0401905060008167ffffffffffffffff8111801561282257600080fd5b506040519080825280601f01601f19166020018201604052801561284d576020820181803683370190505b50905060006001886001901b039050600080878460008151811061286d57fe5b60200101906001600160f81b031916908160001a905350600160005b8c51811015612918578c818151811061289e57fe5b01602001516008948501949390931b60f89390931c92909217915b8b841115612910578b840393508a8484901c8616815181106128d757fe5b602001015160f81c60f81b8683815181106128ee57fe5b60200101906001600160f81b031916908160001a9053506001909101906128b9565b600101612889565b5082156129615789838c0383901b85168151811061293257fe5b602001015160f81c60f81b85828151811061294957fe5b60200101906001600160f81b031916908160001a9053505b50929a9950505050505050505050565b600054610100900460ff168061298a575061298a6120eb565b80612998575060005460ff16155b6129d35760405162461bcd60e51b815260040180806020018281038252602e815260200180613f22602e913960400191505060405180910390fd5b600054610100900460ff161580156129fe576000805460ff1961ff0019909116610100171660011790555b8015612a10576000805461ff00191690555b50565b600054610100900460ff1680612a2c5750612a2c6120eb565b80612a3a575060005460ff16155b612a755760405162461bcd60e51b815260040180806020018281038252602e815260200180613f22602e913960400191505060405180910390fd5b600054610100900460ff16158015612aa0576000805460ff1961ff0019909116610100171660011790555b6129fe7f01ffc9a700000000000000000000000000000000000000000000000000000000612d13565b600054610100900460ff1680612ae25750612ae26120eb565b80612af0575060005460ff16155b612b2b5760405162461bcd60e51b815260040180806020018281038252602e815260200180613f22602e913960400191505060405180910390fd5b600054610100900460ff16158015612b56576000805460ff1961ff0019909116610100171660011790555b8251612b6990606a906020860190613108565b508151612b7d90606b906020850190613108565b50612ba77f80ac58cd00000000000000000000000000000000000000000000000000000000612d13565b612bd07f5b5e139f00000000000000000000000000000000000000000000000000000000612d13565b6121987f780e9d6300000000000000000000000000000000000000000000000000000000612d13565b60009081526001919091016020526040902054151590565b3b151590565b6060611c4d8484600085612d97565b6000610ad68383612ef2565b6000612c3e8383612bf9565b612c7457508154600181810184556000848152602080822090930184905584548482528286019093526040902091909155610ad9565b506000610ad9565b600082815260018401602052604081205480612ce1575050604080518082018252838152602080820184815286546001818101895560008981528481209551600290930290950191825591519082015586548684528188019092529290912055611c50565b82856000016001830381548110612cf457fe5b9060005260206000209060020201600101819055506000915050611c50565b6001600160e01b03198082161415612d72576040805162461bcd60e51b815260206004820152601c60248201527f4552433136353a20696e76616c696420696e7465726661636520696400000000604482015290519081900360640190fd5b6001600160e01b0319166000908152603360205260409020805460ff19166001179055565b606082471015612dd85760405162461bcd60e51b8152600401808060200182810382526026815260200180613e456026913960400191505060405180910390fd5b612de185612c11565b612e32576040805162461bcd60e51b815260206004820152601d60248201527f416464726573733a2063616c6c20746f206e6f6e2d636f6e7472616374000000604482015290519081900360640190fd5b600080866001600160a01b031685876040518082805190602001908083835b60208310612e705780518252601f199092019160209182019101612e51565b6001836020036101000a03801982511681845116808217855250505050505090500191505060006040518083038185875af1925050503d8060008114612ed2576040519150601f19603f3d011682016040523d82523d6000602084013e612ed7565b606091505b5091509150612ee7828286612fb8565b979650505050505050565b60008181526001830160205260408120548015612fae5783546000198083019190810190600090879083908110612f2557fe5b9060005260206000200154905080876000018481548110612f4257fe5b600091825260208083209091019290925582815260018981019092526040902090840190558654879080612f7257fe5b60019003818190600052602060002001600090559055866001016000878152602001908152602001600020600090556001945050505050610ad9565b6000915050610ad9565b60608315612fc7575081611c50565b825115612fd75782518084602001fd5b60405162461bcd60e51b815260206004820181815284516024840152845185939192839260440191908501908083836000831561272e578181015183820152602001612716565b828054600181600116156101000203166002900490600052602060002090601f016020900481019282613054576000855561309a565b82601f1061306d5782800160ff1982351617855561309a565b8280016001018555821561309a579182015b8281111561309a57823582559160200191906001019061307f565b506130a6929150613184565b5090565b60405180610120016040528060006001600160a01b03168152602001600081526020016000815260200160006001600160a01b0316815260200160608152602001606081526020016060815260200160008152602001600081525090565b828054600181600116156101000203166002900490600052602060002090601f01602090048101928261313e576000855561309a565b82601f1061315757805160ff191683800117855561309a565b8280016001018555821561309a579182015b8281111561309a578251825591602001919060010190613169565b5b808211156130a65760008155600101613185565b600067ffffffffffffffff8311156131ad57fe5b6131c0601f8401601f1916602001613d66565b90508281528383830111156131d457600080fd5b828260208301376000602084830101529392505050565b80356001600160a01b03811681146105e857600080fd5b60008083601f840112613213578182fd5b50813567ffffffffffffffff81111561322a578182fd5b602083019150836020828501011115611c3957600080fd5b600082601f830112613252578081fd5b610ad683833560208501613199565b600060208284031215613272578081fd5b610ad6826131eb565b6000806040838503121561328d578081fd5b613296836131eb565b91506132a4602084016131eb565b90509250929050565b600080600080608085870312156132c2578182fd5b6132cb856131eb565b93506132d9602086016131eb565b9250604085013567ffffffffffffffff8111156132f4578283fd5b61330087828801613242565b949793965093946060013593505050565b600080600060608486031215613325578283fd5b61332e846131eb565b925061333c602085016131eb565b9150604084013590509250925092565b60008060008060808587031215613361578384fd5b61336a856131eb565b9350613378602086016131eb565b925060408501359150606085013567ffffffffffffffff81111561339a578182fd5b8501601f810187136133aa578182fd5b6133b987823560208401613199565b91505092959194509250565b600080604083850312156133d7578182fd5b6133e0836131eb565b9150602083013580151581146133f4578182fd5b809150509250929050565b60008060408385031215613411578182fd5b61341a836131eb565b946020939093013593505050565b6000602080838503121561343a578182fd5b823567ffffffffffffffff80821115613451578384fd5b818501915085601f830112613464578384fd5b81358181111561347057fe5b61347d8485830201613d66565b8181528481019250838501865b838110156134b3576134a18a888435890101613242565b8552938601939086019060010161348a565b509098975050505050505050565b6000602082840312156134d2578081fd5b8135611c5081613db6565b6000602082840312156134ee578081fd5b8151611c5081613db6565b6000806000806060858703121561350e578182fd5b843567ffffffffffffffff811115613524578283fd5b61353087828801613202565b90955093506135439050602086016131eb565b9150613551604086016131eb565b905092959194509250565b60008060008060008060808789031215613574578384fd5b863567ffffffffffffffff8082111561358b578586fd5b6135978a838b01613202565b90985096508691506135ab60208a016131eb565b95506135b960408a016131eb565b945060608901359150808211156135ce578384fd5b506135db89828a01613202565b979a9699509497509295939492505050565b60008060008060008060008060a0898b031215613608578586fd5b883567ffffffffffffffff8082111561361f578788fd5b61362b8c838d01613202565b909a50985088915061363f60208c016131eb565b975061364d60408c016131eb565b965060608b0135915080821115613662578384fd5b61366e8c838d01613202565b909650945060808b0135915080821115613686578384fd5b506136938b828c01613202565b999c989b5096995094979396929594505050565b6000602082840312156136b8578081fd5b813567ffffffffffffffff8111156136ce578182fd5b61152284828501613242565b6000602082840312156136eb578081fd5b5035919050565b60008060408385031215613704578182fd5b823591506132a4602084016131eb565b60008060008060608587031215613729578182fd5b84359350613739602086016131eb565b9250604085013567ffffffffffffffff811115613754578283fd5b61376087828801613202565b95989497509550505050565b600080600060408486031215613780578081fd5b83359250602084013567ffffffffffffffff81111561379d578182fd5b6137a986828701613202565b9497909650939450505050565b600080604083850312156137c8578182fd5b82359150602083013567ffffffffffffffff8111156137e5578182fd5b6137f185828601613242565b9150509250929050565b6000806040838503121561380d578182fd5b50508035926020909101359150565b6001600160a01b03169052565b60008151808452613841816020860160208601613d8a565b601f01601f19169290920160200192915050565b60008284528282602086013780602084860101526020601f19601f85011685010190509392505050565b600481527f524f4f5400000000000000000000000000000000000000000000000000000000602082015260400190565b60007f7b226e616d65223a220000000000000000000000000000000000000000000000825260098184546001808216600081146138f3576001811461390e57613941565b60ff1983168786015260028304607f16870185019350613941565b600283048887526020808820885b838110156139375781548b82018a015290850190820161391c565b5050508701850193505b50507f227d000000000000000000000000000000000000000000000000000000000000825250600201949350505050565b60007f697066733a2f2f00000000000000000000000000000000000000000000000000825282516139aa816007850160208701613d8a565b9190910160070192915050565b6001600160a01b0391909116815260200190565b60006001600160a01b038087168352808616602084015250836040830152608060608301526139fd6080830184613829565b9695505050505050565b901515815260200190565b60008515158252846020830152836040830152608060608301526139fd6080830184613829565b600060208252611c4d602083018486613855565b600060208252610ad66020830184613829565b60208082526012908201527f73656e6465722063616e74206372656174650000000000000000000000000000604082015260600190565b60208082526013908201527f4368696c64206c696d6974207265616368656400000000000000000000000000604082015260600190565b60208082526019908201527f646f6d61696e206661696c656420746f2076616c696461746500000000000000604082015260600190565b60208082526014908201527f706172656e7420646f65736e2774206578697374000000000000000000000000604082015260600190565b60208082526016908201527f6e6f7420612076616c696420636f6e74726f6c6c657200000000000000000000604082015260600190565b60208082526016908201527f646f6d61696e20616c7265616479206372656174656400000000000000000000604082015260600190565b6020808252603c908201527f5a4e5352656769737472793a20636f6e74726f6c6c65722073657420746f206e60408201527f6f6e205a4e53436f6e74726f6c6c657220696d706c656d656e74657200000000606082015260800190565b600060208252613c1b60208301845161381c565b60208301516040830152604083015160608301526060830151613c41608084018261381c565b5060808301516101208060a0850152613c5e610140850183613829565b915060a0850151601f19808685030160c0870152613c7c8483613829565b935060c08701519150808685030160e087015250613c9a8382613829565b60e087015161010087810191909152909601519190940152509192915050565b90815260200190565b600085825260606020830152613cdd606083018587613855565b90506001600160a01b038316604083015295945050505050565b600083825260406020830152611c4d6040830184613829565b600082825260406020830152610ad66040830161387f565b600083825260606020830152613d406060830161387f565b90506001600160a01b03831660408301529392505050565b918252602082015260400190565b60405181810167ffffffffffffffff81118282101715613d8257fe5b604052919050565b60005b83811015613da5578181015183820152602001613d8d565b838111156110825750506000910152565b6001600160e01b031981168114612a1057600080fdfe456e756d657261626c655365743a20696e646578206f7574206f6620626f756e64734552433732313a207472616e7366657220746f206e6f6e20455243373231526563656976657220696d706c656d656e7465724552433732313a207472616e7366657220746f20746865207a65726f2061646472657373416464726573733a20696e73756666696369656e742062616c616e636520666f722063616c6c4552433732313a206f70657261746f7220717565727920666f72206e6f6e6578697374656e7420746f6b656e4552433732313a20617070726f76652063616c6c6572206973206e6f74206f776e6572206e6f7220617070726f76656420666f7220616c6c4552433732313a2062616c616e636520717565727920666f7220746865207a65726f20616464726573734552433732313a206f776e657220717565727920666f72206e6f6e6578697374656e7420746f6b656e496e697469616c697a61626c653a20636f6e747261637420697320616c726561647920696e697469616c697a6564456e756d657261626c654d61703a20696e646578206f7574206f6620626f756e64734552433732313a20617070726f76656420717565727920666f72206e6f6e6578697374656e7420746f6b656e4552433732313a207472616e73666572206f6620746f6b656e2074686174206973206e6f74206f776e4552433732313a20617070726f76616c20746f2063757272656e74206f776e65724552433732313a207472616e736665722063616c6c6572206973206e6f74206f776e6572206e6f7220617070726f766564a26469706673582212208cf1d3f6773d15ac1017175e3e2d8f260ff88bb8309d6fc6bc129df35207294c64736f6c63430007060033",
  "linkReferences": {},
  "deployedLinkReferences": {}
}