{
  "_format": "hh-sol-artifact-1",
  "contractName": "TestMath",
  "sourceName": "contracts/bancor/helpers/TestMath.sol",
  "abi": [
    {
      "inputs": [
        {
          "internalType": "uint256",
          "name": "_a",
          "type": "uint256"
        },
        {
          "internalType": "uint256",
          "name": "_b",
          "type": "uint256"
        },
        {
          "internalType": "uint256",
          "name": "_scale",
          "type": "uint256"
        }
      ],
      "name": "accurateRatioTest",
      "outputs": [
        {
          "internalType": "uint256",
          "name": "",
          "type": "uint256"
        },
        {
          "internalType": "uint256",
          "name": "",
          "type": "uint256"
        }
      ],
      "stateMutability": "pure",
      "type": "function"
    },
    {
      "inputs": [
        {
          "internalType": "uint256",
          "name": "_num",
          "type": "uint256"
        }
      ],
      "name": "floorSqrtTest",
      "outputs": [
        {
          "internalType": "uint256",
          "name": "",
          "type": "uint256"
        }
      ],
      "stateMutability": "pure",
      "type": "function"
    },
    {
      "inputs": [
        {
          "internalType": "uint256",
          "name": "_a",
          "type": "uint256"
        },
        {
          "internalType": "uint256",
          "name": "_b",
          "type": "uint256"
        },
        {
          "internalType": "uint256",
          "name": "_scale",
          "type": "uint256"
        }
      ],
      "name": "normalizedRatioTest",
      "outputs": [
        {
          "internalType": "uint256",
          "name": "",
          "type": "uint256"
        },
        {
          "internalType": "uint256",
          "name": "",
          "type": "uint256"
        }
      ],
      "stateMutability": "pure",
      "type": "function"
    },
    {
      "inputs": [
        {
          "internalType": "uint256",
          "name": "_n",
          "type": "uint256"
        },
        {
          "internalType": "uint256",
          "name": "_d",
          "type": "uint256"
        },
        {
          "internalType": "uint256",
          "name": "_max",
          "type": "uint256"
        }
      ],
      "name": "reducedRatioTest",
      "outputs": [
        {
          "internalType": "uint256",
          "name": "",
          "type": "uint256"
        },
        {
          "internalType": "uint256",
          "name": "",
          "type": "uint256"
        }
      ],
      "stateMutability": "pure",
      "type": "function"
    },
    {
      "inputs": [
        {
          "internalType": "uint256",
          "name": "_n",
          "type": "uint256"
        },
        {
          "internalType": "uint256",
          "name": "_d",
          "type": "uint256"
        }
      ],
      "name": "roundDivTest",
      "outputs": [
        {
          "internalType": "uint256",
          "name": "",
          "type": "uint256"
        }
      ],
      "stateMutability": "pure",
      "type": "function"
    }
  ],
  "bytecode": "0x608060405234801561001057600080fd5b506103c0806100206000396000f3fe608060405234801561001057600080fd5b50600436106100675760003560e01c806355bc07b61161005057806355bc07b6146100e357806371763d411461010c578063904c43391461012957610067565b80631ad36d0a1461006c57806347d0b686146100ae575b600080fd5b6100956004803603606081101561008257600080fd5b5080359060208101359060400135610152565b6040805192835260208301919091528051918290030190f35b6100d1600480360360408110156100c457600080fd5b508035906020013561016d565b60408051918252519081900360200190f35b610095600480360360608110156100f957600080fd5b5080359060208101359060400135610180565b6100d16004803603602081101561012257600080fd5b503561018e565b6100956004803603606081101561013f57600080fd5b508035906020810135906040013561019f565b6000806101608585856101ad565b915091505b935093915050565b600061017983836101df565b9392505050565b60008061016085858561020b565b600061019982610250565b92915050565b6000806101608585856102a6565b600080828511806101bd57508284115b156101d6576101cd85858561020b565b91509150610165565b50929391925050565b60006002820482038284816101f057fe5b06816101f857fe5b0482848161020257fe5b04019392505050565b600080838514156102225750506002810480610165565b83851015610235576101cd8585856102a6565b6000806102438688876102a6565b9890975095505050505050565b6000806002830460010190506000600282858161026957fe5b0483018161027357fe5b0490505b8082111561029f57809150600282858161028d57fe5b0483018161029757fe5b049050610277565b5092915050565b600080600083600019816102b657fe5b049050808611156102ef5760008160010187816102cf57fe5b0460010190508087816102de57fe5b0496508086816102ea57fe5b049550505b60006103068786026103018989610316565b6101df565b9794889003965093945050505050565b60008282018381101561017957604080517f08c379a000000000000000000000000000000000000000000000000000000000815260206004820152600c60248201527f4552525f4f564552464c4f570000000000000000000000000000000000000000604482015290519081900360640190fdfea264697066735822122092493fa910bb189e40f2057892266d5c4bfc12e23a822f53580b70f5b839a92164736f6c634300060c0033",
  "linkReferences": {},
  "deployedLinkReferences": {}
}