{
  "_format": "hh-sol-artifact-1",
  "contractName": "TestConverterRegistry",
  "sourceName": "contracts/bancor/helpers/TestConverterRegistry.sol",
  "abi": [
    {
      "inputs": [
        {
          "internalType": "contract IContractRegistry",
          "name": "_registry",
          "type": "address"
        }
      ],
      "stateMutability": "nonpayable",
      "type": "constructor"
    },
    {
      "anonymous": false,
      "inputs": [
        {
          "indexed": true,
          "internalType": "contract IConverterAnchor",
          "name": "_anchor",
          "type": "address"
        }
      ],
      "name": "ConverterAnchorAdded",
      "type": "event"
    },
    {
      "anonymous": false,
      "inputs": [
        {
          "indexed": true,
          "internalType": "contract IConverterAnchor",
          "name": "_anchor",
          "type": "address"
        }
      ],
      "name": "ConverterAnchorRemoved",
      "type": "event"
    },
    {
      "anonymous": false,
      "inputs": [
        {
          "indexed": true,
          "internalType": "contract IERC20Token",
          "name": "_convertibleToken",
          "type": "address"
        },
        {
          "indexed": true,
          "internalType": "contract IConverterAnchor",
          "name": "_smartToken",
          "type": "address"
        }
      ],
      "name": "ConvertibleTokenAdded",
      "type": "event"
    },
    {
      "anonymous": false,
      "inputs": [
        {
          "indexed": true,
          "internalType": "contract IERC20Token",
          "name": "_convertibleToken",
          "type": "address"
        },
        {
          "indexed": true,
          "internalType": "contract IConverterAnchor",
          "name": "_smartToken",
          "type": "address"
        }
      ],
      "name": "ConvertibleTokenRemoved",
      "type": "event"
    },
    {
      "anonymous": false,
      "inputs": [
        {
          "indexed": true,
          "internalType": "contract IConverterAnchor",
          "name": "_liquidityPool",
          "type": "address"
        }
      ],
      "name": "LiquidityPoolAdded",
      "type": "event"
    },
    {
      "anonymous": false,
      "inputs": [
        {
          "indexed": true,
          "internalType": "contract IConverterAnchor",
          "name": "_liquidityPool",
          "type": "address"
        }
      ],
      "name": "LiquidityPoolRemoved",
      "type": "event"
    },
    {
      "anonymous": false,
      "inputs": [
        {
          "indexed": true,
          "internalType": "address",
          "name": "_prevOwner",
          "type": "address"
        },
        {
          "indexed": true,
          "internalType": "address",
          "name": "_newOwner",
          "type": "address"
        }
      ],
      "name": "OwnerUpdate",
      "type": "event"
    },
    {
      "anonymous": false,
      "inputs": [
        {
          "indexed": true,
          "internalType": "contract IConverterAnchor",
          "name": "_smartToken",
          "type": "address"
        }
      ],
      "name": "SmartTokenAdded",
      "type": "event"
    },
    {
      "anonymous": false,
      "inputs": [
        {
          "indexed": true,
          "internalType": "contract IConverterAnchor",
          "name": "_smartToken",
          "type": "address"
        }
      ],
      "name": "SmartTokenRemoved",
      "type": "event"
    },
    {
      "inputs": [],
      "name": "acceptOwnership",
      "outputs": [],
      "stateMutability": "nonpayable",
      "type": "function"
    },
    {
      "inputs": [
        {
          "internalType": "contract IConverter",
          "name": "_converter",
          "type": "address"
        }
      ],
      "name": "addConverter",
      "outputs": [],
      "stateMutability": "nonpayable",
      "type": "function"
    },
    {
      "inputs": [],
      "name": "createdConverter",
      "outputs": [
        {
          "internalType": "contract IConverter",
          "name": "",
          "type": "address"
        }
      ],
      "stateMutability": "view",
      "type": "function"
    },
    {
      "inputs": [
        {
          "internalType": "uint256",
          "name": "_index",
          "type": "uint256"
        }
      ],
      "name": "getAnchor",
      "outputs": [
        {
          "internalType": "contract IConverterAnchor",
          "name": "",
          "type": "address"
        }
      ],
      "stateMutability": "view",
      "type": "function"
    },
    {
      "inputs": [],
      "name": "getAnchorCount",
      "outputs": [
        {
          "internalType": "uint256",
          "name": "",
          "type": "uint256"
        }
      ],
      "stateMutability": "view",
      "type": "function"
    },
    {
      "inputs": [],
      "name": "getAnchors",
      "outputs": [
        {
          "internalType": "address[]",
          "name": "",
          "type": "address[]"
        }
      ],
      "stateMutability": "view",
      "type": "function"
    },
    {
      "inputs": [
        {
          "internalType": "address[]",
          "name": "_anchors",
          "type": "address[]"
        }
      ],
      "name": "getConvertersByAnchors",
      "outputs": [
        {
          "internalType": "contract IConverter[]",
          "name": "",
          "type": "address[]"
        }
      ],
      "stateMutability": "view",
      "type": "function"
    },
    {
      "inputs": [
        {
          "internalType": "address[]",
          "name": "_smartTokens",
          "type": "address[]"
        }
      ],
      "name": "getConvertersBySmartTokens",
      "outputs": [
        {
          "internalType": "contract IConverter[]",
          "name": "",
          "type": "address[]"
        }
      ],
      "stateMutability": "view",
      "type": "function"
    },
    {
      "inputs": [
        {
          "internalType": "uint256",
          "name": "_index",
          "type": "uint256"
        }
      ],
      "name": "getConvertibleToken",
      "outputs": [
        {
          "internalType": "contract IERC20Token",
          "name": "",
          "type": "address"
        }
      ],
      "stateMutability": "view",
      "type": "function"
    },
    {
      "inputs": [
        {
          "internalType": "contract IERC20Token",
          "name": "_convertibleToken",
          "type": "address"
        },
        {
          "internalType": "uint256",
          "name": "_index",
          "type": "uint256"
        }
      ],
      "name": "getConvertibleTokenAnchor",
      "outputs": [
        {
          "internalType": "contract IConverterAnchor",
          "name": "",
          "type": "address"
        }
      ],
      "stateMutability": "view",
      "type": "function"
    },
    {
      "inputs": [
        {
          "internalType": "contract IERC20Token",
          "name": "_convertibleToken",
          "type": "address"
        }
      ],
      "name": "getConvertibleTokenAnchorCount",
      "outputs": [
        {
          "internalType": "uint256",
          "name": "",
          "type": "uint256"
        }
      ],
      "stateMutability": "view",
      "type": "function"
    },
    {
      "inputs": [
        {
          "internalType": "contract IERC20Token",
          "name": "_convertibleToken",
          "type": "address"
        }
      ],
      "name": "getConvertibleTokenAnchors",
      "outputs": [
        {
          "internalType": "address[]",
          "name": "",
          "type": "address[]"
        }
      ],
      "stateMutability": "view",
      "type": "function"
    },
    {
      "inputs": [],
      "name": "getConvertibleTokenCount",
      "outputs": [
        {
          "internalType": "uint256",
          "name": "",
          "type": "uint256"
        }
      ],
      "stateMutability": "view",
      "type": "function"
    },
    {
      "inputs": [
        {
          "internalType": "contract IERC20Token",
          "name": "_convertibleToken",
          "type": "address"
        },
        {
          "internalType": "uint256",
          "name": "_index",
          "type": "uint256"
        }
      ],
      "name": "getConvertibleTokenSmartToken",
      "outputs": [
        {
          "internalType": "contract IConverterAnchor",
          "name": "",
          "type": "address"
        }
      ],
      "stateMutability": "view",
      "type": "function"
    },
    {
      "inputs": [
        {
          "internalType": "contract IERC20Token",
          "name": "_convertibleToken",
          "type": "address"
        }
      ],
      "name": "getConvertibleTokenSmartTokenCount",
      "outputs": [
        {
          "internalType": "uint256",
          "name": "",
          "type": "uint256"
        }
      ],
      "stateMutability": "view",
      "type": "function"
    },
    {
      "inputs": [
        {
          "internalType": "contract IERC20Token",
          "name": "_convertibleToken",
          "type": "address"
        }
      ],
      "name": "getConvertibleTokenSmartTokens",
      "outputs": [
        {
          "internalType": "address[]",
          "name": "",
          "type": "address[]"
        }
      ],
      "stateMutability": "view",
      "type": "function"
    },
    {
      "inputs": [],
      "name": "getConvertibleTokens",
      "outputs": [
        {
          "internalType": "address[]",
          "name": "",
          "type": "address[]"
        }
      ],
      "stateMutability": "view",
      "type": "function"
    },
    {
      "inputs": [
        {
          "internalType": "uint256",
          "name": "_index",
          "type": "uint256"
        }
      ],
      "name": "getLiquidityPool",
      "outputs": [
        {
          "internalType": "contract IConverterAnchor",
          "name": "",
          "type": "address"
        }
      ],
      "stateMutability": "view",
      "type": "function"
    },
    {
      "inputs": [
        {
          "internalType": "uint16",
          "name": "_type",
          "type": "uint16"
        },
        {
          "internalType": "contract IERC20Token[]",
          "name": "_reserveTokens",
          "type": "address[]"
        },
        {
          "internalType": "uint32[]",
          "name": "_reserveWeights",
          "type": "uint32[]"
        }
      ],
      "name": "getLiquidityPoolByConfig",
      "outputs": [
        {
          "internalType": "contract IConverterAnchor",
          "name": "",
          "type": "address"
        }
      ],
      "stateMutability": "view",
      "type": "function"
    },
    {
      "inputs": [
        {
          "internalType": "contract IERC20Token[]",
          "name": "_reserveTokens",
          "type": "address[]"
        },
        {
          "internalType": "uint32[]",
          "name": "_reserveWeights",
          "type": "uint32[]"
        }
      ],
      "name": "getLiquidityPoolByReserveConfig",
      "outputs": [
        {
          "internalType": "contract IConverterAnchor",
          "name": "",
          "type": "address"
        }
      ],
      "stateMutability": "view",
      "type": "function"
    },
    {
      "inputs": [],
      "name": "getLiquidityPoolCount",
      "outputs": [
        {
          "internalType": "uint256",
          "name": "",
          "type": "uint256"
        }
      ],
      "stateMutability": "view",
      "type": "function"
    },
    {
      "inputs": [],
      "name": "getLiquidityPools",
      "outputs": [
        {
          "internalType": "address[]",
          "name": "",
          "type": "address[]"
        }
      ],
      "stateMutability": "view",
      "type": "function"
    },
    {
      "inputs": [
        {
          "internalType": "uint256",
          "name": "_index",
          "type": "uint256"
        }
      ],
      "name": "getSmartToken",
      "outputs": [
        {
          "internalType": "contract IConverterAnchor",
          "name": "",
          "type": "address"
        }
      ],
      "stateMutability": "view",
      "type": "function"
    },
    {
      "inputs": [],
      "name": "getSmartTokenCount",
      "outputs": [
        {
          "internalType": "uint256",
          "name": "",
          "type": "uint256"
        }
      ],
      "stateMutability": "view",
      "type": "function"
    },
    {
      "inputs": [],
      "name": "getSmartTokens",
      "outputs": [
        {
          "internalType": "address[]",
          "name": "",
          "type": "address[]"
        }
      ],
      "stateMutability": "view",
      "type": "function"
    },
    {
      "inputs": [
        {
          "internalType": "address",
          "name": "_value",
          "type": "address"
        }
      ],
      "name": "isAnchor",
      "outputs": [
        {
          "internalType": "bool",
          "name": "",
          "type": "bool"
        }
      ],
      "stateMutability": "view",
      "type": "function"
    },
    {
      "inputs": [
        {
          "internalType": "contract IConverter",
          "name": "_converter",
          "type": "address"
        }
      ],
      "name": "isConverterValid",
      "outputs": [
        {
          "internalType": "bool",
          "name": "",
          "type": "bool"
        }
      ],
      "stateMutability": "view",
      "type": "function"
    },
    {
      "inputs": [
        {
          "internalType": "address",
          "name": "_value",
          "type": "address"
        }
      ],
      "name": "isConvertibleToken",
      "outputs": [
        {
          "internalType": "bool",
          "name": "",
          "type": "bool"
        }
      ],
      "stateMutability": "view",
      "type": "function"
    },
    {
      "inputs": [
        {
          "internalType": "contract IERC20Token",
          "name": "_convertibleToken",
          "type": "address"
        },
        {
          "internalType": "address",
          "name": "_value",
          "type": "address"
        }
      ],
      "name": "isConvertibleTokenAnchor",
      "outputs": [
        {
          "internalType": "bool",
          "name": "",
          "type": "bool"
        }
      ],
      "stateMutability": "view",
      "type": "function"
    },
    {
      "inputs": [
        {
          "internalType": "contract IERC20Token",
          "name": "_convertibleToken",
          "type": "address"
        },
        {
          "internalType": "address",
          "name": "_value",
          "type": "address"
        }
      ],
      "name": "isConvertibleTokenSmartToken",
      "outputs": [
        {
          "internalType": "bool",
          "name": "",
          "type": "bool"
        }
      ],
      "stateMutability": "view",
      "type": "function"
    },
    {
      "inputs": [
        {
          "internalType": "address",
          "name": "_value",
          "type": "address"
        }
      ],
      "name": "isLiquidityPool",
      "outputs": [
        {
          "internalType": "bool",
          "name": "",
          "type": "bool"
        }
      ],
      "stateMutability": "view",
      "type": "function"
    },
    {
      "inputs": [
        {
          "internalType": "contract IConverter",
          "name": "_converter",
          "type": "address"
        }
      ],
      "name": "isSimilarLiquidityPoolRegistered",
      "outputs": [
        {
          "internalType": "bool",
          "name": "",
          "type": "bool"
        }
      ],
      "stateMutability": "view",
      "type": "function"
    },
    {
      "inputs": [
        {
          "internalType": "address",
          "name": "_value",
          "type": "address"
        }
      ],
      "name": "isSmartToken",
      "outputs": [
        {
          "internalType": "bool",
          "name": "",
          "type": "bool"
        }
      ],
      "stateMutability": "view",
      "type": "function"
    },
    {
      "inputs": [
        {
          "internalType": "uint16",
          "name": "_type",
          "type": "uint16"
        },
        {
          "internalType": "string",
          "name": "_name",
          "type": "string"
        },
        {
          "internalType": "string",
          "name": "_symbol",
          "type": "string"
        },
        {
          "internalType": "uint8",
          "name": "_decimals",
          "type": "uint8"
        },
        {
          "internalType": "uint32",
          "name": "_maxConversionFee",
          "type": "uint32"
        },
        {
          "internalType": "contract IERC20Token[]",
          "name": "_reserveTokens",
          "type": "address[]"
        },
        {
          "internalType": "uint32[]",
          "name": "_reserveWeights",
          "type": "uint32[]"
        }
      ],
      "name": "newConverter",
      "outputs": [
        {
          "internalType": "contract IConverter",
          "name": "",
          "type": "address"
        }
      ],
      "stateMutability": "nonpayable",
      "type": "function"
    },
    {
      "inputs": [],
      "name": "newOwner",
      "outputs": [
        {
          "internalType": "address",
          "name": "",
          "type": "address"
        }
      ],
      "stateMutability": "view",
      "type": "function"
    },
    {
      "inputs": [],
      "name": "onlyOwnerCanUpdateRegistry",
      "outputs": [
        {
          "internalType": "bool",
          "name": "",
          "type": "bool"
        }
      ],
      "stateMutability": "view",
      "type": "function"
    },
    {
      "inputs": [],
      "name": "owner",
      "outputs": [
        {
          "internalType": "address",
          "name": "",
          "type": "address"
        }
      ],
      "stateMutability": "view",
      "type": "function"
    },
    {
      "inputs": [],
      "name": "prevRegistry",
      "outputs": [
        {
          "internalType": "contract IContractRegistry",
          "name": "",
          "type": "address"
        }
      ],
      "stateMutability": "view",
      "type": "function"
    },
    {
      "inputs": [],
      "name": "registry",
      "outputs": [
        {
          "internalType": "contract IContractRegistry",
          "name": "",
          "type": "address"
        }
      ],
      "stateMutability": "view",
      "type": "function"
    },
    {
      "inputs": [
        {
          "internalType": "contract IConverter",
          "name": "_converter",
          "type": "address"
        }
      ],
      "name": "removeConverter",
      "outputs": [],
      "stateMutability": "nonpayable",
      "type": "function"
    },
    {
      "inputs": [],
      "name": "restoreRegistry",
      "outputs": [],
      "stateMutability": "nonpayable",
      "type": "function"
    },
    {
      "inputs": [
        {
          "internalType": "bool",
          "name": "_onlyOwnerCanUpdateRegistry",
          "type": "bool"
        }
      ],
      "name": "restrictRegistryUpdate",
      "outputs": [],
      "stateMutability": "nonpayable",
      "type": "function"
    },
    {
      "inputs": [
        {
          "internalType": "address",
          "name": "_newOwner",
          "type": "address"
        }
      ],
      "name": "transferOwnership",
      "outputs": [],
      "stateMutability": "nonpayable",
      "type": "function"
    },
    {
      "inputs": [],
      "name": "updateRegistry",
      "outputs": [],
      "stateMutability": "nonpayable",
      "type": "function"
    }
  ],
  "bytecode": "0x60806040523480156200001157600080fd5b506040516200353638038062003536833981810160405260208110156200003757600080fd5b5051600080546001600160a01b0319163317905580808062000059816200008d565b50600280546001600160a01b039092166001600160a01b031992831681179091556003805490921617905550620000ec9050565b6001600160a01b038116620000e9576040805162461bcd60e51b815260206004820152601360248201527f4552525f494e56414c49445f4144445245535300000000000000000000000000604482015290519081900360640190fd5b50565b61343a80620000fc6000396000f3fe608060405234801561001057600080fd5b50600436106102f45760003560e01c80637b10399911610191578063b4c4197a116100e3578063d8cced2a11610097578063effb3c6e11610071578063effb3c6e14610cea578063f2fde38b14610cf2578063f4fb86c014610d18576102f4565b8063d8cced2a14610c96578063e571049b14610cbc578063e85455d714610cc4576102f4565b8063d3182bed116100c8578063d3182bed14610c5a578063d4ee1d9014610c62578063d6c4b5b214610c6a576102f4565b8063b4c4197a14610b05578063c22b82f014610b33576102f4565b8063954254f511610145578063a43d5e941161011f578063a43d5e9414610aba578063a74498aa14610ae0578063b4a176d314610afd576102f4565b8063954254f514610a515780639e76a00714610a77578063a109d21414610a9d576102f4565b8063865cf19411610176578063865cf19414610a065780638da5cb5b14610a235780638f1d0e1a14610a2b576102f4565b80637b103999146109f65780637f45c4c3146109fe576102f4565b80634c7df18f1161024a57806361cd756e116101fe578063725b8786116101d8578063725b8786146109b857806379ba5097146109e65780637a5f0ffd146109ee576102f4565b806361cd756e1461098257806369be47841461098a5780636ce1c4dc14610992576102f4565b80635f1b50fe1161022f5780635f1b50fe146108ab578063603f51e4146108b3578063610c0b05146108df576102f4565b80634c7df18f146106395780635a0a661814610656576102f4565b80631f8e2620116102ac5780634123ef60116102865780634123ef60146105d357806349c5f32b146105f957806349d10b6414610631576102f4565b80631f8e2620146104ee5780632fe8a6ad146105915780633ab8857c146105ad576102f4565b806311839064116102dd57806311839064146103725780631814f2d2146103985780631d3fccd5146103bc576102f4565b8063024c7ec7146102f957806304ceaf411461031a575b600080fd5b6103186004803603602081101561030f57600080fd5b50351515610d3e565b005b610322610d7f565b60408051602080825283518183015283519192839290830191858101910280838360005b8381101561035e578181015183820152602001610346565b505050509050019250505060405180910390f35b6103226004803603602081101561038857600080fd5b50356001600160a01b0316610d8e565b6103a0610ec3565b604080516001600160a01b039092168252519081900360200190f35b6103a0600480360360608110156103d257600080fd5b61ffff82351691908101906040810160208201356401000000008111156103f857600080fd5b82018360208201111561040a57600080fd5b8035906020019184602083028401116401000000008311171561042c57600080fd5b919080806020026020016040519081016040528093929190818152602001838360200280828437600092019190915250929594936020810193503591505064010000000081111561047c57600080fd5b82018360208201111561048e57600080fd5b803590602001918460208302840111640100000000831117156104b057600080fd5b919080806020026020016040519081016040528093929190818152602001838360200280828437600092019190915250929550610ed2945050505050565b6103226004803603602081101561050457600080fd5b81019060208101813564010000000081111561051f57600080fd5b82018360208201111561053157600080fd5b8035906020019184602083028401116401000000008311171561055357600080fd5b919080806020026020016040519081016040528093929190818152602001838360200280828437600092019190915250929550610fb9945050505050565b610599610fca565b604080519115158252519081900360200190f35b610599600480360360208110156105c357600080fd5b50356001600160a01b0316610fda565b610599600480360360208110156105e957600080fd5b50356001600160a01b0316611071565b61061f6004803603602081101561060f57600080fd5b50356001600160a01b031661107c565b60408051918252519081900360200190f35b6103186110e1565b6103a06004803603602081101561064f57600080fd5b5035611315565b6103a0600480360360e081101561066c57600080fd5b61ffff823516919081019060408101602082013564010000000081111561069257600080fd5b8201836020820111156106a457600080fd5b803590602001918460018302840111640100000000831117156106c657600080fd5b91908080601f016020809104026020016040519081016040528093929190818152602001838380828437600092019190915250929594936020810193503591505064010000000081111561071957600080fd5b82018360208201111561072b57600080fd5b8035906020019184600183028401116401000000008311171561074d57600080fd5b91908080601f016020809104026020016040519081016040528093929190818152602001838380828437600092019190915250929560ff8535169563ffffffff602087013516959194509250606081019150604001356401000000008111156107b557600080fd5b8201836020820111156107c757600080fd5b803590602001918460208302840111640100000000831117156107e957600080fd5b919080806020026020016040519081016040528093929190818152602001838360200280828437600092019190915250929594936020810193503591505064010000000081111561083957600080fd5b82018360208201111561084b57600080fd5b8035906020019184602083028401116401000000008311171561086d57600080fd5b919080806020026020016040519081016040528093929190818152602001838360200280828437600092019190915250929550611371945050505050565b6103226113ad565b6103a0600480360360408110156108c957600080fd5b506001600160a01b0381351690602001356114cc565b610322600480360360208110156108f557600080fd5b81019060208101813564010000000081111561091057600080fd5b82018360208201111561092257600080fd5b8035906020019184602083028401116401000000008311171561094457600080fd5b91908080602002602001604051908101604052809392919081815260200183836020028082843760009201919091525092955061156c945050505050565b6103a061166d565b61061f61167c565b610318600480360360208110156109a857600080fd5b50356001600160a01b03166116fe565b610599600480360360408110156109ce57600080fd5b506001600160a01b038135811691602001351661176c565b610318611778565b61061f61182f565b6103a0611880565b61032261188f565b6103a060048036036020811015610a1c57600080fd5b50356118e0565b6103a061193c565b61059960048036036020811015610a4157600080fd5b50356001600160a01b031661194b565b61059960048036036020811015610a6757600080fd5b50356001600160a01b0316611b54565b61031860048036036020811015610a8d57600080fd5b50356001600160a01b0316611c5c565b6103a060048036036020811015610ab357600080fd5b5035611cc9565b61061f60048036036020811015610ad057600080fd5b50356001600160a01b0316611cd4565b6103a060048036036020811015610af657600080fd5b5035611cdf565b610318611d3b565b61059960048036036040811015610b1b57600080fd5b506001600160a01b0381358116916020013516611d67565b6103a060048036036040811015610b4957600080fd5b810190602081018135640100000000811115610b6457600080fd5b820183602082011115610b7657600080fd5b80359060200191846020830284011164010000000083111715610b9857600080fd5b9190808060200260200160405190810160405280939291908181526020018383602002808284376000920191909152509295949360208101935035915050640100000000811115610be857600080fd5b820183602082011115610bfa57600080fd5b80359060200191846020830284011164010000000083111715610c1c57600080fd5b919080806020026020016040519081016040528093929190818152602001838360200280828437600092019190915250929550611ddd945050505050565b61061f611dff565b6103a0611e50565b6103a060048036036040811015610c8057600080fd5b506001600160a01b038135169060200135611e5f565b61059960048036036020811015610cac57600080fd5b50356001600160a01b0316611e6b565b61061f611ed0565b61059960048036036020811015610cda57600080fd5b50356001600160a01b0316611eda565b610322611f3f565b61031860048036036020811015610d0857600080fd5b50356001600160a01b0316611f90565b61032260048036036020811015610d2e57600080fd5b50356001600160a01b031661201d565b610d46612028565b60038054911515600160a01b027fffffffffffffffffffffff00ffffffffffffffffffffffffffffffffffffffff909216919091179055565b6060610d89611f3f565b905090565b6060610da76000805160206133e583398151915261207d565b6001600160a01b031663f4fb86c0836040518263ffffffff1660e01b815260040180826001600160a01b0316815260200191505060006040518083038186803b158015610df357600080fd5b505afa158015610e07573d6000803e3d6000fd5b505050506040513d6000823e601f3d908101601f191682016040526020811015610e3057600080fd5b8101908080516040519392919084640100000000821115610e5057600080fd5b908301906020820185811115610e6557600080fd5b8251866020820283011164010000000082111715610e8257600080fd5b82525081516020918201928201910280838360005b83811015610eaf578181015183820152602001610e97565b505050509050016040525050509050919050565b6004546001600160a01b031681565b600081518351148015610ee6575060018351115b15610fae576060610ef6846120e2565b905060005b8151811015610fab576000828281518110610f1257fe5b602002602001015190506000816001600160a01b0316638da5cb5b6040518163ffffffff1660e01b815260040160206040518083038186803b158015610f5757600080fd5b505afa158015610f6b573d6000803e3d6000fd5b505050506040513d6020811015610f8157600080fd5b50519050610f918189898961237a565b15610fa157509250610fb2915050565b5050600101610efb565b50505b5060005b9392505050565b6060610fc48261156c565b92915050565b600354600160a01b900460ff1681565b6000610ff36000805160206133e583398151915261207d565b6001600160a01b0316633ab8857c836040518263ffffffff1660e01b815260040180826001600160a01b0316815260200191505060206040518083038186803b15801561103f57600080fd5b505afa158015611053573d6000803e3d6000fd5b505050506040513d602081101561106957600080fd5b505192915050565b6000610fc482611e6b565b60006110956000805160206133e583398151915261207d565b6001600160a01b031663a43d5e94836040518263ffffffff1660e01b815260040180826001600160a01b0316815260200191505060206040518083038186803b15801561103f57600080fd5b6000546001600160a01b03163314806111045750600354600160a01b900460ff16155b611149576040805162461bcd60e51b815260206004820152601160248201527011549497d050d0d154d4d7d11153925151607a1b604482015290519081900360640190fd5b60006111747f436f6e747261637452656769737472790000000000000000000000000000000061207d565b6002549091506001600160a01b0380831691161480159061119d57506001600160a01b03811615155b6111ee576040805162461bcd60e51b815260206004820152601460248201527f4552525f494e56414c49445f5245474953545259000000000000000000000000604482015290519081900360640190fd5b60006001600160a01b0316816001600160a01b031663bb34534c7f436f6e74726163745265676973747279000000000000000000000000000000006040518263ffffffff1660e01b81526004018082815260200191505060206040518083038186803b15801561125d57600080fd5b505afa158015611271573d6000803e3d6000fd5b505050506040513d602081101561128757600080fd5b50516001600160a01b031614156112e5576040805162461bcd60e51b815260206004820152601460248201527f4552525f494e56414c49445f5245474953545259000000000000000000000000604482015290519081900360640190fd5b60028054600380546001600160a01b038084166001600160a01b0319928316179092559091169216919091179055565b600061132e6000805160206133e583398151915261207d565b6001600160a01b031663a109d214836040518263ffffffff1660e01b81526004018082815260200191505060206040518083038186803b15801561103f57600080fd5b60006113828888888888888861248c565b600480546001600160a01b0319166001600160a01b0392831617908190551698975050505050505050565b60606113c66000805160206133e583398151915261207d565b6001600160a01b0316635f1b50fe6040518163ffffffff1660e01b815260040160006040518083038186803b1580156113fe57600080fd5b505afa158015611412573d6000803e3d6000fd5b505050506040513d6000823e601f3d908101601f19168201604052602081101561143b57600080fd5b810190808051604051939291908464010000000082111561145b57600080fd5b90830190602082018581111561147057600080fd5b825186602082028301116401000000008211171561148d57600080fd5b82525081516020918201928201910280838360005b838110156114ba5781810151838201526020016114a2565b50505050905001604052505050905090565b60006114e56000805160206133e583398151915261207d565b6001600160a01b031663d6c4b5b284846040518363ffffffff1660e01b815260040180836001600160a01b031681526020018281526020019250505060206040518083038186803b15801561153957600080fd5b505afa15801561154d573d6000803e3d6000fd5b505050506040513d602081101561156357600080fd5b50519392505050565b606080825167ffffffffffffffff8111801561158757600080fd5b506040519080825280602002602001820160405280156115b1578160200160208202803683370190505b50905060005b8351811015611666578381815181106115cc57fe5b60200260200101516001600160a01b0316638da5cb5b6040518163ffffffff1660e01b815260040160206040518083038186803b15801561160c57600080fd5b505afa158015611620573d6000803e3d6000fd5b505050506040513d602081101561163657600080fd5b5051825183908390811061164657fe5b6001600160a01b03909216602092830291909101909101526001016115b7565b5092915050565b6003546001600160a01b031681565b60006116956000805160206133e583398151915261207d565b6001600160a01b03166369be47846040518163ffffffff1660e01b815260040160206040518083038186803b1580156116cd57600080fd5b505afa1580156116e1573d6000803e3d6000fd5b505050506040513d60208110156116f757600080fd5b5051905090565b611706612028565b61170f81611b54565b611760576040805162461bcd60e51b815260206004820152601560248201527f4552525f494e56414c49445f434f4e5645525445520000000000000000000000604482015290519081900360640190fd5b61176981612a4d565b50565b6000610fb28383611d67565b6001546001600160a01b031633146117cb576040805162461bcd60e51b815260206004820152601160248201527011549497d050d0d154d4d7d11153925151607a1b604482015290519081900360640190fd5b600154600080546040516001600160a01b0393841693909116917f343765429aea5a34b3ff6a3785a98a5abb2597aca87bfbb58632c173d585373a91a360018054600080546001600160a01b03199081166001600160a01b03841617909155169055565b60006118486000805160206133e583398151915261207d565b6001600160a01b0316637a5f0ffd6040518163ffffffff1660e01b815260040160206040518083038186803b1580156116cd57600080fd5b6002546001600160a01b031681565b60606118a86000805160206133e583398151915261207d565b6001600160a01b0316637f45c4c36040518163ffffffff1660e01b815260040160006040518083038186803b1580156113fe57600080fd5b60006118f96000805160206133e583398151915261207d565b6001600160a01b031663865cf194836040518263ffffffff1660e01b81526004018082815260200191505060206040518083038186803b15801561103f57600080fd5b6000546001600160a01b031681565b600080826001600160a01b03166371f52bf36040518163ffffffff1660e01b815260040160206040518083038186803b15801561198757600080fd5b505afa15801561199b573d6000803e3d6000fd5b505050506040513d60208110156119b157600080fd5b505161ffff16905060608167ffffffffffffffff811180156119d257600080fd5b506040519080825280602002602001820160405280156119fc578160200160208202803683370190505b50905060608267ffffffffffffffff81118015611a1857600080fd5b50604051908082528060200260200182016040528015611a42578160200160208202803683370190505b50905060005b83811015611b29576000866001600160a01b03166319b64015836040518263ffffffff1660e01b81526004018082815260200191505060206040518083038186803b158015611a9657600080fd5b505afa158015611aaa573d6000803e3d6000fd5b505050506040513d6020811015611ac057600080fd5b505184519091508190859084908110611ad557fe5b60200260200101906001600160a01b031690816001600160a01b031681525050611aff8782612c08565b838381518110611b0b57fe5b63ffffffff9092166020928302919091019091015250600101611a48565b506000611b40611b398786612c8f565b8484610ed2565b6001600160a01b0316141595945050505050565b6000816001600160a01b0316826001600160a01b031663fc0c546a6040518163ffffffff1660e01b815260040160206040518083038186803b158015611b9957600080fd5b505afa158015611bad573d6000803e3d6000fd5b505050506040513d6020811015611bc357600080fd5b5051604080517f8da5cb5b00000000000000000000000000000000000000000000000000000000815290516001600160a01b0390921691638da5cb5b91600480820192602092909190829003018186803b158015611c2057600080fd5b505afa158015611c34573d6000803e3d6000fd5b505050506040513d6020811015611c4a57600080fd5b50516001600160a01b03161492915050565b6000546001600160a01b0316331480611c7b5750611c7981611b54565b155b611cc0576040805162461bcd60e51b815260206004820152601160248201527011549497d050d0d154d4d7d11153925151607a1b604482015290519081900360640190fd5b61176981612de2565b6000610fc482611315565b6000610fc48261107c565b6000611cf86000805160206133e583398151915261207d565b6001600160a01b031663a74498aa836040518263ffffffff1660e01b81526004018082815260200191505060206040518083038186803b15801561103f57600080fd5b611d43612028565b600354600280546001600160a01b0319166001600160a01b03909216919091179055565b6000611d806000805160206133e583398151915261207d565b6001600160a01b031663725b878684846040518363ffffffff1660e01b815260040180836001600160a01b03168152602001826001600160a01b031681526020019250505060206040518083038186803b15801561153957600080fd5b6000610fb26001845111611df2576000611df5565b60015b60ff168484610ed2565b6000611e186000805160206133e583398151915261207d565b6001600160a01b031663e571049b6040518163ffffffff1660e01b815260040160206040518083038186803b1580156116cd57600080fd5b6001546001600160a01b031681565b6000610fb283836114cc565b6000611e846000805160206133e583398151915261207d565b6001600160a01b0316634123ef60836040518263ffffffff1660e01b815260040180826001600160a01b0316815260200191505060206040518083038186803b15801561103f57600080fd5b6000610d89611dff565b6000611ef36000805160206133e583398151915261207d565b6001600160a01b031663e85455d7836040518263ffffffff1660e01b815260040180826001600160a01b0316815260200191505060206040518083038186803b15801561103f57600080fd5b6060611f586000805160206133e583398151915261207d565b6001600160a01b03166304ceaf416040518163ffffffff1660e01b815260040160006040518083038186803b1580156113fe57600080fd5b611f98612028565b6000546001600160a01b0382811691161415611ffb576040805162461bcd60e51b815260206004820152600e60248201527f4552525f53414d455f4f574e4552000000000000000000000000000000000000604482015290519081900360640190fd5b600180546001600160a01b0319166001600160a01b0392909216919091179055565b6060610fc482610d8e565b6000546001600160a01b0316331461207b576040805162461bcd60e51b815260206004820152601160248201527011549497d050d0d154d4d7d11153925151607a1b604482015290519081900360640190fd5b565b600254604080517fbb34534c0000000000000000000000000000000000000000000000000000000081526004810184905290516000926001600160a01b03169163bb34534c916024808301926020929190829003018186803b15801561103f57600080fd5b606060006120fd6000805160206133e583398151915261207d565b90506000816001600160a01b031663a43d5e948560008151811061211d57fe5b60200260200101516040518263ffffffff1660e01b815260040180826001600160a01b0316815260200191505060206040518083038186803b15801561216257600080fd5b505afa158015612176573d6000803e3d6000fd5b505050506040513d602081101561218c57600080fd5b50519050600060015b8551811015612246576000846001600160a01b031663a43d5e948884815181106121bb57fe5b60200260200101516040518263ffffffff1660e01b815260040180826001600160a01b0316815260200191505060206040518083038186803b15801561220057600080fd5b505afa158015612214573d6000803e3d6000fd5b505050506040513d602081101561222a57600080fd5b505190508084111561223d578093508192505b50600101612195565b50826001600160a01b031663f4fb86c086838151811061226257fe5b60200260200101516040518263ffffffff1660e01b815260040180826001600160a01b0316815260200191505060006040518083038186803b1580156122a757600080fd5b505afa1580156122bb573d6000803e3d6000fd5b505050506040513d6000823e601f3d908101601f1916820160405260208110156122e457600080fd5b810190808051604051939291908464010000000082111561230457600080fd5b90830190602082018581111561231957600080fd5b825186602082028301116401000000008211171561233657600080fd5b82525081516020918201928201910280838360005b8381101561236357818101518382015260200161234b565b505050509050016040525050509350505050919050565b600080856001600160a01b03166371f52bf36040518163ffffffff1660e01b815260040160206040518083038186803b1580156123b657600080fd5b505afa1580156123ca573d6000803e3d6000fd5b505050506040513d60208110156123e057600080fd5b505161ffff1690506123f28682612c8f565b61ffff168561ffff161461240a576000915050612484565b8084511461241c576000915050612484565b60005b845181101561247d576124458786838151811061243857fe5b6020026020010151612c08565b63ffffffff1684828151811061245757fe5b602002602001015163ffffffff161461247557600092505050612484565b60010161241f565b5060019150505b949350505050565b815181516000919081146124e7576040805162461bcd60e51b815260206004820152601460248201527f4552525f494e56414c49445f5245534552564553000000000000000000000000604482015290519081900360640190fd5b60006124f48a8686610ed2565b6001600160a01b03161461254f576040805162461bcd60e51b815260206004820152601260248201527f4552525f414c52454144595f4558495354530000000000000000000000000000604482015290519081900360640190fd5b600061257a7f436f6e766572746572466163746f72790000000000000000000000000000000061207d565b90506000816001600160a01b0316632e9ab7b38c8c8c8c6040518563ffffffff1660e01b8152600401808561ffff16815260200180602001806020018460ff168152602001838103835286818151815260200191508051906020019080838360005b838110156125f45781810151838201526020016125dc565b50505050905090810190601f1680156126215780820380516001836020036101000a031916815260200191505b50838103825285518152855160209182019187019080838360005b8381101561265457818101518382015260200161263c565b50505050905090810190601f1680156126815780820380516001836020036101000a031916815260200191505b509650505050505050602060405180830381600087803b1580156126a457600080fd5b505af11580156126b8573d6000803e3d6000fd5b505050506040513d60208110156126ce57600080fd5b5051600254604080517f15f64b6a00000000000000000000000000000000000000000000000000000000815261ffff8f1660048201526001600160a01b038085166024830152928316604482015263ffffffff8b1660648201529051929350600092918516916315f64b6a9160848082019260209290919082900301818787803b15801561275b57600080fd5b505af115801561276f573d6000803e3d6000fd5b505050506040513d602081101561278557600080fd5b5051604080517f79ba509700000000000000000000000000000000000000000000000000000000815290519192506001600160a01b038416916379ba50979160048082019260009290919082900301818387803b1580156127e557600080fd5b505af11580156127f9573d6000803e3d6000fd5b50505050806001600160a01b03166379ba50976040518163ffffffff1660e01b8152600401600060405180830381600087803b15801561283857600080fd5b505af115801561284c573d6000803e3d6000fd5b5050505060005b8481101561290257816001600160a01b0316636a49d2c489838151811061287657fe5b602002602001015189848151811061288a57fe5b60200260200101516040518363ffffffff1660e01b815260040180836001600160a01b031681526020018263ffffffff16815260200192505050600060405180830381600087803b1580156128de57600080fd5b505af11580156128f2573d6000803e3d6000fd5b5050600190920191506128539050565b50816001600160a01b031663f2fde38b826040518263ffffffff1660e01b815260040180826001600160a01b03168152602001915050600060405180830381600087803b15801561295257600080fd5b505af1158015612966573d6000803e3d6000fd5b50505050806001600160a01b031663cdc91c696040518163ffffffff1660e01b8152600401600060405180830381600087803b1580156129a557600080fd5b505af11580156129b9573d6000803e3d6000fd5b5050604080517ff2fde38b00000000000000000000000000000000000000000000000000000000815233600482015290516001600160a01b038516935063f2fde38b9250602480830192600092919082900301818387803b158015612a1d57600080fd5b505af1158015612a31573d6000803e3d6000fd5b50505050612a3e81612a4d565b9b9a5050505050505050505050565b6000612a666000805160206133e583398151915261207d565b90506000826001600160a01b031663fc0c546a6040518163ffffffff1660e01b815260040160206040518083038186803b158015612aa357600080fd5b505afa158015612ab7573d6000803e3d6000fd5b505050506040513d6020811015612acd57600080fd5b5051604080516371f52bf360e01b815290519192506000916001600160a01b038616916371f52bf3916004808301926020929190829003018186803b158015612b1557600080fd5b505afa158015612b29573d6000803e3d6000fd5b505050506040513d6020811015612b3f57600080fd5b505161ffff169050612b518383612f96565b6001811115612b6957612b648383613069565b612b74565b612b74838384613108565b60005b81811015612c0157612bf984866001600160a01b03166319b64015846040518263ffffffff1660e01b81526004018082815260200191505060206040518083038186803b158015612bc757600080fd5b505afa158015612bdb573d6000803e3d6000fd5b505050506040513d6020811015612bf157600080fd5b505185613108565b600101612b77565b5050505050565b600080836001600160a01b0316630e53aae9846040518263ffffffff1660e01b815260040180826001600160a01b0316815260200191505060a06040518083038186803b158015612c5857600080fd5b505afa158015612c6c573d6000803e3d6000fd5b505050506040513d60a0811015612c8257600080fd5b5060200151949350505050565b60408051600481526024810182526020810180517bffffffffffffffffffffffffffffffffffffffffffffffffffffffff167f3e8ff43f000000000000000000000000000000000000000000000000000000001781529151815160009384936060936001600160a01b03891693919290918291908083835b60208310612d265780518252601f199092019160209182019101612d07565b6001836020036101000a038019825116818451168082178552505050505050905001915050600060405180830381855afa9150503d8060008114612d86576040519150601f19603f3d011682016040523d82523d6000602084013e612d8b565b606091505b5091509150818015612d9e575080516020145b15612dc457808060200190516020811015612db857600080fd5b50519250610fc4915050565b60018411612dd3576000612dd6565b60015b60ff1695945050505050565b6000612dfb6000805160206133e583398151915261207d565b90506000826001600160a01b031663fc0c546a6040518163ffffffff1660e01b815260040160206040518083038186803b158015612e3857600080fd5b505afa158015612e4c573d6000803e3d6000fd5b505050506040513d6020811015612e6257600080fd5b5051604080516371f52bf360e01b815290519192506000916001600160a01b038616916371f52bf3916004808301926020929190829003018186803b158015612eaa57600080fd5b505afa158015612ebe573d6000803e3d6000fd5b505050506040513d6020811015612ed457600080fd5b505161ffff169050612ee683836131bd565b6001811115612efe57612ef98383613290565b612f09565b612f0983838461332f565b60005b81811015612c0157612f8e84866001600160a01b03166319b64015846040518263ffffffff1660e01b81526004018082815260200191505060206040518083038186803b158015612f5c57600080fd5b505afa158015612f70573d6000803e3d6000fd5b505050506040513d6020811015612f8657600080fd5b50518561332f565b600101612f0c565b816001600160a01b0316638de6c3eb826040518263ffffffff1660e01b815260040180826001600160a01b03168152602001915050600060405180830381600087803b158015612fe557600080fd5b505af1158015612ff9573d6000803e3d6000fd5b50506040516001600160a01b03841692507fc0a6d303d67b7ed9fa0abae1c48878df32acc0e7ca4334c7dad2bceeee5956fd9150600090a26040516001600160a01b038216907f88881feecdf61136ac4bdb1f681f2f3746a82910263d21ffea94750d2a78c0ab90600090a25050565b816001600160a01b031663ee6a934c826040518263ffffffff1660e01b815260040180826001600160a01b03168152602001915050600060405180830381600087803b1580156130b857600080fd5b505af11580156130cc573d6000803e3d6000fd5b50506040516001600160a01b03841692507fb893f883ef734b712208a877459424ee509832c57e0461fb1ac99ed4d42f2d899150600090a25050565b826001600160a01b03166336900c1183836040518363ffffffff1660e01b815260040180836001600160a01b03168152602001826001600160a01b0316815260200192505050600060405180830381600087803b15801561316857600080fd5b505af115801561317c573d6000803e3d6000fd5b50506040516001600160a01b038085169350851691507ff2e7cf6d6ed3f77039511409a43d4fa5108f09ab71d72b014380364c910233a590600090a3505050565b816001600160a01b031663ceb9838c826040518263ffffffff1660e01b815260040180826001600160a01b03168152602001915050600060405180830381600087803b15801561320c57600080fd5b505af1158015613220573d6000803e3d6000fd5b50506040516001600160a01b03841692507fbfdf1baaa7e4871111360083540f067050014f651c9e4610a2a4a4bdf8bfab5d9150600090a26040516001600160a01b038216907f2aff63790c7da80d1c50ede92d23bc841c384837735c92c184331f3d7b91e5bf90600090a25050565b816001600160a01b031663ae22107f826040518263ffffffff1660e01b815260040180826001600160a01b03168152602001915050600060405180830381600087803b1580156132df57600080fd5b505af11580156132f3573d6000803e3d6000fd5b50506040516001600160a01b03841692507f59c3fbcae88f30e9b0e35c132a7f68c53231dffa4722f197c7ecb0ee013eee609150600090a25050565b826001600160a01b031663fba8f03183836040518363ffffffff1660e01b815260040180836001600160a01b03168152602001826001600160a01b0316815260200192505050600060405180830381600087803b15801561338f57600080fd5b505af11580156133a3573d6000803e3d6000fd5b50506040516001600160a01b038085169350851691507f9430ad6ff45d6c3e126c7711bf0036bd9bc6b202fa19628abd88e59cf43ced4390600090a350505056fe42616e636f72436f6e7665727465725265676973747279446174610000000000a2646970667358221220be01a63211d14f20462d0de7b72b5aa1bd5bf38b64179a0ee1aca02986c4202764736f6c634300060c0033",
  "linkReferences": {},
  "deployedLinkReferences": {}
}