{
  "_format": "hh-sol-artifact-1",
  "contractName": "ChainlinkETHToETHOracle",
  "sourceName": "contracts/bancor/utility/ChainlinkETHToETHOracle.sol",
  "abi": [
    {
      "inputs": [],
      "name": "latestAnswer",
      "outputs": [
        {
          "internalType": "int256",
          "name": "",
          "type": "int256"
        }
      ],
      "stateMutability": "view",
      "type": "function"
    },
    {
      "inputs": [],
      "name": "latestTimestamp",
      "outputs": [
        {
          "internalType": "uint256",
          "name": "",
          "type": "uint256"
        }
      ],
      "stateMutability": "view",
      "type": "function"
    }
  ],
  "bytecode": "0x6080604052348015600f57600080fd5b5060948061001e6000396000f3fe6080604052348015600f57600080fd5b506004361060325760003560e01c806350d25bcd1460375780638205bf6a14604f575b600080fd5b603d6055565b60408051918252519081900360200190f35b603d605a565b600190565b429056fea264697066735822122061411e88bbdc5c913e1f4b463ab1d4eeb8830fde3e4a66cdbc8e7b08a8fce67564736f6c634300060c0033",
  "linkReferences": {},
  "deployedLinkReferences": {}
}