{
  "_format": "hh-sol-artifact-1",
  "contractName": "StakingController",
  "sourceName": "contracts/StakingController.sol",
  "abi": [
    {
      "anonymous": false,
      "inputs": [
        {
          "indexed": true,
          "internalType": "address",
          "name": "staker",
          "type": "address"
        },
        {
          "indexed": true,
          "internalType": "address",
          "name": "controller",
          "type": "address"
        },
        {
          "indexed": true,
          "internalType": "uint256",
          "name": "parentId",
          "type": "uint256"
        },
        {
          "indexed": false,
          "internalType": "string",
          "name": "name",
          "type": "string"
        },
        {
          "components": [
            {
              "internalType": "bytes",
              "name": "controllerData",
              "type": "bytes"
            },
            {
              "internalType": "string",
              "name": "lockableProperties",
              "type": "string"
            }
          ],
          "indexed": false,
          "internalType": "struct StakingController.CreateData",
          "name": "createData",
          "type": "tuple"
        },
        {
          "indexed": false,
          "internalType": "string",
          "name": "proposal",
          "type": "string"
        },
        {
          "indexed": false,
          "internalType": "uint256",
          "name": "amt",
          "type": "uint256"
        }
      ],
      "name": "Bid",
      "type": "event"
    },
    {
      "anonymous": false,
      "inputs": [
        {
          "indexed": false,
          "internalType": "address",
          "name": "staker",
          "type": "address"
        },
        {
          "indexed": false,
          "internalType": "uint256",
          "name": "id",
          "type": "uint256"
        }
      ],
      "name": "BidAccepted",
      "type": "event"
    },
    {
      "anonymous": false,
      "inputs": [
        {
          "indexed": false,
          "internalType": "address",
          "name": "staker",
          "type": "address"
        },
        {
          "indexed": true,
          "internalType": "address",
          "name": "owner",
          "type": "address"
        },
        {
          "indexed": true,
          "internalType": "uint256",
          "name": "id",
          "type": "uint256"
        },
        {
          "indexed": true,
          "internalType": "address",
          "name": "controller",
          "type": "address"
        }
      ],
      "name": "BidClaimed",
      "type": "event"
    },
    {
      "anonymous": false,
      "inputs": [
        {
          "indexed": true,
          "internalType": "uint256",
          "name": "id",
          "type": "uint256"
        },
        {
          "indexed": false,
          "internalType": "uint256",
          "name": "minBid",
          "type": "uint256"
        }
      ],
      "name": "MinBidSet",
      "type": "event"
    },
    {
      "anonymous": false,
      "inputs": [
        {
          "indexed": true,
          "internalType": "uint256",
          "name": "id",
          "type": "uint256"
        },
        {
          "indexed": false,
          "internalType": "address",
          "name": "stakeToken",
          "type": "address"
        }
      ],
      "name": "StakeTokenSet",
      "type": "event"
    },
    {
      "anonymous": false,
      "inputs": [
        {
          "indexed": false,
          "internalType": "address",
          "name": "staker",
          "type": "address"
        },
        {
          "indexed": false,
          "internalType": "uint256",
          "name": "id",
          "type": "uint256"
        },
        {
          "indexed": true,
          "internalType": "uint256",
          "name": "parentId",
          "type": "uint256"
        }
      ],
      "name": "Unbid",
      "type": "event"
    },
    {
      "inputs": [
        {
          "internalType": "address",
          "name": "staker",
          "type": "address"
        },
        {
          "internalType": "uint256",
          "name": "id",
          "type": "uint256"
        },
        {
          "internalType": "uint256",
          "name": "parentId",
          "type": "uint256"
        }
      ],
      "name": "acceptBid",
      "outputs": [],
      "stateMutability": "nonpayable",
      "type": "function"
    },
    {
      "inputs": [],
      "name": "bancorNetwork",
      "outputs": [
        {
          "internalType": "contract IBancorNetwork",
          "name": "",
          "type": "address"
        }
      ],
      "stateMutability": "view",
      "type": "function"
    },
    {
      "inputs": [
        {
          "internalType": "uint256",
          "name": "parentId",
          "type": "uint256"
        },
        {
          "internalType": "string",
          "name": "name",
          "type": "string"
        },
        {
          "internalType": "address",
          "name": "controller",
          "type": "address"
        },
        {
          "components": [
            {
              "internalType": "bytes",
              "name": "controllerData",
              "type": "bytes"
            },
            {
              "internalType": "string",
              "name": "lockableProperties",
              "type": "string"
            }
          ],
          "internalType": "struct StakingController.CreateData",
          "name": "createData",
          "type": "tuple"
        },
        {
          "internalType": "string",
          "name": "proposal",
          "type": "string"
        },
        {
          "internalType": "uint256",
          "name": "amt",
          "type": "uint256"
        }
      ],
      "name": "bid",
      "outputs": [],
      "stateMutability": "nonpayable",
      "type": "function"
    },
    {
      "inputs": [
        {
          "internalType": "uint256",
          "name": "parentId",
          "type": "uint256"
        },
        {
          "internalType": "string",
          "name": "name",
          "type": "string"
        },
        {
          "internalType": "address",
          "name": "controller",
          "type": "address"
        },
        {
          "components": [
            {
              "internalType": "bytes",
              "name": "controllerData",
              "type": "bytes"
            },
            {
              "internalType": "string",
              "name": "lockableProperties",
              "type": "string"
            }
          ],
          "internalType": "struct StakingController.CreateData",
          "name": "createData",
          "type": "tuple"
        },
        {
          "internalType": "string",
          "name": "proposal",
          "type": "string"
        },
        {
          "components": [
            {
              "internalType": "address[]",
              "name": "path",
              "type": "address[]"
            },
            {
              "internalType": "uint256",
              "name": "amount",
              "type": "uint256"
            },
            {
              "internalType": "uint256",
              "name": "minOut",
              "type": "uint256"
            }
          ],
          "internalType": "struct StakingController.BancorSwapData",
          "name": "swapData",
          "type": "tuple"
        }
      ],
      "name": "bidByPath",
      "outputs": [],
      "stateMutability": "payable",
      "type": "function"
    },
    {
      "inputs": [
        {
          "internalType": "uint256",
          "name": "parentId",
          "type": "uint256"
        },
        {
          "internalType": "string",
          "name": "name",
          "type": "string"
        },
        {
          "internalType": "address",
          "name": "controller",
          "type": "address"
        },
        {
          "components": [
            {
              "internalType": "bytes",
              "name": "controllerData",
              "type": "bytes"
            },
            {
              "internalType": "string",
              "name": "lockableProperties",
              "type": "string"
            }
          ],
          "internalType": "struct StakingController.CreateData",
          "name": "createData",
          "type": "tuple"
        },
        {
          "internalType": "string",
          "name": "proposal",
          "type": "string"
        },
        {
          "internalType": "uint256",
          "name": "amt",
          "type": "uint256"
        },
        {
          "internalType": "address",
          "name": "staker",
          "type": "address"
        }
      ],
      "name": "bidFor",
      "outputs": [],
      "stateMutability": "nonpayable",
      "type": "function"
    },
    {
      "inputs": [
        {
          "internalType": "uint256",
          "name": "parentId",
          "type": "uint256"
        },
        {
          "internalType": "string",
          "name": "name",
          "type": "string"
        },
        {
          "internalType": "address",
          "name": "controller",
          "type": "address"
        },
        {
          "components": [
            {
              "internalType": "bytes",
              "name": "controllerData",
              "type": "bytes"
            },
            {
              "internalType": "string",
              "name": "lockableProperties",
              "type": "string"
            }
          ],
          "internalType": "struct StakingController.CreateData",
          "name": "createData",
          "type": "tuple"
        },
        {
          "internalType": "string",
          "name": "proposal",
          "type": "string"
        },
        {
          "components": [
            {
              "internalType": "address[]",
              "name": "path",
              "type": "address[]"
            },
            {
              "internalType": "uint256",
              "name": "amount",
              "type": "uint256"
            },
            {
              "internalType": "uint256",
              "name": "minOut",
              "type": "uint256"
            }
          ],
          "internalType": "struct StakingController.BancorSwapData",
          "name": "swapData",
          "type": "tuple"
        },
        {
          "internalType": "address",
          "name": "staker",
          "type": "address"
        }
      ],
      "name": "bidForByPath",
      "outputs": [],
      "stateMutability": "payable",
      "type": "function"
    },
    {
      "inputs": [
        {
          "internalType": "uint256",
          "name": "parentId",
          "type": "uint256"
        },
        {
          "internalType": "string",
          "name": "name",
          "type": "string"
        },
        {
          "internalType": "address",
          "name": "owner",
          "type": "address"
        },
        {
          "internalType": "address",
          "name": "controller",
          "type": "address"
        },
        {
          "internalType": "bytes",
          "name": "data",
          "type": "bytes"
        },
        {
          "internalType": "string",
          "name": "lockableProperties",
          "type": "string"
        }
      ],
      "name": "claimBid",
      "outputs": [],
      "stateMutability": "nonpayable",
      "type": "function"
    },
    {
      "inputs": [
        {
          "internalType": "uint256",
          "name": "id",
          "type": "uint256"
        }
      ],
      "name": "configOf",
      "outputs": [
        {
          "components": [
            {
              "internalType": "address",
              "name": "stakeToken",
              "type": "address"
            },
            {
              "internalType": "uint256",
              "name": "minBid",
              "type": "uint256"
            }
          ],
          "internalType": "struct StakingController.DomainConfig",
          "name": "",
          "type": "tuple"
        }
      ],
      "stateMutability": "view",
      "type": "function"
    },
    {
      "inputs": [
        {
          "internalType": "uint256",
          "name": "id",
          "type": "uint256"
        },
        {
          "internalType": "address",
          "name": "stakeToken",
          "type": "address"
        },
        {
          "internalType": "uint256",
          "name": "minBid",
          "type": "uint256"
        }
      ],
      "name": "configureDomain",
      "outputs": [],
      "stateMutability": "nonpayable",
      "type": "function"
    },
    {
      "inputs": [
        {
          "internalType": "uint256",
          "name": "",
          "type": "uint256"
        }
      ],
      "name": "domainConfigs",
      "outputs": [
        {
          "internalType": "address",
          "name": "stakeToken",
          "type": "address"
        },
        {
          "internalType": "uint256",
          "name": "minBid",
          "type": "uint256"
        }
      ],
      "stateMutability": "view",
      "type": "function"
    },
    {
      "inputs": [
        {
          "internalType": "contract ZNSRegistry",
          "name": "_registry",
          "type": "address"
        },
        {
          "internalType": "contract IBancorRegistry",
          "name": "_bancor",
          "type": "address"
        }
      ],
      "name": "initialize",
      "outputs": [],
      "stateMutability": "nonpayable",
      "type": "function"
    },
    {
      "inputs": [
        {
          "internalType": "address",
          "name": "sender",
          "type": "address"
        },
        {
          "internalType": "address",
          "name": "oldController",
          "type": "address"
        },
        {
          "internalType": "uint256",
          "name": "id",
          "type": "uint256"
        },
        {
          "internalType": "bytes",
          "name": "data",
          "type": "bytes"
        }
      ],
      "name": "onSetZnsController",
      "outputs": [
        {
          "internalType": "bytes4",
          "name": "",
          "type": "bytes4"
        }
      ],
      "stateMutability": "nonpayable",
      "type": "function"
    },
    {
      "inputs": [
        {
          "internalType": "uint256",
          "name": "parentId",
          "type": "uint256"
        },
        {
          "internalType": "string",
          "name": "name",
          "type": "string"
        },
        {
          "internalType": "address",
          "name": "owner",
          "type": "address"
        },
        {
          "internalType": "address",
          "name": "controller",
          "type": "address"
        },
        {
          "internalType": "bytes",
          "name": "controllerData",
          "type": "bytes"
        },
        {
          "internalType": "string",
          "name": "lockableProperties",
          "type": "string"
        },
        {
          "internalType": "bytes",
          "name": "transferData",
          "type": "bytes"
        }
      ],
      "name": "safeClaimBid",
      "outputs": [],
      "stateMutability": "nonpayable",
      "type": "function"
    },
    {
      "inputs": [
        {
          "internalType": "uint256",
          "name": "id",
          "type": "uint256"
        },
        {
          "internalType": "uint256",
          "name": "minBid",
          "type": "uint256"
        }
      ],
      "name": "setMinBid",
      "outputs": [],
      "stateMutability": "nonpayable",
      "type": "function"
    },
    {
      "inputs": [
        {
          "internalType": "address",
          "name": "staker",
          "type": "address"
        },
        {
          "internalType": "uint256",
          "name": "id",
          "type": "uint256"
        }
      ],
      "name": "stakeOf",
      "outputs": [
        {
          "components": [
            {
              "internalType": "enum StakingController.StakeStatus",
              "name": "status",
              "type": "uint8"
            },
            {
              "internalType": "uint256",
              "name": "parentId",
              "type": "uint256"
            },
            {
              "internalType": "uint256",
              "name": "amount",
              "type": "uint256"
            },
            {
              "internalType": "bytes32",
              "name": "createHash",
              "type": "bytes32"
            },
            {
              "internalType": "address",
              "name": "stakeToken",
              "type": "address"
            }
          ],
          "internalType": "struct StakingController.Stake",
          "name": "",
          "type": "tuple"
        }
      ],
      "stateMutability": "view",
      "type": "function"
    },
    {
      "inputs": [
        {
          "internalType": "bytes32",
          "name": "",
          "type": "bytes32"
        }
      ],
      "name": "stakes",
      "outputs": [
        {
          "internalType": "enum StakingController.StakeStatus",
          "name": "status",
          "type": "uint8"
        },
        {
          "internalType": "uint256",
          "name": "parentId",
          "type": "uint256"
        },
        {
          "internalType": "uint256",
          "name": "amount",
          "type": "uint256"
        },
        {
          "internalType": "bytes32",
          "name": "createHash",
          "type": "bytes32"
        },
        {
          "internalType": "address",
          "name": "stakeToken",
          "type": "address"
        }
      ],
      "stateMutability": "view",
      "type": "function"
    },
    {
      "inputs": [
        {
          "internalType": "uint256",
          "name": "id",
          "type": "uint256"
        },
        {
          "internalType": "uint256",
          "name": "parentId",
          "type": "uint256"
        }
      ],
      "name": "unbid",
      "outputs": [],
      "stateMutability": "nonpayable",
      "type": "function"
    }
  ],
  "bytecode": "0x608060405234801561001057600080fd5b50612a47806100206000396000f3fe6080604052600436106100fe5760003560e01c80639b84309b11610095578063ca76e6af11610064578063ca76e6af146102a2578063ddaea254146102c2578063e13a40f0146102e2578063ed87169c14610302578063edc2ee4e1461032f576100fe565b80639b84309b14610213578063a4edb25e14610233578063b187d84314610255578063b276331714610275576100fe565b8063748be75c116100d1578063748be75c146101825780638fee6407146101a257806395c18252146101d357806398d1f430146101f3576100fe565b806304a7c32f14610103578063086ebc9014610118578063485cc9551461014f5780634bab57761461016f575b600080fd5b610116610111366004612208565b61035c565b005b34801561012457600080fd5b50610138610133366004611fad565b610377565b6040516101469291906125a6565b60405180910390f35b34801561015b57600080fd5b5061011661016a366004611fc5565b61039c565b61011661017d3660046122d8565b610481565b34801561018e57600080fd5b5061011661019d366004612117565b610a7b565b3480156101ae57600080fd5b506101c26101bd366004611fad565b610d14565b6040516101469594939291906126e9565b3480156101df57600080fd5b506101166101ee366004612015565b610d50565b3480156101ff57600080fd5b5061011661020e3660046123b8565b610eb7565b34801561021f57600080fd5b5061011661022e366004612539565b610ec8565b34801561023f57600080fd5b50610248610f7e565b6040516101469190612592565b34801561026157600080fd5b5061011661027036600461204c565b611002565b34801561028157600080fd5b50610295610290366004611e6a565b611266565b60405161014691906126d4565b3480156102ae57600080fd5b506101166102bd366004612539565b6112ce565b3480156102ce57600080fd5b506101166102dd36600461246e565b6113db565b3480156102ee57600080fd5b506101166102fd366004611f59565b611737565b34801561030e57600080fd5b5061032261031d366004611f2e565b611885565b60405161014691906127e3565b34801561033b57600080fd5b5061034f61034a366004611fad565b61192c565b60405161014691906127c3565b61036d888888888888888833610481565b5050505050505050565b600360205260009081526040902080546001909101546001600160a01b039091169082565b600054610100900460ff16806103b557506103b561196a565b806103c3575060005460ff16155b6103fe5760405162461bcd60e51b815260040180806020018281038252602e8152602001806129ba602e913960400191505060405180910390fd5b600054610100900460ff16158015610429576000805460ff1961ff0019909116610100171660011790555b6000805462010000600160b01b031916620100006001600160a01b038681169190910291909117909155600180546001600160a01b031916918416919091179055801561047c576000805461ff00191690555b505050565b600061048d83806128aa565b600161049986806128aa565b9050038181106104a557fe5b90506020020160208101906104ba9190611e05565b60008054604051631e43c35560e31b8152929350909182916201000090046001600160a01b03169063f21e1aa8906104fa908f908f908f90600401612835565b60206040518083038186803b15801561051257600080fd5b505afa158015610526573d6000803e3d6000fd5b505050506040513d601f19601f8201168201806040525081019061054a9190611ffd565b600054604051634f558e7960e01b81529192506201000090046001600160a01b031690634f558e799061058190849060040161282c565b60206040518083038186803b15801561059957600080fd5b505afa1580156105ad573d6000803e3d6000fd5b505050506040513d601f19601f820116820180604052508101906105d19190611f8d565b156105db57600080fd5b306001600160a01b0316600060029054906101000a90046001600160a01b03166001600160a01b0316635dd8f6aa8e6040518263ffffffff1660e01b8152600401610626919061282c565b60206040518083038186803b15801561063e57600080fd5b505afa158015610652573d6000803e3d6000fd5b505050506040513d601f19601f820116820180604052508101906106769190611e21565b6001600160a01b03161461068957600080fd5b60008c815260036020526040902080546001600160a01b038581169116146106b057600080fd5b600085836040516020016106c59291906125a6565b60408051601f1981840301815291815281516020928301206000818152600290935290822090925090815460ff1660038111156106fe57fe5b1461070857600080fd5b805460ff1916600190811782558301546040890135101561072857600080fd5b805460ff191660011781556004810180546001600160a01b0388166001600160a01b03199091161790558b61075d8c806128f1565b61076a60208f018f6128f1565b60405160200161077e959493929190612617565b60408051601f1981840301815291905280516020909101206003820155600181018f905560006107ae89806128aa565b60008181106107b957fe5b90506020020160208101906107ce9190611e05565b90506001600160a01b03811673eeeeeeeeeeeeeeeeeeeeeeeeeeeeeeeeeeeeeeee14156108af578860200135341461080557600080fd5b61080d610f7e565b6001600160a01b031663b77d239b346108268c806128aa565b8d602001358e60400135306000806040518963ffffffff1660e01b8152600401610856979695949392919061265b565b6020604051808303818588803b15801561086f57600080fd5b505af1158015610883573d6000803e3d6000fd5b50505050506040513d601f19601f820116820180604052508101906108a89190611ffd565b95506109ff565b34156108ba57600080fd5b60208901356108d46001600160a01b03831633308461197b565b60006108de610f7e565b60405163095ea7b360e01b81529091506001600160a01b0384169063095ea7b39061090f90849086906004016125a6565b602060405180830381600087803b15801561092957600080fd5b505af115801561093d573d6000803e3d6000fd5b505050506040513d601f19601f820116820180604052508101906109619190611f8d565b506001600160a01b03811663b77d239b61097b8d806128aa565b858f6040013560008060006040518863ffffffff1660e01b81526004016109a8979695949392919061265b565b602060405180830381600087803b1580156109c257600080fd5b505af11580156109d6573d6000803e3d6000fd5b505050506040513d601f19601f820116820180604052508101906109fa9190611ffd565b975050505b4715610a0a57600080fd5b85826002018190555050505050508a886001600160a01b0316846001600160a01b03167fc913c510ad629b5dffaa2ed188b974db06964c1420ccb1638a840abc8b30d3cd8d8d8c8c8c89604051610a6696959493929190612723565b60405180910390a45050505050505050505050565b841580610a8c5750610a8c876119d5565b610a9557600080fd5b801580610aa65750610aa6886119d5565b610aaf57600080fd5b6000805460405163880aeba360e01b8152620100009091046001600160a01b03169063880aeba390610af1908f908f908f9030908f908f908f90600401612858565b602060405180830381600087803b158015610b0b57600080fd5b505af1158015610b1f573d6000803e3d6000fd5b505050506040513d601f19601f82011682018060405250810190610b439190611ffd565b90506000600260003384604051602001610b5e9291906125a6565b60408051601f1981840301815291815281516020928301208352908201929092520160002090506002815460ff166003811115610b9757fe5b14610ba157600080fd5b8888888888604051602001610bba959493929190612617565b60405160208183030381529060405280519060200120816003015414610bdf57600080fd5b600054604051633973654760e01b8152620100009091046001600160a01b031690633973654790610c189085908a908a90600401612835565b600060405180830381600087803b158015610c3257600080fd5b505af1158015610c46573d6000803e3d6000fd5b5050600054604051635c46a7ef60e11b8152620100009091046001600160a01b0316925063b88d4fde9150610c879030908e9087908a908a906004016125e3565b600060405180830381600087803b158015610ca157600080fd5b505af1158015610cb5573d6000803e3d6000fd5b50505050886001600160a01b0316828b6001600160a01b03167fccb570a5507370ad990f0f6091a4b750d2265609fa24e591b68a9483f1fcea9633604051610cfd9190612592565b60405180910390a450505050505050505050505050565b60026020819052600091825260409091208054600182015492820154600383015460049093015460ff909216939290916001600160a01b031685565b600054604051632eec7b5560e11b815230916201000090046001600160a01b031690635dd8f6aa90610d8690879060040161282c565b60206040518083038186803b158015610d9e57600080fd5b505afa158015610db2573d6000803e3d6000fd5b505050506040513d601f19601f82011682018060405250810190610dd69190611e21565b6001600160a01b031614610de957600080fd5b6000546040516331a9108f60e11b815233916201000090046001600160a01b031690636352211e90610e1f90879060040161282c565b60206040518083038186803b158015610e3757600080fd5b505afa158015610e4b573d6000803e3d6000fd5b505050506040513d601f19601f82011682018060405250810190610e6f9190611e21565b6001600160a01b031614610e8257600080fd5b600083815260036020526040902080546001600160a01b031615610ea557600080fd5b610eb1818585856119db565b50505050565b61036d8888888888888888336113db565b6000546040516331a9108f60e11b815233916201000090046001600160a01b031690636352211e90610efe90869060040161282c565b60206040518083038186803b158015610f1657600080fd5b505afa158015610f2a573d6000803e3d6000fd5b505050506040513d601f19601f82011682018060405250810190610f4e9190611e21565b6001600160a01b031614610f6157600080fd5b6000828152600360205260409020610f7a908383611a35565b5050565b600154604051632ecd14d360e21b81526000916001600160a01b03169063bb34534c90610fad906004016127aa565b60206040518083038186803b158015610fc557600080fd5b505afa158015610fd9573d6000803e3d6000fd5b505050506040513d601f19601f82011682018060405250810190610ffd9190611e21565b905090565b8215806110135750611013856119d5565b61101c57600080fd5b6000805460405163880aeba360e01b8152620100009091046001600160a01b03169063880aeba39061105e908d908d908d9030908d908d908d90600401612858565b602060405180830381600087803b15801561107857600080fd5b505af115801561108c573d6000803e3d6000fd5b505050506040513d601f19601f820116820180604052508101906110b09190611ffd565b905060006002600033846040516020016110cb9291906125a6565b60408051601f1981840301815291815281516020928301208352908201929092520160002090506002815460ff16600381111561110457fe5b1461110e57600080fd5b8686868686604051602001611127959493929190612617565b6040516020818303038152906040528051906020012081600301541461114c57600080fd5b600054604051633973654760e01b8152620100009091046001600160a01b03169063397365479061118590859088908890600401612835565b600060405180830381600087803b15801561119f57600080fd5b505af11580156111b3573d6000803e3d6000fd5b50506000546040516323b872dd60e01b8152620100009091046001600160a01b031692506323b872dd91506111f09030908c9087906004016125bf565b600060405180830381600087803b15801561120a57600080fd5b505af115801561121e573d6000803e3d6000fd5b50505050866001600160a01b031682896001600160a01b03167fccb570a5507370ad990f0f6091a4b750d2265609fa24e591b68a9483f1fcea9633604051610a669190612592565b600080546201000090046001600160a01b0316331461128457600080fd5b6000808380602001905181019061129b9190611e3d565b600087815260036020526040902091935091506112ba818785856119db565b5063b276331760e01b979650505050505050565b600033836040516020016112e39291906125a6565b60408051601f1981840301815291815281516020928301206000818152600290935291209091506001815460ff16600381111561131c57fe5b148061133757506002815460ff16600381111561133557fe5b145b61134057600080fd5b6002808201546000848152602083905260408120805460ff19168155600181018290559283018190556003830155600491820180546001600160a01b03191690559082015461139a906001600160a01b031630338461197b565b837fbaf75aa58d2f7ec472f5e3a652015c4bfb74087acb3cd1d34c3a9c59c355c06d33876040516113cc9291906125a6565b60405180910390a25050505050565b6113e585806128f1565b159050806113f757506113f7866119d5565b61140057600080fd5b60008054604051631e43c35560e31b815282916201000090046001600160a01b03169063f21e1aa89061143b908e908e908e90600401612835565b60206040518083038186803b15801561145357600080fd5b505afa158015611467573d6000803e3d6000fd5b505050506040513d601f19601f8201168201806040525081019061148b9190611ffd565b600054604051634f558e7960e01b81529192506201000090046001600160a01b031690634f558e79906114c290849060040161282c565b60206040518083038186803b1580156114da57600080fd5b505afa1580156114ee573d6000803e3d6000fd5b505050506040513d601f19601f820116820180604052508101906115129190611f8d565b1561151c57600080fd5b600054604051632eec7b5560e11b815230916201000090046001600160a01b031690635dd8f6aa90611552908f9060040161282c565b60206040518083038186803b15801561156a57600080fd5b505afa15801561157e573d6000803e3d6000fd5b505050506040513d601f19601f820116820180604052508101906115a29190611e21565b6001600160a01b0316146115b557600080fd5b60008b8152600360205260409020805460018201546001600160a01b0390911693508510156115e357600080fd5b600084836040516020016115f89291906125a6565b60408051601f1981840301815291815281516020928301206000818152600290935290822090925090815460ff16600381111561163157fe5b1461163b57600080fd5b805460ff19166001178155600281018790556004810180546001600160a01b0387166001600160a01b03199091161790558a6116778b806128f1565b61168460208e018e6128f1565b604051602001611698959493929190612617565b60408051601f1981840301815291905280516020909101206003820155600181018e90556116d16001600160a01b03861687308a61197b565b5050505089876001600160a01b0316836001600160a01b03167fc913c510ad629b5dffaa2ed188b974db06964c1420ccb1638a840abc8b30d3cd8c8c8b8b8b8b60405161172396959493929190612723565b60405180910390a450505050505050505050565b6000546040516331a9108f60e11b815233916201000090046001600160a01b031690636352211e9061176d90859060040161282c565b60206040518083038186803b15801561178557600080fd5b505afa158015611799573d6000803e3d6000fd5b505050506040513d601f19601f820116820180604052508101906117bd9190611e21565b6001600160a01b0316146117d057600080fd5b600083836040516020016117e59291906125a6565b60408051601f198184030181529181528151602092830120600081815260029093529120600181015491925090831461181d57600080fd5b6001815460ff16600381111561182f57fe5b1461183957600080fd5b805460ff191660021781556040517f68113ca7b748f7d17637d79856900bc9336b88166e726bc9b55c62a39408b4079061187690879087906125a6565b60405180910390a15050505050565b61188d611d44565b6002600084846040516020016118a49291906125a6565b60408051601f1981840301815291815281516020928301208352908201929092528101600020815160a081019092528054829060ff1660038111156118e557fe5b60038111156118f057fe5b81526001820154602082015260028201546040820152600382015460608201526004909101546001600160a01b03166080909101529392505050565b611934611d74565b50600081815260036020908152604091829020825180840190935280546001600160a01b0316835260010154908201525b919050565b6000611975306119d5565b15905090565b604080516001600160a01b0380861660248301528416604482015260648082018490528251808303909101815260849091019091526020810180516001600160e01b03166323b872dd60e01b179052610eb1908590611a7b565b3b151590565b83546001600160a01b0319166001600160a01b03831617845560405183907f5b2016a1ea8387058405dc62c0671c0b374b98c435e331f124b89499b2f9f29c90611a26908590612592565b60405180910390a2610eb18484835b808360010181905550817f86780397f7caa7c8f95178b8088dece6299722a706b3acca977dd807d9b30f7b82604051611a6e919061282c565b60405180910390a2505050565b6000611ad0826040518060400160405280602081526020017f5361666545524332303a206c6f772d6c6576656c2063616c6c206661696c6564815250856001600160a01b0316611b2c9092919063ffffffff16565b80519091501561047c57808060200190516020811015611aef57600080fd5b505161047c5760405162461bcd60e51b815260040180806020018281038252602a8152602001806129e8602a913960400191505060405180910390fd5b6060611b3b8484600085611b45565b90505b9392505050565b606082471015611b865760405162461bcd60e51b81526004018080602001828103825260268152602001806129946026913960400191505060405180910390fd5b611b8f856119d5565b611be0576040805162461bcd60e51b815260206004820152601d60248201527f416464726573733a2063616c6c20746f206e6f6e2d636f6e7472616374000000604482015290519081900360640190fd5b600080866001600160a01b031685876040518082805190602001908083835b60208310611c1e5780518252601f199092019160209182019101611bff565b6001836020036101000a03801982511681845116808217855250505050505090500191505060006040518083038185875af1925050503d8060008114611c80576040519150601f19603f3d011682016040523d82523d6000602084013e611c85565b606091505b5091509150611c95828286611ca0565b979650505050505050565b60608315611caf575081611b3e565b825115611cbf5782518084602001fd5b8160405162461bcd60e51b81526004018080602001828103825283818151815260200191508051906020019080838360005b83811015611d09578181015183820152602001611cf1565b50505050905090810190601f168015611d365780820380516001836020036101000a031916815260200191505b509250505060405180910390fd5b6040805160a081019091528060008152600060208201819052604082018190526060820181905260809091015290565b604080518082019091526000808252602082015290565b80356119658161297b565b60008083601f840112611da7578182fd5b50813567ffffffffffffffff811115611dbe578182fd5b602083019150836020828501011115611dd657600080fd5b9250929050565b600060608284031215611dee578081fd5b50919050565b600060408284031215611dee578081fd5b600060208284031215611e16578081fd5b8135611b3e8161297b565b600060208284031215611e32578081fd5b8151611b3e8161297b565b60008060408385031215611e4f578081fd5b8251611e5a8161297b565b6020939093015192949293505050565b60008060008060808587031215611e7f578182fd5b8435611e8a8161297b565b9350602085810135611e9b8161297b565b935060408601359250606086013567ffffffffffffffff80821115611ebe578384fd5b818801915088601f830112611ed1578384fd5b813581811115611edd57fe5b604051601f8201601f1916810185018381118282101715611efa57fe5b60405281815283820185018b1015611f10578586fd5b81858501868301379081019093019390935250939692955090935050565b60008060408385031215611f40578182fd5b8235611f4b8161297b565b946020939093013593505050565b600080600060608486031215611f6d578283fd5b8335611f788161297b565b95602085013595506040909401359392505050565b600060208284031215611f9e578081fd5b81518015158114611b3e578182fd5b600060208284031215611fbe578081fd5b5035919050565b60008060408385031215611fd7578182fd5b8235611fe28161297b565b91506020830135611ff28161297b565b809150509250929050565b60006020828403121561200e578081fd5b5051919050565b600080600060608486031215612029578081fd5b83359250602084013561203b8161297b565b929592945050506040919091013590565b600080600080600080600080600060c08a8c031215612069578687fd5b8935985060208a013567ffffffffffffffff80821115612087578889fd5b6120938d838e01611d96565b909a50985060408c013591506120a88261297b565b90965060608b0135906120ba8261297b565b90955060808b013590808211156120cf578586fd5b6120db8d838e01611d96565b909650945060a08c01359150808211156120f3578384fd5b506121008c828d01611d96565b915080935050809150509295985092959850929598565b600080600080600080600080600080600060e08c8e031215612137578485fd5b8b359a5067ffffffffffffffff8060208e01351115612154578586fd5b6121648e60208f01358f01611d96565b909b50995061217560408e01611d8b565b985061218360608e01611d8b565b97508060808e01351115612195578586fd5b6121a58e60808f01358f01611d96565b909750955060a08d01358110156121ba578283fd5b6121ca8e60a08f01358f01611d96565b909550935060c08d01358110156121df578283fd5b506121f08d60c08e01358e01611d96565b81935080925050509295989b509295989b9093969950565b60008060008060008060008060c0898b031215612223578182fd5b88359750602089013567ffffffffffffffff80821115612241578384fd5b61224d8c838d01611d96565b909950975087915061226160408c01611d8b565b965060608b0135915080821115612276578384fd5b6122828c838d01611df4565b955060808b0135915080821115612297578384fd5b6122a38c838d01611d96565b909550935060a08b01359150808211156122bb578283fd5b506122c88b828c01611ddd565b9150509295985092959890939650565b600080600080600080600080600060e08a8c0312156122f5578283fd5b8935985060208a013567ffffffffffffffff80821115612313578485fd5b61231f8d838e01611d96565b909a50985088915061233360408d01611d8b565b975060608c0135915080821115612348578485fd5b6123548d838e01611df4565b965060808c0135915080821115612369578485fd5b6123758d838e01611d96565b909650945060a08c013591508082111561238d578384fd5b5061239a8c828d01611ddd565b9250506123a960c08b01611d8b565b90509295985092959850929598565b60008060008060008060008060c0898b0312156123d3578182fd5b88359750602089013567ffffffffffffffff808211156123f1578384fd5b6123fd8c838d01611d96565b909950975060408b013591506124128261297b565b90955060608a01359080821115612427578384fd5b6124338c838d01611df4565b955060808b0135915080821115612448578384fd5b506124558b828c01611d96565b999c989b50969995989497949560a00135949350505050565b600080600080600080600080600060e08a8c03121561248b578283fd5b8935985060208a013567ffffffffffffffff808211156124a9578485fd5b6124b58d838e01611d96565b909a50985060408c013591506124ca8261297b565b90965060608b013590808211156124df578485fd5b6124eb8d838e01611df4565b965060808c0135915080821115612500578485fd5b5061250d8c828d01611d96565b90955093505060a08a0135915060c08a01356125288161297b565b809150509295985092959850929598565b6000806040838503121561254b578182fd5b50508035926020909101359150565b60008284528282602086013780602084860101526020601f19601f85011685010190509392505050565b6004811061258e57fe5b9052565b6001600160a01b0391909116815260200190565b6001600160a01b03929092168252602082015260400190565b6001600160a01b039384168152919092166020820152604081019190915260600190565b6001600160a01b0386811682528516602082015260408101849052608060608201819052600090611c95908301848661255a565b6001600160a01b038616815260606020820181905260009061263c908301868861255a565b828103604084015261264f81858761255a565b98975050505050505050565b60c0808252810187905260008860e08301825b8a81101561269e5782356126818161297b565b6001600160a01b031682526020928301929091019060010161266e565b506020840198909852505060408101949094526001600160a01b0392831660608501529116608083015260a09091015292915050565b6001600160e01b031991909116815260200190565b60a081016126f78288612584565b6020820195909552604081019390935260608301919091526001600160a01b0316608090910152919050565b60006080825261273760808301888a61255a565b82810360208401526127498788612936565b6040835261275b60408401828461255a565b91505061276b6020890189612936565b838303602085015261277e83828461255a565b9350505050828103604084015261279681868861255a565b915050826060830152979650505050505050565b6c42616e636f724e6574776f726b60981b815260200190565b81516001600160a01b031681526020918201519181019190915260400190565b600060a0820190506127f6828451612584565b60208301516020830152604083015160408301526060830151606083015260018060a01b03608084015116608083015292915050565b90815260200190565b60008482526040602083015261284f60408301848661255a565b95945050505050565b600088825260a0602083015261287260a08301888a61255a565b6001600160a01b03878116604085015286166060840152828103608084015261289c81858761255a565b9a9950505050505050505050565b6000808335601e198436030181126128c0578283fd5b83018035915067ffffffffffffffff8211156128da578283fd5b6020908101925081023603821315611dd657600080fd5b6000808335601e19843603018112612907578283fd5b83018035915067ffffffffffffffff821115612921578283fd5b602001915036819003821315611dd657600080fd5b6000808335601e1984360301811261294c578283fd5b830160208101925035905067ffffffffffffffff81111561296c57600080fd5b803603831315611dd657600080fd5b6001600160a01b038116811461299057600080fd5b5056fe416464726573733a20696e73756666696369656e742062616c616e636520666f722063616c6c496e697469616c697a61626c653a20636f6e747261637420697320616c726561647920696e697469616c697a65645361666545524332303a204552433230206f7065726174696f6e20646964206e6f742073756363656564a2646970667358221220a1eb347edd32106404da93b38824b4aa9fff86678aef945fb85fb15650458b5464736f6c63430007060033",
  "linkReferences": {},
  "deployedLinkReferences": {}
}