{
  "_format": "hh-sol-artifact-1",
  "contractName": "StakingController",
  "sourceName": "contracts/StakingController.sol",
  "abi": [
    {
      "anonymous": false,
      "inputs": [
        {
          "indexed": true,
          "internalType": "address",
          "name": "staker",
          "type": "address"
        },
        {
          "indexed": true,
          "internalType": "address",
          "name": "controller",
          "type": "address"
        },
        {
          "indexed": true,
          "internalType": "uint256",
          "name": "parentId",
          "type": "uint256"
        },
        {
          "indexed": false,
          "internalType": "string",
          "name": "name",
          "type": "string"
        },
        {
          "indexed": false,
          "internalType": "address",
          "name": "stakeToken",
          "type": "address"
        },
        {
          "indexed": false,
          "internalType": "bytes",
          "name": "data",
          "type": "bytes"
        },
        {
          "indexed": false,
          "internalType": "string",
          "name": "proposal",
          "type": "string"
        },
        {
          "indexed": false,
          "internalType": "uint256",
          "name": "amt",
          "type": "uint256"
        }
      ],
      "name": "Bid",
      "type": "event"
    },
    {
      "anonymous": false,
      "inputs": [
        {
          "indexed": false,
          "internalType": "address",
          "name": "staker",
          "type": "address"
        },
        {
          "indexed": false,
          "internalType": "uint256",
          "name": "id",
          "type": "uint256"
        }
      ],
      "name": "BidAccepted",
      "type": "event"
    },
    {
      "anonymous": false,
      "inputs": [
        {
          "indexed": false,
          "internalType": "address",
          "name": "staker",
          "type": "address"
        },
        {
          "indexed": true,
          "internalType": "address",
          "name": "owner",
          "type": "address"
        },
        {
          "indexed": true,
          "internalType": "uint256",
          "name": "id",
          "type": "uint256"
        },
        {
          "indexed": true,
          "internalType": "address",
          "name": "controller",
          "type": "address"
        }
      ],
      "name": "BidClaimed",
      "type": "event"
    },
    {
      "anonymous": false,
      "inputs": [
        {
          "indexed": true,
          "internalType": "uint256",
          "name": "id",
          "type": "uint256"
        },
        {
          "indexed": false,
          "internalType": "uint256",
          "name": "minBid",
          "type": "uint256"
        }
      ],
      "name": "MinBidSet",
      "type": "event"
    },
    {
      "anonymous": false,
      "inputs": [
        {
          "indexed": true,
          "internalType": "uint256",
          "name": "id",
          "type": "uint256"
        },
        {
          "indexed": false,
          "internalType": "address",
          "name": "stakeToken",
          "type": "address"
        }
      ],
      "name": "StakeTokenSet",
      "type": "event"
    },
    {
      "anonymous": false,
      "inputs": [
        {
          "indexed": false,
          "internalType": "address",
          "name": "staker",
          "type": "address"
        },
        {
          "indexed": false,
          "internalType": "uint256",
          "name": "id",
          "type": "uint256"
        },
        {
          "indexed": true,
          "internalType": "uint256",
          "name": "parentId",
          "type": "uint256"
        }
      ],
      "name": "Unbid",
      "type": "event"
    },
    {
      "inputs": [
        {
          "internalType": "address",
          "name": "staker",
          "type": "address"
        },
        {
          "internalType": "uint256",
          "name": "id",
          "type": "uint256"
        },
        {
          "internalType": "uint256",
          "name": "parentId",
          "type": "uint256"
        }
      ],
      "name": "acceptBid",
      "outputs": [],
      "stateMutability": "nonpayable",
      "type": "function"
    },
    {
      "inputs": [],
      "name": "bancorNetwork",
      "outputs": [
        {
          "internalType": "contract IBancorNetwork",
          "name": "",
          "type": "address"
        }
      ],
      "stateMutability": "view",
      "type": "function"
    },
    {
      "inputs": [
        {
          "internalType": "uint256",
          "name": "parentId",
          "type": "uint256"
        },
        {
          "internalType": "string",
          "name": "name",
          "type": "string"
        },
        {
          "internalType": "address",
          "name": "controller",
          "type": "address"
        },
        {
          "internalType": "bytes",
          "name": "data",
          "type": "bytes"
        },
        {
          "internalType": "string",
          "name": "proposal",
          "type": "string"
        },
        {
          "internalType": "uint256",
          "name": "amt",
          "type": "uint256"
        }
      ],
      "name": "bid",
      "outputs": [],
      "stateMutability": "nonpayable",
      "type": "function"
    },
    {
      "inputs": [
        {
          "internalType": "uint256",
          "name": "parentId",
          "type": "uint256"
        },
        {
          "internalType": "string",
          "name": "name",
          "type": "string"
        },
        {
          "internalType": "address",
          "name": "controller",
          "type": "address"
        },
        {
          "internalType": "bytes",
          "name": "data",
          "type": "bytes"
        },
        {
          "internalType": "string",
          "name": "proposal",
          "type": "string"
        },
        {
          "components": [
            {
              "internalType": "address[]",
              "name": "path",
              "type": "address[]"
            },
            {
              "internalType": "uint256",
              "name": "amount",
              "type": "uint256"
            },
            {
              "internalType": "uint256",
              "name": "minOut",
              "type": "uint256"
            }
          ],
          "internalType": "struct StakingController.BancorSwapData",
          "name": "swapData",
          "type": "tuple"
        }
      ],
      "name": "bidByPath",
      "outputs": [],
      "stateMutability": "payable",
      "type": "function"
    },
    {
      "inputs": [
        {
          "internalType": "uint256",
          "name": "parentId",
          "type": "uint256"
        },
        {
          "internalType": "string",
          "name": "name",
          "type": "string"
        },
        {
          "internalType": "address",
          "name": "controller",
          "type": "address"
        },
        {
          "internalType": "bytes",
          "name": "data",
          "type": "bytes"
        },
        {
          "internalType": "string",
          "name": "proposal",
          "type": "string"
        },
        {
          "internalType": "uint256",
          "name": "amt",
          "type": "uint256"
        },
        {
          "internalType": "address",
          "name": "staker",
          "type": "address"
        }
      ],
      "name": "bidFor",
      "outputs": [],
      "stateMutability": "nonpayable",
      "type": "function"
    },
    {
      "inputs": [
        {
          "internalType": "uint256",
          "name": "parentId",
          "type": "uint256"
        },
        {
          "internalType": "string",
          "name": "name",
          "type": "string"
        },
        {
          "internalType": "address",
          "name": "controller",
          "type": "address"
        },
        {
          "internalType": "bytes",
          "name": "data",
          "type": "bytes"
        },
        {
          "internalType": "string",
          "name": "proposal",
          "type": "string"
        },
        {
          "components": [
            {
              "internalType": "address[]",
              "name": "path",
              "type": "address[]"
            },
            {
              "internalType": "uint256",
              "name": "amount",
              "type": "uint256"
            },
            {
              "internalType": "uint256",
              "name": "minOut",
              "type": "uint256"
            }
          ],
          "internalType": "struct StakingController.BancorSwapData",
          "name": "swapData",
          "type": "tuple"
        },
        {
          "internalType": "address",
          "name": "staker",
          "type": "address"
        }
      ],
      "name": "bidForByPath",
      "outputs": [],
      "stateMutability": "payable",
      "type": "function"
    },
    {
      "inputs": [
        {
          "internalType": "uint256",
          "name": "parentId",
          "type": "uint256"
        },
        {
          "internalType": "string",
          "name": "name",
          "type": "string"
        },
        {
          "internalType": "address",
          "name": "owner",
          "type": "address"
        },
        {
          "internalType": "address",
          "name": "controller",
          "type": "address"
        },
        {
          "internalType": "bytes",
          "name": "data",
          "type": "bytes"
        }
      ],
      "name": "claimBid",
      "outputs": [],
      "stateMutability": "nonpayable",
      "type": "function"
    },
    {
      "inputs": [
        {
          "internalType": "uint256",
          "name": "id",
          "type": "uint256"
        },
        {
          "internalType": "address",
          "name": "stakeToken",
          "type": "address"
        },
        {
          "internalType": "uint256",
          "name": "minBid",
          "type": "uint256"
        }
      ],
      "name": "configureDomain",
      "outputs": [],
      "stateMutability": "nonpayable",
      "type": "function"
    },
    {
      "inputs": [
        {
          "internalType": "contract ZNSRegistry",
          "name": "_registry",
          "type": "address"
        },
        {
          "internalType": "contract IBancorRegistry",
          "name": "_bancor",
          "type": "address"
        }
      ],
      "name": "initialize",
      "outputs": [],
      "stateMutability": "nonpayable",
      "type": "function"
    },
    {
      "inputs": [
        {
          "internalType": "address",
          "name": "sender",
          "type": "address"
        },
        {
          "internalType": "address",
          "name": "oldController",
          "type": "address"
        },
        {
          "internalType": "uint256",
          "name": "id",
          "type": "uint256"
        },
        {
          "internalType": "bytes",
          "name": "data",
          "type": "bytes"
        }
      ],
      "name": "onSetZnsController",
      "outputs": [
        {
          "internalType": "bytes4",
          "name": "",
          "type": "bytes4"
        }
      ],
      "stateMutability": "nonpayable",
      "type": "function"
    },
    {
      "inputs": [
        {
          "internalType": "uint256",
          "name": "parentId",
          "type": "uint256"
        },
        {
          "internalType": "string",
          "name": "name",
          "type": "string"
        },
        {
          "internalType": "address",
          "name": "owner",
          "type": "address"
        },
        {
          "internalType": "address",
          "name": "controller",
          "type": "address"
        },
        {
          "internalType": "bytes",
          "name": "controllerData",
          "type": "bytes"
        },
        {
          "internalType": "bytes",
          "name": "mintData",
          "type": "bytes"
        }
      ],
      "name": "safeClaimBid",
      "outputs": [],
      "stateMutability": "nonpayable",
      "type": "function"
    },
    {
      "inputs": [
        {
          "internalType": "uint256",
          "name": "id",
          "type": "uint256"
        },
        {
          "internalType": "uint256",
          "name": "minBid",
          "type": "uint256"
        }
      ],
      "name": "setMinBid",
      "outputs": [],
      "stateMutability": "nonpayable",
      "type": "function"
    },
    {
      "inputs": [
        {
          "internalType": "address",
          "name": "staker",
          "type": "address"
        },
        {
          "internalType": "uint256",
          "name": "id",
          "type": "uint256"
        }
      ],
      "name": "stakeOf",
      "outputs": [
        {
          "components": [
            {
              "internalType": "enum StakingController.StakeStatus",
              "name": "status",
              "type": "uint8"
            },
            {
              "internalType": "uint256",
              "name": "parentId",
              "type": "uint256"
            },
            {
              "internalType": "uint256",
              "name": "amount",
              "type": "uint256"
            },
            {
              "internalType": "bytes32",
              "name": "createHash",
              "type": "bytes32"
            },
            {
              "internalType": "address",
              "name": "stakeToken",
              "type": "address"
            }
          ],
          "internalType": "struct StakingController.Stake",
          "name": "",
          "type": "tuple"
        }
      ],
      "stateMutability": "view",
      "type": "function"
    },
    {
      "inputs": [
        {
          "internalType": "uint256",
          "name": "id",
          "type": "uint256"
        }
      ],
      "name": "stateOf",
      "outputs": [
        {
          "components": [
            {
              "internalType": "address",
              "name": "stakeToken",
              "type": "address"
            },
            {
              "internalType": "uint256",
              "name": "minBid",
              "type": "uint256"
            }
          ],
          "internalType": "struct StakingController.DomainConfig",
          "name": "",
          "type": "tuple"
        }
      ],
      "stateMutability": "view",
      "type": "function"
    },
    {
      "inputs": [
        {
          "internalType": "uint256",
          "name": "id",
          "type": "uint256"
        },
        {
          "internalType": "uint256",
          "name": "parentId",
          "type": "uint256"
        }
      ],
      "name": "unbid",
      "outputs": [],
      "stateMutability": "nonpayable",
      "type": "function"
    }
  ],
  "bytecode": "0x608060405234801561001057600080fd5b506125a8806100206000396000f3fe6080604052600436106100e85760003560e01c806382b0052c1161008a578063b276331711610059578063b27633171461024d578063ca76e6af1461027a578063e13a40f01461029a578063ed87169c146102ba576100e8565b806382b0052c146101d857806395c18252146101eb5780639b84309b1461020b578063a4edb25e1461022b576100e8565b8063485cc955116100c6578063485cc95514610158578063489e8917146101785780636ec93bed1461019857806376d95a3c146101b8576100e8565b80631239ff54146100ed578063131a7e24146101025780632482d69c14610138575b600080fd5b6101006100fb366004611e2f565b6102e7565b005b34801561010e57600080fd5b5061012261011d366004611c5d565b610304565b60405161012f919061234b565b60405180910390f35b34801561014457600080fd5b50610100610153366004611fea565b610342565b34801561016457600080fd5b50610100610173366004611c25565b610354565b34801561018457600080fd5b50610100610193366004611d64565b61044f565b3480156101a457600080fd5b506101006101b33660046120a6565b610625565b3480156101c457600080fd5b506101006101d3366004611cc4565b61097d565b6101006101e6366004611f04565b610b33565b3480156101f757600080fd5b50610100610206366004611c8d565b610f6f565b34801561021757600080fd5b50610100610226366004612177565b6110ef565b34801561023757600080fd5b506102406111a5565b60405161012f91906121c2565b34801561025957600080fd5b5061026d610268366004611ae2565b611242565b60405161012f9190612294565b34801561028657600080fd5b50610100610295366004612177565b6112c3565b3480156102a657600080fd5b506101006102b5366004611bd1565b6113d0565b3480156102c657600080fd5b506102da6102d5366004611ba6565b61151e565b60405161012f919061236b565b6102f989898989898989898933610b33565b505050505050505050565b61030c6119cd565b50600081815260036020908152604091829020825180840190935280546001600160a01b0316835260010154908201525b919050565b6102f989898989898989898933610625565b600054610100900460ff168061036d575061036d6115c5565b8061037b575060005460ff16155b6103b65760405162461bcd60e51b815260040180806020018281038252602e81526020018061251b602e913960400191505060405180910390fd5b600054610100900460ff161580156103e1576000805460ff1961ff0019909116610100171660011790555b600080547fffffffffffffffffffff0000000000000000000000000000000000000000ffff16620100006001600160a01b038681169190910291909117909155600180546001600160a01b031916918416919091179055801561044a576000805461ff00191690555b505050565b8215806104605750610460856115d6565b61046957600080fd5b80158061047a575061047a866115d6565b61048357600080fd5b600080546040517f7f76176e000000000000000000000000000000000000000000000000000000008152620100009091046001600160a01b031690637f76176e906104e2908d908d908d908d908d908b908b908f908f9060040161242c565b602060405180830381600087803b1580156104fc57600080fd5b505af1158015610510573d6000803e3d6000fd5b505050506040513d601f19601f820116820180604052508101906105349190611c75565b9050600060026000338460405160200161054f9291906121d6565b60408051601f1981840301815291815281516020928301208352908201929092520160002090506002815460ff16600381111561058857fe5b1461059257600080fd5b8686866040516020016105a7939291906121ef565b604051602081830303815290604052805190602001208160030154146105cc57600080fd5b866001600160a01b031682896001600160a01b03167fccb570a5507370ad990f0f6091a4b750d2265609fa24e591b68a9483f1fcea963360405161061091906121c2565b60405180910390a45050505050505050505050565b8415806106365750610636876115d6565b61063f57600080fd5b600080546040517ff21e1aa800000000000000000000000000000000000000000000000000000000815282916201000090046001600160a01b03169063f21e1aa890610693908f908f908f906004016123c0565b60206040518083038186803b1580156106ab57600080fd5b505afa1580156106bf573d6000803e3d6000fd5b505050506040513d601f19601f820116820180604052508101906106e39190611c75565b600054604051634f558e7960e01b81529192506201000090046001600160a01b031690634f558e799061071a9084906004016123b7565b60206040518083038186803b15801561073257600080fd5b505afa158015610746573d6000803e3d6000fd5b505050506040513d601f19601f8201168201806040525081019061076a9190611c05565b1561077457600080fd5b306001600160a01b0316600060029054906101000a90046001600160a01b03166001600160a01b0316635dd8f6aa8e6040518263ffffffff1660e01b81526004016107bf91906123b7565b60206040518083038186803b1580156107d757600080fd5b505afa1580156107eb573d6000803e3d6000fd5b505050506040513d601f19601f8201168201806040525081019061080f9190611a99565b6001600160a01b03161461082257600080fd5b60008c8152600360205260409020805460018201546001600160a01b03909116935085101561085057600080fd5b600084836040516020016108659291906121d6565b60408051601f1981840301815291815281516020928301206000818152600290935290822090925090815460ff16600381111561089e57fe5b146108a857600080fd5b805460ff19166001178155600281018790556004810180546001600160a01b0387166001600160a01b03199091161790556040516108ee908d908d908d906020016121ef565b60408051601f1981840301815291905280516020909101206003820155600181018f90556109276001600160a01b03861687308a6115dc565b505050508a886001600160a01b0316836001600160a01b03167faffab75dbf11d0287099f8f15d6e48ce90a2863e23c30213728bf669710ff32e8d8d868d8d8d8d8d6040516106109897969594939291906122c1565b80158061098e575061098e836115d6565b61099757600080fd5b600080546040517f880aeba3000000000000000000000000000000000000000000000000000000008152620100009091046001600160a01b03169063880aeba3906109f2908b908b908b908b908b908b908b906004016123da565b602060405180830381600087803b158015610a0c57600080fd5b505af1158015610a20573d6000803e3d6000fd5b505050506040513d601f19601f82011682018060405250810190610a449190611c75565b90506000600260003384604051602001610a5f9291906121d6565b60408051601f1981840301815291815281516020928301208352908201929092520160002090506002815460ff166003811115610a9857fe5b14610aa257600080fd5b848484604051602001610ab7939291906121ef565b60405160208183030381529060405280519060200120816003015414610adc57600080fd5b846001600160a01b031682876001600160a01b03167fccb570a5507370ad990f0f6091a4b750d2265609fa24e591b68a9483f1fcea9633604051610b2091906121c2565b60405180910390a4505050505050505050565b6000610b3f8380612495565b6001610b4b8680612495565b905003818110610b5757fe5b9050602002016020810190610b6c9190611a7d565b9050600080600060029054906101000a90046001600160a01b03166001600160a01b031663f21e1aa88e8e8e6040518463ffffffff1660e01b8152600401610bb6939291906123c0565b60206040518083038186803b158015610bce57600080fd5b505afa158015610be2573d6000803e3d6000fd5b505050506040513d601f19601f82011682018060405250810190610c069190611c75565b600054604051634f558e7960e01b81529192506201000090046001600160a01b031690634f558e7990610c3d9084906004016123b7565b60206040518083038186803b158015610c5557600080fd5b505afa158015610c69573d6000803e3d6000fd5b505050506040513d601f19601f82011682018060405250810190610c8d9190611c05565b15610c9757600080fd5b306001600160a01b0316600060029054906101000a90046001600160a01b03166001600160a01b0316635dd8f6aa8f6040518263ffffffff1660e01b8152600401610ce291906123b7565b60206040518083038186803b158015610cfa57600080fd5b505afa158015610d0e573d6000803e3d6000fd5b505050506040513d601f19601f82011682018060405250810190610d329190611a99565b6001600160a01b031614610d4557600080fd5b60008d815260036020526040902080546001600160a01b03858116911614610d6c57600080fd5b60008583604051602001610d819291906121d6565b60408051601f1981840301815291815281516020928301206000818152600290935290822090925090815460ff166003811115610dba57fe5b14610dc457600080fd5b805460ff19166001908117825583015460408901351015610de457600080fd5b805460ff191660011781556004810180546001600160a01b0388166001600160a01b0319909116179055604051610e23908e908e908e906020016121ef565b6040516020818303038152906040528051906020012081600301819055508f8160010181905550610e526111a5565b6001600160a01b031663b77d239b47610e6b8b80612495565b8c602001358d60400135306000806040518963ffffffff1660e01b8152600401610e9b979695949392919061221b565b6020604051808303818588803b158015610eb457600080fd5b505af1158015610ec8573d6000803e3d6000fd5b50505050506040513d601f19601f82011682018060405250810190610eed9190611c75565b94504715610efa57600080fd5b848160020181905550505050508b896001600160a01b0316846001600160a01b03167faffab75dbf11d0287099f8f15d6e48ce90a2863e23c30213728bf669710ff32e8e8e878e8e8e8e8b604051610f599897969594939291906122c1565b60405180910390a4505050505050505050505050565b6000546040517f5dd8f6aa00000000000000000000000000000000000000000000000000000000815230916201000090046001600160a01b031690635dd8f6aa90610fbe9087906004016123b7565b60206040518083038186803b158015610fd657600080fd5b505afa158015610fea573d6000803e3d6000fd5b505050506040513d601f19601f8201168201806040525081019061100e9190611a99565b6001600160a01b03161461102157600080fd5b6000546040516331a9108f60e11b815233916201000090046001600160a01b031690636352211e906110579087906004016123b7565b60206040518083038186803b15801561106f57600080fd5b505afa158015611083573d6000803e3d6000fd5b505050506040513d601f19601f820116820180604052508101906110a79190611a99565b6001600160a01b0316146110ba57600080fd5b600083815260036020526040902080546001600160a01b0316156110dd57600080fd5b6110e981858585611664565b50505050565b6000546040516331a9108f60e11b815233916201000090046001600160a01b031690636352211e906111259086906004016123b7565b60206040518083038186803b15801561113d57600080fd5b505afa158015611151573d6000803e3d6000fd5b505050506040513d601f19601f820116820180604052508101906111759190611a99565b6001600160a01b03161461118857600080fd5b60008281526003602052604090206111a19083836116be565b5050565b6001546040517fbb34534c0000000000000000000000000000000000000000000000000000000081526000916001600160a01b03169063bb34534c906111ed90600401612322565b60206040518083038186803b15801561120557600080fd5b505afa158015611219573d6000803e3d6000fd5b505050506040513d601f19601f8201168201806040525081019061123d9190611a99565b905090565b600080546201000090046001600160a01b0316331461126057600080fd5b600080838060200190518101906112779190611ab5565b6000878152600360205260409020919350915061129681878585611664565b507fb276331700000000000000000000000000000000000000000000000000000000979650505050505050565b600033836040516020016112d89291906121d6565b60408051601f1981840301815291815281516020928301206000818152600290935291209091506001815460ff16600381111561131157fe5b148061132c57506002815460ff16600381111561132a57fe5b145b61133557600080fd5b6002808201546000848152602083905260408120805460ff19168155600181018290559283018190556003830155600491820180546001600160a01b03191690559082015461138f906001600160a01b03163033846115dc565b837fbaf75aa58d2f7ec472f5e3a652015c4bfb74087acb3cd1d34c3a9c59c355c06d33876040516113c19291906121d6565b60405180910390a25050505050565b6000546040516331a9108f60e11b815233916201000090046001600160a01b031690636352211e906114069085906004016123b7565b60206040518083038186803b15801561141e57600080fd5b505afa158015611432573d6000803e3d6000fd5b505050506040513d601f19601f820116820180604052508101906114569190611a99565b6001600160a01b03161461146957600080fd5b6000838360405160200161147e9291906121d6565b60408051601f19818403018152918152815160209283012060008181526002909352912060018101549192509083146114b657600080fd5b6001815460ff1660038111156114c857fe5b146114d257600080fd5b805460ff191660021781556040517f68113ca7b748f7d17637d79856900bc9336b88166e726bc9b55c62a39408b4079061150f90879087906121d6565b60405180910390a15050505050565b6115266119e4565b60026000848460405160200161153d9291906121d6565b60408051601f1981840301815291815281516020928301208352908201929092528101600020815160a081019092528054829060ff16600381111561157e57fe5b600381111561158957fe5b81526001820154602082015260028201546040820152600382015460608201526004909101546001600160a01b03166080909101529392505050565b60006115d0306115d6565b15905090565b3b151590565b604080516001600160a01b0380861660248301528416604482015260648082018490528251808303909101815260849091019091526020810180517bffffffffffffffffffffffffffffffffffffffffffffffffffffffff167f23b872dd000000000000000000000000000000000000000000000000000000001790526110e9908590611704565b83546001600160a01b0319166001600160a01b03831617845560405183907f5b2016a1ea8387058405dc62c0671c0b374b98c435e331f124b89499b2f9f29c906116af9085906121c2565b60405180910390a26110e98484835b808360010181905550817f86780397f7caa7c8f95178b8088dece6299722a706b3acca977dd807d9b30f7b826040516116f791906123b7565b60405180910390a2505050565b6000611759826040518060400160405280602081526020017f5361666545524332303a206c6f772d6c6576656c2063616c6c206661696c6564815250856001600160a01b03166117b59092919063ffffffff16565b80519091501561044a5780806020019051602081101561177857600080fd5b505161044a5760405162461bcd60e51b815260040180806020018281038252602a815260200180612549602a913960400191505060405180910390fd5b60606117c484846000856117ce565b90505b9392505050565b60608247101561180f5760405162461bcd60e51b81526004018080602001828103825260268152602001806124f56026913960400191505060405180910390fd5b611818856115d6565b611869576040805162461bcd60e51b815260206004820152601d60248201527f416464726573733a2063616c6c20746f206e6f6e2d636f6e7472616374000000604482015290519081900360640190fd5b600080866001600160a01b031685876040518082805190602001908083835b602083106118a75780518252601f199092019160209182019101611888565b6001836020036101000a03801982511681845116808217855250505050505090500191505060006040518083038185875af1925050503d8060008114611909576040519150601f19603f3d011682016040523d82523d6000602084013e61190e565b606091505b509150915061191e828286611929565b979650505050505050565b606083156119385750816117c7565b8251156119485782518084602001fd5b8160405162461bcd60e51b81526004018080602001828103825283818151815260200191508051906020019080838360005b8381101561199257818101518382015260200161197a565b50505050905090810190601f1680156119bf5780820380516001836020036101000a031916815260200191505b509250505060405180910390fd5b604080518082019091526000808252602082015290565b6040805160a081019091528060008152600060208201819052604082018190526060820181905260809091015290565b803561033d816124dc565b60008083601f840112611a30578182fd5b50813567ffffffffffffffff811115611a47578182fd5b602083019150836020828501011115611a5f57600080fd5b9250929050565b600060608284031215611a77578081fd5b50919050565b600060208284031215611a8e578081fd5b81356117c7816124dc565b600060208284031215611aaa578081fd5b81516117c7816124dc565b60008060408385031215611ac7578081fd5b8251611ad2816124dc565b6020939093015192949293505050565b60008060008060808587031215611af7578182fd5b8435611b02816124dc565b9350602085810135611b13816124dc565b935060408601359250606086013567ffffffffffffffff80821115611b36578384fd5b818801915088601f830112611b49578384fd5b813581811115611b5557fe5b604051601f8201601f1916810185018381118282101715611b7257fe5b60405281815283820185018b1015611b88578586fd5b81858501868301379081019093019390935250939692955090935050565b60008060408385031215611bb8578182fd5b8235611bc3816124dc565b946020939093013593505050565b600080600060608486031215611be5578283fd5b8335611bf0816124dc565b95602085013595506040909401359392505050565b600060208284031215611c16578081fd5b815180151581146117c7578182fd5b60008060408385031215611c37578182fd5b8235611c42816124dc565b91506020830135611c52816124dc565b809150509250929050565b600060208284031215611c6e578081fd5b5035919050565b600060208284031215611c86578081fd5b5051919050565b600080600060608486031215611ca1578283fd5b833592506020840135611cb3816124dc565b929592945050506040919091013590565b600080600080600080600060a0888a031215611cde578283fd5b87359650602088013567ffffffffffffffff80821115611cfc578485fd5b611d088b838c01611a1f565b909850965060408a01359150611d1d826124dc565b909450606089013590611d2f826124dc565b90935060808901359080821115611d44578384fd5b50611d518a828b01611a1f565b989b979a50959850939692959293505050565b600080600080600080600080600060c08a8c031215611d81578283fd5b8935985060208a013567ffffffffffffffff80821115611d9f578485fd5b611dab8d838e01611a1f565b909a50985060408c01359150611dc0826124dc565b90965060608b013590611dd2826124dc565b90955060808b01359080821115611de7578485fd5b611df38d838e01611a1f565b909650945060a08c0135915080821115611e0b578384fd5b50611e188c828d01611a1f565b915080935050809150509295985092959850929598565b600080600080600080600080600060c08a8c031215611e4c578283fd5b8935985060208a013567ffffffffffffffff80821115611e6a578485fd5b611e768d838e01611a1f565b909a509850889150611e8a60408d01611a14565b975060608c0135915080821115611e9f578485fd5b611eab8d838e01611a1f565b909750955060808c0135915080821115611ec3578485fd5b611ecf8d838e01611a1f565b909550935060a08c0135915080821115611ee7578283fd5b50611ef48c828d01611a66565b9150509295985092959850929598565b60008060008060008060008060008060e08b8d031215611f22578384fd5b8a35995060208b013567ffffffffffffffff80821115611f40578586fd5b611f4c8e838f01611a1f565b909b509950899150611f6060408e01611a14565b985060608d0135915080821115611f75578586fd5b611f818e838f01611a1f565b909850965060808d0135915080821115611f99578586fd5b611fa58e838f01611a1f565b909650945060a08d0135915080821115611fbd578283fd5b50611fca8d828e01611a66565b925050611fd960c08c01611a14565b90509295989b9194979a5092959850565b600080600080600080600080600060c08a8c031215612007578283fd5b8935985060208a013567ffffffffffffffff80821115612025578485fd5b6120318d838e01611a1f565b909a50985060408c01359150612046826124dc565b90965060608b0135908082111561205b578485fd5b6120678d838e01611a1f565b909750955060808c013591508082111561207f578485fd5b5061208c8c828d01611a1f565b9a9d999c50979a9699959894979660a00135949350505050565b60008060008060008060008060008060e08b8d0312156120c4578384fd5b8a35995060208b013567ffffffffffffffff808211156120e2578586fd5b6120ee8e838f01611a1f565b909b50995060408d01359150612103826124dc565b90975060608c01359080821115612118578586fd5b6121248e838f01611a1f565b909850965060808d013591508082111561213c578586fd5b506121498d828e01611a1f565b90955093505060a08b0135915060c08b0135612164816124dc565b809150509295989b9194979a5092959850565b60008060408385031215612189578182fd5b50508035926020909101359150565b60008284528282602086013780602084860101526020601f19601f85011685010190509392505050565b6001600160a01b0391909116815260200190565b6001600160a01b03929092168252602082015260400190565b60006001600160a01b038516825260406020830152612212604083018486612198565b95945050505050565b60c0808252810187905260008860e08301825b8a81101561225e578235612241816124dc565b6001600160a01b031682526020928301929091019060010161222e565b506020840198909852505060408101949094526001600160a01b0392831660608501529116608083015260a09091015292915050565b7fffffffff0000000000000000000000000000000000000000000000000000000091909116815260200190565b600060a082526122d560a083018a8c612198565b6001600160a01b038916602084015282810360408401526122f781888a612198565b9050828103606084015261230c818688612198565b9150508260808301529998505050505050505050565b7f42616e636f724e6574776f726b00000000000000000000000000000000000000815260200190565b81516001600160a01b031681526020918201519181019190915260400190565b815160a08201906004811061237c57fe5b808352506020830151602083015260408301516040830152606083015160608301526001600160a01b03608084015116608083015292915050565b90815260200190565b600084825260406020830152612212604083018486612198565b600088825260a060208301526123f460a08301888a612198565b6001600160a01b03878116604085015286166060840152828103608084015261241e818587612198565b9a9950505050505050505050565b60008a825260c0602083015261244660c083018a8c612198565b6001600160a01b038981166040850152881660608401528281036080840152612470818789612198565b905082810360a0840152612485818587612198565b9c9b505050505050505050505050565b6000808335601e198436030181126124ab578283fd5b83018035915067ffffffffffffffff8211156124c5578283fd5b6020908101925081023603821315611a5f57600080fd5b6001600160a01b03811681146124f157600080fd5b5056fe416464726573733a20696e73756666696369656e742062616c616e636520666f722063616c6c496e697469616c697a61626c653a20636f6e747261637420697320616c726561647920696e697469616c697a65645361666545524332303a204552433230206f7065726174696f6e20646964206e6f742073756363656564a26469706673582212206f05416e6def99b64829ea065497c95b086749d2492ecfd48060fc70986fa65264736f6c63430007060033",
  "linkReferences": {},
  "deployedLinkReferences": {}
}