{
  "_format": "hh-sol-artifact-1",
  "contractName": "BancorFormula",
  "sourceName": "contracts/bancor/converter/BancorFormula.sol",
  "abi": [
    {
      "inputs": [
        {
          "internalType": "uint256",
          "name": "_primaryReserveStakedBalance",
          "type": "uint256"
        },
        {
          "internalType": "uint256",
          "name": "_primaryReserveBalance",
          "type": "uint256"
        },
        {
          "internalType": "uint256",
          "name": "_secondaryReserveBalance",
          "type": "uint256"
        },
        {
          "internalType": "uint256",
          "name": "_reserveRateNumerator",
          "type": "uint256"
        },
        {
          "internalType": "uint256",
          "name": "_reserveRateDenominator",
          "type": "uint256"
        }
      ],
      "name": "balancedWeights",
      "outputs": [
        {
          "internalType": "uint32",
          "name": "",
          "type": "uint32"
        },
        {
          "internalType": "uint32",
          "name": "",
          "type": "uint32"
        }
      ],
      "stateMutability": "view",
      "type": "function"
    },
    {
      "inputs": [
        {
          "internalType": "uint256",
          "name": "_sourceReserveBalance",
          "type": "uint256"
        },
        {
          "internalType": "uint32",
          "name": "_sourceReserveWeight",
          "type": "uint32"
        },
        {
          "internalType": "uint256",
          "name": "_targetReserveBalance",
          "type": "uint256"
        },
        {
          "internalType": "uint32",
          "name": "_targetReserveWeight",
          "type": "uint32"
        },
        {
          "internalType": "uint256",
          "name": "_amount",
          "type": "uint256"
        }
      ],
      "name": "calculateCrossConnectorReturn",
      "outputs": [
        {
          "internalType": "uint256",
          "name": "",
          "type": "uint256"
        }
      ],
      "stateMutability": "view",
      "type": "function"
    },
    {
      "inputs": [
        {
          "internalType": "uint256",
          "name": "_sourceReserveBalance",
          "type": "uint256"
        },
        {
          "internalType": "uint32",
          "name": "_sourceReserveWeight",
          "type": "uint32"
        },
        {
          "internalType": "uint256",
          "name": "_targetReserveBalance",
          "type": "uint256"
        },
        {
          "internalType": "uint32",
          "name": "_targetReserveWeight",
          "type": "uint32"
        },
        {
          "internalType": "uint256",
          "name": "_amount",
          "type": "uint256"
        }
      ],
      "name": "calculateCrossReserveReturn",
      "outputs": [
        {
          "internalType": "uint256",
          "name": "",
          "type": "uint256"
        }
      ],
      "stateMutability": "view",
      "type": "function"
    },
    {
      "inputs": [
        {
          "internalType": "uint256",
          "name": "_supply",
          "type": "uint256"
        },
        {
          "internalType": "uint256",
          "name": "_reserveBalance",
          "type": "uint256"
        },
        {
          "internalType": "uint32",
          "name": "_reserveRatio",
          "type": "uint32"
        },
        {
          "internalType": "uint256",
          "name": "_amount",
          "type": "uint256"
        }
      ],
      "name": "calculateFundCost",
      "outputs": [
        {
          "internalType": "uint256",
          "name": "",
          "type": "uint256"
        }
      ],
      "stateMutability": "view",
      "type": "function"
    },
    {
      "inputs": [
        {
          "internalType": "uint256",
          "name": "_supply",
          "type": "uint256"
        },
        {
          "internalType": "uint256",
          "name": "_reserveBalance",
          "type": "uint256"
        },
        {
          "internalType": "uint32",
          "name": "_reserveRatio",
          "type": "uint32"
        },
        {
          "internalType": "uint256",
          "name": "_amount",
          "type": "uint256"
        }
      ],
      "name": "calculateLiquidateReturn",
      "outputs": [
        {
          "internalType": "uint256",
          "name": "",
          "type": "uint256"
        }
      ],
      "stateMutability": "view",
      "type": "function"
    },
    {
      "inputs": [
        {
          "internalType": "uint256",
          "name": "_supply",
          "type": "uint256"
        },
        {
          "internalType": "uint256",
          "name": "_reserveBalance",
          "type": "uint256"
        },
        {
          "internalType": "uint32",
          "name": "_reserveWeight",
          "type": "uint32"
        },
        {
          "internalType": "uint256",
          "name": "_amount",
          "type": "uint256"
        }
      ],
      "name": "calculatePurchaseReturn",
      "outputs": [
        {
          "internalType": "uint256",
          "name": "",
          "type": "uint256"
        }
      ],
      "stateMutability": "view",
      "type": "function"
    },
    {
      "inputs": [
        {
          "internalType": "uint256",
          "name": "_supply",
          "type": "uint256"
        },
        {
          "internalType": "uint256",
          "name": "_reserveBalance",
          "type": "uint256"
        },
        {
          "internalType": "uint32",
          "name": "_reserveWeight",
          "type": "uint32"
        },
        {
          "internalType": "uint256",
          "name": "_amount",
          "type": "uint256"
        }
      ],
      "name": "calculateSaleReturn",
      "outputs": [
        {
          "internalType": "uint256",
          "name": "",
          "type": "uint256"
        }
      ],
      "stateMutability": "view",
      "type": "function"
    },
    {
      "inputs": [
        {
          "internalType": "uint256",
          "name": "_sourceReserveBalance",
          "type": "uint256"
        },
        {
          "internalType": "uint32",
          "name": "_sourceReserveWeight",
          "type": "uint32"
        },
        {
          "internalType": "uint256",
          "name": "_targetReserveBalance",
          "type": "uint256"
        },
        {
          "internalType": "uint32",
          "name": "_targetReserveWeight",
          "type": "uint32"
        },
        {
          "internalType": "uint256",
          "name": "_amount",
          "type": "uint256"
        }
      ],
      "name": "crossReserveRate",
      "outputs": [
        {
          "internalType": "uint256",
          "name": "",
          "type": "uint256"
        }
      ],
      "stateMutability": "view",
      "type": "function"
    },
    {
      "inputs": [
        {
          "internalType": "uint256",
          "name": "_sourceReserveBalance",
          "type": "uint256"
        },
        {
          "internalType": "uint32",
          "name": "_sourceReserveWeight",
          "type": "uint32"
        },
        {
          "internalType": "uint256",
          "name": "_targetReserveBalance",
          "type": "uint256"
        },
        {
          "internalType": "uint32",
          "name": "_targetReserveWeight",
          "type": "uint32"
        },
        {
          "internalType": "uint256",
          "name": "_amount",
          "type": "uint256"
        }
      ],
      "name": "crossReserveTargetAmount",
      "outputs": [
        {
          "internalType": "uint256",
          "name": "",
          "type": "uint256"
        }
      ],
      "stateMutability": "view",
      "type": "function"
    },
    {
      "inputs": [
        {
          "internalType": "uint256",
          "name": "_supply",
          "type": "uint256"
        },
        {
          "internalType": "uint256",
          "name": "_reserveBalance",
          "type": "uint256"
        },
        {
          "internalType": "uint32",
          "name": "_reserveRatio",
          "type": "uint32"
        },
        {
          "internalType": "uint256",
          "name": "_amount",
          "type": "uint256"
        }
      ],
      "name": "fundCost",
      "outputs": [
        {
          "internalType": "uint256",
          "name": "",
          "type": "uint256"
        }
      ],
      "stateMutability": "view",
      "type": "function"
    },
    {
      "inputs": [
        {
          "internalType": "uint256",
          "name": "_supply",
          "type": "uint256"
        },
        {
          "internalType": "uint256",
          "name": "_reserveBalance",
          "type": "uint256"
        },
        {
          "internalType": "uint32",
          "name": "_reserveRatio",
          "type": "uint32"
        },
        {
          "internalType": "uint256",
          "name": "_amount",
          "type": "uint256"
        }
      ],
      "name": "fundSupplyAmount",
      "outputs": [
        {
          "internalType": "uint256",
          "name": "",
          "type": "uint256"
        }
      ],
      "stateMutability": "view",
      "type": "function"
    },
    {
      "inputs": [],
      "name": "init",
      "outputs": [],
      "stateMutability": "nonpayable",
      "type": "function"
    },
    {
      "inputs": [
        {
          "internalType": "uint256",
          "name": "_supply",
          "type": "uint256"
        },
        {
          "internalType": "uint256",
          "name": "_reserveBalance",
          "type": "uint256"
        },
        {
          "internalType": "uint32",
          "name": "_reserveRatio",
          "type": "uint32"
        },
        {
          "internalType": "uint256",
          "name": "_amount",
          "type": "uint256"
        }
      ],
      "name": "liquidateRate",
      "outputs": [
        {
          "internalType": "uint256",
          "name": "",
          "type": "uint256"
        }
      ],
      "stateMutability": "view",
      "type": "function"
    },
    {
      "inputs": [
        {
          "internalType": "uint256",
          "name": "_supply",
          "type": "uint256"
        },
        {
          "internalType": "uint256",
          "name": "_reserveBalance",
          "type": "uint256"
        },
        {
          "internalType": "uint32",
          "name": "_reserveRatio",
          "type": "uint32"
        },
        {
          "internalType": "uint256",
          "name": "_amount",
          "type": "uint256"
        }
      ],
      "name": "liquidateReserveAmount",
      "outputs": [
        {
          "internalType": "uint256",
          "name": "",
          "type": "uint256"
        }
      ],
      "stateMutability": "view",
      "type": "function"
    },
    {
      "inputs": [
        {
          "internalType": "uint256",
          "name": "_supply",
          "type": "uint256"
        },
        {
          "internalType": "uint256",
          "name": "_reserveBalance",
          "type": "uint256"
        },
        {
          "internalType": "uint32",
          "name": "_reserveWeight",
          "type": "uint32"
        },
        {
          "internalType": "uint256",
          "name": "_amount",
          "type": "uint256"
        }
      ],
      "name": "purchaseRate",
      "outputs": [
        {
          "internalType": "uint256",
          "name": "",
          "type": "uint256"
        }
      ],
      "stateMutability": "view",
      "type": "function"
    },
    {
      "inputs": [
        {
          "internalType": "uint256",
          "name": "_supply",
          "type": "uint256"
        },
        {
          "internalType": "uint256",
          "name": "_reserveBalance",
          "type": "uint256"
        },
        {
          "internalType": "uint32",
          "name": "_reserveWeight",
          "type": "uint32"
        },
        {
          "internalType": "uint256",
          "name": "_amount",
          "type": "uint256"
        }
      ],
      "name": "purchaseTargetAmount",
      "outputs": [
        {
          "internalType": "uint256",
          "name": "",
          "type": "uint256"
        }
      ],
      "stateMutability": "view",
      "type": "function"
    },
    {
      "inputs": [
        {
          "internalType": "uint256",
          "name": "_supply",
          "type": "uint256"
        },
        {
          "internalType": "uint256",
          "name": "_reserveBalance",
          "type": "uint256"
        },
        {
          "internalType": "uint32",
          "name": "_reserveWeight",
          "type": "uint32"
        },
        {
          "internalType": "uint256",
          "name": "_amount",
          "type": "uint256"
        }
      ],
      "name": "saleRate",
      "outputs": [
        {
          "internalType": "uint256",
          "name": "",
          "type": "uint256"
        }
      ],
      "stateMutability": "view",
      "type": "function"
    },
    {
      "inputs": [
        {
          "internalType": "uint256",
          "name": "_supply",
          "type": "uint256"
        },
        {
          "internalType": "uint256",
          "name": "_reserveBalance",
          "type": "uint256"
        },
        {
          "internalType": "uint32",
          "name": "_reserveWeight",
          "type": "uint32"
        },
        {
          "internalType": "uint256",
          "name": "_amount",
          "type": "uint256"
        }
      ],
      "name": "saleTargetAmount",
      "outputs": [
        {
          "internalType": "uint256",
          "name": "",
          "type": "uint256"
        }
      ],
      "stateMutability": "view",
      "type": "function"
    }
  ],
  "bytecode": "0x608060405234801561001057600080fd5b50613df4806100206000396000f3fe608060405234801561001057600080fd5b50600436106101365760003560e01c80638074590a116100b2578063abfd231d11610081578063ebbb215811610066578063ebbb2158146103a2578063f3250fe2146103d7578063f732f1c91461022157610136565b8063abfd231d146101ec578063e1c7392a1461039857610136565b80638074590a146102c857806394491fab146102fd5780639d11410814610256578063a11aa1b41461033a57610136565b806348d73fed1161010957806365098bb3116100ee57806365098bb31461025657806376cf0b561461029357806379c1b4501461025657610136565b806348d73fed1461018257806349f9b0f71461022157610136565b80631da6bbfb1461013b57806329a00e7c146101825780632f55bdb5146101b757806335b49af4146101ec575b600080fd5b6101706004803603608081101561015157600080fd5b5080359060208101359063ffffffff604082013516906060013561040c565b60408051918252519081900360200190f35b6101706004803603608081101561019857600080fd5b5080359060208101359063ffffffff6040820135169060600135610425565b610170600480360360808110156101cd57600080fd5b5080359060208101359063ffffffff6040820135169060600135610433565b6101706004803603608081101561020257600080fd5b5080359060208101359063ffffffff60408201351690606001356105c1565b6101706004803603608081101561023757600080fd5b5080359060208101359063ffffffff60408201351690606001356105cf565b610170600480360360a081101561026c57600080fd5b5080359063ffffffff602082013581169160408101359160608201351690608001356105dd565b610170600480360360808110156102a957600080fd5b5080359060208101359063ffffffff60408201351690606001356105f8565b610170600480360360808110156102de57600080fd5b5080359060208101359063ffffffff60408201351690606001356107de565b610170600480360360a081101561031357600080fd5b5080359063ffffffff6020820135811691604081013591606082013516906080013561097b565b61036f600480360360a081101561035057600080fd5b5080359060208101359060408101359060608101359060800135610afc565b604051808363ffffffff1681526020018263ffffffff1681526020019250505060405180910390f35b6103a0610ca8565b005b610170600480360360808110156103b857600080fd5b5080359060208101359063ffffffff6040820135169060600135610cba565b610170600480360360808110156103ed57600080fd5b5080359060208101359063ffffffff6040820135169060600135610e55565b600061041a85858585610cba565b90505b949350505050565b600061041a85858585610e55565b600080851161047e576040805162461bcd60e51b81526020600482015260126024820152714552525f494e56414c49445f535550504c5960701b604482015290519081900360640190fd5b600084116104d3576040805162461bcd60e51b815260206004820152601b60248201527f4552525f494e56414c49445f524553455256455f42414c414e43450000000000604482015290519081900360640190fd5b60018363ffffffff161180156104f25750621e848063ffffffff841611155b610543576040805162461bcd60e51b815260206004820152601960248201527f4552525f494e56414c49445f524553455256455f524154494f00000000000000604482015290519081900360640190fd5b816105505750600061041d565b63ffffffff8316620f4240141561057b578361056c8387610f9c565b8161057357fe5b04905061041d565b600080806105898786611003565b905061059a818888620f424061104c565b9093509150600060ff83166105af8a86610f9c565b901c9890980398975050505050505050565b600061041a858585856107de565b600061041a858585856105f8565b60006105ec868686868661097b565b90505b95945050505050565b6000808511610643576040805162461bcd60e51b81526020600482015260126024820152714552525f494e56414c49445f535550504c5960701b604482015290519081900360640190fd5b60008411610698576040805162461bcd60e51b815260206004820152601b60248201527f4552525f494e56414c49445f524553455256455f42414c414e43450000000000604482015290519081900360640190fd5b60008363ffffffff161180156106b75750620f424063ffffffff841611155b610708576040805162461bcd60e51b815260206004820152601a60248201527f4552525f494e56414c49445f524553455256455f574549474854000000000000604482015290519081900360640190fd5b8482111561075d576040805162461bcd60e51b815260206004820152601260248201527f4552525f494e56414c49445f414d4f554e540000000000000000000000000000604482015290519081900360640190fd5b8161076a5750600061041d565b8482141561077957508261041d565b63ffffffff8316620f42401415610795578461056c8584610f9c565b6000808387036107aa8882620f42408961104c565b909350915060006107bb8885610f9c565b905060ff831688901b84818303816107cf57fe5b049a9950505050505050505050565b6000808511610829576040805162461bcd60e51b81526020600482015260126024820152714552525f494e56414c49445f535550504c5960701b604482015290519081900360640190fd5b6000841161087e576040805162461bcd60e51b815260206004820152601b60248201527f4552525f494e56414c49445f524553455256455f42414c414e43450000000000604482015290519081900360640190fd5b60018363ffffffff1611801561089d5750621e848063ffffffff841611155b6108ee576040805162461bcd60e51b815260206004820152601960248201527f4552525f494e56414c49445f524553455256455f524154494f00000000000000604482015290519081900360640190fd5b84821115610943576040805162461bcd60e51b815260206004820152601260248201527f4552525f494e56414c49445f414d4f554e540000000000000000000000000000604482015290519081900360640190fd5b816109505750600061041d565b8482141561095f57508261041d565b63ffffffff8316620f42401415610795578461056c8386610f9c565b6000808611801561098c5750600084115b6109dd576040805162461bcd60e51b815260206004820152601b60248201527f4552525f494e56414c49445f524553455256455f42414c414e43450000000000604482015290519081900360640190fd5b60008563ffffffff161180156109fc5750620f424063ffffffff861611155b8015610a0e575060008363ffffffff16115b8015610a235750620f424063ffffffff841611155b610a74576040805162461bcd60e51b815260206004820152601a60248201527f4552525f494e56414c49445f524553455256455f574549474854000000000000604482015290519081900360640190fd5b8263ffffffff168563ffffffff161415610aab57610a928683611003565b610a9c8584610f9c565b81610aa357fe5b0490506105ef565b60008080610ab98986611003565b9050610ac7818a8a8961104c565b90935091506000610ad88885610f9c565b905060ff831688901b8481830381610aec57fe5b049b9a5050505050505050505050565b60008085871415610b6c576000871180610b165750600085115b610b67576040805162461bcd60e51b815260206004820152601b60248201527f4552525f494e56414c49445f524553455256455f42414c414e43450000000000604482015290519081900360640190fd5b610bd9565b600087118015610b7c5750600086115b8015610b885750600085115b610bd9576040805162461bcd60e51b815260206004820152601b60248201527f4552525f494e56414c49445f524553455256455f42414c414e43450000000000604482015290519081900360640190fd5b600084118015610be95750600083115b610c3a576040805162461bcd60e51b815260206004820152601860248201527f4552525f494e56414c49445f524553455256455f524154450000000000000000604482015290519081900360640190fd5b6000610c468886610f9c565b90506000610c548786610f9c565b905087891015610c7757610c6c888a8484600161112b565b935093505050610c9e565b87891115610c8d57610c6c89898484600061112b565b610c9782826111f4565b9350935050505b9550959350505050565b610cb061122c565b610cb8611a02565b565b6000808511610d05576040805162461bcd60e51b81526020600482015260126024820152714552525f494e56414c49445f535550504c5960701b604482015290519081900360640190fd5b60008411610d5a576040805162461bcd60e51b815260206004820152601b60248201527f4552525f494e56414c49445f524553455256455f42414c414e43450000000000604482015290519081900360640190fd5b60018363ffffffff16118015610d795750621e848063ffffffff841611155b610dca576040805162461bcd60e51b815260206004820152601960248201527f4552525f494e56414c49445f524553455256455f524154494f00000000000000604482015290519081900360640190fd5b81610dd75750600061041d565b63ffffffff8316620f42401415610e0857846001610df58487610f9c565b0381610dfd57fe5b04600101905061041d565b60008080610e168886611003565b9050610e278189620f42408961104c565b9093509150600060ff83166001610e3e8a87610f9c565b03901c889003600101945050505050949350505050565b6000808511610ea0576040805162461bcd60e51b81526020600482015260126024820152714552525f494e56414c49445f535550504c5960701b604482015290519081900360640190fd5b60008411610ef5576040805162461bcd60e51b815260206004820152601b60248201527f4552525f494e56414c49445f524553455256455f42414c414e43450000000000604482015290519081900360640190fd5b60008363ffffffff16118015610f145750620f424063ffffffff841611155b610f65576040805162461bcd60e51b815260206004820152601a60248201527f4552525f494e56414c49445f524553455256455f574549474854000000000000604482015290519081900360640190fd5b81610f725750600061041d565b63ffffffff8316620f42401415610f8e578361056c8684610f9c565b600080806105898588611003565b600082610fab57506000610ffd565b82820282848281610fb857fe5b0414610ffa576040805162461bcd60e51b815260206004820152600c60248201526b4552525f4f564552464c4f5760a01b604482015290519081900360640190fd5b90505b92915050565b600082820183811015610ffa576040805162461bcd60e51b815260206004820152600c60248201526b4552525f4f564552464c4f5760a01b604482015290519081900360640190fd5b600080600160811b861061105f57600080fd5b600080866001607f1b89028161107157fe5b04905070015bf0a8b1457695355fb8ac404e7a79e381101561109d5761109681612409565b91506110a9565b6110a6816128a9565b91505b60008563ffffffff168763ffffffff168402816110c257fe5b0490507008000000000000000000000000000000008110156110f5576110e781612954565b607f94509450505050611122565b600061110082612d29565b905061111581607f0360ff1683901c82612db9565b9550935061112292505050565b94509492505050565b6000806111388585613153565b909550935060008661114e896001607f1b610f9c565b8161115557fe5b049050600070015bf0a8b1457695355fb8ac404e7a79e382106111805761117b826128a9565b611189565b61118982612409565b9050600086611198838a610f9c565b8161119f57fe5b0490506000866111b7576111b282613206565b6111c0565b6111c08261325f565b90506111e26111cf828b610f9c565b6111dd8a6001607f1b610f9c565b6111f4565b95509550505050509550959350505050565b6000808284116112115761120884846132c3565b91509150611225565b60008061121e85876132c3565b9450925050505b9250929050565b701c35fedd14ffffffffffffffffffffffff602055701b0ce43b323fffffffffffffffffffffff6021557019f0028ec1ffffffffffffffffffffffff6022557018ded91f0e7fffffffffffffffffffffff6023557017d8ec7f0417ffffffffffffffffffffff6024557016ddc6556cdbffffffffffffffffffffff6025557015ecf52776a1ffffffffffffffffffffff6026557015060c256cb2ffffffffffffffffffffff602755701428a2f98d72ffffffffffffffffffffff6028557013545598e5c23fffffffffffffffffffff602955701288c4161ce1dfffffffffffffffffffff602a557011c592761c666fffffffffffffffffffff602b5570110a688680a757ffffffffffffffffffff602c55701056f1b5bedf77ffffffffffffffffffff602d55700faadceceeff8bffffffffffffffffffff602e55700f05dc6b27edadffffffffffffffffffff602f55700e67a5a25da4107fffffffffffffffffff603055700dcff115b14eedffffffffffffffffffff603155700d3e7a392431239fffffffffffffffffff603255700cb2ff529eb71e4fffffffffffffffffff603355700c2d415c3db974afffffffffffffffffff603455700bad03e7d883f69bffffffffffffffffff603555700b320d03b2c343d5ffffffffffffffffff603655700abc25204e02828dffffffffffffffffff603755700a4b16f74ee4bb207fffffffffffffffff6038557009deaf736ac1f569ffffffffffffffffff603955700976bd9952c7aa957fffffffffffffffff603a557009131271922eaa606fffffffffffffffff603b557008b380f3558668c46fffffffffffffffff603c55700857ddf0117efa215bffffffffffffffff603d557007ffffffffffffffffffffffffffffffff603e557007abbf6f6abb9d087fffffffffffffffff603f5570075af62cbac95f7dfa7fffffffffffffff60405570070d7fb7452e187ac13fffffffffffffff6041557006c3390ecc8af379295fffffffffffffff60425570067c00a3b07ffc01fd6fffffffffffffff604355700637b647c39cbb9d3d27ffffffffffffff6044557005f63b1fc104dbd39587ffffffffffffff6045557005b771955b36e12f7235ffffffffffffff60465570057b3d49dda84556d6f6ffffffffffffff60475570054183095b2c8ececf30ffffffffffffff60485570050a28be635ca2b888f77fffffffffffff6049557004d5156639708c9db33c3fffffffffffff604a557004a23105873875bd52dfdfffffffffffff604b55700471649d87199aa990756fffffffffffff604c557004429a21a029d4c1457cfbffffffffffff604d55700415bc6d6fb7dd71af2cb3ffffffffffff604e557003eab73b3bbfe282243ce1ffffffffffff604f557003c1771ac9fb6b4c18e229ffffffffffff605055700399e96897690418f785257fffffffffff605155700373fc456c53bb779bf0ea9fffffffffff60525570034f9e8e490c48e67e6ab8bfffffffffff60535570032cbfd4a7adc790560b3337ffffffffff60545570030b50570f6e5d2acca94613ffffffffff6055557002eb40f9f620fda6b56c2861ffffffffff6056557002cc8340ecb0d0f520a6af58ffffffffff6057557002af09481380a0a35cf1ba02ffffffffff605855700292c5bdd3b92ec810287b1b3fffffffff605955700277abdcdab07d5a77ac6d6b9fffffffff605a5570025daf6654b1eaa55fd64df5efffffffff605b55700244c49c648baa98192dce88b7ffffffff605c5570022ce03cd5619a311b2471268bffffffff605d55700215f77c045fbe885654a44a0fffffffff605e557001ffffffffffffffffffffffffffffffff605f557001eaefdbdaaee7421fc4d3ede5ffffffff6060557001d6bd8b2eb257df7e8ca57b09bfffffff6061557001c35fedd14b861eb0443f7f133fffffff6062557001b0ce43b322bcde4a56e8ada5afffffff60635570019f0028ec1fff007f5a195a39dfffffff60645570018ded91f0e72ee74f49b15ba527ffffff60655570017d8ec7f04136f4e5615fd41a63ffffff60665570016ddc6556cdb84bdc8d12d22e6fffffff60675570015ecf52776a1155b5bd8395814f7fffff60685570015060c256cb23b3b3cc3754cf40ffffff6069557001428a2f98d728ae223ddab715be3fffff606a5570013545598e5c23276ccf0ede68034fffff606b557001288c4161ce1d6f54b7f61081194fffff606c5570011c592761c666aa641d5a01a40f17ffff606d55700110a688680a7530515f3e6e6cfdcdffff606e557001056f1b5bedf75c6bcb2ce8aed428ffff606f556ffaadceceeff8a0890f3875f008277fff6070556ff05dc6b27edad306388a600f6ba0bfff6071556fe67a5a25da41063de1495d5b18cdbfff6072556fdcff115b14eedde6fc3aa5353f2e4fff6073556fd3e7a3924312399f9aae2e0f868f8fff6074556fcb2ff529eb71e41582cccd5a1ee26fff6075556fc2d415c3db974ab32a51840c0b67edff6076556fbad03e7d883f69ad5b0a186184e06bff6077556fb320d03b2c343d4829abd6075f0cc5ff6078556fabc25204e02828d73c6e80bcdb1a95bf6079556fa4b16f74ee4bb2040a1ec6c15fbbf2df607a556f9deaf736ac1f569deb1b5ae3f36c130f607b556f976bd9952c7aa957f5937d790ef65037607c556f9131271922eaa6064b73a22d0bd4f2bf607d556f8b380f3558668c46c91c49a2f8e967b9607e556f857ddf0117efa215952912839f6473e66000607f5b0155565b6f60e393c68d20b1bd09deaabc0373b9c560809081556f5f8f46e4854120989ed94719fb4c20116081556f5e479ebb9129fb1b7e72a648f992b6066082556f5d0bd23fe42dfedde2e9586be12b85fe6083556f5bdb29ddee979308ddfca81aeeb8095a6084556f5ab4fd8a260d2c7e2c0d2afcf0009dad6085556f5998b31359a55d48724c65cf090012216086556f5885bcad2b322dfc43e8860f9c018cf56087556f577b97aa1fe222bb452fdf111b1f0be26088556f5679cb5e3575632e5baa27e2b949f7046089556f557fe8241b3a31c83c732f1cdff4a1c5608a556f548d868026504875d6e59bbe95fc2a6b608b556f53a2465ce347cf34d05a867c17dd3088608c556f52bdce5dcd4faed59c7f5511cf8f8acc608d556f51dfcb453c07f8da817606e7885f7c3e608e556f5107ef6b0a5a2be8f8ff15590daa3cce608f556f5035f241d6eae0cd7bacba119993de7b6090556f4f698fe90d5b53d532171e1210164c666091556f4ea288ca297a0e6a09a0eee240e16c856092556f4de0a13fdcf5d4213fc398ba6e3becde6093556f4d23a145eef91fec06b06140804c48086094556f4c6b5430d4c1ee5526473db4ae0f11de6095556f4bb7886c240562eba11f4963a53b42406096556f4b080f3f1cb491d2d521e0ea4583521e6097556f4a5cbc96a05589cb4d86be1db31683646098556f49b566d40243517658d78c33162d6ece6099556f4911e6a02e5507a30f947383fd9a3276609a556f487216c2b31be4adc41db8a8d5cc0c88609b556f47d5d3fc4a7a1b188cd3d788b5c5e9fc609c556f473cfce4871a2c40bc4f9e1c32b955d0609d556f46a771ca578ab878485810e285e31c67609e556f4615149718aed4c258c373dc676aa72d609f556f4585c8b3f8fe489c6e1833ca4787138460a0556f44f972f174e41e5efb7e9d63c29ce73560a1556f446ff970ba86d8b00beb05ecebf3c4dc60a2556f43e9438ec88971812d6f198b5ccaad9660a3556f436539d11ff7bea657aeddb394e809ef60a4556f42e3c5d3e5a913401d86f66db5d81c2c60a5556f4264d2395303070ea726cbe98df6217460a6556f41e84a9a593bb7194c3a6349ecae4eea60a7556f416e1b785d13eba07a08f3f18876a5ab60a8556f40f6322ff389d423ba9dd7e7e7b7e80960a9556f40807cec8a466880ecf4184545d240a460aa556f400cea9ce88a8d3ae668e8ea0d9bf07f60ab556f3f9b6ae8772d4c55091e0ed7dfea0ac160ac556f3f2bee253fd84594f54bcaafac383a1360ad556f3ebe654e95208bb9210c575c081c595860ae556f3e52c1fc5665635b78ce1f05ad53c08660af556f3de8f65ac388101ddf718a6f5c1eff6560b0556f3d80f522d59bd0b328ca012df4cd2d4960b1556f3d1ab193129ea72b23648a161163a85a60b2556f3cb61f68d32576c135b95cfb53f76d7560b3556f3c5332d9f1aae851a3619e77e4cc847360b4556f3bf1e08edbe2aa109e1525f65759ef7360b5556f3b921d9cff13fa2c197746a3dfc4918f60b6556f3b33df818910bfc1a5aefb8f63ae2ac460b7556f3ad71c1c77e34fa32a9f184967eccbf660b8556f3a7bc9abf2c5bb53e2f7384a8a16521a60b9556f3a21dec7e76369783a68a0c6385a1c5760ba556f39c9525de6c9cdf7c1c157ca4a7a6ee360bb556f39721bad3dc85d1240ff0190e0adaac360bc556f391c324344d3248f0469eb28dd3d77e060bd556f38c78df7e3c796279fb4ff84394ab3da60be556f387426ea4638ae9aae08049d3554c20a60bf556f3821f57dbd2763256c1a99bbd205137860c0556f37d0f256cb46a8c92ff62fbbef28969860c1556f37811658591ffc7abdd1feaf3cef9b7360c2556f37325aa10e9e82f7df0f380f7997154b60c3556f36e4b888cfb408d873b9a80d439311c660c4556f3698299e59f4bb9de645fc9b08c64cca60c5556f364ca7a5012cb603023b57dd3ebfd50d60c6556f36022c928915b778ab1b06aaee7e61d460c7556f35b8b28d1a73dc27500ffe35559cc02860c8556f357033e951fe250ec5eb4e60955132d760c9556f3528ab2867934e3a21b5412e4c4f888160ca556f34e212f66c55057f9676c80094a61d5960cb556f349c66289e5b3c4b540c24f42fa4b9bb60cc556f34579fbbd0c733a9c8d6af6b0f7d00f760cd556f3413bad2e712288b924b5882b5b369bf60ce556f33d0b2b56286510ef730e213f71f12e960cf556f338e82ce00e2496262c64457535ba1a160d0556f334d26a96b373bb7c2f8ea1827f27a9260d1556f330c99f4f4211469e00b3e18c31475ea60d2556f32ccd87d6486094999c7d5e6f33237d860d3556f328dde2dd617b6665a2e8556f250c1af60d4556f324fa70e9adc270f8262755af5a99af960d5556f32122f443110611ca51040f41fa6e1e360d6556f31d5730e42c0831482f0f1485c4263d860d7556f31996ec6b07b4a83421b5ebc4ab4e1f160d8556f315e1ee0a68ff46bb43ec2b85032e87660d9556f31237fe7bc4deacf6775b9efa1a145f860da556f30e98e7f1cc5a356e44627a6972ea2ff60db556f30b04760b8917ec74205a3002650ec0560dc556f3077a75c803468e9132ce0cf3224241d60dd556f303fab57a6a275c36f19cda9bace667a60de556f3008504beb8dcbd2cf3bc1f6d5a064f060df556f2fd19346ed17dac61219ce0c2c5ac4b060e0556f2f9b7169808c324b5852fd3d54ba971460e1556f2f65e7e711cf4b064eea9c08cbdad57460e2556f2f30f405093042ddff8a251b6bf6d10360e3556f2efc931a3750f2e8bfe323edfe03757460e4556f2ec8c28e46dbe56d98685278339400cb60e5556f2e957fd933c3926d8a599b602379b85160e6556f2e62c882c7c9ed4473412702f08ba0e560e7556f2e309a221c12ba361e3ed695167feee260e8556f2dfef25d1f865ae18dd07cfea4bcea1060e9556f2dcdcee821cdc80decc02c44344aeb3160ea556f2d9d2d8562b34944d0b201bb87260c8360eb556f2d6d0c04a5b62a2c42636308669b729a60ec556f2d3d6842c9a235517fc5a0332691528f60ed556f2d0e402963fe1ea2834abc408c437c1060ee556f2cdf91ae602647908aff975e4d6a2a8c60ef556f2cb15ad3a1eb65f6d74a75da09a1b6c560f0556f2c8399a6ab8e9774d6fcff373d21072760f1556f2c564c4046f64edba6883ca06bbc453560f2556f2c2970c431f952641e05cb493e23eed360f3556f2bfd0560cd9eb14563bc7c0732856c1860f4556f2bd1084ed0332f7ff4150f9d0ef41a2c60f5556f2ba577d0fa1628b76d040b12a82492fb60f6556f2b7a5233cd21581e855e89dc2f1e8a9260f7556f2b4f95cd46904d05d72bdcde337d9cc760f8556f2b2540fc9b4d9abba3faca669191467560f9556f2afb5229f68d0830d8be8adb0a0db70f60fa556f2ad1c7c63a9b294c5bc73a3ba3ab7a2b60fb556f2aa8a04ac3cbe1ee1c9c86361465dbb860fc556f2a7fda392d725a44a2c8aeb9ab35430d60fd556f2a57741b18cde618717792b4faa216db60fe556f2a2f6c81f5d84dd950a35626d6d5503a90607f6119fe565b6000808080806fd3094c70f034de4b96ff7d5b6f99fcd8861061245e576f40000000000000000000000000000000840193506fd3094c70f034de4b96ff7d5b6f99fcd86001607f1b87028161245a57fe5b0495505b6fa45af1e1f40c333b3de1db4dd55f29a786106124ad576f20000000000000000000000000000000840193506fa45af1e1f40c333b3de1db4dd55f29a76001607f1b8702816124a957fe5b0495505b6f910b022db7ae67ce76b441c27035c6a186106124fc576f10000000000000000000000000000000840193506f910b022db7ae67ce76b441c27035c6a16001607f1b8702816124f857fe5b0495505b6f88415abbe9a76bead8d00cf112e4d4a8861061254b576f08000000000000000000000000000000840193506f88415abbe9a76bead8d00cf112e4d4a86001607f1b87028161254757fe5b0495505b6f84102b00893f64c705e841d5d4064bd3861061259a576f04000000000000000000000000000000840193506f84102b00893f64c705e841d5d4064bd36001607f1b87028161259657fe5b0495505b6f8204055aaef1c8bd5c3259f4822735a286106125e9576f02000000000000000000000000000000840193506f8204055aaef1c8bd5c3259f4822735a26001607f1b8702816125e557fe5b0495505b6f810100ab00222d861931c15e39b44e998610612638576f01000000000000000000000000000000840193506f810100ab00222d861931c15e39b44e996001607f1b87028161263457fe5b0495505b6f808040155aabbbe9451521693554f7338610612686576e800000000000000000000000000000840193506f808040155aabbbe9451521693554f7336001607f1b87028161268257fe5b0495505b7fffffffffffffffffffffffffffffffff80000000000000000000000000000000860192508291506001607f1b828002049050600160801b838103830204840193506001607f1b818302816126d757fe5b049150600160811b836faaaaaaaaaaaaaaaaaaaaaaaaaaaaaaaa038302816126fb57fe5b04840193506001607f1b8183028161270f57fe5b049150700300000000000000000000000000000000836f999999999999999999999999999999990383028161274057fe5b04840193506001607f1b8183028161275457fe5b049150700400000000000000000000000000000000836f924924924924924924924924924924920383028161278557fe5b04840193506001607f1b8183028161279957fe5b049150700500000000000000000000000000000000836f8e38e38e38e38e38e38e38e38e38e38e038302816127ca57fe5b04840193506001607f1b818302816127de57fe5b049150700600000000000000000000000000000000836f8ba2e8ba2e8ba2e8ba2e8ba2e8ba2e8b0383028161280f57fe5b04840193506001607f1b8183028161282357fe5b049150700700000000000000000000000000000000836f89d89d89d89d89d89d89d89d89d89d890383028161285457fe5b04840193506001607f1b8183028161286857fe5b049150700800000000000000000000000000000000836f888888888888888888888888888888880383028161289957fe5b049390930193505050505b919050565b600080600160801b83106128da5760006128c96001607f1b855b04613355565b60ff1693841c936001607f1b029150505b6001607f1b83111561292857607f5b60ff811615612926576001607f1b848002049350600160801b841061291d57600193841c9360ff6000198301161b91909101905b600019016128e9565b505b6f05b9de1d10bf4103d647b0955897ba806f03f80fe03f80fe03f80fe03f80fe03f88202049392505050565b6000670168244fdac780006001607f1b6f0fffffffffffffffffffffffffffffff84168080028290048082028390048083028490049485026710e1b3be415a00009092026705a0913f6b1e000091909102010192909181830204905080664807432bc1800002830192506001607f1b828202816129cd57fe5b04905080660c0135dca0400002830192506001607f1b828202816129ed57fe5b049050806601b707b1cdc00002830192506001607f1b82820281612a0d57fe5b049050806536e0f639b80002830192506001607f1b82820281612a2c57fe5b04905080650618fee9f80002830192506001607f1b82820281612a4b57fe5b04905080649c197dcc0002830192506001607f1b82820281612a6957fe5b04905080640e30dce40002830192506001607f1b82820281612a8757fe5b0490508064012ebd130002830192506001607f1b82820281612aa557fe5b049050806317499f0002830192506001607f1b82820281612ac257fe5b049050806301a9d48002830192506001607f1b82820281612adf57fe5b04905080621c638002830192506001607f1b82820281612afb57fe5b049050806201c63802830192506001607f1b82820281612b1757fe5b04905080611ab802830192506001607f1b82820281612b3257fe5b0490508061017c02830192506001607f1b82820281612b4d57fe5b04905080601402830192506001607f1b82820281612b6757fe5b6721c3677c82b400009190049384010482016001607f1b019290506f10000000000000000000000000000000851615612bc45770018ebef9eac820ae8682b9793ac6d1e7767001c3d6a24ed82218787d624d3e5eba95f984020492505b6f20000000000000000000000000000000851615612c06577001368b2fc6f9609fe7aceb46aa619baed470018ebef9eac820ae8682b9793ac6d1e77884020492505b6f40000000000000000000000000000000851615612c47576fbc5ab1b16779be3575bd8f0520a9f21f7001368b2fc6f9609fe7aceb46aa619baed584020492505b6001607f1b851615612c7b576f454aaa8efe072e7f6ddbab84b40a55c96fbc5ab1b16779be3575bd8f0520a9f21e84020492505b600160801b851615612caf576f0960aadc109e7a3bf4578099615711ea6f454aaa8efe072e7f6ddbab84b40a55c584020492505b600160811b851615612ce2576e2bf84208204f5977f9a8cf01fdce3d6f0960aadc109e7a3bf4578099615711d784020492505b700400000000000000000000000000000000851615612d20576d03c6ab775dd0b95b4cbee7e65d116e2bf84208204f5977f9a8cf01fdc30784020492505b50909392505050565b60006020607f5b8060ff168260010160ff161015612d78576000600260ff848401160490508460008260ff1660808110612d5f57fe5b015410612d6e57809250612d72565b8091505b50612d30565b8360008260ff1660808110612d8957fe5b015410612d995791506128a49050565b8360008360ff1660808110612daa57fe5b015410610136575090506128a4565b60008083905060008360ff16858302901c9150816f03442c4e6074a82f1797f72ac000000002810190508360ff16858302901c9150816f0116b96f757c380fb287fd0e4000000002810190508360ff16858302901c9150816e45ae5bdd5f0e03eca1ff439000000002810190508360ff16858302901c9150816e0defabf91302cd95b9ffda5000000002810190508360ff16858302901c9150816e02529ca9832b22439efff9b800000002810190508360ff16858302901c9150816d54f1cf12bd04e516b6da8800000002810190508360ff16858302901c9150816d0a9e39e257a09ca2d6db5100000002810190508360ff16858302901c9150816d012e066e7b839fa050c30900000002810190508360ff16858302901c9150816c1e33d7d926c329a1ad1a80000002810190508360ff16858302901c9150816c02bee513bdb4a6b19b5f80000002810190508360ff16858302901c9150816b3a9316fa79b88eccf2a0000002810190508360ff16858302901c9150816b048177ebe1fa81237520000002810190508360ff16858302901c9150816a5263fe90242dcbacf0000002810190508360ff16858302901c9150816a057e22099c030d9410000002810190508360ff16858302901c9150816957e22099c030d941000002810190508360ff16858302901c91508169052b6b5456997631000002810190508360ff16858302901c915081684985f67696bf74800002810190508360ff16858302901c9150816803dea12ea99e49800002810190508360ff16858302901c9150816731880f2214b6e00002810190508360ff16858302901c91508167025bcff56eb3600002810190508360ff16858302901c915081661b722e10ab100002810190508360ff16858302901c9150816601317c7007700002810190508360ff16858302901c915081650cba84aafa0002810190508360ff16858302901c9150816482573a0a0002810190508360ff16858302901c9150816405035ad90002810190508360ff16858302901c915081632f881b0002810190508360ff16858302901c9150816301b2934002810190508360ff16858302901c915081620efc4002810190508360ff16858302901c915081617fe002810190508360ff16858302901c91508161042002810190508360ff16858302901c915081602102810190508360ff16858302901c915081600102810190508360ff166001901b856f0688589cc0e9505e2f2fee5580000000838161314757fe5b04010195945050505050565b600080600160801b841115801561316e5750600160801b8311155b1561317d575082905081611225565b600160801b8410156131a75782600160801b85028161319857fe5b04600160801b91509150611225565b600160801b8310156131d157600160801b84600160801b8502816131c757fe5b0491509150611225565b60008385116131e057836131e2565b845b905060006131f46001607f1b836128c3565b60ff1695861c969490951c9450505050565b60006f2f16ac6c59de6f8d5d6f63c1482a7c86821161322f57613228826133b6565b90506128a4565b817f40000000000000000000000000000000000000000000000000000000000000008161325857fe5b0492915050565b60006f2f16ac6c59de6f8d5d6f63c1482a7c8682116132815761322882613809565b7001af16ac6c59de6f8d5d6f63c1482a7c8082116132a25761322882613c7a565b706b22d43e72c326539cceeef8bb48f255ff82116101365761322882613d09565b6000807d10c6f7a0b5ed8d36b4c7f34938583621fafc8b0079a2834d26fa3fcc9ea984111561332a5760017d10c6f7a0b5ed8d36b4c7f34938583621fafc8b0079a2834d26fa3fcc9eaa85040180858161331957fe5b04945080848161332557fe5b049350505b6000613344620f4240860261333f8787611003565b613d92565b95620f424087900395509350505050565b60008061010083101561337d575b600183111561337857600192831c9201613363565b610ffd565b60805b60ff8116156133af57600160ff82161b84106133a45760ff81169390931c92908117905b60011c607f16613380565b5092915050565b600081816001607f1b82800204915070014d29a73a6e7b02c3668c7b08800000008202016001607f1b8483020491507002504a0cd9a7f7215b60f9be48000000008202016001607f1b848302049150700484d0a1191c0ead267967c7a4a00000008202016001607f1b84830204915070095ec580d7e8427a4baf26a90a000000008202016001607f1b848302049150701440b0be1615a47dba6e5b3b1f100000008202016001607f1b848302049150702d207601f46a99b41124184000000000008202016001607f1b8483020491507066ebaac4c37c622dd8288a7eb1b20000008202016001607f1b84830204915070ef17240135f7dbd43a1ba10cf2000000008202016001607f1b848302049150710233c33c676a5eb2416094a87b36570000008202016001607f1b848302049150710541cde48bc0254bed49a9f87000000000008202016001607f1b848302049150710cae1fad2cdd4d4cb8d73abca0d19a4000008202016001607f1b848302049150711edb2aa2f760d15c41ceedba9564000000008202016001607f1b848302049150714ba8d20d2dabd386c9529659841a2e2000008202016001607f1b84830204915071bac08546b867cdaa200000000000000000008202016001607f1b8483020491507201cfa8e70c03625b9db76c8ebf5bbf248200008202016001607f1b8483020491507204851d99f82060df265f3309b26f82000000008202016001607f1b848302049150720b550d19b129d270c44f6f55f027723cbb00008202016001607f1b848302049150721c877dadc761dc272deb65d4b00000000000008202016001607f1b8483020491507248178ece97479f33a77f2ad22a81b64406c0008202016001607f1b84830204915072b6ca8268b9d810fedf6695ef2f8a6c000000008202016001607f1b8483020491507301d0e76631a5b05d007b8cb72a7c7f11ec36e0008202016001607f1b8483020491507304a1c37bd9f85fd9c6c7800000000000000000008202016001607f1b848302049150730bd8369f1b702bf491e2ebfcee08250313b654008202016001607f1b848302049150731e5c7c32a9f6c70ab2cb59d9225764d4000000008202016001607f1b848302049150734dff5820e165e910f95120a708e742496221e6008202016001607f1b84830204915073c8c8f66db1fced378ee50e5360000000000000008202016001607f1b848302049150740205db8dffff45bfa2938f128f599dbf16eb11d8808202016001607f1b84830204915074053a044ebd984351493e1786af38d39a08000000008202016001607f1b848302049150740d86dae2a4cc0f47633a544479735869b487b59c408202016001607f1b848302049150610231609c1b8202016001607f1b848302049150745b0485a76f6646c2039db1507cdd51b086496808228202016001607f1b84830204915074ec983c46c49545bc17efa6b5b0055e2422000000008202016001607f1b846fde1bc4d19efcac82445da75b0000000083040101949350505050565b6000816001607f1b8181036fde1bc4d19efcac82445da75b00000000029082800204915070014d29a73a6e7b02c3668c7b08800000008202016001607f1b8483020491507002504a0cd9a7f7215b60f9be4800000000820290036001607f1b848302049150700484d0a1191c0ead267967c7a4a00000008202016001607f1b84830204915070095ec580d7e8427a4baf26a90a00000000820290036001607f1b848302049150701440b0be1615a47dba6e5b3b1f100000008202016001607f1b848302049150702d207601f46a99b4112418400000000000820290036001607f1b8483020491507066ebaac4c37c622dd8288a7eb1b20000008202016001607f1b84830204915070ef17240135f7dbd43a1ba10cf200000000820290036001607f1b848302049150710233c33c676a5eb2416094a87b36570000008202016001607f1b848302049150710541cde48bc0254bed49a9f8700000000000820290036001607f1b848302049150710cae1fad2cdd4d4cb8d73abca0d19a4000008202016001607f1b848302049150711edb2aa2f760d15c41ceedba956400000000820290036001607f1b848302049150714ba8d20d2dabd386c9529659841a2e2000008202016001607f1b84830204915071bac08546b867cdaa20000000000000000000820290036001607f1b8483020491507201cfa8e70c03625b9db76c8ebf5bbf248200008202016001607f1b8483020491507204851d99f82060df265f3309b26f8200000000820290036001607f1b848302049150720b550d19b129d270c44f6f55f027723cbb00008202016001607f1b848302049150721c877dadc761dc272deb65d4b0000000000000820290036001607f1b8483020491507248178ece97479f33a77f2ad22a81b64406c0008202016001607f1b84830204915072b6ca8268b9d810fedf6695ef2f8a6c00000000820290036001607f1b8483020491507301d0e76631a5b05d007b8cb72a7c7f11ec36e0008202016001607f1b8483020491507304a1c37bd9f85fd9c6c780000000000000000000820290036001607f1b848302049150730bd8369f1b702bf491e2ebfcee08250313b654008202016001607f1b848302049150731e5c7c32a9f6c70ab2cb59d9225764d400000000820290036001607f1b848302049150734dff5820e165e910f95120a708e742496221e6008202016001607f1b84830204915073c8c8f66db1fced378ee50e536000000000000000820290036001607f1b848302049150740205db8dffff45bfa2938f128f599dbf16eb11d8808202016001607f1b84830204915074053a044ebd984351493e1786af38d39a0800000000820290036001607f1b848302049150740d86dae2a4cc0f47633a544479735869b487b59c408202016001607f1b848302049150610231609c1b820290036001607f1b848302049150745b0485a76f6646c2039db1507cdd51b086496808228202016001607f1b84830204915074ec983c46c49545bc17efa6b5b0055e242200000000820290036fde1bc4d19efcac82445da75b00000000815b04949350505050565b60007fffffffffffffffffffffffffffffffffd0e95393a6219072a2909c3eb7d5837982016f03060c183060c183060c183060c183068082049081810290600183010284608084818110613cca57fe5b01549050600060808560010160808110613ce057fe5b01546f03060c183060c183060c183060c183069487030295909203029390930104949350505050565b60008070015bf0a8b1457695355fb8ac404e7a79e38310613d3257613d2d836128a9565b613d3b565b613d3b83612409565b9050600070015bf0a8b1457695355fb8ac404e7a79e38210613d6557613d60826128a9565b613d6e565b613d6e82612409565b9050836001607f1b836001607f1b840281613d8557fe5b04838503010281613c7157fe5b6000600282048203828481613da357fe5b0681613dab57fe5b04828481613db557fe5b0401939250505056fea2646970667358221220acc1c3e516d2b427b81e1a6b2aac56b5d5179b6d24a66ffcd8a8f96c7d6d956064736f6c634300060c0033",
  "linkReferences": {},
  "deployedLinkReferences": {}
}