{
  "_format": "hh-sol-artifact-1",
  "contractName": "DynamicLiquidTokenConverterProxyable",
  "sourceName": "contracts/bancor/converter/types/liquid-token/DynamicLiquidTokenConverterProxyable.sol",
  "abi": [
    {
      "anonymous": false,
      "inputs": [
        {
          "indexed": true,
          "internalType": "uint16",
          "name": "_type",
          "type": "uint16"
        },
        {
          "indexed": true,
          "internalType": "contract IConverterAnchor",
          "name": "_anchor",
          "type": "address"
        },
        {
          "indexed": true,
          "internalType": "bool",
          "name": "_activated",
          "type": "bool"
        }
      ],
      "name": "Activation",
      "type": "event"
    },
    {
      "anonymous": false,
      "inputs": [
        {
          "indexed": true,
          "internalType": "contract IERC20Token",
          "name": "_fromToken",
          "type": "address"
        },
        {
          "indexed": true,
          "internalType": "contract IERC20Token",
          "name": "_toToken",
          "type": "address"
        },
        {
          "indexed": true,
          "internalType": "address",
          "name": "_trader",
          "type": "address"
        },
        {
          "indexed": false,
          "internalType": "uint256",
          "name": "_amount",
          "type": "uint256"
        },
        {
          "indexed": false,
          "internalType": "uint256",
          "name": "_return",
          "type": "uint256"
        },
        {
          "indexed": false,
          "internalType": "int256",
          "name": "_conversionFee",
          "type": "int256"
        }
      ],
      "name": "Conversion",
      "type": "event"
    },
    {
      "anonymous": false,
      "inputs": [
        {
          "indexed": false,
          "internalType": "uint32",
          "name": "_prevFee",
          "type": "uint32"
        },
        {
          "indexed": false,
          "internalType": "uint32",
          "name": "_newFee",
          "type": "uint32"
        }
      ],
      "name": "ConversionFeeUpdate",
      "type": "event"
    },
    {
      "anonymous": false,
      "inputs": [
        {
          "indexed": true,
          "internalType": "address",
          "name": "_prevOwner",
          "type": "address"
        },
        {
          "indexed": true,
          "internalType": "address",
          "name": "_newOwner",
          "type": "address"
        }
      ],
      "name": "OwnerUpdate",
      "type": "event"
    },
    {
      "anonymous": false,
      "inputs": [
        {
          "indexed": false,
          "internalType": "uint32",
          "name": "_prevWeight",
          "type": "uint32"
        },
        {
          "indexed": false,
          "internalType": "uint32",
          "name": "_newWeight",
          "type": "uint32"
        },
        {
          "indexed": false,
          "internalType": "uint256",
          "name": "_percentage",
          "type": "uint256"
        },
        {
          "indexed": false,
          "internalType": "uint256",
          "name": "_balance",
          "type": "uint256"
        }
      ],
      "name": "ReserveTokenWeightUpdate",
      "type": "event"
    },
    {
      "anonymous": false,
      "inputs": [
        {
          "indexed": true,
          "internalType": "contract IERC20Token",
          "name": "_token1",
          "type": "address"
        },
        {
          "indexed": true,
          "internalType": "contract IERC20Token",
          "name": "_token2",
          "type": "address"
        },
        {
          "indexed": false,
          "internalType": "uint256",
          "name": "_rateN",
          "type": "uint256"
        },
        {
          "indexed": false,
          "internalType": "uint256",
          "name": "_rateD",
          "type": "uint256"
        }
      ],
      "name": "TokenRateUpdate",
      "type": "event"
    },
    {
      "inputs": [
        {
          "internalType": "contract IConverterAnchor",
          "name": "_anchor",
          "type": "address"
        },
        {
          "internalType": "contract IContractRegistry",
          "name": "_registry",
          "type": "address"
        },
        {
          "internalType": "uint32",
          "name": "_maxConversionFee",
          "type": "uint32"
        }
      ],
      "name": "__ConverterBase_initialize",
      "outputs": [],
      "stateMutability": "nonpayable",
      "type": "function"
    },
    {
      "inputs": [],
      "name": "acceptAnchorOwnership",
      "outputs": [],
      "stateMutability": "nonpayable",
      "type": "function"
    },
    {
      "inputs": [],
      "name": "acceptOwnership",
      "outputs": [],
      "stateMutability": "nonpayable",
      "type": "function"
    },
    {
      "inputs": [],
      "name": "acceptTokenOwnership",
      "outputs": [],
      "stateMutability": "nonpayable",
      "type": "function"
    },
    {
      "inputs": [
        {
          "internalType": "contract IERC20Token",
          "name": "_token",
          "type": "address"
        },
        {
          "internalType": "uint32",
          "name": "_weight",
          "type": "uint32"
        }
      ],
      "name": "addReserve",
      "outputs": [],
      "stateMutability": "nonpayable",
      "type": "function"
    },
    {
      "inputs": [],
      "name": "anchor",
      "outputs": [
        {
          "internalType": "contract IConverterAnchor",
          "name": "",
          "type": "address"
        }
      ],
      "stateMutability": "view",
      "type": "function"
    },
    {
      "inputs": [],
      "name": "connectorTokenCount",
      "outputs": [
        {
          "internalType": "uint16",
          "name": "",
          "type": "uint16"
        }
      ],
      "stateMutability": "view",
      "type": "function"
    },
    {
      "inputs": [
        {
          "internalType": "uint256",
          "name": "_index",
          "type": "uint256"
        }
      ],
      "name": "connectorTokens",
      "outputs": [
        {
          "internalType": "contract IERC20Token",
          "name": "",
          "type": "address"
        }
      ],
      "stateMutability": "view",
      "type": "function"
    },
    {
      "inputs": [
        {
          "internalType": "contract IERC20Token",
          "name": "_address",
          "type": "address"
        }
      ],
      "name": "connectors",
      "outputs": [
        {
          "internalType": "uint256",
          "name": "",
          "type": "uint256"
        },
        {
          "internalType": "uint32",
          "name": "",
          "type": "uint32"
        },
        {
          "internalType": "bool",
          "name": "",
          "type": "bool"
        },
        {
          "internalType": "bool",
          "name": "",
          "type": "bool"
        },
        {
          "internalType": "bool",
          "name": "",
          "type": "bool"
        }
      ],
      "stateMutability": "view",
      "type": "function"
    },
    {
      "inputs": [],
      "name": "conversionFee",
      "outputs": [
        {
          "internalType": "uint32",
          "name": "",
          "type": "uint32"
        }
      ],
      "stateMutability": "view",
      "type": "function"
    },
    {
      "inputs": [],
      "name": "conversionWhitelist",
      "outputs": [
        {
          "internalType": "contract IWhitelist",
          "name": "",
          "type": "address"
        }
      ],
      "stateMutability": "view",
      "type": "function"
    },
    {
      "inputs": [],
      "name": "conversionsEnabled",
      "outputs": [
        {
          "internalType": "bool",
          "name": "",
          "type": "bool"
        }
      ],
      "stateMutability": "view",
      "type": "function"
    },
    {
      "inputs": [
        {
          "internalType": "contract IERC20Token",
          "name": "_sourceToken",
          "type": "address"
        },
        {
          "internalType": "contract IERC20Token",
          "name": "_targetToken",
          "type": "address"
        },
        {
          "internalType": "uint256",
          "name": "_amount",
          "type": "uint256"
        },
        {
          "internalType": "address",
          "name": "_trader",
          "type": "address"
        },
        {
          "internalType": "address payable",
          "name": "_beneficiary",
          "type": "address"
        }
      ],
      "name": "convert",
      "outputs": [
        {
          "internalType": "uint256",
          "name": "",
          "type": "uint256"
        }
      ],
      "stateMutability": "payable",
      "type": "function"
    },
    {
      "inputs": [],
      "name": "converterType",
      "outputs": [
        {
          "internalType": "uint16",
          "name": "",
          "type": "uint16"
        }
      ],
      "stateMutability": "pure",
      "type": "function"
    },
    {
      "inputs": [
        {
          "internalType": "contract IERC20Token",
          "name": "_connectorToken",
          "type": "address"
        }
      ],
      "name": "getConnectorBalance",
      "outputs": [
        {
          "internalType": "uint256",
          "name": "",
          "type": "uint256"
        }
      ],
      "stateMutability": "view",
      "type": "function"
    },
    {
      "inputs": [
        {
          "internalType": "contract IERC20Token",
          "name": "_reserveToken",
          "type": "address"
        }
      ],
      "name": "getMarketCap",
      "outputs": [
        {
          "internalType": "uint256",
          "name": "",
          "type": "uint256"
        }
      ],
      "stateMutability": "view",
      "type": "function"
    },
    {
      "inputs": [
        {
          "internalType": "contract IERC20Token",
          "name": "_sourceToken",
          "type": "address"
        },
        {
          "internalType": "contract IERC20Token",
          "name": "_targetToken",
          "type": "address"
        },
        {
          "internalType": "uint256",
          "name": "_amount",
          "type": "uint256"
        }
      ],
      "name": "getReturn",
      "outputs": [
        {
          "internalType": "uint256",
          "name": "",
          "type": "uint256"
        },
        {
          "internalType": "uint256",
          "name": "",
          "type": "uint256"
        }
      ],
      "stateMutability": "view",
      "type": "function"
    },
    {
      "inputs": [],
      "name": "hasETHReserve",
      "outputs": [
        {
          "internalType": "bool",
          "name": "",
          "type": "bool"
        }
      ],
      "stateMutability": "view",
      "type": "function"
    },
    {
      "inputs": [
        {
          "internalType": "contract IDSToken",
          "name": "_token",
          "type": "address"
        },
        {
          "internalType": "contract IContractRegistry",
          "name": "_registry",
          "type": "address"
        },
        {
          "internalType": "uint32",
          "name": "_maxConversionFee",
          "type": "uint32"
        }
      ],
      "name": "initialize",
      "outputs": [],
      "stateMutability": "nonpayable",
      "type": "function"
    },
    {
      "inputs": [],
      "name": "isActive",
      "outputs": [
        {
          "internalType": "bool",
          "name": "",
          "type": "bool"
        }
      ],
      "stateMutability": "view",
      "type": "function"
    },
    {
      "inputs": [],
      "name": "isV28OrHigher",
      "outputs": [
        {
          "internalType": "bool",
          "name": "",
          "type": "bool"
        }
      ],
      "stateMutability": "pure",
      "type": "function"
    },
    {
      "inputs": [],
      "name": "marketCapThreshold",
      "outputs": [
        {
          "internalType": "uint256",
          "name": "",
          "type": "uint256"
        }
      ],
      "stateMutability": "view",
      "type": "function"
    },
    {
      "inputs": [],
      "name": "maxConversionFee",
      "outputs": [
        {
          "internalType": "uint32",
          "name": "",
          "type": "uint32"
        }
      ],
      "stateMutability": "view",
      "type": "function"
    },
    {
      "inputs": [],
      "name": "minimumWeight",
      "outputs": [
        {
          "internalType": "uint32",
          "name": "",
          "type": "uint32"
        }
      ],
      "stateMutability": "view",
      "type": "function"
    },
    {
      "inputs": [],
      "name": "newOwner",
      "outputs": [
        {
          "internalType": "address",
          "name": "",
          "type": "address"
        }
      ],
      "stateMutability": "view",
      "type": "function"
    },
    {
      "inputs": [],
      "name": "onlyOwnerCanUpdateRegistry",
      "outputs": [
        {
          "internalType": "bool",
          "name": "",
          "type": "bool"
        }
      ],
      "stateMutability": "view",
      "type": "function"
    },
    {
      "inputs": [],
      "name": "owner",
      "outputs": [
        {
          "internalType": "address",
          "name": "",
          "type": "address"
        }
      ],
      "stateMutability": "view",
      "type": "function"
    },
    {
      "inputs": [],
      "name": "prevRegistry",
      "outputs": [
        {
          "internalType": "contract IContractRegistry",
          "name": "",
          "type": "address"
        }
      ],
      "stateMutability": "view",
      "type": "function"
    },
    {
      "inputs": [
        {
          "internalType": "contract IERC20Token",
          "name": "_reserveToken",
          "type": "address"
        }
      ],
      "name": "reduceWeight",
      "outputs": [],
      "stateMutability": "nonpayable",
      "type": "function"
    },
    {
      "inputs": [],
      "name": "registry",
      "outputs": [
        {
          "internalType": "contract IContractRegistry",
          "name": "",
          "type": "address"
        }
      ],
      "stateMutability": "view",
      "type": "function"
    },
    {
      "inputs": [
        {
          "internalType": "contract IERC20Token",
          "name": "_reserveToken",
          "type": "address"
        }
      ],
      "name": "reserveBalance",
      "outputs": [
        {
          "internalType": "uint256",
          "name": "",
          "type": "uint256"
        }
      ],
      "stateMutability": "view",
      "type": "function"
    },
    {
      "inputs": [],
      "name": "reserveRatio",
      "outputs": [
        {
          "internalType": "uint32",
          "name": "",
          "type": "uint32"
        }
      ],
      "stateMutability": "view",
      "type": "function"
    },
    {
      "inputs": [],
      "name": "reserveTokenCount",
      "outputs": [
        {
          "internalType": "uint16",
          "name": "",
          "type": "uint16"
        }
      ],
      "stateMutability": "view",
      "type": "function"
    },
    {
      "inputs": [
        {
          "internalType": "uint256",
          "name": "",
          "type": "uint256"
        }
      ],
      "name": "reserveTokens",
      "outputs": [
        {
          "internalType": "contract IERC20Token",
          "name": "",
          "type": "address"
        }
      ],
      "stateMutability": "view",
      "type": "function"
    },
    {
      "inputs": [
        {
          "internalType": "contract IERC20Token",
          "name": "_reserveToken",
          "type": "address"
        }
      ],
      "name": "reserveWeight",
      "outputs": [
        {
          "internalType": "uint32",
          "name": "",
          "type": "uint32"
        }
      ],
      "stateMutability": "view",
      "type": "function"
    },
    {
      "inputs": [
        {
          "internalType": "contract IERC20Token",
          "name": "",
          "type": "address"
        }
      ],
      "name": "reserves",
      "outputs": [
        {
          "internalType": "uint256",
          "name": "balance",
          "type": "uint256"
        },
        {
          "internalType": "uint32",
          "name": "weight",
          "type": "uint32"
        },
        {
          "internalType": "bool",
          "name": "deprecated1",
          "type": "bool"
        },
        {
          "internalType": "bool",
          "name": "deprecated2",
          "type": "bool"
        },
        {
          "internalType": "bool",
          "name": "isSet",
          "type": "bool"
        }
      ],
      "stateMutability": "view",
      "type": "function"
    },
    {
      "inputs": [],
      "name": "restoreRegistry",
      "outputs": [],
      "stateMutability": "nonpayable",
      "type": "function"
    },
    {
      "inputs": [
        {
          "internalType": "bool",
          "name": "_onlyOwnerCanUpdateRegistry",
          "type": "bool"
        }
      ],
      "name": "restrictRegistryUpdate",
      "outputs": [],
      "stateMutability": "nonpayable",
      "type": "function"
    },
    {
      "inputs": [
        {
          "internalType": "uint32",
          "name": "_conversionFee",
          "type": "uint32"
        }
      ],
      "name": "setConversionFee",
      "outputs": [],
      "stateMutability": "nonpayable",
      "type": "function"
    },
    {
      "inputs": [
        {
          "internalType": "contract IWhitelist",
          "name": "_whitelist",
          "type": "address"
        }
      ],
      "name": "setConversionWhitelist",
      "outputs": [],
      "stateMutability": "nonpayable",
      "type": "function"
    },
    {
      "inputs": [
        {
          "internalType": "uint256",
          "name": "_marketCapThreshold",
          "type": "uint256"
        }
      ],
      "name": "setMarketCapThreshold",
      "outputs": [],
      "stateMutability": "nonpayable",
      "type": "function"
    },
    {
      "inputs": [
        {
          "internalType": "uint32",
          "name": "_minimumWeight",
          "type": "uint32"
        }
      ],
      "name": "setMinimumWeight",
      "outputs": [],
      "stateMutability": "nonpayable",
      "type": "function"
    },
    {
      "inputs": [
        {
          "internalType": "uint32",
          "name": "_stepWeight",
          "type": "uint32"
        }
      ],
      "name": "setStepWeight",
      "outputs": [],
      "stateMutability": "nonpayable",
      "type": "function"
    },
    {
      "inputs": [],
      "name": "stepWeight",
      "outputs": [
        {
          "internalType": "uint32",
          "name": "",
          "type": "uint32"
        }
      ],
      "stateMutability": "view",
      "type": "function"
    },
    {
      "inputs": [
        {
          "internalType": "contract IERC20Token",
          "name": "_sourceToken",
          "type": "address"
        },
        {
          "internalType": "contract IERC20Token",
          "name": "_targetToken",
          "type": "address"
        },
        {
          "internalType": "uint256",
          "name": "_amount",
          "type": "uint256"
        }
      ],
      "name": "targetAmountAndFee",
      "outputs": [
        {
          "internalType": "uint256",
          "name": "",
          "type": "uint256"
        },
        {
          "internalType": "uint256",
          "name": "",
          "type": "uint256"
        }
      ],
      "stateMutability": "view",
      "type": "function"
    },
    {
      "inputs": [],
      "name": "token",
      "outputs": [
        {
          "internalType": "contract IConverterAnchor",
          "name": "",
          "type": "address"
        }
      ],
      "stateMutability": "view",
      "type": "function"
    },
    {
      "inputs": [
        {
          "internalType": "address",
          "name": "_newOwner",
          "type": "address"
        }
      ],
      "name": "transferAnchorOwnership",
      "outputs": [],
      "stateMutability": "nonpayable",
      "type": "function"
    },
    {
      "inputs": [
        {
          "internalType": "address",
          "name": "_newOwner",
          "type": "address"
        }
      ],
      "name": "transferOwnership",
      "outputs": [],
      "stateMutability": "nonpayable",
      "type": "function"
    },
    {
      "inputs": [
        {
          "internalType": "address",
          "name": "_newOwner",
          "type": "address"
        }
      ],
      "name": "transferTokenOwnership",
      "outputs": [],
      "stateMutability": "nonpayable",
      "type": "function"
    },
    {
      "inputs": [],
      "name": "updateRegistry",
      "outputs": [],
      "stateMutability": "nonpayable",
      "type": "function"
    },
    {
      "inputs": [],
      "name": "upgrade",
      "outputs": [],
      "stateMutability": "nonpayable",
      "type": "function"
    },
    {
      "inputs": [],
      "name": "version",
      "outputs": [
        {
          "internalType": "uint16",
          "name": "",
          "type": "uint16"
        }
      ],
      "stateMutability": "view",
      "type": "function"
    },
    {
      "inputs": [
        {
          "internalType": "address payable",
          "name": "_to",
          "type": "address"
        }
      ],
      "name": "withdrawETH",
      "outputs": [],
      "stateMutability": "nonpayable",
      "type": "function"
    },
    {
      "inputs": [
        {
          "internalType": "contract IERC20Token",
          "name": "_token",
          "type": "address"
        },
        {
          "internalType": "address",
          "name": "_to",
          "type": "address"
        },
        {
          "internalType": "uint256",
          "name": "_amount",
          "type": "uint256"
        }
      ],
      "name": "withdrawTokens",
      "outputs": [],
      "stateMutability": "nonpayable",
      "type": "function"
    },
    {
      "stateMutability": "payable",
      "type": "receive"
    }
  ],
  "bytecode": "0x60806040526003805460ff60a81b19169055600880546001600160801b0319166d75300000000000000000000000001763ffffffff60801b191661027160841b17905569021e19e0c9bab24000006009556000600a5534801561006157600080fd5b50613b71806100716000396000f3fe6080604052600436106103595760003560e01c80637b103999116101bb578063d146d31d116100f7578063d895951211610095578063ecbca55d1161006f578063ecbca55d14610bfd578063f2fde38b14610c2d578063f95e146c14610c60578063fc0c546a14610c75576103fa565b8063d895951214610b51578063dc8de37914610b84578063e8dc12ff14610bb7576103fa565b8063d4ee1d90116100d1578063d4ee1d9014610ac1578063d55ec69714610ad6578063d66bd52414610aeb578063d79604c214610b1e576103fa565b8063d146d31d14610a64578063d260529c14610a97578063d3fb73b414610aac576103fa565b8063b4a176d311610164578063c45d3d921161013e578063c45d3d92146109e6578063c9be579b146109fb578063cdc91c6914610a25578063d031370b14610a3a576103fa565b8063b4a176d31461098c578063bf754558146109a1578063c3e8dfa8146109b6576103fa565b80639b99a8e2116101955780639b99a8e214610904578063ad16158214610919578063af94b8d814610949576103fa565b80637b103999146108c55780638da5cb5b146108da57806394c275ad146108ef576103fa565b806340bf2fb71161029557806367b6d57c116102335780636ecf2b221161020d5780636ecf2b221461082a57806370b0aec51461087457806371f52bf31461089b57806379ba5097146108b0576103fa565b806367b6d57c14610785578063690d8320146107b85780636a49d2c4146107eb576103fa565b806354fd4d501161026f57806354fd4d5014610703578063579cd3ca146107185780635e35359e1461072d57806361cd756e14610770576103fa565b806340bf2fb7146106a657806349d10b64146106bb5780634af80f0e146106d0576103fa565b80631e1401f8116103025780632fe8a6ad116102dc5780632fe8a6ad1461060657806330243ef11461061b57806338a5e016146106655780633e8ff43f1461067a576103fa565b80631e1401f81461056257806321e6b53d146105be57806322f3e2d4146105f1576103fa565b806312c2aca41161033357806312c2aca4146104c057806319b64015146104e95780631cfab2901461052f576103fa565b8063024c7ec7146103ff5780630c7d5cd81461042b5780630e53aae914610459576103fa565b366103fa5773eeeeeeeeeeeeeeeeeeeeeeeeeeeeeeeeeeeeeeee60005260076020527fb2084a3e4595ccf007fb44245853374aaf0de960074375e8e0fb334712e94d0f54600160301b900460ff166103f8576040805162461bcd60e51b815260206004820152601360248201527f4552525f494e56414c49445f5245534552564500000000000000000000000000604482015290519081900360640190fd5b005b600080fd5b34801561040b57600080fd5b506103f86004803603602081101561042257600080fd5b50351515610c8a565b34801561043757600080fd5b50610440610ccb565b6040805163ffffffff9092168252519081900360200190f35b34801561046557600080fd5b5061048c6004803603602081101561047c57600080fd5b50356001600160a01b0316610cd7565b6040805195865263ffffffff9094166020860152911515848401521515606084015215156080830152519081900360a00190f35b3480156104cc57600080fd5b506104d5610d6f565b604080519115158252519081900360200190f35b3480156104f557600080fd5b506105136004803603602081101561050c57600080fd5b5035610dbb565b604080516001600160a01b039092168252519081900360200190f35b34801561053b57600080fd5b506104406004803603602081101561055257600080fd5b50356001600160a01b0316610de5565b34801561056e57600080fd5b506105a56004803603606081101561058557600080fd5b506001600160a01b03813581169160208101359091169060400135610e17565b6040805192835260208301919091528051918290030190f35b3480156105ca57600080fd5b506103f8600480360360208110156105e157600080fd5b50356001600160a01b0316610e32565b3480156105fd57600080fd5b506104d5610e46565b34801561061257600080fd5b506104d5610ede565b34801561062757600080fd5b506103f86004803603606081101561063e57600080fd5b5080356001600160a01b03908116916020810135909116906040013563ffffffff16610eee565b34801561067157600080fd5b506103f8610fed565b34801561068657600080fd5b5061068f610fff565b6040805161ffff9092168252519081900360200190f35b3480156106b257600080fd5b50610440611004565b3480156106c757600080fd5b506103f8611020565b3480156106dc57600080fd5b506103f8600480360360208110156106f357600080fd5b50356001600160a01b031661125a565b34801561070f57600080fd5b5061068f61128f565b34801561072457600080fd5b50610440611294565b34801561073957600080fd5b506103f86004803603606081101561075057600080fd5b506001600160a01b038135811691602081013590911690604001356112ac565b34801561077c57600080fd5b50610513611320565b34801561079157600080fd5b506103f8600480360360208110156107a857600080fd5b50356001600160a01b031661132f565b3480156107c457600080fd5b506103f8600480360360208110156107db57600080fd5b50356001600160a01b03166113b6565b3480156107f757600080fd5b506103f86004803603604081101561080e57600080fd5b5080356001600160a01b0316906020013563ffffffff1661145b565b34801561083657600080fd5b506103f86004803603606081101561084d57600080fd5b5080356001600160a01b03908116916020810135909116906040013563ffffffff166114cf565b34801561088057600080fd5b5061088961157e565b60408051918252519081900360200190f35b3480156108a757600080fd5b5061068f611584565b3480156108bc57600080fd5b506103f8611593565b3480156108d157600080fd5b5061051361166b565b3480156108e657600080fd5b5061051361167a565b3480156108fb57600080fd5b5061044061168f565b34801561091057600080fd5b5061068f6116a3565b34801561092557600080fd5b506103f86004803603602081101561093c57600080fd5b503563ffffffff166116a9565b34801561095557600080fd5b506105a56004803603606081101561096c57600080fd5b506001600160a01b038135811691602081013590911690604001356116f7565b34801561099857600080fd5b506103f86117ec565b3480156109ad57600080fd5b506104d5611818565b3480156109c257600080fd5b506103f8600480360360208110156109d957600080fd5b503563ffffffff1661181d565b3480156109f257600080fd5b50610513611874565b348015610a0757600080fd5b506103f860048036036020811015610a1e57600080fd5b5035611883565b348015610a3157600080fd5b506103f8611898565b348015610a4657600080fd5b5061051360048036036020811015610a5d57600080fd5b50356118f1565b348015610a7057600080fd5b5061088960048036036020811015610a8757600080fd5b50356001600160a01b0316611918565b348015610aa357600080fd5b506104d5611962565b348015610ab857600080fd5b50610513611967565b348015610acd57600080fd5b50610513611976565b348015610ae257600080fd5b506103f8611985565b348015610af757600080fd5b5061048c60048036036020811015610b0e57600080fd5b50356001600160a01b0316611a8c565b348015610b2a57600080fd5b506103f860048036036020811015610b4157600080fd5b50356001600160a01b0316611acf565b348015610b5d57600080fd5b5061088960048036036020811015610b7457600080fd5b50356001600160a01b0316611d54565b348015610b9057600080fd5b5061088960048036036020811015610ba757600080fd5b50356001600160a01b0316611d65565b610889600480360360a0811015610bcd57600080fd5b506001600160a01b0381358116916020810135821691604082013591606081013582169160809091013516611d8e565b348015610c0957600080fd5b506103f860048036036020811015610c2057600080fd5b503563ffffffff16611fbf565b348015610c3957600080fd5b506103f860048036036020811015610c5057600080fd5b50356001600160a01b03166120b1565b348015610c6c57600080fd5b50610440612144565b348015610c8157600080fd5b50610513612157565b610c92612166565b60038054911515600160a01b027fffffffffffffffffffffff00ffffffffffffffffffffffffffffffffffffffff909216919091179055565b60085463ffffffff1681565b6000806000806000610ce7613adf565b505050506001600160a01b03929092166000908152600760209081526040808320815160a081018352815480825260019092015463ffffffff811694820185905260ff64010000000082048116151594830194909452650100000000008104841615156060830152600160301b90049092161515608090920182905295919450919250829190565b73eeeeeeeeeeeeeeeeeeeeeeeeeeeeeeeeeeeeeeee60005260076020527fb2084a3e4595ccf007fb44245853374aaf0de960074375e8e0fb334712e94d0f54600160301b900460ff1690565b600060068281548110610dca57fe5b6000918252602090912001546001600160a01b031692915050565b600081610df1816121bf565b50506001600160a01b031660009081526007602052604090206001015463ffffffff1690565b600080610e258585856116f7565b915091505b935093915050565b610e3a612166565b610e438161132f565b50565b60048054604080517f8da5cb5b000000000000000000000000000000000000000000000000000000008152905160009330936001600160a01b031692638da5cb5b9281830192602092829003018186803b158015610ea357600080fd5b505afa158015610eb7573d6000803e3d6000fd5b505050506040513d6020811015610ecd57600080fd5b50516001600160a01b031614905090565b600354600160a01b900460ff1681565b600054610100900460ff1680610f075750610f07612236565b80610f15575060005460ff16155b610f505760405162461bcd60e51b815260040180806020018281038252602e815260200180613b0e602e913960400191505060405180910390fd5b600054610100900460ff16158015610f7b576000805460ff1961ff0019909116610100171660011790555b83610f858161223c565b82610f8f81612297565b610f98856122f5565b5050600480546001600160a01b0319166001600160a01b0386161790556008805467ffffffff00000000191664010000000063ffffffff8516021790558015610fe7576000805461ff00191690555b50505050565b610ff5612166565b610ffd611898565b565b600090565b6008546c01000000000000000000000000900463ffffffff1681565b6000546201000090046001600160a01b03163314806110495750600354600160a01b900460ff16155b61108e576040805162461bcd60e51b815260206004820152601160248201527011549497d050d0d154d4d7d11153925151607a1b604482015290519081900360640190fd5b60006110b97f436f6e74726163745265676973747279000000000000000000000000000000006123d5565b6002549091506001600160a01b038083169116148015906110e257506001600160a01b03811615155b611133576040805162461bcd60e51b815260206004820152601460248201527f4552525f494e56414c49445f5245474953545259000000000000000000000000604482015290519081900360640190fd5b60006001600160a01b0316816001600160a01b031663bb34534c7f436f6e74726163745265676973747279000000000000000000000000000000006040518263ffffffff1660e01b81526004018082815260200191505060206040518083038186803b1580156111a257600080fd5b505afa1580156111b6573d6000803e3d6000fd5b505050506040513d60208110156111cc57600080fd5b50516001600160a01b0316141561122a576040805162461bcd60e51b815260206004820152601460248201527f4552525f494e56414c49445f5245474953545259000000000000000000000000604482015290519081900360640190fd5b60028054600380546001600160a01b038084166001600160a01b0319928316179092559091169216919091179055565b611262612166565b8061126c8161246c565b50600580546001600160a01b0319166001600160a01b0392909216919091179055565b602881565b60085468010000000000000000900463ffffffff1681565b6112b46124ca565b6003805460ff60a81b1916600160a81b1790556112cf612166565b6112da838383612529565b6001600160a01b038316600090815260076020526040902060010154600160301b900460ff161561130e5761130e83612562565b50506003805460ff60a81b1916905550565b6003546001600160a01b031681565b611337612166565b600460009054906101000a90046001600160a01b03166001600160a01b031663f2fde38b826040518263ffffffff1660e01b815260040180826001600160a01b03168152602001915050600060405180830381600087803b15801561139b57600080fd5b505af11580156113af573d6000803e3d6000fd5b5050505050565b6113be6124ca565b6003805460ff60a81b1916600160a81b1790556113d9612166565b73eeeeeeeeeeeeeeeeeeeeeeeeeeeeeeeeeeeeeeee6113f7816121bf565b6040516001600160a01b038316904780156108fc02916000818181858888f1935050505015801561142c573d6000803e3d6000fd5b5061144a73eeeeeeeeeeeeeeeeeeeeeeeeeeeeeeeeeeeeeeee612562565b50506003805460ff60a81b19169055565b611463612166565b61146b6116a3565b61ffff16156114c1576040805162461bcd60e51b815260206004820152601960248201527f4552525f494e56414c49445f524553455256455f434f554e5400000000000000604482015290519081900360640190fd5b6114cb8282612640565b5050565b600054610100900460ff16806114e857506114e8612236565b806114f6575060005460ff16155b6115315760405162461bcd60e51b815260040180806020018281038252602e815260200180613b0e602e913960400191505060405180910390fd5b600054610100900460ff1615801561155c576000805460ff1961ff0019909116610100171660011790555b611567848484612870565b8015610fe7576000805461ff001916905550505050565b60095481565b600061158e6116a3565b905090565b6001546001600160a01b031633146115e6576040805162461bcd60e51b815260206004820152601160248201527011549497d050d0d154d4d7d11153925151607a1b604482015290519081900360640190fd5b600154600080546040516001600160a01b039384169362010000909204909116917f343765429aea5a34b3ff6a3785a98a5abb2597aca87bfbb58632c173d585373a91a3600180546000805475ffffffffffffffffffffffffffffffffffffffff000019166001600160a01b03831662010000021790556001600160a01b0319169055565b6002546001600160a01b031681565b6000546201000090046001600160a01b031681565b600854640100000000900463ffffffff1681565b60065490565b6116b1612166565b6116b9612908565b6008805463ffffffff909216600160801b027fffffffffffffffffffffffff00000000ffffffffffffffffffffffffffffffff909216919091179055565b60045460009081906001600160a01b03858116911614801561173b57506001600160a01b038516600090815260076020526040902060010154600160301b900460ff165b156117525761174983612962565b91509150610e2a565b6004546001600160a01b03868116911614801561179157506001600160a01b038416600090815260076020526040902060010154600160301b900460ff165b1561179f5761174983612b66565b6040805162461bcd60e51b815260206004820152601160248201527f4552525f494e56414c49445f544f4b454e000000000000000000000000000000604482015290519081900360640190fd5b6117f4612166565b600354600280546001600160a01b0319166001600160a01b03909216919091179055565b600181565b611825612166565b61182d612908565b6008805463ffffffff9092166c01000000000000000000000000027fffffffffffffffffffffffffffffffff00000000ffffffffffffffffffffffff909216919091179055565b6005546001600160a01b031681565b61188b612166565b611893612908565b600955565b6118a0612166565b6118a8612c5a565b6004546001906001600160a01b03166118bf610fff565b61ffff167f6b08c2e2c9969e55a647a764db9b554d64dc42f1a704da11a6d5b129ad163f2c60405160405180910390a4565b600681815481106118fe57fe5b6000918252602090912001546001600160a01b0316905081565b6001600160a01b0381166000908152600760205260408120600181015461195b9063ffffffff16611955620f424061194f87611d65565b90612d3e565b90612d9c565b9392505050565b600190565b6004546001600160a01b031681565b6001546001600160a01b031681565b61198d612166565b60006119b87f42616e636f72436f6e76657274657255706772616465720000000000000000006123d5565b6004549091506000906001600160a01b03166119d2610fff565b61ffff167f6b08c2e2c9969e55a647a764db9b554d64dc42f1a704da11a6d5b129ad163f2c60405160405180910390a4611a0b816120b1565b604080517f90f58c960000000000000000000000000000000000000000000000000000000081526028600482015290516001600160a01b038316916390f58c9691602480830192600092919082900301818387803b158015611a6c57600080fd5b505af1158015611a80573d6000803e3d6000fd5b50505050610e43611593565b6007602052600090815260409020805460019091015463ffffffff81169060ff6401000000008204811691650100000000008104821691600160301b9091041685565b80611ad9816121bf565b611ae1612166565b6000611aec83611918565b9050611b05600954600a54612e0690919063ffffffff16565b8111611b58576040805162461bcd60e51b815260206004820152601e60248201527f4552525f4d41524b45545f4341505f42454c4f575f5448524553484f4c440000604482015290519081900360640190fd5b6001600160a01b03831660009081526007602052604081206008546001820154919291611b999163ffffffff91821691600160801b909104811690612e4f16565b600183015460085491925063ffffffff908116916c01000000000000000000000000900416821015611c12576040805162461bcd60e51b815260206004820152601a60248201527f4552525f494e56414c49445f524553455256455f574549474854000000000000604482015290519081900360640190fd5b6001830154600090611c4690611c3c9063ffffffff90811690611955908790620f424090612d3e16565b620f424090612e4f565b60018501805463ffffffff861663ffffffff1991821681179092556008805490911690911790559050826000611c86620f42406119558561194f8d611d65565b90506001600160a01b03891673eeeeeeeeeeeeeeeeeeeeeeeeeeeeeeeeeeeeeeee1415611ce057604051339082156108fc029083906000818181858888f19350505050158015611cda573d6000803e3d6000fd5b50611ceb565b611ceb893383612eac565b600a879055611cf989612562565b85546040805163ffffffff8088168252851660208201528082018690526060810192909252517fdb546a099d5772cc83680ebd46cf464225ffd886eda63ba6c11095aa1422f75d9181900360800190a1505050505050505050565b6000611d5f82611d65565b92915050565b600081611d71816121bf565b50506001600160a01b031660009081526007602052604090205490565b6000611d986124ca565b6003805460ff60a81b1916600160a81b1790557f42616e636f724e6574776f726b00000000000000000000000000000000000000611dd58161303d565b856001600160a01b0316876001600160a01b03161415611e3c576040805162461bcd60e51b815260206004820152601660248201527f4552525f53414d455f534f555243455f54415247455400000000000000000000604482015290519081900360640190fd5b6005546001600160a01b03161580611f49575060055460408051633af32abf60e01b81526001600160a01b03878116600483015291519190921691633af32abf916024808301926020929190829003018186803b158015611e9c57600080fd5b505afa158015611eb0573d6000803e3d6000fd5b505050506040513d6020811015611ec657600080fd5b50518015611f49575060055460408051633af32abf60e01b81526001600160a01b03868116600483015291519190921691633af32abf916024808301926020929190829003018186803b158015611f1c57600080fd5b505afa158015611f30573d6000803e3d6000fd5b505050506040513d6020811015611f4657600080fd5b50515b611f9a576040805162461bcd60e51b815260206004820152601360248201527f4552525f4e4f545f57484954454c495354454400000000000000000000000000604482015290519081900360640190fd5b611fa7878787878761309f565b6003805460ff60a81b19169055979650505050505050565b611fc7612166565b60085463ffffffff64010000000090910481169082161115612030576040805162461bcd60e51b815260206004820152601a60248201527f4552525f494e56414c49445f434f4e56455253494f4e5f464545000000000000604482015290519081900360640190fd5b6008546040805163ffffffff6801000000000000000090930483168152918316602083015280517f81cd2ffb37dd237c0e4e2a3de5265fcf9deb43d3e7801e80db9f1ccfba7ee6009281900390910190a16008805463ffffffff90921668010000000000000000026bffffffff000000000000000019909216919091179055565b6120b9612166565b6000546001600160a01b0382811662010000909204161415612122576040805162461bcd60e51b815260206004820152600e60248201527f4552525f53414d455f4f574e4552000000000000000000000000000000000000604482015290519081900360640190fd5b600180546001600160a01b0319166001600160a01b0392909216919091179055565b600854600160801b900463ffffffff1681565b6004546001600160a01b031690565b6000546201000090046001600160a01b03163314610ffd576040805162461bcd60e51b815260206004820152601160248201527011549497d050d0d154d4d7d11153925151607a1b604482015290519081900360640190fd5b6001600160a01b038116600090815260076020526040902060010154600160301b900460ff16610e43576040805162461bcd60e51b815260206004820152601360248201527f4552525f494e56414c49445f5245534552564500000000000000000000000000604482015290519081900360640190fd5b303b1590565b6001600160a01b038116610e43576040805162461bcd60e51b815260206004820152601360248201527f4552525f494e56414c49445f4144445245535300000000000000000000000000604482015290519081900360640190fd5b620f424063ffffffff82161115610e43576040805162461bcd60e51b815260206004820152601a60248201527f4552525f494e56414c49445f434f4e56455253494f4e5f464545000000000000604482015290519081900360640190fd5b600054610100900460ff168061230e575061230e612236565b8061231c575060005460ff16155b6123575760405162461bcd60e51b815260040180806020018281038252602e815260200180613b0e602e913960400191505060405180910390fd5b600054610100900460ff16158015612382576000805460ff1961ff0019909116610100171660011790555b8161238c8161223c565b612394613262565b50600280546001600160a01b0384166001600160a01b0319918216811790925560038054909116909117905580156114cb576000805461ff00191690555050565b600254604080517fbb34534c0000000000000000000000000000000000000000000000000000000081526004810184905290516000926001600160a01b03169163bb34534c916024808301926020929190829003018186803b15801561243a57600080fd5b505afa15801561244e573d6000803e3d6000fd5b505050506040513d602081101561246457600080fd5b505192915050565b6001600160a01b038116301415610e43576040805162461bcd60e51b815260206004820152601360248201527f4552525f414444524553535f49535f53454c4600000000000000000000000000604482015290519081900360640190fd5b600354600160a81b900460ff1615610ffd576040805162461bcd60e51b815260206004820152600e60248201527f4552525f5245454e5452414e4359000000000000000000000000000000000000604482015290519081900360640190fd5b612531612166565b8261253b8161223c565b826125458161223c565b8361254f8161246c565b61255a868686612eac565b505050505050565b8061256c816121bf565b6001600160a01b03821673eeeeeeeeeeeeeeeeeeeeeeeeeeeeeeeeeeeeeeee14156125b1576001600160a01b03821660009081526007602052604090204790556114cb565b604080516370a0823160e01b815230600482015290516001600160a01b038416916370a08231916024808301926020929190829003018186803b1580156125f757600080fd5b505afa15801561260b573d6000803e3d6000fd5b505050506040513d602081101561262157600080fd5b50516001600160a01b0383166000908152600760205260409020555050565b612648612166565b612650612908565b8161265a8161223c565b826126648161246c565b8261266e81613329565b6004546001600160a01b038681169116148015906126af57506001600160a01b038516600090815260076020526040902060010154600160301b900460ff16155b612700576040805162461bcd60e51b815260206004820152601360248201527f4552525f494e56414c49445f5245534552564500000000000000000000000000604482015290519081900360640190fd5b60085463ffffffff908116620f42400381169085161115612768576040805162461bcd60e51b815260206004820152601a60248201527f4552525f494e56414c49445f524553455256455f574549474854000000000000604482015290519081900360640190fd5b61ffff6127736116a3565b61ffff16106127c9576040805162461bcd60e51b815260206004820152601960248201527f4552525f494e56414c49445f524553455256455f434f554e5400000000000000604482015290519081900360640190fd5b5050506001600160a01b0390911660008181526007602052604081208181556001908101805466ff0000000000001963ffffffff80881663ffffffff199384161791909116600160301b179092556006805493840181559093527ff652222313e28459528d920b65115c16c04f3efc82aaedc97be59f3f377c0d3f90910180546001600160a01b031916909317909255600880548084169094019092169216919091179055565b600054610100900460ff16806128895750612889612236565b80612897575060005460ff16155b6128d25760405162461bcd60e51b815260040180806020018281038252602e815260200180613b0e602e913960400191505060405180910390fd5b600054610100900460ff161580156128fd576000805460ff1961ff0019909116610100171660011790555b611567848484610eee565b612910610e46565b15610ffd576040805162461bcd60e51b815260206004820152600a60248201527f4552525f41435449564500000000000000000000000000000000000000000000604482015290519081900360640190fd5b60008061296d613399565b6000600460009054906101000a90046001600160a01b03166001600160a01b03166318160ddd6040518163ffffffff1660e01b815260040160206040518083038186803b1580156129bd57600080fd5b505afa1580156129d1573d6000803e3d6000fd5b505050506040513d60208110156129e757600080fd5b50516006805491925060009182906129fb57fe5b6000918252602090912001546001600160a01b0316905081612a5e576001600160a01b038116600090815260076020526040902060010154612a519063ffffffff90811690611955908890620f424090612d3e16565b6000935093505050612b61565b6000612a796c42616e636f72466f726d756c6160981b6123d5565b6001600160a01b031663f3250fe284612a9185611d65565b6001600160a01b0386166000908152600760209081526040918290206001015482517fffffffff0000000000000000000000000000000000000000000000000000000060e088901b1681526004810195909552602485019390935263ffffffff9092166044840152606483018b905251608480840193829003018186803b158015612b1b57600080fd5b505afa158015612b2f573d6000803e3d6000fd5b505050506040513d6020811015612b4557600080fd5b505190506000612b54826133f2565b9182900395509093505050505b915091565b600080612b71613399565b6000600460009054906101000a90046001600160a01b03166001600160a01b03166318160ddd6040518163ffffffff1660e01b815260040160206040518083038186803b158015612bc157600080fd5b505afa158015612bd5573d6000803e3d6000fd5b505050506040513d6020811015612beb57600080fd5b5051600680549192506000918290612bff57fe5b6000918252602090912001546001600160a01b0316905081851415612c2757612a5181611d65565b6000612c426c42616e636f72466f726d756c6160981b6123d5565b6001600160a01b03166376cf0b5684612a9185611d65565b612c62612166565b6000612c6c6116a3565b61ffff1611612cc2576040805162461bcd60e51b815260206004820152601960248201527f4552525f494e56414c49445f524553455256455f434f554e5400000000000000604482015290519081900360640190fd5b60048054604080517f79ba509700000000000000000000000000000000000000000000000000000000815290516001600160a01b03909216926379ba509792828201926000929082900301818387803b158015612d1e57600080fd5b505af1158015612d32573d6000803e3d6000fd5b50505050610ffd613422565b600082612d4d57506000611d5f565b82820282848281612d5a57fe5b041461195b576040805162461bcd60e51b815260206004820152600c60248201526b4552525f4f564552464c4f5760a01b604482015290519081900360640190fd5b6000808211612df2576040805162461bcd60e51b815260206004820152601260248201527f4552525f4449564944455f42595f5a45524f0000000000000000000000000000604482015290519081900360640190fd5b6000828481612dfd57fe5b04949350505050565b60008282018381101561195b576040805162461bcd60e51b815260206004820152600c60248201526b4552525f4f564552464c4f5760a01b604482015290519081900360640190fd5b600081831015612ea6576040805162461bcd60e51b815260206004820152600d60248201527f4552525f554e444552464c4f5700000000000000000000000000000000000000604482015290519081900360640190fd5b50900390565b604080516001600160a01b038481166024830152604480830185905283518084039091018152606490920183526020820180517bffffffffffffffffffffffffffffffffffffffffffffffffffffffff167fa9059cbb00000000000000000000000000000000000000000000000000000000178152925182516000946060949389169392918291908083835b60208310612f575780518252601f199092019160209182019101612f38565b6001836020036101000a0380198251168184511680821785525050505050509050019150506000604051808303816000865af19150503d8060008114612fb9576040519150601f19603f3d011682016040523d82523d6000602084013e612fbe565b606091505b5091509150818015612fec575080511580612fec5750808060200190516020811015612fe957600080fd5b50515b6113af576040805162461bcd60e51b815260206004820152601360248201527f4552525f5452414e534645525f4641494c454400000000000000000000000000604482015290519081900360640190fd5b613046816123d5565b6001600160a01b0316336001600160a01b031614610e43576040805162461bcd60e51b815260206004820152601160248201527011549497d050d0d154d4d7d11153925151607a1b604482015290519081900360640190fd5b600454600090819081906001600160a01b0388811691161480156130e557506001600160a01b038816600090815260076020526040902060010154600160301b900460ff165b156130fe5750866130f7868686613462565b915061314f565b6004546001600160a01b03898116911614801561313d57506001600160a01b038716600090815260076020526040902060010154600160301b900460ff165b1561179f5750856130f7868686613701565b6000600460009054906101000a90046001600160a01b03166001600160a01b03166318160ddd6040518163ffffffff1660e01b815260040160206040518083038186803b15801561319f57600080fd5b505afa1580156131b3573d6000803e3d6000fd5b505050506040513d60208110156131c957600080fd5b50516001600160a01b0380841660008181526007602052604090206001015460045493945063ffffffff16929091167f77f29993cf2c084e726f7e802da0719d6a0ade3e204badc7a3ffd57ecb768c24613229620f424061194f88611d65565b61323c8663ffffffff80881690612d3e16565b6040805192835260208301919091528051918290030190a3509198975050505050505050565b600054610100900460ff168061327b575061327b612236565b80613289575060005460ff16155b6132c45760405162461bcd60e51b815260040180806020018281038252602e815260200180613b0e602e913960400191505060405180910390fd5b600054610100900460ff161580156132ef576000805460ff1961ff0019909116610100171660011790555b6000805475ffffffffffffffffffffffffffffffffffffffff000019163362010000021790558015610e43576000805461ff001916905550565b60008163ffffffff161180156133485750620f424063ffffffff821611155b610e43576040805162461bcd60e51b815260206004820152601a60248201527f4552525f494e56414c49445f524553455256455f574549474854000000000000604482015290519081900360640190fd5b6133a1610e46565b610ffd576040805162461bcd60e51b815260206004820152600c60248201527f4552525f494e4143544956450000000000000000000000000000000000000000604482015290519081900360640190fd5b600854600090611d5f90620f42409061195590859068010000000000000000900463ffffffff90811690612d3e16565b60065460005b818110156114cb5761345a6006828154811061344057fe5b6000918252602090912001546001600160a01b0316612562565b600101613428565b600080600061347086612962565b9150915081600014156134ca576040805162461bcd60e51b815260206004820152601660248201527f4552525f5a45524f5f5441524745545f414d4f554e5400000000000000000000604482015290519081900360640190fd5b600060066000815481106134da57fe5b6000918252602090912001546001600160a01b0316905073eeeeeeeeeeeeeeeeeeeeeeeeeeeeeeeeeeeeeeee81141561356657863414613561576040805162461bcd60e51b815260206004820152601760248201527f4552525f4554485f414d4f554e545f4d49534d41544348000000000000000000604482015290519081900360640190fd5b613648565b341580156135f75750866135f461357c83611d65565b604080516370a0823160e01b815230600482015290516001600160a01b038616916370a08231916024808301926020929190829003018186803b1580156135c257600080fd5b505afa1580156135d6573d6000803e3d6000fd5b505050506040513d60208110156135ec57600080fd5b505190612e4f565b10155b613648576040805162461bcd60e51b815260206004820152601260248201527f4552525f494e56414c49445f414d4f554e540000000000000000000000000000604482015290519081900360640190fd5b61365181612562565b60048054604080517f867904b40000000000000000000000000000000000000000000000000000000081526001600160a01b0389811694820194909452602481018790529051929091169163867904b49160448082019260009290919082900301818387803b1580156136c357600080fd5b505af11580156136d7573d6000803e3d6000fd5b50506004546136f692508391506001600160a01b0316888a8787613a5a565b509095945050505050565b60048054604080516370a0823160e01b81523093810193909352516000926001600160a01b03909216916370a08231916024808301926020929190829003018186803b15801561375057600080fd5b505afa158015613764573d6000803e3d6000fd5b505050506040513d602081101561377a57600080fd5b50518411156137d0576040805162461bcd60e51b815260206004820152601260248201527f4552525f494e56414c49445f414d4f554e540000000000000000000000000000604482015290519081900360640190fd5b6000806137dc86612b66565b915091508160001415613836576040805162461bcd60e51b815260206004820152601660248201527f4552525f5a45524f5f5441524745545f414d4f554e5400000000000000000000604482015290519081900360640190fd5b6000600660008154811061384657fe5b600091825260208083209091015460048054604080517f18160ddd00000000000000000000000000000000000000000000000000000000815290516001600160a01b03948516975091909316936318160ddd938084019391929190829003018186803b1580156138b557600080fd5b505afa1580156138c9573d6000803e3d6000fd5b505050506040513d60208110156138df57600080fd5b5051905060006138ee83611d65565b9050808510806139075750808514801561390757508189145b61390d57fe5b60048054604080517fa24835d10000000000000000000000000000000000000000000000000000000081523093810193909352602483018c9052516001600160a01b039091169163a24835d191604480830192600092919082900301818387803b15801561397a57600080fd5b505af115801561398e573d6000803e3d6000fd5b5050506001600160a01b0384166000908152600760205260409020546139b5915086612e4f565b6001600160a01b03841660008181526007602052604090209190915573eeeeeeeeeeeeeeeeeeeeeeeeeeeeeeeeeeeeeeee1415613a28576040516001600160a01b0388169086156108fc029087906000818181858888f19350505050158015613a22573d6000803e3d6000fd5b50613a33565b613a33838887612eac565b600454613a4d906001600160a01b0316848a8c8989613a5a565b5092979650505050505050565b7f80000000000000000000000000000000000000000000000000000000000000008110613a8357fe5b604080518481526020810184905280820183905290516001600160a01b038087169288821692918a16917f276856b36cbc45526a0ba64f44611557a2a8b68662c5388e9fe6d72e86e1c8cb9181900360600190a4505050505050565b6040805160a0810182526000808252602082018190529181018290526060810182905260808101919091529056fe496e697469616c697a61626c653a20636f6e747261637420697320616c726561647920696e697469616c697a6564a26469706673582212206f72d513dab5b8fd943b8d3cfb6cedc26c4dcd8590e31d889b21efe97ecf0dbd64736f6c634300060c0033",
  "linkReferences": {},
  "deployedLinkReferences": {}
}