{
  "_format": "hh-sol-artifact-1",
  "contractName": "ConverterFactory",
  "sourceName": "contracts/bancor/converter/ConverterFactory.sol",
  "abi": [
    {
      "anonymous": false,
      "inputs": [
        {
          "indexed": true,
          "internalType": "uint16",
          "name": "_type",
          "type": "uint16"
        },
        {
          "indexed": true,
          "internalType": "contract IConverter",
          "name": "_converter",
          "type": "address"
        },
        {
          "indexed": true,
          "internalType": "address",
          "name": "_owner",
          "type": "address"
        }
      ],
      "name": "NewConverter",
      "type": "event"
    },
    {
      "anonymous": false,
      "inputs": [
        {
          "indexed": true,
          "internalType": "address",
          "name": "_prevOwner",
          "type": "address"
        },
        {
          "indexed": true,
          "internalType": "address",
          "name": "_newOwner",
          "type": "address"
        }
      ],
      "name": "OwnerUpdate",
      "type": "event"
    },
    {
      "inputs": [],
      "name": "acceptOwnership",
      "outputs": [],
      "stateMutability": "nonpayable",
      "type": "function"
    },
    {
      "inputs": [
        {
          "internalType": "uint16",
          "name": "",
          "type": "uint16"
        }
      ],
      "name": "anchorFactories",
      "outputs": [
        {
          "internalType": "contract ITypedConverterAnchorFactory",
          "name": "",
          "type": "address"
        }
      ],
      "stateMutability": "view",
      "type": "function"
    },
    {
      "inputs": [
        {
          "internalType": "uint16",
          "name": "",
          "type": "uint16"
        }
      ],
      "name": "converterFactories",
      "outputs": [
        {
          "internalType": "contract ITypedConverterFactory",
          "name": "",
          "type": "address"
        }
      ],
      "stateMutability": "view",
      "type": "function"
    },
    {
      "inputs": [
        {
          "internalType": "uint16",
          "name": "_converterType",
          "type": "uint16"
        },
        {
          "internalType": "string",
          "name": "_name",
          "type": "string"
        },
        {
          "internalType": "string",
          "name": "_symbol",
          "type": "string"
        },
        {
          "internalType": "uint8",
          "name": "_decimals",
          "type": "uint8"
        }
      ],
      "name": "createAnchor",
      "outputs": [
        {
          "internalType": "contract IConverterAnchor",
          "name": "",
          "type": "address"
        }
      ],
      "stateMutability": "nonpayable",
      "type": "function"
    },
    {
      "inputs": [
        {
          "internalType": "uint16",
          "name": "_type",
          "type": "uint16"
        },
        {
          "internalType": "contract IConverterAnchor",
          "name": "_anchor",
          "type": "address"
        },
        {
          "internalType": "contract IContractRegistry",
          "name": "_registry",
          "type": "address"
        },
        {
          "internalType": "uint32",
          "name": "_maxConversionFee",
          "type": "uint32"
        }
      ],
      "name": "createConverter",
      "outputs": [
        {
          "internalType": "contract IConverter",
          "name": "",
          "type": "address"
        }
      ],
      "stateMutability": "nonpayable",
      "type": "function"
    },
    {
      "inputs": [
        {
          "internalType": "uint16",
          "name": "",
          "type": "uint16"
        }
      ],
      "name": "customFactories",
      "outputs": [
        {
          "internalType": "contract ITypedConverterCustomFactory",
          "name": "",
          "type": "address"
        }
      ],
      "stateMutability": "view",
      "type": "function"
    },
    {
      "inputs": [],
      "name": "newOwner",
      "outputs": [
        {
          "internalType": "address",
          "name": "",
          "type": "address"
        }
      ],
      "stateMutability": "view",
      "type": "function"
    },
    {
      "inputs": [],
      "name": "owner",
      "outputs": [
        {
          "internalType": "address",
          "name": "",
          "type": "address"
        }
      ],
      "stateMutability": "view",
      "type": "function"
    },
    {
      "inputs": [
        {
          "internalType": "contract ITypedConverterAnchorFactory",
          "name": "_factory",
          "type": "address"
        }
      ],
      "name": "registerTypedConverterAnchorFactory",
      "outputs": [],
      "stateMutability": "nonpayable",
      "type": "function"
    },
    {
      "inputs": [
        {
          "internalType": "contract ITypedConverterCustomFactory",
          "name": "_factory",
          "type": "address"
        }
      ],
      "name": "registerTypedConverterCustomFactory",
      "outputs": [],
      "stateMutability": "nonpayable",
      "type": "function"
    },
    {
      "inputs": [
        {
          "internalType": "contract ITypedConverterFactory",
          "name": "_factory",
          "type": "address"
        }
      ],
      "name": "registerTypedConverterFactory",
      "outputs": [],
      "stateMutability": "nonpayable",
      "type": "function"
    },
    {
      "inputs": [
        {
          "internalType": "address",
          "name": "_newOwner",
          "type": "address"
        }
      ],
      "name": "transferOwnership",
      "outputs": [],
      "stateMutability": "nonpayable",
      "type": "function"
    }
  ],
  "bytecode": "0x608060405234801561001057600080fd5b50600080546001600160a01b03191633179055611c3c806100326000396000f3fe60806040523480156200001157600080fd5b5060043610620000e85760003560e01c80638cac5e29116200008d578063d4ee1d901162000063578063d4ee1d90146200036d578063e54b93ef1462000377578063f2fde38b14620003a057620000e8565b80638cac5e2914620003165780638da5cb5b146200033f578063c977aed2146200034957620000e8565b8063327779a711620000c3578063327779a714620002c45780633a8fc52014620002e857806379ba5097146200030c57620000e8565b806312b4c6c114620000ed57806315f64b6a14620001185780632e9ab7b3146200017e575b600080fd5b62000116600480360360208110156200010557600080fd5b50356001600160a01b0316620003c9565b005b62000162600480360360808110156200013057600080fd5b50803561ffff169060208101356001600160a01b03908116916040810135909116906060013563ffffffff1662000482565b604080516001600160a01b039092168252519081900360200190f35b62000162600480360360808110156200019657600080fd5b61ffff8235169190810190604081016020820135640100000000811115620001bd57600080fd5b820183602082011115620001d057600080fd5b80359060200191846001830284011164010000000083111715620001f357600080fd5b91908080601f01602080910402602001604051908101604052809392919081815260200183838082843760009201919091525092959493602081019350359150506401000000008111156200024757600080fd5b8201836020820111156200025a57600080fd5b803590602001918460018302840111640100000000831117156200027d57600080fd5b91908080601f0160208091040260200160405190810160405280939291908181526020018383808284376000920191909152509295505050903560ff169150620006409050565b6200016260048036036020811015620002dc57600080fd5b503561ffff1662000996565b62000162600480360360208110156200030057600080fd5b503561ffff16620009b1565b62000116620009cc565b62000116600480360360208110156200032e57600080fd5b50356001600160a01b031662000a9d565b6200016262000ae6565b62000162600480360360208110156200036157600080fd5b503561ffff1662000af5565b6200016262000b10565b62000116600480360360208110156200038f57600080fd5b50356001600160a01b031662000b1f565b6200011660048036036020811015620003b857600080fd5b50356001600160a01b031662000b68565b620003d362000c05565b8060026000836001600160a01b0316633e8ff43f6040518163ffffffff1660e01b815260040160206040518083038186803b1580156200041257600080fd5b505afa15801562000427573d6000803e3d6000fd5b505050506040513d60208110156200043e57600080fd5b505161ffff1681526020810191909152604001600020805473ffffffffffffffffffffffffffffffffffffffff19166001600160a01b039290921691909117905550565b61ffff841660009081526002602090815260408083205481517f114139580000000000000000000000000000000000000000000000000000000081526001600160a01b038881166004830152878116602483015263ffffffff8716604483015292518594939092169263114139589260648084019382900301818787803b1580156200050d57600080fd5b505af115801562000522573d6000803e3d6000fd5b505050506040513d60208110156200053957600080fd5b5051604080516379ba509760e01b815290519192506001600160a01b038316916379ba50979160048082019260009290919082900301818387803b1580156200058157600080fd5b505af115801562000596573d6000803e3d6000fd5b50506040805163f2fde38b60e01b815233600482015290516001600160a01b038516935063f2fde38b9250602480830192600092919082900301818387803b158015620005e257600080fd5b505af1158015620005f7573d6000803e3d6000fd5b50506040513392506001600160a01b038416915061ffff8916907fbb340bcea68d239ac719bc5cf8c9a1716df04ad3babb8d1e562aa44d19fea3a390600090a495945050505050565b61ffff841660009081526003602052604081205481906001600160a01b0316806200077b57858585604051620006769062000c67565b60ff82166040820152606080825284519082015283518190602080830191608084019188019080838360005b83811015620006bc578181015183820152602001620006a2565b50505050905090810190601f168015620006ea5780820380516001836020036101000a031916815260200191505b50838103825285518152855160209182019187019080838360005b838110156200071f57818101518382015260200162000705565b50505050905090810190601f1680156200074d5780820380516001836020036101000a031916815260200191505b5095505050505050604051809103906000f08015801562000772573d6000803e3d6000fd5b5091506200092a565b806001600160a01b031663a9fd4a2a8787876040518463ffffffff1660e01b81526004018080602001806020018460ff168152602001838103835286818151815260200191508051906020019080838360005b83811015620007e8578181015183820152602001620007ce565b50505050905090810190601f168015620008165780820380516001836020036101000a031916815260200191505b50838103825285518152855160209182019187019080838360005b838110156200084b57818101518382015260200162000831565b50505050905090810190601f168015620008795780820380516001836020036101000a031916815260200191505b5095505050505050602060405180830381600087803b1580156200089c57600080fd5b505af1158015620008b1573d6000803e3d6000fd5b505050506040513d6020811015620008c857600080fd5b5051604080516379ba509760e01b815290519193506001600160a01b038416916379ba50979160048082019260009290919082900301818387803b1580156200091057600080fd5b505af115801562000925573d6000803e3d6000fd5b505050505b6040805163f2fde38b60e01b815233600482015290516001600160a01b0384169163f2fde38b91602480830192600092919082900301818387803b1580156200097257600080fd5b505af115801562000987573d6000803e3d6000fd5b50939998505050505050505050565b6002602052600090815260409020546001600160a01b031681565b6003602052600090815260409020546001600160a01b031681565b6001546001600160a01b0316331462000a2c576040805162461bcd60e51b815260206004820152601160248201527f4552525f4143434553535f44454e494544000000000000000000000000000000604482015290519081900360640190fd5b600154600080546040516001600160a01b0393841693909116917f343765429aea5a34b3ff6a3785a98a5abb2597aca87bfbb58632c173d585373a91a3600180546000805473ffffffffffffffffffffffffffffffffffffffff199081166001600160a01b03841617909155169055565b62000aa762000c05565b8060046000836001600160a01b0316633e8ff43f6040518163ffffffff1660e01b815260040160206040518083038186803b1580156200041257600080fd5b6000546001600160a01b031681565b6004602052600090815260409020546001600160a01b031681565b6001546001600160a01b031681565b62000b2962000c05565b8060036000836001600160a01b0316633e8ff43f6040518163ffffffff1660e01b815260040160206040518083038186803b1580156200041257600080fd5b62000b7262000c05565b6000546001600160a01b038281169116141562000bd6576040805162461bcd60e51b815260206004820152600e60248201527f4552525f53414d455f4f574e4552000000000000000000000000000000000000604482015290519081900360640190fd5b6001805473ffffffffffffffffffffffffffffffffffffffff19166001600160a01b0392909216919091179055565b6000546001600160a01b0316331462000c65576040805162461bcd60e51b815260206004820152601160248201527f4552525f4143434553535f44454e494544000000000000000000000000000000604482015290519081900360640190fd5b565b610f918062000c768339019056fe60806040523480156200001157600080fd5b5060405162000f9138038062000f91833981810160405260608110156200003757600080fd5b81019080805160405193929190846401000000008211156200005857600080fd5b9083019060208201858111156200006e57600080fd5b82516401000000008111828201881017156200008957600080fd5b82525081516020918201929091019080838360005b83811015620000b85781810151838201526020016200009e565b50505050905090810190601f168015620000e65780820380516001836020036101000a031916815260200191505b50604052602001805160405193929190846401000000008211156200010a57600080fd5b9083019060208201858111156200012057600080fd5b82516401000000008111828201881017156200013b57600080fd5b82525081516020918201929091019080838360005b838110156200016a57818101518382015260200162000150565b50505050905090810190601f168015620001985780820380516001836020036101000a031916815260200191505b5060405260200151845190925084915083908390600090620001f4576040805162461bcd60e51b815260206004820152601060248201526f4552525f494e56414c49445f4e414d4560801b604482015290519081900360640190fd5b600083511162000240576040805162461bcd60e51b815260206004820152601260248201527111549497d253959053125117d4d6535093d360721b604482015290519081900360640190fd5b835162000255906000906020870190620002b8565b5082516200026b906001906020860190620002b8565b506002805460ff191660ff9390931692909217909155600381905533600081815260046020526040902091909155600680546001600160a01b031916909117905550620003549350505050565b828054600181600116156101000203166002900490600052602060002090601f016020900481019282601f10620002fb57805160ff19168380011785556200032b565b828001600101855582156200032b579182015b828111156200032b5782518255916020019190600101906200030e565b50620003399291506200033d565b5090565b5b808211156200033957600081556001016200033e565b610c2d80620003646000396000f3fe608060405234801561001057600080fd5b50600436106100f55760003560e01c8063867904b411610097578063a9059cbb11610066578063a9059cbb146102d9578063d4ee1d9014610305578063dd62ed3e1461030d578063f2fde38b1461033b576100f5565b8063867904b4146102555780638da5cb5b1461028157806395d89b41146102a5578063a24835d1146102ad576100f5565b806323b872dd116100d357806323b872dd146101d1578063313ce5671461020757806370a082311461022557806379ba50971461024b576100f5565b806306fdde03146100fa578063095ea7b31461017757806318160ddd146101b7575b600080fd5b610102610361565b6040805160208082528351818301528351919283929083019185019080838360005b8381101561013c578181015183820152602001610124565b50505050905090810190601f1680156101695780820380516001836020036101000a031916815260200191505b509250505060405180910390f35b6101a36004803603604081101561018d57600080fd5b506001600160a01b0381351690602001356103ef565b604080519115158252519081900360200190f35b6101bf610463565b60408051918252519081900360200190f35b6101a3600480360360608110156101e757600080fd5b506001600160a01b03813581169160208101359091169060400135610469565b61020f61047e565b6040805160ff9092168252519081900360200190f35b6101bf6004803603602081101561023b57600080fd5b50356001600160a01b0316610487565b610253610499565b005b6102536004803603604081101561026b57600080fd5b506001600160a01b03813516906020013561056b565b610289610653565b604080516001600160a01b039092168252519081900360200190f35b610102610662565b610253600480360360408110156102c357600080fd5b506001600160a01b0381351690602001356106bc565b6101a3600480360360408110156102ef57600080fd5b506001600160a01b038135169060200135610788565b61028961079b565b6101bf6004803603604081101561032357600080fd5b506001600160a01b03813581169160200135166107aa565b6102536004803603602081101561035157600080fd5b50356001600160a01b03166107c7565b6000805460408051602060026001851615610100026000190190941693909304601f810184900484028201840190925281815292918301828280156103e75780601f106103bc576101008083540402835291602001916103e7565b820191906000526020600020905b8154815290600101906020018083116103ca57829003601f168201915b505050505081565b6000826103fb81610861565b3360008181526005602090815260408083206001600160a01b03891680855290835292819020879055805187815290519293927f8c5be1e5ebec7d5bd14f71427d1e84f3dd0314c0f7b2291e5b200ac8c7c3b925929181900390910190a35060019392505050565b60035481565b60006104768484846108bf565b949350505050565b60025460ff1681565b60046020526000908152604090205481565b6007546001600160a01b031633146104f8576040805162461bcd60e51b815260206004820152601160248201527f4552525f4143434553535f44454e494544000000000000000000000000000000604482015290519081900360640190fd5b6007546006546040516001600160a01b0392831692909116907f343765429aea5a34b3ff6a3785a98a5abb2597aca87bfbb58632c173d585373a90600090a3600780546006805473ffffffffffffffffffffffffffffffffffffffff199081166001600160a01b03841617909155169055565b6105736109d0565b8161057d81610861565b8261058781610a31565b6003546105949084610a8f565b6003556001600160a01b0384166000908152600460205260409020546105ba9084610a8f565b6001600160a01b03851660009081526004602090815260409182902092909255805185815290517f9386c90217c323f58030f9dadcbc938f807a940f4ff41cd4cead9562f5da7dc3929181900390910190a16040805184815290516001600160a01b038616916000917fddf252ad1be2c89b69c2b068fc378daa952ba7f163c4a11628f55a4df523b3ef9181900360200190a350505050565b6006546001600160a01b031681565b60018054604080516020600284861615610100026000190190941693909304601f810184900484028201840190925281815292918301828280156103e75780601f106103bc576101008083540402835291602001916103e7565b6106c46109d0565b6001600160a01b0382166000908152600460205260409020546106e79082610ae9565b6001600160a01b03831660009081526004602052604090205560035461070d9082610ae9565b6003556040805182815290516000916001600160a01b038516917fddf252ad1be2c89b69c2b068fc378daa952ba7f163c4a11628f55a4df523b3ef9181900360200190a36040805182815290517f9a1b418bc061a5d80270261562e6986a35d995f8051145f277be16103abd34539181900360200190a15050565b60006107948383610b46565b9392505050565b6007546001600160a01b031681565b600560209081526000928352604080842090915290825290205481565b6107cf6109d0565b6006546001600160a01b0382811691161415610832576040805162461bcd60e51b815260206004820152600e60248201527f4552525f53414d455f4f574e4552000000000000000000000000000000000000604482015290519081900360640190fd5b6007805473ffffffffffffffffffffffffffffffffffffffff19166001600160a01b0392909216919091179055565b6001600160a01b0381166108bc576040805162461bcd60e51b815260206004820152601360248201527f4552525f494e56414c49445f4144445245535300000000000000000000000000604482015290519081900360640190fd5b50565b6000836108cb81610861565b836108d581610861565b6001600160a01b03861660009081526005602090815260408083203384529091529020546109039085610ae9565b6001600160a01b03871660008181526005602090815260408083203384528252808320949094559181526004909152205461093e9085610ae9565b6001600160a01b03808816600090815260046020526040808220939093559087168152205461096d9085610a8f565b6001600160a01b0380871660008181526004602090815260409182902094909455805188815290519193928a16927fddf252ad1be2c89b69c2b068fc378daa952ba7f163c4a11628f55a4df523b3ef92918290030190a350600195945050505050565b6006546001600160a01b03163314610a2f576040805162461bcd60e51b815260206004820152601160248201527f4552525f4143434553535f44454e494544000000000000000000000000000000604482015290519081900360640190fd5b565b6001600160a01b0381163014156108bc576040805162461bcd60e51b815260206004820152601360248201527f4552525f414444524553535f49535f53454c4600000000000000000000000000604482015290519081900360640190fd5b600082820183811015610794576040805162461bcd60e51b815260206004820152600c60248201527f4552525f4f564552464c4f570000000000000000000000000000000000000000604482015290519081900360640190fd5b600081831015610b40576040805162461bcd60e51b815260206004820152600d60248201527f4552525f554e444552464c4f5700000000000000000000000000000000000000604482015290519081900360640190fd5b50900390565b600082610b5281610861565b33600090815260046020526040902054610b6c9084610ae9565b33600090815260046020526040808220929092556001600160a01b03861681522054610b989084610a8f565b6001600160a01b0385166000818152600460209081526040918290209390935580518681529051919233927fddf252ad1be2c89b69c2b068fc378daa952ba7f163c4a11628f55a4df523b3ef9281900390910190a3506001939250505056fea26469706673582212200e85da34dc44de6394b3822e597731e7c247ac315946ffc2e22fe38a37e67d7c64736f6c634300060c0033a264697066735822122050be312801edd936001722bb56489d1e87a120b78934f14074e9938d751701c864736f6c634300060c0033",
  "linkReferences": {},
  "deployedLinkReferences": {}
}