{
  "_format": "hh-sol-artifact-1",
  "contractName": "TestLiquidityPoolV2Converter",
  "sourceName": "contracts/bancor/helpers/TestLiquidityPoolV2Converter.sol",
  "abi": [
    {
      "inputs": [
        {
          "internalType": "contract IPoolTokensContainer",
          "name": "_token",
          "type": "address"
        },
        {
          "internalType": "contract IContractRegistry",
          "name": "_registry",
          "type": "address"
        },
        {
          "internalType": "uint32",
          "name": "_maxConversionFee",
          "type": "uint32"
        }
      ],
      "stateMutability": "nonpayable",
      "type": "constructor"
    },
    {
      "anonymous": false,
      "inputs": [
        {
          "indexed": true,
          "internalType": "uint16",
          "name": "_type",
          "type": "uint16"
        },
        {
          "indexed": true,
          "internalType": "contract IConverterAnchor",
          "name": "_anchor",
          "type": "address"
        },
        {
          "indexed": true,
          "internalType": "bool",
          "name": "_activated",
          "type": "bool"
        }
      ],
      "name": "Activation",
      "type": "event"
    },
    {
      "anonymous": false,
      "inputs": [
        {
          "indexed": true,
          "internalType": "contract IERC20Token",
          "name": "_fromToken",
          "type": "address"
        },
        {
          "indexed": true,
          "internalType": "contract IERC20Token",
          "name": "_toToken",
          "type": "address"
        },
        {
          "indexed": true,
          "internalType": "address",
          "name": "_trader",
          "type": "address"
        },
        {
          "indexed": false,
          "internalType": "uint256",
          "name": "_amount",
          "type": "uint256"
        },
        {
          "indexed": false,
          "internalType": "uint256",
          "name": "_return",
          "type": "uint256"
        },
        {
          "indexed": false,
          "internalType": "int256",
          "name": "_conversionFee",
          "type": "int256"
        }
      ],
      "name": "Conversion",
      "type": "event"
    },
    {
      "anonymous": false,
      "inputs": [
        {
          "indexed": false,
          "internalType": "uint32",
          "name": "_prevFee",
          "type": "uint32"
        },
        {
          "indexed": false,
          "internalType": "uint32",
          "name": "_newFee",
          "type": "uint32"
        }
      ],
      "name": "ConversionFeeUpdate",
      "type": "event"
    },
    {
      "anonymous": false,
      "inputs": [
        {
          "indexed": true,
          "internalType": "address",
          "name": "_provider",
          "type": "address"
        },
        {
          "indexed": true,
          "internalType": "contract IERC20Token",
          "name": "_reserveToken",
          "type": "address"
        },
        {
          "indexed": false,
          "internalType": "uint256",
          "name": "_amount",
          "type": "uint256"
        },
        {
          "indexed": false,
          "internalType": "uint256",
          "name": "_newBalance",
          "type": "uint256"
        },
        {
          "indexed": false,
          "internalType": "uint256",
          "name": "_newSupply",
          "type": "uint256"
        }
      ],
      "name": "LiquidityAdded",
      "type": "event"
    },
    {
      "anonymous": false,
      "inputs": [
        {
          "indexed": true,
          "internalType": "address",
          "name": "_provider",
          "type": "address"
        },
        {
          "indexed": true,
          "internalType": "contract IERC20Token",
          "name": "_reserveToken",
          "type": "address"
        },
        {
          "indexed": false,
          "internalType": "uint256",
          "name": "_amount",
          "type": "uint256"
        },
        {
          "indexed": false,
          "internalType": "uint256",
          "name": "_newBalance",
          "type": "uint256"
        },
        {
          "indexed": false,
          "internalType": "uint256",
          "name": "_newSupply",
          "type": "uint256"
        }
      ],
      "name": "LiquidityRemoved",
      "type": "event"
    },
    {
      "anonymous": false,
      "inputs": [
        {
          "indexed": false,
          "internalType": "uint32",
          "name": "_prevFee",
          "type": "uint32"
        },
        {
          "indexed": false,
          "internalType": "uint32",
          "name": "_newFee",
          "type": "uint32"
        }
      ],
      "name": "OracleDeviationFeeUpdate",
      "type": "event"
    },
    {
      "anonymous": false,
      "inputs": [
        {
          "indexed": true,
          "internalType": "address",
          "name": "_prevOwner",
          "type": "address"
        },
        {
          "indexed": true,
          "internalType": "address",
          "name": "_newOwner",
          "type": "address"
        }
      ],
      "name": "OwnerUpdate",
      "type": "event"
    },
    {
      "anonymous": false,
      "inputs": [
        {
          "indexed": true,
          "internalType": "contract IERC20Token",
          "name": "_token1",
          "type": "address"
        },
        {
          "indexed": true,
          "internalType": "contract IERC20Token",
          "name": "_token2",
          "type": "address"
        },
        {
          "indexed": false,
          "internalType": "uint256",
          "name": "_rateN",
          "type": "uint256"
        },
        {
          "indexed": false,
          "internalType": "uint256",
          "name": "_rateD",
          "type": "uint256"
        }
      ],
      "name": "TokenRateUpdate",
      "type": "event"
    },
    {
      "inputs": [],
      "name": "acceptAnchorOwnership",
      "outputs": [],
      "stateMutability": "nonpayable",
      "type": "function"
    },
    {
      "inputs": [],
      "name": "acceptOwnership",
      "outputs": [],
      "stateMutability": "nonpayable",
      "type": "function"
    },
    {
      "inputs": [],
      "name": "acceptTokenOwnership",
      "outputs": [],
      "stateMutability": "nonpayable",
      "type": "function"
    },
    {
      "inputs": [
        {
          "internalType": "contract IERC20Token",
          "name": "_primaryReserveToken",
          "type": "address"
        },
        {
          "internalType": "contract IChainlinkPriceOracle",
          "name": "_primaryReserveOracle",
          "type": "address"
        },
        {
          "internalType": "contract IChainlinkPriceOracle",
          "name": "_secondaryReserveOracle",
          "type": "address"
        }
      ],
      "name": "activate",
      "outputs": [],
      "stateMutability": "nonpayable",
      "type": "function"
    },
    {
      "inputs": [
        {
          "internalType": "contract IERC20Token",
          "name": "_reserveToken",
          "type": "address"
        },
        {
          "internalType": "uint256",
          "name": "_amount",
          "type": "uint256"
        },
        {
          "internalType": "uint256",
          "name": "_minReturn",
          "type": "uint256"
        }
      ],
      "name": "addLiquidity",
      "outputs": [
        {
          "internalType": "uint256",
          "name": "",
          "type": "uint256"
        }
      ],
      "stateMutability": "payable",
      "type": "function"
    },
    {
      "inputs": [
        {
          "internalType": "contract IERC20Token",
          "name": "_token",
          "type": "address"
        },
        {
          "internalType": "uint32",
          "name": "_weight",
          "type": "uint32"
        }
      ],
      "name": "addReserve",
      "outputs": [],
      "stateMutability": "nonpayable",
      "type": "function"
    },
    {
      "inputs": [],
      "name": "anchor",
      "outputs": [
        {
          "internalType": "contract IConverterAnchor",
          "name": "",
          "type": "address"
        }
      ],
      "stateMutability": "view",
      "type": "function"
    },
    {
      "inputs": [],
      "name": "connectorTokenCount",
      "outputs": [
        {
          "internalType": "uint16",
          "name": "",
          "type": "uint16"
        }
      ],
      "stateMutability": "view",
      "type": "function"
    },
    {
      "inputs": [
        {
          "internalType": "uint256",
          "name": "_index",
          "type": "uint256"
        }
      ],
      "name": "connectorTokens",
      "outputs": [
        {
          "internalType": "contract IERC20Token",
          "name": "",
          "type": "address"
        }
      ],
      "stateMutability": "view",
      "type": "function"
    },
    {
      "inputs": [
        {
          "internalType": "contract IERC20Token",
          "name": "_address",
          "type": "address"
        }
      ],
      "name": "connectors",
      "outputs": [
        {
          "internalType": "uint256",
          "name": "",
          "type": "uint256"
        },
        {
          "internalType": "uint32",
          "name": "",
          "type": "uint32"
        },
        {
          "internalType": "bool",
          "name": "",
          "type": "bool"
        },
        {
          "internalType": "bool",
          "name": "",
          "type": "bool"
        },
        {
          "internalType": "bool",
          "name": "",
          "type": "bool"
        }
      ],
      "stateMutability": "view",
      "type": "function"
    },
    {
      "inputs": [],
      "name": "conversionFee",
      "outputs": [
        {
          "internalType": "uint32",
          "name": "",
          "type": "uint32"
        }
      ],
      "stateMutability": "view",
      "type": "function"
    },
    {
      "inputs": [],
      "name": "conversionWhitelist",
      "outputs": [
        {
          "internalType": "contract IWhitelist",
          "name": "",
          "type": "address"
        }
      ],
      "stateMutability": "view",
      "type": "function"
    },
    {
      "inputs": [],
      "name": "conversionsEnabled",
      "outputs": [
        {
          "internalType": "bool",
          "name": "",
          "type": "bool"
        }
      ],
      "stateMutability": "view",
      "type": "function"
    },
    {
      "inputs": [
        {
          "internalType": "contract IERC20Token",
          "name": "_sourceToken",
          "type": "address"
        },
        {
          "internalType": "contract IERC20Token",
          "name": "_targetToken",
          "type": "address"
        },
        {
          "internalType": "uint256",
          "name": "_amount",
          "type": "uint256"
        },
        {
          "internalType": "address",
          "name": "_trader",
          "type": "address"
        },
        {
          "internalType": "address payable",
          "name": "_beneficiary",
          "type": "address"
        }
      ],
      "name": "convert",
      "outputs": [
        {
          "internalType": "uint256",
          "name": "",
          "type": "uint256"
        }
      ],
      "stateMutability": "payable",
      "type": "function"
    },
    {
      "inputs": [],
      "name": "converterType",
      "outputs": [
        {
          "internalType": "uint16",
          "name": "",
          "type": "uint16"
        }
      ],
      "stateMutability": "pure",
      "type": "function"
    },
    {
      "inputs": [],
      "name": "currentTime",
      "outputs": [
        {
          "internalType": "uint256",
          "name": "",
          "type": "uint256"
        }
      ],
      "stateMutability": "view",
      "type": "function"
    },
    {
      "inputs": [],
      "name": "disableMaxStakedBalances",
      "outputs": [],
      "stateMutability": "nonpayable",
      "type": "function"
    },
    {
      "inputs": [],
      "name": "effectiveReserveWeights",
      "outputs": [
        {
          "internalType": "uint256",
          "name": "",
          "type": "uint256"
        },
        {
          "internalType": "uint256",
          "name": "",
          "type": "uint256"
        }
      ],
      "stateMutability": "view",
      "type": "function"
    },
    {
      "inputs": [],
      "name": "effectiveTokensRate",
      "outputs": [
        {
          "internalType": "uint256",
          "name": "",
          "type": "uint256"
        },
        {
          "internalType": "uint256",
          "name": "",
          "type": "uint256"
        }
      ],
      "stateMutability": "view",
      "type": "function"
    },
    {
      "inputs": [],
      "name": "externalRate",
      "outputs": [
        {
          "internalType": "uint256",
          "name": "n",
          "type": "uint256"
        },
        {
          "internalType": "uint256",
          "name": "d",
          "type": "uint256"
        }
      ],
      "stateMutability": "view",
      "type": "function"
    },
    {
      "inputs": [],
      "name": "externalRateUpdateTime",
      "outputs": [
        {
          "internalType": "uint256",
          "name": "",
          "type": "uint256"
        }
      ],
      "stateMutability": "view",
      "type": "function"
    },
    {
      "inputs": [
        {
          "internalType": "contract IERC20Token",
          "name": "_connectorToken",
          "type": "address"
        }
      ],
      "name": "getConnectorBalance",
      "outputs": [
        {
          "internalType": "uint256",
          "name": "",
          "type": "uint256"
        }
      ],
      "stateMutability": "view",
      "type": "function"
    },
    {
      "inputs": [
        {
          "internalType": "contract IERC20Token",
          "name": "_sourceToken",
          "type": "address"
        },
        {
          "internalType": "contract IERC20Token",
          "name": "_targetToken",
          "type": "address"
        },
        {
          "internalType": "uint256",
          "name": "_amount",
          "type": "uint256"
        }
      ],
      "name": "getReturn",
      "outputs": [
        {
          "internalType": "uint256",
          "name": "",
          "type": "uint256"
        },
        {
          "internalType": "uint256",
          "name": "",
          "type": "uint256"
        }
      ],
      "stateMutability": "view",
      "type": "function"
    },
    {
      "inputs": [],
      "name": "hasETHReserve",
      "outputs": [
        {
          "internalType": "bool",
          "name": "",
          "type": "bool"
        }
      ],
      "stateMutability": "view",
      "type": "function"
    },
    {
      "inputs": [],
      "name": "isActive",
      "outputs": [
        {
          "internalType": "bool",
          "name": "",
          "type": "bool"
        }
      ],
      "stateMutability": "view",
      "type": "function"
    },
    {
      "inputs": [],
      "name": "isV28OrHigher",
      "outputs": [
        {
          "internalType": "bool",
          "name": "",
          "type": "bool"
        }
      ],
      "stateMutability": "pure",
      "type": "function"
    },
    {
      "inputs": [
        {
          "internalType": "contract IDSToken",
          "name": "_poolToken",
          "type": "address"
        }
      ],
      "name": "liquidationLimit",
      "outputs": [
        {
          "internalType": "uint256",
          "name": "",
          "type": "uint256"
        }
      ],
      "stateMutability": "view",
      "type": "function"
    },
    {
      "inputs": [],
      "name": "maxConversionFee",
      "outputs": [
        {
          "internalType": "uint32",
          "name": "",
          "type": "uint32"
        }
      ],
      "stateMutability": "view",
      "type": "function"
    },
    {
      "inputs": [],
      "name": "maxStakedBalanceEnabled",
      "outputs": [
        {
          "internalType": "bool",
          "name": "",
          "type": "bool"
        }
      ],
      "stateMutability": "view",
      "type": "function"
    },
    {
      "inputs": [
        {
          "internalType": "contract IERC20Token",
          "name": "",
          "type": "address"
        }
      ],
      "name": "maxStakedBalances",
      "outputs": [
        {
          "internalType": "uint256",
          "name": "",
          "type": "uint256"
        }
      ],
      "stateMutability": "view",
      "type": "function"
    },
    {
      "inputs": [],
      "name": "newOwner",
      "outputs": [
        {
          "internalType": "address",
          "name": "",
          "type": "address"
        }
      ],
      "stateMutability": "view",
      "type": "function"
    },
    {
      "inputs": [],
      "name": "onlyOwnerCanUpdateRegistry",
      "outputs": [
        {
          "internalType": "bool",
          "name": "",
          "type": "bool"
        }
      ],
      "stateMutability": "view",
      "type": "function"
    },
    {
      "inputs": [],
      "name": "oracleDeviationFee",
      "outputs": [
        {
          "internalType": "uint32",
          "name": "",
          "type": "uint32"
        }
      ],
      "stateMutability": "view",
      "type": "function"
    },
    {
      "inputs": [],
      "name": "owner",
      "outputs": [
        {
          "internalType": "address",
          "name": "",
          "type": "address"
        }
      ],
      "stateMutability": "view",
      "type": "function"
    },
    {
      "inputs": [
        {
          "internalType": "contract IERC20Token",
          "name": "_reserveToken",
          "type": "address"
        }
      ],
      "name": "poolToken",
      "outputs": [
        {
          "internalType": "contract IDSToken",
          "name": "",
          "type": "address"
        }
      ],
      "stateMutability": "view",
      "type": "function"
    },
    {
      "inputs": [],
      "name": "prevRegistry",
      "outputs": [
        {
          "internalType": "contract IContractRegistry",
          "name": "",
          "type": "address"
        }
      ],
      "stateMutability": "view",
      "type": "function"
    },
    {
      "inputs": [],
      "name": "priceOracle",
      "outputs": [
        {
          "internalType": "contract IPriceOracle",
          "name": "",
          "type": "address"
        }
      ],
      "stateMutability": "view",
      "type": "function"
    },
    {
      "inputs": [],
      "name": "primaryReserveToken",
      "outputs": [
        {
          "internalType": "contract IERC20Token",
          "name": "",
          "type": "address"
        }
      ],
      "stateMutability": "view",
      "type": "function"
    },
    {
      "inputs": [],
      "name": "registry",
      "outputs": [
        {
          "internalType": "contract IContractRegistry",
          "name": "",
          "type": "address"
        }
      ],
      "stateMutability": "view",
      "type": "function"
    },
    {
      "inputs": [
        {
          "internalType": "contract IDSToken",
          "name": "_poolToken",
          "type": "address"
        },
        {
          "internalType": "uint256",
          "name": "_amount",
          "type": "uint256"
        },
        {
          "internalType": "uint256",
          "name": "_minReturn",
          "type": "uint256"
        }
      ],
      "name": "removeLiquidity",
      "outputs": [
        {
          "internalType": "uint256",
          "name": "",
          "type": "uint256"
        }
      ],
      "stateMutability": "nonpayable",
      "type": "function"
    },
    {
      "inputs": [
        {
          "internalType": "contract IDSToken",
          "name": "_poolToken",
          "type": "address"
        },
        {
          "internalType": "uint256",
          "name": "_amount",
          "type": "uint256"
        }
      ],
      "name": "removeLiquidityReturnAndFee",
      "outputs": [
        {
          "internalType": "uint256",
          "name": "",
          "type": "uint256"
        },
        {
          "internalType": "uint256",
          "name": "",
          "type": "uint256"
        }
      ],
      "stateMutability": "view",
      "type": "function"
    },
    {
      "inputs": [
        {
          "internalType": "contract IERC20Token",
          "name": "_reserveToken",
          "type": "address"
        }
      ],
      "name": "reserveAmplifiedBalance",
      "outputs": [
        {
          "internalType": "uint256",
          "name": "",
          "type": "uint256"
        }
      ],
      "stateMutability": "view",
      "type": "function"
    },
    {
      "inputs": [
        {
          "internalType": "contract IERC20Token",
          "name": "_reserveToken",
          "type": "address"
        }
      ],
      "name": "reserveBalance",
      "outputs": [
        {
          "internalType": "uint256",
          "name": "",
          "type": "uint256"
        }
      ],
      "stateMutability": "view",
      "type": "function"
    },
    {
      "inputs": [],
      "name": "reserveRatio",
      "outputs": [
        {
          "internalType": "uint32",
          "name": "",
          "type": "uint32"
        }
      ],
      "stateMutability": "view",
      "type": "function"
    },
    {
      "inputs": [
        {
          "internalType": "contract IERC20Token",
          "name": "_reserveToken",
          "type": "address"
        }
      ],
      "name": "reserveStakedBalance",
      "outputs": [
        {
          "internalType": "uint256",
          "name": "",
          "type": "uint256"
        }
      ],
      "stateMutability": "view",
      "type": "function"
    },
    {
      "inputs": [],
      "name": "reserveTokenCount",
      "outputs": [
        {
          "internalType": "uint16",
          "name": "",
          "type": "uint16"
        }
      ],
      "stateMutability": "view",
      "type": "function"
    },
    {
      "inputs": [
        {
          "internalType": "uint256",
          "name": "",
          "type": "uint256"
        }
      ],
      "name": "reserveTokens",
      "outputs": [
        {
          "internalType": "contract IERC20Token",
          "name": "",
          "type": "address"
        }
      ],
      "stateMutability": "view",
      "type": "function"
    },
    {
      "inputs": [
        {
          "internalType": "contract IERC20Token",
          "name": "_reserveToken",
          "type": "address"
        }
      ],
      "name": "reserveWeight",
      "outputs": [
        {
          "internalType": "uint32",
          "name": "",
          "type": "uint32"
        }
      ],
      "stateMutability": "view",
      "type": "function"
    },
    {
      "inputs": [
        {
          "internalType": "contract IERC20Token",
          "name": "",
          "type": "address"
        }
      ],
      "name": "reserves",
      "outputs": [
        {
          "internalType": "uint256",
          "name": "balance",
          "type": "uint256"
        },
        {
          "internalType": "uint32",
          "name": "weight",
          "type": "uint32"
        },
        {
          "internalType": "bool",
          "name": "deprecated1",
          "type": "bool"
        },
        {
          "internalType": "bool",
          "name": "deprecated2",
          "type": "bool"
        },
        {
          "internalType": "bool",
          "name": "isSet",
          "type": "bool"
        }
      ],
      "stateMutability": "view",
      "type": "function"
    },
    {
      "inputs": [],
      "name": "restoreRegistry",
      "outputs": [],
      "stateMutability": "nonpayable",
      "type": "function"
    },
    {
      "inputs": [
        {
          "internalType": "bool",
          "name": "_onlyOwnerCanUpdateRegistry",
          "type": "bool"
        }
      ],
      "name": "restrictRegistryUpdate",
      "outputs": [],
      "stateMutability": "nonpayable",
      "type": "function"
    },
    {
      "inputs": [],
      "name": "secondaryReserveToken",
      "outputs": [
        {
          "internalType": "contract IERC20Token",
          "name": "",
          "type": "address"
        }
      ],
      "stateMutability": "view",
      "type": "function"
    },
    {
      "inputs": [
        {
          "internalType": "uint32",
          "name": "_conversionFee",
          "type": "uint32"
        }
      ],
      "name": "setConversionFee",
      "outputs": [],
      "stateMutability": "nonpayable",
      "type": "function"
    },
    {
      "inputs": [
        {
          "internalType": "contract IWhitelist",
          "name": "_whitelist",
          "type": "address"
        }
      ],
      "name": "setConversionWhitelist",
      "outputs": [],
      "stateMutability": "nonpayable",
      "type": "function"
    },
    {
      "inputs": [
        {
          "internalType": "uint256",
          "name": "_externalRateUpdateTime",
          "type": "uint256"
        }
      ],
      "name": "setExternalRateUpdateTime",
      "outputs": [],
      "stateMutability": "nonpayable",
      "type": "function"
    },
    {
      "inputs": [
        {
          "internalType": "uint256",
          "name": "_reserve1MaxStakedBalance",
          "type": "uint256"
        },
        {
          "internalType": "uint256",
          "name": "_reserve2MaxStakedBalance",
          "type": "uint256"
        }
      ],
      "name": "setMaxStakedBalances",
      "outputs": [],
      "stateMutability": "nonpayable",
      "type": "function"
    },
    {
      "inputs": [
        {
          "internalType": "uint32",
          "name": "_oracleDeviationFee",
          "type": "uint32"
        }
      ],
      "name": "setOracleDeviationFee",
      "outputs": [],
      "stateMutability": "nonpayable",
      "type": "function"
    },
    {
      "inputs": [
        {
          "internalType": "contract IERC20Token",
          "name": "_reserveToken",
          "type": "address"
        },
        {
          "internalType": "uint256",
          "name": "_balance",
          "type": "uint256"
        }
      ],
      "name": "setReserveStakedBalance",
      "outputs": [],
      "stateMutability": "nonpayable",
      "type": "function"
    },
    {
      "inputs": [
        {
          "internalType": "contract IERC20Token",
          "name": "_reserveToken",
          "type": "address"
        },
        {
          "internalType": "uint32",
          "name": "_weight",
          "type": "uint32"
        }
      ],
      "name": "setReserveWeight",
      "outputs": [],
      "stateMutability": "nonpayable",
      "type": "function"
    },
    {
      "inputs": [
        {
          "internalType": "uint256",
          "name": "_currentTime",
          "type": "uint256"
        }
      ],
      "name": "setTime",
      "outputs": [],
      "stateMutability": "nonpayable",
      "type": "function"
    },
    {
      "inputs": [
        {
          "internalType": "contract IERC20Token",
          "name": "_sourceToken",
          "type": "address"
        },
        {
          "internalType": "contract IERC20Token",
          "name": "_targetToken",
          "type": "address"
        },
        {
          "internalType": "uint256",
          "name": "_amount",
          "type": "uint256"
        }
      ],
      "name": "targetAmountAndFee",
      "outputs": [
        {
          "internalType": "uint256",
          "name": "",
          "type": "uint256"
        },
        {
          "internalType": "uint256",
          "name": "",
          "type": "uint256"
        }
      ],
      "stateMutability": "view",
      "type": "function"
    },
    {
      "inputs": [],
      "name": "token",
      "outputs": [
        {
          "internalType": "contract IConverterAnchor",
          "name": "",
          "type": "address"
        }
      ],
      "stateMutability": "view",
      "type": "function"
    },
    {
      "inputs": [
        {
          "internalType": "address",
          "name": "_newOwner",
          "type": "address"
        }
      ],
      "name": "transferAnchorOwnership",
      "outputs": [],
      "stateMutability": "nonpayable",
      "type": "function"
    },
    {
      "inputs": [
        {
          "internalType": "address",
          "name": "_newOwner",
          "type": "address"
        }
      ],
      "name": "transferOwnership",
      "outputs": [],
      "stateMutability": "nonpayable",
      "type": "function"
    },
    {
      "inputs": [
        {
          "internalType": "address",
          "name": "_newOwner",
          "type": "address"
        }
      ],
      "name": "transferTokenOwnership",
      "outputs": [],
      "stateMutability": "nonpayable",
      "type": "function"
    },
    {
      "inputs": [],
      "name": "updateRegistry",
      "outputs": [],
      "stateMutability": "nonpayable",
      "type": "function"
    },
    {
      "inputs": [],
      "name": "upgrade",
      "outputs": [],
      "stateMutability": "nonpayable",
      "type": "function"
    },
    {
      "inputs": [],
      "name": "version",
      "outputs": [
        {
          "internalType": "uint16",
          "name": "",
          "type": "uint16"
        }
      ],
      "stateMutability": "view",
      "type": "function"
    },
    {
      "inputs": [
        {
          "internalType": "address payable",
          "name": "_to",
          "type": "address"
        }
      ],
      "name": "withdrawETH",
      "outputs": [],
      "stateMutability": "nonpayable",
      "type": "function"
    },
    {
      "inputs": [
        {
          "internalType": "contract IERC20Token",
          "name": "_token",
          "type": "address"
        },
        {
          "internalType": "address",
          "name": "_to",
          "type": "address"
        },
        {
          "internalType": "uint256",
          "name": "_amount",
          "type": "uint256"
        }
      ],
      "name": "withdrawTokens",
      "outputs": [],
      "stateMutability": "nonpayable",
      "type": "function"
    },
    {
      "stateMutability": "payable",
      "type": "receive"
    }
  ],
  "bytecode": "0x60806040526003805460ff60a81b19169055600880546001600160601b03191690556012805460ff191660011764ffffffff001916622710001790553480156200004857600080fd5b5060405162004e1f38038062004e1f833981810160405260608110156200006e57600080fd5b5080516020820151604090920151600080546001600160a01b031916331790559091908282828282828282828180620000a78162000144565b50600280546001600160a01b039092166001600160a01b031992831681179091556003805490921617905582620000de8162000144565b81620000ea81620001a3565b5050600480546001600160a01b039094166001600160a01b031990941693909317909255506008805463ffffffff9092166401000000000263ffffffff60201b199092169190911790555062000202975050505050505050565b6001600160a01b038116620001a0576040805162461bcd60e51b815260206004820152601360248201527f4552525f494e56414c49445f4144445245535300000000000000000000000000604482015290519081900360640190fd5b50565b620f424063ffffffff82161115620001a0576040805162461bcd60e51b815260206004820152601a60248201527f4552525f494e56414c49445f434f4e56455253494f4e5f464545000000000000604482015290519081900360640190fd5b614c0d80620002126000396000f3fe6080604052600436106104085760003560e01c80636a49d2c411610213578063d260529c11610123578063ddd9abbf116100ab578063ecbca55d1161007a578063ecbca55d14610eb0578063f2fde38b14610ee0578063f64ccbfb14610f13578063fc0c546a14610f3d578063fd2d6c7c14610f5257610499565b8063ddd9abbf14610de6578063e38192e314610e16578063e8dc12ff14610e55578063ec2240f514610e9b57610499565b8063d66bd524116100f2578063d66bd52414610d23578063d895951214610d56578063db2830a414610d89578063dc75eb9a14610d9e578063dc8de37914610db357610499565b8063d260529c14610ccf578063d3fb73b414610ce4578063d4ee1d9014610cf9578063d55ec69714610d0e57610499565b8063ab28b174116101a6578063bf7da6ba11610175578063bf7da6ba14610c2d578063c45d3d9214610c66578063cdc91c6914610c7b578063d031370b14610c90578063d18e81b314610cba57610499565b8063ab28b17414610bab578063af94b8d814610bc0578063b4a176d314610c03578063bf75455814610c1857610499565b80638da5cb5b116101e25780638da5cb5b14610b3957806394c275ad14610b4e57806398a71dcb14610b635780639b99a8e214610b9657610499565b80636a49d2c414610abb57806371f52bf314610afa57806379ba509714610b0f5780637b10399914610b2457610499565b80632fe8a6ad1161031957806355776b77116102a15780635e35359e116102705780635e35359e146109c457806361cd756e14610a0757806367b6d57c14610a1c57806369067d9514610a4f578063690d832014610a8857610499565b806355776b771461090b5780635768adcf1461093d578063579cd3ca1461097057806359cd4eec1461098557610499565b80633e8ff43f116102e85780633e8ff43f14610852578063467494681461087e57806349d10b64146108ae5780634af80f0e146108c357806354fd4d50146108f657610499565b80632fe8a6ad146107e957806334d084b9146107fe57806338a5e016146108135780633beb26c41461082857610499565b806316912f961161039c57806321e6b53d1161036b57806321e6b53d1461072657806322f3e2d4146107595780632630c12f1461076e5780632bd3c107146107835780632bf0c985146107b657610499565b806316912f961461065857806319b640151461066d5780631cfab290146106975780631e1401f8146106ca57610499565b80630c7d5cd8116103d85780630c7d5cd8146105695780630e53aae914610597578063119b90cd146105fe57806312c2aca41461064357610499565b80625e319c1461049e578063024c7ec7146104e35780630337e3fb1461050f5780630a55fb3d1461054057610499565b3661049957600080516020614bb883398151915260005260076020527fb2084a3e4595ccf007fb44245853374aaf0de960074375e8e0fb334712e94d0f54600160301b900460ff16610497576040805162461bcd60e51b81526020600482015260136024820152724552525f494e56414c49445f5245534552564560681b604482015290519081900360640190fd5b005b600080fd5b3480156104aa57600080fd5b506104d1600480360360208110156104c157600080fd5b50356001600160a01b0316610f67565b60408051918252519081900360200190f35b3480156104ef57600080fd5b506104976004803603602081101561050657600080fd5b50351515610f90565b34801561051b57600080fd5b50610524610fb6565b604080516001600160a01b039092168252519081900360200190f35b34801561054c57600080fd5b50610555610fc5565b604080519115158252519081900360200190f35b34801561057557600080fd5b5061057e610fce565b6040805163ffffffff9092168252519081900360200190f35b3480156105a357600080fd5b506105ca600480360360208110156105ba57600080fd5b50356001600160a01b0316610fda565b6040805195865263ffffffff9094166020860152911515848401521515606084015215156080830152519081900360a00190f35b34801561060a57600080fd5b506104976004803603606081101561062157600080fd5b506001600160a01b038135811691602081013582169160409091013516611072565b34801561064f57600080fd5b5061055561161b565b34801561066457600080fd5b50610497611661565b34801561067957600080fd5b506105246004803603602081101561069057600080fd5b5035611675565b3480156106a357600080fd5b5061057e600480360360208110156106ba57600080fd5b50356001600160a01b031661169f565b3480156106d657600080fd5b5061070d600480360360608110156106ed57600080fd5b506001600160a01b038135811691602081013590911690604001356116d1565b6040805192835260208301919091528051918290030190f35b34801561073257600080fd5b506104976004803603602081101561074957600080fd5b50356001600160a01b03166116eb565b34801561076557600080fd5b506105556116ff565b34801561077a57600080fd5b5061052461172b565b34801561078f57600080fd5b506104d1600480360360208110156107a657600080fd5b50356001600160a01b0316611741565b3480156107c257600080fd5b506104d1600480360360208110156107d957600080fd5b50356001600160a01b031661175d565b3480156107f557600080fd5b50610555611828565b34801561080a57600080fd5b5061057e611838565b34801561081f57600080fd5b50610497611849565b34801561083457600080fd5b506104976004803603602081101561084b57600080fd5b503561185b565b34801561085e57600080fd5b50610867611860565b6040805161ffff9092168252519081900360200190f35b34801561088a57600080fd5b50610497600480360360408110156108a157600080fd5b5080359060200135611865565b3480156108ba57600080fd5b506104976118e7565b3480156108cf57600080fd5b50610497600480360360208110156108e657600080fd5b50356001600160a01b0316611aef565b34801561090257600080fd5b50610867611b24565b6104d16004803603606081101561092157600080fd5b506001600160a01b038135169060208101359060400135611b29565b34801561094957600080fd5b506105246004803603602081101561096057600080fd5b50356001600160a01b031661201b565b34801561097c57600080fd5b5061057e612039565b34801561099157600080fd5b50610497600480360360408110156109a857600080fd5b5080356001600160a01b0316906020013563ffffffff1661204c565b3480156109d057600080fd5b50610497600480360360608110156109e757600080fd5b506001600160a01b03813581169160208101359091169060400135612108565b348015610a1357600080fd5b50610524612239565b348015610a2857600080fd5b5061049760048036036020811015610a3f57600080fd5b50356001600160a01b0316612248565b348015610a5b57600080fd5b5061070d60048036036040811015610a7257600080fd5b506001600160a01b0381351690602001356122f4565b348015610a9457600080fd5b5061049760048036036020811015610aab57600080fd5b50356001600160a01b0316612432565b348015610ac757600080fd5b5061049760048036036040811015610ade57600080fd5b5080356001600160a01b0316906020013563ffffffff16612559565b348015610b0657600080fd5b506108676125cb565b348015610b1b57600080fd5b506104976125d5565b348015610b3057600080fd5b5061052461268c565b348015610b4557600080fd5b5061052461269b565b348015610b5a57600080fd5b5061057e6126aa565b348015610b6f57600080fd5b506104d160048036036020811015610b8657600080fd5b50356001600160a01b03166126be565b348015610ba257600080fd5b506108676126d0565b348015610bb757600080fd5b5061070d6126d6565b348015610bcc57600080fd5b5061070d60048036036060811015610be357600080fd5b506001600160a01b038135811691602081013590911690604001356126df565b348015610c0f57600080fd5b50610497612815565b348015610c2457600080fd5b50610555612841565b348015610c3957600080fd5b5061049760048036036040811015610c5057600080fd5b506001600160a01b038135169060200135612846565b348015610c7257600080fd5b5061052461289a565b348015610c8757600080fd5b506104976128a9565b348015610c9c57600080fd5b5061052460048036036020811015610cb357600080fd5b503561290d565b348015610cc657600080fd5b506104d1612934565b348015610cdb57600080fd5b5061055561293a565b348015610cf057600080fd5b5061052461293f565b348015610d0557600080fd5b5061052461294e565b348015610d1a57600080fd5b5061049761295d565b348015610d2f57600080fd5b506105ca60048036036020811015610d4657600080fd5b50356001600160a01b0316612a45565b348015610d6257600080fd5b506104d160048036036020811015610d7957600080fd5b50356001600160a01b0316612a88565b348015610d9557600080fd5b5061070d612a99565b348015610daa57600080fd5b50610524612abf565b348015610dbf57600080fd5b506104d160048036036020811015610dd657600080fd5b50356001600160a01b0316612ace565b348015610df257600080fd5b5061049760048036036020811015610e0957600080fd5b503563ffffffff16612af7565b348015610e2257600080fd5b506104d160048036036060811015610e3957600080fd5b506001600160a01b038135169060208101359060400135612bc9565b6104d1600480360360a0811015610e6b57600080fd5b506001600160a01b0381358116916020810135821691604082013591606081013582169160809091013516612ebe565b348015610ea757600080fd5b5061070d6130ce565b348015610ebc57600080fd5b5061049760048036036020811015610ed357600080fd5b503563ffffffff16613149565b348015610eec57600080fd5b5061049760048036036020811015610f0357600080fd5b50356001600160a01b0316613231565b348015610f1f57600080fd5b5061049760048036036020811015610f3657600080fd5b50356132af565b348015610f4957600080fd5b506105246132b4565b348015610f5e57600080fd5b506104d16132c3565b600081610f73816132c9565b50506001600160a01b03166000908152600b602052604090205490565b610f98613336565b60038054911515600160a01b0260ff60a01b19909216919091179055565b6009546001600160a01b031681565b60125460ff1681565b60085463ffffffff1681565b6000806000806000610fea614b6f565b505050506001600160a01b03929092166000908152600760209081526040808320815160a081018352815480825260019092015463ffffffff811694820185905260ff64010000000082048116151594830194909452650100000000008104841615156060830152600160301b90049092161515608090920182905295919450919250829190565b61107a613389565b611082613336565b8261108c816132c9565b82611096816133d0565b826110a0816133d0565b846110aa81613424565b846110b481613424565b6004805460408051638da5cb5b60e01b8152905130936001600160a01b0390931692638da5cb5b92808201926020929091829003018186803b1580156110f957600080fd5b505afa15801561110d573d6000803e3d6000fd5b505050506040513d602081101561112357600080fd5b50516001600160a01b031614611177576040805162461bcd60e51b815260206004820152601460248201527311549497d05390d213d497d393d517d3d5d3915160621b604482015290519081900360640190fd5b60006111a27f436861696e6c696e6b4f7261636c6557686974656c6973740000000000000000613475565b9050806001600160a01b0316633af32abf896040518263ffffffff1660e01b815260040180826001600160a01b0316815260200191505060206040518083038186803b1580156111f157600080fd5b505afa158015611205573d6000803e3d6000fd5b505050506040513d602081101561121b57600080fd5b5051801561129e5750806001600160a01b0316633af32abf886040518263ffffffff1660e01b815260040180826001600160a01b0316815260200191505060206040518083038186803b15801561127157600080fd5b505afa158015611285573d6000803e3d6000fd5b505050506040513d602081101561129b57600080fd5b50515b6112e4576040805162461bcd60e51b81526020600482015260126024820152714552525f494e56414c49445f4f5241434c4560701b604482015290519081900360640190fd5b6112ec6134f3565b600980546001600160a01b0319166001600160a01b038b161790556006805460009061131457fe5b6000918252602090912001546001600160a01b038a81169116141561137157600660018154811061134157fe5b600091825260209091200154600a80546001600160a01b0319166001600160a01b039092169190911790556113ab565b600660008154811061137f57fe5b600091825260209091200154600a80546001600160a01b0319166001600160a01b039092169190911790555b60006113c96f436f6e766572746572466163746f727960801b613475565b6001600160a01b031663c977aed26113df611860565b6040518263ffffffff1660e01b8152600401808261ffff16815260200191505060206040518083038186803b15801561141757600080fd5b505afa15801561142b573d6000803e3d6000fd5b505050506040513d602081101561144157600080fd5b5051600a5460408051630d93a22760e11b81526001600160a01b038e8116600483015292831660248201528c831660448201528b83166064820152905192935090831691631b27444e916084808201926020929091908290030181600087803b1580156114ad57600080fd5b505af11580156114c1573d6000803e3d6000fd5b505050506040513d60208110156114d757600080fd5b5051600880546001600160a01b03909216600160601b026bffffffffffffffffffffffff90921691909117905561150c613755565b8051600e5560200151600f5561152061380d565b60105560095460009061153b906001600160a01b0316610f67565b600954909150600090611556906001600160a01b0316612ace565b600a54909150600090611571906001600160a01b0316612ace565b90508183141561159c57600083118061158a5750600081115b1561159757611597613827565b6115c5565b6000831180156115ac5750600082115b80156115b85750600081115b156115c5576115c5613827565b6004546001906001600160a01b03166115dc611860565b61ffff167f6b08c2e2c9969e55a647a764db9b554d64dc42f1a704da11a6d5b129ad163f2c60405160405180910390a450505050505050505050505050565b600080516020614bb883398151915260005260076020527fb2084a3e4595ccf007fb44245853374aaf0de960074375e8e0fb334712e94d0f54600160301b900460ff1690565b611669613336565b6012805460ff19169055565b60006006828154811061168457fe5b6000918252602090912001546001600160a01b031692915050565b6000816116ab816132c9565b50506001600160a01b031660009081526007602052604090206001015463ffffffff1690565b6000806116df8585856126df565b91509150935093915050565b6116f3613336565b6116fc81612248565b50565b600061170961389c565b80156117265750600854600160601b90046001600160a01b031615155b905090565b600854600160601b90046001600160a01b031681565b60008161174d816132c9565b6117568361391b565b9392505050565b600080826001600160a01b03166318160ddd6040518163ffffffff1660e01b815260040160206040518083038186803b15801561179957600080fd5b505afa1580156117ad573d6000803e3d6000fd5b505050506040513d60208110156117c357600080fd5b50516001600160a01b038085166000908152600d60205260408120549293509116906117ee82612ace565b6001600160a01b0383166000908152600b602052604090205490915061181e816118188487613955565b906139b3565b9695505050505050565b600354600160a01b900460ff1681565b601254610100900463ffffffff1681565b611851613336565b6118596128a9565b565b601355565b600290565b61186d613336565b8160116000600660008154811061188057fe5b60009182526020808320909101546001600160a01b03168352820192909252604001812091909155600680548392601192909160019081106118be57fe5b60009182526020808320909101546001600160a01b031683528201929092526040019020555050565b6000546001600160a01b031633148061190a5750600354600160a01b900460ff16155b61194f576040805162461bcd60e51b815260206004820152601160248201527011549497d050d0d154d4d7d11153925151607a1b604482015290519081900360640190fd5b600061196d6f436f6e7472616374526567697374727960801b613475565b6002549091506001600160a01b0380831691161480159061199657506001600160a01b03811615155b6119de576040805162461bcd60e51b81526020600482015260146024820152734552525f494e56414c49445f524547495354525960601b604482015290519081900360640190fd5b60006001600160a01b0316816001600160a01b031663bb34534c6f436f6e7472616374526567697374727960801b6040518263ffffffff1660e01b81526004018082815260200191505060206040518083038186803b158015611a4057600080fd5b505afa158015611a54573d6000803e3d6000fd5b505050506040513d6020811015611a6a57600080fd5b50516001600160a01b03161415611abf576040805162461bcd60e51b81526020600482015260146024820152734552525f494e56414c49445f524547495354525960601b604482015290519081900360640190fd5b60028054600380546001600160a01b038084166001600160a01b0319928316179092559091169216919091179055565b611af7613336565b80611b01816133d0565b50600580546001600160a01b0319166001600160a01b0392909216919091179055565b602881565b6000611b33613a12565b6003805460ff60a81b1916600160a81b179055611b4e613a62565b83611b58816132c9565b83611b6281613aaa565b83611b6c81613aaa565b6001600160a01b038716600080516020614bb883398151915214611b91573415611b95565b8534145b611be0576040805162461bcd60e51b815260206004820152601760248201527608aa4a4be8aa890be829a9eaa9ca8be9a92a69a82a8869604b1b604482015290519081900360640190fd5b611be8613af0565b6001600160a01b038716600080516020614bb88339815191521415611c8457600080516020614bb883398151915260005260076020527fb2084a3e4595ccf007fb44245853374aaf0de960074375e8e0fb334712e94d0e54611c4a9034613b30565b600080516020614bb883398151915260005260076020527fb2084a3e4595ccf007fb44245853374aaf0de960074375e8e0fb334712e94d0e555b6001600160a01b0387166000908152600b602052604090205460125460ff1615611d3f576001600160a01b0388166000908152601160205260409020541580611cee57506001600160a01b038816600090815260116020526040902054611ceb8289613b7d565b11155b611d3f576040805162461bcd60e51b815260206004820152601e60248201527f4552525f4d41585f5354414b45445f42414c414e43455f524541434845440000604482015290519081900360640190fd5b6001600160a01b038089166000908152600c602090815260408083205481516318160ddd60e01b8152915194169384926318160ddd9260048082019391829003018186803b158015611d9057600080fd5b505afa158015611da4573d6000803e3d6000fd5b505050506040513d6020811015611dba57600080fd5b505190506001600160a01b038a16600080516020614bb883398151915214611de857611de88a33308c613bc6565b6001600160a01b038a16600090815260076020526040902054611e0b908a613b7d565b6001600160a01b038b16600090815260076020526040902055611e2e838a613b7d565b6001600160a01b038b166000908152600b6020526040812091909155831580611e55575081155b15611e61575088611e72565b611e6f846118188c85613955565b90505b88811015611ebc576040805162461bcd60e51b81526020600482015260126024820152714552525f52455455524e5f544f4f5f4c4f5760701b604482015290519081900360640190fd5b6004805460408051636361ddf360e11b81526001600160a01b0387811694820194909452336024820152604481018590529051929091169163c6c3bbe69160648082019260009290919082900301818387803b158015611f1b57600080fd5b505af1158015611f2f573d6000803e3d6000fd5b50505050611f3b613827565b6001600160a01b038b16337f4a1a2a6176e9646d9e3157f7c2ab3c499f18337c0b0828cfb28e0a61de4a11f78c611f728882613b7d565b611f7c8787613b7d565b60408051938452602084019290925282820152519081900360600190a3611fad83611fa78484613b7d565b8d613d31565b6120006006600081548110611fbe57fe5b600091825260209091200154600680546001600160a01b03909216916001908110611fe557fe5b60009182526020822001546001600160a01b03169080613d91565b6003805460ff60a81b191690559a9950505050505050505050565b6001600160a01b039081166000908152600c60205260409020541690565b600854600160401b900463ffffffff1681565b81612056816132c9565b6001600160a01b038381166000818152600760205260409020600101805463ffffffff191663ffffffff861617905560095490911614156120cc57600a546001600160a01b03166000908152600760205260409020600101805463ffffffff1916620f424084900363ffffffff16179055612103565b6009546001600160a01b03166000908152600760205260409020600101805463ffffffff1916620f424084900363ffffffff161790555b505050565b612110613a12565b6003805460ff60a81b1916600160a81b17905561212b613336565b6000612150762130b731b7b921b7b73b32b93a32b92ab833b930b232b960491b613475565b6001600160a01b038516600090815260076020526040902060010154909150600160301b900460ff16158061218a57506121886116ff565b155b806121a257506000546001600160a01b038281169116145b6121e7576040805162461bcd60e51b815260206004820152601160248201527011549497d050d0d154d4d7d11153925151607a1b604482015290519081900360640190fd5b6121f2848484613e64565b6001600160a01b038416600090815260076020526040902060010154600160301b900460ff16156122265761222684613e95565b50506003805460ff60a81b191690555050565b6003546001600160a01b031681565b612250613336565b762130b731b7b921b7b73b32b93a32b92ab833b930b232b960491b61227481613f6d565b600460009054906101000a90046001600160a01b03166001600160a01b031663f2fde38b836040518263ffffffff1660e01b815260040180826001600160a01b03168152602001915050600060405180830381600087803b1580156122d857600080fd5b505af11580156122ec573d6000803e3d6000fd5b505050505050565b6000806000846001600160a01b03166318160ddd6040518163ffffffff1660e01b815260040160206040518083038186803b15801561233257600080fd5b505afa158015612346573d6000803e3d6000fd5b505050506040513d602081101561235c57600080fd5b50516001600160a01b038087166000908152600d60209081526040808320549093168252600b9052205490915081851015612423576009546001600160a01b03166000908152600b60205260408120546123b7906014613955565b6009549091506000906123d2906001600160a01b031661391b565b90506000808284106123e55782846123e8565b83835b909250905060006123fd876118188c89613955565b9050600061240f836118188487613955565b995050889003965061242b95505050505050565b925060009150505b9250929050565b61243a613a12565b6003805460ff60a81b1916600160a81b179055612455613336565b600080516020614bb883398151915261246d816132c9565b6000612492762130b731b7b921b7b73b32b93a32b92ab833b930b232b960491b613475565b905061249c6116ff565b15806124b557506000546001600160a01b038281169116145b6124fa576040805162461bcd60e51b815260206004820152601160248201527011549497d050d0d154d4d7d11153925151607a1b604482015290519081900360640190fd5b6040516001600160a01b038416904780156108fc02916000818181858888f1935050505015801561252f573d6000803e3d6000fd5b50612547600080516020614bb8833981519152613e95565b50506003805460ff60a81b1916905550565b612561613336565b600261256b6126d0565b61ffff16106125bd576040805162461bcd60e51b815260206004820152601960248201527811549497d253959053125117d49154d154959157d0d3d55395603a1b604482015290519081900360640190fd5b6125c78282613fcf565b5050565b60006117266126d0565b6001546001600160a01b03163314612628576040805162461bcd60e51b815260206004820152601160248201527011549497d050d0d154d4d7d11153925151607a1b604482015290519081900360640190fd5b600154600080546040516001600160a01b0393841693909116917f343765429aea5a34b3ff6a3785a98a5abb2597aca87bfbb58632c173d585373a91a360018054600080546001600160a01b03199081166001600160a01b03841617909155169055565b6002546001600160a01b031681565b6000546001600160a01b031681565b600854640100000000900463ffffffff1681565b60116020526000908152604090205481565b60065490565b600e54600f5482565b6000806126ea613a62565b846126f4816132c9565b846126fe816132c9565b856001600160a01b0316876001600160a01b0316141561275e576040805162461bcd60e51b815260206004820152601660248201527511549497d4d0535157d4d3d55490d157d5105491d15560521b604482015290519081900360640190fd5b60008061276961380d565b60105414156127a25750506001600160a01b03871660009081526007602052604090206001015463ffffffff16620f42408190036127f1565b6127aa614b9d565b6127b2613755565b90506000806127c0836141f1565b60095491935091506001600160a01b038d8116911614156127e6578194508093506127ed565b8094508193505b5050505b6000806128018b8b86868d614306565b919d919c50909a5050505050505050505050565b61281d613336565b600354600280546001600160a01b0319166001600160a01b03909216919091179055565b600181565b61284e613336565b762130b731b7b921b7b73b32b93a32b92ab833b930b232b960491b61287281613f6d565b8261287c816132c9565b50506001600160a01b039091166000908152600b6020526040902055565b6005546001600160a01b031681565b60016128b36126d0565b61ffff1611612905576040805162461bcd60e51b815260206004820152601960248201527811549497d253959053125117d49154d154959157d0d3d55395603a1b604482015290519081900360640190fd5b611859614437565b6006818154811061291a57fe5b6000918252602090912001546001600160a01b0316905081565b60135481565b600190565b6004546001600160a01b031681565b6001546001600160a01b031681565b612965613336565b600061298a762130b731b7b921b7b73b32b93a32b92ab833b930b232b960491b613475565b6004549091506000906001600160a01b03166129a4611860565b61ffff167f6b08c2e2c9969e55a647a764db9b554d64dc42f1a704da11a6d5b129ad163f2c60405160405180910390a46129dd81613231565b6040805163487ac64b60e11b81526028600482015290516001600160a01b038316916390f58c9691602480830192600092919082900301818387803b158015612a2557600080fd5b505af1158015612a39573d6000803e3d6000fd5b505050506116fc6125d5565b6007602052600090815260409020805460019091015463ffffffff81169060ff6401000000008204811691650100000000008104821691600160301b9091041685565b6000612a9382612ace565b92915050565b600080612aa4614b9d565b612aac613755565b80516020909101519093509150505b9091565b600a546001600160a01b031681565b600081612ada816132c9565b50506001600160a01b031660009081526007602052604090205490565b612aff613336565b620f424063ffffffff82161115612b5d576040805162461bcd60e51b815260206004820181905260248201527f4552525f494e56414c49445f4f5241434c455f444556494154494f4e5f464545604482015290519081900360640190fd5b6012546040805163ffffffff61010090930483168152918316602083015280517f4f6fed4838e1f48d74a10449b9152126aae795e67e8eba0fedacdeefdf19a8de9281900390910190a16012805463ffffffff9092166101000264ffffffff0019909216919091179055565b6000612bd3613a12565b6003805460ff60a81b1916600160a81b179055612bee613a62565b83612bf8816144fe565b83612c0281613aaa565b83612c0c81613aaa565b612c14613af0565b6000876001600160a01b03166318160ddd6040518163ffffffff1660e01b815260040160206040518083038186803b158015612c4f57600080fd5b505afa158015612c63573d6000803e3d6000fd5b505050506040513d6020811015612c7957600080fd5b505190506000612c8989896122f4565b50905086811015612cd6576040805162461bcd60e51b81526020600482015260126024820152714552525f52455455524e5f544f4f5f4c4f5760701b604482015290519081900360640190fd5b6001600160a01b03808a166000818152600d602052604080822054600480548351633dae446f60e21b815291820195909552336024820152604481018e9052915190851694939093169263f6b911bc9260648084019391929182900301818387803b158015612d4457600080fd5b505af1158015612d58573d6000803e3d6000fd5b5050506001600160a01b038216600090815260076020526040902054612d7f915083613b30565b6001600160a01b038216600090815260076020908152604080832093909355600b905290812054612db09084613b30565b6001600160a01b0383166000818152600b60205260409020829055909150600080516020614bb88339815191521415612e1657604051339084156108fc029085906000818181858888f19350505050158015612e10573d6000803e3d6000fd5b50612e21565b612e21823385614563565b612e29613827565b6000612e35858c613b30565b604080518681526020810185905280820183905290519192506001600160a01b0385169133917fbc7d19d505c7ec4db83f3b51f19fb98c4c8a99922e7839d1ee608dfbee29501b919081900360600190a3612e918c8285613d31565b612ea26006600081548110611fbe57fe5b50506003805460ff60a81b191690555098975050505050505050565b6000612ec8613a12565b6003805460ff60a81b1916600160a81b1790556c42616e636f724e6574776f726b60981b612ef581613f6d565b856001600160a01b0316876001600160a01b03161415612f55576040805162461bcd60e51b815260206004820152601660248201527511549497d4d0535157d4d3d55490d157d5105491d15560521b604482015290519081900360640190fd5b6005546001600160a01b03161580613062575060055460408051633af32abf60e01b81526001600160a01b03878116600483015291519190921691633af32abf916024808301926020929190829003018186803b158015612fb557600080fd5b505afa158015612fc9573d6000803e3d6000fd5b505050506040513d6020811015612fdf57600080fd5b50518015613062575060055460408051633af32abf60e01b81526001600160a01b03868116600483015291519190921691633af32abf916024808301926020929190829003018186803b15801561303557600080fd5b505afa158015613049573d6000803e3d6000fd5b505050506040513d602081101561305f57600080fd5b50515b6130a9576040805162461bcd60e51b815260206004820152601360248201527211549497d393d517d5d2125511531254d51151606a1b604482015290519081900360640190fd5b6130b687878787876146bc565b6003805460ff60a81b19169055979650505050505050565b6000806130d9614b9d565b6130e1613755565b90506000806130ef836141f1565b91509150600660008154811061310157fe5b6000918252602090912001546009546001600160a01b03908116911614156131375763ffffffff9182169450169150612abb9050565b63ffffffff9081169450169150509091565b613151613336565b60085463ffffffff640100000000909104811690821611156131ba576040805162461bcd60e51b815260206004820152601a60248201527f4552525f494e56414c49445f434f4e56455253494f4e5f464545000000000000604482015290519081900360640190fd5b6008546040805163ffffffff600160401b90930483168152918316602083015280517f81cd2ffb37dd237c0e4e2a3de5265fcf9deb43d3e7801e80db9f1ccfba7ee6009281900390910190a16008805463ffffffff909216600160401b026bffffffff000000000000000019909216919091179055565b613239613336565b6000546001600160a01b038281169116141561328d576040805162461bcd60e51b815260206004820152600e60248201526d22a9292fa9a0a6a2afa7aba722a960911b604482015290519081900360640190fd5b600180546001600160a01b0319166001600160a01b0392909216919091179055565b601055565b6004546001600160a01b031690565b60105481565b6001600160a01b038116600090815260076020526040902060010154600160301b900460ff166116fc576040805162461bcd60e51b81526020600482015260136024820152724552525f494e56414c49445f5245534552564560681b604482015290519081900360640190fd5b6000546001600160a01b03163314611859576040805162461bcd60e51b815260206004820152601160248201527011549497d050d0d154d4d7d11153925151607a1b604482015290519081900360640190fd5b6133916116ff565b15611859576040805162461bcd60e51b815260206004820152600a6024820152694552525f41435449564560b01b604482015290519081900360640190fd5b6001600160a01b0381163014156116fc576040805162461bcd60e51b815260206004820152601360248201527222a9292fa0a2222922a9a9afa4a9afa9a2a62360691b604482015290519081900360640190fd5b6001600160a01b0381166116fc576040805162461bcd60e51b81526020600482015260136024820152724552525f494e56414c49445f4144445245535360681b604482015290519081900360640190fd5b60025460408051632ecd14d360e21b81526004810184905290516000926001600160a01b03169163bb34534c916024808301926020929190829003018186803b1580156134c157600080fd5b505afa1580156134d5573d6000803e3d6000fd5b505050506040513d60208110156134eb57600080fd5b505192915050565b600480546040805163369f189f60e11b815290516001600160a01b03909216926060928492636d3e313e9281810192600092909190829003018186803b15801561353c57600080fd5b505afa158015613550573d6000803e3d6000fd5b505050506040513d6000823e601f3d908101601f19168201604052602081101561357957600080fd5b810190808051604051939291908464010000000082111561359957600080fd5b9083019060208201858111156135ae57600080fd5b82518660208202830111640100000000821117156135cb57600080fd5b82525081516020918201928201910280838360005b838110156135f85781810151838201526020016135e0565b50505050919091016040525050825160065493945015929150600090505b8181101561374e576000831561369457856001600160a01b0316639cbf9e366040518163ffffffff1660e01b8152600401602060405180830381600087803b15801561366157600080fd5b505af1158015613675573d6000803e3d6000fd5b505050506040513d602081101561368b57600080fd5b505190506136ab565b8482815181106136a057fe5b602002602001015190505b80600c6000600685815481106136bd57fe5b6000918252602080832091909101546001600160a01b039081168452908301939093526040909101902080546001600160a01b03191692909116919091179055600680548390811061370b57fe5b60009182526020808320909101546001600160a01b039384168352600d909152604090912080546001600160a01b03191692909116919091179055600101613616565b5050505050565b61375d614b9d565b600854600954600a5460408051632ba0600160e21b81526001600160a01b039384166004820152918316602483015280516000948594600160601b909104169263ae818004926044808301939192829003018186803b1580156137bf57600080fd5b505afa1580156137d3573d6000803e3d6000fd5b505050506040513d60408110156137e957600080fd5b50805160209182015160408051808201909152918252918101919091529250505090565b6000601354600014156138205742611726565b5060135490565b60408051808201909152600e548152600f546020820152613847906141f1565b6009546001600160a01b03908116600090815260076020526040808220600a54909316825290206001908101805463ffffffff94851663ffffffff199182161790915591018054939092169216919091179055565b6004805460408051638da5cb5b60e01b8152905160009330936001600160a01b031692638da5cb5b9281830192602092829003018186803b1580156138e057600080fd5b505afa1580156138f4573d6000803e3d6000fd5b505050506040513d602081101561390a57600080fd5b50516001600160a01b031614905090565b6001600160a01b038116600090815260076020908152604080832054600b909252822054612a93919061394f906013613955565b90613b7d565b60008261396457506000612a93565b8282028284828161397157fe5b0414611756576040805162461bcd60e51b815260206004820152600c60248201526b4552525f4f564552464c4f5760a01b604482015290519081900360640190fd5b60008082116139fe576040805162461bcd60e51b81526020600482015260126024820152714552525f4449564944455f42595f5a45524f60701b604482015290519081900360640190fd5b6000828481613a0957fe5b04949350505050565b600354600160a81b900460ff1615611859576040805162461bcd60e51b815260206004820152600e60248201526d4552525f5245454e5452414e435960901b604482015290519081900360640190fd5b613a6a6116ff565b611859576040805162461bcd60e51b815260206004820152600c60248201526b4552525f494e41435449564560a01b604482015290519081900360640190fd5b600081116116fc576040805162461bcd60e51b815260206004820152600e60248201526d4552525f5a45524f5f56414c554560901b604482015290519081900360640190fd5b60065460005b818110156125c757613b2860068281548110613b0e57fe5b6000918252602090912001546001600160a01b0316613e95565b600101613af6565b600081831015613b77576040805162461bcd60e51b815260206004820152600d60248201526c4552525f554e444552464c4f5760981b604482015290519081900360640190fd5b50900390565b600082820183811015611756576040805162461bcd60e51b815260206004820152600c60248201526b4552525f4f564552464c4f5760a01b604482015290519081900360640190fd5b604080516001600160a01b0385811660248301528481166044830152606480830185905283518084039091018152608490920183526020820180516001600160e01b03166323b872dd60e01b17815292518251600094606094938a169392918291908083835b60208310613c4b5780518252601f199092019160209182019101613c2c565b6001836020036101000a0380198251168184511680821785525050505050509050019150506000604051808303816000865af19150503d8060008114613cad576040519150601f19603f3d011682016040523d82523d6000602084013e613cb2565b606091505b5091509150818015613ce0575080511580613ce05750808060200190516020811015613cdd57600080fd5b50515b6122ec576040805162461bcd60e51b815260206004820152601860248201527f4552525f5452414e534645525f46524f4d5f4641494c45440000000000000000604482015290519081900360640190fd5b6001600160a01b038082166000818152600b6020908152604091829020548251908152908101869052815192938716927f77f29993cf2c084e726f7e802da0719d6a0ade3e204badc7a3ffd57ecb768c24929181900390910190a3505050565b6000613d9c8561391b565b90506000613da98561391b565b905063ffffffff8416613ddb576001600160a01b03861660009081526007602052604090206001015463ffffffff1693505b63ffffffff8316613def5783620f42400392505b6001600160a01b038086169087167f77f29993cf2c084e726f7e802da0719d6a0ade3e204badc7a3ffd57ecb768c24613e318463ffffffff808a169061395516565b613e448663ffffffff808a169061395516565b6040805192835260208301919091528051918290030190a3505050505050565b613e6c613336565b82613e7681613424565b82613e8081613424565b83613e8a816133d0565b6122ec868686614563565b80613e9f816132c9565b6001600160a01b038216600080516020614bb88339815191521415613ede576001600160a01b03821660009081526007602052604090204790556125c7565b604080516370a0823160e01b815230600482015290516001600160a01b038416916370a08231916024808301926020929190829003018186803b158015613f2457600080fd5b505afa158015613f38573d6000803e3d6000fd5b505050506040513d6020811015613f4e57600080fd5b50516001600160a01b0383166000908152600760205260409020555050565b613f7681613475565b6001600160a01b0316336001600160a01b0316146116fc576040805162461bcd60e51b815260206004820152601160248201527011549497d050d0d154d4d7d11153925151607a1b604482015290519081900360640190fd5b613fd7613336565b613fdf613389565b81613fe981613424565b82613ff3816133d0565b82613ffd81614a6b565b6004546001600160a01b0386811691161480159061403e57506001600160a01b038516600090815260076020526040902060010154600160301b900460ff16155b614085576040805162461bcd60e51b81526020600482015260136024820152724552525f494e56414c49445f5245534552564560681b604482015290519081900360640190fd5b60085463ffffffff908116620f424003811690851611156140ed576040805162461bcd60e51b815260206004820152601a60248201527f4552525f494e56414c49445f524553455256455f574549474854000000000000604482015290519081900360640190fd5b61ffff6140f86126d0565b61ffff161061414a576040805162461bcd60e51b815260206004820152601960248201527811549497d253959053125117d49154d154959157d0d3d55395603a1b604482015290519081900360640190fd5b5050506001600160a01b0390911660008181526007602052604081208181556001908101805466ff0000000000001963ffffffff80881663ffffffff199384161791909116600160301b179092556006805493840181559093527ff652222313e28459528d920b65115c16c04f3efc82aaedc97be59f3f377c0d3f90910180546001600160a01b031916909317909255600880548084169094019092169216919091179055565b6009546001600160a01b03166000818152600b60205260408120549091829190829061421c9061391b565b600a54909150600090614237906001600160a01b031661391b565b90506142526c42616e636f72466f726d756c6160981b613475565b6001600160a01b031663a11aa1b461426b856014613955565b885160208a0151604080516001600160e01b031960e087901b1681526004810194909452602484018890526044840187905260648401929092526084830152805160a480840193829003018186803b1580156142c657600080fd5b505afa1580156142da573d6000803e3d6000fd5b505050506040513d60408110156142f057600080fd5b5080516020909101519095509350505050915091565b6000806000806143158961391b565b905060006143228961391b565b9050600061433f6c42616e636f72466f726d756c6160981b613475565b6001600160a01b03166394491fab848b858c8c6040518663ffffffff1660e01b8152600401808681526020018563ffffffff1681526020018481526020018363ffffffff1681526020018281526020019550505050505060206040518083038186803b1580156143ae57600080fd5b505afa1580156143c2573d6000803e3d6000fd5b505050506040513d60208110156143d857600080fd5b5051905060006143e782614adb565b60125490915060009061441990839061394f90620f424090611818908890610100900463ffffffff9081169061395516565b90506144258382613b30565b9d919c509a5098505050505050505050565b61443f613336565b60006144496126d0565b61ffff161161449b576040805162461bcd60e51b815260206004820152601960248201527811549497d253959053125117d49154d154959157d0d3d55395603a1b604482015290519081900360640190fd5b60048054604080516379ba509760e01b815290516001600160a01b03909216926379ba509792828201926000929082900301818387803b1580156144de57600080fd5b505af11580156144f2573d6000803e3d6000fd5b50505050611859613af0565b6001600160a01b038181166000908152600d6020526040902054166116fc576040805162461bcd60e51b815260206004820152601660248201527522a9292fa4a72b20a624a22fa827a7a62faa27a5a2a760511b604482015290519081900360640190fd5b604080516001600160a01b038481166024830152604480830185905283518084039091018152606490920183526020820180516001600160e01b031663a9059cbb60e01b178152925182516000946060949389169392918291908083835b602083106145e05780518252601f1990920191602091820191016145c1565b6001836020036101000a0380198251168184511680821785525050505050509050019150506000604051808303816000865af19150503d8060008114614642576040519150601f19603f3d011682016040523d82523d6000602084013e614647565b606091505b5091509150818015614675575080511580614675575080806020019051602081101561467257600080fd5b50515b61374e576040805162461bcd60e51b815260206004820152601360248201527211549497d514905394d1915497d19052531151606a1b604482015290519081900360640190fd5b60006146c6613a62565b856146d0816132c9565b856146da816132c9565b6146e261380d565b6010541015614712576146f361380d565b6010556146fe613755565b8051600e5560200151600f55614712613827565b6001600160a01b03881660009081526007602052604081206001015463ffffffff1690620f424082900390808061474c8d8d87878f614306565b92509250925082600014156147a1576040805162461bcd60e51b815260206004820152601660248201527511549497d6915493d7d5105491d15517d05353d5539560521b604482015290519081900360640190fd5b6001600160a01b038d16600080516020614bb88339815191521415614813578a341461480e576040805162461bcd60e51b815260206004820152601760248201527608aa4a4be8aa890be829a9eaa9ca8be9a92a69a82a8869604b1b604482015290519081900360640190fd5b6148f1565b341580156148ab57508a6148a86148298f612ace565b8f6001600160a01b03166370a08231306040518263ffffffff1660e01b815260040180826001600160a01b0316815260200191505060206040518083038186803b15801561487657600080fd5b505afa15801561488a573d6000803e3d6000fd5b505050506040513d60208110156148a057600080fd5b505190613b30565b10155b6148f1576040805162461bcd60e51b815260206004820152601260248201527111549497d253959053125117d05353d5539560721b604482015290519081900360640190fd5b6148fa8d613e95565b61490d836149078e612ace565b90613b30565b6001600160a01b038d16600090815260076020908152604080832093909355600b9052205461493c9083613b7d565b6001600160a01b038d166000818152600b6020526040902091909155600080516020614bb883398151915214156149a9576040516001600160a01b038a169084156108fc029085906000818181858888f193505050501580156149a3573d6000803e3d6000fd5b506149b4565b6149b48c8a85614563565b6149c28d8d8c8e8786614b06565b6149ce8d8d8787613d91565b6001600160a01b03808d166000908152600c60209081526040918290205482516318160ddd60e01b81529251931692614a5992849283926318160ddd926004808201939291829003018186803b158015614a2757600080fd5b505afa158015614a3b573d6000803e3d6000fd5b505050506040513d6020811015614a5157600080fd5b50518f613d31565b50919c9b505050505050505050505050565b60008163ffffffff16118015614a8a5750620f424063ffffffff821611155b6116fc576040805162461bcd60e51b815260206004820152601a60248201527f4552525f494e56414c49445f524553455256455f574549474854000000000000604482015290519081900360640190fd5b600854600090612a9390620f424090611818908590600160401b900463ffffffff9081169061395516565b600160ff1b8110614b1357fe5b604080518481526020810184905280820183905290516001600160a01b038087169288821692918a16917f276856b36cbc45526a0ba64f44611557a2a8b68662c5388e9fe6d72e86e1c8cb9181900360600190a4505050505050565b6040805160a08101825260008082526020820181905291810182905260608101829052608081019190915290565b60405180604001604052806000815260200160008152509056fe000000000000000000000000eeeeeeeeeeeeeeeeeeeeeeeeeeeeeeeeeeeeeeeea26469706673582212207b223369fd9bc505194318b16706a8f165220c31a4af0520b10291b29ca73dd064736f6c634300060c0033",
  "linkReferences": {},
  "deployedLinkReferences": {}
}