{
  "_format": "hh-sol-artifact-1",
  "contractName": "TestSafeMath",
  "sourceName": "contracts/bancor/helpers/TestSafeMath.sol",
  "abi": [
    {
      "inputs": [
        {
          "internalType": "uint256",
          "name": "_x",
          "type": "uint256"
        },
        {
          "internalType": "uint256",
          "name": "_y",
          "type": "uint256"
        }
      ],
      "name": "testSafeAdd",
      "outputs": [
        {
          "internalType": "uint256",
          "name": "",
          "type": "uint256"
        }
      ],
      "stateMutability": "pure",
      "type": "function"
    },
    {
      "inputs": [
        {
          "internalType": "uint256",
          "name": "_x",
          "type": "uint256"
        },
        {
          "internalType": "uint256",
          "name": "_y",
          "type": "uint256"
        }
      ],
      "name": "testSafeDiv",
      "outputs": [
        {
          "internalType": "uint256",
          "name": "",
          "type": "uint256"
        }
      ],
      "stateMutability": "pure",
      "type": "function"
    },
    {
      "inputs": [
        {
          "internalType": "uint256",
          "name": "_x",
          "type": "uint256"
        },
        {
          "internalType": "uint256",
          "name": "_y",
          "type": "uint256"
        }
      ],
      "name": "testSafeMul",
      "outputs": [
        {
          "internalType": "uint256",
          "name": "",
          "type": "uint256"
        }
      ],
      "stateMutability": "pure",
      "type": "function"
    },
    {
      "inputs": [
        {
          "internalType": "uint256",
          "name": "_x",
          "type": "uint256"
        },
        {
          "internalType": "uint256",
          "name": "_y",
          "type": "uint256"
        }
      ],
      "name": "testSafeSub",
      "outputs": [
        {
          "internalType": "uint256",
          "name": "",
          "type": "uint256"
        }
      ],
      "stateMutability": "pure",
      "type": "function"
    }
  ],
  "bytecode": "0x608060405234801561001057600080fd5b506102cc806100206000396000f3fe608060405234801561001057600080fd5b506004361061004c5760003560e01c80635e47381d146100515780639ee6ff7014610086578063de47864c146100a9578063ec0da330146100cc575b600080fd5b6100746004803603604081101561006757600080fd5b50803590602001356100ef565b60408051918252519081900360200190f35b6100746004803603604081101561009c57600080fd5b5080359060200135610104565b610074600480360360408110156100bf57600080fd5b5080359060200135610110565b610074600480360360408110156100e257600080fd5b508035906020013561011c565b60006100fb8383610128565b90505b92915050565b60006100fb8383610192565b60006100fb83836101f0565b60006100fb8383610239565b600080821161017e576040805162461bcd60e51b815260206004820152601260248201527f4552525f4449564944455f42595f5a45524f0000000000000000000000000000604482015290519081900360640190fd5b600082848161018957fe5b04949350505050565b6000826101a1575060006100fe565b828202828482816101ae57fe5b04146100fb576040805162461bcd60e51b815260206004820152600c60248201526b4552525f4f564552464c4f5760a01b604482015290519081900360640190fd5b6000828201838110156100fb576040805162461bcd60e51b815260206004820152600c60248201526b4552525f4f564552464c4f5760a01b604482015290519081900360640190fd5b600081831015610290576040805162461bcd60e51b815260206004820152600d60248201527f4552525f554e444552464c4f5700000000000000000000000000000000000000604482015290519081900360640190fd5b5090039056fea264697066735822122007f79c0e8ce913a24385bfaae4d63a568f5b32a12dcb908481cf418c17ccb20c64736f6c634300060c0033",
  "linkReferences": {},
  "deployedLinkReferences": {}
}