{
  "_format": "hh-sol-artifact-1",
  "contractName": "LiquidTokenConverterProxyable",
  "sourceName": "contracts/bancor/converter/types/liquid-token/LiquidTokenConverterProxyable.sol",
  "abi": [
    {
      "anonymous": false,
      "inputs": [
        {
          "indexed": true,
          "internalType": "uint16",
          "name": "_type",
          "type": "uint16"
        },
        {
          "indexed": true,
          "internalType": "contract IConverterAnchor",
          "name": "_anchor",
          "type": "address"
        },
        {
          "indexed": true,
          "internalType": "bool",
          "name": "_activated",
          "type": "bool"
        }
      ],
      "name": "Activation",
      "type": "event"
    },
    {
      "anonymous": false,
      "inputs": [
        {
          "indexed": true,
          "internalType": "contract IERC20Token",
          "name": "_fromToken",
          "type": "address"
        },
        {
          "indexed": true,
          "internalType": "contract IERC20Token",
          "name": "_toToken",
          "type": "address"
        },
        {
          "indexed": true,
          "internalType": "address",
          "name": "_trader",
          "type": "address"
        },
        {
          "indexed": false,
          "internalType": "uint256",
          "name": "_amount",
          "type": "uint256"
        },
        {
          "indexed": false,
          "internalType": "uint256",
          "name": "_return",
          "type": "uint256"
        },
        {
          "indexed": false,
          "internalType": "int256",
          "name": "_conversionFee",
          "type": "int256"
        }
      ],
      "name": "Conversion",
      "type": "event"
    },
    {
      "anonymous": false,
      "inputs": [
        {
          "indexed": false,
          "internalType": "uint32",
          "name": "_prevFee",
          "type": "uint32"
        },
        {
          "indexed": false,
          "internalType": "uint32",
          "name": "_newFee",
          "type": "uint32"
        }
      ],
      "name": "ConversionFeeUpdate",
      "type": "event"
    },
    {
      "anonymous": false,
      "inputs": [
        {
          "indexed": true,
          "internalType": "address",
          "name": "_prevOwner",
          "type": "address"
        },
        {
          "indexed": true,
          "internalType": "address",
          "name": "_newOwner",
          "type": "address"
        }
      ],
      "name": "OwnerUpdate",
      "type": "event"
    },
    {
      "anonymous": false,
      "inputs": [
        {
          "indexed": true,
          "internalType": "contract IERC20Token",
          "name": "_token1",
          "type": "address"
        },
        {
          "indexed": true,
          "internalType": "contract IERC20Token",
          "name": "_token2",
          "type": "address"
        },
        {
          "indexed": false,
          "internalType": "uint256",
          "name": "_rateN",
          "type": "uint256"
        },
        {
          "indexed": false,
          "internalType": "uint256",
          "name": "_rateD",
          "type": "uint256"
        }
      ],
      "name": "TokenRateUpdate",
      "type": "event"
    },
    {
      "inputs": [
        {
          "internalType": "contract IConverterAnchor",
          "name": "_anchor",
          "type": "address"
        },
        {
          "internalType": "contract IContractRegistry",
          "name": "_registry",
          "type": "address"
        },
        {
          "internalType": "uint32",
          "name": "_maxConversionFee",
          "type": "uint32"
        }
      ],
      "name": "__ConverterBase_initialize",
      "outputs": [],
      "stateMutability": "nonpayable",
      "type": "function"
    },
    {
      "inputs": [],
      "name": "acceptAnchorOwnership",
      "outputs": [],
      "stateMutability": "nonpayable",
      "type": "function"
    },
    {
      "inputs": [],
      "name": "acceptOwnership",
      "outputs": [],
      "stateMutability": "nonpayable",
      "type": "function"
    },
    {
      "inputs": [],
      "name": "acceptTokenOwnership",
      "outputs": [],
      "stateMutability": "nonpayable",
      "type": "function"
    },
    {
      "inputs": [
        {
          "internalType": "contract IERC20Token",
          "name": "_token",
          "type": "address"
        },
        {
          "internalType": "uint32",
          "name": "_weight",
          "type": "uint32"
        }
      ],
      "name": "addReserve",
      "outputs": [],
      "stateMutability": "nonpayable",
      "type": "function"
    },
    {
      "inputs": [],
      "name": "anchor",
      "outputs": [
        {
          "internalType": "contract IConverterAnchor",
          "name": "",
          "type": "address"
        }
      ],
      "stateMutability": "view",
      "type": "function"
    },
    {
      "inputs": [],
      "name": "connectorTokenCount",
      "outputs": [
        {
          "internalType": "uint16",
          "name": "",
          "type": "uint16"
        }
      ],
      "stateMutability": "view",
      "type": "function"
    },
    {
      "inputs": [
        {
          "internalType": "uint256",
          "name": "_index",
          "type": "uint256"
        }
      ],
      "name": "connectorTokens",
      "outputs": [
        {
          "internalType": "contract IERC20Token",
          "name": "",
          "type": "address"
        }
      ],
      "stateMutability": "view",
      "type": "function"
    },
    {
      "inputs": [
        {
          "internalType": "contract IERC20Token",
          "name": "_address",
          "type": "address"
        }
      ],
      "name": "connectors",
      "outputs": [
        {
          "internalType": "uint256",
          "name": "",
          "type": "uint256"
        },
        {
          "internalType": "uint32",
          "name": "",
          "type": "uint32"
        },
        {
          "internalType": "bool",
          "name": "",
          "type": "bool"
        },
        {
          "internalType": "bool",
          "name": "",
          "type": "bool"
        },
        {
          "internalType": "bool",
          "name": "",
          "type": "bool"
        }
      ],
      "stateMutability": "view",
      "type": "function"
    },
    {
      "inputs": [],
      "name": "conversionFee",
      "outputs": [
        {
          "internalType": "uint32",
          "name": "",
          "type": "uint32"
        }
      ],
      "stateMutability": "view",
      "type": "function"
    },
    {
      "inputs": [],
      "name": "conversionWhitelist",
      "outputs": [
        {
          "internalType": "contract IWhitelist",
          "name": "",
          "type": "address"
        }
      ],
      "stateMutability": "view",
      "type": "function"
    },
    {
      "inputs": [],
      "name": "conversionsEnabled",
      "outputs": [
        {
          "internalType": "bool",
          "name": "",
          "type": "bool"
        }
      ],
      "stateMutability": "view",
      "type": "function"
    },
    {
      "inputs": [
        {
          "internalType": "contract IERC20Token",
          "name": "_sourceToken",
          "type": "address"
        },
        {
          "internalType": "contract IERC20Token",
          "name": "_targetToken",
          "type": "address"
        },
        {
          "internalType": "uint256",
          "name": "_amount",
          "type": "uint256"
        },
        {
          "internalType": "address",
          "name": "_trader",
          "type": "address"
        },
        {
          "internalType": "address payable",
          "name": "_beneficiary",
          "type": "address"
        }
      ],
      "name": "convert",
      "outputs": [
        {
          "internalType": "uint256",
          "name": "",
          "type": "uint256"
        }
      ],
      "stateMutability": "payable",
      "type": "function"
    },
    {
      "inputs": [],
      "name": "converterType",
      "outputs": [
        {
          "internalType": "uint16",
          "name": "",
          "type": "uint16"
        }
      ],
      "stateMutability": "pure",
      "type": "function"
    },
    {
      "inputs": [
        {
          "internalType": "contract IERC20Token",
          "name": "_connectorToken",
          "type": "address"
        }
      ],
      "name": "getConnectorBalance",
      "outputs": [
        {
          "internalType": "uint256",
          "name": "",
          "type": "uint256"
        }
      ],
      "stateMutability": "view",
      "type": "function"
    },
    {
      "inputs": [
        {
          "internalType": "contract IERC20Token",
          "name": "_sourceToken",
          "type": "address"
        },
        {
          "internalType": "contract IERC20Token",
          "name": "_targetToken",
          "type": "address"
        },
        {
          "internalType": "uint256",
          "name": "_amount",
          "type": "uint256"
        }
      ],
      "name": "getReturn",
      "outputs": [
        {
          "internalType": "uint256",
          "name": "",
          "type": "uint256"
        },
        {
          "internalType": "uint256",
          "name": "",
          "type": "uint256"
        }
      ],
      "stateMutability": "view",
      "type": "function"
    },
    {
      "inputs": [],
      "name": "hasETHReserve",
      "outputs": [
        {
          "internalType": "bool",
          "name": "",
          "type": "bool"
        }
      ],
      "stateMutability": "view",
      "type": "function"
    },
    {
      "inputs": [
        {
          "internalType": "contract IDSToken",
          "name": "_token",
          "type": "address"
        },
        {
          "internalType": "contract IContractRegistry",
          "name": "_registry",
          "type": "address"
        },
        {
          "internalType": "uint32",
          "name": "_maxConversionFee",
          "type": "uint32"
        }
      ],
      "name": "initialize",
      "outputs": [],
      "stateMutability": "nonpayable",
      "type": "function"
    },
    {
      "inputs": [],
      "name": "isActive",
      "outputs": [
        {
          "internalType": "bool",
          "name": "",
          "type": "bool"
        }
      ],
      "stateMutability": "view",
      "type": "function"
    },
    {
      "inputs": [],
      "name": "isV28OrHigher",
      "outputs": [
        {
          "internalType": "bool",
          "name": "",
          "type": "bool"
        }
      ],
      "stateMutability": "pure",
      "type": "function"
    },
    {
      "inputs": [],
      "name": "maxConversionFee",
      "outputs": [
        {
          "internalType": "uint32",
          "name": "",
          "type": "uint32"
        }
      ],
      "stateMutability": "view",
      "type": "function"
    },
    {
      "inputs": [],
      "name": "newOwner",
      "outputs": [
        {
          "internalType": "address",
          "name": "",
          "type": "address"
        }
      ],
      "stateMutability": "view",
      "type": "function"
    },
    {
      "inputs": [],
      "name": "onlyOwnerCanUpdateRegistry",
      "outputs": [
        {
          "internalType": "bool",
          "name": "",
          "type": "bool"
        }
      ],
      "stateMutability": "view",
      "type": "function"
    },
    {
      "inputs": [],
      "name": "owner",
      "outputs": [
        {
          "internalType": "address",
          "name": "",
          "type": "address"
        }
      ],
      "stateMutability": "view",
      "type": "function"
    },
    {
      "inputs": [],
      "name": "prevRegistry",
      "outputs": [
        {
          "internalType": "contract IContractRegistry",
          "name": "",
          "type": "address"
        }
      ],
      "stateMutability": "view",
      "type": "function"
    },
    {
      "inputs": [],
      "name": "registry",
      "outputs": [
        {
          "internalType": "contract IContractRegistry",
          "name": "",
          "type": "address"
        }
      ],
      "stateMutability": "view",
      "type": "function"
    },
    {
      "inputs": [
        {
          "internalType": "contract IERC20Token",
          "name": "_reserveToken",
          "type": "address"
        }
      ],
      "name": "reserveBalance",
      "outputs": [
        {
          "internalType": "uint256",
          "name": "",
          "type": "uint256"
        }
      ],
      "stateMutability": "view",
      "type": "function"
    },
    {
      "inputs": [],
      "name": "reserveRatio",
      "outputs": [
        {
          "internalType": "uint32",
          "name": "",
          "type": "uint32"
        }
      ],
      "stateMutability": "view",
      "type": "function"
    },
    {
      "inputs": [],
      "name": "reserveTokenCount",
      "outputs": [
        {
          "internalType": "uint16",
          "name": "",
          "type": "uint16"
        }
      ],
      "stateMutability": "view",
      "type": "function"
    },
    {
      "inputs": [
        {
          "internalType": "uint256",
          "name": "",
          "type": "uint256"
        }
      ],
      "name": "reserveTokens",
      "outputs": [
        {
          "internalType": "contract IERC20Token",
          "name": "",
          "type": "address"
        }
      ],
      "stateMutability": "view",
      "type": "function"
    },
    {
      "inputs": [
        {
          "internalType": "contract IERC20Token",
          "name": "_reserveToken",
          "type": "address"
        }
      ],
      "name": "reserveWeight",
      "outputs": [
        {
          "internalType": "uint32",
          "name": "",
          "type": "uint32"
        }
      ],
      "stateMutability": "view",
      "type": "function"
    },
    {
      "inputs": [
        {
          "internalType": "contract IERC20Token",
          "name": "",
          "type": "address"
        }
      ],
      "name": "reserves",
      "outputs": [
        {
          "internalType": "uint256",
          "name": "balance",
          "type": "uint256"
        },
        {
          "internalType": "uint32",
          "name": "weight",
          "type": "uint32"
        },
        {
          "internalType": "bool",
          "name": "deprecated1",
          "type": "bool"
        },
        {
          "internalType": "bool",
          "name": "deprecated2",
          "type": "bool"
        },
        {
          "internalType": "bool",
          "name": "isSet",
          "type": "bool"
        }
      ],
      "stateMutability": "view",
      "type": "function"
    },
    {
      "inputs": [],
      "name": "restoreRegistry",
      "outputs": [],
      "stateMutability": "nonpayable",
      "type": "function"
    },
    {
      "inputs": [
        {
          "internalType": "bool",
          "name": "_onlyOwnerCanUpdateRegistry",
          "type": "bool"
        }
      ],
      "name": "restrictRegistryUpdate",
      "outputs": [],
      "stateMutability": "nonpayable",
      "type": "function"
    },
    {
      "inputs": [
        {
          "internalType": "uint32",
          "name": "_conversionFee",
          "type": "uint32"
        }
      ],
      "name": "setConversionFee",
      "outputs": [],
      "stateMutability": "nonpayable",
      "type": "function"
    },
    {
      "inputs": [
        {
          "internalType": "contract IWhitelist",
          "name": "_whitelist",
          "type": "address"
        }
      ],
      "name": "setConversionWhitelist",
      "outputs": [],
      "stateMutability": "nonpayable",
      "type": "function"
    },
    {
      "inputs": [
        {
          "internalType": "contract IERC20Token",
          "name": "_sourceToken",
          "type": "address"
        },
        {
          "internalType": "contract IERC20Token",
          "name": "_targetToken",
          "type": "address"
        },
        {
          "internalType": "uint256",
          "name": "_amount",
          "type": "uint256"
        }
      ],
      "name": "targetAmountAndFee",
      "outputs": [
        {
          "internalType": "uint256",
          "name": "",
          "type": "uint256"
        },
        {
          "internalType": "uint256",
          "name": "",
          "type": "uint256"
        }
      ],
      "stateMutability": "view",
      "type": "function"
    },
    {
      "inputs": [],
      "name": "token",
      "outputs": [
        {
          "internalType": "contract IConverterAnchor",
          "name": "",
          "type": "address"
        }
      ],
      "stateMutability": "view",
      "type": "function"
    },
    {
      "inputs": [
        {
          "internalType": "address",
          "name": "_newOwner",
          "type": "address"
        }
      ],
      "name": "transferAnchorOwnership",
      "outputs": [],
      "stateMutability": "nonpayable",
      "type": "function"
    },
    {
      "inputs": [
        {
          "internalType": "address",
          "name": "_newOwner",
          "type": "address"
        }
      ],
      "name": "transferOwnership",
      "outputs": [],
      "stateMutability": "nonpayable",
      "type": "function"
    },
    {
      "inputs": [
        {
          "internalType": "address",
          "name": "_newOwner",
          "type": "address"
        }
      ],
      "name": "transferTokenOwnership",
      "outputs": [],
      "stateMutability": "nonpayable",
      "type": "function"
    },
    {
      "inputs": [],
      "name": "updateRegistry",
      "outputs": [],
      "stateMutability": "nonpayable",
      "type": "function"
    },
    {
      "inputs": [],
      "name": "upgrade",
      "outputs": [],
      "stateMutability": "nonpayable",
      "type": "function"
    },
    {
      "inputs": [],
      "name": "version",
      "outputs": [
        {
          "internalType": "uint16",
          "name": "",
          "type": "uint16"
        }
      ],
      "stateMutability": "view",
      "type": "function"
    },
    {
      "inputs": [
        {
          "internalType": "address payable",
          "name": "_to",
          "type": "address"
        }
      ],
      "name": "withdrawETH",
      "outputs": [],
      "stateMutability": "nonpayable",
      "type": "function"
    },
    {
      "inputs": [
        {
          "internalType": "contract IERC20Token",
          "name": "_token",
          "type": "address"
        },
        {
          "internalType": "address",
          "name": "_to",
          "type": "address"
        },
        {
          "internalType": "uint256",
          "name": "_amount",
          "type": "uint256"
        }
      ],
      "name": "withdrawTokens",
      "outputs": [],
      "stateMutability": "nonpayable",
      "type": "function"
    },
    {
      "stateMutability": "payable",
      "type": "receive"
    }
  ],
  "bytecode": "0x60806040526003805460ff60a81b19169055600880546001600160601b031916905534801561002d57600080fd5b506136fc8061003d6000396000f3fe6080604052600436106103015760003560e01c806371f52bf31161018f578063d031370b116100e1578063d89595121161008a578063ecbca55d11610064578063ecbca55d14610a8b578063f2fde38b14610abb578063fc0c546a14610aee576103a2565b8063d8959512146109cd578063dc8de37914610a12578063e8dc12ff14610a45576103a2565b8063d4ee1d90116100bb578063d4ee1d9014610970578063d55ec69714610985578063d66bd5241461099a576103a2565b8063d031370b1461091c578063d260529c14610946578063d3fb73b41461095b576103a2565b80639b99a8e211610143578063bf7545581161011d578063bf754558146108dd578063c45d3d92146108f2578063cdc91c6914610907576103a2565b80639b99a8e214610870578063af94b8d814610885578063b4a176d3146108c8576103a2565b80637b103999116101745780637b103999146108315780638da5cb5b1461084657806394c275ad1461085b576103a2565b806371f52bf31461080757806379ba50971461081c576103a2565b806338a5e016116102535780635e35359e116101fc578063690d8320116101d6578063690d83201461074b5780636a49d2c41461077e5780636ecf2b22146107bd576103a2565b80635e35359e146106c057806361cd756e1461070357806367b6d57c14610718576103a2565b80634af80f0e1161022d5780634af80f0e1461066357806354fd4d5014610696578063579cd3ca146106ab576103a2565b806338a5e0161461060d5780633e8ff43f1461062257806349d10b641461064e576103a2565b80631cfab290116102b557806322f3e2d41161028f57806322f3e2d4146105995780632fe8a6ad146105ae57806330243ef1146105c3576103a2565b80631cfab290146104d75780631e1401f81461050a57806321e6b53d14610566576103a2565b80630e53aae9116102e65780630e53aae91461040157806312c2aca41461046857806319b6401514610491576103a2565b8063024c7ec7146103a75780630c7d5cd8146103d3576103a2565b366103a25773eeeeeeeeeeeeeeeeeeeeeeeeeeeeeeeeeeeeeeee60005260076020527fb2084a3e4595ccf007fb44245853374aaf0de960074375e8e0fb334712e94d0f54600160301b900460ff166103a0576040805162461bcd60e51b815260206004820152601360248201527f4552525f494e56414c49445f5245534552564500000000000000000000000000604482015290519081900360640190fd5b005b600080fd5b3480156103b357600080fd5b506103a0600480360360208110156103ca57600080fd5b50351515610b03565b3480156103df57600080fd5b506103e8610b44565b6040805163ffffffff9092168252519081900360200190f35b34801561040d57600080fd5b506104346004803603602081101561042457600080fd5b50356001600160a01b0316610b50565b6040805195865263ffffffff9094166020860152911515848401521515606084015215156080830152519081900360a00190f35b34801561047457600080fd5b5061047d610be8565b604080519115158252519081900360200190f35b34801561049d57600080fd5b506104bb600480360360208110156104b457600080fd5b5035610c34565b604080516001600160a01b039092168252519081900360200190f35b3480156104e357600080fd5b506103e8600480360360208110156104fa57600080fd5b50356001600160a01b0316610c5e565b34801561051657600080fd5b5061054d6004803603606081101561052d57600080fd5b506001600160a01b03813581169160208101359091169060400135610c90565b6040805192835260208301919091528051918290030190f35b34801561057257600080fd5b506103a06004803603602081101561058957600080fd5b50356001600160a01b0316610cab565b3480156105a557600080fd5b5061047d610cbf565b3480156105ba57600080fd5b5061047d610d57565b3480156105cf57600080fd5b506103a0600480360360608110156105e657600080fd5b5080356001600160a01b03908116916020810135909116906040013563ffffffff16610d67565b34801561061957600080fd5b506103a0610e66565b34801561062e57600080fd5b50610637610e78565b6040805161ffff9092168252519081900360200190f35b34801561065a57600080fd5b506103a0610e7d565b34801561066f57600080fd5b506103a06004803603602081101561068657600080fd5b50356001600160a01b03166110b7565b3480156106a257600080fd5b506106376110ec565b3480156106b757600080fd5b506103e86110f1565b3480156106cc57600080fd5b506103a0600480360360608110156106e357600080fd5b506001600160a01b03813581169160208101359091169060400135611109565b34801561070f57600080fd5b506104bb611246565b34801561072457600080fd5b506103a06004803603602081101561073b57600080fd5b50356001600160a01b0316611255565b34801561075757600080fd5b506103a06004803603602081101561076e57600080fd5b50356001600160a01b0316611307565b34801561078a57600080fd5b506103a0600480360360408110156107a157600080fd5b5080356001600160a01b0316906020013563ffffffff16611446565b3480156107c957600080fd5b506103a0600480360360608110156107e057600080fd5b5080356001600160a01b03908116916020810135909116906040013563ffffffff166114ba565b34801561081357600080fd5b50610637611569565b34801561082857600080fd5b506103a0611578565b34801561083d57600080fd5b506104bb611650565b34801561085257600080fd5b506104bb61165f565b34801561086757600080fd5b506103e8611674565b34801561087c57600080fd5b50610637611688565b34801561089157600080fd5b5061054d600480360360608110156108a857600080fd5b506001600160a01b0381358116916020810135909116906040013561168e565b3480156108d457600080fd5b506103a0611783565b3480156108e957600080fd5b5061047d6117af565b3480156108fe57600080fd5b506104bb6117b4565b34801561091357600080fd5b506103a06117c3565b34801561092857600080fd5b506104bb6004803603602081101561093f57600080fd5b503561181c565b34801561095257600080fd5b5061047d611843565b34801561096757600080fd5b506104bb611848565b34801561097c57600080fd5b506104bb611857565b34801561099157600080fd5b506103a0611866565b3480156109a657600080fd5b50610434600480360360208110156109bd57600080fd5b50356001600160a01b031661196d565b3480156109d957600080fd5b50610a00600480360360208110156109f057600080fd5b50356001600160a01b03166119b0565b60408051918252519081900360200190f35b348015610a1e57600080fd5b50610a0060048036036020811015610a3557600080fd5b50356001600160a01b03166119c1565b610a00600480360360a0811015610a5b57600080fd5b506001600160a01b03813581169160208101358216916040820135916060810135821691608090910135166119ea565b348015610a9757600080fd5b506103a060048036036020811015610aae57600080fd5b503563ffffffff16611c1b565b348015610ac757600080fd5b506103a060048036036020811015610ade57600080fd5b50356001600160a01b0316611d0d565b348015610afa57600080fd5b506104bb611da0565b610b0b611daf565b60038054911515600160a01b027fffffffffffffffffffffff00ffffffffffffffffffffffffffffffffffffffff909216919091179055565b60085463ffffffff1681565b6000806000806000610b6061366a565b505050506001600160a01b03929092166000908152600760209081526040808320815160a081018352815480825260019092015463ffffffff811694820185905260ff64010000000082048116151594830194909452650100000000008104841615156060830152600160301b90049092161515608090920182905295919450919250829190565b73eeeeeeeeeeeeeeeeeeeeeeeeeeeeeeeeeeeeeeee60005260076020527fb2084a3e4595ccf007fb44245853374aaf0de960074375e8e0fb334712e94d0f54600160301b900460ff1690565b600060068281548110610c4357fe5b6000918252602090912001546001600160a01b031692915050565b600081610c6a81611e08565b50506001600160a01b031660009081526007602052604090206001015463ffffffff1690565b600080610c9e85858561168e565b915091505b935093915050565b610cb3611daf565b610cbc81611255565b50565b60048054604080517f8da5cb5b000000000000000000000000000000000000000000000000000000008152905160009330936001600160a01b031692638da5cb5b9281830192602092829003018186803b158015610d1c57600080fd5b505afa158015610d30573d6000803e3d6000fd5b505050506040513d6020811015610d4657600080fd5b50516001600160a01b031614905090565b600354600160a01b900460ff1681565b600054610100900460ff1680610d805750610d80611e7f565b80610d8e575060005460ff16155b610dc95760405162461bcd60e51b815260040180806020018281038252602e815260200180613699602e913960400191505060405180910390fd5b600054610100900460ff16158015610df4576000805460ff1961ff0019909116610100171660011790555b83610dfe81611e85565b82610e0881611ee0565b610e1185611f3e565b5050600480546001600160a01b0319166001600160a01b0386161790556008805467ffffffff00000000191664010000000063ffffffff8516021790558015610e60576000805461ff00191690555b50505050565b610e6e611daf565b610e766117c3565b565b600090565b6000546201000090046001600160a01b0316331480610ea65750600354600160a01b900460ff16155b610eeb576040805162461bcd60e51b815260206004820152601160248201527011549497d050d0d154d4d7d11153925151607a1b604482015290519081900360640190fd5b6000610f167f436f6e747261637452656769737472790000000000000000000000000000000061201e565b6002549091506001600160a01b03808316911614801590610f3f57506001600160a01b03811615155b610f90576040805162461bcd60e51b815260206004820152601460248201527f4552525f494e56414c49445f5245474953545259000000000000000000000000604482015290519081900360640190fd5b60006001600160a01b0316816001600160a01b031663bb34534c7f436f6e74726163745265676973747279000000000000000000000000000000006040518263ffffffff1660e01b81526004018082815260200191505060206040518083038186803b158015610fff57600080fd5b505afa158015611013573d6000803e3d6000fd5b505050506040513d602081101561102957600080fd5b50516001600160a01b03161415611087576040805162461bcd60e51b815260206004820152601460248201527f4552525f494e56414c49445f5245474953545259000000000000000000000000604482015290519081900360640190fd5b60028054600380546001600160a01b038084166001600160a01b0319928316179092559091169216919091179055565b6110bf611daf565b806110c9816120b5565b50600580546001600160a01b0319166001600160a01b0392909216919091179055565b602881565b60085468010000000000000000900463ffffffff1681565b611111612113565b6003805460ff60a81b1916600160a81b17905561112c611daf565b60006111577f42616e636f72436f6e766572746572557067726164657200000000000000000061201e565b6001600160a01b038516600090815260076020526040902060010154909150600160301b900460ff161580611191575061118f610cbf565b155b806111af57506000546001600160a01b038281166201000090920416145b6111f4576040805162461bcd60e51b815260206004820152601160248201527011549497d050d0d154d4d7d11153925151607a1b604482015290519081900360640190fd5b6111ff848484612172565b6001600160a01b038416600090815260076020526040902060010154600160301b900460ff161561123357611233846121a3565b50506003805460ff60a81b191690555050565b6003546001600160a01b031681565b61125d611daf565b7f42616e636f72436f6e766572746572557067726164657200000000000000000061128781612281565b600460009054906101000a90046001600160a01b03166001600160a01b031663f2fde38b836040518263ffffffff1660e01b815260040180826001600160a01b03168152602001915050600060405180830381600087803b1580156112eb57600080fd5b505af11580156112ff573d6000803e3d6000fd5b505050505050565b61130f612113565b6003805460ff60a81b1916600160a81b17905561132a611daf565b73eeeeeeeeeeeeeeeeeeeeeeeeeeeeeeeeeeeeeeee61134881611e08565b60006113737f42616e636f72436f6e766572746572557067726164657200000000000000000061201e565b905061137d610cbf565b158061139c57506000546001600160a01b038281166201000090920416145b6113e1576040805162461bcd60e51b815260206004820152601160248201527011549497d050d0d154d4d7d11153925151607a1b604482015290519081900360640190fd5b6040516001600160a01b038416904780156108fc02916000818181858888f19350505050158015611416573d6000803e3d6000fd5b5061143473eeeeeeeeeeeeeeeeeeeeeeeeeeeeeeeeeeeeeeee6121a3565b50506003805460ff60a81b1916905550565b61144e611daf565b611456611688565b61ffff16156114ac576040805162461bcd60e51b815260206004820152601960248201527f4552525f494e56414c49445f524553455256455f434f554e5400000000000000604482015290519081900360640190fd5b6114b682826122e3565b5050565b600054610100900460ff16806114d357506114d3611e7f565b806114e1575060005460ff16155b61151c5760405162461bcd60e51b815260040180806020018281038252602e815260200180613699602e913960400191505060405180910390fd5b600054610100900460ff16158015611547576000805460ff1961ff0019909116610100171660011790555b611552848484610d67565b8015610e60576000805461ff001916905550505050565b6000611573611688565b905090565b6001546001600160a01b031633146115cb576040805162461bcd60e51b815260206004820152601160248201527011549497d050d0d154d4d7d11153925151607a1b604482015290519081900360640190fd5b600154600080546040516001600160a01b039384169362010000909204909116917f343765429aea5a34b3ff6a3785a98a5abb2597aca87bfbb58632c173d585373a91a3600180546000805475ffffffffffffffffffffffffffffffffffffffff000019166001600160a01b03831662010000021790556001600160a01b0319169055565b6002546001600160a01b031681565b6000546201000090046001600160a01b031681565b600854640100000000900463ffffffff1681565b60065490565b60045460009081906001600160a01b0385811691161480156116d257506001600160a01b038516600090815260076020526040902060010154600160301b900460ff165b156116e9576116e083612513565b91509150610ca3565b6004546001600160a01b03868116911614801561172857506001600160a01b038416600090815260076020526040902060010154600160301b900460ff165b15611736576116e08361271d565b6040805162461bcd60e51b815260206004820152601160248201527f4552525f494e56414c49445f544f4b454e000000000000000000000000000000604482015290519081900360640190fd5b61178b611daf565b600354600280546001600160a01b0319166001600160a01b03909216919091179055565b600181565b6005546001600160a01b031681565b6117cb611daf565b6117d3612811565b6004546001906001600160a01b03166117ea610e78565b61ffff167f6b08c2e2c9969e55a647a764db9b554d64dc42f1a704da11a6d5b129ad163f2c60405160405180910390a4565b6006818154811061182957fe5b6000918252602090912001546001600160a01b0316905081565b600190565b6004546001600160a01b031681565b6001546001600160a01b031681565b61186e611daf565b60006118997f42616e636f72436f6e766572746572557067726164657200000000000000000061201e565b6004549091506000906001600160a01b03166118b3610e78565b61ffff167f6b08c2e2c9969e55a647a764db9b554d64dc42f1a704da11a6d5b129ad163f2c60405160405180910390a46118ec81611d0d565b604080517f90f58c960000000000000000000000000000000000000000000000000000000081526028600482015290516001600160a01b038316916390f58c9691602480830192600092919082900301818387803b15801561194d57600080fd5b505af1158015611961573d6000803e3d6000fd5b50505050610cbc611578565b6007602052600090815260409020805460019091015463ffffffff81169060ff6401000000008204811691650100000000008104821691600160301b9091041685565b60006119bb826119c1565b92915050565b6000816119cd81611e08565b50506001600160a01b031660009081526007602052604090205490565b60006119f4612113565b6003805460ff60a81b1916600160a81b1790557f42616e636f724e6574776f726b00000000000000000000000000000000000000611a3181612281565b856001600160a01b0316876001600160a01b03161415611a98576040805162461bcd60e51b815260206004820152601660248201527f4552525f53414d455f534f555243455f54415247455400000000000000000000604482015290519081900360640190fd5b6005546001600160a01b03161580611ba5575060055460408051633af32abf60e01b81526001600160a01b03878116600483015291519190921691633af32abf916024808301926020929190829003018186803b158015611af857600080fd5b505afa158015611b0c573d6000803e3d6000fd5b505050506040513d6020811015611b2257600080fd5b50518015611ba5575060055460408051633af32abf60e01b81526001600160a01b03868116600483015291519190921691633af32abf916024808301926020929190829003018186803b158015611b7857600080fd5b505afa158015611b8c573d6000803e3d6000fd5b505050506040513d6020811015611ba257600080fd5b50515b611bf6576040805162461bcd60e51b815260206004820152601360248201527f4552525f4e4f545f57484954454c495354454400000000000000000000000000604482015290519081900360640190fd5b611c0387878787876128f5565b6003805460ff60a81b19169055979650505050505050565b611c23611daf565b60085463ffffffff64010000000090910481169082161115611c8c576040805162461bcd60e51b815260206004820152601a60248201527f4552525f494e56414c49445f434f4e56455253494f4e5f464545000000000000604482015290519081900360640190fd5b6008546040805163ffffffff6801000000000000000090930483168152918316602083015280517f81cd2ffb37dd237c0e4e2a3de5265fcf9deb43d3e7801e80db9f1ccfba7ee6009281900390910190a16008805463ffffffff90921668010000000000000000026bffffffff000000000000000019909216919091179055565b611d15611daf565b6000546001600160a01b0382811662010000909204161415611d7e576040805162461bcd60e51b815260206004820152600e60248201527f4552525f53414d455f4f574e4552000000000000000000000000000000000000604482015290519081900360640190fd5b600180546001600160a01b0319166001600160a01b0392909216919091179055565b6004546001600160a01b031690565b6000546201000090046001600160a01b03163314610e76576040805162461bcd60e51b815260206004820152601160248201527011549497d050d0d154d4d7d11153925151607a1b604482015290519081900360640190fd5b6001600160a01b038116600090815260076020526040902060010154600160301b900460ff16610cbc576040805162461bcd60e51b815260206004820152601360248201527f4552525f494e56414c49445f5245534552564500000000000000000000000000604482015290519081900360640190fd5b303b1590565b6001600160a01b038116610cbc576040805162461bcd60e51b815260206004820152601360248201527f4552525f494e56414c49445f4144445245535300000000000000000000000000604482015290519081900360640190fd5b620f424063ffffffff82161115610cbc576040805162461bcd60e51b815260206004820152601a60248201527f4552525f494e56414c49445f434f4e56455253494f4e5f464545000000000000604482015290519081900360640190fd5b600054610100900460ff1680611f575750611f57611e7f565b80611f65575060005460ff16155b611fa05760405162461bcd60e51b815260040180806020018281038252602e815260200180613699602e913960400191505060405180910390fd5b600054610100900460ff16158015611fcb576000805460ff1961ff0019909116610100171660011790555b81611fd581611e85565b611fdd612abe565b50600280546001600160a01b0384166001600160a01b0319918216811790925560038054909116909117905580156114b6576000805461ff00191690555050565b600254604080517fbb34534c0000000000000000000000000000000000000000000000000000000081526004810184905290516000926001600160a01b03169163bb34534c916024808301926020929190829003018186803b15801561208357600080fd5b505afa158015612097573d6000803e3d6000fd5b505050506040513d60208110156120ad57600080fd5b505192915050565b6001600160a01b038116301415610cbc576040805162461bcd60e51b815260206004820152601360248201527f4552525f414444524553535f49535f53454c4600000000000000000000000000604482015290519081900360640190fd5b600354600160a81b900460ff1615610e76576040805162461bcd60e51b815260206004820152600e60248201527f4552525f5245454e5452414e4359000000000000000000000000000000000000604482015290519081900360640190fd5b61217a611daf565b8261218481611e85565b8261218e81611e85565b83612198816120b5565b6112ff868686612b85565b806121ad81611e08565b6001600160a01b03821673eeeeeeeeeeeeeeeeeeeeeeeeeeeeeeeeeeeeeeee14156121f2576001600160a01b03821660009081526007602052604090204790556114b6565b604080516370a0823160e01b815230600482015290516001600160a01b038416916370a08231916024808301926020929190829003018186803b15801561223857600080fd5b505afa15801561224c573d6000803e3d6000fd5b505050506040513d602081101561226257600080fd5b50516001600160a01b0383166000908152600760205260409020555050565b61228a8161201e565b6001600160a01b0316336001600160a01b031614610cbc576040805162461bcd60e51b815260206004820152601160248201527011549497d050d0d154d4d7d11153925151607a1b604482015290519081900360640190fd5b6122eb611daf565b6122f3612d1d565b816122fd81611e85565b82612307816120b5565b8261231181612d77565b6004546001600160a01b0386811691161480159061235257506001600160a01b038516600090815260076020526040902060010154600160301b900460ff16155b6123a3576040805162461bcd60e51b815260206004820152601360248201527f4552525f494e56414c49445f5245534552564500000000000000000000000000604482015290519081900360640190fd5b60085463ffffffff908116620f4240038116908516111561240b576040805162461bcd60e51b815260206004820152601a60248201527f4552525f494e56414c49445f524553455256455f574549474854000000000000604482015290519081900360640190fd5b61ffff612416611688565b61ffff161061246c576040805162461bcd60e51b815260206004820152601960248201527f4552525f494e56414c49445f524553455256455f434f554e5400000000000000604482015290519081900360640190fd5b5050506001600160a01b0390911660008181526007602052604081208181556001908101805466ff0000000000001963ffffffff80881663ffffffff199384161791909116600160301b179092556006805493840181559093527ff652222313e28459528d920b65115c16c04f3efc82aaedc97be59f3f377c0d3f90910180546001600160a01b031916909317909255600880548084169094019092169216919091179055565b60008061251e612de7565b6000600460009054906101000a90046001600160a01b03166001600160a01b03166318160ddd6040518163ffffffff1660e01b815260040160206040518083038186803b15801561256e57600080fd5b505afa158015612582573d6000803e3d6000fd5b505050506040513d602081101561259857600080fd5b50516006805491925060009182906125ac57fe5b6000918252602090912001546001600160a01b0316905081612615576001600160a01b0381166000908152600760205260409020600101546126089063ffffffff90811690612602908890620f424090612e4016565b90612eb6565b6000935093505050612718565b60006126306c42616e636f72466f726d756c6160981b61201e565b6001600160a01b031663f3250fe284612648856119c1565b6001600160a01b0386166000908152600760209081526040918290206001015482517fffffffff0000000000000000000000000000000000000000000000000000000060e088901b1681526004810195909552602485019390935263ffffffff9092166044840152606483018b905251608480840193829003018186803b1580156126d257600080fd5b505afa1580156126e6573d6000803e3d6000fd5b505050506040513d60208110156126fc57600080fd5b50519050600061270b82612f20565b9182900395509093505050505b915091565b600080612728612de7565b6000600460009054906101000a90046001600160a01b03166001600160a01b03166318160ddd6040518163ffffffff1660e01b815260040160206040518083038186803b15801561277857600080fd5b505afa15801561278c573d6000803e3d6000fd5b505050506040513d60208110156127a257600080fd5b50516006805491925060009182906127b657fe5b6000918252602090912001546001600160a01b03169050818514156127de57612608816119c1565b60006127f96c42616e636f72466f726d756c6160981b61201e565b6001600160a01b03166376cf0b5684612648856119c1565b612819611daf565b6000612823611688565b61ffff1611612879576040805162461bcd60e51b815260206004820152601960248201527f4552525f494e56414c49445f524553455256455f434f554e5400000000000000604482015290519081900360640190fd5b60048054604080517f79ba509700000000000000000000000000000000000000000000000000000000815290516001600160a01b03909216926379ba509792828201926000929082900301818387803b1580156128d557600080fd5b505af11580156128e9573d6000803e3d6000fd5b50505050610e76612f50565b600454600090819081906001600160a01b03888116911614801561293b57506001600160a01b038816600090815260076020526040902060010154600160301b900460ff165b1561295457508661294d868686612f90565b91506129a5565b6004546001600160a01b03898116911614801561299357506001600160a01b038716600090815260076020526040902060010154600160301b900460ff165b1561173657508561294d86868661322f565b6000600460009054906101000a90046001600160a01b03166001600160a01b03166318160ddd6040518163ffffffff1660e01b815260040160206040518083038186803b1580156129f557600080fd5b505afa158015612a09573d6000803e3d6000fd5b505050506040513d6020811015612a1f57600080fd5b50516001600160a01b0380841660008181526007602052604090206001015460045493945063ffffffff16929091167f77f29993cf2c084e726f7e802da0719d6a0ade3e204badc7a3ffd57ecb768c24612a85620f4240612a7f886119c1565b90612e40565b612a988663ffffffff80881690612e4016565b6040805192835260208301919091528051918290030190a3509198975050505050505050565b600054610100900460ff1680612ad75750612ad7611e7f565b80612ae5575060005460ff16155b612b205760405162461bcd60e51b815260040180806020018281038252602e815260200180613699602e913960400191505060405180910390fd5b600054610100900460ff16158015612b4b576000805460ff1961ff0019909116610100171660011790555b6000805475ffffffffffffffffffffffffffffffffffffffff000019163362010000021790558015610cbc576000805461ff001916905550565b604080516001600160a01b038481166024830152604480830185905283518084039091018152606490920183526020820180517bffffffffffffffffffffffffffffffffffffffffffffffffffffffff167fa9059cbb00000000000000000000000000000000000000000000000000000000178152925182516000946060949389169392918291908083835b60208310612c305780518252601f199092019160209182019101612c11565b6001836020036101000a0380198251168184511680821785525050505050509050019150506000604051808303816000865af19150503d8060008114612c92576040519150601f19603f3d011682016040523d82523d6000602084013e612c97565b606091505b5091509150818015612cc5575080511580612cc55750808060200190516020811015612cc257600080fd5b50515b612d16576040805162461bcd60e51b815260206004820152601360248201527f4552525f5452414e534645525f4641494c454400000000000000000000000000604482015290519081900360640190fd5b5050505050565b612d25610cbf565b15610e76576040805162461bcd60e51b815260206004820152600a60248201527f4552525f41435449564500000000000000000000000000000000000000000000604482015290519081900360640190fd5b60008163ffffffff16118015612d965750620f424063ffffffff821611155b610cbc576040805162461bcd60e51b815260206004820152601a60248201527f4552525f494e56414c49445f524553455256455f574549474854000000000000604482015290519081900360640190fd5b612def610cbf565b610e76576040805162461bcd60e51b815260206004820152600c60248201527f4552525f494e4143544956450000000000000000000000000000000000000000604482015290519081900360640190fd5b600082612e4f575060006119bb565b82820282848281612e5c57fe5b0414612eaf576040805162461bcd60e51b815260206004820152600c60248201527f4552525f4f564552464c4f570000000000000000000000000000000000000000604482015290519081900360640190fd5b9392505050565b6000808211612f0c576040805162461bcd60e51b815260206004820152601260248201527f4552525f4449564944455f42595f5a45524f0000000000000000000000000000604482015290519081900360640190fd5b6000828481612f1757fe5b04949350505050565b6008546000906119bb90620f42409061260290859068010000000000000000900463ffffffff90811690612e4016565b60065460005b818110156114b657612f8860068281548110612f6e57fe5b6000918252602090912001546001600160a01b03166121a3565b600101612f56565b6000806000612f9e86612513565b915091508160001415612ff8576040805162461bcd60e51b815260206004820152601660248201527f4552525f5a45524f5f5441524745545f414d4f554e5400000000000000000000604482015290519081900360640190fd5b6000600660008154811061300857fe5b6000918252602090912001546001600160a01b0316905073eeeeeeeeeeeeeeeeeeeeeeeeeeeeeeeeeeeeeeee8114156130945786341461308f576040805162461bcd60e51b815260206004820152601760248201527f4552525f4554485f414d4f554e545f4d49534d41544348000000000000000000604482015290519081900360640190fd5b613176565b341580156131255750866131226130aa836119c1565b604080516370a0823160e01b815230600482015290516001600160a01b038616916370a08231916024808301926020929190829003018186803b1580156130f057600080fd5b505afa158015613104573d6000803e3d6000fd5b505050506040513d602081101561311a57600080fd5b505190613588565b10155b613176576040805162461bcd60e51b815260206004820152601260248201527f4552525f494e56414c49445f414d4f554e540000000000000000000000000000604482015290519081900360640190fd5b61317f816121a3565b60048054604080517f867904b40000000000000000000000000000000000000000000000000000000081526001600160a01b0389811694820194909452602481018790529051929091169163867904b49160448082019260009290919082900301818387803b1580156131f157600080fd5b505af1158015613205573d6000803e3d6000fd5b505060045461322492508391506001600160a01b0316888a87876135e5565b509095945050505050565b60048054604080516370a0823160e01b81523093810193909352516000926001600160a01b03909216916370a08231916024808301926020929190829003018186803b15801561327e57600080fd5b505afa158015613292573d6000803e3d6000fd5b505050506040513d60208110156132a857600080fd5b50518411156132fe576040805162461bcd60e51b815260206004820152601260248201527f4552525f494e56414c49445f414d4f554e540000000000000000000000000000604482015290519081900360640190fd5b60008061330a8661271d565b915091508160001415613364576040805162461bcd60e51b815260206004820152601660248201527f4552525f5a45524f5f5441524745545f414d4f554e5400000000000000000000604482015290519081900360640190fd5b6000600660008154811061337457fe5b600091825260208083209091015460048054604080517f18160ddd00000000000000000000000000000000000000000000000000000000815290516001600160a01b03948516975091909316936318160ddd938084019391929190829003018186803b1580156133e357600080fd5b505afa1580156133f7573d6000803e3d6000fd5b505050506040513d602081101561340d57600080fd5b50519050600061341c836119c1565b9050808510806134355750808514801561343557508189145b61343b57fe5b60048054604080517fa24835d10000000000000000000000000000000000000000000000000000000081523093810193909352602483018c9052516001600160a01b039091169163a24835d191604480830192600092919082900301818387803b1580156134a857600080fd5b505af11580156134bc573d6000803e3d6000fd5b5050506001600160a01b0384166000908152600760205260409020546134e3915086613588565b6001600160a01b03841660008181526007602052604090209190915573eeeeeeeeeeeeeeeeeeeeeeeeeeeeeeeeeeeeeeee1415613556576040516001600160a01b0388169086156108fc029087906000818181858888f19350505050158015613550573d6000803e3d6000fd5b50613561565b613561838887612b85565b60045461357b906001600160a01b0316848a8c89896135e5565b5092979650505050505050565b6000818310156135df576040805162461bcd60e51b815260206004820152600d60248201527f4552525f554e444552464c4f5700000000000000000000000000000000000000604482015290519081900360640190fd5b50900390565b7f8000000000000000000000000000000000000000000000000000000000000000811061360e57fe5b604080518481526020810184905280820183905290516001600160a01b038087169288821692918a16917f276856b36cbc45526a0ba64f44611557a2a8b68662c5388e9fe6d72e86e1c8cb9181900360600190a4505050505050565b6040805160a0810182526000808252602082018190529181018290526060810182905260808101919091529056fe496e697469616c697a61626c653a20636f6e747261637420697320616c726561647920696e697469616c697a6564a26469706673582212207e8c1a3487b2f5dc3b844c7de57fdbd39917d248c1773b16da14568e6f4ea64764736f6c634300060c0033",
  "linkReferences": {},
  "deployedLinkReferences": {}
}