{
  "_format": "hh-sol-artifact-1",
  "contractName": "LiquidTokenConverterProxyable",
  "sourceName": "contracts/bancor/converter/types/liquid-token/LiquidTokenConverterProxyable.sol",
  "abi": [
    {
      "anonymous": false,
      "inputs": [
        {
          "indexed": true,
          "internalType": "uint16",
          "name": "_type",
          "type": "uint16"
        },
        {
          "indexed": true,
          "internalType": "contract IConverterAnchor",
          "name": "_anchor",
          "type": "address"
        },
        {
          "indexed": true,
          "internalType": "bool",
          "name": "_activated",
          "type": "bool"
        }
      ],
      "name": "Activation",
      "type": "event"
    },
    {
      "anonymous": false,
      "inputs": [
        {
          "indexed": true,
          "internalType": "contract IERC20Token",
          "name": "_fromToken",
          "type": "address"
        },
        {
          "indexed": true,
          "internalType": "contract IERC20Token",
          "name": "_toToken",
          "type": "address"
        },
        {
          "indexed": true,
          "internalType": "address",
          "name": "_trader",
          "type": "address"
        },
        {
          "indexed": false,
          "internalType": "uint256",
          "name": "_amount",
          "type": "uint256"
        },
        {
          "indexed": false,
          "internalType": "uint256",
          "name": "_return",
          "type": "uint256"
        },
        {
          "indexed": false,
          "internalType": "int256",
          "name": "_conversionFee",
          "type": "int256"
        }
      ],
      "name": "Conversion",
      "type": "event"
    },
    {
      "anonymous": false,
      "inputs": [
        {
          "indexed": false,
          "internalType": "uint32",
          "name": "_prevFee",
          "type": "uint32"
        },
        {
          "indexed": false,
          "internalType": "uint32",
          "name": "_newFee",
          "type": "uint32"
        }
      ],
      "name": "ConversionFeeUpdate",
      "type": "event"
    },
    {
      "anonymous": false,
      "inputs": [
        {
          "indexed": true,
          "internalType": "address",
          "name": "_prevOwner",
          "type": "address"
        },
        {
          "indexed": true,
          "internalType": "address",
          "name": "_newOwner",
          "type": "address"
        }
      ],
      "name": "OwnerUpdate",
      "type": "event"
    },
    {
      "anonymous": false,
      "inputs": [
        {
          "indexed": true,
          "internalType": "contract IERC20Token",
          "name": "_token1",
          "type": "address"
        },
        {
          "indexed": true,
          "internalType": "contract IERC20Token",
          "name": "_token2",
          "type": "address"
        },
        {
          "indexed": false,
          "internalType": "uint256",
          "name": "_rateN",
          "type": "uint256"
        },
        {
          "indexed": false,
          "internalType": "uint256",
          "name": "_rateD",
          "type": "uint256"
        }
      ],
      "name": "TokenRateUpdate",
      "type": "event"
    },
    {
      "inputs": [
        {
          "internalType": "contract IConverterAnchor",
          "name": "_anchor",
          "type": "address"
        },
        {
          "internalType": "contract IContractRegistry",
          "name": "_registry",
          "type": "address"
        },
        {
          "internalType": "uint32",
          "name": "_maxConversionFee",
          "type": "uint32"
        }
      ],
      "name": "__ConverterBase_initialize",
      "outputs": [],
      "stateMutability": "nonpayable",
      "type": "function"
    },
    {
      "inputs": [],
      "name": "acceptAnchorOwnership",
      "outputs": [],
      "stateMutability": "nonpayable",
      "type": "function"
    },
    {
      "inputs": [],
      "name": "acceptOwnership",
      "outputs": [],
      "stateMutability": "nonpayable",
      "type": "function"
    },
    {
      "inputs": [],
      "name": "acceptTokenOwnership",
      "outputs": [],
      "stateMutability": "nonpayable",
      "type": "function"
    },
    {
      "inputs": [
        {
          "internalType": "contract IERC20Token",
          "name": "_token",
          "type": "address"
        },
        {
          "internalType": "uint32",
          "name": "_weight",
          "type": "uint32"
        }
      ],
      "name": "addReserve",
      "outputs": [],
      "stateMutability": "nonpayable",
      "type": "function"
    },
    {
      "inputs": [],
      "name": "anchor",
      "outputs": [
        {
          "internalType": "contract IConverterAnchor",
          "name": "",
          "type": "address"
        }
      ],
      "stateMutability": "view",
      "type": "function"
    },
    {
      "inputs": [],
      "name": "connectorTokenCount",
      "outputs": [
        {
          "internalType": "uint16",
          "name": "",
          "type": "uint16"
        }
      ],
      "stateMutability": "view",
      "type": "function"
    },
    {
      "inputs": [
        {
          "internalType": "uint256",
          "name": "_index",
          "type": "uint256"
        }
      ],
      "name": "connectorTokens",
      "outputs": [
        {
          "internalType": "contract IERC20Token",
          "name": "",
          "type": "address"
        }
      ],
      "stateMutability": "view",
      "type": "function"
    },
    {
      "inputs": [
        {
          "internalType": "contract IERC20Token",
          "name": "_address",
          "type": "address"
        }
      ],
      "name": "connectors",
      "outputs": [
        {
          "internalType": "uint256",
          "name": "",
          "type": "uint256"
        },
        {
          "internalType": "uint32",
          "name": "",
          "type": "uint32"
        },
        {
          "internalType": "bool",
          "name": "",
          "type": "bool"
        },
        {
          "internalType": "bool",
          "name": "",
          "type": "bool"
        },
        {
          "internalType": "bool",
          "name": "",
          "type": "bool"
        }
      ],
      "stateMutability": "view",
      "type": "function"
    },
    {
      "inputs": [],
      "name": "conversionFee",
      "outputs": [
        {
          "internalType": "uint32",
          "name": "",
          "type": "uint32"
        }
      ],
      "stateMutability": "view",
      "type": "function"
    },
    {
      "inputs": [],
      "name": "conversionWhitelist",
      "outputs": [
        {
          "internalType": "contract IWhitelist",
          "name": "",
          "type": "address"
        }
      ],
      "stateMutability": "view",
      "type": "function"
    },
    {
      "inputs": [],
      "name": "conversionsEnabled",
      "outputs": [
        {
          "internalType": "bool",
          "name": "",
          "type": "bool"
        }
      ],
      "stateMutability": "view",
      "type": "function"
    },
    {
      "inputs": [
        {
          "internalType": "contract IERC20Token",
          "name": "_sourceToken",
          "type": "address"
        },
        {
          "internalType": "contract IERC20Token",
          "name": "_targetToken",
          "type": "address"
        },
        {
          "internalType": "uint256",
          "name": "_amount",
          "type": "uint256"
        },
        {
          "internalType": "address",
          "name": "_trader",
          "type": "address"
        },
        {
          "internalType": "address payable",
          "name": "_beneficiary",
          "type": "address"
        }
      ],
      "name": "convert",
      "outputs": [
        {
          "internalType": "uint256",
          "name": "",
          "type": "uint256"
        }
      ],
      "stateMutability": "payable",
      "type": "function"
    },
    {
      "inputs": [],
      "name": "converterType",
      "outputs": [
        {
          "internalType": "uint16",
          "name": "",
          "type": "uint16"
        }
      ],
      "stateMutability": "pure",
      "type": "function"
    },
    {
      "inputs": [
        {
          "internalType": "contract IERC20Token",
          "name": "_connectorToken",
          "type": "address"
        }
      ],
      "name": "getConnectorBalance",
      "outputs": [
        {
          "internalType": "uint256",
          "name": "",
          "type": "uint256"
        }
      ],
      "stateMutability": "view",
      "type": "function"
    },
    {
      "inputs": [
        {
          "internalType": "contract IERC20Token",
          "name": "_sourceToken",
          "type": "address"
        },
        {
          "internalType": "contract IERC20Token",
          "name": "_targetToken",
          "type": "address"
        },
        {
          "internalType": "uint256",
          "name": "_amount",
          "type": "uint256"
        }
      ],
      "name": "getReturn",
      "outputs": [
        {
          "internalType": "uint256",
          "name": "",
          "type": "uint256"
        },
        {
          "internalType": "uint256",
          "name": "",
          "type": "uint256"
        }
      ],
      "stateMutability": "view",
      "type": "function"
    },
    {
      "inputs": [],
      "name": "hasETHReserve",
      "outputs": [
        {
          "internalType": "bool",
          "name": "",
          "type": "bool"
        }
      ],
      "stateMutability": "view",
      "type": "function"
    },
    {
      "inputs": [
        {
          "internalType": "contract IDSToken",
          "name": "_token",
          "type": "address"
        },
        {
          "internalType": "contract IContractRegistry",
          "name": "_registry",
          "type": "address"
        },
        {
          "internalType": "uint32",
          "name": "_maxConversionFee",
          "type": "uint32"
        }
      ],
      "name": "initialize",
      "outputs": [],
      "stateMutability": "nonpayable",
      "type": "function"
    },
    {
      "inputs": [],
      "name": "isActive",
      "outputs": [
        {
          "internalType": "bool",
          "name": "",
          "type": "bool"
        }
      ],
      "stateMutability": "view",
      "type": "function"
    },
    {
      "inputs": [],
      "name": "isV28OrHigher",
      "outputs": [
        {
          "internalType": "bool",
          "name": "",
          "type": "bool"
        }
      ],
      "stateMutability": "pure",
      "type": "function"
    },
    {
      "inputs": [],
      "name": "maxConversionFee",
      "outputs": [
        {
          "internalType": "uint32",
          "name": "",
          "type": "uint32"
        }
      ],
      "stateMutability": "view",
      "type": "function"
    },
    {
      "inputs": [],
      "name": "newOwner",
      "outputs": [
        {
          "internalType": "address",
          "name": "",
          "type": "address"
        }
      ],
      "stateMutability": "view",
      "type": "function"
    },
    {
      "inputs": [],
      "name": "onlyOwnerCanUpdateRegistry",
      "outputs": [
        {
          "internalType": "bool",
          "name": "",
          "type": "bool"
        }
      ],
      "stateMutability": "view",
      "type": "function"
    },
    {
      "inputs": [],
      "name": "owner",
      "outputs": [
        {
          "internalType": "address",
          "name": "",
          "type": "address"
        }
      ],
      "stateMutability": "view",
      "type": "function"
    },
    {
      "inputs": [],
      "name": "prevRegistry",
      "outputs": [
        {
          "internalType": "contract IContractRegistry",
          "name": "",
          "type": "address"
        }
      ],
      "stateMutability": "view",
      "type": "function"
    },
    {
      "inputs": [],
      "name": "registry",
      "outputs": [
        {
          "internalType": "contract IContractRegistry",
          "name": "",
          "type": "address"
        }
      ],
      "stateMutability": "view",
      "type": "function"
    },
    {
      "inputs": [
        {
          "internalType": "contract IERC20Token",
          "name": "_reserveToken",
          "type": "address"
        }
      ],
      "name": "reserveBalance",
      "outputs": [
        {
          "internalType": "uint256",
          "name": "",
          "type": "uint256"
        }
      ],
      "stateMutability": "view",
      "type": "function"
    },
    {
      "inputs": [],
      "name": "reserveRatio",
      "outputs": [
        {
          "internalType": "uint32",
          "name": "",
          "type": "uint32"
        }
      ],
      "stateMutability": "view",
      "type": "function"
    },
    {
      "inputs": [],
      "name": "reserveTokenCount",
      "outputs": [
        {
          "internalType": "uint16",
          "name": "",
          "type": "uint16"
        }
      ],
      "stateMutability": "view",
      "type": "function"
    },
    {
      "inputs": [
        {
          "internalType": "uint256",
          "name": "",
          "type": "uint256"
        }
      ],
      "name": "reserveTokens",
      "outputs": [
        {
          "internalType": "contract IERC20Token",
          "name": "",
          "type": "address"
        }
      ],
      "stateMutability": "view",
      "type": "function"
    },
    {
      "inputs": [
        {
          "internalType": "contract IERC20Token",
          "name": "_reserveToken",
          "type": "address"
        }
      ],
      "name": "reserveWeight",
      "outputs": [
        {
          "internalType": "uint32",
          "name": "",
          "type": "uint32"
        }
      ],
      "stateMutability": "view",
      "type": "function"
    },
    {
      "inputs": [
        {
          "internalType": "contract IERC20Token",
          "name": "",
          "type": "address"
        }
      ],
      "name": "reserves",
      "outputs": [
        {
          "internalType": "uint256",
          "name": "balance",
          "type": "uint256"
        },
        {
          "internalType": "uint32",
          "name": "weight",
          "type": "uint32"
        },
        {
          "internalType": "bool",
          "name": "deprecated1",
          "type": "bool"
        },
        {
          "internalType": "bool",
          "name": "deprecated2",
          "type": "bool"
        },
        {
          "internalType": "bool",
          "name": "isSet",
          "type": "bool"
        }
      ],
      "stateMutability": "view",
      "type": "function"
    },
    {
      "inputs": [],
      "name": "restoreRegistry",
      "outputs": [],
      "stateMutability": "nonpayable",
      "type": "function"
    },
    {
      "inputs": [
        {
          "internalType": "bool",
          "name": "_onlyOwnerCanUpdateRegistry",
          "type": "bool"
        }
      ],
      "name": "restrictRegistryUpdate",
      "outputs": [],
      "stateMutability": "nonpayable",
      "type": "function"
    },
    {
      "inputs": [
        {
          "internalType": "uint32",
          "name": "_conversionFee",
          "type": "uint32"
        }
      ],
      "name": "setConversionFee",
      "outputs": [],
      "stateMutability": "nonpayable",
      "type": "function"
    },
    {
      "inputs": [
        {
          "internalType": "contract IWhitelist",
          "name": "_whitelist",
          "type": "address"
        }
      ],
      "name": "setConversionWhitelist",
      "outputs": [],
      "stateMutability": "nonpayable",
      "type": "function"
    },
    {
      "inputs": [
        {
          "internalType": "contract IERC20Token",
          "name": "_sourceToken",
          "type": "address"
        },
        {
          "internalType": "contract IERC20Token",
          "name": "_targetToken",
          "type": "address"
        },
        {
          "internalType": "uint256",
          "name": "_amount",
          "type": "uint256"
        }
      ],
      "name": "targetAmountAndFee",
      "outputs": [
        {
          "internalType": "uint256",
          "name": "",
          "type": "uint256"
        },
        {
          "internalType": "uint256",
          "name": "",
          "type": "uint256"
        }
      ],
      "stateMutability": "view",
      "type": "function"
    },
    {
      "inputs": [],
      "name": "token",
      "outputs": [
        {
          "internalType": "contract IConverterAnchor",
          "name": "",
          "type": "address"
        }
      ],
      "stateMutability": "view",
      "type": "function"
    },
    {
      "inputs": [
        {
          "internalType": "address",
          "name": "_newOwner",
          "type": "address"
        }
      ],
      "name": "transferAnchorOwnership",
      "outputs": [],
      "stateMutability": "nonpayable",
      "type": "function"
    },
    {
      "inputs": [
        {
          "internalType": "address",
          "name": "_newOwner",
          "type": "address"
        }
      ],
      "name": "transferOwnership",
      "outputs": [],
      "stateMutability": "nonpayable",
      "type": "function"
    },
    {
      "inputs": [
        {
          "internalType": "address",
          "name": "_newOwner",
          "type": "address"
        }
      ],
      "name": "transferTokenOwnership",
      "outputs": [],
      "stateMutability": "nonpayable",
      "type": "function"
    },
    {
      "inputs": [],
      "name": "updateRegistry",
      "outputs": [],
      "stateMutability": "nonpayable",
      "type": "function"
    },
    {
      "inputs": [],
      "name": "upgrade",
      "outputs": [],
      "stateMutability": "nonpayable",
      "type": "function"
    },
    {
      "inputs": [],
      "name": "version",
      "outputs": [
        {
          "internalType": "uint16",
          "name": "",
          "type": "uint16"
        }
      ],
      "stateMutability": "view",
      "type": "function"
    },
    {
      "inputs": [
        {
          "internalType": "address payable",
          "name": "_to",
          "type": "address"
        }
      ],
      "name": "withdrawETH",
      "outputs": [],
      "stateMutability": "nonpayable",
      "type": "function"
    },
    {
      "inputs": [
        {
          "internalType": "contract IERC20Token",
          "name": "_token",
          "type": "address"
        },
        {
          "internalType": "address",
          "name": "_to",
          "type": "address"
        },
        {
          "internalType": "uint256",
          "name": "_amount",
          "type": "uint256"
        }
      ],
      "name": "withdrawTokens",
      "outputs": [],
      "stateMutability": "nonpayable",
      "type": "function"
    },
    {
      "stateMutability": "payable",
      "type": "receive"
    }
  ],
  "bytecode": "0x60806040526000600360156101000a81548160ff0219169083151502179055506000600860006101000a81548163ffffffff021916908363ffffffff1602179055506000600860046101000a81548163ffffffff021916908363ffffffff16021790555060006008806101000a81548163ffffffff021916908363ffffffff16021790555034801561009057600080fd5b506156b280620000a16000396000f3fe6080604052600436106102815760003560e01c806371f52bf31161014f578063d031370b116100c1578063d89595121161007a578063d895951214610e7d578063dc8de37914610ee2578063e8dc12ff14610f47578063ecbca55d14611009578063f2fde38b1461104a578063fc0c546a1461109b5761035e565b8063d031370b14610cc5578063d260529c14610d2a578063d3fb73b414610d57578063d4ee1d9014610d98578063d55ec69714610dd9578063d66bd52414610df05761035e565b80639b99a8e2116101135780639b99a8e214610b64578063af94b8d814610b93578063b4a176d314610c29578063bf75455814610c40578063c45d3d9214610c6d578063cdc91c6914610cae5761035e565b806371f52bf314610a6b57806379ba509714610a9a5780637b10399914610ab15780638da5cb5b14610af257806394c275ad14610b335761035e565b806338a5e016116101f35780635e35359e116101ac5780635e35359e1461082b57806361cd756e146108a657806367b6d57c146108e7578063690d8320146109385780636a49d2c4146109895780636ecf2b22146109ea5761035e565b806338a5e0161461071d5780633e8ff43f1461073457806349d10b64146107635780634af80f0e1461077a57806354fd4d50146107cb578063579cd3ca146107fa5761035e565b80631cfab290116102455780631cfab290146104f05780631e1401f81461055b57806321e6b53d146105f157806322f3e2d4146106425780632fe8a6ad1461066f57806330243ef11461069c5761035e565b8063024c7ec7146103635780630c7d5cd8146103a05780630e53aae9146103d157806312c2aca41461045e57806319b640151461048b5761035e565b3661035e576007600073eeeeeeeeeeeeeeeeeeeeeeeeeeeeeeeeeeeeeeee73ffffffffffffffffffffffffffffffffffffffff1673ffffffffffffffffffffffffffffffffffffffff16815260200190815260200160002060010160069054906101000a900460ff1661035c576040517f08c379a00000000000000000000000000000000000000000000000000000000081526004018080602001828103825260138152602001807f4552525f494e56414c49445f524553455256450000000000000000000000000081525060200191505060405180910390fd5b005b600080fd5b34801561036f57600080fd5b5061039e6004803603602081101561038657600080fd5b810190808035151590602001909291905050506110dc565b005b3480156103ac57600080fd5b506103b5611101565b604051808263ffffffff16815260200191505060405180910390f35b3480156103dd57600080fd5b50610420600480360360208110156103f457600080fd5b81019080803573ffffffffffffffffffffffffffffffffffffffff169060200190929190505050611117565b604051808681526020018563ffffffff1681526020018415158152602001831515815260200182151581526020019550505050505060405180910390f35b34801561046a57600080fd5b5061047361121a565b60405180821515815260200191505060405180910390f35b34801561049757600080fd5b506104c4600480360360208110156104ae57600080fd5b8101908080359060200190929190505050611285565b604051808273ffffffffffffffffffffffffffffffffffffffff16815260200191505060405180910390f35b3480156104fc57600080fd5b5061053f6004803603602081101561051357600080fd5b81019080803573ffffffffffffffffffffffffffffffffffffffff1690602001909291905050506112c6565b604051808263ffffffff16815260200191505060405180910390f35b34801561056757600080fd5b506105d46004803603606081101561057e57600080fd5b81019080803573ffffffffffffffffffffffffffffffffffffffff169060200190929190803573ffffffffffffffffffffffffffffffffffffffff1690602001909291908035906020019092919050505061132d565b604051808381526020018281526020019250505060405180910390f35b3480156105fd57600080fd5b506106406004803603602081101561061457600080fd5b81019080803573ffffffffffffffffffffffffffffffffffffffff169060200190929190505050611347565b005b34801561064e57600080fd5b5061065761135b565b60405180821515815260200191505060405180910390f35b34801561067b57600080fd5b50610684611433565b60405180821515815260200191505060405180910390f35b3480156106a857600080fd5b5061071b600480360360608110156106bf57600080fd5b81019080803573ffffffffffffffffffffffffffffffffffffffff169060200190929190803573ffffffffffffffffffffffffffffffffffffffff169060200190929190803563ffffffff169060200190929190505050611446565b005b34801561072957600080fd5b506107326115c8565b005b34801561074057600080fd5b506107496115da565b604051808261ffff16815260200191505060405180910390f35b34801561076f57600080fd5b506107786115df565b005b34801561078657600080fd5b506107c96004803603602081101561079d57600080fd5b81019080803573ffffffffffffffffffffffffffffffffffffffff1690602001909291905050506119d9565b005b3480156107d757600080fd5b506107e0611a30565b604051808261ffff16815260200191505060405180910390f35b34801561080657600080fd5b5061080f611a35565b604051808263ffffffff16815260200191505060405180910390f35b34801561083757600080fd5b506108a46004803603606081101561084e57600080fd5b81019080803573ffffffffffffffffffffffffffffffffffffffff169060200190929190803573ffffffffffffffffffffffffffffffffffffffff16906020019092919080359060200190929190505050611a49565b005b3480156108b257600080fd5b506108bb611c57565b604051808273ffffffffffffffffffffffffffffffffffffffff16815260200191505060405180910390f35b3480156108f357600080fd5b506109366004803603602081101561090a57600080fd5b81019080803573ffffffffffffffffffffffffffffffffffffffff169060200190929190505050611c7d565b005b34801561094457600080fd5b506109876004803603602081101561095b57600080fd5b81019080803573ffffffffffffffffffffffffffffffffffffffff169060200190929190505050611d56565b005b34801561099557600080fd5b506109e8600480360360408110156109ac57600080fd5b81019080803573ffffffffffffffffffffffffffffffffffffffff169060200190929190803563ffffffff169060200190929190505050611f23565b005b3480156109f657600080fd5b50610a6960048036036060811015610a0d57600080fd5b81019080803573ffffffffffffffffffffffffffffffffffffffff169060200190929190803573ffffffffffffffffffffffffffffffffffffffff169060200190929190803563ffffffff169060200190929190505050611fba565b005b348015610a7757600080fd5b50610a806120c6565b604051808261ffff16815260200191505060405180910390f35b348015610aa657600080fd5b50610aaf6120d5565b005b348015610abd57600080fd5b50610ac66122dd565b604051808273ffffffffffffffffffffffffffffffffffffffff16815260200191505060405180910390f35b348015610afe57600080fd5b50610b07612303565b604051808273ffffffffffffffffffffffffffffffffffffffff16815260200191505060405180910390f35b348015610b3f57600080fd5b50610b48612329565b604051808263ffffffff16815260200191505060405180910390f35b348015610b7057600080fd5b50610b7961233f565b604051808261ffff16815260200191505060405180910390f35b348015610b9f57600080fd5b50610c0c60048036036060811015610bb657600080fd5b81019080803573ffffffffffffffffffffffffffffffffffffffff169060200190929190803573ffffffffffffffffffffffffffffffffffffffff1690602001909291908035906020019092919050505061234c565b604051808381526020018281526020019250505060405180910390f35b348015610c3557600080fd5b50610c3e612545565b005b348015610c4c57600080fd5b50610c556125b2565b60405180821515815260200191505060405180910390f35b348015610c7957600080fd5b50610c826125b7565b604051808273ffffffffffffffffffffffffffffffffffffffff16815260200191505060405180910390f35b348015610cba57600080fd5b50610cc36125dd565b005b348015610cd157600080fd5b50610cfe60048036036020811015610ce857600080fd5b8101908080359060200190929190505050612664565b604051808273ffffffffffffffffffffffffffffffffffffffff16815260200191505060405180910390f35b348015610d3657600080fd5b50610d3f6126a0565b60405180821515815260200191505060405180910390f35b348015610d6357600080fd5b50610d6c6126a9565b604051808273ffffffffffffffffffffffffffffffffffffffff16815260200191505060405180910390f35b348015610da457600080fd5b50610dad6126cf565b604051808273ffffffffffffffffffffffffffffffffffffffff16815260200191505060405180910390f35b348015610de557600080fd5b50610dee6126f5565b005b348015610dfc57600080fd5b50610e3f60048036036020811015610e1357600080fd5b81019080803573ffffffffffffffffffffffffffffffffffffffff169060200190929190505050612823565b604051808681526020018563ffffffff1681526020018415158152602001831515815260200182151581526020019550505050505060405180910390f35b348015610e8957600080fd5b50610ecc60048036036020811015610ea057600080fd5b81019080803573ffffffffffffffffffffffffffffffffffffffff169060200190929190505050612890565b6040518082815260200191505060405180910390f35b348015610eee57600080fd5b50610f3160048036036020811015610f0557600080fd5b81019080803573ffffffffffffffffffffffffffffffffffffffff1690602001909291905050506128a2565b6040518082815260200191505060405180910390f35b610ff3600480360360a0811015610f5d57600080fd5b81019080803573ffffffffffffffffffffffffffffffffffffffff169060200190929190803573ffffffffffffffffffffffffffffffffffffffff16906020019092919080359060200190929190803573ffffffffffffffffffffffffffffffffffffffff169060200190929190803573ffffffffffffffffffffffffffffffffffffffff1690602001909291905050506128f9565b6040518082815260200191505060405180910390f35b34801561101557600080fd5b506110486004803603602081101561102c57600080fd5b81019080803563ffffffff169060200190929190505050612c79565b005b34801561105657600080fd5b506110996004803603602081101561106d57600080fd5b81019080803573ffffffffffffffffffffffffffffffffffffffff169060200190929190505050612d93565b005b3480156110a757600080fd5b506110b0612ea3565b604051808273ffffffffffffffffffffffffffffffffffffffff16815260200191505060405180910390f35b6110e4612ecd565b80600360146101000a81548160ff02191690831515021790555050565b600860009054906101000a900463ffffffff1681565b6000806000806000611127615613565b600760008873ffffffffffffffffffffffffffffffffffffffff1673ffffffffffffffffffffffffffffffffffffffff1681526020019081526020016000206040518060a0016040529081600082015481526020016001820160009054906101000a900463ffffffff1663ffffffff1663ffffffff1681526020016001820160049054906101000a900460ff161515151581526020016001820160059054906101000a900460ff161515151581526020016001820160069054906101000a900460ff1615151515815250509050806000015181602001516000808460800151955095509550955095505091939590929450565b60006007600073eeeeeeeeeeeeeeeeeeeeeeeeeeeeeeeeeeeeeeee73ffffffffffffffffffffffffffffffffffffffff1673ffffffffffffffffffffffffffffffffffffffff16815260200190815260200160002060010160069054906101000a900460ff16905090565b60006006828154811061129457fe5b9060005260206000200160009054906101000a900473ffffffffffffffffffffffffffffffffffffffff169050919050565b6000816112d281612f92565b600760008473ffffffffffffffffffffffffffffffffffffffff1673ffffffffffffffffffffffffffffffffffffffff16815260200190815260200160002060010160009054906101000a900463ffffffff16915050919050565b60008061133b85858561234c565b91509150935093915050565b61134f612ecd565b61135881611c7d565b50565b60003073ffffffffffffffffffffffffffffffffffffffff16600460009054906101000a900473ffffffffffffffffffffffffffffffffffffffff1673ffffffffffffffffffffffffffffffffffffffff16638da5cb5b6040518163ffffffff1660e01b815260040160206040518083038186803b1580156113dc57600080fd5b505afa1580156113f0573d6000803e3d6000fd5b505050506040513d602081101561140657600080fd5b810190808051906020019092919050505073ffffffffffffffffffffffffffffffffffffffff1614905090565b600360149054906101000a900460ff1681565b600060019054906101000a900460ff16806114655750611464613057565b5b8061147b575060008054906101000a900460ff16155b6114d0576040517f08c379a000000000000000000000000000000000000000000000000000000000815260040180806020018281038252602e81526020018061564f602e913960400191505060405180910390fd5b60008060019054906101000a900460ff161590508015611520576001600060016101000a81548160ff02191690831515021790555060016000806101000a81548160ff0219169083151502179055505b8361152a8161306e565b8261153481613114565b61153d8561319c565b85600460006101000a81548173ffffffffffffffffffffffffffffffffffffffff021916908373ffffffffffffffffffffffffffffffffffffffff16021790555083600860046101000a81548163ffffffff021916908363ffffffff160217905550505080156115c25760008060016101000a81548160ff0219169083151502179055505b50505050565b6115d0612ecd565b6115d86125dd565b565b600090565b600060029054906101000a900473ffffffffffffffffffffffffffffffffffffffff1673ffffffffffffffffffffffffffffffffffffffff163373ffffffffffffffffffffffffffffffffffffffff1614806116485750600360149054906101000a900460ff16155b6116ba576040517f08c379a00000000000000000000000000000000000000000000000000000000081526004018080602001828103825260118152602001807f4552525f4143434553535f44454e49454400000000000000000000000000000081525060200191505060405180910390fd5b60006116e57f436f6e7472616374526567697374727900000000000000000000000000000000613330565b9050600260009054906101000a900473ffffffffffffffffffffffffffffffffffffffff1673ffffffffffffffffffffffffffffffffffffffff168173ffffffffffffffffffffffffffffffffffffffff16141580156117725750600073ffffffffffffffffffffffffffffffffffffffff168173ffffffffffffffffffffffffffffffffffffffff1614155b6117e4576040517f08c379a00000000000000000000000000000000000000000000000000000000081526004018080602001828103825260148152602001807f4552525f494e56414c49445f524547495354525900000000000000000000000081525060200191505060405180910390fd5b600073ffffffffffffffffffffffffffffffffffffffff168173ffffffffffffffffffffffffffffffffffffffff1663bb34534c7f436f6e74726163745265676973747279000000000000000000000000000000006040518263ffffffff1660e01b81526004018082815260200191505060206040518083038186803b15801561186d57600080fd5b505afa158015611881573d6000803e3d6000fd5b505050506040513d602081101561189757600080fd5b810190808051906020019092919050505073ffffffffffffffffffffffffffffffffffffffff161415611932576040517f08c379a00000000000000000000000000000000000000000000000000000000081526004018080602001828103825260148152602001807f4552525f494e56414c49445f524547495354525900000000000000000000000081525060200191505060405180910390fd5b600260009054906101000a900473ffffffffffffffffffffffffffffffffffffffff16600360006101000a81548173ffffffffffffffffffffffffffffffffffffffff021916908373ffffffffffffffffffffffffffffffffffffffff16021790555080600260006101000a81548173ffffffffffffffffffffffffffffffffffffffff021916908373ffffffffffffffffffffffffffffffffffffffff16021790555050565b6119e1612ecd565b806119eb816133e7565b81600560006101000a81548173ffffffffffffffffffffffffffffffffffffffff021916908373ffffffffffffffffffffffffffffffffffffffff1602179055505050565b602881565b60088054906101000a900463ffffffff1681565b611a5161348c565b6001600360156101000a81548160ff021916908315150217905550611a74612ecd565b6000611a9f7f42616e636f72436f6e7665727465725570677261646572000000000000000000613330565b9050600760008573ffffffffffffffffffffffffffffffffffffffff1673ffffffffffffffffffffffffffffffffffffffff16815260200190815260200160002060010160069054906101000a900460ff161580611b025750611b0061135b565b155b80611b5a57508073ffffffffffffffffffffffffffffffffffffffff16600060029054906101000a900473ffffffffffffffffffffffffffffffffffffffff1673ffffffffffffffffffffffffffffffffffffffff16145b611bcc576040517f08c379a00000000000000000000000000000000000000000000000000000000081526004018080602001828103825260118152602001807f4552525f4143434553535f44454e49454400000000000000000000000000000081525060200191505060405180910390fd5b611bd7848484613511565b600760008573ffffffffffffffffffffffffffffffffffffffff1673ffffffffffffffffffffffffffffffffffffffff16815260200190815260200160002060010160069054906101000a900460ff1615611c3657611c358461354a565b5b506000600360156101000a81548160ff021916908315150217905550505050565b600360009054906101000a900473ffffffffffffffffffffffffffffffffffffffff1681565b611c85612ecd565b7f42616e636f72436f6e7665727465725570677261646572000000000000000000611caf816136d5565b600460009054906101000a900473ffffffffffffffffffffffffffffffffffffffff1673ffffffffffffffffffffffffffffffffffffffff1663f2fde38b836040518263ffffffff1660e01b8152600401808273ffffffffffffffffffffffffffffffffffffffff168152602001915050600060405180830381600087803b158015611d3a57600080fd5b505af1158015611d4e573d6000803e3d6000fd5b505050505050565b611d5e61348c565b6001600360156101000a81548160ff021916908315150217905550611d81612ecd565b73eeeeeeeeeeeeeeeeeeeeeeeeeeeeeeeeeeeeeeee611d9f81612f92565b6000611dca7f42616e636f72436f6e7665727465725570677261646572000000000000000000613330565b9050611dd461135b565b1580611e2d57508073ffffffffffffffffffffffffffffffffffffffff16600060029054906101000a900473ffffffffffffffffffffffffffffffffffffffff1673ffffffffffffffffffffffffffffffffffffffff16145b611e9f576040517f08c379a00000000000000000000000000000000000000000000000000000000081526004018080602001828103825260118152602001807f4552525f4143434553535f44454e49454400000000000000000000000000000081525060200191505060405180910390fd5b8273ffffffffffffffffffffffffffffffffffffffff166108fc479081150290604051600060405180830381858888f19350505050158015611ee5573d6000803e3d6000fd5b50611f0373eeeeeeeeeeeeeeeeeeeeeeeeeeeeeeeeeeeeeeee61354a565b50506000600360156101000a81548160ff02191690831515021790555050565b611f2b612ecd565b6000611f3561233f565b61ffff1614611fac576040517f08c379a00000000000000000000000000000000000000000000000000000000081526004018080602001828103825260198152602001807f4552525f494e56414c49445f524553455256455f434f554e540000000000000081525060200191505060405180910390fd5b611fb68282613781565b5050565b600060019054906101000a900460ff1680611fd95750611fd8613057565b5b80611fef575060008054906101000a900460ff16155b612044576040517f08c379a000000000000000000000000000000000000000000000000000000000815260040180806020018281038252602e81526020018061564f602e913960400191505060405180910390fd5b60008060019054906101000a900460ff161590508015612094576001600060016101000a81548160ff02191690831515021790555060016000806101000a81548160ff0219169083151502179055505b61209f848484611446565b80156120c05760008060016101000a81548160ff0219169083151502179055505b50505050565b60006120d061233f565b905090565b600160009054906101000a900473ffffffffffffffffffffffffffffffffffffffff1673ffffffffffffffffffffffffffffffffffffffff163373ffffffffffffffffffffffffffffffffffffffff1614612198576040517f08c379a00000000000000000000000000000000000000000000000000000000081526004018080602001828103825260118152602001807f4552525f4143434553535f44454e49454400000000000000000000000000000081525060200191505060405180910390fd5b600160009054906101000a900473ffffffffffffffffffffffffffffffffffffffff1673ffffffffffffffffffffffffffffffffffffffff16600060029054906101000a900473ffffffffffffffffffffffffffffffffffffffff1673ffffffffffffffffffffffffffffffffffffffff167f343765429aea5a34b3ff6a3785a98a5abb2597aca87bfbb58632c173d585373a60405160405180910390a3600160009054906101000a900473ffffffffffffffffffffffffffffffffffffffff16600060026101000a81548173ffffffffffffffffffffffffffffffffffffffff021916908373ffffffffffffffffffffffffffffffffffffffff1602179055506000600160006101000a81548173ffffffffffffffffffffffffffffffffffffffff021916908373ffffffffffffffffffffffffffffffffffffffff160217905550565b600260009054906101000a900473ffffffffffffffffffffffffffffffffffffffff1681565b600060029054906101000a900473ffffffffffffffffffffffffffffffffffffffff1681565b600860049054906101000a900463ffffffff1681565b6000600680549050905090565b600080600460009054906101000a900473ffffffffffffffffffffffffffffffffffffffff1673ffffffffffffffffffffffffffffffffffffffff168473ffffffffffffffffffffffffffffffffffffffff161480156123f85750600760008673ffffffffffffffffffffffffffffffffffffffff1673ffffffffffffffffffffffffffffffffffffffff16815260200190815260200160002060010160069054906101000a900460ff165b1561240f5761240683613b37565b9150915061253d565b600460009054906101000a900473ffffffffffffffffffffffffffffffffffffffff1673ffffffffffffffffffffffffffffffffffffffff168573ffffffffffffffffffffffffffffffffffffffff161480156124b85750600760008573ffffffffffffffffffffffffffffffffffffffff1673ffffffffffffffffffffffffffffffffffffffff16815260200190815260200160002060010160069054906101000a900460ff165b156124cf576124c683613e11565b9150915061253d565b6040517f08c379a00000000000000000000000000000000000000000000000000000000081526004018080602001828103825260118152602001807f4552525f494e56414c49445f544f4b454e00000000000000000000000000000081525060200191505060405180910390fd5b935093915050565b61254d612ecd565b600360009054906101000a900473ffffffffffffffffffffffffffffffffffffffff16600260006101000a81548173ffffffffffffffffffffffffffffffffffffffff021916908373ffffffffffffffffffffffffffffffffffffffff160217905550565b600181565b600560009054906101000a900473ffffffffffffffffffffffffffffffffffffffff1681565b6125e5612ecd565b6125ed61406d565b60011515600460009054906101000a900473ffffffffffffffffffffffffffffffffffffffff1673ffffffffffffffffffffffffffffffffffffffff166126326115da565b61ffff167f6b08c2e2c9969e55a647a764db9b554d64dc42f1a704da11a6d5b129ad163f2c60405160405180910390a4565b6006818154811061267157fe5b906000526020600020016000915054906101000a900473ffffffffffffffffffffffffffffffffffffffff1681565b60006001905090565b600460009054906101000a900473ffffffffffffffffffffffffffffffffffffffff1681565b600160009054906101000a900473ffffffffffffffffffffffffffffffffffffffff1681565b6126fd612ecd565b60006127287f42616e636f72436f6e7665727465725570677261646572000000000000000000613330565b905060001515600460009054906101000a900473ffffffffffffffffffffffffffffffffffffffff1673ffffffffffffffffffffffffffffffffffffffff1661276f6115da565b61ffff167f6b08c2e2c9969e55a647a764db9b554d64dc42f1a704da11a6d5b129ad163f2c60405160405180910390a46127a881612d93565b8073ffffffffffffffffffffffffffffffffffffffff166390f58c9660286040518263ffffffff1660e01b8152600401808261ffff168152602001915050600060405180830381600087803b15801561280057600080fd5b505af1158015612814573d6000803e3d6000fd5b505050506128206120d5565b50565b60076020528060005260406000206000915090508060000154908060010160009054906101000a900463ffffffff16908060010160049054906101000a900460ff16908060010160059054906101000a900460ff16908060010160069054906101000a900460ff16905085565b600061289b826128a2565b9050919050565b6000816128ae81612f92565b600760008473ffffffffffffffffffffffffffffffffffffffff1673ffffffffffffffffffffffffffffffffffffffff16815260200190815260200160002060000154915050919050565b600061290361348c565b6001600360156101000a81548160ff0219169083151502179055507f42616e636f724e6574776f726b00000000000000000000000000000000000000612948816136d5565b8573ffffffffffffffffffffffffffffffffffffffff168773ffffffffffffffffffffffffffffffffffffffff1614156129ea576040517f08c379a00000000000000000000000000000000000000000000000000000000081526004018080602001828103825260168152602001807f4552525f53414d455f534f555243455f5441524745540000000000000000000081525060200191505060405180910390fd5b600073ffffffffffffffffffffffffffffffffffffffff16600560009054906101000a900473ffffffffffffffffffffffffffffffffffffffff1673ffffffffffffffffffffffffffffffffffffffff161480612bd35750600560009054906101000a900473ffffffffffffffffffffffffffffffffffffffff1673ffffffffffffffffffffffffffffffffffffffff16633af32abf856040518263ffffffff1660e01b8152600401808273ffffffffffffffffffffffffffffffffffffffff16815260200191505060206040518083038186803b158015612acb57600080fd5b505afa158015612adf573d6000803e3d6000fd5b505050506040513d6020811015612af557600080fd5b81019080805190602001909291905050508015612bd25750600560009054906101000a900473ffffffffffffffffffffffffffffffffffffffff1673ffffffffffffffffffffffffffffffffffffffff16633af32abf846040518263ffffffff1660e01b8152600401808273ffffffffffffffffffffffffffffffffffffffff16815260200191505060206040518083038186803b158015612b9657600080fd5b505afa158015612baa573d6000803e3d6000fd5b505050506040513d6020811015612bc057600080fd5b81019080805190602001909291905050505b5b612c45576040517f08c379a00000000000000000000000000000000000000000000000000000000081526004018080602001828103825260138152602001807f4552525f4e4f545f57484954454c49535445440000000000000000000000000081525060200191505060405180910390fd5b612c528787878787614182565b9150506000600360156101000a81548160ff02191690831515021790555095945050505050565b612c81612ecd565b600860049054906101000a900463ffffffff1663ffffffff168163ffffffff161115612d15576040517f08c379a000000000000000000000000000000000000000000000000000000000815260040180806020018281038252601a8152602001807f4552525f494e56414c49445f434f4e56455253494f4e5f46454500000000000081525060200191505060405180910390fd5b7f81cd2ffb37dd237c0e4e2a3de5265fcf9deb43d3e7801e80db9f1ccfba7ee60060088054906101000a900463ffffffff1682604051808363ffffffff1681526020018263ffffffff1681526020019250505060405180910390a1806008806101000a81548163ffffffff021916908363ffffffff16021790555050565b612d9b612ecd565b600060029054906101000a900473ffffffffffffffffffffffffffffffffffffffff1673ffffffffffffffffffffffffffffffffffffffff168173ffffffffffffffffffffffffffffffffffffffff161415612e5f576040517f08c379a000000000000000000000000000000000000000000000000000000000815260040180806020018281038252600e8152602001807f4552525f53414d455f4f574e455200000000000000000000000000000000000081525060200191505060405180910390fd5b80600160006101000a81548173ffffffffffffffffffffffffffffffffffffffff021916908373ffffffffffffffffffffffffffffffffffffffff16021790555050565b6000600460009054906101000a900473ffffffffffffffffffffffffffffffffffffffff16905090565b600060029054906101000a900473ffffffffffffffffffffffffffffffffffffffff1673ffffffffffffffffffffffffffffffffffffffff163373ffffffffffffffffffffffffffffffffffffffff1614612f90576040517f08c379a00000000000000000000000000000000000000000000000000000000081526004018080602001828103825260118152602001807f4552525f4143434553535f44454e49454400000000000000000000000000000081525060200191505060405180910390fd5b565b600760008273ffffffffffffffffffffffffffffffffffffffff1673ffffffffffffffffffffffffffffffffffffffff16815260200190815260200160002060010160069054906101000a900460ff16613054576040517f08c379a00000000000000000000000000000000000000000000000000000000081526004018080602001828103825260138152602001807f4552525f494e56414c49445f524553455256450000000000000000000000000081525060200191505060405180910390fd5b50565b6000803090506000813b9050600081149250505090565b600073ffffffffffffffffffffffffffffffffffffffff168173ffffffffffffffffffffffffffffffffffffffff161415613111576040517f08c379a00000000000000000000000000000000000000000000000000000000081526004018080602001828103825260138152602001807f4552525f494e56414c49445f414444524553530000000000000000000000000081525060200191505060405180910390fd5b50565b620f424063ffffffff168163ffffffff161115613199576040517f08c379a000000000000000000000000000000000000000000000000000000000815260040180806020018281038252601a8152602001807f4552525f494e56414c49445f434f4e56455253494f4e5f46454500000000000081525060200191505060405180910390fd5b50565b600060019054906101000a900460ff16806131bb57506131ba613057565b5b806131d1575060008054906101000a900460ff16155b613226576040517f08c379a000000000000000000000000000000000000000000000000000000000815260040180806020018281038252602e81526020018061564f602e913960400191505060405180910390fd5b60008060019054906101000a900460ff161590508015613276576001600060016101000a81548160ff02191690831515021790555060016000806101000a81548160ff0219169083151502179055505b816132808161306e565b613288614554565b82600260006101000a81548173ffffffffffffffffffffffffffffffffffffffff021916908373ffffffffffffffffffffffffffffffffffffffff16021790555082600360006101000a81548173ffffffffffffffffffffffffffffffffffffffff021916908373ffffffffffffffffffffffffffffffffffffffff16021790555050801561332c5760008060016101000a81548160ff0219169083151502179055505b5050565b6000600260009054906101000a900473ffffffffffffffffffffffffffffffffffffffff1673ffffffffffffffffffffffffffffffffffffffff1663bb34534c836040518263ffffffff1660e01b81526004018082815260200191505060206040518083038186803b1580156133a557600080fd5b505afa1580156133b9573d6000803e3d6000fd5b505050506040513d60208110156133cf57600080fd5b81019080805190602001909291905050509050919050565b3073ffffffffffffffffffffffffffffffffffffffff168173ffffffffffffffffffffffffffffffffffffffff161415613489576040517f08c379a00000000000000000000000000000000000000000000000000000000081526004018080602001828103825260138152602001807f4552525f414444524553535f49535f53454c460000000000000000000000000081525060200191505060405180910390fd5b50565b600360159054906101000a900460ff161561350f576040517f08c379a000000000000000000000000000000000000000000000000000000000815260040180806020018281038252600e8152602001807f4552525f5245454e5452414e435900000000000000000000000000000000000081525060200191505060405180910390fd5b565b613519612ecd565b826135238161306e565b8261352d8161306e565b83613537816133e7565b613542868686614693565b505050505050565b8061355481612f92565b73eeeeeeeeeeeeeeeeeeeeeeeeeeeeeeeeeeeeeeee73ffffffffffffffffffffffffffffffffffffffff168273ffffffffffffffffffffffffffffffffffffffff1614156135e85747600760008473ffffffffffffffffffffffffffffffffffffffff1673ffffffffffffffffffffffffffffffffffffffff168152602001908152602001600020600001819055506136d1565b8173ffffffffffffffffffffffffffffffffffffffff166370a08231306040518263ffffffff1660e01b8152600401808273ffffffffffffffffffffffffffffffffffffffff16815260200191505060206040518083038186803b15801561364f57600080fd5b505afa158015613663573d6000803e3d6000fd5b505050506040513d602081101561367957600080fd5b8101908080519060200190929190505050600760008473ffffffffffffffffffffffffffffffffffffffff1673ffffffffffffffffffffffffffffffffffffffff168152602001908152602001600020600001819055505b5050565b6136de81613330565b73ffffffffffffffffffffffffffffffffffffffff163373ffffffffffffffffffffffffffffffffffffffff161461377e576040517f08c379a00000000000000000000000000000000000000000000000000000000081526004018080602001828103825260118152602001807f4552525f4143434553535f44454e49454400000000000000000000000000000081525060200191505060405180910390fd5b50565b613789612ecd565b6137916148ae565b8161379b8161306e565b826137a5816133e7565b826137af8161492b565b600460009054906101000a900473ffffffffffffffffffffffffffffffffffffffff1673ffffffffffffffffffffffffffffffffffffffff168573ffffffffffffffffffffffffffffffffffffffff161415801561385a5750600760008673ffffffffffffffffffffffffffffffffffffffff1673ffffffffffffffffffffffffffffffffffffffff16815260200190815260200160002060010160069054906101000a900460ff16155b6138cc576040517f08c379a00000000000000000000000000000000000000000000000000000000081526004018080602001828103825260138152602001807f4552525f494e56414c49445f524553455256450000000000000000000000000081525060200191505060405180910390fd5b600860009054906101000a900463ffffffff16620f42400363ffffffff168463ffffffff161115613965576040517f08c379a000000000000000000000000000000000000000000000000000000000815260040180806020018281038252601a8152602001807f4552525f494e56414c49445f524553455256455f57454947485400000000000081525060200191505060405180910390fd5b7fffffffffffffffffffffffffffffffffffffffffffffffffffffffffffffffff61ffff1661399261233f565b61ffff1610613a09576040517f08c379a00000000000000000000000000000000000000000000000000000000081526004018080602001828103825260198152602001807f4552525f494e56414c49445f524553455256455f434f554e540000000000000081525060200191505060405180910390fd5b6000600760008773ffffffffffffffffffffffffffffffffffffffff1673ffffffffffffffffffffffffffffffffffffffff168152602001908152602001600020905060008160000181905550848160010160006101000a81548163ffffffff021916908363ffffffff16021790555060018160010160066101000a81548160ff0219169083151502179055506006869080600181540180825580915050600190039060005260206000200160009091909190916101000a81548173ffffffffffffffffffffffffffffffffffffffff021916908373ffffffffffffffffffffffffffffffffffffffff16021790555084600860008282829054906101000a900463ffffffff160192506101000a81548163ffffffff021916908363ffffffff160217905550505050505050565b600080613b426149c5565b6000600460009054906101000a900473ffffffffffffffffffffffffffffffffffffffff1673ffffffffffffffffffffffffffffffffffffffff166318160ddd6040518163ffffffff1660e01b815260040160206040518083038186803b158015613bac57600080fd5b505afa158015613bc0573d6000803e3d6000fd5b505050506040513d6020811015613bd657600080fd5b8101908080519060200190929190505050905060006006600081548110613bf957fe5b9060005260206000200160009054906101000a900473ffffffffffffffffffffffffffffffffffffffff1690506000821415613cc257613cb5600760008373ffffffffffffffffffffffffffffffffffffffff1673ffffffffffffffffffffffffffffffffffffffff16815260200190815260200160002060010160009054906101000a900463ffffffff1663ffffffff16613ca7620f424063ffffffff1688614a4190919063ffffffff16565b614ae490919063ffffffff16565b6000935093505050613e0c565b6000613ced7f42616e636f72466f726d756c6100000000000000000000000000000000000000613330565b73ffffffffffffffffffffffffffffffffffffffff1663f3250fe284613d12856128a2565b600760008773ffffffffffffffffffffffffffffffffffffffff1673ffffffffffffffffffffffffffffffffffffffff16815260200190815260200160002060010160009054906101000a900463ffffffff168a6040518563ffffffff1660e01b8152600401808581526020018481526020018363ffffffff16815260200182815260200194505050505060206040518083038186803b158015613db557600080fd5b505afa158015613dc9573d6000803e3d6000fd5b505050506040513d6020811015613ddf57600080fd5b810190808051906020019092919050505090506000613dfd82614b73565b90508082038195509550505050505b915091565b600080613e1c6149c5565b6000600460009054906101000a900473ffffffffffffffffffffffffffffffffffffffff1673ffffffffffffffffffffffffffffffffffffffff166318160ddd6040518163ffffffff1660e01b815260040160206040518083038186803b158015613e8657600080fd5b505afa158015613e9a573d6000803e3d6000fd5b505050506040513d6020811015613eb057600080fd5b8101908080519060200190929190505050905060006006600081548110613ed357fe5b9060005260206000200160009054906101000a900473ffffffffffffffffffffffffffffffffffffffff16905084821415613f1e57613f11816128a2565b6000935093505050614068565b6000613f497f42616e636f72466f726d756c6100000000000000000000000000000000000000613330565b73ffffffffffffffffffffffffffffffffffffffff166376cf0b5684613f6e856128a2565b600760008773ffffffffffffffffffffffffffffffffffffffff1673ffffffffffffffffffffffffffffffffffffffff16815260200190815260200160002060010160009054906101000a900463ffffffff168a6040518563ffffffff1660e01b8152600401808581526020018481526020018363ffffffff16815260200182815260200194505050505060206040518083038186803b15801561401157600080fd5b505afa158015614025573d6000803e3d6000fd5b505050506040513d602081101561403b57600080fd5b81019080805190602001909291905050509050600061405982614b73565b90508082038195509550505050505b915091565b614075612ecd565b600061407f61233f565b61ffff16116140f6576040517f08c379a00000000000000000000000000000000000000000000000000000000081526004018080602001828103825260198152602001807f4552525f494e56414c49445f524553455256455f434f554e540000000000000081525060200191505060405180910390fd5b600460009054906101000a900473ffffffffffffffffffffffffffffffffffffffff1673ffffffffffffffffffffffffffffffffffffffff166379ba50976040518163ffffffff1660e01b8152600401600060405180830381600087803b15801561416057600080fd5b505af1158015614174573d6000803e3d6000fd5b50505050614180614bc0565b565b6000806000600460009054906101000a900473ffffffffffffffffffffffffffffffffffffffff1673ffffffffffffffffffffffffffffffffffffffff168773ffffffffffffffffffffffffffffffffffffffff161480156142305750600760008973ffffffffffffffffffffffffffffffffffffffff1673ffffffffffffffffffffffffffffffffffffffff16815260200190815260200160002060010160069054906101000a900460ff165b1561424a57879050614243868686614c26565b915061437c565b600460009054906101000a900473ffffffffffffffffffffffffffffffffffffffff1673ffffffffffffffffffffffffffffffffffffffff168873ffffffffffffffffffffffffffffffffffffffff161480156142f35750600760008873ffffffffffffffffffffffffffffffffffffffff1673ffffffffffffffffffffffffffffffffffffffff16815260200190815260200160002060010160069054906101000a900460ff165b1561430d57869050614306868686614fdd565b915061437b565b6040517f08c379a00000000000000000000000000000000000000000000000000000000081526004018080602001828103825260118152602001807f4552525f494e56414c49445f544f4b454e00000000000000000000000000000081525060200191505060405180910390fd5b5b6000600460009054906101000a900473ffffffffffffffffffffffffffffffffffffffff1673ffffffffffffffffffffffffffffffffffffffff166318160ddd6040518163ffffffff1660e01b815260040160206040518083038186803b1580156143e657600080fd5b505afa1580156143fa573d6000803e3d6000fd5b505050506040513d602081101561441057600080fd5b810190808051906020019092919050505090506000600760008473ffffffffffffffffffffffffffffffffffffffff1673ffffffffffffffffffffffffffffffffffffffff16815260200190815260200160002060010160009054906101000a900463ffffffff1690508273ffffffffffffffffffffffffffffffffffffffff16600460009054906101000a900473ffffffffffffffffffffffffffffffffffffffff1673ffffffffffffffffffffffffffffffffffffffff167f77f29993cf2c084e726f7e802da0719d6a0ade3e204badc7a3ffd57ecb768c2461450f620f424063ffffffff16614501886128a2565b614a4190919063ffffffff16565b6145288563ffffffff1687614a4190919063ffffffff16565b604051808381526020018281526020019250505060405180910390a38394505050505095945050505050565b600060019054906101000a900460ff16806145735750614572613057565b5b80614589575060008054906101000a900460ff16155b6145de576040517f08c379a000000000000000000000000000000000000000000000000000000000815260040180806020018281038252602e81526020018061564f602e913960400191505060405180910390fd5b60008060019054906101000a900460ff16159050801561462e576001600060016101000a81548160ff02191690831515021790555060016000806101000a81548160ff0219169083151502179055505b33600060026101000a81548173ffffffffffffffffffffffffffffffffffffffff021916908373ffffffffffffffffffffffffffffffffffffffff16021790555080156146905760008060016101000a81548160ff0219169083151502179055505b50565b600060608473ffffffffffffffffffffffffffffffffffffffff167fa9059cbb2ab09eb219583f4a59a5d0623ade346d962bcd4e46b11da047c9049b8585604051602401808373ffffffffffffffffffffffffffffffffffffffff16815260200182815260200192505050604051602081830303815290604052907bffffffffffffffffffffffffffffffffffffffffffffffffffffffff19166020820180517bffffffffffffffffffffffffffffffffffffffffffffffffffffffff83818316178352505050506040518082805190602001908083835b6020831061478e578051825260208201915060208101905060208303925061476b565b6001836020036101000a0380198251168184511680821785525050505050509050019150506000604051808303816000865af19150503d80600081146147f0576040519150601f19603f3d011682016040523d82523d6000602084013e6147f5565b606091505b50915091508180156148355750600081511480614834575080806020019051602081101561482257600080fd5b81019080805190602001909291905050505b5b6148a7576040517f08c379a00000000000000000000000000000000000000000000000000000000081526004018080602001828103825260138152602001807f4552525f5452414e534645525f4641494c45440000000000000000000000000081525060200191505060405180910390fd5b5050505050565b6148b661135b565b15614929576040517f08c379a000000000000000000000000000000000000000000000000000000000815260040180806020018281038252600a8152602001807f4552525f4143544956450000000000000000000000000000000000000000000081525060200191505060405180910390fd5b565b60008163ffffffff161180156149505750620f424063ffffffff168163ffffffff1611155b6149c2576040517f08c379a000000000000000000000000000000000000000000000000000000000815260040180806020018281038252601a8152602001807f4552525f494e56414c49445f524553455256455f57454947485400000000000081525060200191505060405180910390fd5b50565b6149cd61135b565b614a3f576040517f08c379a000000000000000000000000000000000000000000000000000000000815260040180806020018281038252600c8152602001807f4552525f494e414354495645000000000000000000000000000000000000000081525060200191505060405180910390fd5b565b600080831415614a545760009050614ade565b6000828402905082848281614a6557fe5b0414614ad9576040517f08c379a000000000000000000000000000000000000000000000000000000000815260040180806020018281038252600c8152602001807f4552525f4f564552464c4f57000000000000000000000000000000000000000081525060200191505060405180910390fd5b809150505b92915050565b6000808211614b5b576040517f08c379a00000000000000000000000000000000000000000000000000000000081526004018080602001828103825260128152602001807f4552525f4449564944455f42595f5a45524f000000000000000000000000000081525060200191505060405180910390fd5b6000828481614b6657fe5b0490508091505092915050565b6000614bb9620f424063ffffffff16614bab60088054906101000a900463ffffffff1663ffffffff1685614a4190919063ffffffff16565b614ae490919063ffffffff16565b9050919050565b6000600680549050905060005b81811015614c2257614c1560068281548110614be557fe5b9060005260206000200160009054906101000a900473ffffffffffffffffffffffffffffffffffffffff1661354a565b8080600101915050614bcd565b5050565b6000806000614c3486613b37565b915091506000821415614caf576040517f08c379a00000000000000000000000000000000000000000000000000000000081526004018080602001828103825260168152602001807f4552525f5a45524f5f5441524745545f414d4f554e540000000000000000000081525060200191505060405180910390fd5b60006006600081548110614cbf57fe5b9060005260206000200160009054906101000a900473ffffffffffffffffffffffffffffffffffffffff16905073eeeeeeeeeeeeeeeeeeeeeeeeeeeeeeeeeeeeeeee73ffffffffffffffffffffffffffffffffffffffff168173ffffffffffffffffffffffffffffffffffffffff161415614dae57863414614da9576040517f08c379a00000000000000000000000000000000000000000000000000000000081526004018080602001828103825260178152602001807f4552525f4554485f414d4f554e545f4d49534d4154434800000000000000000081525060200191505060405180910390fd5b614eec565b600034148015614e79575086614e76614dc6836128a2565b8373ffffffffffffffffffffffffffffffffffffffff166370a08231306040518263ffffffff1660e01b8152600401808273ffffffffffffffffffffffffffffffffffffffff16815260200191505060206040518083038186803b158015614e2d57600080fd5b505afa158015614e41573d6000803e3d6000fd5b505050506040513d6020811015614e5757600080fd5b81019080805190602001909291905050506154d390919063ffffffff16565b10155b614eeb576040517f08c379a00000000000000000000000000000000000000000000000000000000081526004018080602001828103825260128152602001807f4552525f494e56414c49445f414d4f554e54000000000000000000000000000081525060200191505060405180910390fd5b5b614ef58161354a565b600460009054906101000a900473ffffffffffffffffffffffffffffffffffffffff1673ffffffffffffffffffffffffffffffffffffffff1663867904b486856040518363ffffffff1660e01b8152600401808373ffffffffffffffffffffffffffffffffffffffff16815260200182815260200192505050600060405180830381600087803b158015614f8857600080fd5b505af1158015614f9c573d6000803e3d6000fd5b50505050614fd081600460009054906101000a900473ffffffffffffffffffffffffffffffffffffffff16888a8787615556565b8293505050509392505050565b6000600460009054906101000a900473ffffffffffffffffffffffffffffffffffffffff1673ffffffffffffffffffffffffffffffffffffffff166370a08231306040518263ffffffff1660e01b8152600401808273ffffffffffffffffffffffffffffffffffffffff16815260200191505060206040518083038186803b15801561506857600080fd5b505afa15801561507c573d6000803e3d6000fd5b505050506040513d602081101561509257600080fd5b8101908080519060200190929190505050841115615118576040517f08c379a00000000000000000000000000000000000000000000000000000000081526004018080602001828103825260128152602001807f4552525f494e56414c49445f414d4f554e54000000000000000000000000000081525060200191505060405180910390fd5b60008061512486613e11565b91509150600082141561519f576040517f08c379a00000000000000000000000000000000000000000000000000000000081526004018080602001828103825260168152602001807f4552525f5a45524f5f5441524745545f414d4f554e540000000000000000000081525060200191505060405180910390fd5b600060066000815481106151af57fe5b9060005260206000200160009054906101000a900473ffffffffffffffffffffffffffffffffffffffff1690506000600460009054906101000a900473ffffffffffffffffffffffffffffffffffffffff1673ffffffffffffffffffffffffffffffffffffffff166318160ddd6040518163ffffffff1660e01b815260040160206040518083038186803b15801561524657600080fd5b505afa15801561525a573d6000803e3d6000fd5b505050506040513d602081101561527057600080fd5b81019080805190602001909291905050509050600061528e836128a2565b9050808510806152a8575080851480156152a757508189145b5b6152ae57fe5b600460009054906101000a900473ffffffffffffffffffffffffffffffffffffffff1673ffffffffffffffffffffffffffffffffffffffff1663a24835d1308b6040518363ffffffff1660e01b8152600401808373ffffffffffffffffffffffffffffffffffffffff16815260200182815260200192505050600060405180830381600087803b15801561534157600080fd5b505af1158015615355573d6000803e3d6000fd5b505050506153ae85600760008673ffffffffffffffffffffffffffffffffffffffff1673ffffffffffffffffffffffffffffffffffffffff168152602001908152602001600020600001546154d390919063ffffffff16565b600760008573ffffffffffffffffffffffffffffffffffffffff1673ffffffffffffffffffffffffffffffffffffffff1681526020019081526020016000206000018190555073eeeeeeeeeeeeeeeeeeeeeeeeeeeeeeeeeeeeeeee73ffffffffffffffffffffffffffffffffffffffff168373ffffffffffffffffffffffffffffffffffffffff161415615488578673ffffffffffffffffffffffffffffffffffffffff166108fc869081150290604051600060405180830381858888f19350505050158015615482573d6000803e3d6000fd5b50615494565b615493838887614693565b5b6154c4600460009054906101000a900473ffffffffffffffffffffffffffffffffffffffff16848a8c8989615556565b84955050505050509392505050565b60008183101561554b576040517f08c379a000000000000000000000000000000000000000000000000000000000815260040180806020018281038252600d8152602001807f4552525f554e444552464c4f570000000000000000000000000000000000000081525060200191505060405180910390fd5b818303905092915050565b7f8000000000000000000000000000000000000000000000000000000000000000811061557f57fe5b8373ffffffffffffffffffffffffffffffffffffffff168573ffffffffffffffffffffffffffffffffffffffff168773ffffffffffffffffffffffffffffffffffffffff167f276856b36cbc45526a0ba64f44611557a2a8b68662c5388e9fe6d72e86e1c8cb86868660405180848152602001838152602001828152602001935050505060405180910390a4505050505050565b6040518060a0016040528060008152602001600063ffffffff168152602001600015158152602001600015158152602001600015158152509056fe496e697469616c697a61626c653a20636f6e747261637420697320616c726561647920696e697469616c697a6564a26469706673582212205a28f4fdd4355ab8219837c7601ebd5019392a68e814539af9985f421c175a1964736f6c634300060c0033",
  "linkReferences": {},
  "deployedLinkReferences": {}
}