{
  "_format": "hh-sol-artifact-1",
  "contractName": "TokenHolderProxyable",
  "sourceName": "contracts/bancor/utility/TokenHolderProxyable.sol",
  "abi": [
    {
      "anonymous": false,
      "inputs": [
        {
          "indexed": true,
          "internalType": "address",
          "name": "_prevOwner",
          "type": "address"
        },
        {
          "indexed": true,
          "internalType": "address",
          "name": "_newOwner",
          "type": "address"
        }
      ],
      "name": "OwnerUpdate",
      "type": "event"
    },
    {
      "inputs": [],
      "name": "acceptOwnership",
      "outputs": [],
      "stateMutability": "nonpayable",
      "type": "function"
    },
    {
      "inputs": [],
      "name": "newOwner",
      "outputs": [
        {
          "internalType": "address",
          "name": "",
          "type": "address"
        }
      ],
      "stateMutability": "view",
      "type": "function"
    },
    {
      "inputs": [],
      "name": "owner",
      "outputs": [
        {
          "internalType": "address",
          "name": "",
          "type": "address"
        }
      ],
      "stateMutability": "view",
      "type": "function"
    },
    {
      "inputs": [
        {
          "internalType": "address",
          "name": "_newOwner",
          "type": "address"
        }
      ],
      "name": "transferOwnership",
      "outputs": [],
      "stateMutability": "nonpayable",
      "type": "function"
    },
    {
      "inputs": [
        {
          "internalType": "contract IERC20Token",
          "name": "_token",
          "type": "address"
        },
        {
          "internalType": "address",
          "name": "_to",
          "type": "address"
        },
        {
          "internalType": "uint256",
          "name": "_amount",
          "type": "uint256"
        }
      ],
      "name": "withdrawTokens",
      "outputs": [],
      "stateMutability": "nonpayable",
      "type": "function"
    }
  ],
  "bytecode": "0x608060405234801561001057600080fd5b50610533806100206000396000f3fe608060405234801561001057600080fd5b50600436106100575760003560e01c80635e35359e1461005c57806379ba5097146100945780638da5cb5b1461009c578063d4ee1d90146100c0578063f2fde38b146100c8575b600080fd5b6100926004803603606081101561007257600080fd5b506001600160a01b038135811691602081013590911690604001356100ee565b005b610092610127565b6100a46101f2565b604080516001600160a01b039092168252519081900360200190f35b6100a4610207565b610092600480360360208110156100de57600080fd5b50356001600160a01b0316610216565b6100f661029a565b82610100816102f5565b8261010a816102f5565b8361011481610349565b61011f86868661039d565b505050505050565b6001546001600160a01b0316331461017a576040805162461bcd60e51b815260206004820152601160248201527011549497d050d0d154d4d7d11153925151607a1b604482015290519081900360640190fd5b600154600080546040516001600160a01b039384169362010000909204909116917f343765429aea5a34b3ff6a3785a98a5abb2597aca87bfbb58632c173d585373a91a3600180546000805462010000600160b01b0319166001600160a01b03831662010000021790556001600160a01b0319169055565b6000546201000090046001600160a01b031681565b6001546001600160a01b031681565b61021e61029a565b6000546001600160a01b0382811662010000909204161415610278576040805162461bcd60e51b815260206004820152600e60248201526d22a9292fa9a0a6a2afa7aba722a960911b604482015290519081900360640190fd5b600180546001600160a01b0319166001600160a01b0392909216919091179055565b6000546201000090046001600160a01b031633146102f3576040805162461bcd60e51b815260206004820152601160248201527011549497d050d0d154d4d7d11153925151607a1b604482015290519081900360640190fd5b565b6001600160a01b038116610346576040805162461bcd60e51b81526020600482015260136024820152724552525f494e56414c49445f4144445245535360681b604482015290519081900360640190fd5b50565b6001600160a01b038116301415610346576040805162461bcd60e51b815260206004820152601360248201527222a9292fa0a2222922a9a9afa4a9afa9a2a62360691b604482015290519081900360640190fd5b604080516001600160a01b038481166024830152604480830185905283518084039091018152606490920183526020820180516001600160e01b031663a9059cbb60e01b178152925182516000946060949389169392918291908083835b6020831061041a5780518252601f1990920191602091820191016103fb565b6001836020036101000a0380198251168184511680821785525050505050509050019150506000604051808303816000865af19150503d806000811461047c576040519150601f19603f3d011682016040523d82523d6000602084013e610481565b606091505b50915091508180156104af5750805115806104af57508080602001905160208110156104ac57600080fd5b50515b6104f6576040805162461bcd60e51b815260206004820152601360248201527211549497d514905394d1915497d19052531151606a1b604482015290519081900360640190fd5b505050505056fea264697066735822122054fdc4510ead0977e73b1755908fa4c5e4f686a040f0d477723ffefa9a3b1aa364736f6c634300060c0033",
  "linkReferences": {},
  "deployedLinkReferences": {}
}