{
  "_format": "hh-sol-artifact-1",
  "contractName": "ConverterUpgrader",
  "sourceName": "contracts/bancor/converter/ConverterUpgrader.sol",
  "abi": [
    {
      "inputs": [
        {
          "internalType": "contract IContractRegistry",
          "name": "_registry",
          "type": "address"
        },
        {
          "internalType": "contract IEtherToken",
          "name": "_etherToken",
          "type": "address"
        }
      ],
      "stateMutability": "nonpayable",
      "type": "constructor"
    },
    {
      "anonymous": false,
      "inputs": [
        {
          "indexed": true,
          "internalType": "contract IConverter",
          "name": "_converter",
          "type": "address"
        },
        {
          "indexed": true,
          "internalType": "address",
          "name": "_owner",
          "type": "address"
        }
      ],
      "name": "ConverterOwned",
      "type": "event"
    },
    {
      "anonymous": false,
      "inputs": [
        {
          "indexed": true,
          "internalType": "address",
          "name": "_oldConverter",
          "type": "address"
        },
        {
          "indexed": true,
          "internalType": "address",
          "name": "_newConverter",
          "type": "address"
        }
      ],
      "name": "ConverterUpgrade",
      "type": "event"
    },
    {
      "anonymous": false,
      "inputs": [
        {
          "indexed": true,
          "internalType": "address",
          "name": "_prevOwner",
          "type": "address"
        },
        {
          "indexed": true,
          "internalType": "address",
          "name": "_newOwner",
          "type": "address"
        }
      ],
      "name": "OwnerUpdate",
      "type": "event"
    },
    {
      "inputs": [],
      "name": "acceptOwnership",
      "outputs": [],
      "stateMutability": "nonpayable",
      "type": "function"
    },
    {
      "inputs": [],
      "name": "etherToken",
      "outputs": [
        {
          "internalType": "contract IEtherToken",
          "name": "",
          "type": "address"
        }
      ],
      "stateMutability": "view",
      "type": "function"
    },
    {
      "inputs": [],
      "name": "newOwner",
      "outputs": [
        {
          "internalType": "address",
          "name": "",
          "type": "address"
        }
      ],
      "stateMutability": "view",
      "type": "function"
    },
    {
      "inputs": [],
      "name": "onlyOwnerCanUpdateRegistry",
      "outputs": [
        {
          "internalType": "bool",
          "name": "",
          "type": "bool"
        }
      ],
      "stateMutability": "view",
      "type": "function"
    },
    {
      "inputs": [],
      "name": "owner",
      "outputs": [
        {
          "internalType": "address",
          "name": "",
          "type": "address"
        }
      ],
      "stateMutability": "view",
      "type": "function"
    },
    {
      "inputs": [],
      "name": "prevRegistry",
      "outputs": [
        {
          "internalType": "contract IContractRegistry",
          "name": "",
          "type": "address"
        }
      ],
      "stateMutability": "view",
      "type": "function"
    },
    {
      "inputs": [],
      "name": "registry",
      "outputs": [
        {
          "internalType": "contract IContractRegistry",
          "name": "",
          "type": "address"
        }
      ],
      "stateMutability": "view",
      "type": "function"
    },
    {
      "inputs": [],
      "name": "restoreRegistry",
      "outputs": [],
      "stateMutability": "nonpayable",
      "type": "function"
    },
    {
      "inputs": [
        {
          "internalType": "bool",
          "name": "_onlyOwnerCanUpdateRegistry",
          "type": "bool"
        }
      ],
      "name": "restrictRegistryUpdate",
      "outputs": [],
      "stateMutability": "nonpayable",
      "type": "function"
    },
    {
      "inputs": [
        {
          "internalType": "address",
          "name": "_newOwner",
          "type": "address"
        }
      ],
      "name": "transferOwnership",
      "outputs": [],
      "stateMutability": "nonpayable",
      "type": "function"
    },
    {
      "inputs": [],
      "name": "updateRegistry",
      "outputs": [],
      "stateMutability": "nonpayable",
      "type": "function"
    },
    {
      "inputs": [
        {
          "internalType": "uint16",
          "name": "_version",
          "type": "uint16"
        }
      ],
      "name": "upgrade",
      "outputs": [],
      "stateMutability": "nonpayable",
      "type": "function"
    },
    {
      "inputs": [
        {
          "internalType": "bytes32",
          "name": "_version",
          "type": "bytes32"
        }
      ],
      "name": "upgrade",
      "outputs": [],
      "stateMutability": "nonpayable",
      "type": "function"
    },
    {
      "inputs": [
        {
          "internalType": "contract IConverter",
          "name": "_converter",
          "type": "address"
        },
        {
          "internalType": "bytes32",
          "name": "_version",
          "type": "bytes32"
        }
      ],
      "name": "upgradeOld",
      "outputs": [],
      "stateMutability": "nonpayable",
      "type": "function"
    }
  ],
  "bytecode": "0x608060405234801561001057600080fd5b50604051611f9c380380611f9c8339818101604052604081101561003357600080fd5b508051602090910151600080546001600160a01b0319163317905581806100598161009c565b50600280546001600160a01b039283166001600160a01b0319918216811790925560038054821690921790915560048054939092169216919091179055506100fa565b6001600160a01b0381166100f7576040805162461bcd60e51b815260206004820152601360248201527f4552525f494e56414c49445f4144445245535300000000000000000000000000604482015290519081900360640190fd5b50565b611e93806101096000396000f3fe608060405234801561001057600080fd5b50600436106100ea5760003560e01c806390f58c961161008c578063bc444e1311610066578063bc444e13146101a1578063d4ee1d90146101be578063f2cfed87146101c6578063f2fde38b146101f2576100ea565b806390f58c9614610170578063b4a176d314610191578063b8066bcb14610199576100ea565b806361cd756e116100c857806361cd756e1461013457806379ba5097146101585780637b103999146101605780638da5cb5b14610168576100ea565b8063024c7ec7146100ef5780632fe8a6ad1461011057806349d10b641461012c575b600080fd5b61010e6004803603602081101561010557600080fd5b50351515610218565b005b610118610259565b604080519115158252519081900360200190f35b61010e610269565b61013c6104aa565b604080516001600160a01b039092168252519081900360200190f35b61010e6104b9565b61013c61057d565b61013c61058c565b61010e6004803603602081101561018657600080fd5b503561ffff1661059b565b61010e6105ac565b61013c6105e5565b61010e600480360360208110156101b757600080fd5b50356105f4565b61013c6105fe565b61010e600480360360408110156101dc57600080fd5b506001600160a01b03813516906020013561060d565b61010e6004803603602081101561020857600080fd5b50356001600160a01b03166109e5565b610220610a7f565b60038054911515600160a01b027fffffffffffffffffffffff00ffffffffffffffffffffffffffffffffffffffff909216919091179055565b600354600160a01b900460ff1681565b6000546001600160a01b031633148061028c5750600354600160a01b900460ff16155b6102d1576040805162461bcd60e51b815260206004820152601160248201527011549497d050d0d154d4d7d11153925151607a1b604482015290519081900360640190fd5b60006102fc7f436f6e7472616374526567697374727900000000000000000000000000000000610ad4565b6002549091506001600160a01b0380831691161480159061032557506001600160a01b03811615155b610376576040805162461bcd60e51b815260206004820152601460248201527f4552525f494e56414c49445f5245474953545259000000000000000000000000604482015290519081900360640190fd5b60006001600160a01b0316816001600160a01b031663bb34534c7f436f6e74726163745265676973747279000000000000000000000000000000006040518263ffffffff1660e01b81526004018082815260200191505060206040518083038186803b1580156103e557600080fd5b505afa1580156103f9573d6000803e3d6000fd5b505050506040513d602081101561040f57600080fd5b50516001600160a01b0316141561046d576040805162461bcd60e51b815260206004820152601460248201527f4552525f494e56414c49445f5245474953545259000000000000000000000000604482015290519081900360640190fd5b60028054600380546001600160a01b0380841673ffffffffffffffffffffffffffffffffffffffff19928316179092559091169216919091179055565b6003546001600160a01b031681565b6001546001600160a01b0316331461050c576040805162461bcd60e51b815260206004820152601160248201527011549497d050d0d154d4d7d11153925151607a1b604482015290519081900360640190fd5b600154600080546040516001600160a01b0393841693909116917f343765429aea5a34b3ff6a3785a98a5abb2597aca87bfbb58632c173d585373a91a3600180546000805473ffffffffffffffffffffffffffffffffffffffff199081166001600160a01b03841617909155169055565b6002546001600160a01b031681565b6000546001600160a01b031681565b6105a93361ffff831661060d565b50565b6105b4610a7f565b6003546002805473ffffffffffffffffffffffffffffffffffffffff19166001600160a01b03909216919091179055565b6004546001600160a01b031681565b6105a9338261060d565b6001546001600160a01b031681565b60008290506000816001600160a01b0316638da5cb5b6040518163ffffffff1660e01b815260040160206040518083038186803b15801561064d57600080fd5b505afa158015610661573d6000803e3d6000fd5b505050506040513d602081101561067757600080fd5b5051905061068482610b6d565b600061068f83610bf9565b905061069b8382610f6a565b6106a583826112a2565b6106af8382611390565b6000836001600160a01b031663fc0c546a6040518163ffffffff1660e01b815260040160206040518083038186803b1580156106ea57600080fd5b505afa1580156106fe573d6000803e3d6000fd5b505050506040513d602081101561071457600080fd5b505190506000610723856117b9565b80156107905750846001600160a01b03166322f3e2d46040518163ffffffff1660e01b815260040160206040518083038186803b15801561076357600080fd5b505afa158015610777573d6000803e3d6000fd5b505050506040513d602081101561078d57600080fd5b50515b9050846001600160a01b0316826001600160a01b0316638da5cb5b6040518163ffffffff1660e01b815260040160206040518083038186803b1580156107d557600080fd5b505afa1580156107e9573d6000803e3d6000fd5b505050506040513d60208110156107ff57600080fd5b50516001600160a01b031614156108cb57846001600160a01b03166321e6b53d846040518263ffffffff1660e01b815260040180826001600160a01b03168152602001915050600060405180830381600087803b15801561085f57600080fd5b505af1158015610873573d6000803e3d6000fd5b50505050826001600160a01b031663cdc91c696040518163ffffffff1660e01b8152600401600060405180830381600087803b1580156108b257600080fd5b505af11580156108c6573d6000803e3d6000fd5b505050505b6108d68584836118fe565b846001600160a01b031663f2fde38b856040518263ffffffff1660e01b815260040180826001600160a01b03168152602001915050600060405180830381600087803b15801561092557600080fd5b505af1158015610939573d6000803e3d6000fd5b50505050826001600160a01b031663f2fde38b856040518263ffffffff1660e01b815260040180826001600160a01b03168152602001915050600060405180830381600087803b15801561098c57600080fd5b505af11580156109a0573d6000803e3d6000fd5b50506040516001600160a01b038087169350881691507f522b846327aea07106ec4d64ae4b6d6dea47689884dab650fd3a1f2e1d6a270190600090a350505050505050565b6109ed610a7f565b6000546001600160a01b0382811691161415610a50576040805162461bcd60e51b815260206004820152600e60248201527f4552525f53414d455f4f574e4552000000000000000000000000000000000000604482015290519081900360640190fd5b6001805473ffffffffffffffffffffffffffffffffffffffff19166001600160a01b0392909216919091179055565b6000546001600160a01b03163314610ad2576040805162461bcd60e51b815260206004820152601160248201527011549497d050d0d154d4d7d11153925151607a1b604482015290519081900360640190fd5b565b600254604080517fbb34534c0000000000000000000000000000000000000000000000000000000081526004810184905290516000926001600160a01b03169163bb34534c916024808301926020929190829003018186803b158015610b3957600080fd5b505afa158015610b4d573d6000803e3d6000fd5b505050506040513d6020811015610b6357600080fd5b505190505b919050565b806001600160a01b03166379ba50976040518163ffffffff1660e01b8152600401600060405180830381600087803b158015610ba857600080fd5b505af1158015610bbc573d6000803e3d6000fd5b50506040513092506001600160a01b03841691507ff764604894fa993d4370a9cb28b81c11deb1aafdb2909156173ae3833dad807590600090a350565b600080826001600160a01b031663fc0c546a6040518163ffffffff1660e01b815260040160206040518083038186803b158015610c3557600080fd5b505afa158015610c49573d6000803e3d6000fd5b505050506040513d6020811015610c5f57600080fd5b5051604080517f94c275ad00000000000000000000000000000000000000000000000000000000815290519192506000916001600160a01b038616916394c275ad916004808301926020929190829003018186803b158015610cc057600080fd5b505afa158015610cd4573d6000803e3d6000fd5b505050506040513d6020811015610cea57600080fd5b5051604080517f71f52bf300000000000000000000000000000000000000000000000000000000815290519192506000916001600160a01b038716916371f52bf3916004808301926020929190829003018186803b158015610d4b57600080fd5b505afa158015610d5f573d6000803e3d6000fd5b505050506040513d6020811015610d7557600080fd5b505190506000610d84866117b9565b15610df557856001600160a01b0316633e8ff43f6040518163ffffffff1660e01b815260040160206040518083038186803b158015610dc257600080fd5b505afa158015610dd6573d6000803e3d6000fd5b505050506040513d6020811015610dec57600080fd5b50519050610e06565b60018261ffff161115610e06575060015b6000610e317f436f6e766572746572466163746f727900000000000000000000000000000000610ad4565b600254604080517f15f64b6a00000000000000000000000000000000000000000000000000000000815261ffff861660048201526001600160a01b038981166024830152928316604482015263ffffffff881660648201529051929350600092918416916315f64b6a9160848082019260209290919082900301818787803b158015610ebc57600080fd5b505af1158015610ed0573d6000803e3d6000fd5b505050506040513d6020811015610ee657600080fd5b5051604080517f79ba509700000000000000000000000000000000000000000000000000000000815290519192506001600160a01b038316916379ba50979160048082019260009290919082900301818387803b158015610f4657600080fd5b505af1158015610f5a573d6000803e3d6000fd5b50929a9950505050505050505050565b6000826001600160a01b03166371f52bf36040518163ffffffff1660e01b815260040160206040518083038186803b158015610fa557600080fd5b505afa158015610fb9573d6000803e3d6000fd5b505050506040513d6020811015610fcf57600080fd5b5051905060005b8161ffff168161ffff16101561129c576000846001600160a01b03166319b64015836040518263ffffffff1660e01b8152600401808261ffff16815260200191505060206040518083038186803b15801561103057600080fd5b505afa158015611044573d6000803e3d6000fd5b505050506040513d602081101561105a57600080fd5b5051604080517f0e53aae90000000000000000000000000000000000000000000000000000000081526001600160a01b038084166004830152915192935060009291881691630e53aae99160248082019260a092909190829003018186803b1580156110c557600080fd5b505afa1580156110d9573d6000803e3d6000fd5b505050506040513d60a08110156110ef57600080fd5b506020015190506001600160a01b03821673eeeeeeeeeeeeeeeeeeeeeeeeeeeeeeeeeeeeeeee141561119f5760408051631a9274b160e21b815273eeeeeeeeeeeeeeeeeeeeeeeeeeeeeeeeeeeeeeee600482015263ffffffff8316602482015290516001600160a01b03871691636a49d2c491604480830192600092919082900301818387803b15801561118257600080fd5b505af1158015611196573d6000803e3d6000fd5b50505050611292565b6004546001600160a01b038381169116141561121c5760408051631a9274b160e21b815273eeeeeeeeeeeeeeeeeeeeeeeeeeeeeeeeeeeeeeee600482015263ffffffff8316602482015290516001600160a01b03871691636a49d2c491604480830192600092919082900301818387803b15801561118257600080fd5b846001600160a01b0316636a49d2c483836040518363ffffffff1660e01b815260040180836001600160a01b031681526020018263ffffffff16815260200192505050600060405180830381600087803b15801561127957600080fd5b505af115801561128d573d6000803e3d6000fd5b505050505b5050600101610fd6565b50505050565b6000826001600160a01b031663579cd3ca6040518163ffffffff1660e01b815260040160206040518083038186803b1580156112dd57600080fd5b505afa1580156112f1573d6000803e3d6000fd5b505050506040513d602081101561130757600080fd5b5051604080517fecbca55d00000000000000000000000000000000000000000000000000000000815263ffffffff8316600482015290519192506001600160a01b0384169163ecbca55d9160248082019260009290919082900301818387803b15801561137357600080fd5b505af1158015611387573d6000803e3d6000fd5b50505050505050565b600080836001600160a01b03166371f52bf36040518163ffffffff1660e01b815260040160206040518083038186803b1580156113cc57600080fd5b505afa1580156113e0573d6000803e3d6000fd5b505050506040513d60208110156113f657600080fd5b5051905060005b8161ffff168161ffff1610156117b2576000856001600160a01b03166319b64015836040518263ffffffff1660e01b8152600401808261ffff16815260200191505060206040518083038186803b15801561145757600080fd5b505afa15801561146b573d6000803e3d6000fd5b505050506040513d602081101561148157600080fd5b505190506001600160a01b03811673eeeeeeeeeeeeeeeeeeeeeeeeeeeeeeeeeeeeeeee141561151657856001600160a01b031663690d8320866040518263ffffffff1660e01b815260040180826001600160a01b03168152602001915050600060405180830381600087803b1580156114f957600080fd5b505af115801561150d573d6000803e3d6000fd5b505050506117a9565b6004546001600160a01b03828116911614156116a357600460009054906101000a90046001600160a01b03166001600160a01b03166370a08231876040518263ffffffff1660e01b815260040180826001600160a01b0316815260200191505060206040518083038186803b15801561158e57600080fd5b505afa1580156115a2573d6000803e3d6000fd5b505050506040513d60208110156115b857600080fd5b50516004805460408051632f1a9acf60e11b81526001600160a01b03928316938101939093523060248401526044830184905251929650881691635e35359e9160648082019260009290919082900301818387803b15801561161957600080fd5b505af115801561162d573d6000803e3d6000fd5b505060048054604080517f205c28780000000000000000000000000000000000000000000000000000000081526001600160a01b038b811694820194909452602481018a9052905192909116935063205c2878925060448082019260009290919082900301818387803b1580156114f957600080fd5b604080517f70a082310000000000000000000000000000000000000000000000000000000081526001600160a01b038881166004830152915183928316916370a08231916024808301926020929190829003018186803b15801561170657600080fd5b505afa15801561171a573d6000803e3d6000fd5b505050506040513d602081101561173057600080fd5b505160408051632f1a9acf60e11b81526001600160a01b038481166004830152898116602483015260448201849052915192975090891691635e35359e9160648082019260009290919082900301818387803b15801561178f57600080fd5b505af11580156117a3573d6000803e3d6000fd5b50505050505b506001016113fd565b5050505050565b60408051600481526024810182526020810180517bffffffffffffffffffffffffffffffffffffffffffffffffffffffff167fd260529c000000000000000000000000000000000000000000000000000000001781529151815160009384926060926001600160a01b03881692610fa0928792909182918083835b602083106118535780518252601f199092019160209182019101611834565b6001836020036101000a0380198251168184511680821785525050505050509050019150506000604051808303818686fa925050503d80600081146118b4576040519150601f19603f3d011682016040523d82523d6000602084013e6118b9565b606091505b50915091508180156118cc575080516020145b156118f3578080602001905160208110156118e657600080fd5b50519350610b6892505050565b506000949350505050565b611907836117b9565b61191057611e58565b6000836001600160a01b0316633e8ff43f6040518163ffffffff1660e01b815260040160206040518083038186803b15801561194b57600080fd5b505afa15801561195f573d6000803e3d6000fd5b505050506040513d602081101561197557600080fd5b50519050600261ffff8216141561129c57600084905060008490506000826001600160a01b03166371f52bf36040518163ffffffff1660e01b815260040160206040518083038186803b1580156119cb57600080fd5b505afa1580156119df573d6000803e3d6000fd5b505050506040513d60208110156119f557600080fd5b5051905060005b8161ffff168161ffff161015611ba9576000846001600160a01b03166319b64015836040518263ffffffff1660e01b8152600401808261ffff16815260200191505060206040518083038186803b158015611a5657600080fd5b505afa158015611a6a573d6000803e3d6000fd5b505050506040513d6020811015611a8057600080fd5b5051604080517e5e319c0000000000000000000000000000000000000000000000000000000081526001600160a01b038084166004830152915192935060009291881691625e319c91602480820192602092909190829003018186803b158015611ae957600080fd5b505afa158015611afd573d6000803e3d6000fd5b505050506040513d6020811015611b1357600080fd5b5051604080517fbf7da6ba0000000000000000000000000000000000000000000000000000000081526001600160a01b0385811660048301526024820184905291519293509087169163bf7da6ba9160448082019260009290919082900301818387803b158015611b8357600080fd5b505af1158015611b97573d6000803e3d6000fd5b5050600190940193506119fc92505050565b5084611bb85750505050611e58565b6000836001600160a01b0316630337e3fb6040518163ffffffff1660e01b815260040160206040518083038186803b158015611bf357600080fd5b505afa158015611c07573d6000803e3d6000fd5b505050506040513d6020811015611c1d57600080fd5b5051604080517f2630c12f00000000000000000000000000000000000000000000000000000000815290519192506000916001600160a01b03871691632630c12f916004808301926020929190829003018186803b158015611c7e57600080fd5b505afa158015611c92573d6000803e3d6000fd5b505050506040513d6020811015611ca857600080fd5b5051604080517fb9e1715b00000000000000000000000000000000000000000000000000000000815290519192506000916001600160a01b0384169163b9e1715b916004808301926020929190829003018186803b158015611d0957600080fd5b505afa158015611d1d573d6000803e3d6000fd5b505050506040513d6020811015611d3357600080fd5b5051604080517ff997fda700000000000000000000000000000000000000000000000000000000815290519192506000916001600160a01b0385169163f997fda7916004808301926020929190829003018186803b158015611d9457600080fd5b505afa158015611da8573d6000803e3d6000fd5b505050506040513d6020811015611dbe57600080fd5b5051604080517f119b90cd0000000000000000000000000000000000000000000000000000000081526001600160a01b0387811660048301528581166024830152808416604483015291519293509088169163119b90cd9160648082019260009290919082900301818387803b158015611e3757600080fd5b505af1158015611e4b573d6000803e3d6000fd5b5050505050505050505050505b50505056fea2646970667358221220ac903ff2225c5807b85c7e5da584ae80e73304e09f35aeea8bc336c503ded86364736f6c634300060c0033",
  "linkReferences": {},
  "deployedLinkReferences": {}
}