{
  "_format": "hh-sol-artifact-1",
  "contractName": "ConverterUpgrader",
  "sourceName": "contracts/bancor/converter/ConverterUpgrader.sol",
  "abi": [
    {
      "inputs": [
        {
          "internalType": "contract IContractRegistry",
          "name": "_registry",
          "type": "address"
        },
        {
          "internalType": "contract IEtherToken",
          "name": "_etherToken",
          "type": "address"
        }
      ],
      "stateMutability": "nonpayable",
      "type": "constructor"
    },
    {
      "anonymous": false,
      "inputs": [
        {
          "indexed": true,
          "internalType": "contract IConverter",
          "name": "_converter",
          "type": "address"
        },
        {
          "indexed": true,
          "internalType": "address",
          "name": "_owner",
          "type": "address"
        }
      ],
      "name": "ConverterOwned",
      "type": "event"
    },
    {
      "anonymous": false,
      "inputs": [
        {
          "indexed": true,
          "internalType": "address",
          "name": "_oldConverter",
          "type": "address"
        },
        {
          "indexed": true,
          "internalType": "address",
          "name": "_newConverter",
          "type": "address"
        }
      ],
      "name": "ConverterUpgrade",
      "type": "event"
    },
    {
      "anonymous": false,
      "inputs": [
        {
          "indexed": true,
          "internalType": "address",
          "name": "_prevOwner",
          "type": "address"
        },
        {
          "indexed": true,
          "internalType": "address",
          "name": "_newOwner",
          "type": "address"
        }
      ],
      "name": "OwnerUpdate",
      "type": "event"
    },
    {
      "inputs": [],
      "name": "acceptOwnership",
      "outputs": [],
      "stateMutability": "nonpayable",
      "type": "function"
    },
    {
      "inputs": [],
      "name": "etherToken",
      "outputs": [
        {
          "internalType": "contract IEtherToken",
          "name": "",
          "type": "address"
        }
      ],
      "stateMutability": "view",
      "type": "function"
    },
    {
      "inputs": [],
      "name": "newOwner",
      "outputs": [
        {
          "internalType": "address",
          "name": "",
          "type": "address"
        }
      ],
      "stateMutability": "view",
      "type": "function"
    },
    {
      "inputs": [],
      "name": "onlyOwnerCanUpdateRegistry",
      "outputs": [
        {
          "internalType": "bool",
          "name": "",
          "type": "bool"
        }
      ],
      "stateMutability": "view",
      "type": "function"
    },
    {
      "inputs": [],
      "name": "owner",
      "outputs": [
        {
          "internalType": "address",
          "name": "",
          "type": "address"
        }
      ],
      "stateMutability": "view",
      "type": "function"
    },
    {
      "inputs": [],
      "name": "prevRegistry",
      "outputs": [
        {
          "internalType": "contract IContractRegistry",
          "name": "",
          "type": "address"
        }
      ],
      "stateMutability": "view",
      "type": "function"
    },
    {
      "inputs": [],
      "name": "registry",
      "outputs": [
        {
          "internalType": "contract IContractRegistry",
          "name": "",
          "type": "address"
        }
      ],
      "stateMutability": "view",
      "type": "function"
    },
    {
      "inputs": [],
      "name": "restoreRegistry",
      "outputs": [],
      "stateMutability": "nonpayable",
      "type": "function"
    },
    {
      "inputs": [
        {
          "internalType": "bool",
          "name": "_onlyOwnerCanUpdateRegistry",
          "type": "bool"
        }
      ],
      "name": "restrictRegistryUpdate",
      "outputs": [],
      "stateMutability": "nonpayable",
      "type": "function"
    },
    {
      "inputs": [
        {
          "internalType": "address",
          "name": "_newOwner",
          "type": "address"
        }
      ],
      "name": "transferOwnership",
      "outputs": [],
      "stateMutability": "nonpayable",
      "type": "function"
    },
    {
      "inputs": [],
      "name": "updateRegistry",
      "outputs": [],
      "stateMutability": "nonpayable",
      "type": "function"
    },
    {
      "inputs": [
        {
          "internalType": "uint16",
          "name": "_version",
          "type": "uint16"
        }
      ],
      "name": "upgrade",
      "outputs": [],
      "stateMutability": "nonpayable",
      "type": "function"
    },
    {
      "inputs": [
        {
          "internalType": "bytes32",
          "name": "_version",
          "type": "bytes32"
        }
      ],
      "name": "upgrade",
      "outputs": [],
      "stateMutability": "nonpayable",
      "type": "function"
    },
    {
      "inputs": [
        {
          "internalType": "contract IConverter",
          "name": "_converter",
          "type": "address"
        },
        {
          "internalType": "bytes32",
          "name": "_version",
          "type": "bytes32"
        }
      ],
      "name": "upgradeOld",
      "outputs": [],
      "stateMutability": "nonpayable",
      "type": "function"
    }
  ],
  "bytecode": "0x60806040523480156200001157600080fd5b5060405162002c4f38038062002c4f833981810160405260408110156200003757600080fd5b81019080805190602001909291908051906020019092919050505081336000806101000a81548173ffffffffffffffffffffffffffffffffffffffff021916908373ffffffffffffffffffffffffffffffffffffffff16021790555080620000a5816200017260201b60201c565b81600260006101000a81548173ffffffffffffffffffffffffffffffffffffffff021916908373ffffffffffffffffffffffffffffffffffffffff16021790555081600360006101000a81548173ffffffffffffffffffffffffffffffffffffffff021916908373ffffffffffffffffffffffffffffffffffffffff160217905550505080600460006101000a81548173ffffffffffffffffffffffffffffffffffffffff021916908373ffffffffffffffffffffffffffffffffffffffff160217905550505062000219565b600073ffffffffffffffffffffffffffffffffffffffff168173ffffffffffffffffffffffffffffffffffffffff16141562000216576040517f08c379a00000000000000000000000000000000000000000000000000000000081526004018080602001828103825260138152602001807f4552525f494e56414c49445f414444524553530000000000000000000000000081525060200191505060405180910390fd5b50565b612a2680620002296000396000f3fe608060405234801561001057600080fd5b50600436106100ea5760003560e01c806390f58c961161008c578063bc444e1311610066578063bc444e131461025f578063d4ee1d901461028d578063f2cfed87146102c1578063f2fde38b1461030f576100ea565b806390f58c96146101ef578063b4a176d314610221578063b8066bcb1461022b576100ea565b806361cd756e116100c857806361cd756e1461014957806379ba50971461017d5780637b103999146101875780638da5cb5b146101bb576100ea565b8063024c7ec7146100ef5780632fe8a6ad1461011f57806349d10b641461013f575b600080fd5b61011d6004803603602081101561010557600080fd5b81019080803515159060200190929190505050610353565b005b610127610378565b60405180821515815260200191505060405180910390f35b61014761038b565b005b610151610783565b604051808273ffffffffffffffffffffffffffffffffffffffff16815260200191505060405180910390f35b6101856107a9565b005b61018f6109ae565b604051808273ffffffffffffffffffffffffffffffffffffffff16815260200191505060405180910390f35b6101c36109d4565b604051808273ffffffffffffffffffffffffffffffffffffffff16815260200191505060405180910390f35b61021f6004803603602081101561020557600080fd5b81019080803561ffff1690602001909291905050506109f8565b005b610229610a0c565b005b610233610a79565b604051808273ffffffffffffffffffffffffffffffffffffffff16815260200191505060405180910390f35b61028b6004803603602081101561027557600080fd5b8101908080359060200190929190505050610a9f565b005b610295610aac565b604051808273ffffffffffffffffffffffffffffffffffffffff16815260200191505060405180910390f35b61030d600480360360408110156102d757600080fd5b81019080803573ffffffffffffffffffffffffffffffffffffffff16906020019092919080359060200190929190505050610ad2565b005b6103516004803603602081101561032557600080fd5b81019080803573ffffffffffffffffffffffffffffffffffffffff169060200190929190505050610fb1565b005b61035b6110bf565b80600360146101000a81548160ff02191690831515021790555050565b600360149054906101000a900460ff1681565b60008054906101000a900473ffffffffffffffffffffffffffffffffffffffff1673ffffffffffffffffffffffffffffffffffffffff163373ffffffffffffffffffffffffffffffffffffffff1614806103f25750600360149054906101000a900460ff16155b610464576040517f08c379a00000000000000000000000000000000000000000000000000000000081526004018080602001828103825260118152602001807f4552525f4143434553535f44454e49454400000000000000000000000000000081525060200191505060405180910390fd5b600061048f7f436f6e7472616374526567697374727900000000000000000000000000000000611182565b9050600260009054906101000a900473ffffffffffffffffffffffffffffffffffffffff1673ffffffffffffffffffffffffffffffffffffffff168173ffffffffffffffffffffffffffffffffffffffff161415801561051c5750600073ffffffffffffffffffffffffffffffffffffffff168173ffffffffffffffffffffffffffffffffffffffff1614155b61058e576040517f08c379a00000000000000000000000000000000000000000000000000000000081526004018080602001828103825260148152602001807f4552525f494e56414c49445f524547495354525900000000000000000000000081525060200191505060405180910390fd5b600073ffffffffffffffffffffffffffffffffffffffff168173ffffffffffffffffffffffffffffffffffffffff1663bb34534c7f436f6e74726163745265676973747279000000000000000000000000000000006040518263ffffffff1660e01b81526004018082815260200191505060206040518083038186803b15801561061757600080fd5b505afa15801561062b573d6000803e3d6000fd5b505050506040513d602081101561064157600080fd5b810190808051906020019092919050505073ffffffffffffffffffffffffffffffffffffffff1614156106dc576040517f08c379a00000000000000000000000000000000000000000000000000000000081526004018080602001828103825260148152602001807f4552525f494e56414c49445f524547495354525900000000000000000000000081525060200191505060405180910390fd5b600260009054906101000a900473ffffffffffffffffffffffffffffffffffffffff16600360006101000a81548173ffffffffffffffffffffffffffffffffffffffff021916908373ffffffffffffffffffffffffffffffffffffffff16021790555080600260006101000a81548173ffffffffffffffffffffffffffffffffffffffff021916908373ffffffffffffffffffffffffffffffffffffffff16021790555050565b600360009054906101000a900473ffffffffffffffffffffffffffffffffffffffff1681565b600160009054906101000a900473ffffffffffffffffffffffffffffffffffffffff1673ffffffffffffffffffffffffffffffffffffffff163373ffffffffffffffffffffffffffffffffffffffff161461086c576040517f08c379a00000000000000000000000000000000000000000000000000000000081526004018080602001828103825260118152602001807f4552525f4143434553535f44454e49454400000000000000000000000000000081525060200191505060405180910390fd5b600160009054906101000a900473ffffffffffffffffffffffffffffffffffffffff1673ffffffffffffffffffffffffffffffffffffffff1660008054906101000a900473ffffffffffffffffffffffffffffffffffffffff1673ffffffffffffffffffffffffffffffffffffffff167f343765429aea5a34b3ff6a3785a98a5abb2597aca87bfbb58632c173d585373a60405160405180910390a3600160009054906101000a900473ffffffffffffffffffffffffffffffffffffffff166000806101000a81548173ffffffffffffffffffffffffffffffffffffffff021916908373ffffffffffffffffffffffffffffffffffffffff1602179055506000600160006101000a81548173ffffffffffffffffffffffffffffffffffffffff021916908373ffffffffffffffffffffffffffffffffffffffff160217905550565b600260009054906101000a900473ffffffffffffffffffffffffffffffffffffffff1681565b60008054906101000a900473ffffffffffffffffffffffffffffffffffffffff1681565b610a09338261ffff1660001b610ad2565b50565b610a146110bf565b600360009054906101000a900473ffffffffffffffffffffffffffffffffffffffff16600260006101000a81548173ffffffffffffffffffffffffffffffffffffffff021916908373ffffffffffffffffffffffffffffffffffffffff160217905550565b600460009054906101000a900473ffffffffffffffffffffffffffffffffffffffff1681565b610aa93382610ad2565b50565b600160009054906101000a900473ffffffffffffffffffffffffffffffffffffffff1681565b600082905060008173ffffffffffffffffffffffffffffffffffffffff16638da5cb5b6040518163ffffffff1660e01b815260040160206040518083038186803b158015610b1f57600080fd5b505afa158015610b33573d6000803e3d6000fd5b505050506040513d6020811015610b4957600080fd5b81019080805190602001909291905050509050610b6582611239565b6000610b70836112f6565b9050610b7c83826116ce565b610b868382611b60565b610b908382611c5b565b60008373ffffffffffffffffffffffffffffffffffffffff1663fc0c546a6040518163ffffffff1660e01b815260040160206040518083038186803b158015610bd857600080fd5b505afa158015610bec573d6000803e3d6000fd5b505050506040513d6020811015610c0257600080fd5b810190808051906020019092919050505090506000610c2085612253565b8015610ca957508473ffffffffffffffffffffffffffffffffffffffff166322f3e2d46040518163ffffffff1660e01b815260040160206040518083038186803b158015610c6d57600080fd5b505afa158015610c81573d6000803e3d6000fd5b505050506040513d6020811015610c9757600080fd5b81019080805190602001909291905050505b90508473ffffffffffffffffffffffffffffffffffffffff168273ffffffffffffffffffffffffffffffffffffffff16638da5cb5b6040518163ffffffff1660e01b815260040160206040518083038186803b158015610d0857600080fd5b505afa158015610d1c573d6000803e3d6000fd5b505050506040513d6020811015610d3257600080fd5b810190808051906020019092919050505073ffffffffffffffffffffffffffffffffffffffff161415610e41578473ffffffffffffffffffffffffffffffffffffffff166321e6b53d846040518263ffffffff1660e01b8152600401808273ffffffffffffffffffffffffffffffffffffffff168152602001915050600060405180830381600087803b158015610dc857600080fd5b505af1158015610ddc573d6000803e3d6000fd5b505050508273ffffffffffffffffffffffffffffffffffffffff1663cdc91c696040518163ffffffff1660e01b8152600401600060405180830381600087803b158015610e2857600080fd5b505af1158015610e3c573d6000803e3d6000fd5b505050505b610e4c8584836123ea565b8473ffffffffffffffffffffffffffffffffffffffff1663f2fde38b856040518263ffffffff1660e01b8152600401808273ffffffffffffffffffffffffffffffffffffffff168152602001915050600060405180830381600087803b158015610eb557600080fd5b505af1158015610ec9573d6000803e3d6000fd5b505050508273ffffffffffffffffffffffffffffffffffffffff1663f2fde38b856040518263ffffffff1660e01b8152600401808273ffffffffffffffffffffffffffffffffffffffff168152602001915050600060405180830381600087803b158015610f3657600080fd5b505af1158015610f4a573d6000803e3d6000fd5b505050508273ffffffffffffffffffffffffffffffffffffffff168573ffffffffffffffffffffffffffffffffffffffff167f522b846327aea07106ec4d64ae4b6d6dea47689884dab650fd3a1f2e1d6a270160405160405180910390a350505050505050565b610fb96110bf565b60008054906101000a900473ffffffffffffffffffffffffffffffffffffffff1673ffffffffffffffffffffffffffffffffffffffff168173ffffffffffffffffffffffffffffffffffffffff16141561107b576040517f08c379a000000000000000000000000000000000000000000000000000000000815260040180806020018281038252600e8152602001807f4552525f53414d455f4f574e455200000000000000000000000000000000000081525060200191505060405180910390fd5b80600160006101000a81548173ffffffffffffffffffffffffffffffffffffffff021916908373ffffffffffffffffffffffffffffffffffffffff16021790555050565b60008054906101000a900473ffffffffffffffffffffffffffffffffffffffff1673ffffffffffffffffffffffffffffffffffffffff163373ffffffffffffffffffffffffffffffffffffffff1614611180576040517f08c379a00000000000000000000000000000000000000000000000000000000081526004018080602001828103825260118152602001807f4552525f4143434553535f44454e49454400000000000000000000000000000081525060200191505060405180910390fd5b565b6000600260009054906101000a900473ffffffffffffffffffffffffffffffffffffffff1673ffffffffffffffffffffffffffffffffffffffff1663bb34534c836040518263ffffffff1660e01b81526004018082815260200191505060206040518083038186803b1580156111f757600080fd5b505afa15801561120b573d6000803e3d6000fd5b505050506040513d602081101561122157600080fd5b81019080805190602001909291905050509050919050565b8073ffffffffffffffffffffffffffffffffffffffff166379ba50976040518163ffffffff1660e01b8152600401600060405180830381600087803b15801561128157600080fd5b505af1158015611295573d6000803e3d6000fd5b505050503073ffffffffffffffffffffffffffffffffffffffff168173ffffffffffffffffffffffffffffffffffffffff167ff764604894fa993d4370a9cb28b81c11deb1aafdb2909156173ae3833dad807560405160405180910390a350565b6000808273ffffffffffffffffffffffffffffffffffffffff1663fc0c546a6040518163ffffffff1660e01b815260040160206040518083038186803b15801561133f57600080fd5b505afa158015611353573d6000803e3d6000fd5b505050506040513d602081101561136957600080fd5b8101908080519060200190929190505050905060008373ffffffffffffffffffffffffffffffffffffffff166394c275ad6040518163ffffffff1660e01b815260040160206040518083038186803b1580156113c457600080fd5b505afa1580156113d8573d6000803e3d6000fd5b505050506040513d60208110156113ee57600080fd5b8101908080519060200190929190505050905060008473ffffffffffffffffffffffffffffffffffffffff166371f52bf36040518163ffffffff1660e01b815260040160206040518083038186803b15801561144957600080fd5b505afa15801561145d573d6000803e3d6000fd5b505050506040513d602081101561147357600080fd5b81019080805190602001909291905050509050600061149186612253565b1561151e578573ffffffffffffffffffffffffffffffffffffffff16633e8ff43f6040518163ffffffff1660e01b815260040160206040518083038186803b1580156114dc57600080fd5b505afa1580156114f0573d6000803e3d6000fd5b505050506040513d602081101561150657600080fd5b81019080805190602001909291905050509050611531565b60018261ffff16111561153057600190505b5b600061155c7f436f6e766572746572466163746f727900000000000000000000000000000000611182565b905060008173ffffffffffffffffffffffffffffffffffffffff166315f64b6a8488600260009054906101000a900473ffffffffffffffffffffffffffffffffffffffff16896040518563ffffffff1660e01b8152600401808561ffff1681526020018473ffffffffffffffffffffffffffffffffffffffff1681526020018373ffffffffffffffffffffffffffffffffffffffff1681526020018263ffffffff168152602001945050505050602060405180830381600087803b15801561162357600080fd5b505af1158015611637573d6000803e3d6000fd5b505050506040513d602081101561164d57600080fd5b810190808051906020019092919050505090508073ffffffffffffffffffffffffffffffffffffffff166379ba50976040518163ffffffff1660e01b8152600401600060405180830381600087803b1580156116a857600080fd5b505af11580156116bc573d6000803e3d6000fd5b50505050809650505050505050919050565b60008273ffffffffffffffffffffffffffffffffffffffff166371f52bf36040518163ffffffff1660e01b815260040160206040518083038186803b15801561171657600080fd5b505afa15801561172a573d6000803e3d6000fd5b505050506040513d602081101561174057600080fd5b8101908080519060200190929190505050905060005b8161ffff168161ffff161015611b5a5760008473ffffffffffffffffffffffffffffffffffffffff166319b64015836040518263ffffffff1660e01b8152600401808261ffff16815260200191505060206040518083038186803b1580156117bd57600080fd5b505afa1580156117d1573d6000803e3d6000fd5b505050506040513d60208110156117e757600080fd5b8101908080519060200190929190505050905060008573ffffffffffffffffffffffffffffffffffffffff16630e53aae9836040518263ffffffff1660e01b8152600401808273ffffffffffffffffffffffffffffffffffffffff16815260200191505060a06040518083038186803b15801561186357600080fd5b505afa158015611877573d6000803e3d6000fd5b505050506040513d60a081101561188d57600080fd5b81019080805190602001909291908051906020019092919080519060200190929190805190602001909291908051906020019092919050505050505091505073eeeeeeeeeeeeeeeeeeeeeeeeeeeeeeeeeeeeeeee73ffffffffffffffffffffffffffffffffffffffff168273ffffffffffffffffffffffffffffffffffffffff1614156119bc578473ffffffffffffffffffffffffffffffffffffffff16636a49d2c473eeeeeeeeeeeeeeeeeeeeeeeeeeeeeeeeeeeeeeee836040518363ffffffff1660e01b8152600401808373ffffffffffffffffffffffffffffffffffffffff1681526020018263ffffffff16815260200192505050600060405180830381600087803b15801561199f57600080fd5b505af11580156119b3573d6000803e3d6000fd5b50505050611b4b565b600460009054906101000a900473ffffffffffffffffffffffffffffffffffffffff1673ffffffffffffffffffffffffffffffffffffffff168273ffffffffffffffffffffffffffffffffffffffff161415611aba578473ffffffffffffffffffffffffffffffffffffffff16636a49d2c473eeeeeeeeeeeeeeeeeeeeeeeeeeeeeeeeeeeeeeee836040518363ffffffff1660e01b8152600401808373ffffffffffffffffffffffffffffffffffffffff1681526020018263ffffffff16815260200192505050600060405180830381600087803b158015611a9d57600080fd5b505af1158015611ab1573d6000803e3d6000fd5b50505050611b4a565b8473ffffffffffffffffffffffffffffffffffffffff16636a49d2c483836040518363ffffffff1660e01b8152600401808373ffffffffffffffffffffffffffffffffffffffff1681526020018263ffffffff16815260200192505050600060405180830381600087803b158015611b3157600080fd5b505af1158015611b45573d6000803e3d6000fd5b505050505b5b50508080600101915050611756565b50505050565b60008273ffffffffffffffffffffffffffffffffffffffff1663579cd3ca6040518163ffffffff1660e01b815260040160206040518083038186803b158015611ba857600080fd5b505afa158015611bbc573d6000803e3d6000fd5b505050506040513d6020811015611bd257600080fd5b810190808051906020019092919050505090508173ffffffffffffffffffffffffffffffffffffffff1663ecbca55d826040518263ffffffff1660e01b8152600401808263ffffffff168152602001915050600060405180830381600087803b158015611c3e57600080fd5b505af1158015611c52573d6000803e3d6000fd5b50505050505050565b6000808373ffffffffffffffffffffffffffffffffffffffff166371f52bf36040518163ffffffff1660e01b815260040160206040518083038186803b158015611ca457600080fd5b505afa158015611cb8573d6000803e3d6000fd5b505050506040513d6020811015611cce57600080fd5b8101908080519060200190929190505050905060005b8161ffff168161ffff16101561224c5760008573ffffffffffffffffffffffffffffffffffffffff166319b64015836040518263ffffffff1660e01b8152600401808261ffff16815260200191505060206040518083038186803b158015611d4b57600080fd5b505afa158015611d5f573d6000803e3d6000fd5b505050506040513d6020811015611d7557600080fd5b8101908080519060200190929190505050905073eeeeeeeeeeeeeeeeeeeeeeeeeeeeeeeeeeeeeeee73ffffffffffffffffffffffffffffffffffffffff168173ffffffffffffffffffffffffffffffffffffffff161415611e56578573ffffffffffffffffffffffffffffffffffffffff1663690d8320866040518263ffffffff1660e01b8152600401808273ffffffffffffffffffffffffffffffffffffffff168152602001915050600060405180830381600087803b158015611e3957600080fd5b505af1158015611e4d573d6000803e3d6000fd5b5050505061223e565b600460009054906101000a900473ffffffffffffffffffffffffffffffffffffffff1673ffffffffffffffffffffffffffffffffffffffff168173ffffffffffffffffffffffffffffffffffffffff1614156120eb57600460009054906101000a900473ffffffffffffffffffffffffffffffffffffffff1673ffffffffffffffffffffffffffffffffffffffff166370a08231876040518263ffffffff1660e01b8152600401808273ffffffffffffffffffffffffffffffffffffffff16815260200191505060206040518083038186803b158015611f3557600080fd5b505afa158015611f49573d6000803e3d6000fd5b505050506040513d6020811015611f5f57600080fd5b810190808051906020019092919050505093508573ffffffffffffffffffffffffffffffffffffffff16635e35359e600460009054906101000a900473ffffffffffffffffffffffffffffffffffffffff1630876040518463ffffffff1660e01b8152600401808473ffffffffffffffffffffffffffffffffffffffff1681526020018373ffffffffffffffffffffffffffffffffffffffff1681526020018281526020019350505050600060405180830381600087803b15801561202357600080fd5b505af1158015612037573d6000803e3d6000fd5b50505050600460009054906101000a900473ffffffffffffffffffffffffffffffffffffffff1673ffffffffffffffffffffffffffffffffffffffff1663205c287886866040518363ffffffff1660e01b8152600401808373ffffffffffffffffffffffffffffffffffffffff16815260200182815260200192505050600060405180830381600087803b1580156120ce57600080fd5b505af11580156120e2573d6000803e3d6000fd5b5050505061223d565b60008190508073ffffffffffffffffffffffffffffffffffffffff166370a08231886040518263ffffffff1660e01b8152600401808273ffffffffffffffffffffffffffffffffffffffff16815260200191505060206040518083038186803b15801561215757600080fd5b505afa15801561216b573d6000803e3d6000fd5b505050506040513d602081101561218157600080fd5b810190808051906020019092919050505094508673ffffffffffffffffffffffffffffffffffffffff16635e35359e8288886040518463ffffffff1660e01b8152600401808473ffffffffffffffffffffffffffffffffffffffff1681526020018373ffffffffffffffffffffffffffffffffffffffff1681526020018281526020019350505050600060405180830381600087803b15801561222357600080fd5b505af1158015612237573d6000803e3d6000fd5b50505050505b5b508080600101915050611ce4565b5050505050565b600060607fd260529c8620a59d78f2e58cfd1294673bb6cba228ad1f34ac7731003ab870dd604051602401604051602081830303815290604052907bffffffffffffffffffffffffffffffffffffffffffffffffffffffff19166020820180517bffffffffffffffffffffffffffffffffffffffffffffffffffffffff83818316178352505050509050600060608473ffffffffffffffffffffffffffffffffffffffff16610fa0846040518082805190602001908083835b6020831061232f578051825260208201915060208101905060208303925061230c565b6001836020036101000a0380198251168184511680821785525050505050509050019150506000604051808303818686fa925050503d8060008114612390576040519150601f19603f3d011682016040523d82523d6000602084013e612395565b606091505b50915091508180156123a8575060208151145b156123dd578080602001905160208110156123c257600080fd5b810190808051906020019092919050505093505050506123e5565b600093505050505b919050565b6123f383612253565b6123fc576129eb565b60008373ffffffffffffffffffffffffffffffffffffffff16633e8ff43f6040518163ffffffff1660e01b815260040160206040518083038186803b15801561244457600080fd5b505afa158015612458573d6000803e3d6000fd5b505050506040513d602081101561246e57600080fd5b8101908080519060200190929190505050905060028161ffff1614156129e9576000849050600084905060008273ffffffffffffffffffffffffffffffffffffffff166371f52bf36040518163ffffffff1660e01b815260040160206040518083038186803b1580156124e057600080fd5b505afa1580156124f4573d6000803e3d6000fd5b505050506040513d602081101561250a57600080fd5b8101908080519060200190929190505050905060005b8161ffff168161ffff1610156127015760008473ffffffffffffffffffffffffffffffffffffffff166319b64015836040518263ffffffff1660e01b8152600401808261ffff16815260200191505060206040518083038186803b15801561258757600080fd5b505afa15801561259b573d6000803e3d6000fd5b505050506040513d60208110156125b157600080fd5b8101908080519060200190929190505050905060008573ffffffffffffffffffffffffffffffffffffffff16625e319c836040518263ffffffff1660e01b8152600401808273ffffffffffffffffffffffffffffffffffffffff16815260200191505060206040518083038186803b15801561262c57600080fd5b505afa158015612640573d6000803e3d6000fd5b505050506040513d602081101561265657600080fd5b810190808051906020019092919050505090508473ffffffffffffffffffffffffffffffffffffffff1663bf7da6ba83836040518363ffffffff1660e01b8152600401808373ffffffffffffffffffffffffffffffffffffffff16815260200182815260200192505050600060405180830381600087803b1580156126da57600080fd5b505af11580156126ee573d6000803e3d6000fd5b5050505050508080600101915050612520565b508461271057505050506129eb565b60008373ffffffffffffffffffffffffffffffffffffffff16630337e3fb6040518163ffffffff1660e01b815260040160206040518083038186803b15801561275857600080fd5b505afa15801561276c573d6000803e3d6000fd5b505050506040513d602081101561278257600080fd5b8101908080519060200190929190505050905060008473ffffffffffffffffffffffffffffffffffffffff16632630c12f6040518163ffffffff1660e01b815260040160206040518083038186803b1580156127dd57600080fd5b505afa1580156127f1573d6000803e3d6000fd5b505050506040513d602081101561280757600080fd5b8101908080519060200190929190505050905060008173ffffffffffffffffffffffffffffffffffffffff1663b9e1715b6040518163ffffffff1660e01b815260040160206040518083038186803b15801561286257600080fd5b505afa158015612876573d6000803e3d6000fd5b505050506040513d602081101561288c57600080fd5b8101908080519060200190929190505050905060008273ffffffffffffffffffffffffffffffffffffffff1663f997fda76040518163ffffffff1660e01b815260040160206040518083038186803b1580156128e757600080fd5b505afa1580156128fb573d6000803e3d6000fd5b505050506040513d602081101561291157600080fd5b810190808051906020019092919050505090508573ffffffffffffffffffffffffffffffffffffffff1663119b90cd8584846040518463ffffffff1660e01b8152600401808473ffffffffffffffffffffffffffffffffffffffff1681526020018373ffffffffffffffffffffffffffffffffffffffff1681526020018273ffffffffffffffffffffffffffffffffffffffff1681526020019350505050600060405180830381600087803b1580156129c957600080fd5b505af11580156129dd573d6000803e3d6000fd5b50505050505050505050505b505b50505056fea2646970667358221220ef7eec321f8721960bd442df7e5be1bc6cf284f2b3782396a3b0e84f48f8e90264736f6c634300060c0033",
  "linkReferences": {},
  "deployedLinkReferences": {}
}