{
  "_format": "hh-sol-artifact-1",
  "contractName": "PriceOracle",
  "sourceName": "contracts/bancor/utility/PriceOracle.sol",
  "abi": [
    {
      "inputs": [
        {
          "internalType": "contract IERC20Token",
          "name": "_tokenA",
          "type": "address"
        },
        {
          "internalType": "contract IERC20Token",
          "name": "_tokenB",
          "type": "address"
        },
        {
          "internalType": "contract IChainlinkPriceOracle",
          "name": "_tokenAOracle",
          "type": "address"
        },
        {
          "internalType": "contract IChainlinkPriceOracle",
          "name": "_tokenBOracle",
          "type": "address"
        }
      ],
      "stateMutability": "nonpayable",
      "type": "constructor"
    },
    {
      "inputs": [],
      "name": "lastUpdateTime",
      "outputs": [
        {
          "internalType": "uint256",
          "name": "",
          "type": "uint256"
        }
      ],
      "stateMutability": "view",
      "type": "function"
    },
    {
      "inputs": [
        {
          "internalType": "contract IERC20Token",
          "name": "_tokenA",
          "type": "address"
        },
        {
          "internalType": "contract IERC20Token",
          "name": "_tokenB",
          "type": "address"
        }
      ],
      "name": "latestRate",
      "outputs": [
        {
          "internalType": "uint256",
          "name": "",
          "type": "uint256"
        },
        {
          "internalType": "uint256",
          "name": "",
          "type": "uint256"
        }
      ],
      "stateMutability": "view",
      "type": "function"
    },
    {
      "inputs": [
        {
          "internalType": "contract IERC20Token",
          "name": "_tokenA",
          "type": "address"
        },
        {
          "internalType": "contract IERC20Token",
          "name": "_tokenB",
          "type": "address"
        }
      ],
      "name": "latestRateAndUpdateTime",
      "outputs": [
        {
          "internalType": "uint256",
          "name": "",
          "type": "uint256"
        },
        {
          "internalType": "uint256",
          "name": "",
          "type": "uint256"
        },
        {
          "internalType": "uint256",
          "name": "",
          "type": "uint256"
        }
      ],
      "stateMutability": "view",
      "type": "function"
    },
    {
      "inputs": [],
      "name": "tokenA",
      "outputs": [
        {
          "internalType": "contract IERC20Token",
          "name": "",
          "type": "address"
        }
      ],
      "stateMutability": "view",
      "type": "function"
    },
    {
      "inputs": [],
      "name": "tokenAOracle",
      "outputs": [
        {
          "internalType": "contract IChainlinkPriceOracle",
          "name": "",
          "type": "address"
        }
      ],
      "stateMutability": "view",
      "type": "function"
    },
    {
      "inputs": [],
      "name": "tokenB",
      "outputs": [
        {
          "internalType": "contract IERC20Token",
          "name": "",
          "type": "address"
        }
      ],
      "stateMutability": "view",
      "type": "function"
    },
    {
      "inputs": [],
      "name": "tokenBOracle",
      "outputs": [
        {
          "internalType": "contract IChainlinkPriceOracle",
          "name": "",
          "type": "address"
        }
      ],
      "stateMutability": "view",
      "type": "function"
    },
    {
      "inputs": [
        {
          "internalType": "contract IERC20Token",
          "name": "",
          "type": "address"
        }
      ],
      "name": "tokenDecimals",
      "outputs": [
        {
          "internalType": "uint8",
          "name": "",
          "type": "uint8"
        }
      ],
      "stateMutability": "view",
      "type": "function"
    },
    {
      "inputs": [
        {
          "internalType": "contract IERC20Token",
          "name": "",
          "type": "address"
        }
      ],
      "name": "tokensToOracles",
      "outputs": [
        {
          "internalType": "contract IChainlinkPriceOracle",
          "name": "",
          "type": "address"
        }
      ],
      "stateMutability": "view",
      "type": "function"
    }
  ],
  "bytecode": "0x608060405234801561001057600080fd5b50604051610a35380380610a358339818101604052608081101561003357600080fd5b508051602082015160408301516060909301519192909183836100568282610157565b83836100628282610157565b600080546001600160a01b03808b166001600160a01b03199283161790925560018054928a169290911691909117905561009b886101c7565b6001600160a01b0389166000908152600260205260409020805460ff191660ff929092169190911790556100ce876101c7565b6001600160a01b039788166000818152600260209081526040808320805460ff9690961660ff1990961695909517909455600380549a8c166001600160a01b03199b8c168117909155600480549a8d169a8c168b1790559b909a168152600590995281892080548916909a179099559787525050509390922080549091169091179055506102c1565b61016082610263565b61016981610263565b806001600160a01b0316826001600160a01b031614156101c3576040805162461bcd60e51b815260206004820152601060248201526f4552525f53414d455f4144445245535360801b604482015290519081900360640190fd5b5050565b60006001600160a01b03821673eeeeeeeeeeeeeeeeeeeeeeeeeeeeeeeeeeeeeeee14156101f65750601261025e565b816001600160a01b031663313ce5676040518163ffffffff1660e01b815260040160206040518083038186803b15801561022f57600080fd5b505afa158015610243573d6000803e3d6000fd5b505050506040513d602081101561025957600080fd5b505190505b919050565b6001600160a01b0381166102be576040805162461bcd60e51b815260206004820152601360248201527f4552525f494e56414c49445f4144445245535300000000000000000000000000604482015290519081900360640190fd5b50565b610765806102d06000396000f3fe608060405234801561001057600080fd5b50600436106100a35760003560e01c8063b1772d7a11610076578063c8f33c911161005b578063c8f33c91146101ab578063cbd962d1146101c5578063f997fda7146101eb576100a3565b8063b1772d7a14610157578063b9e1715b146101a3576100a3565b80630fc63d10146100a85780635f64b55b146100cc5780638ee573ac146100d4578063ae81800414610110575b600080fd5b6100b06101f3565b604080516001600160a01b039092168252519081900360200190f35b6100b0610202565b6100fa600480360360208110156100ea57600080fd5b50356001600160a01b0316610211565b6040805160ff9092168252519081900360200190f35b61013e6004803603604081101561012657600080fd5b506001600160a01b0381358116916020013516610226565b6040805192835260208301919091528051918290030190f35b6101856004803603604081101561016d57600080fd5b506001600160a01b03813581169160200135166103b5565b60408051938452602084019290925282820152519081900360600190f35b6100b06103e4565b6101b36103f3565b60408051918252519081900360200190f35b6100b0600480360360208110156101db57600080fd5b50356001600160a01b0316610515565b6100b0610530565b6000546001600160a01b031681565b6001546001600160a01b031681565b60026020526000908152604090205460ff1681565b6000808383610235828261053f565b6001600160a01b0380871660009081526005602090815260408083205481516350d25bcd60e01b81529151939416926350d25bcd92600480840193919291829003018186803b15801561028757600080fd5b505afa15801561029b573d6000803e3d6000fd5b505050506040513d60208110156102b157600080fd5b50516001600160a01b0380881660009081526005602090815260408083205481516350d25bcd60e01b81529151959650929492909316926350d25bcd9260048083019392829003018186803b15801561030957600080fd5b505afa15801561031d573d6000803e3d6000fd5b505050506040513d602081101561033357600080fd5b50516001600160a01b03808a1660009081526002602052604080822054928b16825290205491925060ff9081169116808211156103835761037c8360ff83850316600a0a6105e0565b92506103a6565b8060ff168260ff1610156103a6576103a38460ff84840316600a0a6105e0565b93505b50919890975095505050505050565b60008060008060006103c78787610226565b9150915081816103d56103f3565b94509450945050509250925092565b6003546001600160a01b031681565b600080600360009054906101000a90046001600160a01b03166001600160a01b0316638205bf6a6040518163ffffffff1660e01b815260040160206040518083038186803b15801561044457600080fd5b505afa158015610458573d6000803e3d6000fd5b505050506040513d602081101561046e57600080fd5b505160048054604080517f8205bf6a00000000000000000000000000000000000000000000000000000000815290519394506000936001600160a01b0390921692638205bf6a928282019260209290829003018186803b1580156104d157600080fd5b505afa1580156104e5573d6000803e3d6000fd5b505050506040513d60208110156104fb57600080fd5b5051905080821161050c578061050e565b815b9250505090565b6005602052600090815260409020546001600160a01b031681565b6004546001600160a01b031681565b6105498282610658565b6001600160a01b03828116600090815260056020526040902054161580159061058b57506001600160a01b038181166000908152600560205260409020541615155b6105dc576040805162461bcd60e51b815260206004820152601560248201527f4552525f554e535550504f525445445f544f4b454e0000000000000000000000604482015290519081900360640190fd5b5050565b6000826105ef57506000610652565b828202828482816105fc57fe5b041461064f576040805162461bcd60e51b815260206004820152600c60248201527f4552525f4f564552464c4f570000000000000000000000000000000000000000604482015290519081900360640190fd5b90505b92915050565b610661826106d1565b61066a816106d1565b806001600160a01b0316826001600160a01b031614156105dc576040805162461bcd60e51b815260206004820152601060248201527f4552525f53414d455f4144445245535300000000000000000000000000000000604482015290519081900360640190fd5b6001600160a01b03811661072c576040805162461bcd60e51b815260206004820152601360248201527f4552525f494e56414c49445f4144445245535300000000000000000000000000604482015290519081900360640190fd5b5056fea2646970667358221220e96a701938cfa453e826fa25cf13c45427b254403a4fcb26d9c24556e6fdefa164736f6c634300060c0033",
  "linkReferences": {},
  "deployedLinkReferences": {}
}